:020000040800F2
:100000001827002045010008E91B0008650D0008BD
:10001000E51B0008B907000849440008000000007B
:100020000000000000000000000000004520000863
:10003000C10B000800000000011E0008912100080B
:100040005F0100085F0100085F0100085F01000810
:100050005F0100085F0100085F0100085F01000800
:100060005F010008390C0008650C00085F010008FA
:100070005F0100085F0100085F0100085F010008E0
:100080005F0100085F0100085F0100085F010008D0
:100090005F0100085F0100085F010008910C000883
:1000A0005F0100085F0100085F0100085F010008B0
:1000B0005F010008E92100085F0100085F010008F6
:1000C0005F0100085F0100085F0100085F01000890
:1000D0005F01000831430008CD4300085F010008BC
:1000E000DD0B00085F0100085F0100085F010008E8
:1000F0005F0100085F0100085F0100085F01000860
:100100005F0100085F010008292200085F01000864
:100110005F0100085F0100085F0100085F0100083F
:100120005F0100085F0100085F0100085F0100082F
:10013000DFF80CD000F070F900480047214C0008AF
:10014000182700200648804706480047FEE7FEE7DC
:10015000FEE7FEE7FEE7FEE7FEE7FEE7FEE7FEE777
:100160009921000831010008D2B201E000F8012B0A
:10017000491EFBD270470022F6E710B513460A4627
:1001800004461946FFF7F0FF204610BD0FB400B536
:100190008DB010A909900B9000914FF0FF300A909C
:1001A00000200C9005480690054807906A4609A86B
:1001B0000F9900F003F90DB05DF814FBD9030008A6
:1001C000F70300082DE9FF5F1D464FF0FF3BD5E91F
:1001D000014691465F464FF00008A9697F1C0198CF
:1001E0008847296A824688470028F6D1BAF1FF3F3E
:1001F0000CD024F4C064002E19DD600614D5BAF1C9
:100200002B0F09D0BAF12D0F0ED103E0584604B0E0
:10021000BDE8F09F44F48064A9697F1C0198884779
:10022000761E8246002E02DDBAF1300F03D0B9F1FE
:10023000000F26D032E0A969761E44F400747F1CBA
:10024000019888478246002E05DDBAF1780F06D066
:10025000BAF1580F03D0B9F1000F10D01EE0B9F178
:10026000000F02D0B9F1100F18D1A969761E24F43D
:1002700000747F1C019888478246102002E0082005
:1002800000E00A20814609E008FB0908A969761EFA
:1002900044F400747F1C019888478246002E05DDD7
:1002A0004946504600F075F80028EDDAE9690198F2
:1002B0008847A00502D46FF00100A8E7E00725D128
:1002C000600613D5600502D5C8F1000000E0404685
:1002D00029680A1D2A600968220501D5087015E001
:1002E000220701D5088011E008600FE02868011D91
:1002F00029600068210502D580F8008006E021070A
:1003000002D5A0F8008001E0C0F8008038467EE702
:100310002DE9F05F0546002092469B46884606463A
:10032000814640241BE0284641464746224600F0CD
:1003300020F853465A46C01A914110D31146184628
:10034000224600F07BF82D1A67EB01084F46224643
:100350000120002100F072F817EB00094E41201E29
:10036000A4F10104DFDC484631462A464346BDE895
:10037000F09F202A04DB203A21FA02F00021704786
:1003800021FA02F3D040C2F12002914008431946FD
:1003900070473A2800D2303820F02002412A01D399
:1003A000A2F13700884201D34FF0FF3070470000C0
:1003B000026811441378016018467047D1600449FF
:1003C00051610449116200211161114600F04AB8DF
:1003D000B10300085B040008426842B1016811F8EB
:1003E000013B23B1521EC0E900121846704701219B
:1003F000C160881E704742685AB1C368016843B93A
:1004000083688B4205D0491E521CC0E900120020AF
:1004100070474FF0FF307047064C074D06E0E0682C
:1004200040F0010394E8070098471034AC42F6D33B
:10043000FFF782FE745E0008945E0008202A04DB49
:10044000203A00FA02F1002070479140C2F12003E7
:1004500020FA03F3194390407047C0B24FF4F051B3
:1004600000F096B92DE9F34F8BB04FF0000801F181
:100470000C000C464FF0010B46460DF1080A0190A6
:100480006269012101989047051E2DD0252D2CD0A1
:10049000216A8847C0B16269012101989047216AA9
:1004A00088470028F7D1411E62690198904700E013
:1004B000761CA1690B988847216A88470028F7D1E4
:1004C000E1690B988847DBE7A1690B9888470746E5
:1004D000A84201D1761CD3E7E1690B9888477F1CBD
:1004E00002D1B8F1000F6FD046E1002762693D46A6
:1004F0003946019890472A2804D162690121019860
:1005000090470125DFF884926269012101989047A4
:10051000A0F130010A290AD24F45E5DC07EB87013B
:1005200000EB4107303FDFD445F01005ECE7E9066A
:1005300001D46FF000476C280AD04C2814D06828EA
:1005400015D06A280DD074281CD07A281AD01DE046
:1005500062690121019890476C2802D045F004059A
:1005600014E045F002050DE045F020050AE062695F
:10057000012101989047682802D045F0080505E060
:1005800045F400656269012101989047C4E901576B
:1005900065283DD019DC58287AD00CDC452837D0A6
:1005A00004DC252826D0412831D131E046282FD03F
:1005B00047282CD12CE05B2877D0612828D06328ED
:1005C0007CD0642823D15AE0D0E06F2848D008DCE2
:1005D00066281DD067281BD0692821D06E2816D127
:1005E00027E0702845D0732868D0752847D0782830
:1005F0000DD14DE0A1690B988847054625283FF4A9
:1006000069AFE1690B9888476D1C3FF46AAFB3E0AE
:1006100023466A466FF001000B99AFF300809EE01D
:1006200045F040006060A80723464FF0000236D432
:100630003EE0E8077FF447AF2068011D21600068B5
:10064000290501D506701BE7290701D5068017E7A4
:10065000A90703D5F117C0E9006111E706600FE7AC
:1006600045F040006060A80723464FF0080216D40A
:100670001EE040F60E0125EA0100606016E045F03C
:1006800040006060A80723464FF00A0207D40FE03D
:1006900045F040006060A80708D5234610226FF09F
:1006A00001000B99AFF3008059E007E023461022C8
:1006B0006FF001000B99FFF785FD50E04FF0000946
:1006C0004F464B46632802D05B2806D040E0E80640
:1006D00001D40120A06001273AE06269012101985C
:1006E00090475E2805D14FF001096269494601989B
:1006F0009047216939B900210A46534643F8212021
:10070000491C0829FADBB0B3216969B9C11700EBAC
:10071000D16253110AEB830122F01F02821A0120D9
:100720000B68904003430B60626901210198904778
:100730005D28E8D1B9F1000F09D00020514651F8E9
:100740002020D24341F82020401C0828F7DB02ABD0
:10075000224600976FF001000B99AFF3008000284C
:100760000CDA401C08D1BBF1000F05D04FF0FF3070
:100770000DB0BDE8F08FFFE74046F9E7E90701D18A
:1007800008F1010806444FF0000B79E6CCCCCC0C04
:100790007F2801D9002208E0064A02EB5002C00778
:1007A000127800D1120902F00F0201209040084097
:1007B00070470000CA5D000800BFFEE70020014945
:1007C00008707047710000200020014908707047D0
:1007D0007000002010B540F2066004F00BFD40F2FE
:1007E000046004F007FD4FF4C06004F003FD08232B
:1007F00003224821374804F09BF9102303224821A3
:10080000344804F095F9202303224821314804F0AC
:100810008FF94FF40053032248212F4804F088F940
:100820004FF40073032248212B4804F081F903217F
:10083000042004F031F90421084604F02DF90521C3
:10084000042004F029F90D21022004F025F90921E2
:10085000022004F021F901220021082004F082F88E
:1008600001220021102004F07DF801220021202027
:1008700004F078F801220021500304F073F80122FB
:100880000021500204F06EF8082004F0D7F8102080
:1008900004F0D4F8202004F0D1F84FF4005004F014
:1008A000CDF84FF4007004F0C9F802221146092077
:1008B00004F08EFA022211460A2004F089FA02227C
:1008C0001146282004F084FA02221146172004F071
:1008D0007FFA10BD001801400010014010B540F231
:1008E000026004F087FC40F2046004F083FC4FF4E3
:1008F0008073032210210E4804F01AF94FF480711E
:100900000B4804F0BFF8402303221021094804F0EB
:100910000FF94021074804F0B5F880230322102185
:10092000044804F005F98021024804F0ABF810BD3A
:10093000000801400010014010B54FF4A06004F021
:10094000A9FA10BD10B504F081FB102004F0BAFB29
:10095000102004F0C7FB0446012C26D104F074F8E3
:10096000002004F0A3FA002004F0B8FAA00204F07A
:10097000A9FA002004F07EFC002004F087FC4FF46C
:100980005011200404F066FC182004F09BFB00BF0B
:10099000192004F085FB0028FAD0022004F086FC20
:1009A00000BF04F08FFC0028FBD010BD7FB50446CB
:1009B0000D4640F2017004F01DFC0F4804F016FDD6
:1009C000684604F0E6FDADF800500020ADF80400E4
:1009D0000294ADF806006946074804F07BFD01214A
:1009E000054804F0C3FD002201211D2004F0F0F9A8
:1009F000014804F069FD7FBD000400407FB5044656
:100A00000D4640F2037004F0F5FB0F4804F0EEFCD5
:100A1000684604F0BEFDADF800500020ADF80400BB
:100A20000294ADF806006946074804F053FD012121
:100A3000054804F09BFD00220121322004F0C8F992
:100A4000014804F041FD7FBD000C004010B5044694
:100A500040F2026004F0CEFB40F20E6004F0CAFBEC
:100A60004FF40073032218211D4804F061F84FF47D
:100A70008063032204211A4804F05AF8194804F04C
:100A8000E5FD2146174804F08FFD0021154804F0CC
:100A90008CFE0021134804F098FE0021114804F058
:100AA00074FE04210F4804F078FE08210D4804F07C
:100AB00084FE40F205310B4804F031FE40F207316C
:100AC000084804F02CFE074804F008FE002202212A
:100AD000252004F07DF900200349087010BD0000B6
:100AE00000080140003801409400002010B5044681
:100AF00040F2026004F07EFB40F2117004F07AFBD9
:100B00000423032218211B4804F012F808230322AF
:100B10000421184804F00CF8174804F097FD21460A
:100B2000154804F041FD0021134804F03EFE002169
:100B3000114804F04AFE00210F4804F026FE04216B
:100B40000D4804F02AFE08210B4804F036FE40F25E
:100B50000531094804F0E3FD4FF4A061064804F0B4
:100B6000DEFD00221146262004F032F9024804F08E
:100B7000B5FD10BD000801400044004030B50346FB
:100B8000002016E0B3F900509C68645D0C541C888A
:100B9000641C24B21C80B3F90040B3F90450AC4289
:100BA00001DB00241C80441C20B2DC88641E24B2BB
:100BB000DC80B3F90640002C01DD9042E2DB30BD61
:100BC0007047000001B504490098086000BF024862
:100BD00000680028FBD108BD9C00002010B54FF430
:100BE000005003F0B3FE68B14FF4005003F026FF4D
:100BF0004FF4005003F012FF01200D49C87000208F
:100C00000C49C8704FF4806003F018FF4FF4006087
:100C100003F014FF4FF4805003F010FF4FF48040B6
:100C200003F00CFF4FF4004003F008FF10BD00007C
:100C3000140000201900002010B5082003F086FEE3
:100C400058B1082003F0FAFE082003F0E7FE012067
:100C50000249087000200249087010BD14000020ED
:100C60001900002010B5102003F070FE58B11020BC
:100C700003F0E4FE102003F0D1FE01200249487089
:100C800000200249487010BD140000201900002007
:100C900010B5202003F05AFE58B1202003F0CEFEFC
:100CA000202003F0BBFE0120144988700020144965
:100CB00088704FF4007003F049FE68B14FF4007083
:100CC00003F0BCFE4FF4007003F0A8FE01200B49B6
:100CD000087100200A490871202003F0AFFE40206F
:100CE00003F0ACFE802003F0A9FE4FF4807003F007
:100CF000A5FE4FF4007003F0A1FE10BD140000200B
:100D00001900002070B50346002016E00C5CB3F912
:100D100002609D68AC555C88641C24B25C80B3F9A9
:100D20000240B3F90450AC4201DB00245C80441C57
:100D300020B2DC88641C24B2DC80B3F90640B3F92D
:100D40000450AC4201DA9042E0DB70BD014800780B
:100D500070470000710000200148007870470000D3
:100D60007000002000BFFEE710B501F015FA00F09A
:100D70004AF800F031F84FF4E13000F089F800F063
:100D80007BF800F025F800F043F84FF4E13000F074
:100D900087F800F009F800F023F800F037FB02F0C4
:100DA0008DFA01F0A5F810BD10B5FFF713FD002472
:100DB00006E000200449085504490855601CC4B2E7
:100DC000052CF6DB10BD00001400002019000020E7
:100DD00010B5FFF783FD10BD10B5FFF7ADFD10BDD9
:100DE000704730B50B460024048044808280C48064
:100DF0008360002104E0002485686C544C1C21B2FF
:100E00009142F8DB30BD10B5FFF79CFD10BD704777
:100E100030B5164800684FF47A72B0FBF2F1481E04
:100E2000B0F1807F01D301201BE0481E4FF0E0228B
:100E3000506150170F22002807DA13071D0E0C4BC4
:100E400000F00F04241F1D5503E013071C0E094B6F
:100E50001C5400BF00204FF0E02290610720106179
:100E6000002008B100BFFEE730BD00009800002060
:100E700018ED00E000E400E010B5772140F2E73023
:100E8000FFF794FD772140F2E730FFF7B7FD10BD83
:100E900010B5044600F022F82046FFF7D7FD10BD3C
:100EA00010B5044600F004F82046FFF71FFE10BD01
:100EB00010B5002404E0002006490855601C84B2E7
:100EC000B4F5006FF7DB4FF4006202490248FFF708
:100ED00088FF10BDD0190020C419002010B50024CF
:100EE00006E000200949085509490855601C04B26C
:100EF000642CF6DB642205490648FFF772FF642282
:100F000003490548FFF76DFF10BD00003C2200209B
:100F1000A0220020242200203022002010B5044608
:100F2000052C33D2DFE804F0030C151E280008213D
:100F3000174803F05BFE08B9012010BD0020FCE754
:100F40001021134803F052FE08B90120F5E70020F4
:100F5000F3E720210E4803F049FE08B90120ECE731
:100F60000020EAE74FF400510A4803F03FFE08B9B9
:100F70000120E2E70020E0E74FF40071054803F0AC
:100F800035FE08B90120D8E70020D6E70020D4E7D5
:100F9000001801400010014010B50024C4E064486E
:100FA000005D58B92046FFF7B9FF002805D00120A1
:100FB0005F49085500205F490855B3E05C48005D73
:100FC00001286DD12046FFF7A9FF002845D05948D8
:100FD000005D401C574908550846005D0528ECDBBC
:100FE0004CB900F0CDFD54480068401C52490860DF
:100FF00000F00CFF2AE0012C09D100F0D3FD4F488E
:101000000068401C4D49086000F018FF1EE0022CEB
:1010100009D100F0D7FD4A480068401C48490860E3
:1010200000F004FF12E0032C07D146480068401C82
:101030004449086000F006FF08E0042C06D142484D
:101040000068401C4049086000F0F4FE0220384966
:10105000085500203749085564E0002035490855F7
:10106000334908551CB9082003F0E0FC5AE0012C74
:1010700003D1102003F0DAFC54E0022C03D120202D
:1010800003F0D4FC4EE0032C04D14FF4005003F0E5
:10109000CDFC47E0042C45D1E00103F0C7FC41E062
:1010A0002348005D02283DD12046FFF737FFA8BB4B
:1010B0002048005D401C1F4908550846005D052872
:1010C00030DB2CB900F0C2FE082003F0AFFC1FE0BB
:1010D000012C05D100F0BDFE102003F0A7FC17E0A5
:1010E000022C05D100F0B3FE202003F09FFC0FE09E
:1010F000032C06D100F0AEFE4FF4005003F096FC36
:1011000006E0042C04D100F0A3FEE00103F08EFC05
:101110000020074908550749085503E0FFE700206C
:1011200004490855601CC4B2052CFFF638AF10BD49
:1011300014000020190000200000002004000020FE
:10114000080000200C0000201000002070B50546AB
:1011500000240A4800880949498800FB01F600215B
:10116000084600F0B3FB00F0DBFC00BF03E02846BC
:1011700000F0D0FC641CB442F9D370BDA000002084
:101180001F498871898845F21052914210D138B9AF
:101190004FF4F0711A4A11804FF4487151802EE0DB
:1011A0004FF44871164A11804FF4F071518026E0D7
:1011B0001349898845F21032914210D138B94FF461
:1011C000A0710F4A11804FF4F071518017E04FF475
:1011D000F0710B4A11804FF4A07151800FE038B9C3
:1011E0004FF4A071064A11804FF4F071518006E06F
:1011F0004FF4F071024A11804FF4A0715180704792
:10120000A00000202DE9FF4F85B081468A460020CE
:10121000049003900798A0EB09040898A0EB0A0536
:10122000CDF80890CDF804A0002C01DD012705E0E1
:101230000CB9002702E04FF0FF376442002D02DDB9
:101240004FF0010806E015B94FF0000802E04FF03A
:10125000FF386D42AC4201DD204600E028460646DC
:101260004FF0000B21E0019A91B2029A90B200F087
:1012700023F8049820440490039828440390049889
:10128000B04205DD0498801B049002983844029017
:101290000398B04205DD0398801B039001984044F9
:1012A00001900BF101001FFA80FB701C8345DADD11
:1012B00009B0BDE8F08F000070B504460D46294620
:1012C000204600F003FB00F02BFC0248008800F0F1
:1012D00021FC70BD1E0000202DE9F04104460D46A2
:1012E00016461F462B46324629462046FFF78AFF00
:1012F0003B46224629462046FFF784FF3B463246BE
:1013000039462046FFF77EFF3B46324629463046A7
:10131000FFF778FFBDE8F08170B505460E4614462C
:101320003146284600F0D2FA00F0FAFB204600F0E1
:10133000F1FB70BD2DE9F05F05460E461746984655
:10134000DDF828A0781B401C1FFA80FB344613E010
:101350002146284600F0BAFA00F0E2FB4FF00009FF
:1013600006E0504600F0D6FB09F101001FFA80F9B3
:10137000D945F6DB601C84B24445E9DDBDE8F09F49
:1013800010B540F2026003F035FF40F2036003F055
:1013900031FF40F2056003F02DFF40F2066003F0DC
:1013A00029FF4FF4805303221021144803F0C0FB9F
:1013B000012303221021124803F0BAFB4CF6B37349
:1013C000032210210F4803F0B3FB4FF68073032272
:1013D00010210D4803F0ACFB80210A4803F054FBB8
:1013E0004FF40061074803F04FFB2021054803F04C
:1013F0004BFB1021034803F047FB10BD00080140E0
:10140000000C0140001401400018014010B5FFF726
:10141000B7FF4FF48051994803F036FB0A20FFF7DD
:10142000D1FB4FF48051954803F02CFB3220FFF79D
:10143000C9FB4FF48051914803F026FBC820FFF709
:10144000C1FBD32000F07EFB00F092F98C4988802C
:1014500000F08EF98A49888000F08AF988498880EE
:10146000084680884FF6FF7101EA00208449888091
:1014700000F07EF9824989880843814988800846BE
:10148000818880A002F0F8FF7D48808845F21051E5
:10149000884210D14FF43050794908814FF42850D8
:1014A00048814FF42C5088814FF4487008804FF4E5
:1014B000F0704880CCE07248808845F21031884254
:1014C0000DD12C206E4908812A2048812B2088814B
:1014D0004FF4A07008804FF4F0704880B8E02C20E2
:1014E000674908812A2048812B2088814FF4A07009
:1014F00008804FF4F07048800846808847F2897170
:1015000088423ED10021112000F012FB7820FFF725
:1015100059FB05213A2000F00BFB0C21B22000F012
:1015200007FB0C21B22000F003FB0021B72000F0E4
:10153000FFFA3D21BB2000F0FBFA2C21C02000F077
:10154000F7FA0121C22000F0F3FA1321C32000F0C2
:10155000EFFA2021C42000F0EBFA0F21C62000F0A2
:10156000E7FAA421D02000F0E3FAA121D02000F076
:10157000DFFA0021292000F0DBFA7820FFF722FBB8
:1015800066E03F48808847F29671884252D1002138
:10159000112000F0CDFA7820FFF714FB0821362047
:1015A00000F0C6FA05213A2000F0C2FA0021B1206D
:1015B00000F0BEFA1821B12000F0BAFA0021B320E1
:1015C00000F0B6FA0221B32000F0B2FA0321B320F2
:1015D00000F0AEFA0821B32000F0AAFA0021B420EE
:1015E00000F0A6FA0221C02000F0A2FA0221C120D8
:1015F00000F09EFA3221C52000F09AFA3221C7206D
:1016000000F096FA0821362000F092FA00213720E7
:1016100000F08EFA0021382000F08AFA00213920EB
:1016200000F086FA0021292000F082FA7820FFF7E6
:10163000C9FA0DE00021112000F07AFA7820FFF7B6
:10164000C1FA0021292000F073FA7820FFF7BAFAD6
:101650000020FFF795FD022000F0B8F801210F48A7
:1016600003F012FA0020FFF771FD05484388028855
:1016700081880BA002F000FF10BD000000080140AF
:10168000A00000205B4C43445D205265616420490A
:10169000443A203078253034580D0A00000C0140BF
:1016A0005B4C43445D20496E697420446F6E652C29
:1016B0002049443A203078253034582C205769642A
:1016C00074683A2025642C204865696768743A205C
:1016D00025640D0A0000000070B500254CF203736C
:1016E00003220421204803F023FA4FF680730322DB
:1016F00004211E4803F01CFA1B4803F07FFA04463D
:10170000A00B04F0030140EA810004F4807140EA78
:10171000411004F4007140EA411004F4806140EA91
:1017200041100543114803F069FA0646F02000EA2B
:10173000E6004FF4706101EAE60108434FF480517E
:1017400001EAE601084305434CF20373032210212A
:10175000054803F0EDF94FF680730322102103488A
:1017600003F0E6F9284670BD00140140001801405E
:101770001CB5002001904FF40061134803F084F978
:101780008021114803F07EF910210F4803F07AF907
:101790000020009005E000BF9DF80000401CC0B292
:1017A00000909DF800000A28F5DBFFF795FF0190F7
:1017B0001021054803F068F98021034803F064F91B
:1017C000BDF804001CBD0000001401402DE9F041EB
:1017D0000546002400273C488079012818D1082DAF
:1017E00015D2DFE805F00406080A0C0E10120625D3
:1017F0000DE007250BE0042509E0052507E001259C
:1018000005E0002503E0032501E0022500BF00BF3D
:10181000082D1CD2DFE805F00406090C0F1215187C
:1018200000BF14E044F0800411E044F040040EE0F6
:1018300044F0C0040BE044F0200408E044F06004ED
:1018400005E044F0A00402E044F0E00400BF00BF63
:101850001D48808845F21051884202D14FF45857F4
:1018600000E036271848808847F29671884205D0F4
:101870001548808847F28971884201D144F00804F4
:101880002146384600F054F904F0200068B10E48B3
:1018900000880D494988884214DA0B480688408838
:1018A00009490880084646800CE007480088064938
:1018B0004988884206DD0448068840880249088035
:1018C00008464680BDE8F081A000002070B50446BF
:1018D0000D461E48808845F21051884220D11B4990
:1018E000488900F02FF9201200F0F6F817494989CD
:1018F000491C88B200F026F9E0B200F0EDF8134977
:10190000888900F01FF9281200F0E6F80F4989894C
:10191000491C88B200F016F9E8B200F0DDF813E0D7
:101920000A49488900F00EF9201200F0D5F8E0B21B
:1019300000F0D2F80549888900F004F9281200F077
:10194000CBF8E8B200F0C8F870BD0000A00000209D
:101950002DE9F05F80460C4616461F46A346A6F1C9
:101960002000C6B2102F3DD1002539E01E4800EB03
:10197000061010F805904FF0000A2BE009F08000E7
:1019800030B11A48028821464046FFF7C5FC07E0FF
:101990000A9828B91648028821464046FFF7BCFC41
:1019A0004FEA49604FEA1069601C84B211484088D0
:1019B000A04201DCBDE8F09FA4EB0B00B84205D1CA
:1019C0005C4608F101001FFA80F806E00AF1010008
:1019D00000F0FF0ABAF1080FD0DB00BF681CC5B2E7
:1019E000102DC3DB00BFE5E7DA5700081E0000201A
:1019F00020000020A00000202DE9F84F04460D46ED
:101A000090469946DDE90A6704F0FF0A08EB0400F6
:101A10001FFA80F809EB05001FFA80F916E044452B
:101A200002DB5446A81985B24D4500DB14E00020C6
:101A300000903A78334629462046FFF789FF304622
:101A400006EBD07104EB61018CB27F1C38787E28E4
:101A500002DC38782028E2DA00BFBDE8F88F000009
:101A600070B504461A4803F0D5F806464CF20370E8
:101A7000864304F00300C4F3810141EA803004F49A
:101A8000005140EA611004F4804140EA611004F41E
:101A9000004140EA6110064331460D4803F0BEF8AC
:101AA0000C4803F0B7F805464FF68070854304F004
:101AB000F000C00004F4706140EAC10004F48051F9
:101AC00040EAC10005432946024803F0A7F870BD6B
:101AD000001401400018014010B504464FF40061A5
:101AE0000B4802F0D1FF8021094802F0CBFF2046CD
:101AF000FFF7B6FF2021064802F0C4FF202104486A
:101B000002F0C2FF8021024802F0BEFF10BD0000BB
:101B10000014014010B504462046FFF7DDFF10BD5C
:101B200010B50249088900F00DF810BDA000002092
:101B300070B505460C46284600F004F82046FFF72D
:101B4000CBFF70BD10B504464FF400610B4802F0A6
:101B500099FF8021094802F095FF2046FFF780FF9A
:101B60002021064802F08EFF2021044802F08CFF5D
:101B70008021024802F088FF10BD000000140140DF
:101B800010B54FF48071064803F03CF80446C4F1E8
:101B90000100C2B24FF48071014802F077FF10BD1E
:101BA0000008014010B54021054803F02BF8044619
:101BB000C4F10100C2B24021014802F067FF10BD2C
:101BC0000010014010B58021054803F01BF80446C1
:101BD000C4F10100C2B28021014802F057FF10BDDC
:101BE0000010014000BFFEE77047000000F01F0238
:101BF00001219140024A430942F823107047000036
:101C000080E200E010B588B00446002007900690FE
:101C1000059004900390029001906748007830B1DD
:101C2000012868D0022871D0032870D194E0AA2C32
:101C300003D10120604908705CE00A2C4ED10020DD
:101C40005E495F4A1278885404AB05AA5DA15B48DF
:101C5000FEF79CFA02280CD15C49059808705C4993
:101C6000049808705B48007840F0010059490870FA
:101C700030E003AA58A15148FEF788FA012809D19B
:101C80005749039808705348007840F002005149C2
:101C900008701FE006AB07AA52A14848FEF776FA83
:101CA000022817D1069A91B2079A90B201AB02AA04
:101CB00000F0EAFABDF8080002F0E0F9BDF80410FF
:101CC000BDF8080000F07CF9BDF80410BDF808006C
:101CD00000F00EFB00203A4908700BE0384800780D
:101CE0001E2807DA364801780078401C344A107004
:101CF000324844545CE0062C0AD13C480470002071
:101D00003B49087002202C49087012E012E04BE0B9
:101D1000AA2C03D10120284908700AE03549AA20DD
:101D200003F0C2F83349204603F0BEF800202249F0
:101D300008703DE02E4801780078401C2C4A107055
:101D40002D4844541046007828490978884202DB1F
:101D50000320194908702BE0552C1BD12648007828
:101D60002649087024484078487023488078887055
:101D70002148C078C8702048007988801E48407982
:101D8000887101204872084601F064FD00200A496C
:101D9000087008E0AA2C03D101200749087002E06E
:101DA00000200549087003E000200349087000BFC7
:101DB00000BF08B010BD00008900002004220020F0
:101DC0008C000020502C25642C2564007800002015
:101DD000790000207B000020472C256400000000D3
:101DE0007A00002025642C25640000008B00002070
:101DF0008A00002090000020FA210020D02100203D
:101E0000704710B5FFF7DEFE10BD000010B503A04F
:101E100002F032FB01F0B6FA10BD00004C4C20502D
:101E200055534820444F574E0D0A000010B501F09D
:101E300057FA10BD10B501F037FB10BD10B501F019
:101E40005FFB10BD10B501F031FB10BD704770474E
:101E50007047704770470146C88808B9012070472D
:101E60000020FCE770B50446002501222146034806
:101E7000FEF784FEC5B2284670BD00002422002073
:101E800070B504460D462A4621460248FEF776FE06
:101E9000C0B270BDC4190020F0B50446DDE9055696
:101EA0001148007AF0B114B10F480078207011B1D8
:101EB0000D484078087012B10B488078107013B14B
:101EC0000948C078187025B1074890ED010A85EDE2
:101ED000000A16B10548006830600020024F3872D1
:101EE0000120F0BD0020FCE7B81900206C000020A4
:101EF0000EB54FF448610A48FEF73DF90020094944
:101F0000088009490880094908800949087000903B
:101F10000190029007489DE80E000EC00EBD000023
:101F2000B800002064000020660000206800002047
:101F30006A000020B819002038B51B48007800B9A5
:101F400038BD00201849087000906B464FF4C872E5
:101F500016480188164800F077F80446002C13DD77
:101F6000BDF8000000280FDD124844705F201149C1
:101F7000087005208870C8709FED0F0A084680ED34
:101F8000010A012008720CE000200A49487008701C
:101F90008870C8709FED090A084680ED010A01208B
:101FA000087200BFCCE700006A0000206400002037
:101FB000B8000020B81900209A99193F00000000CD
:101FC00010B51A4A1A4B1B8842F82300194A184BBD
:101FD0001B8842F82310164A1288521C4FF448738B
:101FE00092FBF3F403FB1422114B1A80124A12885D
:101FF000B2F5487F04DA104A1288521C0E4B1A8040
:102000000E4A1288521C0D4B1A800B4A1288B2F5E8
:10201000C87F09DB1A461288642A05DB0122084BB7
:102020001A700022054B1A8010BD0000380D0020E8
:1020300064000020B8000020660000206800002036
:102040006A000020704700002DE9F04FADF2446DAA
:1020500007468C464C4DAC1E002600200090824660
:10206000032A02DBB2F5C87F05DD002018800DF2DF
:10207000446DBDE8F08F002123E00CF54870801A14
:1020800008444FF4487B90FBFBFE0BFB1E001FFA3D
:1020900080F857F828000DF1040B4BF8210001A837
:1020A00050F82100A84202DD01A850F8215001A8F3
:1020B00050F82100A04202DA01A850F82140481C43
:1020C00081B29142D9DB281BDFF8C0B0CBF8000009
:1020D000281B032802DA00201880C8E7281B04EB1D
:1020E000A009012133E001A850F8210048452CDC6B
:1020F00001A850F821B0481E0DF1040E5EF8200032
:10210000834522DC01A850F82100F34601F1010EBD
:102110005BF82EB0584518DA16B90126009114E084
:10212000DDF800B0A1EB0B0B1FFA8BF01B2808DBCE
:10213000C82806DC824406F1010B1FFA8BF60091D9
:1021400002E0C82800DD009100BF481C81B2501E8B
:1021500080B28842C7DC022E02DA0020188086E7AF
:10216000701EBAFBF0F01880B3F800B041F2707E38
:102170009EFBFBFB0BF0FF001E2800DA1E20DC2874
:1021800000DDDC2000BF72E7010000806C00002051
:1021900010B500F06DF810BD10B51048006840F49F
:1021A00070000E4908600E48006840F001000C49BC
:1021B000086000204860C862084600680949084075
:1021C000074908604FF41F0088600846006820F443
:1021D0008020086003F006F910BD000088ED00E0E3
:1021E00000100240FFFFF6FE10B501210B4803F07E
:1021F000C4F9012803D10121084803F0BBF90848BC
:102200000088401C0649088008460088022804DB34
:102210000020088001200349087010BD0004004020
:10222000720000207000002010B501210D4803F05D
:10223000A4F9012803D101210A4803F09BF90A48B7
:102240000088401C00B2084908800846B0F9000028
:10225000B0F57A7F04DB0020088001200349087074
:1022600010BD0000000C0040740000207100002030
:102270000448006820B103480068401E0149086016
:10228000704700009C00002030B5154C247814B92C
:102290001080198030BD134C24783CB9124C20605A
:1022A000124C216001240F4D2C7011E00E4C24685B
:1022B000041B0D4D2D6805EBA4040B4D2C600B4C3D
:1022C00024680C1B094D2D6805EBA404074D2C60F8
:1022D000054C24881480054C24881C8000BFD9E755
:1022E0007E00002088000020800000208400002064
:1022F00070B504460D462A46214602A002F0BCF8FD
:1023000070BD000025752C25750D0A000148007868
:10231000704700007E0000200C490D4A1278885456
:102320000B490978491C0A4A11701146097820297D
:1023300001DB0021117007490978202904DA0549D9
:102340000978491C034A117070470000DA21002007
:102350007C0000207D00002038B5402403E09DF87B
:102360000000FFF74FFC01216846FFF789FD18B117
:10237000201EA4F10104F2D138BD00007CB5054651
:102380000E46AB208DF8000002208DF801008DF87C
:1023900002508DF8036055208DF8040000240DE0F4
:1023A0001DF80410074803F04CF900BF0721054849
:1023B00003F099F90028F9D0601CC4B2052CEFDBBA
:1023C0007CBD00000044004008B1012100E0002174
:1023D000024A11700021024A117070477E000020ED
:1023E000880000200EB500F021FD40F64100204994
:1023F000088020A000F0A6FA4FF6FF7020A140F25E
:102400005D52B423CDE900210290F02264212820FE
:1024100000F062FC01F04CF94FF4FC601C490880AC
:102420001CA010210B46B422CDE90010E62141206A
:10243000FFF7E2FA4FF478401549088019A01021FF
:102440000B46B422CDE90010FA214120FFF7D4FA5F
:102450004BF6F7500E49088016A010210B46B42207
:10246000CDE900104FF4DC714620FFF7C5FA0EBD30
:1024700020000020416C61726D20536574000000E3
:10248000416C61726D2050726F66696C650000006E
:102490001E0000204C4C3A2050726F66696C65201B
:1024A0002B000000524C3A2050726F66696C652018
:1024B0002D0000005072657373204241434B20741D
:1024C0006F204578697400000EB500F0AFFC40F64F
:1024D00041002049088020A000F034FA002021A10A
:1024E00040F2FF729623CDE900210290C8227821A4
:1024F0003C2000F0F1FB01F075F94FF4FC601D4940
:1025000008801DA010210B46C822CDE90010D22161
:102510005520FFF771FA4FF47840164908801AA049
:1025200010210B46C822CDE90010E6215520FFF707
:1025300063FA4BF6F7500F49088018A010210B469C
:10254000C822CDE900104FF4DC714620FFF754FAA1
:102550000EBD0000200000204175746F204C69679B
:10256000687400004C696768742053776974636805
:10257000000000001E00002055503A20456E6162A8
:102580006C6520284F4E2900444E3A2044697361FF
:10259000626C65284F464629000000005072657342
:1025A00073204241434B20746F20457869740000CA
:1025B0002DE9FC4704460D4616461F46DDE90B9AF9
:1025C000DDF8288041F2A2000090E81983B2A0193A
:1025D00082B229462046FEF7ADFE46F66D30294907
:1025E0000880E81983B2A01982B229462046FEF776
:1025F00073FE2448A0F8008005EB070CACF1010C39
:102600001FFA8CF304EB060CACF1010C1FFA8CF2F0
:1026100005F1010C1FFA8CF104F1010C1FFA8CF08A
:10262000FEF75AFE05F1120C1FFA8CF304EB060CB0
:10263000ACF1020C1FFA8CF205F1020C1FFA8CF1BE
:1026400004F1020C1FFA8CF0CDF80080FEF772FE48
:102650000C48A0F800900C48A0F800801020A6F1CB
:102660000C039AB22B1D99B204F10803CDE9000ABC
:1026700098B21023FFF7C0F940F6410002490880E4
:10268000BDE8FC871E000020200000200EB500F0F1
:10269000CDFB40F641002149088021A000F052F90D
:1026A0004FF6FF7021A140F25D52C823CDE9002111
:1026B00002904FF4827250211E2000F00DFB01F0B9
:1026C00043FA4FF4FC601C4908801CA010210B4603
:1026D000B422CDE90010F0213720FFF78DF94FF437
:1026E00078401549088019A010210B46B422CDE985
:1026F00000104FF482713720FFF77EF94BF6F75048
:102700000D49088015A010210B46B422CDE9001018
:102710004FF4DC714620FFF76FF90EBD200000205A
:102720004461746120526576696577005265766907
:1027300065772050616765001E0000204C4C3A20F0
:1027400050616765204E657874000000524C3A2055
:1027500050616765205072657600000050726573A5
:1027600073204241434B20746F2045786974000008
:102770000EB500F05BFB40F641002049088020A028
:1027800000F0E0F84FF6FF7020A140F25D52962372
:10279000CDE900210290C82278213C2000F09CFA6B
:1027A00001F0B8FA4FF4FC601C4908801CA010210D
:1027B0000B46B422CDE90010D2215520FFF71CF9B9
:1027C0004FF478401549088018A010210B46B42218
:1027D000CDE90010E6215520FFF70EF94BF6F75032
:1027E0000E49088014A010210B46B422CDE9001038
:1027F0004FF4DC714620FFF7FFF80EBD20000020EB
:102800004574434F32205365740000004574434FB4
:102810003220537769746368000000001E000020B6
:102820004C4C3A20456E61626C650000524C3A2077
:1028300044697361626C6500507265737320424134
:10284000434B20746F204578697400000EB500F08A
:10285000EDFA40F641002449088024A000F072F807
:10286000002025A140F2FF729623CDE900210290BD
:10287000C82278213C2000F02FFA4FF6FF70224941
:10288000088040F641001849088001F07BFA4FF4B7
:10289000FC601D4908801DA010210B46C822CDE90F
:1028A0000010D2215520FFF7A7F84FF478401649C1
:1028B00008801AA010210B46C822CDE90010E6219D
:1028C0005520FFF799F84BF6F7500F49088018A0EC
:1028D00010210B46C822CDE900104FF4DC714620D0
:1028E000FFF78AF80EBD00002000002046696C74D6
:1028F000657220536574000046696C7465722053DC
:1029000077697463680000001E00002055503A206B
:10291000456E61626C6520284F4E2900444E3A2076
:1029200044697361626C65284F46462900000000C7
:102930005072657373204241434B20746F20457879
:10294000697400001CB5044641F6E300272340F2F9
:102950003F12002100900846FEF7ECFC4FF6FF7096
:102960001749088041F6E300164908801020034605
:1029700078220C21CDE900040846FFF73DF812A0AB
:1029800010210B466C22CDE900100C21C820FFF766
:1029900033F840F641000B49088040F25D50084989
:1029A0000880282340F23F1219460020FEF72AFC37
:1029B000292340F23F1219460020FEF723FC1CBDDC
:1029C0001E0000202000002049443A3031204F4EA4
:1029D0004C494E450000000000B589B000F026FAD1
:1029E00040F641008749088087A0FFF7ABFF88A029
:1029F000002140F2FF724623CDE9002102904FF4FE
:102A0000967232210A20FFF7D3FD83A000214FF4F4
:102A1000FC624623CDE9002102904FF49672822198
:102A20000A20FFF7C5FD7FA000214FF6E072462384
:102A3000CDE9002102904FF49672D2210A20FFF7CF
:102A4000B7FD7BA04FF6FF7140F25D522823CDE920
:102A5000002102904FF496724FF491710A20FFF713
:102A6000A7FD75A04FF6FF7140F25D528223CDE9BC
:102A7000002102904FF496724FF4AA710A20FFF7DA
:102A800097FD40F2FF707049088041F2A2005D4955
:102A900008806E48007820B96DA104A801F0FCFC04
:102AA00005E06A4802786DA104A801F0F5FC04A8CD
:102AB00010210B46C822CDE900104E211820FEF748
:102AC0009BFF4FF4FC606049088041F2A2004D4931
:102AD00008805E48407820B963A104A801F0DCFCBE
:102AE00005E05A48427863A104A801F0D5FC04A887
:102AF00010210B46C822CDE900109E211820FEF7B8
:102B00007BFF4FF6E0705049088041F2A2003D493A
:102B100008804E48807838B94C48C07820B958A110
:102B200004A801F0B9FC06E048488378C27858A1AF
:102B300004A801F0B1FC04A810210B46DC22CDE969
:102B40000010EE211820FEF757FF4FF6E0703E49C7
:102B5000088041F2A2002B4908803C48828850A19D
:102B600004A801F099FC04A810210B465422CDE9D9
:102B700000104FF49B711820FEF73EFF48F23040E2
:102B80003149088041F2A2001E4908802F48037A8B
:102B9000C27946A104A801F07FFC04A810210B46CD
:102BA0006022CDE900104FF49B717820FEF724FFDE
:102BB00048F230402449088041F2A20011490880BF
:102BC00022488079FF2804D13DA104A801F064FCCB
:102BD00005E01E4882793DA104A801F05DFC04A82F
:102BE00010210B464022CDE900104FF49B71F020DC
:102BF000FEF702FF01F036FB40F641000149088074
:102C000009B000BD200000204D6F6E69746F720026
:102C100053504F320000000050756C7365205261B4
:102C200074650000506572667573696F6E00000010
:102C30005369676E616C000050756C736520576155
:102C400076652835732900001E000020AE000020A4
:102C500053504F323A202D2D2020000053504F3238
:102C60003A2025336420000050523A2020202D2D98
:102C70002020000050523A202025336420200000FC
:102C8000504920523A2D2D20493A2D2D2000000088
:102C9000504920523A25326420493A2532642000B6
:102CA000523A2025642020202000000050574D205B
:102CB000523A256420493A25642020200000000073
:102CC0004761696E3A202D2D202000004761696E12
:102CD0003A202564202020002DE9FC4704460D46BB
:102CE00016461F46DDE90B9ADDF8288041F2A20066
:102CF0000090E81983B2A01982B229462046FEF757
:102D000019FB2848A0F80080E81983B2A01982B204
:102D100029462046FEF7E0FA05EB070CACF1010C62
:102D20001FFA8CF304EB060CACF1010C1FFA8CF2C9
:102D300005F1010C1FFA8CF104F1010C1FFA8CF063
:102D4000FEF7CAFA05F1180C1FFA8CF304EB060C17
:102D5000ACF1020C1FFA8CF205F1020C1FFA8CF197
:102D600004F1020C1FFA8CF0CDF80080FEF7E2FAB5
:102D70000C48A0F800A00C48A0F800801020A6F194
:102D800014039AB26B1D99B204F10A03CDE900094C
:102D900098B21023FEF730FE40F641000249088049
:102DA000BDE8FC871E000020200000200EB500F0CA
:102DB0003DF840F641001249088012A0FFF7C2FD1D
:102DC000002012A140F2FF729623CDE9002102906B
:102DD000DC2278213220FFF77FFF01F0B7F84BF6B5
:102DE000F7500C4908800CA010210B46C822CDE9F1
:102DF00000104FF4DC714620FEF7FEFD0EBD000012
:102E000020000020522043616C696200522056610C
:102E10006C7565001E00002050726573732042417E
:102E2000434B20746F20457869740000F8B5002486
:102E300021E02046E11704EB1171091108318EB22F
:102E40003F2E00DD3F260F2094FBF0F00A3087B2C2
:102E50001F2F00DD1F274FF4006040EA4610384363
:102E600085B2234640F23F12214600200095FEF72E
:102E700061FA601C84B2B4F5F07FDADBF8BD0000C3
:102E80007CB505460E4605EB85003C2101EBC004F0
:102E9000FEB142F2B820009004F11A0083B2A01FE4
:102EA00081B240F231120F20FEF744FA4FF6FF7064
:102EB0003049088042F2B8202F49088004F11A00F6
:102EC00083B2A01F81B240F231120F20FEF704FA44
:102ED00022E041F2A200009004F11A0083B2A01F88
:102EE00081B240F231120F20FEF724FA46F66D301F
:102EF0002049088041F2A2001F49088004F11A000D
:102F000083B2A01F81B240F231120F20FEF7E4F924
:102F10004FF6FF7017490880184850F82500102117
:102F20000B46C822CDE9001021461E20FEF764FDA5
:102F30005EB113A010210B461422CDE900102146EA
:102F40004FF48C70FEF758FD12E046F66D300949DB
:102F5000088041F2A200084908800AA010210B460F
:102F60001422CDE9001021464FF48C70FEF744FD89
:102F70007CBD00001E00002020000020400000203A
:102F80003E000000200000007CB517480588FFF7D0
:102F90004DFF16A0FFF7D6FC00240CE01648007881
:102FA000844201D1012000E0002001462046FFF7C5
:102FB00067FF601CC4B2092CF0DB4BF6F7500F49D9
:102FC000088040F64100084908800DA010210B46FA
:102FD0004FF48C72CDE900104FF4DC711420FEF731
:102FE0000BFD014805807CBD2000002053657474F2
:102FF000696E677300000000250000201E0000209D
:103000004C4C2F524C3A53656C204C483A456E74E8
:1030100065722052483A4261636B00000EB5FFF7BB
:1030200005FF40F641002049088020A0FFF78AFCF8
:10303000002022A140F2FF729623CDE900210290E8
:10304000C82278213C20FFF747FE00F00BFF4FF429
:10305000FC601D4908801DA010210B46A022CDE96F
:103060000010D2215520FEF7C7FC4FF478401649D6
:1030700008801AA010210B46A022CDE90010E621FD
:103080005520FEF7B9FC4BF6F7500F49088017A002
:1030900010210B46C822CDE900104FF4DC71462008
:1030A000FEF7AAFC0EBD00002000002053704F3236
:1030B000204761696E205365740000004761696EA6
:1030C000204C6576656C00001E00002055503A20AB
:1030D000496E63726561736500000000444E3A20DA
:1030E000446563726561736500000000507265732A
:1030F00073204241434B20746F204578697400006F
:103100000EB5FFF793FE40F641002049088020A04D
:10311000FFF718FC4FF6FF7020A140F25D52B42378
:10312000CDE900210290F02264212820FFF7D4FD90
:1031300000F04EFF4FF4FC601C4908801CA01021D9
:103140000B46B422CDE90010E6214120FEF754FCE5
:103150004FF478401549088019A010210B46B4227D
:10316000CDE90010FA214120FEF746FC4BF6F7505E
:103170000E49088016A010210B46B422CDE900109C
:103180004FF4DC714620FEF737FC0EBD2000002016
:1031900053797374656D20536574000053797374AB
:1031A000656D20436F6E6669670000001E00002099
:1031B0004C4C3A204272696768746E6573732B00D9
:1031C000524C3A204272696768746E6573732D00C1
:1031D0005072657373204241434B20746F204578D1
:1031E000697400000EB5FFF721FE40F6410020494A
:1031F000088020A0FFF7A6FB4FF6FF7020A140F249
:103200005D529623CDE900210290C82264213C2022
:10321000FFF762FD00F050FF4FF4FC601B4908808F
:103220001BA010210B46B422CDE90010C32155206C
:10323000FEF7E2FB4FF478401449088017A01021F4
:103240000B46B422CDE90010D7215520FEF7D4FB60
:103250004BF6F7500D49088013A010210B46B422FD
:10326000CDE900104FF4DC714620FEF7C5FB0EBD22
:1032700020000020576F726B204D6F6465000000C6
:103280004D6F64652053656C656374001E000020FB
:103290004C4C3A204D6F6E69746F7200524C3A205C
:1032A000536572766963650050726573732042419D
:1032B000434B20746F2045786974000010B540F6C8
:1032C0004100FDF743FF0020034908700120034936
:1032D000087000F0AFF910BD240000202600002087
:1032E00010B52548007810B101283FD109E0012030
:1032F00021490870002021490870012020490870E8
:1033000035E01E48007809282AD2DFE800F00509D8
:103310000D1115191D21250002201749087020E004
:103320000320154908701CE004201349087018E0B8
:1033300005201149087014E006200F49087010E0BC
:1033400007200D4908700CE008200B49087008E0C0
:1033500009200949087004E00A200749087000E0C4
:1033600000BF00BF01200649087000E000BF00BF99
:1033700000F060F910BD00002400002025000020AE
:103380002600002010B53E4800780B2874D2DFE8F4
:1033900000F07306373D1B27732D494F62003948F3
:1033A000007800280FDD374804780078401E354942
:1033B000087000212046FFF763FD012131480078A5
:1033C000FFF75EFD00BF58E000210220FEF7D6FFA8
:1033D0002D488079401C2C49887100F043FD4CE059
:1033E0000120FEF7F1FF00F0CDFC46E00120274967
:1033F000087001210520FEF7C1FF00F0F3F93CE061
:1034000000202349087000F057FE36E0214800787C
:10341000022804DA1F480078401C1E49087000F09A
:1034200047F92AE001201C49087000F073FC24E0F1
:103430001A480078052804DA18480078401C174913
:10344000087016480078032802DB01201449087030
:1034500000F0BEFD11E013480078022805DA11489B
:103460000078401C0F49087002E000200D490870E8
:1034700000F06AFB01E0FFE700BF00BF10BD0000E5
:103480002400002025000020AE000020270000209E
:1034900028000020290000202A0000202B00002006
:1034A0002C0000202D0000207047000010B51248AD
:1034B00000780B2817D2DFE800F016060A0B0C0D77
:1034C0000E0F1011120000200B4908700CE000BF15
:1034D00000BF00BF00BF00BF00BF00BF00BF012092
:1034E0000549087000E000BF00BF012003490870D3
:1034F00000F0A0F810BD00002400002026000020ED
:1035000010B5404800780B2878D2DFE800F0770645
:103510003B411B2B77314D5366003B480078082810
:103520000FDA394804780078401C374908700021C8
:103530002046FFF7A5FC012133480078FFF7A0FCE7
:1035400000BF5CE000210320FEF718FF2F488079C0
:10355000002804DD2D488079401E2C49887100F038
:1035600081FC4CE00020FEF72FFF00F00BFC46E052
:1035700000202749087000210520FEF7FFFE00F01B
:1035800031F93CE001202349087000F095FD36E058
:1035900021480078002804DD1F480078401E1E499D
:1035A000087000F085F82AE000201C49087000F03F
:1035B000B1FB24E01A480078012804DD184800789F
:1035C000401E1749087016480078032802DA0020C8
:1035D0001449087000F0FCFC11E013480078002842
:1035E00006DD11480078401E0F49087003E005E031
:1035F00002200D49087000F0A7FA00E000BF00BFEC
:1036000010BD00002400002025000020AE00002096
:103610002700002028000020290000202A00002088
:103620002B0000202C0000202D00002010B500F001
:1036300001F810BD10B51C48007800B910BD1B483A
:1036400000780B2828D2DFE800F006090C0F1215CD
:10365000181B1E212400FFF7BFF91EE0FFF794FCA2
:103660001BE0FFF7BFFD18E0FEF7BCFE15E0FFF71B
:10367000D5FC12E0FFF7EAF80FE0FFF797FB0CE04C
:10368000FEF722FF09E0FFF773F806E0FFF738FDC9
:1036900003E0FEF7FBFF00E000BF00BF002002498F
:1036A000087000BFCAE700002600002024000020A8
:1036B00070B58AB03048007818B95A262D24822572
:1036C0000AE02D480078012803D15C2632248C259D
:1036D00002E05E26372496254FF6FF7027490880C2
:1036E00040F64100264908802348007850B925A0BB
:1036F00010210B46B422CDE900108C214120FEF7A9
:103700007BF918E01C48007801280AD122A010217A
:103710000B46B422CDE900108C214120FEF76CF954
:1037200009E022A010210B46B422CDE900108C2123
:103730004120FEF761F9324621A102A800F0ACFE5B
:1037400002A810210B46B422CDE90010A821412087
:10375000FEF752F92B4622461DA102A800F09CFE5E
:1037600002A810210B46B422CDE90010BE21412051
:10377000FEF742F90AB070BD290000201E000020AB
:103780002000002050726F66696C653A204C6F779C
:10379000202020200000000050726F66696C653A9E
:1037A000204D656469756D200000000050726F66E1
:1037B000696C653A20486967682020200000000095
:1037C00053704F32204C6F773A2025642020200020
:1037D0004852204D696E2F4D61783A25642F25643B
:1037E000000000001CB54FF6FF700F49088040F63E
:1037F00041000E4908800E48007850B10DA01021FC
:103800000B46A022CDE90010AA215020FEF7F4F8C3
:1038100009E00CA010210B46A022CDE90010AA213E
:103820005020FEF7E9F81CBD1E00002020000020FB
:103830002700002043757272656E743A204F4E2047
:103840002000000043757272656E743A204F464640
:103850002000000030B587B004460CB907B030BD79
:10386000E07928B99248C07910B19148C079E071E7
:10387000207A28B98E48007A10B18D48007A2072DB
:10388000A079FF2806D18A488079FF2802D088488D
:103890008079A0718748007800287DD10025844870
:1038A00000782178884200D00125814840786178ED
:1038B000884200D001257E488078A178884200D0D7
:1038C00001257B48C078E178884200D001257848FE
:1038D0008088A188884200D001257548C079E179A7
:1038E000884200D001257248007A217A884200D0AF
:1038F00001256F488079A179884200D001253DB922
:103900006B48216801606168416021890181A5E7F8
:1039100040F2FF706849088041F2A20067490880C0
:10392000207820B966A102A800F0B6FD04E0227854
:1039300066A102A800F0B0FD02A810210B46C82223
:10394000CDE900104E211820FEF756F84FF4FC6028
:103950005949088041F2A20058490880607820B98E
:103960005DA102A800F098FD04E062785DA102A8C4
:1039700000F092FD02A810210B46C822CDE90010EC
:103980009E211820FEF738F84FF6E0704A4908806B
:1039900041F2A200494900E072E00880A07830B905
:1039A000E07820B952A102A800F076FD05E0A378E6
:1039B000E27853A102A800F06FFD02A810210B4687
:1039C000DC22CDE90010EE211820FEF715F84FF6A5
:1039D000E0703949088041F2A20038490880A28885
:1039E0004BA102A800F058FD02A810210B4654225A
:1039F000CDE900104FF49B711820FDF7FDFF48F250
:103A000030402D49088041F2A2002C490880237AD9
:103A1000E27942A102A800F03FFD02A810210B4666
:103A20006022CDE900104FF49B717820FDF7E4FF90
:103A300048F230402049088041F2A2001F49088026
:103A4000A079FF2804D13AA102A800F025FD04E0E6
:103A5000A2793AA102A800F01FFD02A810210B468E
:103A60004022CDE900104FF49B71F020FDF7C4FF18
:103A70000F4821680160616841602189018115E07A
:103A80000B48216801606168416021890181094812
:103A90000078062802D00A2806D102E000F056FA83
:103AA00003E000F051F800E000BF00BF00BFD5E622
:103AB000AE000020240000201E0000202000002076
:103AC00053504F323A202D2D2020000053504F32BA
:103AD0003A2025336420000050523A2020202D2D1A
:103AE0002020000050523A2020253364202000007E
:103AF000504920523A2D2D20493A2D2D200000000A
:103B0000504920523A25326420493A253264200037
:103B1000523A2025642020202000000050574D20DC
:103B2000523A256420493A256420202000000000F4
:103B30004761696E3A202D2D202000004761696E93
:103B40003A2025642020200000B58BB04FF6FF708E
:103B50004849088040F641004749088047480078B6
:103B600010B1012857D12AE045A010210B46B422FC
:103B7000CDE9001078213220FDF73EFF444802785D
:103B800044A103A800F088FC03A810210B46B4222E
:103B9000CDE9001094213220FDF72EFF3C484278F9
:103BA00040A103A800F078FC03A810210B46B42222
:103BB000CDE90010AA213220FDF71EFF57E03DA0FD
:103BC00010210B46B422CDE9001078213220FDF7F8
:103BD00013FF2F488378C2783AA103A800F05CFC59
:103BE00003A810210B46B422CDE900109421322005
:103BF000FDF702FF2648828836A103A800F04CFC9E
:103C000003A810210B46B422CDE90010AA213220CE
:103C1000FDF7F2FE2BE033A010210B46B422CDE9D4
:103C2000001078213220FDF7E7FE1948037AC279A7
:103C300030A103A800F030FC03A810210B46B422E9
:103C4000CDE9001094213220FDF7D6FE104882798C
:103C50002CA103A800F020FC03A810210B46B422DD
:103C6000CDE90010AA213220FDF7C6FE00BF00BF3B
:103C70000BB000BD1E000020200000202D00002001
:103C80005061676520313A2053504F322F50520017
:103C9000AE00002053504F323A20256420202020CF
:103CA0000000000050523A202564202020202020CF
:103CB000000000005061676520323A2050492F52C1
:103CC00000000000504920523A256420493A2564FA
:103CD00020202000523A202564202020202020206F
:103CE000202000005061676520333A2044726976D5
:103CF0006500000050574D20523A256420493A256E
:103D0000642020004761696E3A202564202020202D
:103D1000202020001CB54FF6FF700F49088040F6A8
:103D200041000E4908800E48007850B10DA01021C6
:103D30000B46AA22CDE9001011465020FDF75CFE8B
:103D400009E00CA010210B46AA22CDE90010114673
:103D50005020FDF751FE1CBD1E0000202000002059
:103D60002A00002043757272656E743A204F4E200F
:103D70002020000043757272656E743A204F4646EB
:103D8000202000001CB54FF6FF700F49088040F658
:103D900041000E490880FEF7B9FA50B10CA010217D
:103DA0000B46A022CDE90010AA215020FDF724FEE9
:103DB00009E00BA010210B46A022CDE90010AA219A
:103DC0005020FDF719FE1CBD1E0000202000002021
:103DD00043757272656E743A204F4E2020000000C9
:103DE00043757272656E743A204F4646200000009B
:103DF00010B588B00446144884711448007810B196
:103E000004281DD119E048F230401149088041F2E0
:103E1000A200104908800C4882790FA103A800F085
:103E20003BFB03A810210B464022CDE900104FF4C4
:103E30009B71F020FDF7E0FD03E000F013F800E0D7
:103E400000BF00BF08B010BDAE000020240000205D
:103E50001E000020200000204761696E3A20256482
:103E60002020200000B58BB04FF6FF700B49088072
:103E700040F641000A4908800A4882790AA103A84D
:103E800000F00AFB03A810210B46A022CDE9001088
:103E9000AA215020FDF7B0FD0BB000BD1E00002090
:103EA00020000020AE00002043757272656E742001
:103EB0004C6576656C3A20256420202000000000C7
:103EC00030B587B004460D4614B90DB907B030BD02
:103ED0001548C47105721548007810B106281ED126
:103EE0001AE048F230401249088041F2A20011491C
:103EF00008800D48037AC2790FA102A800F0CCFA1D
:103F000002A810210B466022CDE900104FF49B71EE
:103F10007820FDF771FD03E000F018F800E000BF25
:103F200000BF00BFD2E70000AE0000202400002048
:103F30001E0000202000002050574D20523A2564DA
:103F400020493A25642020200000000000B58BB0F5
:103F50004FF6FF701449088040F64100134908806D
:103F60001348828813A103A800F096FA03A8102131
:103F70000B467822CDE90010AA216420FDF73CFD14
:103F80000B48037AC2790EA103A800F085FA03A8B2
:103F900010210B46A022CDE90010C3214620FDF7D9
:103FA0002BFD0BB000BD00001E00002020000020F3
:103FB000AE000020523A202564202020200000007E
:103FC00050574D20523A256420493A25642000007C
:103FD00000B58BB04FF6FF701749088040F64100DE
:103FE000164908801648027816A103A800F054FA72
:103FF00003A810210B46B422CDE90010A0214120D6
:10400000FDF7FAFC1448007850B114A010210B46BB
:10401000B422CDE90010BC214120FDF7EDFC09E000
:1040200012A010210B46B422CDE90010BC21412082
:10403000FDF7E2FC0BB000BD1E00002020000020B8
:104040002B0000204272696768746E6573733A20B2
:1040500025642020200000002C0000204B657920E2
:10406000426565703A204F4E200000004B65792074
:10407000426565703A204F464600000010B5044680
:10408000204600F01FF90A48007878B909480078FE
:10409000401C0849087008460078042800DA10BD62
:1040A000002004490870204600F042F800BFF6E7FF
:1040B000240000203D0000201CB54FF6FF700F4982
:1040C000088040F641000E4908800E48007850B93B
:1040D0000DA010210B46AA22CDE9001096215020F8
:1040E000FDF78AFC09E00DA010210B46AA22CDE9BC
:1040F000001096215020FDF77FFC1CBD1E00002003
:10410000200000202800002043757272656E743A0A
:10411000204D6F6E69746F722000000043757272DB
:10412000656E743A205365727669636520000000FD
:104130002DE9F14F82B04448007808B9BDE8FE8F00
:104140004248007820B900F08DF801203F490870FE
:1041500002984FEA002A3E4800684FEA2029B9F148
:10416000080F01DA4FF008092B243A480068AAEB3F
:10417000000060434FEA092190FBF1F6A64200DD02
:1041800026466042864200DA664240F29F18A8EB5B
:10419000060087B230480088143085B22E48008867
:1041A000C8B941F2A20040F2CB1340F22B124FF4F7
:1041B000B97100901420FDF7BDF846F66D3027491F
:1041C0000880434640F22B1241461420FDF71AF8AE
:1041D0002348078029E0681C1FFA80FBBBF5967F07
:1041E00001DB40F22B1B41F2A20040F2CB135A46F6
:1041F0004FF4B97100902846FDF79CF846F66D30F3
:104200001649088041462846FDF756F840F2FF70EF
:1042100012490880A91E88B23B462A4610490988DF
:10422000FCF7F0FF0E48078000BF0B480088801C99
:104230000949088008460088B0F58C7F01DB002022
:10424000088000BF7AE700003C0000202E0000201C
:104250003800002034000020300000201E00002024
:104260003200002008B5002011490870114908806B
:1042700040F29F101049088000201049087041F258
:10428000A20040F2CB1340F22B124FF4B971009010
:104290001420FDF74FF846F66D300949088040F2CA
:1042A0009F1340F22B1219461420FCF7ABFF08BDF8
:1042B0002E00002030000020320000203D000020B1
:1042C0001E00002010B502461102164B1B7843B9A0
:1042D000154B19604FF40063144C23600123114CFB
:1042E0002370114B1B68CB1A0F4C246804EB63132B
:1042F0000D4C236023461B68C81A002800DA404290
:104300000A4B1B68C31A094C246804EB2313074C9F
:10431000236023461B68B3F5006F02DA4FF4006395
:10432000236010BD3C000020340000203800002035
:1043300008B5002000901F491F4801F00AFA78B123
:104340001C491D4801F0F8F92520FDF74FFC1A48DB
:1043500001F072F9C0B200909DF8000000F076F80C
:104360001649154801F0F5F9012806D113491248FC
:1043700001F0E2F9104801F05FF911490E4801F02F
:10438000E8F9B0B12520FDF731FC6846FDF76AFD7C
:104390009DF80010084801F054F90A48FDF75BFD4C
:1043A00038B100200849087040F20731024801F096
:1043B000A9F908BD05030500003801400005030008
:1043C00007030700242200209400002010B519499B
:1043D000194801F0BEF970B1174801F02DF9C4B2C7
:1043E000204600F03FF82046FDF796FF114912489D
:1043F00001F0A2F900BF11490F4801F0AAF930B14C
:104400000D4801F019F90D490B4801F095F90C49D7
:10441000094801F09EF918B10949074801F08CF9E3
:104420000849054801F095F918B10649024801F01C
:1044300083F910BD0503050000440040000503009A
:10444000000502000005010000BFFEE731B50024B1
:10445000012269460248FCF755FCC4B2204638BD2B
:104460003022002001B5012269460248FCF74AFCCF
:10447000C0B208BDC41900200FB4054B10B503A984
:10448000044A029800F02CF810BC5DF814FB000000
:10449000614A0008900000200FB4084B10B504A931
:1044A00002AA039800F01CF8044602A9002000F0BC
:1044B00048FA204610BC5DF814FB00004349000890
:1044C00002E008C8121F08C1002AFAD170477047DD
:1044D000002001E001C1121F002AFBD1704700003B
:1044E0002DE9FF4F8DB00F460546002606E0252832
:1044F0000BD0DDE90F1290476D1C761C2878002840
:10450000F5D111B03046BDE8F08F0024A246A14697
:104510000122EC4900E0044315F8013F203B02FA78
:1045200003F00842F7D128782A2810D06FF02F0224
:104530002878A0F13001092914D80AEB8A0102EB8E
:10454000410144F0020400EB010A6D1CF0E701CFC9
:104550005FEA000A03D544F40054CAF1000A44F0AB
:1045600002046D1C28782E2817D115F8010F44F08D
:1045700004042A280ED06FF02F022878A0F1300111
:1045800009290AD809EB890102EB410100EB010975
:104590006D1CF2E757F8049B6D1C28786C280FD02F
:1045A00006DC4C2817D068280DD06A2814D104E006
:1045B000742810D07A280FD10DE044F400140AE0DA
:1045C00044F4801401E044F440146978814202D13B
:1045D00004F580146D1C6D1C2A786E2A1FD00CDC2B
:1045E000632A31D004DC002A8BD0582A11D1A3E0F1
:1045F000642A68D0692A0CD165E0732A2ED004DCC5
:104600006F2A73D0702A04D19BE0752A6FD0782A64
:104610006ED01046DDE90F129047761C50E1C4F3CE
:104620000250022806D0032809D0042801CF09D05F
:10463000066045E101CFF117C0E9006140E101CF1B
:1046400006803DE106703BE117F8040B8DF8000091
:1046500000208DF80100EB46012003E057F804BB71
:104660004FF0FF3061074FF0000102D40DE008F178
:104670000101884649450FDA8045F8DB1BF8081030
:104680000029F4D108E008F1010188468142FADBF3
:104690001BF808100029F6D1DDE90F23AAEB08006A
:1046A0008146214600F036F9304400EB080604E06C
:1046B000DDE90F121BF8010B9047B8F10108F7D2A2
:1046C00021464846F7E00A21C4F302534FF0000B9D
:1046D0000891022B04D001CFC117032B09D00AE0A7
:1046E000FF1D27F00707F7E8020108E032E01FE0AE
:1046F00020E000B2C117042B01D140B2C117031E44
:1047000071F1000307DA4FF0000CD0EB0C006CEBFA
:1047100001012D2302E0230504D52B238DF824303D
:10472000012303E0E30701D02023F7E7984658E090
:104730000A2110E010210EE010204FF0000B08902D
:104740000CE010214FF0000B44F004044FF0080976
:10475000089103E008214FF0000B0891C4F30253C5
:10476000022B04D001CF0021032B06D006E0FF1D51
:1047700027F00707F7E8020103E080B2042B00D11D
:10478000C0B24FF0000823072BD5702A07D0DDF800
:1047900020C08CF0100C5CEA0B0C05D00EE040231E
:1047A0008DF82430012308E050EA010306D03023BD
:1047B0008DF824308DF8252002239846DDF820C09E
:1047C0008CF0080C5CEA0B0C0BD150EA010301D110
:1047D000630706D530238DF824304FF00108A9F186
:1047E0000109582A04D038A20B9208AA0A920BE0B9
:1047F0003AA2F9E75B46089AFBF78AFD0B9B9B5CA4
:104800000A9A521E0A92137050EA0102F2D10A98D3
:10481000ADEB000000F1200B600702D524F48034DA
:1048200001E04FF00109D94502DDA9EB0B0000E0E2
:10483000002000EB0B0141440890AAEB010AE003C1
:1048400006D4DDE90F232146504600F063F8064404
:104850004FF0000908E009A911F80900DDE90F127D
:10486000904709F10109761CC145F4DBE0030CD542
:10487000DDE90F232146504600F04CF8064404E0E1
:10488000DDE90F1230209047761C0899481E0890E9
:104890000029F5DC08E00A980A990078491C0A9179
:1048A000DDE90F129047761CBBF10001ABF1010B63
:1048B000F1DC21465046DDE90F2300F019F80644EB
:1048C0006D1C1BE609280100303132333435363790
:1048D000383961626364656600000000303132334C
:1048E00034353637383941424344454600000000EC
:1048F0002DE9F041044600251E461746880404D4DD
:1049000005E039462020B0476D1C641EF9D52846C5
:10491000BDE8F0812DE9F041044600251E46904691
:10492000C80301D5302700E02027880404D505E01E
:1049300041463846B0476D1C641EF9D52846BDE88F
:10494000F0810A68531C0B601070704701460448E0
:104950000068084008B1012070470020FCE7000013
:104960001404014010B52C4B1B6883432A4C236070
:10497000231D1B688343241D2360231D1B68834361
:10498000241D2360231D1B688343241D236011B154
:1049900001290ED105E0204B1B6803431E4C236008
:1049A00008E01D4B1B1D1B6803431B4C241D23608B
:1049B00000E000BF00BF22B1012A0FD0022A27D198
:1049C00019E0154B08331B680343134C083423606C
:1049D000231D1B688343241D23601AE00E4B0833FC
:1049E0001B6883430C4C08342360231D1B6803435E
:1049F000241D23600DE0084B08331B680343064C5D
:104A000008342360231D1B680343241D236000E03A
:104A100000BF00BF10BD000000040140024909684A
:104A20008143014A1160704700040140024909684E
:104A30000143014A116070470004014001490860C8
:104A40007047000014040140044A116821F0070176
:104A500041EA0002014B1A6070470000002002404A
:104A600070B504460D46E1B2054800F0EAFD00BF0E
:104A70000721034800F037FE0028F9D0204670BD1A
:104A80000038014041617047016170470AB101611E
:104A900000E041617047000010B500228B071C0F39
:104AA0000F2303FA04F204290EDA204B9B68934388
:104AB0001E4CA36023469B688C07240F00FA04F465
:104AC00023431A4CA3602FE008290EDA174BDB684A
:104AD0009343164CE3602346DB688C07240F00FAEF
:104AE00004F42343114CE3601EE00C290EDA0F4B53
:104AF0001B6993430D4C236123461B698C07240FCC
:104B000000FA04F42343094C23610DE0074B5B6971
:104B10009343064C636123465B698C07240F00FABC
:104B200004F42343014C636110BD00000000014008
:104B3000F0B5044616460025002201F00F0501F0ED
:104B4000100747B1042E05D145F00305E76B1F435D
:104B5000E76300E0354300201EE0012787401F4047
:104B6000C7B122684FEA800C0F2707FA0CF7BA4347
:104B7000870005FA07F73A43282904D1012787401F
:104B80001F40676105E0482903D1012787401F4086
:104B900027612260471CB8B20828DED3082022E033
:104BA000012787401F40E7B16268A0F108074FEA7C
:104BB000870C0F2707FA0CF7BA43A0F10807BF00CC
:104BC00005FA07F73A43282904D1012787401F40F7
:104BD000676105E0482903D1012787401F4027610D
:104BE0006260471CB8B21028DAD3F0BD0246906864
:104BF000084008B1012070470020FCE701468868A2
:104C000080B270470246D068084008B10120704762
:104C10000020FCE70146C86880B27047C160704759
:104C20008AB0FCF7A1F8FCF7F2F841A0FFF724FCEA
:104C300048A0FFF721FC4BA0FFF71EFC4CA0FFF79C
:104C40001BFC4FA0FFF718FC51A0FFF715FC54A068
:104C5000FFF712FC6AE0FCF77FF818B1FCF79CF94B
:104C6000FBF7B2FDFDF778FB54480078F8B15348E4
:104C7000007800F0010058B151480178514800789F
:104C8000FFF71EF94D48007820F001004B490870ED
:104C90004A48007800F0020048B14B480078FFF71E
:104CA000A7F84648007820F0020044490870FDF754
:104CB00043F904A805A906AB07AACDE9001008A985
:104CC00009A8FDF7E9F840B39DF824008DF8040029
:104CD0009DF820008DF805009DF81C008DF8060059
:104CE0009DF818008DF807009DED050ADFED370AE5
:104CF00020EE200ABCEEC00A10EE100A80B2ADF819
:104D00000800FF208DF80A0000208DF80B008DF8B8
:104D10000C0001A8FEF79EFD00BFFCF717F818B1C4
:104D2000FDF76FF8FBF74AFDFEF780FC93E7000004
:104D3000496E69742053797374656D2068617320BE
:104D40006265656E2066696E69736865642E0D0A1A
:104D5000000000007B7B312C53504F327D7D0D0ACB
:104D6000000000007B7B322C48527D7D0D0A000044
:104D70007B7B332C50495F49527D7D0D0A0000003A
:104D80007B7B342C525F56616C7D7D0D0A000000E8
:104D90007B7B352C4761696E7D7D0D0A000000002C
:104DA0004C434420446973706C617920546573747A
:104DB0002053746172742E0D0A0000007B000020E5
:104DC00079000020780000207A00002000007A445A
:104DD0002DE9F04103460D46164600240027A04663
:104DE0002A48006800F4E060B0F5E06F03D100BF2E
:104DF0004FF0040830E02548006800F4E060B0F5AA
:104E0000C06F03D101274FF0030825E01F48006859
:104E100000F4E060B0F5A06F02D10227B8461BE0B5
:104E20001A48006800F4E060B0F5806F03D10327F2
:104E30004FF0010810E01548006800F4E060B0F59C
:104E4000407F03D104274FF0000805E04FF4A06035
:104E500000F020F80227B846C7F1040005FA00F474
:104E6000C8F104010F20C840304004432401084821
:104E7000C45403F01F01012088405911890001F139
:104E8000E021C1F80001BDE8F08100000CED00E078
:104E900000E400E002490143024A1160704700004B
:104EA0000000FA050CED00E0FFF7DABD044A516896
:104EB00021F0F00141EA0002014B5A607047000006
:104EC00000100240044A516821F4E06141EA000206
:104ED000014B5A607047000000100240044A5168BC
:104EE00021F4605141EA0002014B5A607047000012
:104EF000001002402DE9F04F8CB0074600200A90C8
:104F00004AA090E8004CC068CDE905BECDF810A0DD
:104F100007900FF21C1ADAE9000ACDE9020A0FF233
:104F2000101ADAE9000ACDE9000A44484068C0F3E3
:104F300081000B900B9820B1012804D002283FD1AA
:104F400003E03F4A3EE03E4A3CE03C48406800F413
:104F5000803CBCF5803F12D13848C06A00F08048E0
:104F6000B8F1000F01D1364C00E0364C33484068B0
:104F700000F40039B9F5003F02D1334C00E0324C67
:104F80002E484068C0F383412C48406800F0006020
:104F900008B141F010012948406800F0804008B194
:104FA00041F020010F2901D2891C06E00F2903D30B
:104FB0003E2901D8491C00E03F2104FB01F201E039
:104FC0001F4A00BF00BF1D484068C0F3031504A876
:104FD000465D22FA06F319484068C0F3022502A88C
:104FE000465D23FA06F0099014484068C0F3C225D4
:104FF0001DF8056023FA06F0089037B1012F06D09E
:10500000022F06D0032F0AD106E00A9208E00A9385
:1050100006E009980A9003E008980A9000E000BFB3
:1050200000BF0A980CB0BDE8F08F0000000000003F
:1050300000000000010203040607080900100240F6
:1050400000127A00006CDC0200093D0000B5114836
:10505000006840F001000F490860002000F042F8AD
:105060000C4840680C4908400A49486008460068F6
:105070000A490840074908600846006820F4802073
:1050800008604FF41F0088600846C06A20F0C040E6
:10509000C86200BD001002400C000020FFFFF6FEB9
:1050A0000146074A02EB9110006801F01F0301223C
:1050B0009A40104008B1012070470020FCE7000032
:1050C00000100240064A02EB9011096800F01F032D
:1050D00001229A401143024B03EB9012116070477A
:1050E00000100240F0B50646002400270025B6F562
:1050F000006F1FD005DC86B3102E0BD0182E72D196
:1051000060E0B6F5106F4BD0A6F54050103800287F
:1051100069D133E004E01120FFF7C2FF0546641CAB
:1051200015B9B4F5006FF6D11120FFF7B9FF00B142
:10513000012759E005E040F60100FFF7B1FF054601
:10514000641C1DB96FF07C408442F4D140F601002C
:10515000FFF7A6FF00B1012746E0FFE704E00120CA
:10516000FFF79EFF0546641C15B9B4F5A06FF6D194
:105170000120FFF795FF00B1012735E005E043F27C
:105180001100FFF78DFF0546641C15B918488442CD
:10519000F5D143F21100FFF783FF00B1012723E0AF
:1051A00005E040F60110FFF77BFF0546641C15B9CA
:1051B0000F488442F5D140F60110FFF771FF00B1AE
:1051C000012711E004E01920FFF76AFF0546641C7F
:1051D00015B907488442F6D11920FFF761FF00B1E5
:1051E000012701E0FFE700BF00BF3846F0BD000027
:1051F000FFFF0F00064A02EB9011096800F01F0341
:1052000001229A401143024B03EB90121160704748
:1052100000100240064A02EB9011096800F01F03DB
:1052200001229A409143024B03EB901211607047A8
:1052300000100240064A02EB9011096800F01F03BB
:1052400001229A401143024B03EB90121160704708
:105250000010024002460020044B5868044B1840DE
:1052600042EA01031843014B5860704700100240A6
:10527000FFFFC2B701460020034AD06A20F08040F9
:105280000843D06270470000001002400146002031
:10529000054A506820F40030012901D140F4003063
:1052A000014A50607047000000100240044A5168F3
:1052B00021F0030141EA0002014B5A6070470000EF
:1052C000001002400248406800F00C0070470000E7
:1052D00000100240002000213E4A126842F4803251
:1052E0003C4B1A6000BF401C3A4A126802F400317D
:1052F00011B9B0F5006FF6D1364A126802F40032E7
:105300000AB900BFFEE7334AD26942F08052314BFE
:10531000DA61314A126842F440422F4B1A602D4A3A
:1053200052682C4B5A601A4652685A601A465268A4
:1053300042F480625A601A46526822F440325A603F
:105340001A46526842F440325A601A465268234B59
:105350001A40204B5A601A465268214B1A431D4B83
:105360005A601A46126842F080721A6000BF194AE9
:10537000126802F00072002AF9D0174A126842F44B
:105380008032154B1A6000BF134A526802F4803213
:10539000002AF9D0104A126842F400320E4B1A600B
:1053A00000BF0D4A526802F40032002AF9D0094ABF
:1053B000526822F00302074B5A601A46526842F0C4
:1053C00002025A6000BF034A526802F00802002A33
:1053D000F9D070470010024000700040FFFFC3B7D3
:1053E0000000340810B5FFF775FF10BD10B5044676
:1053F0003349601A8C4244D00CDCB4F1804F1CD08D
:105400003048204410B3B0F5806F28D0B0F5006F5D
:1054100052D12DE0B0F5806F3CD0B0F58E3F03D077
:10542000B0F5923F48D13EE040F20B30FFF702FF6B
:1054300040F20B30FFF7EEFE3FE04FF48060FFF7E5
:10544000F9FE4FF48060FFF7E5FE36E040F20140E0
:10545000FFF7F0FE40F20140FFF7DCFE2DE040F2E6
:105460000240FFF7E7FE40F20240FFF7D3FE24E0E0
:1054700040F20340FFF7DEFE40F20340FFF7CAFEB2
:105480001BE040F20440FFF7D5FE40F20440FFF776
:10549000C1FE12E040F20540FFF7CCFE40F20540AD
:1054A000FFF7B8FE09E040F20D30FFF7C3FE40F20F
:1054B0000D30FFF7AFFE00E000BF00BF10BD0000E1
:1054C0000010004000FCFFBF016841F001010160D5
:1054D000704700000A8882621D4A90420ED0B0F1E7
:1054E000804F0BD01B4A904208D01B4A904205D0F7
:1054F0001A4A904202D01A4A90420BD1026822F016
:105500007002026002684B881A43026002688B884E
:105510001A4302608A68C262124A90420AD0124A52
:10552000904207D0026822F4407202600268CB8881
:105530001A430260064A904202D0094A904201D1C1
:105540000A7B0263426942F0010242617047000037
:10555000002C01400004004000080040000C004006
:10556000003401400010004000140040C2680A43AB
:10557000C2607047CA43026170470246D06800EAC1
:1055800001031069084010B10BB1012070470020E1
:10559000FCE700210180418081804FF6FF7181602E
:1055A0000021C180017370472DE9F04704460D4684
:1055B0000027B846B94600261D49601A8C421CD007
:1055C00006DC1C48204470B1B0F5806F1FD10FE09D
:1055D000B0F5806F16D0B0F56C4F18D10320FFF7EF
:1055E00089FC074614E00220FFF784FC07460FE021
:1055F0000220FFF77FFC07460AE00220FFF77AFC53
:10560000074605E00220FFF775FC074600E000BFF3
:1056100000BF07EB5500B0FBF5F64FF6F07006EA59
:10562000000806F00F0948EA0900A060BDE8F0870D
:10563000004C004000BCFFBF01464868C0F30800B2
:105640007047C1F3080242607047000010B504467D
:105650002049601A8C4228D006DC1F48204490B1B3
:10566000B0F5806F33D117E0B0F5806F26D0B0F57C
:105670006C4F2CD140F20E30FFF7DCFD40F20E30C3
:10568000FFF7C8FD24E040F21140FFF7D3FD40F2E0
:105690001140FFF7BFFD1BE040F21240FFF7CAFDCB
:1056A00040F21240FFF7B6FD12E040F21340FFF760
:1056B000C1FD40F21340FFF7ADFD09E040F2144098
:1056C000FFF7B8FD40F21440FFF7A4FD00E000BF73
:1056D00000BF10BD004C004000BCFFBFC16841F4DA
:1056E0000051C160704710B5024602EB911000688E
:1056F00001F01F040123A340184008B1012010BD90
:105700000020FCE710B500EB9112126801F01F04B5
:105710000123A3409A4300EB91131A6010BD10B50A
:1057200000EB9112126801F01F040123A3401A43F9
:1057300000EB91131A6010BD10B500EB9152126886
:10574000C1F304440123A3409A4300EB91531A6030
:1057500010BD70B5024600230024C1F38910105813
:1057600001F01F060125B54000EA050302EB915048
:105770000068C1F304460125B54000EA050414B1F0
:105780000BB1012070BD0020FCE7C26822F4C062AA
:10579000C260C2680A43C26070470A460021C168FD
:1057A00021F004011143C1607047026922F44052A4
:1057B000026102690A43026170470A460021C1681A
:1057C00021F008011143C1607047C26822F4805281
:1057D000C260C2680A43C260704700000000000057
:1057E00000000000000000000000000000000000B9
:1057F0001FCC000C0000000000000000080030007A
:1058000060000800300060000000022003FC1E2041
:10581000022003FC1E200220000000000E181104CC
:105820003FFF10840C78000000000F0010840F3838
:1058300000C0077818840078000000780F8410C436
:1058400011240E9800E4008400080800680070002D
:105850000000000000000000000000000000000048
:1058600007E0181820044002000000004002200455
:10587000181807E00000000000000240024001800C
:105880000FF0018002400240000000800080008094
:105890000FF800800080008000000001000D000E65
:1058A00000000000000000000000000000800080F8
:1058B000008000800080008000800000000C000C50
:1058C00000000000000000000000000000060018BA
:1058D00000600180060018002000000007F00808A2
:1058E00010041004080807F0000000000804080471
:1058F0001FFC000400040000000000000E0C101447
:105900001024104411840E0C000000000C18100428
:105910001104110412880C700000000000E0032044
:10592000042408241FFC0024000000001F98108499
:1059300011041104108810700000000007F008889E
:105940001104110418880070000000001C001000F1
:1059500010FC13001C001000000000000E38114461
:105960001084108411440E38000000000700088CD9
:1059700010441044088807F00000000000000000F8
:10598000030C030C000000000000000000000001F8
:10599000010600000000000000000000008001403F
:1059A0000220041008081004000002200220022037
:1059B000022002200220022000000000100408083B
:1059C0000410022001400080000000000E001200C0
:1059D000100C106C10800F00000003E00C1813E492
:1059E000142417C4082807D000000004003C03C496
:1059F0001C40074000E4001C000410041FFC1104BC
:105A0000110411040E880070000003E00C1810044B
:105A10001004100410081C10000010041FFC1004D7
:105A200010041004080807F0000010041FFC110403
:105A3000110417C410040818000010041FFC1104FE
:105A4000110017C010000800000003E00C1810043B
:105A5000100410441C780040000010041FFC108447
:105A60000080008010841FFC10040000100410044B
:105A70001FFC1004100400000000000300011001CE
:105A800010011FFE10001000000010041FFC110484
:105A900003801464181C1004000010041FFC100480
:105AA000000400040004000C000010041FFC1F0090
:105AB00000FC1F001FFC1004000010041FFC0C045D
:105AC000030000E010181FFC100007F00808100485
:105AD00010041004080807F0000010041FFC1084D4
