:020000040800F2
:10000000582A002045010008E91B0008650D00087A
:10001000E51B0008B90700089D4300080000000028
:10002000000000000000000000000000AD210008FA
:10003000C10B000800000000E51D0008AF2100080A
:100040005F0100085F0100085F0100085F01000810
:100050005F0100085F0100085F0100085F01000800
:100060005F010008390C0008650C00085F010008FA
:100070005F0100085F0100085F0100085F010008E0
:100080005F0100085F0100085F0100085F010008D0
:100090005F0100085F0100085F010008910C000883
:1000A0005F0100085F0100085F0100085F010008B0
:1000B0005F010008092200085F0100085F010008D5
:1000C0005F0100085F0100085F0100085F01000890
:1000D0005F01000885420008214300085F01000815
:1000E000DD0B00085F0100085F0100085F010008E8
:1000F0005F0100085F0100085F0100085F01000860
:100100005F0100085F010008492200085F01000844
:100110005F0100085F0100085F0100085F0100083F
:100120005F0100085F0100085F0100085F0100082F
:10013000DFF80CD000F070F900480047754B00085C
:10014000582A00200648804706480047FEE7FEE799
:10015000FEE7FEE7FEE7FEE7FEE7FEE7FEE7FEE777
:10016000B921000831010008D2B201E000F8012BEA
:10017000491EFBD270470022F6E710B513460A4627
:1001800004461946FFF7F0FF204610BD0FB400B536
:100190008DB010A909900B9000914FF0FF300A909C
:1001A00000200C9005480690054807906A4609A86B
:1001B0000F9900F003F90DB05DF814FBD9030008A6
:1001C000F70300082DE9FF5F1D464FF0FF3BD5E91F
:1001D000014691465F464FF00008A9697F1C0198CF
:1001E0008847296A824688470028F6D1BAF1FF3F3E
:1001F0000CD024F4C064002E19DD600614D5BAF1C9
:100200002B0F09D0BAF12D0F0ED103E0584604B0E0
:10021000BDE8F09F44F48064A9697F1C0198884779
:10022000761E8246002E02DDBAF1300F03D0B9F1FE
:10023000000F26D032E0A969761E44F400747F1CBA
:10024000019888478246002E05DDBAF1780F06D066
:10025000BAF1580F03D0B9F1000F10D01EE0B9F178
:10026000000F02D0B9F1100F18D1A969761E24F43D
:1002700000747F1C019888478246102002E0082005
:1002800000E00A20814609E008FB0908A969761EFA
:1002900044F400747F1C019888478246002E05DDD7
:1002A0004946504600F075F80028EDDAE9690198F2
:1002B0008847A00502D46FF00100A8E7E00725D128
:1002C000600613D5600502D5C8F1000000E0404685
:1002D00029680A1D2A600968220501D5087015E001
:1002E000220701D5088011E008600FE02868011D91
:1002F00029600068210502D580F8008006E021070A
:1003000002D5A0F8008001E0C0F8008038467EE702
:100310002DE9F05F0546002092469B46884606463A
:10032000814640241BE0284641464746224600F0CD
:1003300020F853465A46C01A914110D31146184628
:10034000224600F07BF82D1A67EB01084F46224643
:100350000120002100F072F817EB00094E41201E29
:10036000A4F10104DFDC484631462A464346BDE895
:10037000F09F202A04DB203A21FA02F00021704786
:1003800021FA02F3D040C2F12002914008431946FD
:1003900070473A2800D2303820F02002412A01D399
:1003A000A2F13700884201D34FF0FF3070470000C0
:1003B000026811441378016018467047D1600449FF
:1003C00051610449116200211161114600F04AB8DF
:1003D000B10300085B040008426842B1016811F8EB
:1003E000013B23B1521EC0E900121846704701219B
:1003F000C160881E704742685AB1C368016843B93A
:1004000083688B4205D0491E521CC0E900120020AF
:1004100070474FF0FF307047064C074D06E0E0682C
:1004200040F0010394E8070098471034AC42F6D33B
:10043000FFF782FEC0610008E0610008202A04DBAB
:10044000203A00FA02F1002070479140C2F12003E7
:1004500020FA03F3194390407047C0B24FF4F051B3
:1004600000F096B92DE9F34F8BB04FF0000801F181
:100470000C000C464FF0010B46460DF1080A0190A6
:100480006269012101989047051E2DD0252D2CD0A1
:10049000216A8847C0B16269012101989047216AA9
:1004A00088470028F7D1411E62690198904700E013
:1004B000761CA1690B988847216A88470028F7D1E4
:1004C000E1690B988847DBE7A1690B9888470746E5
:1004D000A84201D1761CD3E7E1690B9888477F1CBD
:1004E00002D1B8F1000F6FD046E1002762693D46A6
:1004F0003946019890472A2804D162690121019860
:1005000090470125DFF884926269012101989047A4
:10051000A0F130010A290AD24F45E5DC07EB87013B
:1005200000EB4107303FDFD445F01005ECE7E9066A
:1005300001D46FF000476C280AD04C2814D06828EA
:1005400015D06A280DD074281CD07A281AD01DE046
:1005500062690121019890476C2802D045F004059A
:1005600014E045F002050DE045F020050AE062695F
:10057000012101989047682802D045F0080505E060
:1005800045F400656269012101989047C4E901576B
:1005900065283DD019DC58287AD00CDC452837D0A6
:1005A00004DC252826D0412831D131E046282FD03F
:1005B00047282CD12CE05B2877D0612828D06328ED
:1005C0007CD0642823D15AE0D0E06F2848D008DCE2
:1005D00066281DD067281BD0692821D06E2816D127
:1005E00027E0702845D0732868D0752847D0782830
:1005F0000DD14DE0A1690B988847054625283FF4A9
:1006000069AFE1690B9888476D1C3FF46AAFB3E0AE
:1006100023466A466FF001000B99AFF300809EE01D
:1006200045F040006060A80723464FF0000236D432
:100630003EE0E8077FF447AF2068011D21600068B5
:10064000290501D506701BE7290701D5068017E7A4
:10065000A90703D5F117C0E9006111E706600FE7AC
:1006600045F040006060A80723464FF0080216D40A
:100670001EE040F60E0125EA0100606016E045F03C
:1006800040006060A80723464FF00A0207D40FE03D
:1006900045F040006060A80708D5234610226FF09F
:1006A00001000B99AFF3008059E007E023461022C8
:1006B0006FF001000B99FFF785FD50E04FF0000946
:1006C0004F464B46632802D05B2806D040E0E80640
:1006D00001D40120A06001273AE06269012101985C
:1006E00090475E2805D14FF001096269494601989B
:1006F0009047216939B900210A46534643F8212021
:10070000491C0829FADBB0B3216969B9C11700EBAC
:10071000D16253110AEB830122F01F02821A0120D9
:100720000B68904003430B60626901210198904778
:100730005D28E8D1B9F1000F09D00020514651F8E9
:100740002020D24341F82020401C0828F7DB02ABD0
:10075000224600976FF001000B99AFF3008000284C
:100760000CDA401C08D1BBF1000F05D04FF0FF3070
:100770000DB0BDE8F08FFFE74046F9E7E90701D18A
:1007800008F1010806444FF0000B79E6CCCCCC0C04
:100790007F2801D9002208E0064A02EB5002C00778
:1007A000127800D1120902F00F0201209040084097
:1007B000704700001661000800BFFEE700200149F5
:1007C00008707047630000200020014908707047DE
:1007D0006200002010B540F2066004F0C7FC40F251
:1007E000046004F0C3FC4FF4C06004F0BFFC0823B5
:1007F00003224821374804F045F9102303224821F9
:10080000344804F03FF9202303224821314804F002
:1008100039F94FF40053032248212F4804F032F9EC
:100820004FF40073032248212B4804F02BF90321D5
:10083000042004F0DBF80421084604F0D7F8052171
:10084000042004F0D3F80D21022004F0CFF8092190
:10085000022004F0CBF801220021082004F02CF83B
:1008600001220021102004F027F80122002120207D
:1008700004F022F801220021500304F01DF80122A7
:100880000021500204F018F8082004F081F810202C
:1008900004F07EF8202004F07BF84FF4005004F0C0
:1008A00077F84FF4007004F073F802221146092023
:1008B00004F04AFA022211460A2004F045FA022204
:1008C0001146282004F040FA02221146172004F0B5
:1008D0003BFA10BD001801400010014010B540F275
:1008E000026004F043FC40F2046004F03FFC4FF46B
:1008F0008073032210210E4804F0C4F84FF4807175
:100900000B4804F069F8402303221021094804F041
:10091000B9F84021074804F05FF880230322102132
:10092000044804F0AFF88021024804F055F810BDE7
:10093000000801400010014010B54FF4A06004F021
:1009400065FA10BD10B504F03DFB102004F076FBF5
:10095000102004F083FB0446012C26D104F01EF87D
:10096000002004F05FFA002004F074FAA00204F002
:1009700065FA002004F03AFC002004F043FC4FF438
:100980005011200404F022FC182004F057FB00BF93
:10099000192004F041FB0028FAD0022004F042FCA8
:1009A00000BF04F04BFC0028FBD010BD7FB504460F
:1009B0000D4640F2017004F0D9FB0F4804F0BCFE74
:1009C000684604F08CFFADF800500020ADF804003C
:1009D0000294ADF806006946074804F021FF0121A2
:1009E000054804F069FF002201211D2004F0ACF944
:1009F000014804F00FFF7FBD000400407FB50446AE
:100A00000D4640F2037004F0B1FB0F4804F094FE71
:100A1000684604F064FFADF800500020ADF8040013
:100A20000294ADF806006946074804F0F9FE01217A
:100A3000054804F041FF00220121322004F084F92E
:100A4000014804F0E7FE7FBD000C004010B50446ED
:100A500040F2026004F08AFB40F20E6004F086FB74
:100A60004FF40073032218211D4804F00BF84FF4D3
:100A70008063032204211A4804F004F8194804F0A2
:100A80008BFF2146174804F035FF0021154805F07B
:100A900032F80021134805F03EF80021114805F016
:100AA0001AF804210F4805F01EF808210D4805F03A
:100AB0002AF840F205310B4804F0D7FF40F2073125
:100AC000084804F0D2FF074804F0AEFF00221146A8
:100AD000252004F039F900200349087010BD0000FA
:100AE00000080140003801408000002010B5044695
:100AF00040F2026004F03AFB40F2117004F036FB61
:100B00000423032218211B4803F0BCFF08230322FF
:100B10000421184803F0B6FF174804F03DFF2146B2
:100B2000154804F0E7FE0021134804F0E4FF00211B
:100B3000114804F0F0FF00210F4804F0CCFF04211D
:100B40000D4804F0D0FF08210B4804F0DCFF40F210
:100B50000531094804F089FF4FF4A061064804F00C
:100B600084FF00220121262004F0EEF8024804F060
:100B70005BFF10BD000801400044004030B5034653
:100B8000002016E0B3F900509C68645D0C541C888A
:100B9000641C24B21C80B3F90040B3F90450AC4289
:100BA00001DB00241C80441C20B2DC88641E24B2BB
:100BB000DC80B3F90640002C01DD9042E2DB30BD61
:100BC0007047000001B504490098086000BF024862
:100BD00000680028FBD108BD8800002010B54FF444
:100BE000005003F05DFE68B14FF4005003F0D0FEFA
:100BF0004FF4005003F0BCFE01200D49C8700020E6
:100C00000C49C8704FF4806003F0C2FE4FF40060DE
:100C100003F0BEFE4FF4805003F0BAFE4FF4804064
:100C200003F0B6FE4FF4004003F0B2FE10BD00002A
:100C3000140000201900002010B5082003F030FE39
:100C400058B1082003F0A4FE082003F091FE012013
:100C50000249087000200249087010BD14000020ED
:100C60001900002010B5102003F01AFE58B1102012
:100C700003F08EFE102003F07BFE01200249487035
:100C800000200249487010BD140000201900002007
:100C900010B5202003F004FE58B1202003F078FEA8
:100CA000202003F065FE01201449887000201449BB
:100CB00088704FF4007003F0F3FD68B14FF40070DA
:100CC00003F066FE4FF4007003F052FE01200B4962
:100CD000087100200A490871202003F059FE4020C5
:100CE00003F056FE802003F053FE4FF4807003F0B3
:100CF0004FFE4FF4007003F04BFE10BD14000020B7
:100D00001900002070B50346002016E00C5CB3F912
:100D100002609D68AC555C88641C24B25C80B3F9A9
:100D20000240B3F90450AC4201DB00245C80441C57
:100D300020B2DC88641C24B2DC80B3F90640B3F92D
:100D40000450AC4201DA9042E0DB70BD014800780B
:100D500070470000630000200148007870470000E1
:100D60006200002000BFFEE710B501F025FA00F098
:100D70004AF800F031F84FF4612000F089F800F0F3
:100D80007BF800F025F800F043F84FF4612000F004
:100D900087F800F009F800F023F800F037FB02F0C4
:100DA000ABFA01F08DF810BD10B5FFF713FD00246C
:100DB00006E000200449085504490855601CC4B2E7
:100DC000052CF6DB10BD00001400002019000020E7
:100DD00010B5FFF783FD10BD10B5FFF7ADFD10BDD9
:100DE000704730B50B460024048044808280C48064
:100DF0008360002104E0002485686C544C1C21B2FF
:100E00009142F8DB30BD10B5FFF79CFD10BD704777
:100E100030B5164800684FF47A72B0FBF2F1481E04
:100E2000B0F1807F01D301201BE0481E4FF0E0228B
:100E3000506150170F22002807DA13071D0E0C4BC4
:100E400000F00F04241F1D5503E013071C0E094B6F
:100E50001C5400BF00204FF0E02290610720106179
:100E6000002008B100BFFEE730BD00008400002074
:100E700018ED00E000E400E010B5772140F2E73023
:100E8000FFF794FD772140F2E730FFF7B7FD10BD83
:100E900010B5044600F022F82046FFF7D7FD10BD3C
:100EA00010B5044600F004F82046FFF71FFE10BD01
:100EB00010B5002404E0002006490855601C84B2E7
:100EC000B4F5006FF7DB4FF4006202490248FFF708
:100ED00088FF10BD101D0020041D002010B5002447
:100EE00006E000200949085509490855601C04B26C
:100EF000642CF6DB642205490648FFF772FF642282
:100F000003490548FFF76DFF10BD00007C25002058
:100F1000E0250020642500207025002010B504463F
:100F2000052C33D2DFE804F0030C151E280008213D
:100F3000174803F005FE08B9012010BD0020FCE7AA
:100F40001021134803F0FCFD08B90120F5E700204B
:100F5000F3E720210E4803F0F3FD08B90120ECE788
:100F60000020EAE74FF400510A4803F0E9FD08B910
:100F70000120E2E70020E0E74FF40071054803F0AC
:100F8000DFFD08B90120D8E70020D6E70020D4E72C
:100F9000001801400010014010B50024C4E064486E
:100FA000005D58B92046FFF7B9FF002805D00120A1
:100FB0005F49085500205F490855B3E05C48005D73
:100FC00001286DD12046FFF7A9FF002845D05948D8
:100FD000005D401C574908550846005D0528ECDBBC
:100FE0004CB900F0CDFD54480068401C52490860DF
:100FF00000F0FEFE2AE0012C09D100F0D3FD4F489D
:101000000068401C4D49086000F00AFF1EE0022CF9
:1010100009D100F0D7FD4A480068401C48490860E3
:1010200000F0F6FE12E0032C07D146480068401C91
:101030004449086000F0F8FE08E0042C06D142485C
:101040000068401C4049086000F0E6FE0220384974
:10105000085500203749085564E0002035490855F7
:10106000334908551CB9082003F08AFC5AE0012CCA
:1010700003D1102003F084FC54E0022C03D1202083
:1010800003F07EFC4EE0032C04D14FF4005003F03B
:1010900077FC47E0042C45D1E00103F071FC41E00E
:1010A0002348005D02283DD12046FFF737FFA8BB4B
:1010B0002048005D401C1F4908550846005D052872
:1010C00030DB2CB900F0B4FE082003F059FC1FE01F
:1010D000012C05D100F0AFFE102003F051FC17E009
:1010E000022C05D100F0A5FE202003F049FC0FE002
:1010F000032C06D100F0A0FE4FF4005003F040FC9A
:1011000006E0042C04D100F095FEE00103F038FC69
:101110000020074908550749085503E0FFE700206C
:1011200004490855601CC4B2052CFFF638AF10BD49
:1011300014000020190000200000002004000020FE
:10114000080000200C0000201000002070B50546AB
:1011500000240A4800880949498800FB01F600215B
:10116000084600F0B3FB00F0DBFC00BF03E02846BC
:1011700000F0D0FC641CB442F9D370BD8C00002098
:101180001F498871898845F21052914210D138B9AF
:101190004FF4F0711A4A11804FF4487151802EE0DB
:1011A0004FF44871164A11804FF4F071518026E0D7
:1011B0001349898845F21032914210D138B94FF461
:1011C000A0710F4A11804FF4F071518017E04FF475
:1011D000F0710B4A11804FF4A07151800FE038B9C3
:1011E0004FF4A071064A11804FF4F071518006E06F
:1011F0004FF4F071024A11804FF4A0715180704792
:101200008C0000202DE9FF4F85B081468A460020E2
:10121000049003900798A0EB09040898A0EB0A0536
:10122000CDF80890CDF804A0002C01DD012705E0E1
:101230000CB9002702E04FF0FF376442002D02DDB9
:101240004FF0010806E015B94FF0000802E04FF03A
:10125000FF386D42AC4201DD204600E028460646DC
:101260004FF0000B21E0019A91B2029A90B200F087
:1012700023F8049820440490039828440390049889
:10128000B04205DD0498801B049002983844029017
:101290000398B04205DD0398801B039001984044F9
:1012A00001900BF101001FFA80FB701C8345DADD11
:1012B00009B0BDE8F08F000070B504460D46294620
:1012C000204600F003FB00F02BFC0248008800F0F1
:1012D00021FC70BD1E0000202DE9F04104460D46A2
:1012E00016461F462B46324629462046FFF78AFF00
:1012F0003B46224629462046FFF784FF3B463246BE
:1013000039462046FFF77EFF3B46324629463046A7
:10131000FFF778FFBDE8F08170B505460E4614462C
:101320003146284600F0D2FA00F0FAFB204600F0E1
:10133000F1FB70BD2DE9F05F05460E461746984655
:10134000DDF828A0781B401C1FFA80FB344613E010
:101350002146284600F0BAFA00F0E2FB4FF00009FF
:1013600006E0504600F0D6FB09F101001FFA80F9B3
:10137000D945F6DB601C84B24445E9DDBDE8F09F49
:1013800010B540F2026003F0F1FE40F2036003F09A
:10139000EDFE40F2056003F0E9FE40F2066003F066
:1013A000E5FE4FF4805303221021144803F06AFB3A
:1013B000012303221021124803F064FB4CF6B3739F
:1013C000032210210F4803F05DFB4FF680730322C8
:1013D00010210D4803F056FB80210A4803F0FEFA65
:1013E0004FF40061074803F0F9FA2021054803F0A3
:1013F000F5FA1021034803F0F1FA10BD000801408E
:10140000000C0140001401400018014010B5FFF726
:10141000B7FF4FF48051994803F0E0FA0A20FFF734
:10142000D1FB4FF48051954803F0D6FA3220FFF7F4
:10143000C9FB4FF48051914803F0D0FAC820FFF760
:10144000C1FBD32000F07EFB00F092F98C4988802C
:1014500000F08EF98A49888000F08AF988498880EE
:10146000084680884FF6FF7101EA00208449888091
:1014700000F07EF9824989880843814988800846BE
:10148000818880A002F0A2FF7D48808845F210513B
:10149000884210D14FF43050794908814FF42850D8
:1014A00048814FF42C5088814FF4487008804FF4E5
:1014B000F0704880CCE07248808845F21031884254
:1014C0000DD12C206E4908812A2048812B2088814B
:1014D0004FF4A07008804FF4F0704880B8E02C20E2
:1014E000674908812A2048812B2088814FF4A07009
:1014F00008804FF4F07048800846808847F2897170
:1015000088423ED10021112000F012FB7820FFF725
:1015100059FB05213A2000F00BFB0C21B22000F012
:1015200007FB0C21B22000F003FB0021B72000F0E4
:10153000FFFA3D21BB2000F0FBFA2C21C02000F077
:10154000F7FA0121C22000F0F3FA1321C32000F0C2
:10155000EFFA2021C42000F0EBFA0F21C62000F0A2
:10156000E7FAA421D02000F0E3FAA121D02000F076
:10157000DFFA0021292000F0DBFA7820FFF722FBB8
:1015800066E03F48808847F29671884252D1002138
:10159000112000F0CDFA7820FFF714FB0821362047
:1015A00000F0C6FA05213A2000F0C2FA0021B1206D
:1015B00000F0BEFA1821B12000F0BAFA0021B320E1
:1015C00000F0B6FA0221B32000F0B2FA0321B320F2
:1015D00000F0AEFA0821B32000F0AAFA0021B420EE
:1015E00000F0A6FA0221C02000F0A2FA0221C120D8
:1015F00000F09EFA3221C52000F09AFA3221C7206D
:1016000000F096FA0821362000F092FA00213720E7
:1016100000F08EFA0021382000F08AFA00213920EB
:1016200000F086FA0021292000F082FA7820FFF7E6
:10163000C9FA0DE00021112000F07AFA7820FFF7B6
:10164000C1FA0021292000F073FA7820FFF7BAFAD6
:101650000020FFF795FD022000F0B8F801210F48A7
:1016600003F0BCF90020FFF771FD054843880288AC
:1016700081880BA002F0AAFE10BD00000008014006
:101680008C0000205B4C43445D205265616420491E
:10169000443A203078253034580D0A00000C0140BF
:1016A0005B4C43445D20496E697420446F6E652C29
:1016B0002049443A203078253034582C205769642A
:1016C00074683A2025642C204865696768743A205C
:1016D00025640D0A0000000070B500254CF203736C
:1016E00003220421204803F0CDF94FF68073032232
:1016F00004211E4803F0C6F91B4803F029FA0446EA
:10170000A00B04F0030140EA810004F4807140EA78
:10171000411004F4007140EA411004F4806140EA91
:1017200041100543114803F013FA0646F02000EA81
:10173000E6004FF4706101EAE60108434FF480517E
:1017400001EAE601084305434CF20373032210212A
:10175000054803F097F94FF68073032210210348E0
:1017600003F090F9284670BD0014014000180140B4
:101770001CB5002001904FF40061134803F02EF9CE
:101780008021114803F028F910210F4803F024F9B3
:101790000020009005E000BF9DF80000401CC0B292
:1017A00000909DF800000A28F5DBFFF795FF0190F7
:1017B0001021054803F012F98021034803F00EF9C7
:1017C000BDF804001CBD0000001401402DE9F041EB
:1017D0000546002400273C488079012818D1082DAF
:1017E00015D2DFE805F00406080A0C0E10120625D3
:1017F0000DE007250BE0042509E0052507E001259C
:1018000005E0002503E0032501E0022500BF00BF3D
:10181000082D1CD2DFE805F00406090C0F1215187C
:1018200000BF14E044F0800411E044F040040EE0F6
:1018300044F0C0040BE044F0200408E044F06004ED
:1018400005E044F0A00402E044F0E00400BF00BF63
:101850001D48808845F21051884202D14FF45857F4
:1018600000E036271848808847F29671884205D0F4
:101870001548808847F28971884201D144F00804F4
:101880002146384600F054F904F0200068B10E48B3
:1018900000880D494988884214DA0B480688408838
:1018A00009490880084646800CE007480088064938
:1018B0004988884206DD0448068840880249088035
:1018C00008464680BDE8F0818C00002070B50446D3
:1018D0000D461E48808845F21051884220D11B4990
:1018E000488900F02FF9201200F0F6F817494989CD
:1018F000491C88B200F026F9E0B200F0EDF8134977
:10190000888900F01FF9281200F0E6F80F4989894C
:10191000491C88B200F016F9E8B200F0DDF813E0D7
:101920000A49488900F00EF9201200F0D5F8E0B21B
:1019300000F0D2F80549888900F004F9281200F077
:10194000CBF8E8B200F0C8F870BD00008C000020B1
:101950002DE9F05F80460C4616461F46A346A6F1C9
:101960002000C6B2102F3DD1002539E01E4800EB03
:10197000061010F805904FF0000A2BE009F08000E7
:1019800030B11A48028821464046FFF7C5FC07E0FF
:101990000A9828B91648028821464046FFF7BCFC41
:1019A0004FEA49604FEA1069601C84B211484088D0
:1019B000A04201DCBDE8F09FA4EB0B00B84205D1CA
:1019C0005C4608F101001FFA80F806E00AF1010008
:1019D00000F0FF0ABAF1080FD0DB00BF681CC5B2E7
:1019E000102DC3DB00BFE5E7265B00081E000020CA
:1019F000200000208C0000202DE9F84F04460D4601
:101A000090469946DDE90A6704F0FF0A08EB0400F6
:101A10001FFA80F809EB05001FFA80F916E044452B
:101A200002DB5446A81985B24D4500DB14E00020C6
:101A300000903A78334629462046FFF789FF304622
:101A400006EBD07104EB61018CB27F1C38787E28E4
:101A500002DC38782028E2DA00BFBDE8F88F000009
:101A600070B504461A4803F07FF806464CF203703E
:101A7000864304F00300C4F3810141EA803004F49A
:101A8000005140EA611004F4804140EA611004F41E
:101A9000004140EA6110064331460D4803F068F802
:101AA0000C4803F061F805464FF68070854304F05A
:101AB000F000C00004F4706140EAC10004F48051F9
:101AC00040EAC10005432946024803F051F870BDC1
:101AD000001401400018014010B504464FF40061A5
:101AE0000B4802F07BFF8021094802F075FF204679
:101AF000FFF7B6FF2021064802F06EFF20210448C0
:101B000002F06CFF8021024802F068FF10BD000067
:101B10000014014010B504462046FFF7DDFF10BD5C
:101B200010B50249088900F00DF810BD8C000020A6
:101B300070B505460C46284600F004F82046FFF72D
:101B4000CBFF70BD10B504464FF400610B4802F0A6
:101B500043FF8021094802F03FFF2046FFF780FF46
:101B60002021064802F038FF2021044802F036FF09
:101B70008021024802F032FF10BD00000014014035
:101B800010B54FF48071064802F0E6FF0446C4F138
:101B90000100C2B24FF48071014802F021FF10BD74
:101BA0000008014010B54021054802F0D5FF044669
:101BB000C4F10100C2B24021014802F011FF10BD82
:101BC0000010014010B58021054802F0C5FF044611
:101BD000C4F10100C2B28021014802F001FF10BD32
:101BE0000010014000BFFEE77047000000F01F0238
:101BF00001219140024A430942F823107047000036
:101C000080E200E010B588B00446002007900690FE
:101C1000059004900390029001906448007830B1E0
:101C2000012863D0022872D0032871D18FE0AA2C3A
:101C300003D101205D49087057E00A2C49D10020EA
:101C40005B495C4A1278885404AB05AA5AA15848EB
:101C5000FEF79CFA022806D1049AD1B2059AD0B2B6
:101C600002F0FAF931E003AA55A15148FEF78EFAC5
:101C7000012804D10399C8B202F088F925E006AB27
:101C800007AA51A14A48FEF781FA02281DD1069AF7
:101C900091B2079A90B201AB02AA00F005FB00F0E6
:101CA0004BFB30B1BDF80410BDF8080000F050FA4D
:101CB00005E0BDF80410BDF8080000F017FABDF803
:101CC0000410BDF8080000F023FB0020394908701B
:101CD0000BE0384800781E2807DA3648017800788B
:101CE000401C344A1070324844545CE0062C08D141
:101CF0003748047000203749087002202B490870CB
:101D000012E0AA2C05D10120284908700CE00CE053
:101D100045E03149AA2003F083F82F49204603F01B
:101D20007FF80020214908703DE02A4801780078BA
:101D3000401C284A10702948445410460078244911
:101D40000978884202DB0320184908702BE0552CE3
:101D50001BD12248007822490870204840784870FA
:101D60001E48807888701D48C078C8701B4800796C
:101D700088801A484079887101204872084601F02D
:101D80003BFE00200949087008E0AA2C03D101207D
:101D90000649087002E000200449087003E00020B2
:101DA0000249087000BF00BF08B010BD76000020D7
:101DB0004425002079000020502C25642C25640047
:101DC000472C25640000000025642C2564000000D9
:101DD00078000020770000207C0000203A250020B9
:101DE00010250020704710B5FFF7ECFE10BD000075
:101DF00010B503A002F0EAFA01F010FB10BD0000DC
:101E00004C4C205055534820444F574E0D0A00006B
:101E100010B501F083FA10BD10B501F0A3FB10BDA1
:101E200010B501F011FC10BD10B501F09DFB10BD07
:101E3000704770477047704770470146C88808B9B7
:101E4000012070470020FCE770B504460025012200
:101E500021460348FEF792FEC5B2284670BD000039
:101E60006425002070B504460D462A4621460248E6
:101E7000FEF784FEC0B270BD041D002070B504469C
:101E8000049D0E48007AB0B10C48007820700B48D1
:101E9000407808700948807810700848C078187039
:101EA00025B1064890ED010A85ED000A0020034E99
:101EB0003072012070BD0020FCE70000C41C00202F
:101EC00010B54FF448610848FEF755F94FF44861E2
:101ED0000648FEF750F900200549088005490880AA
:101EE0000549087010BD0000A4000020240D00204A
:101EF0005400002056000020580000202DE9F04337
:101F00008DB03A48007810B90DB0BDE8F08338487C
:101F10000088B0F5487F5FDB0020049009A80AA97B
:101F20000BAA0CABCDE9002102903148028831495F
:101F3000314803F05AFA05A806A907AA08ABCDE96B
:101F40000032CDE90210DDE90932DDE90B1003F0C2
:101F50007DF9DDE90B10441ADDE90910451A0698F0
:101F600064282BDD0598052828DD04AA294620468B
:101F700003F011FA06461E4801881E48DDE90532C5
:101F800003F08AF90746DDE90920811A069803F073
:101F9000EBF98046DDE90B20811A089803F0E4F99B
:101FA0008146049880B24B464246394600903046FE
:101FB00003F062FA0120114908720CE000200F4979
:101FC000087048708870C8700120087200200C49A1
:101FD00008700C49087000BF00200B4908800449B4
:101FE00008800249087000BF8EE7000058000020FA
:101FF00056000020240D0020A4000020C41C002056
:102000005F0000206000002054000020F0B587B081
:102010002F48007808B907B0F0BD2E480088642822
:102020004CDB0024002503A804A905AA06ABCDE9D2
:1020300000210290274802882749284803F0D5F953
:10204000DDE90510471ADDE90310461A002F07DD08
:10205000002E05DD4FF47A70784390FBF6F400E033
:102060000024B4F5C87F0DDBB4F5966F0ADC04EBF1
:10207000C40000EB04104FF47A7190FBF1F0C0F152
:102080006E0500E00025642D00DD6425462D01DA93
:1020900005B1462512490D70002048708870C8703F
:1020A00000EE104AB8EEC00ADFED0E0A80EE201AEC
:1020B000084680ED011A0120087200BF00200A497D
:1020C0000880044908800249087000BFA3E70000A7
:1020D0005E0000205C000020341B0020A4190020BA
:1020E000C41C002000007A445A000020134A1288C1
:1020F000B2F5487F18DA124A104B1B8842F82300C9
:10210000104A0E4B1B8842F823100C4A1288521CAE
:102110000A4B1A800C4A1288B2F5487F04DA0A4A40
:102120001288521C084B1A80044A1288B2F5487F64
:1021300002DB0122054B1A7070470000540000209A
:10214000A4000020240D002056000020580000208C
:10215000114A1288642A17DA104A0F4B1B8842F87A
:1021600023000F4A0C4B1B8842F823100A4A12889E
:10217000521C094B1A800B4A1288642A04DA094A55
:102180001288521C074B1A80034A1288642A02DB09
:102190000122054B1A7070475A000020A419002034
:1021A000341B00205C0000205E000020704710B54A
:1021B00000F06EF810BD000010B51048006840F443
:1021C00070000E4908600E48006840F001000C499C
:1021D000086000204860C862084600680949084055
:1021E000074908604FF41F0088600846006820F423
:1021F0008020086003F09CFA10BD000088ED00E02C
:1022000000100240FFFFF6FE10B501210B4803F05D
:102210005AFB012803D10121084803F051FB08486B
:102220000088401C0649088008460088022804DB14
:102230000020088001200349087010BD0004004000
:10224000640000206200002010B501210D4803F059
:102250003AFB012803D101210A4803F031FB0A4867
:102260000088401C00B2084908800846B0F9000008
:10227000B0F57A7F04DB0020088001200349087054
:1022800010BD0000000C004066000020630000202C
:102290000448006820B103480068401E01490860F6
:1022A000704700008800002030B5154C247814B920
:1022B0001080198030BD134C24783CB9124C20603A
:1022C000124C216001240F4D2C7011E00E4C24683B
:1022D000041B0D4D2D6805EBA4040B4D2C600B4C1D
:1022E00024680C1B094D2D6805EBA404074D2C60D8
:1022F000054C24881480054C24881C8000BFD9E735
:102300006A000020740000206C0000207000002093
:1023100070B504460D460548007800B170BD2A46E8
:10232000214603A002F052F800BFF7E77500002035
:1023300025752C25750D0A000148007870470000AE
:102340007500002001480078704700006A000020F6
:102350000C490D4A127888540B490978491C0A4ADD
:10236000117011460978202901DB002111700749FD
:102370000978202904DA05490978491C034A1170B3
:10238000704700001A250020680000206900002026
:1023900038B5402403E09DF80000FFF733FC01212D
:1023A0006846FFF75FFD18B1201EA4F10104F2D1C9
:1023B00038BD00007CB505460E46AB208DF8000008
:1023C00002208DF801008DF802508DF80360552031
:1023D0008DF8040000240DE01DF80410074803F0F8
:1023E000D6FA00BF0721054803F023FB0028F9D0E7
:1023F000601CC4B2052CEFDB7CBD00000044004033
:1024000008B1012100E00021014A1170704700006D
:102410007500002008B1012100E00021024A11707E
:102420000021024A117070476A00002074000020E9
:102430000EB500F023FD40F641002049088020A0A1
:1024400000F0A4FA4FF6FF7020A140F25D529623EF
:10245000CDE900210290C8224621142000F064FC3E
:1024600001F0F8F94FF4FC601C4908801CA0102111
:102470000B46B422CDE90010BE212320FFF7BCFAA1
:102480004FF478401549088019A010210B46B4225A
:10249000CDE90010D2212320FFF7AEFA4BF6F7501A
:1024A0000E49088016A010210B46B422CDE9001079
:1024B0004FF491713720FFF79FFA0EBD20000020E6
:1024C000416C61726D20536574000000416C617253
:1024D0006D2050726F66696C650000001E00002060
:1024E0004C4C3A2050726F66696C65202B000000DE
:1024F000524C3A2050726F66696C65202D000000C6
:102500005072657373204241434B20746F204578AD
:10251000697400000EB500F0B1FC40F6410020499E
:10252000088020A000F032FA002021A140F2FF72C2
:102530007823CDE900210290A0225021282000F02C
:10254000F3FB01F021FA4FF4FC601D4908801DA047
:1025500010210B46C822CDE90010A0213C20FFF736
:102560004BFA4FF47840164908801AA010210B4608
:10257000C822CDE90010B4213C20FFF73DFA4BF60C
:10258000F7500F49088018A010210B46C822CDE94A
:1025900000104FF491713C20FFF72EFA0EBD0000A1
:1025A000200000204175746F204C6967687400003A
:1025B0004C69676874205377697463680000000091
:1025C0001E00002055503A20456E61626C6520283F
:1025D0004F4E2900444E3A2044697361626C65286D
:1025E0004F46462900000000507265737320424137
:1025F000434B20746F204578697400002DE9FC4737
:1026000004460D4616461F46DDE90B9ADDF8288084
:1026100041F2A2000090E81983B2A01982B22946C3
:102620002046FEF787FE46F66D3029490880E819F6
:1026300083B2A01982B229462046FEF74DFE2448F7
:10264000A0F8008005EB070CACF1010C1FFA8CF32D
:1026500004EB060CACF1010C1FFA8CF205F1010C35
:102660001FFA8CF104F1010C1FFA8CF0FEF734FE16
:1026700005F1120C1FFA8CF304EB060CACF1020C02
:102680001FFA8CF205F1020C1FFA8CF104F1020C16
:102690001FFA8CF0CDF80080FEF74CFE0C48A0F835
:1026A00000900C48A0F800801020A6F10C039AB20C
:1026B0002B1D99B204F10803CDE9000A98B210234A
:1026C000FFF79AF940F6410002490880BDE8FC870F
:1026D0001E000020200000200EB500F0CFFB40F6C9
:1026E00041002049088020A000F050F94FF6FF700B
:1026F00020A140F25D52AA23CDE900210290D2220E
:102700003C210F2000F010FB01F0ECFA4FF4FC60CC
:102710001B4908801BA010210B46B422CDE90010F4
:10272000D2212320FFF768F94FF47840144908803C
:1027300018A010210B46B422CDE90010E621232079
:10274000FFF75AF94BF6F7500D49088015A01021F4
:102750000B46B422CDE900104FF491713720FFF7FA
:102760004BF90EBD20000020446174612052657653
:102770006965770052657669657720506167650005
:102780001E0000204C4C3A2050616765204E657851
:1027900074000000524C3A20506167652050726509
:1027A000760000005072657373204241434B2074E1
:1027B0006F204578697400000EB500F05FFB40F6AD
:1027C00041002049088020A000F0E0F84FF6FF709B
:1027D00020A140F25D527823CDE900210290B4227D
:1027E00050211E2000F0A0FA01F062FB4FF4FC60C3
:1027F0001C4908801CA010210B46B422CDE9001012
:10280000A5213720FFF7F8F84FF4784015490880E4
:1028100018A010210B46B422CDE90010B9213720B1
:10282000FFF7EAF84BF6F7500E49088014A0102184
:102830000B46B422CDE900104FF491713720FFF719
:10284000DBF80EBD200000204574434F3220536555
:10285000740000004574434F3220537769746368F5
:10286000000000001E0000204C4C3A20456E6162C2
:102870006C650000524C3A2044697361626C6500DB
:102880005072657373204241434B20746F2045782A
:10289000697400000EB500F0F1FA40F641002449D9
:1028A000088024A000F072F8002025A140F2FF72F9
:1028B0007823CDE900210290A0225021282000F0A9
:1028C00033FA4FF6FF702249088040F6410018495C
:1028D000088001F025FB4FF4FC601D4908801DA015
:1028E00010210B46C822CDE90010A0213C20FFF7A3
:1028F00083F84FF47840164908801AA010210B463F
:10290000C822CDE90010B4213C20FFF775F84BF642
:10291000F7500F49088018A010210B46C822CDE9B6
:1029200000104FF491713C20FFF766F80EBD0000D7
:102930002000002046696C746572205365740000A5
:1029400046696C746572205377697463680000008F
:102950001E00002055503A20456E61626C652028AB
:102960004F4E2900444E3A2044697361626C6528D9
:102970004F464629000000005072657373204241A3
:10298000434B20746F204578697400001CB50446E1
:1029900041F6E3002223F022002100900846FEF7D2
:1029A000C9FC4FF6FF701749088041F6E30016494D
:1029B00008801020034678220921CDE900040A206E
:1029C000FFF71AF811A010210B466C22CDE9001078
:1029D00009218420FFF710F840F641000A490880D9
:1029E00040F25D50074908802223F022194600205A
:1029F000FEF708FC2323F02219460020FEF702FC14
:102A00001CBD00001E0000202000002049443A3078
:102A100031204F4E4C494E450000000000B589B0B2
:102A200000F02CFA40F641008949088089A0FFF7A0
:102A3000ADFF8AA0002140F2FF723423CDE90021CE
:102A40000290E0222C210820FFF7D8FD85A000216C
:102A50004FF4FC623423CDE900210290E02266218C
:102A60000820FFF7CBFD82A000214FF6E07234234F
:102A7000CDE900210290E022A0210820FFF7BEFD51
:102A80007EA04FF6FF7140F25D523823CDE9002160
:102A90000290E022DA210820FFF7B0FD40F2FF703B
:102AA0007849088041F2A200694908807648007898
:102AB00020B976A104A801F099FC05E072480278DB
:102AC00075A104A801F092FC04A810210B46C822AD
:102AD000CDE9001046211020FEF78EFF4FF4FC6078
:102AE0006849088041F2A200594908806648407848
:102AF00020B96CA104A801F079FC05E06248427895
:102B00006BA104A801F072FC04A810210B46C82296
:102B1000CDE9001080211020FEF76EFF4FF6E07027
:102B20005849088041F2A2004949088056488078F7
:102B300038B95548C07820B960A104A801F056FC06
:102B400006E051488378C27860A104A801F04EFCE9
:102B500004A810210B46DC22CDE90010BA21102078
:102B6000FEF74AFF4FF6E0704649088041F2A200A6
:102B7000374908804448828858A104A801F036FCEF
:102B800004A810210B467822CDE90010EC2110207A
:102B9000FEF732FF48F230403A49088041F2A20085
:102BA0002B4908803848037AC2794FA104A801F064
:102BB0001DFC04A810210B46C822CDE90010FE21FF
:102BC0001020FEF719FF48F230402E49088041F2EC
:102BD000A2001F4908802C488079FF2804D147A112
:102BE00004A801F003FC05E02748827946A104A867
:102BF00001F0FCFB04A810210B466422CDE9001073
:102C0000EC218220FEF7F8FE40F6620040F23F130E
:102C1000EF224FF48F7100900020FEF78BFB4BF6F4
:102C2000F7501849088040F662000949088039A029
:102C300010210B46DC22CDE900104FF494711420D2
:102C4000FEF7DAFE40F641000149088009B000BDF8
:102C5000200000204D6F6E69746F720053504F3228
:102C60000000000050756C736520526174650000AF
:102C7000506572667573696F6E0000005369676E08
:102C8000616C00001E0000209A00002053504F325B
:102C90003A202D2D2020000053504F323A2025336A
:102CA0006420000050523A2020202D2D20200000CA
:102CB00050523A20202533642020000050492052F1
:102CC0003A2D2D20493A2D2D200000005049205248
:102CD0003A25326420493A2532642000523A2025B0
:102CE000642020202000000050574D20523A2564D7
:102CF00020493A2564202020000000004761696EC9
:102D00003A202D2D202000004761696E3A2025646D
:102D1000202020004C483A4D656E75202052483ADC
:102D20004261636B000000002DE9FC4704460D463C
:102D300016461F46DDE90B9ADDF8288041F2A20015
:102D40000090E81983B2A01982B229462046FEF706
:102D5000F1FA2848A0F80080E81983B2A01982B2DD
:102D600029462046FEF7B8FA05EB070CACF1010C3A
:102D70001FFA8CF304EB060CACF1010C1FFA8CF279
:102D800005F1010C1FFA8CF104F1010C1FFA8CF013
:102D9000FEF7A2FA05F1180C1FFA8CF304EB060CEF
:102DA000ACF1020C1FFA8CF205F1020C1FFA8CF147
:102DB00004F1020C1FFA8CF0CDF80080FEF7BAFA8D
:102DC0000C48A0F800A00C48A0F800801020A6F144
:102DD00014039AB26B1D99B204F10A03CDE90009FC
:102DE00098B21023FEF708FE40F641000249088021
:102DF000BDE8FC871E000020200000200EB500F07A
:102E00003DF840F641001249088012A0FFF7BEFDD0
:102E1000002012A140F2FF727823CDE90021029038
:102E2000B42250211E20FFF77FFF01F057F94BF627
:102E3000F7500C4908800CA010210B46C822CDE9A0
:102E400000104FF491713C20FEF7D6FD0EBD00003E
:102E500020000020522043616C69620052205661BC
:102E60006C7565001E00002050726573732042412E
:102E7000434B20746F20457869740000F8B5002436
:102E80001EE00C2094FBF0F0083085B23F2D00DDF1
:102E90003F250B2094FBF0F00A3086B21F2E00DD98
:102EA0001F264FF4006040EA4510304387B22346A6
:102EB000EF22214600200097FEF73CFA601C84B206
:102EC000B4F5A07FDDDBF8BD7CB505460E46C5EB4D
:102ED000C5002A2101EB8004EEB142F2B820009037
:102EE00004F1140083B2201F81B2E6220A20FEF70B
:102EF00021FA4FF6FF702E49088042F2B8202D4982
:102F0000088004F1140083B2201F81B2E6220A2057
:102F1000FEF7E2F920E041F2A200009004F1140073
:102F200083B2201F81B2E6220A20FEF703FA46F69A
:102F30006D301F49088041F2A2001E49088004F14B
:102F4000140083B2201F81B2E6220A20FEF7C4F9E2
:102F50004FF6FF7016490880174850F825001021D9
:102F60000B46C822CDE9001021461420FEF744FD8F
:102F700056B112A010210B461422CDE900102146B3
:102F8000D220FEF739FD11E046F66D300849088081
:102F900041F2A2000749088009A010210B46142223
:102FA000CDE900102146D220FEF726FD7CBD0000B1
:102FB0001E00002020000020300000203E00000005
:102FC000200000007CB517480588FFF757FF16A0C2
:102FD000FFF7DCFC00240CE016480078844201D1A5
:102FE000012000E0002001462046FFF76DFF601C35
:102FF000C4B2092CF0DB4BF6F7500F49088040F6BD
:103000004100084908800DA010210B46DC22CDE9C3
:1030100000104FF496710A20FEF7EEFC014805807F
:103020007CBD00002000002053657474696E6773D6
:1030300000000000250000201E0000204C4C2F52F4
:103040004C3A53656C204C483A456E746572205278
:10305000483A4261636B00000EB5FFF70FFF40F680
:1030600041002049088020A0FFF790FC002022A109
:1030700040F2FF727823CDE900210290A022502176
:103080002820FFF751FE00F0B9FF4FF4FC601D4906
:1030900008801DA010210B467822CDE90010A02148
:1030A0003C20FEF7A9FC4FF47840164908801AA08E
:1030B00010210B467822CDE90010B4213C20FEF708
:1030C0009BFC4BF6F7500F49088017A010210B46C8
:1030D000C822CDE900104FF491713C20FEF78CFC22
:1030E0000EBD00002000002053704F322047616960
:1030F0006E205365740000004761696E204C657650
:10310000656C00001E00002055503A20496E637225
:103110006561736500000000444E3A2044656372A7
:103120006561736500000000507265737320424151
:10313000434B20746F204578697400000EB5FFF78B
:103140009DFE40F641002049088020A0FFF71EFCAC
:103150004FF6FF7020A140F25D529623CDE9002189
:103160000290C82246211420FFF7DEFD00F0F8FF90
:103170004FF4FC601C4908801CA010210B46B422AF
:10318000CDE90010BE212320FEF736FC4FF4784035
:103190001549088019A010210B46B422CDE9001072
:1031A000D2212320FEF728FC4BF6F7500E49088069
:1031B00016A010210B46B422CDE900104FF49171F6
:1031C0003720FEF719FC0EBD2000002053797374E0
:1031D000656D20536574000053797374656D2043E9
:1031E0006F6E6669670000001E0000204C4C3A209C
:1031F0004272696768746E6573732B00524C3A2093
:103200004272696768746E6573732D0050726573DE
:1032100073204241434B20746F204578697400004D
:103220000EB5FFF72BFE40F641002049088020A094
:10323000FFF7ACFB4FF6FF7020A140F25D52782300
:10324000CDE900210290B42250211E20FFF76CFD31
:1032500000F0DCFF4FF4FC601B4908801BA010212C
:103260000B46B422CDE90010A5213720FEF7C4FBA0
:103270004FF478401449088017A010210B46B4225F
:10328000CDE90010B9213720FEF7B6FB4BF6F75019
:103290000D49088013A010210B46B422CDE900107F
:1032A0004FF491713720FEF7A7FB0EBD20000020E0
:1032B000576F726B204D6F64650000004D6F646541
:1032C0002053656C656374001E0000204C4C3A204E
:1032D0004D6F6E69746F7200524C3A20536572766E
:1032E000696365005072657373204241434B2074DB
:1032F0006F2045786974000010B540F64100FDF775
:1033000025FF00200349087001200349087000F0E0
:1033100047FA10BD240000202600002010B53C48CC
:10332000007848B901203A490870002039490870EE
:1033300001203949087067E035480078012863D1D9
:103340003448007830B902203149087001203249F0
:10335000087059E02F480078012806D103202C4935
:10336000087001202C4908704EE02A480078022895
:1033700006D104202649087001202749087043E03F
:1033800024480078032806D105202149087001202F
:103390002149087038E01F480078042809D1062028
:1033A0001B4908700120FFF72BF801201A4908700B
:1033B0002AE018480078052806D10720144908702B
:1033C0000120154908701FE012480078062806D130
:1033D00008200F49087001200F49087014E00D48BB
:1033E0000078072806D109200949087001200A49F8
:1033F000087009E007480078082805D10A20044928
:10340000087001200449087000F0CAF910BD0000DE
:1034100024000020250000202600002010B5474889
:103420000078012813D14648007800280EDD444872
:1034300004780078401E4249087000212046FFF7BA
:1034400043FD01213E480078FFF73EFD75E03B4813
:10345000007804280BD100210220FEF7ABFF394889
:103460008079401C3749887100F0C8FD65E0334819
:103470000078052805D10120FEF7CCFF00F050FDB3
:103480005BE02E480078072809D101202E490870FA
:1034900001210520FEF78EFF00F076FA4DE0274867
:1034A0000078022805D100202849087000F0AEFEFF
:1034B00043E02248007803280BD1254800780228F1
:1034C00004DA23480078401C2149087000F0C2F952
:1034D00033E01A480078082805D101201D490870FA
:1034E00000F0E6FC29E015480078092812D11A48B6
:1034F0000078052804DA18480078401C164908703E
:1035000015480078032802DB01201449087000F0F8
:1035100027FE12E0094800780A280ED110480078EA
:10352000022805DA0E480078401C0D49087002E0B8
:1035300000200B49087000F0D5FB10BD24000020CE
:10354000250000209A0000202700002028000020ED
:10355000290000202A0000202B0000202C00002041
:103560002D0000207047000010B535480078012874
:1035700006D10020324908700120324908705BE012
:103580002F480078042805D101202D4908702D49C5
:10359000087051E02A480078052805D10120284903
:1035A00008702849087047E025480078062808D1A7
:1035B0000020FEF725FF01202149087021490870ED
:1035C0003AE01F480078072805D101201C490870FF
:1035D0001C49087030E01A480078022805D1012003
:1035E000174908701749087026E015480078032825
:1035F00005D1012012490870124908701CE01048DA
:103600000078082805D101200D4908700D4908707F
:1036100012E00B480078092805D1012008490870FC
:103620000849087008E0064800780A2804D10120FB
:10363000034908700349087000F0B2F810BD00009B
:10364000240000202600002010B5494800780128F9
:1036500013D14848007808280EDA464804780078E4
:10366000401C4449087000212046FFF72DFC012131
:1036700040480078FFF728FC79E03D4800780428AE
:103680000FD100210320FEF795FE3B4880790028EA
:1036900004DD39488079401E3749887100F0AEFC5E
:1036A00065E033480078052805D10020FEF7B2FE1A
:1036B00000F036FC5BE02E480078072809D1002096
:1036C0002E49087000210520FEF774FE00F05CF919
:1036D0004DE027480078022805D1012028490870CC
:1036E00000F094FD43E02248007803280BD12548E0
:1036F0000078002804DD23480078401E2149087026
:1037000000F0A8F833E01A480078082805D1002016
:103710001D49087000F0CCFB29E015480078092805
:1037200012D11A480078012804DD18480078401E9C
:103730001649087015480078032802DA0020144959
:10374000087000F00DFD12E0094800780A280ED13B
:1037500010480078002805DD0E480078401E0D490D
:10376000087002E002200B49087000F0BBFA10BD9F
:1037700024000020250000209A00002027000020BF
:1037800028000020290000202A0000202B00002013
:103790002C0000202D00002010B500F001F810BD15
:1037A00010B52A48007800B910BD2948007810B932
:1037B000FFF734F944E026480078012802D1FFF7EA
:1037C00001FC3DE022480078022802D1FFF728FDE5
:1037D00036E01F480078032802D1FEF729FE2FE0CB
:1037E0001B480078042802D1FFF736FC28E018486F
:1037F0000078052802D1FFF74DF821E01448007841
:10380000062802D1FFF7FAFA1AE0114800780728D3
:1038100002D1FEF77FFE13E00D480078082802D1A0
:10382000FEF7CAFF0CE00A480078092802D1FFF72A
:1038300085FC05E0064800780A2801D1FEF74CFF18
:1038400000200249087000BFAEE7000026000020FB
:103850002400002070B58AB03048007818B95A2684
:103860002D2482250AE02D480078012803D15C260A
:1038700032248C2502E05E26372496254FF6FF7011
:103880002749088040F641002649088023480078EF
:1038900050B925A010210B46B422CDE900106E21AD
:1038A0002320FEF7A9F818E01C48007801280AD167
:1038B00022A010210B46B422CDE900106E21232056
:1038C000FEF79AF809E022A010210B46B422CDE9B8
:1038D00000106E212320FEF78FF8324621A102A8A6
:1038E00000F084FD02A810210B46B422CDE900109F
:1038F0008A212320FEF780F82B4622461DA102A82C
:1039000000F074FD02A810210B46B422CDE900108E
:10391000A0212320FEF770F80AB070BD2900002016
:103920001E0000202000002050726F66696C653A0E
:10393000204C6F77202020200000000050726F661E
:10394000696C653A204D656469756D200000000062
:1039500050726F66696C653A20486967682020205C
:103960000000000053704F32204C6F773A202564DE
:10397000202020004852204D696E2F4D61783A2555
:10398000642F2564000000001CB54FF6FF700F493E
:10399000088040F641000E4908800E48007850B17A
:1039A0000DA010210B46A022CDE9001082213C2061
:1039B000FEF722F809E00CA010210B46A022CDE969
:1039C000001082213C20FEF717F81CBD1E000020CD
:1039D000200000202700002043757272656E743A43
:1039E000204F4E202000000043757272656E743ABD
:1039F000204F46462000000030B587B004460CB981
:103A000007B030BDE07928B99048C07910B18F482F
:103A1000C079E071207A28B98C48007A10B18B48BF
:103A2000007A2072A079FF2806D188488079FF2883
:103A300002D086488079A0718548007800287DD121
:103A40000025824800782178884200D001257F48EF
:103A500040786178884200D001257C488078A17840
:103A6000884200D001257948C078E178884200D0AA
:103A7000012576488088A188884200D001257348B6
:103A8000C079E179884200D001257048007A217A16
:103A9000884200D001256D488079A179884200D004
:103AA00001253DB96948216801606168416021894B
:103AB0000181A5E740F2FF706649088041F2A2004B
:103AC00065490880207820B964A102A800F08EFC26
:103AD00004E0227864A102A800F088FC02A810216A
:103AE0000B46C822CDE9001046211020FDF784FFC7
:103AF0004FF4FC605749088041F2A2005649088003
:103B0000607820B95BA102A800F070FC04E0627844
:103B10005BA102A800F06AFC02A810210B46C82293
:103B2000CDE9001080211020FDF766FF4FF6E07010
:103B30004849088041F2A200474900E06FE0088050
:103B4000A07830B9E07820B950A102A800F04EFC6E
:103B500005E0A378E27851A102A800F047FC02A892
:103B600010210B46DC22CDE90010BA211020FDF710
:103B700043FF4FF6E0703749088041F2A200364912
:103B80000880A28849A102A800F030FC02A81021F8
:103B90000B467822CDE90010EC211020FDF72CFF18
:103BA00048F230402B49088041F2A2002A4908809F
:103BB000237AE27940A102A800F018FC02A81021A3
:103BC0000B46C822CDE90010FE211020FDF714FF9E
:103BD00048F230401F49088041F2A2001E49088087
:103BE000A079FF2804D139A102A800F0FFFB04E06E
:103BF000A27939A102A800F0F9FB02A810210B4616
:103C00006422CDE90010EC218220FDF7F5FE0F487B
:103C100021680160616841602189018113E00B48DE
:103C2000216801606168416021890181084800784C
:103C3000062802D100F052FA05E0054800780A286B
:103C400001D100F04FF800BFDAE600009A00002032
:103C5000240000201E0000202000002053504F327E
:103C60003A202D2D2020000053504F323A2025338A
:103C70006420000050523A2020202D2D20200000EA
:103C800050523A2020253364202000005049205211
:103C90003A2D2D20493A2D2D200000005049205268
:103CA0003A25326420493A2532642000523A2025D0
:103CB000642020202000000050574D20523A2564F7
:103CC00020493A2564202020000000004761696EE9
:103CD0003A202D2D202000004761696E3A2025648E
:103CE0002020200000B58BB04FF6FF7048490880B7
:103CF00040F64100474908804748007800282AD10B
:103D000046A010210B46B422CDE9001064211E20EC
:103D1000FDF772FE4548027845A103A800F066FB56
:103D200003A810210B46B422CDE9001080211E20EB
:103D3000FDF762FE3D48427841A103A800F056FB22
:103D400003A810210B46B422CDE9001096211E20B5
:103D5000FDF752FE5AE03048007801282BD13CA0F4
:103D600010210B46B422CDE9001064211E20FDF77E
:103D700043FE2E488378C27839A103A800F036FBB1
:103D800003A810210B46B422CDE9001080211E208B
:103D9000FDF732FE2548828835A103A800F026FBF6
:103DA00003A810210B46B422CDE9001096211E2055
:103DB000FDF722FE2AE032A010210B46B422CDE905
:103DC000001064211E20FDF717FE1848037AC279FF
:103DD0002FA103A800F00AFB03A810210B46B42270
:103DE000CDE9001080211E20FDF706FE0F488279E4
:103DF0002BA103A800F0FAFA03A810210B46B42265
:103E0000CDE9001096211E20FDF7F6FD0BB000BD98
:103E10001E000020200000202D000020506167655A
:103E200020313A2053504F322F5052009A00002038
:103E300053504F323A2025642020202000000000FB
:103E400050523A202564202020202020000000002D
:103E50005061676520323A2050492F52000000001F
:103E6000504920523A256420493A256420202000F8
:103E7000523A2025642020202020202020200000ED
:103E80005061676520333A2044726976650000000E
:103E900050574D20523A256420493A25642020008D
:103EA0004761696E3A2025642020202020202000D0
:103EB0001CB54FF6FF700F49088040F641000E49CF
:103EC00008800E48007850B10DA010210B46AA22A0
:103ED000CDE9001082213220FDF78EFD09E00CA013
:103EE00010210B46AA22CDE9001082213220FDF7D5
:103EF00083FD1CBD1E000020200000202A000020A1
:103F000043757272656E743A204F4E202020000077
:103F100043757272656E743A204F46462020000049
:103F20001CB54FF6FF700F49088040F641000E495E
:103F30000880FEF707FA50B10CA010210B46A02212
:103F4000CDE9001082213C20FDF756FD09E00BA0D1
:103F500010210B46A022CDE9001082213C20FDF764
:103F60004BFD1CBD1E000020200000204375727216
:103F7000656E743A204F4E20200000004375727227
:103F8000656E743A204F46462000000010B588B098
:103F900004461348847113480078C0B948F2304091
:103FA0001149088041F2A200104908800C4882792A
:103FB0000FA103A800F01AFA03A810210B466422EF
:103FC000CDE90010EC218220FDF716FD05E0054843
:103FD0000078042801D100F011F808B010BD0000ED
:103FE0009A000020240000201E0000202000002055
:103FF0004761696E3A2025642020200000B58BB00F
:104000004FF6FF700B49088040F641000A490880CE
:104010000A4882790AA103A800F0E8F903A8102150
:104020000B46A022CDE9001082213C20FDF7E4FCE4
:104030000BB000BD1E000020200000209A000020D0
:1040400043757272656E74204C6576656C3A2025F6
:10405000642020200000000030B587B004460D46E3
:1040600014B90DB907B030BD1348C47105721348B7
:104070000078C8B948F230401149088041F2A200E6
:10408000104908800C48037AC2790FA102A800F0F9
:10409000ADF902A810210B46C822CDE90010FE217F
:1040A0001020FDF7A9FC05E004480078062801D19E
:1040B00000F014F800BFD5E79A000020240000208B
:1040C0001E0000202000002050574D20523A256449
:1040D00020493A25642020200000000000B58BB064
:1040E0004FF6FF701449088040F6410013490880DC
:1040F0001348828813A103A800F078F903A81021BF
:104100000B467822CDE9001082215020FDF774FC87
:104110000B48037AC2790EA103A800F067F903A83F
:1041200010210B46A022CDE900109B213220FDF783
:1041300063FC0BB000BD00001E000020200000202A
:104140009A000020523A2025642020202000000000
:1041500050574D20523A256420493A2564200000EA
:1041600000B58BB04FF6FF701749088040F641004C
:10417000164908801648027816A103A800F036F9FF
:1041800003A810210B46B422CDE90010782123208A
:10419000FDF732FC1448007850B114A010210B46F2
:1041A000B422CDE9001094212320FDF725FC09E07D
:1041B00012A010210B46B422CDE900109421232037
:1041C000FDF71AFC0BB000BD1E00002020000020EF
:1041D0002B0000204272696768746E6573733A2021
:1041E00025642020200000002C0000204B65792051
:1041F000426565703A204F4E200000004B657920E3
:10420000426565703A204F46460000001CB54FF6E7
:10421000FF700F49088040F641000E4908800E48A3
:10422000007850B90DA010210B46AA22CDE900104C
:1042300082213220FDF7E0FB09E00DA010210B46A2
:10424000AA22CDE9001082213220FDF7D5FB1CBD4A
:104250001E000020200000202800002043757272FC
:10426000656E743A204D6F6E69746F7220000000A5
:1042700043757272656E743A205365727669636530
:104280002000000008B5002000901F491F4801F0E1
:1042900006FC78B11C491D4801F0F4FB2520FDF710
:1042A000A5FC1A4801F06EFBC0B200909DF800001A
:1042B00000F076F81649154801F0F1FB012806D107
:1042C0001349124801F0DEFB104801F05BFB114975
:1042D0000E4801F0E4FBB0B12520FDF787FC6846ED
:1042E000FDF7B2FD9DF80010084801F050FB0A48A8
:1042F000FDF7A3FD38B100200849087040F20731EE
:10430000024801F0A5FB08BD050305000038014087
:10431000000503000703070064250020800000203B
:1043200010B51949194801F0BAFB70B1174801F0EE
:1043300029FBC4B2204600F03FF82046FEF708F8FB
:104340001149124801F09EFB00BF11490F4801F0CE
:10435000A6FB30B10D4801F015FB0D490B4801F0EB
:1043600091FB0C49094801F09AFB18B1094907482B
:1043700001F088FB0849054801F091FB18B1064996
:10438000024801F07FFB10BD05030500004400401A
:1043900000050300000502000005010000BFFEE764
:1043A00031B50024012269460248FCF7ABFCC4B2D7
:1043B000204638BD7025002001B50122694602481B
:1043C000FCF7A0FCC0B208BD041D00200FB4054BD3
:1043D00010B503A9044A029800F02CF810BC5DF84F
:1043E00014FB0000B54900087C0000200FB4084B06
:1043F00010B504A902AA039800F01CF8044602A90B
:10440000002000F048FA204610BC5DF814FB0000C4
:104410009748000802E008C8121F08C1002AFAD114
:1044200070477047002001E001C1121F002AFBD134
:10443000704700002DE9FF4F8DB00F46054600265E
:1044400006E025280BD0DDE90F1290476D1C761C85
:1044500028780028F5D111B03046BDE8F08F00244F
:10446000A246A1460122EC4900E0044315F8013FB1
:10447000203B02FA03F00842F7D128782A2810D00E
:104480006FF02F022878A0F13001092914D80AEB27
:104490008A0102EB410144F0020400EB010A6D1CA9
:1044A000F0E701CF5FEA000A03D544F40054CAF1F3
:1044B000000A44F002046D1C28782E2817D115F844
:1044C000010F44F004042A280ED06FF02F02287840
:1044D000A0F1300109290AD809EB890102EB410159
:1044E00000EB01096D1CF2E757F8049B6D1C28785E
:1044F0006C280FD006DC4C2817D068280DD06A280D
:1045000014D104E0742810D07A280FD10DE044F4BF
:1045100000140AE044F4801401E044F44014697883
:10452000814202D104F580146D1C6D1C2A786E2A1C
:104530001FD00CDC632A31D004DC002A8BD0582A2F
:1045400011D1A3E0642A68D0692A0CD165E0732AEE
:104550002ED004DC6F2A73D0702A04D19BE0752A18
:104560006FD0782A6ED01046DDE90F129047761C86
:1045700050E1C4F30250022806D0032809D00428D1
:1045800001CF09D0066045E101CFF117C0E9006114
:1045900040E101CF06803DE106703BE117F8040BD6
:1045A0008DF8000000208DF80100EB46012003E0AB
:1045B00057F804BB4FF0FF3061074FF0000102D401
:1045C0000DE008F10101884649450FDA8045F8DB26
:1045D0001BF808100029F4D108E008F10101884611
:1045E0008142FADB1BF808100029F6D1DDE90F2320
:1045F000AAEB08008146214600F036F9304400EB72
:10460000080604E0DDE90F121BF8010B9047B8F132
:104610000108F7D221464846F7E00A21C4F30253C5
:104620004FF0000B0891022B04D001CFC117032BD0
:1046300009D00AE0FF1D27F00707F7E8020108E0AC
:1046400032E01FE020E000B2C117042B01D140B2DC
:10465000C117031E71F1000307DA4FF0000CD0EB15
:104660000C006CEB01012D2302E0230504D52B2364
:104670008DF82430012303E0E30701D02023F7E77E
:10468000984658E00A2110E010210EE010204FF06B
:10469000000B08900CE010214FF0000B44F00404D4
:1046A0004FF00809089103E008214FF0000B089132
:1046B000C4F30253022B04D001CF0021032B06D0F8
:1046C00006E0FF1D27F00707F7E8020103E080B2CC
:1046D000042B00D1C0B24FF0000823072BD5702A5D
:1046E00007D0DDF820C08CF0100C5CEA0B0C05D074
:1046F0000EE040238DF82430012308E050EA010346
:1047000006D030238DF824308DF8252002239846DA
:10471000DDF820C08CF0080C5CEA0B0C0BD150EAE1
:10472000010301D1630706D530238DF824304FF003
:104730000108A9F10109582A04D038A20B9208AA4D
:104740000A920BE03AA2F9E75B46089AFBF7E0FD14
:104750000B9B9B5C0A9A521E0A92137050EA01024C
:10476000F2D10A98ADEB000000F1200B600702D5F2
:1047700024F4803401E04FF00109D94502DDA9EBB2
:104780000B0000E0002000EB0B0141440890AAEB75
:10479000010AE00306D4DDE90F232146504600F06C
:1047A00063F806444FF0000908E009A911F8090070
:1047B000DDE90F12904709F10109761CC145F4DBD0
:1047C000E0030CD5DDE90F232146504600F04CF8FC
:1047D000064404E0DDE90F1230209047761C08996A
:1047E000481E08900029F5DC08E00A980A9900782C
:1047F000491C0A91DDE90F129047761CBBF10001BC
:10480000ABF1010BF1DC21465046DDE90F2300F04E
:1048100019F806446D1C1BE60928010030313233BB
:1048200034353637383961626364656600000000EC
:1048300030313233343536373839414243444546D6
:10484000000000002DE9F041044600251E461746F1
:10485000880404D405E039462020B0476D1C641E4E
:10486000F9D52846BDE8F0812DE9F0410446002540
:104870001E469046C80301D5302700E02027880453
:1048800004D505E041463846B0476D1C641EF9D595
:104890002846BDE8F0810A68531C0B601070704711
:1048A000014604480068084008B101207047002014
:1048B000FCE700001404014010B52C4B1B68834337
:1048C0002A4C2360231D1B688343241D2360231D62
:1048D0001B688343241D2360231D1B688343241D01
:1048E000236011B101290ED105E0204B1B68034361
:1048F0001E4C236008E01D4B1B1D1B6803431B4C13
:10490000241D236000E000BF00BF22B1012A0FD0A8
:10491000022A27D119E0154B08331B680343134CB7
:1049200008342360231D1B688343241D23601AE081
:104930000E4B08331B6883430C4C08342360231D43
:104940001B680343241D23600DE0084B08331B68DC
:104950000343064C08342360231D1B680343241DB6
:10496000236000E000BF00BF10BD00000004014054
:10497000024909688143014A1160704700040140FF
:10498000024909680143014A11607047000401406F
:10499000014908607047000014040140044A11688E
:1049A00021F0070141EA0002014B1A607047000044
:1049B0000020024070B504460D46E1B2054800F003
:1049C000E6FF00BF0721034801F033F80028F9D0C3
:1049D000204670BD00380140416170470161704759
:1049E0000AB1016100E041617047000010B500228A
:1049F0008B071C0F0F2303FA04F204290EDA204B55
:104A00009B6893431E4CA36023469B688C07240F2E
:104A100000FA04F423431A4CA3602FE008290EDAAD
:104A2000174BDB689343164CE3602346DB688C0727
:104A3000240F00FA04F42343114CE3601EE00C2918
:104A40000EDA0F4B1B6993430D4C236123461B6900
:104A50008C07240F00FA04F42343094C23610DE072
:104A6000074B5B699343064C636123465B698C0784
:104A7000240F00FA04F42343014C636110BD0000CD
:104A800000000140F0B5044616460025002201F062
:104A90000F0501F0100747B1042E05D145F00305BD
:104AA000E76B1F43E76300E0354300201EE001276A
:104AB00087401F40C7B122684FEA800C0F2707FAD2
:104AC0000CF7BA43870005FA07F73A43282904D1BF
:104AD000012787401F40676105E0482903D101276E
:104AE00087401F4027612260471CB8B20828DED3E8
:104AF000082022E0012787401F40E7B16268A0F14B
:104B000008074FEA870C0F2707FA0CF7BA43A0F102
:104B10000807BF0005FA07F73A43282904D10127FF
:104B200087401F40676105E0482903D1012787407E
:104B30001F4027616260471CB8B21028DAD3F0BD6D
:104B400002469068084008B1012070470020FCE749
:104B50000146886880B270470246D068084008B1B4
:104B6000012070470020FCE70146C86880B270470A
:104B7000C160704788B0FCF7F7F8FCF748F940A02F
:104B8000FFF724FC47A0FFF721FC4AA0FFF71EFC1B
:104B90004BA0FFF71BFC4EA0FFF718FC50A0FFF73F
:104BA00015FC53A0FFF712FC69E0FCF7D5F818B12B
:104BB000FCF7F2F9FBF708FEFDF7EAFBFDF7BCFB9B
:104BC00010B1FDF723FA01E0FDF798F903A804AB53
:104BD00005AA06A9009007A8FDF750F9002845D0BE
:104BE0009DF81C008DF800009DF818008DF801005C
:104BF0009DF814008DF802009DF810008DF8030058
:104C00009DED030ADFED410A20EE200ABCEEC00A4A
:104C100010EE100A80B2ADF80400FF208DF80600F7
:104C200000208DF807008DF808006846FEF7E4FEC6
:104C3000FDF782FB28B1BDF8041035A0FFF7C6FBD5
:104C400013E09DF81C1034A0FFF7C0FB9DF818106E
:104C500034A0FFF7BBFB9DF8141035A0FFF7B6FB9F
:104C6000BDF8041035A0FFF7B1FB00BFFCF76EF8EC
:104C700018B1FDF7B8F8FBF7A1FDFEF78DFD94E73D
:104C8000496E69742053797374656D20686173206F
:104C90006265656E2066696E69736865642E0D0ACB
:104CA000000000007B7B312C53504F327D7D0D0A7C
:104CB000000000007B7B322C48527D7D0D0A0000F5
:104CC0007B7B332C50495F49527D7D0D0A000000EB
:104CD0007B7B342C525F56616C7D7D0D0A00000099
:104CE0007B7B352C4761696E7D7D0D0A00000000DD
:104CF0004C434420446973706C617920546573742B
:104D00002053746172742E0D0A00000000007A4472
:104D100025642C300D0A00005B5B312C25645D5D41
:104D20000D0A00005B5B322C25645D5D0D0A0000FE
:104D30005B5B332C25645D5D0D0A00005B5B342CEE
:104D400025645D5D0D0A00002DE9F04103460D4626
:104D5000164600240027A0462A48006800F4E060B8
:104D6000B0F5E06F03D100BF4FF0040830E02548F4
:104D7000006800F4E060B0F5C06F03D101274FF088
:104D8000030825E01F48006800F4E060B0F5A06F5C
:104D900002D10227B8461BE01A48006800F4E06020
:104DA000B0F5806F03D103274FF0010810E01548DC
:104DB000006800F4E060B0F5407F03D104274FF0B5
:104DC000000805E04FF4A06000F020F80227B84684
:104DD000C7F1040005FA00F4C8F104010F20C8402F
:104DE0003040044324010848C45403F01F0101204B
:104DF00088405911890001F1E021C1F80001BDE8A6
:104E0000F08100000CED00E000E400E00249014305
:104E1000024A1160704700000000FA050CED00E046
:104E2000FFF7C8BD044A516821F0F00141EA0002D1
:104E3000014B5A607047000000100240044A51685C
:104E400021F4E06141EA0002014B5A607047000022
:104E500000100240044A516821F4605141EA000206
:104E6000014B5A6070470000001002402DE9F04FDE
:104E70008CB0074600200A904AA090E8004CC06819
:104E8000CDE905BECDF810A007900FF21C1ADAE9A3
:104E9000000ACDE9020A0FF2101ADAE9000ACDE998
:104EA000000A44484068C0F381000B900B9820B181
:104EB000012804D002283FD103E03F4A3EE03E4AA9
:104EC0003CE03C48406800F4803CBCF5803F12D197
:104ED0003848C06A00F08048B8F1000F01D1364C64
:104EE00000E0364C3348406800F40039B9F5003F23
:104EF00002D1334C00E0324C2E484068C0F383416D
:104F00002C48406800F0006008B141F010012948C9
:104F1000406800F0804008B141F020010F2901D223
:104F2000891C06E00F2903D33E2901D8491C00E063
:104F30003F2104FB01F201E01F4A00BF00BF1D48F2
:104F40004068C0F3031504A8465D22FA06F3194829
:104F50004068C0F3022502A8465D23FA06F00990D6
:104F600014484068C0F3C2251DF8056023FA06F016
:104F7000089037B1012F06D0022F06D0032F0AD197
:104F800006E00A9208E00A9306E009980A9003E016
:104F900008980A9000E000BF00BF0A980CB0BDE876
:104FA000F08F000000000000000000000102030478
:104FB000060708090010024000127A00006CDC02AB
:104FC00000093D0000B51148006840F001000F499C
:104FD0000860002000F042F80C4840680C49084086
:104FE0000A494860084600680A49084007490860BD
:104FF0000846006820F4802008604FF41F00886095
:105000000846C06A20F0C040C86200BD00100240DF
:105010000C000020FFFFF6FE0146074A02EB91104C
:10502000006801F01F0301229A40104008B10120DE
:1050300070470020FCE7000000100240064A02EB27
:105040009011096800F01F0301229A401143024B9E
:1050500003EB90121160704700100240F0B5064655
:10506000002400270025B6F5006F1FD005DC86B3AD
:10507000102E0BD0182E72D160E0B6F5106F4BD009
:10508000A6F540501038002869D133E004E0112023
:10509000FFF7C2FF0546641C15B9B4F5006FF6D1E1
:1050A0001120FFF7B9FF00B1012759E005E040F6F4
:1050B0000100FFF7B1FF0546641C1DB96FF07C408D
:1050C0008442F4D140F60100FFF7A6FF00B10127AA
:1050D00046E0FFE704E00120FFF79EFF0546641C61
:1050E00015B9B4F5A06FF6D10120FFF795FF00B117
:1050F000012735E005E043F21100FFF78DFF05467B
:10510000641C15B918488442F5D143F21100FFF729
:1051100083FF00B1012723E005E040F60110FFF70F
:105120007BFF0546641C15B90F488442F5D140F653
:105130000110FFF771FF00B1012711E004E0192011
:10514000FFF76AFF0546641C15B907488442F6D18B
:105150001920FFF761FF00B1012701E0FFE700BF61
:1051600000BF3846F0BD0000FFFF0F00064A02EB0B
:105170009011096800F01F0301229A401143024B6D
:1051800003EB90121160704700100240064A02EBD8
:105190009011096800F01F0301229A409143024BCD
:1051A00003EB90121160704700100240064A02EBB8
:1051B0009011096800F01F0301229A401143024B2D
:1051C00003EB90121160704700100240024600206D
:1051D000044B5868044B184042EA01031843014B42
:1051E0005860704700100240FFFFC2B70146002020
:1051F000034AD06A20F080400843D0627047000024
:105200000010024001460020054A506820F400309A
:10521000012901D140F40030014A5060704700007C
:1052200000100240044A516821F0030141EA0002E3
:10523000014B5A607047000000100240024840686D
:1052400000F00C0070470000001002402DE9F04112
:1052500006ACF0CC00EB010C0CEBDC784FEA6808F4
:10526000C4F8008002EB030C0CEBDC784FEA680812
:10527000C6F80080A0EB010C0CEBDC784FEA680864
:10528000C5F80080A2EB030C0CEBDC784FEA680851
:10529000C7F80080BDE8F0812DE9F04F85B00446E5
:1052A0000E4617469C461E200190C82000904FEAEB
:1052B0004C00032590FBF5F038440490DFF8A480FF
:1052C000281F0390002002900023814601212DE039
:1052D00054F821004D1E54F825A04D1C54F825B05B
:1052E000049DA84220DD50451EDD58451CDDA1EB84
:1052F00008051E2D05DA029DA84215DD884602909C
:1053000012E0039D002D01DA03910BE0A1EB0805EB
:105310001E2D06DBC82D04DCA94403F1010E1FFA83
:105320008EF300BF88460290481C81B2701E8842EE
:10533000CEDC002B05DD41F27070584390FBF9F292
:1053400000E00022C82A00DDC822002A02DD1E2A51
:1053500000DA1E22002A00DA0022D0B205B0BDE831
:10536000F08F000018FCFFFF30B502460B460AB96B
:10537000002030BD4FF47A705843B0FBF2F4601D4A
:105380000A25B0FBF5F081B201B90121632900DDE6
:105390006321C8B2EDE770B503460C461546002BF5
:1053A00007DD002C05DD4FF47A70584390FBF4F1D3
:1053B00000E00021B1F5C87F0DDBB1F5966F0ADC86
:1053C00001EBC10000EB01104FF47A7690FBF6F090
:1053D000C0F16E0200E00022642A00DD6422462A49
:1053E00000DA46222960D0B270BD2DE9F0410446B2
:1053F00006ADE0CDD4F800C0C3F800C0D4F800C0BA
:10540000C5F800C0D1F800C0C6F800C0D1F800C08F
:10541000C7F800C001202BE054F820C0D3F800806A
:10542000C44503DD54F820C0C3F800C054F820C0C0
:10543000D5F80080C44503DA54F820C0C5F800C090
:1054400051F820C0D6F80080C44503DD51F820C0D3
:10545000C6F800C051F820C0D7F80080C44503DA70
:1054600051F820C0C7F800C000F1010C1FFA8CF001
:105470009042D1DBBDE8F0812DE9F04705460E46AC
:1054800017469C46DDF82080DFF87091DFF870A1A8
:105490009AF800A029F81A50DFF86891DFF860A1A7
:1054A0009AF800A029F81A60DFF85C91DFF850A1A3
:1054B0009AF800A029F81A70DFF85091DFF840A19F
:1054C0009AF800A029F81AC0DFF84491DFF830A15B
:1054D0009AF800A029F81A80DFF8389199F800901E
:1054E000B9F1050F09DADFF82C9199F8009009F16C
:1054F0000109DFF820A18AF80090DFF8049199F8FB
:10550000009009F10109DFF8F8A08AF80090D1466F
:1055100099F80090B9F1050F03DB4FF000098AF804
:1055200000900022002300210024002017E0DFF873
:10553000CC9039F810904A44DFF8C89039F81090B0
:105540004B44DFF8C49039F810904944DFF8C0901C
:1055500039F810904C4400F101091FFA89F0DFF886
:10556000B49099F800904845E1DBDFF8A89099F8ED
:105570000090B2FBF9F9DFF8A0A08AF80090DFF8FC
:10558000949099F80090B3FBF9F98AF80190DFF84C
:10559000849099F80090B1FBF9F98AF80290002103
:1055A000002008E0DFF8649039F81090494400F1D9
:1055B00001091FFA89F0DFF85C9099F800904845DE
:1055C000F0DBDFF8509099F80090B1FBF9F9DFF8C3
:1055D00048A08AF80390DFF83C9099F80090B4FB5B
:1055E000F9F900EE109AB8EE400ADFED0C0A80EEF1
:1055F000201AD14689ED011ABDE8F087D01C0020A1
:1056000060000020DA1C0020E41C0020EE1C0020BA
:10561000F81C00205F000020C41C002000007A4419
:10562000002000213E4A126842F480323C4B1A604E
:1056300000BF401C3A4A126802F4003111B9B0F5BB
:10564000006FF6D1364A126802F400320AB900BF80
:10565000FEE7334AD26942F08052314BDA61314A77
:10566000126842F440422F4B1A602D4A52682C4B6C
:105670005A601A4652685A601A46526842F480626A
:105680005A601A46526822F440325A601A465268EA
:1056900042F440325A601A465268234B1A40204B5B
:1056A0005A601A465268214B1A431D4B5A601A46DB
:1056B000126842F080721A6000BF194A126802F044
:1056C0000072002AF9D0174A126842F48032154B52
:1056D0001A6000BF134A526802F48032002AF9D0DF
:1056E000104A126842F400320E4B1A6000BF0D4A95
:1056F000526802F40032002AF9D0094A526822F0B6
:105700000302074B5A601A46526842F002025A607E
:1057100000BF034A526802F00802002AF9D070471D
:105720000010024000700040FFFFC3B700003408C3
:1057300010B5FFF775FF10BD10B504463349601A68
:105740008C4244D00CDCB4F1804F1CD03048204453
:1057500010B3B0F5806F28D0B0F5006F52D12DE0B6
:10576000B0F5806F3CD0B0F58E3F03D0B0F5923FDE
:1057700048D13EE040F20B30FFF718FD40F20B300D
:10578000FFF704FD3FE04FF48060FFF70FFD4FF49B
:105790008060FFF7FBFC36E040F20140FFF706FDBA
:1057A00040F20140FFF7F2FC2DE040F20240FFF72B
:1057B000FDFC40F20240FFF7E9FC24E040F2034028
:1057C000FFF7F4FC40F20340FFF7E0FC1BE040F27F
:1057D0000440FFF7EBFC40F20440FFF7D7FC12E077
:1057E00040F20540FFF7E2FC40F20540FFF7CEFC37
:1057F00009E040F20D30FFF7D9FC40F20D30FFF721
:10580000C5FC00E000BF00BF10BD0000001000405C
:1058100000FCFFBF016841F001010160704700001A
:105820000A8882621D4A90420ED0B0F1804F0BD0A0
:105830001B4A904208D01B4A904205D01A4A904217
:1058400002D01A4A90420BD1026822F07002026024
:1058500002684B881A43026002688B881A43026010
:105860008A68C262124A90420AD0124A904207D015
:10587000026822F4407202600268CB881A43026018
:10588000064A904202D0094A904201D10A7B026343
:10589000426942F00102426170470000002C014061
:1058A0000004004000080040000C004000340140AB
:1058B0000010004000140040C2680A43C2607047F4
:1058C000CA43026170470246D06800EA01031069CA
:1058D000084010B10BB1012070470020FCE7002107
:1058E0000180418081804FF6FF7181600021C1807D
:1058F000017370472DE9F04704460D460027B8466E
:10590000B94600261D49601A8C421CD006DC1C4892
:10591000204470B1B0F5806F1FD10FE0B0F5806FFB
:1059200016D0B0F56C4F18D10320FFF79FFA074649
:1059300014E00220FFF79AFA07460FE00220FFF773
:1059400095FA07460AE00220FFF790FA074605E0BD
:105950000220FFF78BFA074600E000BF00BF07EB0D
:105960005500B0FBF5F64FF6F07006EA000806F0B9
:105970000F0948EA0900A060BDE8F087004C00402C
:1059800000BCFFBF01464868C0F308007047C1F380
:10599000080242607047000010B504462049601AB2
:1059A0008C4228D006DC1F48204490B1B0F5806FAF
:1059B00033D117E0B0F5806F26D0B0F56C4F2CD105
:1059C00040F20E30FFF7F2FB40F20E30FFF7DEFB45
:1059D00024E040F21140FFF7E9FB40F21140FFF7ED
:1059E000D5FB1BE040F21240FFF7E0FB40F2124013
:1059F000FFF7CCFB12E040F21340FFF7D7FB40F279
:105A00001340FFF7C3FB09E040F21440FFF7CEFB61
:105A100040F21440FFF7BAFB00E000BF00BF10BD2A
:105A2000004C004000BCFFBFC16841F40051C160A0
:105A3000704710B5024602EB9110006801F01F0498
:105A40000123A340184008B1012010BD0020FCE74D
:105A500010B500EB9112126801F01F040123A3405E
:105A60009A4300EB91131A6010BD10B500EB911230
:105A7000126801F01F040123A3401A4300EB9113A5
:105A80001A6010BD10B500EB91521268C1F30444C6
:105A90000123A3409A4300EB91531A6010BD70B5E7
:105AA000024600230024C1F38910105801F01F069C
:105AB0000125B54000EA050302EB91500068C1F3EF
:105AC00004460125B54000EA050414B10BB10120DC
:105AD00070BD0020FCE7C26822F4C062C260C268E8
