:020000040800F2
:100000005027002045010008F91B0008750D000865
:10001000F51B0008C9070008614600080000000041
:100020000000000000000000000000001522000891
:10003000D10B0008000000002D1E00081722000848
:100040005F0100085F0100085F0100085F01000810
:100050005F0100085F0100085F0100085F01000800
:100060005F010008490C0008750C00085F010008DA
:100070005F0100085F0100085F0100085F010008E0
:100080005F0100085F0100085F0100085F010008D0
:100090005F0100085F0100085F010008A10C000873
:1000A0005F0100085F0100085F0100085F010008B0
:1000B0005F010008712200085F0100085F0100086D
:1000C0005F0100085F0100085F0100085F01000890
:1000D0005F0100083D450008D94500085F010008A0
:1000E000ED0B00085F0100085F0100085F010008D8
:1000F0005F0100085F0100085F0100085F01000860
:100100005F0100085F010008B12200085F010008DC
:100110005F0100085F0100085F0100085F0100083F
:100120005F0100085F0100085F0100085F0100082F
:10013000DFF80CD000F078F900480047C94E0008FD
:10014000502700200648804706480047FEE7FEE7A4
:10015000FEE7FEE7FEE7FEE7FEE7FEE7FEE7FEE777
:100160002122000831010008D2B201E000F8012B81
:10017000491EFBD270470022F6E710B513460A4627
:1001800004461946FFF7F0FF204610BD421C10F848
:10019000011B0029FBD1801A704700000FB400B585
:1001A0008DB010A909900B9000914FF0FF300A908C
:1001B00000200C9005480690054807906A4609A85B
:1001C0000F9900F003F90DB05DF814FBE903000886
:1001D000070400082DE9FF5F1D464FF0FF3BD5E9FE
:1001E000014691465F464FF00008A9697F1C0198BF
:1001F0008847296A824688470028F6D1BAF1FF3F2E
:100200000CD024F4C064002E19DD600614D5BAF1B8
:100210002B0F09D0BAF12D0F0ED103E0584604B0D0
:10022000BDE8F09F44F48064A9697F1C0198884769
:10023000761E8246002E02DDBAF1300F03D0B9F1EE
:10024000000F26D032E0A969761E44F400747F1CAA
:10025000019888478246002E05DDBAF1780F06D056
:10026000BAF1580F03D0B9F1000F10D01EE0B9F168
:10027000000F02D0B9F1100F18D1A969761E24F42D
:1002800000747F1C019888478246102002E00820F5
:1002900000E00A20814609E008FB0908A969761EEA
:1002A00044F400747F1C019888478246002E05DDC7
:1002B0004946504600F075F80028EDDAE9690198E2
:1002C0008847A00502D46FF00100A8E7E00725D118
:1002D000600613D5600502D5C8F1000000E0404675
:1002E00029680A1D2A600968220501D5087015E0F1
:1002F000220701D5088011E008600FE02868011D81
:1003000029600068210502D580F8008006E02107F9
:1003100002D5A0F8008001E0C0F8008038467EE7F2
:100320002DE9F05F0546002092469B46884606462A
:10033000814640241BE0284641464746224600F0BD
:1003400020F853465A46C01A914110D31146184618
:10035000224600F07BF82D1A67EB01084F46224633
:100360000120002100F072F817EB00094E41201E19
:10037000A4F10104DFDC484631462A464346BDE885
:10038000F09F202A04DB203A21FA02F00021704776
:1003900021FA02F3D040C2F12002914008431946ED
:1003A00070473A2800D2303820F02002412A01D389
:1003B000A2F13700884201D34FF0FF3070470000B0
:1003C000026811441378016018467047D1600449EF
:1003D00051610449116200211161114600F04AB8CF
:1003E000C10300086B040008426842B1016811F8BB
:1003F000013B23B1521EC0E900121846704701218B
:10040000C160881E704742685AB1C368016843B929
:1004100083688B4205D0491E521CC0E9001200209F
:1004200070474FF0FF307047064C074D06E0E0681C
:1004300040F0010394E8070098471034AC42F6D32B
:10044000FFF77AFEF466000814670008202A04DB30
:10045000203A00FA02F1002070479140C2F12003D7
:1004600020FA03F3194390407047C0B24FF4F051A3
:1004700000F096B92DE9F34F8BB04FF0000801F171
:100480000C000C464FF0010B46460DF1080A019096
:100490006269012101989047051E2DD0252D2CD091
:1004A000216A8847C0B16269012101989047216A99
:1004B00088470028F7D1411E62690198904700E003
:1004C000761CA1690B988847216A88470028F7D1D4
:1004D000E1690B988847DBE7A1690B9888470746D5
:1004E000A84201D1761CD3E7E1690B9888477F1CAD
:1004F00002D1B8F1000F6FD046E1002762693D4696
:100500003946019890472A2804D16269012101984F
:1005100090470125DFF88492626901210198904794
:10052000A0F130010A290AD24F45E5DC07EB87012B
:1005300000EB4107303FDFD445F01005ECE7E9065A
:1005400001D46FF000476C280AD04C2814D06828DA
:1005500015D06A280DD074281CD07A281AD01DE036
:1005600062690121019890476C2802D045F004058A
:1005700014E045F002050DE045F020050AE062694F
:10058000012101989047682802D045F0080505E050
:1005900045F400656269012101989047C4E901575B
:1005A00065283DD019DC58287AD00CDC452837D096
:1005B00004DC252826D0412831D131E046282FD02F
:1005C00047282CD12CE05B2877D0612828D06328DD
:1005D0007CD0642823D15AE0D0E06F2848D008DCD2
:1005E00066281DD067281BD0692821D06E2816D117
:1005F00027E0702845D0732868D0752847D0782820
:100600000DD14DE0A1690B988847054625283FF498
:1006100069AFE1690B9888476D1C3FF46AAFB3E09E
:1006200023466A466FF001000B99AFF300809EE00D
:1006300045F040006060A80723464FF0000236D422
:100640003EE0E8077FF447AF2068011D21600068A5
:10065000290501D506701BE7290701D5068017E794
:10066000A90703D5F117C0E9006111E706600FE79C
:1006700045F040006060A80723464FF0080216D4FA
:100680001EE040F60E0125EA0100606016E045F02C
:1006900040006060A80723464FF00A0207D40FE02D
:1006A00045F040006060A80708D5234610226FF08F
:1006B00001000B99AFF3008059E007E023461022B8
:1006C0006FF001000B99FFF785FD50E04FF0000936
:1006D0004F464B46632802D05B2806D040E0E80630
:1006E00001D40120A06001273AE06269012101984C
:1006F00090475E2805D14FF001096269494601988B
:100700009047216939B900210A46534643F8212010
:10071000491C0829FADBB0B3216969B9C11700EB9C
:10072000D16253110AEB830122F01F02821A0120C9
:100730000B68904003430B60626901210198904768
:100740005D28E8D1B9F1000F09D00020514651F8D9
:100750002020D24341F82020401C0828F7DB02ABC0
:10076000224600976FF001000B99AFF3008000283C
:100770000CDA401C08D1BBF1000F05D04FF0FF3060
:100780000DB0BDE8F08FFFE74046F9E7E90701D17A
:1007900008F1010806444FF0000B79E6CCCCCC0CF4
:1007A0007F2801D9002208E0064A02EB5002C00768
:1007B000127800D1120902F00F0201209040084087
:1007C000704700004A66000800BFFEE700200149AC
:1007D000087070477D0000200020014908707047B4
:1007E0007C00002010B540F2066004F0C3FE40F229
:1007F000046004F0BFFE4FF4C06004F0BBFE0823A9
:1008000003224821374804F09FFA1023032248218D
:10081000344804F099FA202303224821314804F097
:1008200093FA4FF40053032248212F4804F08CFA26
:100830004FF40073032248212B4804F085FA03216A
:10084000042004F035FA0421084604F031FA0521A9
:10085000042004F02DFA0D21022004F029FA0921C8
:10086000022004F025FA01220021082004F086F974
:1008700001220021102004F081F901220021202012
:1008800004F07CF901220021500304F077F90122E1
:100890000021500204F072F9082004F0DBF9102066
:1008A00004F0D8F9202004F0D5F94FF4005004F0FA
:1008B000D1F94FF4007004F0CDF90222114609205D
:1008C00004F046FC022211460A2004F041FC0222F8
:1008D0001146282004F03CFC02221146172004F0A7
:1008E00037FC10BD001801400010014010B540F267
:1008F000026004F03FFE40F2046004F03BFE4FF45F
:100900008073032210210E4804F01EFA4FF4807108
:100910000B4804F0C3F9402303221021094804F0D6
:1009200013FA4021074804F0B9F98023032210216B
:10093000044804F009FA8021024804F0AFF910BD20
:10094000000801400010014010B54FF4A06004F011
:1009500061FC10BD10B504F039FD102004F072FDEB
:10096000102004F07FFD0446012C26D104F078F914
:10097000002004F05BFC002004F070FCA00204F0F6
:1009800061FC002004F036FE002004F03FFE4FF42E
:100990005011200404F01EFE182004F053FD00BF87
:1009A000192004F03DFD0028FAD0022004F03EFE9C
:1009B00000BF04F047FE0028FBD010BD7FB5044601
:1009C0000D4640F2017004F0D5FD0F4805F04EF9D8
:1009D000684605F01EFAADF800500020ADF804009E
:1009E0000294ADF806006946074805F0B3F9012105
:1009F000054805F0FBF9002201211D2004F0A8FBA9
:100A0000014805F0A1F97FBD000400407FB5044610
:100A10000D4640F2037004F0ADFD0F4805F026F9D5
:100A2000684605F0F6F9ADF800500020ADF8040076
:100A30000294ADF806006946074805F08BF90121DC
:100A4000054805F0D3F900220121322004F080FB93
:100A5000014805F079F97FBD000C004010B504464F
:100A600040F2026004F086FD40F20E6004F082FD68
:100A70004FF40073032218211D4804F065F94FF468
:100A80008063032204211A4804F05EF9194805F036
:100A90001DFA2146174805F0C7F90021154805F051
:100AA000C4FA0021134805F0D0FA0021114805F0DE
:100AB000ACFA04210F4805F0B0FA08210D4805F002
:100AC000BCFA40F205310B4805F069FA40F20731F3
:100AD000084805F064FA074805F040FA00220221B0
:100AE000252004F035FB00200349087010BD0000EC
:100AF00000080140003801409800002010B504466D
:100B000040F2026004F036FD40F2117004F032FD54
:100B10000423032218211B4804F016F9082303229A
:100B20000421184804F010F9174805F0CFF92146C0
:100B3000154805F079F90021134805F076FA0021EF
:100B4000114805F082FA00210F4805F05EFA0421F1
:100B50000D4805F062FA08210B4805F06EFA40F2E4
:100B60000531094805F01BFA4FF4A061064805F06D
:100B700016FA00221146262004F0EAFA024805F08F
:100B8000EDF910BD000801400044004030B50346B7
:100B9000002016E0B3F900509C68645D0C541C887A
:100BA000641C24B21C80B3F90040B3F90450AC4279
:100BB00001DB00241C80441C20B2DC88641E24B2AB
:100BC000DC80B3F90640002C01DD9042E2DB30BD51
:100BD0007047000001B504490098086000BF024852
:100BE00000680028FBD108BDA000002010B54FF41C
:100BF000005003F0B7FF68B14FF4005004F02AF83A
:100C00004FF4005004F016F801200D49C870002080
:100C10000C49C8704FF4806004F01CF84FF4006079
:100C200004F018F84FF4805004F014F84FF48040AA
:100C300004F010F84FF4004004F00CF810BD000070
:100C4000140000201900002010B5082003F08AFFCE
:100C500058B1082003F0FEFF082003F0EBFF01204D
:100C60000249087000200249087010BD14000020DD
:100C70001900002010B5102003F074FF58B11020A7
:100C800003F0E8FF102003F0D5FF0120024948706F
:100C900000200249487010BD1400002019000020F7
:100CA00010B5202003F05EFF58B1202003F0D2FFE2
:100CB000202003F0BFFF0120144988700020144950
:100CC00088704FF4007003F04DFF68B14FF400706E
:100CD00003F0C0FF4FF4007003F0ACFF01200B499C
:100CE000087100200A490871202003F0B3FF40205A
:100CF00003F0B0FF802003F0ADFF4FF4807003F0ED
:100D0000A9FF4FF4007003F0A5FF10BD14000020F0
:100D10001900002070B50346002016E00C5CB3F902
:100D200002609D68AC555C88641C24B25C80B3F999
:100D30000240B3F90450AC4201DB00245C80441C47
:100D400020B2DC88641C24B2DC80B3F90640B3F91D
:100D50000450AC4201DA9042E0DB70BD01480078FB
:100D6000704700007D0000200148007870470000B7
:100D70007C00002000BFFEE710B501F051FA00F042
:100D80004AF800F031F84FF4E13000F089F800F053
:100D90007BF800F025F800F043F84FF4E13000F064
:100DA00087F800F009F800F023F800F037FB02F0B4
:100DB0001DFB01F0B3F810BD10B5FFF713FD0024C3
:100DC00006E000200449085504490855601CC4B2D7
:100DD000052CF6DB10BD00001400002019000020D7
:100DE00010B5FFF783FD10BD10B5FFF7ADFD10BDC9
:100DF000704730B50B460024048044808280C48054
:100E00008360002104E0002485686C544C1C21B2EE
:100E10009142F8DB30BD10B5FFF79CFD10BD704767
:100E200030B5164800684FF47A72B0FBF2F1481EF4
:100E3000B0F1807F01D301201BE0481E4FF0E0227B
:100E4000506150170F22002807DA13071D0E0C4BB4
:100E500000F00F04241F1D5503E013071C0E094B5F
:100E60001C5400BF00204FF0E02290610720106169
:100E7000002008B100BFFEE730BD00009C0000204C
:100E800018ED00E000E400E010B5772140F2E73013
:100E9000FFF794FD772140F2E730FFF7B7FD10BD73
:100EA00010B5044600F022F82046FFF7D7FD10BD2C
:100EB00010B5044600F004F82046FFF71FFE10BDF1
:100EC00010B5002404E0002006490855601C84B2D7
:100ED000B4F5006FF7DB4FF4006202490248FFF7F8
:100EE00088FF10BDFC190020F019002010B5002467
:100EF00006E000200949085509490855601C04B25C
:100F0000642CF6DB642205490648FFF772FF642271
:100F100003490548FFF76DFF10BD00007422002053
:100F2000D82200205C2200206822002010B5044650
:100F3000052C33D2DFE804F0030C151E280008212D
:100F4000174803F05FFF08B9012010BD0020FCE73F
:100F50001021134803F056FF08B90120F5E70020DF
:100F6000F3E720210E4803F04DFF08B90120ECE71C
:100F70000020EAE74FF400510A4803F043FF08B9A4
:100F80000120E2E70020E0E74FF40071054803F09C
:100F900039FF08B90120D8E70020D6E70020D4E7C0
:100FA000001801400010014010B50024C4E064485E
:100FB000005D58B92046FFF7B9FF002805D0012091
:100FC0005F49085500205F490855B3E05C48005D63
:100FD00001286DD12046FFF7A9FF002845D05948C8
:100FE000005D401C574908550846005D0528ECDBAC
:100FF0004CB900F0CDFD54480068401C52490860CF
:1010000000F01AFF2AE0012C09D100F0D3FD4F486F
:101010000068401C4D49086000F026FF1EE0022CCD
:1010200009D100F0D7FD4A480068401C48490860D3
:1010300000F012FF12E0032C07D146480068401C64
:101040004449086000F014FF08E0042C06D142482F
:101050000068401C4049086000F002FF0220384947
:10106000085500203749085564E0002035490855E7
:10107000334908551CB9082003F0E4FD5AE0012C5F
:1010800003D1102003F0DEFD54E0022C03D1202018
:1010900003F0D8FD4EE0032C04D14FF4005003F0D0
:1010A000D1FD47E0042C45D1E00103F0CBFD41E048
:1010B0002348005D02283DD12046FFF737FFA8BB3B
:1010C0002048005D401C1F4908550846005D052862
:1010D00030DB2CB900F0D0FE082003F0B3FD1FE098
:1010E000012C05D100F0CBFE102003F0ABFD17E082
:1010F000022C05D100F0C1FE202003F0A3FD0FE07B
:10110000032C06D100F0BCFE4FF4005003F09AFD12
:1011100006E0042C04D100F0B1FEE00103F092FDE2
:101120000020074908550749085503E0FFE700205C
:1011300004490855601CC4B2052CFFF638AF10BD39
:1011400014000020190000200000002004000020EE
:10115000080000200C0000201000002070B505469B
:1011600000240A4800880949498800FB01F600214B
:10117000084600F0B3FB00F0DBFC00BF03E02846AC
:1011800000F0D0FC641CB442F9D370BDA400002070
:101190001F498871898845F21052914210D138B99F
:1011A0004FF4F0711A4A11804FF4487151802EE0CB
:1011B0004FF44871164A11804FF4F071518026E0C7
:1011C0001349898845F21032914210D138B94FF451
:1011D000A0710F4A11804FF4F071518017E04FF465
:1011E000F0710B4A11804FF4A07151800FE038B9B3
:1011F0004FF4A071064A11804FF4F071518006E05F
:101200004FF4F071024A11804FF4A0715180704781
:10121000A40000202DE9FF4F85B081468A460020BA
:10122000049003900798A0EB09040898A0EB0A0526
:10123000CDF80890CDF804A0002C01DD012705E0D1
:101240000CB9002702E04FF0FF376442002D02DDA9
:101250004FF0010806E015B94FF0000802E04FF02A
:10126000FF386D42AC4201DD204600E028460646CC
:101270004FF0000B21E0019A91B2029A90B200F077
:1012800023F8049820440490039828440390049879
:10129000B04205DD0498801B049002983844029007
:1012A0000398B04205DD0398801B039001984044E9
:1012B00001900BF101001FFA80FB701C8345DADD01
:1012C00009B0BDE8F08F000070B504460D46294610
:1012D000204600F003FB00F02BFC0248008800F0E1
:1012E00021FC70BD1E0000202DE9F04104460D4692
:1012F00016461F462B46324629462046FFF78AFFF0
:101300003B46224629462046FFF784FF3B463246AD
:1013100039462046FFF77EFF3B4632462946304697
:10132000FFF778FFBDE8F08170B505460E4614461C
:101330003146284600F0D2FA00F0FAFB204600F0D1
:10134000F1FB70BD2DE9F05F05460E461746984645
:10135000DDF828A0781B401C1FFA80FB344613E000
:101360002146284600F0BAFA00F0E2FB4FF00009EF
:1013700006E0504600F0D6FB09F101001FFA80F9A3
:10138000D945F6DB601C84B24445E9DDBDE8F09F39
:1013900010B540F2026004F0EDF840F2036004F092
:1013A000E9F840F2056004F0E5F840F2066004F068
:1013B000E1F84FF4805303221021144803F0C4FCD9
:1013C000012303221021124803F0BEFC4CF6B37334
:1013D000032210210F4803F0B7FC4FF6807303225D
:1013E00010210D4803F0B0FC80210A4803F058FC9E
:1013F0004FF40061074803F053FC2021054803F037
:101400004FFC1021034803F04BFC10BD00080140C5
:10141000000C0140001401400018014010B5FFF716
:10142000B7FF4FF48051994803F03AFC0A20FFF7C8
:10143000D1FB4FF48051954803F030FC3220FFF788
:10144000C9FB4FF48051914803F02AFCC820FFF7F4
:10145000C1FBD32000F07EFB00F092F98C4988801C
:1014600000F08EF98A49888000F08AF988498880DE
:10147000084680884FF6FF7101EA00208449888081
:1014800000F07EF9824989880843814988800846AE
:10149000818880A003F0FCF87D48808845F21051D7
:1014A000884210D14FF43050794908814FF42850C8
:1014B00048814FF42C5088814FF4487008804FF4D5
:1014C000F0704880CCE07248808845F21031884244
:1014D0000DD12C206E4908812A2048812B2088813B
:1014E0004FF4A07008804FF4F0704880B8E02C20D2
:1014F000674908812A2048812B2088814FF4A070F9
:1015000008804FF4F07048800846808847F289715F
:1015100088423ED10021112000F012FB7820FFF715
:1015200059FB05213A2000F00BFB0C21B22000F002
:1015300007FB0C21B22000F003FB0021B72000F0D4
:10154000FFFA3D21BB2000F0FBFA2C21C02000F067
:10155000F7FA0121C22000F0F3FA1321C32000F0B2
:10156000EFFA2021C42000F0EBFA0F21C62000F092
:10157000E7FAA421D02000F0E3FAA121D02000F066
:10158000DFFA0021292000F0DBFA7820FFF722FBA8
:1015900066E03F48808847F29671884252D1002128
:1015A000112000F0CDFA7820FFF714FB0821362037
:1015B00000F0C6FA05213A2000F0C2FA0021B1205D
:1015C00000F0BEFA1821B12000F0BAFA0021B320D1
:1015D00000F0B6FA0221B32000F0B2FA0321B320E2
:1015E00000F0AEFA0821B32000F0AAFA0021B420DE
:1015F00000F0A6FA0221C02000F0A2FA0221C120C8
:1016000000F09EFA3221C52000F09AFA3221C7205C
:1016100000F096FA0821362000F092FA00213720D7
:1016200000F08EFA0021382000F08AFA00213920DB
:1016300000F086FA0021292000F082FA7820FFF7D6
:10164000C9FA0DE00021112000F07AFA7820FFF7A6
:10165000C1FA0021292000F073FA7820FFF7BAFAC6
:101660000020FFF795FD022000F0B8F801210F4897
:1016700003F016FB0020FFF771FD05484388028840
:1016800081880BA003F004F810BD000000080140A1
:10169000A40000205B4C43445D20526561642049F6
:1016A000443A203078253034580D0A00000C0140AF
:1016B0005B4C43445D20496E697420446F6E652C19
:1016C0002049443A203078253034582C205769641A
:1016D00074683A2025642C204865696768743A204C
:1016E00025640D0A0000000070B500254CF203735C
:1016F00003220421204803F027FB4FF680730322C6
:1017000004211E4803F020FB1B4803F083FB044622
:10171000A00B04F0030140EA810004F4807140EA68
:10172000411004F4007140EA411004F4806140EA81
:1017300041100543114803F06DFB0646F02000EA16
:10174000E6004FF4706101EAE60108434FF480516E
:1017500001EAE601084305434CF20373032210211A
:10176000054803F0F1FA4FF6807303221021034875
:1017700003F0EAFA284670BD001401400018014049
:101780001CB5002001904FF40061134803F088FA63
:101790008021114803F082FA10210F4803F07EFAED
:1017A0000020009005E000BF9DF80000401CC0B282
:1017B00000909DF800000A28F5DBFFF795FF0190E7
:1017C0001021054803F06CFA8021034803F068FA01
:1017D000BDF804001CBD0000001401402DE9F041DB
:1017E0000546002400273C488079012818D1082D9F
:1017F00015D2DFE805F00406080A0C0E10120625C3
:101800000DE007250BE0042509E0052507E001258B
:1018100005E0002503E0032501E0022500BF00BF2D
:10182000082D1CD2DFE805F00406090C0F1215186C
:1018300000BF14E044F0800411E044F040040EE0E6
:1018400044F0C0040BE044F0200408E044F06004DD
:1018500005E044F0A00402E044F0E00400BF00BF53
:101860001D48808845F21051884202D14FF45857E4
:1018700000E036271848808847F29671884205D0E4
:101880001548808847F28971884201D144F00804E4
:101890002146384600F054F904F0200068B10E48A3
:1018A00000880D494988884214DA0B480688408828
:1018B00009490880084646800CE007480088064928
:1018C0004988884206DD0448068840880249088025
:1018D00008464680BDE8F081A400002070B50446AB
:1018E0000D461E48808845F21051884220D11B4980
:1018F000488900F02FF9201200F0F6F817494989BD
:10190000491C88B200F026F9E0B200F0EDF8134966
:10191000888900F01FF9281200F0E6F80F4989893C
:10192000491C88B200F016F9E8B200F0DDF813E0C7
:101930000A49488900F00EF9201200F0D5F8E0B20B
:1019400000F0D2F80549888900F004F9281200F067
:10195000CBF8E8B200F0C8F870BD0000A400002089
:101960002DE9F05F80460C4616461F46A346A6F1B9
:101970002000C6B2102F3DD1002539E01E4800EBF3
:10198000061010F805904FF0000A2BE009F08000D7
:1019900030B11A48028821464046FFF7C5FC07E0EF
:1019A0000A9828B91648028821464046FFF7BCFC31
:1019B0004FEA49604FEA1069601C84B211484088C0
:1019C000A04201DCBDE8F09FA4EB0B00B84205D1BA
:1019D0005C4608F101001FFA80F806E00AF10100F8
:1019E00000F0FF0ABAF1080FD0DB00BF681CC5B2D7
:1019F000102DC3DB00BFE5E75A6000081E00002081
:101A000020000020A40000202DE9F84F04460D46D8
:101A100090469946DDE90A6704F0FF0A08EB0400E6
:101A20001FFA80F809EB05001FFA80F916E044451B
:101A300002DB5446A81985B24D4500DB14E00020B6
:101A400000903A78334629462046FFF789FF304612
:101A500006EBD07104EB61018CB27F1C38787E28D4
:101A600002DC38782028E2DA00BFBDE8F88F0000F9
:101A700070B504461A4803F0D9F906464CF20370D3
:101A8000864304F00300C4F3810141EA803004F48A
:101A9000005140EA611004F4804140EA611004F40E
:101AA000004140EA6110064331460D4803F0C2F997
:101AB0000C4803F0BBF905464FF68070854304F0EF
:101AC000F000C00004F4706140EAC10004F48051E9
:101AD00040EAC10005432946024803F0ABF970BD56
:101AE000001401400018014010B504464FF4006195
:101AF0000B4803F0D5F88021094803F0CFF82046C1
:101B0000FFF7B6FF2021064803F0C8F8202104485B
:101B100003F0C6F88021024803F0C2F810BD0000AF
:101B20000014014010B504462046FFF7DDFF10BD4C
:101B300010B50249088900F00DF810BDA40000207E
:101B400070B505460C46284600F004F82046FFF71D
:101B5000CBFF70BD10B504464FF400610B4803F095
:101B60009DF88021094803F099F82046FFF780FF8F
:101B70002021064803F092F82021044803F090F851
:101B80008021024803F08CF810BD000000140140D1
:101B900010B54FF48071064803F040F90446C4F1D3
:101BA0000100C2B24FF48071014803F07BF810BD10
:101BB0000008014010B54021054803F02FF9044604
:101BC000C4F10100C2B24021014803F06BF810BD1E
:101BD0000010014010B58021054803F01FF90446AC
:101BE000C4F10100C2B28021014803F05BF810BDCE
:101BF0000010014000BFFEE77047000000F01F0228
:101C000001219140024A430942F823107047000025
:101C100080E200E010B588B00446002007900690EE
:101C20000590049003906E48007830B101286CD084
:101C3000022875D0032874D198E0AA2C03D1012082
:101C40006749087060E00A2C50D100216548664A57
:101C50001278815406AB07AA64A1FEF79FFA022806
:101C60000CD1644907980870634906980870634866
:101C7000007840F001006149087033E005AA60A1D6
:101C80005848FEF78BFA012809D15F49059808707A
:101C90005A48007840F002005849087022E003AA30
:101CA00004A9504800F068FBE0B101AB02AABDF8FE
:101CB0000C10BDF8100000F057FABDF808005349A9
:101CC0000880BDF80400524908804C48007840F074
:101CD00004004A490870BDF80410BDF8080000F07F
:101CE00017FB00BF0020404908700DE00D2C0BD001
:101CF0003D4800781E2807DA3B4801780078401CF0
:101D0000394A10703748445466E0062C0AD14148DD
:101D1000047000204049087002203149087012E028
:101D200012E055E0AA2C03D101202D4908700AE0E9
:101D30003A49AA2003F078FA3849204603F074FAA9
:101D400000202749087047E0334801780078401C9C
:101D5000314A107032484454104600782D490978B1
:101D6000884202DB03201E49087035E0552C25D13E
:101D70002B4800782B49087029484078487028483B
:101D8000807888702648C078C87025480079888097
:101D90002348407988710120487223480A6802600C
:101DA0004A684260098901811448007840F00800BF
:101DB0001249087000200A49087008E0AA2C03D1D3
:101DC00001200749087002E000200549087003E07F
:101DD00000200349087000BF00BF08B010BD00001C
:101DE0008F0000203A22002092000020502C256411
:101DF0002C25640082000020830000208A0000203F
:101E0000472C25640000000084000020860000208C
:101E10008800002091000020900000209400002005
:101E200030220020FC21002006220020704710B53F
:101E3000FFF7D0FE10BD000010B503A002F028FC93
:101E400001F038FB10BD00004C4C20505553482089
:101E5000444F574E0D0A000010B501F0D9FA10BDDD
:101E600010B501F0B9FB10BD10B501F0E1FB10BDDC
:101E700010B501F0B3FB10BD704770477047704755
:101E800070470146C88808B9012070470020FCE768
:101E900070B504460025012221460348FEF776FE70
:101EA000C5B2284670BD00005C22002070B5044613
:101EB0000D462A4621460248FEF768FEC0B270BDB4
:101EC000F0190020F0B50446DDE905561148007A06
:101ED000F0B114B10F480078207011B10D4840786E
:101EE000087012B10B488078107013B10948C0789F
:101EF000187025B1074890ED010A85ED000A16B16A
:101F00000548006830600020024F38720120F0BDA3
:101F10000020FCE7BC1900206C00002010B54FF435
:101F200048611B48FEF727F94FF448611948FEF74E
:101F300022F90020184908801849088018490880AB
:101F4000184908701849087018490870184908702D
:101F50001848002101604160018100201649087085
:101F6000164908701648002101604160018115483A
:101F700001604160018114480160416001810020DD
:101F800012490860124908601249086010BD00003B
:101F9000BC0000203C0D00206400002066000020F2
:101FA000680000206A0000206B0000207000002004
:101FB00071000020C819002072000020730000206A
:101FC000D2190020DC190020E61900206C00002046
:101FD0007400002078000020024908780021014A9E
:101FE000117070476B0000202DE9F04F8BB000207E
:101FF0000A900024002505908346049052480078FA
:1020000010B90BB0BDE8F08F00204F4908704FF4B5
:10201000FA724E4801884E4803F0BAFC18B101200C
:102020004C490870EDE70AAB4FF4FA724748018853
:10203000474803F00FFB0646002E77DDBDF8280069
:10204000002873DD06A807A908AA09ABCDE900326C
:10205000CDE90210BDF828303C4802883C493E4892
:1020600003F03EFCDDE90810A0EB010ADDE90821E0
:10207000881800EBD0714F10DDE90610A0EB0108C5
:10208000DDE90621881800EBD0714FEA6109B8F14B
:10209000000F53DD002F51DDB9F1000F4EDD0AFBBB
:1020A00009F04FF47A71484308FB07F190FBF1F413
:1020B000B4F5C87F0EDB40F2DC5084420ADC04EB4E
:1020C000C40000EB04104FF47A7190FBF1F0C0F102
:1020D0006E0500E00025642D00DD6425462D01DA43
:1020E00005B14625E8B20590642008FB00F090FB9E
:1020F000F9F000F0FF0B64200AFB00F090FBF7F012
:10210000C0B20490BBF1630F01DD4FF0630B049884
:10211000632801DD63200490A0B200905A46314646
:10212000DDE9043003F0A2FC08E0FFE700200B49E2
:10213000087048700A4908700A4908700120074968
:10214000087200BF5DE700006A0000206400002004
:102150003C0D00206B000020BC000020BC190020BA
:1021600072000020710000202DE9FC4106460F4658
:1021700014461D466B4601AA3946304603F046FC1C
:102180000CB1019820800DB1009828801B491C4A91
:102190001288019841F822001A49194A12880098B9
:1021A00041F8220016480088401C4FF4487190FB0B
:1021B000F1F201FB12001249088013480088B0F5C3
:1021C000487F04DA10480088401C0F4908800F48F7
:1021D0000088401C0D4908800B480088B0F5FA7F44
:1021E0000ADB08460088B0F5FA7F05DB01200849C4
:1021F0000870002005490880BDE8FC81BC00002073
:10220000640000203C0D00206600002068000020D3
:102210006A000020704710B500F06EF810BD000095
:1022200010B51048006840F470000E4908600E4870
:10223000006840F001000C49086000204860C86256
:102240000846006809490840074908604FF41F0024
:1022500088600846006820F48020086003F002FDD2
:1022600010BD000088ED00E000100240FFFFF6FE08
:1022700010B501210B4803F0C0FD012803D1012155
:10228000084803F0B7FD08480088401C064908804C
:1022900008460088022804DB00200880012003494A
:1022A000087010BD000400407E0000207C0000206B
:1022B00010B501210D4803F0A0FD012803D1012133
:1022C0000A4803F097FD0A480088401C00B20849FC
:1022D00008800846B0F90000B0F57A7F04DB0020E2
:1022E000088001200349087010BD0000000C004068
:1022F000800000207D0000200448006820B10348D1
:102300000068401E0149086070470000A0000020DE
:1023100070B504460D462A46214602A002F0B8F9DF
:1023200070BD000025752C25750D0A000148007848
:10233000704700008D0000200C490D4A1278885427
:102340000B490978491C0A4A11701146097820295D
:1023500001DB0021117007490978202904DA0549B9
:102360000978491C034A11707047000010220020B0
:102370008B0000208C0000202DE9F04704460E461B
:1023800017464FF00008C1460CB106B117B900203E
:10239000BDE8F0872046FDF7F9FE092801D00020AE
:1023A000F6E720792C2801D00020F1E7002520E075
:1023B000605D302802DB605D392801DD0020E7E741
:1023C000681D205C302803DB681D205C392801DD96
:1023D0000020DDE7605D303808EB880100EB410844
:1023E000681D205C303809EB890100EB4109681C4D
:1023F000C5B2042DDCDBB8F5805F02D2B9F5805F91
:1024000001D30020C4E7A6F80080A7F800900120BF
:10241000BEE7000038B54FF4007403E09DF80000FB
:10242000FFF7F8FB01216846FFF740FD18B1201EB9
:10243000A4F10104F2D10548007828B10020034935
:10244000087003A002F024F938BD00008E000020BF
:10245000554152545F52585F4F564552464C4F5764
:102460000D0A00007CB505460E46AB208DF8000035
:1024700002208DF801008DF802508DF80360552080
:102480008DF8040000240DE01DF80410074803F047
:1024900018FD00BF0721054803F065FD0028F9D0AD
:1024A000601CC4B2052CEFDB7CBD00000044004082
:1024B00008B1012100E00021014A117070470000BD
:1024C0008D0000200EB500F049FD40F64100204986
:1024D000088020A000F0A6FA4FF6FF7020A140F27D
:1024E0005D52B423CDE900210290F022642128201E
:1024F00000F08AFC01F074F94FF4FC601C4908807C
:102500001CA010210B46B422CDE90010E621412089
:10251000FFF77AFA4FF478401549088019A0102186
:102520000B46B422CDE90010FA214120FFF76CFAE6
:102530004BF6F7500E49088016A010210B46B42226
:10254000CDE900104FF4DC714620FFF75DFA0EBDB7
:1025500020000020416C61726D2053657400000002
:10256000416C61726D2050726F66696C650000008D
:102570001E0000204C4C3A2050726F66696C65203A
:102580002B000000524C3A2050726F66696C652037
:102590002D0000005072657373204241434B20743C
:1025A0006F204578697400000EB500F0D7FC40F646
:1025B00041002049088020A000F034FA002021A129
:1025C00040F2FF729623CDE900210290C8227821C3
:1025D0003C2000F019FC01F09DF94FF4FC601D490E
:1025E00008801DA010210B46C822CDE90010D22181
:1025F0005520FFF709FA4FF47840164908801AA0D1
:1026000010210B46C822CDE90010E6215520FFF726
:10261000FBF94BF6F7500F49088018A010210B4624
:10262000C822CDE900104FF4DC714620FFF7ECF929
:102630000EBD0000200000204175746F204C6967BA
:10264000687400004C696768742053776974636824
:10265000000000001E00002055503A20456E6162C7
:102660006C6520284F4E2900444E3A20446973611E
:10267000626C65284F464629000000005072657361
:1026800073204241434B20746F20457869740000E9
:102690002DE9FC4704460D4616461F46DDE90B9A18
:1026A000DDF8288041F2A2000090E81983B2A01959
:1026B00082B229462046FEF745FE46F66D3029498E
:1026C0000880E81983B2A01982B229462046FEF795
:1026D0000BFE2448A0F8008005EB070CACF1010CC0
:1026E0001FFA8CF304EB060CACF1010C1FFA8CF210
:1026F00005F1010C1FFA8CF104F1010C1FFA8CF0AA
:10270000FEF7F2FD05F1120C1FFA8CF304EB060C38
:10271000ACF1020C1FFA8CF205F1020C1FFA8CF1DD
:1027200004F1020C1FFA8CF0CDF80080FEF70AFECF
:102730000C48A0F800900C48A0F800801020A6F1EA
:102740000C039AB22B1D99B204F10803CDE9000ADB
:1027500098B21023FFF758F940F64100024908806B
:10276000BDE8FC871E000020200000200EB500F010
:10277000F5FB40F641002149088021A000F052F904
:102780004FF6FF7021A140F25D52C823CDE9002130
:1027900002904FF4827250211E2000F035FB01F0B0
:1027A0006BFA4FF4FC601C4908801CA010210B46FA
:1027B000B422CDE90010F0213720FFF725F94FF4BE
:1027C00078401549088019A010210B46B422CDE9A4
:1027D00000104FF482713720FFF716F94BF6F750CF
:1027E0000D49088015A010210B46B422CDE9001038
:1027F0004FF4DC714620FFF707F90EBD20000020E2
:102800004461746120526576696577005265766926
:1028100065772050616765001E0000204C4C3A200F
:1028200050616765204E657874000000524C3A2074
:1028300050616765205072657600000050726573C4
:1028400073204241434B20746F2045786974000027
:102850000EB500F083FB40F641002049088020A01F
:1028600000F0E0F84FF6FF7020A140F25D52962391
:10287000CDE900210290C82278213C2000F0C4FA62
:1028800001F0E0FA4FF4FC601C4908801CA0102104
:102890000B46B422CDE90010D2215520FFF7B4F841
:1028A0004FF478401549088018A010210B46B42237
:1028B000CDE90010E6215520FFF7A6F84BF6F750BA
:1028C0000E49088014A010210B46B422CDE9001057
:1028D0004FF4DC714620FFF797F80EBD2000002072
:1028E0004574434F32205365740000004574434FD4
:1028F0003220537769746368000000001E000020D6
:102900004C4C3A20456E61626C650000524C3A2096
:1029100044697361626C6500507265737320424153
:10292000434B20746F204578697400000EB500F0A9
:1029300015FB40F641002449088024A000F072F8FD
:10294000002025A140F2FF729623CDE900210290DC
:10295000C82278213C2000F057FA4FF6FF70224938
:10296000088040F641001849088001F0A3FA4FF4AE
:10297000FC601D4908801DA010210B46C822CDE92E
:102980000010D2215520FFF73FF84FF47840164948
:1029900008801AA010210B46C822CDE90010E621BC
:1029A0005520FFF731F84BF6F7500F49088018A073
:1029B00010210B46C822CDE900104FF4DC714620EF
:1029C000FFF722F80EBD00002000002046696C745D
:1029D000657220536574000046696C7465722053FB
:1029E00077697463680000001E00002055503A208B
:1029F000456E61626C6520284F4E2900444E3A2096
:102A000044697361626C65284F46462900000000E6
:102A10005072657373204241434B20746F20457898
:102A2000697400001CB5044641F6E300272340F218
:102A30003F12002100900846FEF784FC4FF6FF701D
:102A40001749088041F6E300164908801020034624
:102A500078220C21CDE900040846FEF7D5FF12A02C
:102A600010210B466C22CDE900100C21C820FEF786
:102A7000CBFF40F641000B49088040F25D50084909
:102A80000880282340F23F1219460020FEF7C2FBBF
:102A9000292340F23F1219460020FEF7BBFB1CBD64
:102AA0001E0000202000002049443A3031204F4EC3
:102AB0004C494E450000000000B589B000F04EFAC8
:102AC00040F641009849088098A0FFF7ABFF99A015
:102AD000002140F2FF724623CDE9002102904FF41D
:102AE000967232210A20FFF7D3FD94A000214FF403
:102AF000FC624623CDE9002102904FF496728221B8
:102B00000A20FFF7C5FD90A000214FF6E072462392
:102B1000CDE9002102904FF49672D2210A20FFF7EE
:102B2000B7FD8CA04FF6FF7140F25D522823CDE92E
:102B3000002102904FF496724FF491710A20FFF732
:102B4000A7FD86A04FF6FF7140F25D528223CDE9CA
:102B5000002102904FF496724FF4AA710A20FFF7F9
:102B600097FD40F2FF708249088041F2A2006E4951
:102B700008808048007820B97FA104A801F098FD62
:102B800005E07C4802787FA104A801F091FD04A82B
:102B900010210B46C822CDE900104E211820FEF767
:102BA00033FF4FF4FC607249088041F2A2005E4995
:102BB00008807048407820B975A104A801F078FD1C
:102BC00005E06C48427875A104A801F071FD04A8E5
:102BD00010210B46C822CDE900109E211820FEF7D7
:102BE00013FF4FF6E0706249088041F2A2004E499F
:102BF00008806048807838B95E48C07820B96AA1FA
:102C000004A801F055FD06E05A488378C2786AA10D
:102C100004A801F04DFD04A810210B46DC22CDE9EB
:102C20000010EE211820FEF7EFFE4FF6E07050493D
:102C3000088041F2A2003C4908804E48828862A187
:102C400004A801F035FD04A810210B465422CDE95B
:102C500000104FF49B711820FEF7D6FE48F230406A
:102C60004349088041F2A2002F4908804148037A75
:102C7000C27958A104A801F01BFD04A810210B463D
:102C80006022CDE900104FF49B717820FEF7BCFE66
:102C900048F230403649088041F2A20022490880BB
:102CA00034488079FF2804D14FA104A801F000FD29
:102CB00005E0304882794FA104A801F0F9FC04A88E
:102CC00010210B464022CDE900104FF49B71F020FB
:102CD000FEF79AFE4FF478402549088041F2A200A1
:102CE0001149088046A010210B466422CDE900104E
:102CF0004FF4AF711820FEF787FE1F201C49088093
:102D000040A010210B467822CDE900104FF4AF719E
:102D10005A20FEF779FE01F0C7FB40F64100024958
:102D2000088009B000BD0000200000204D6F6E69D2
:102D3000746F720053504F320000000050756C7376
:102D40006520526174650000506572667573696F25
:102D50006E0000005369676E616C000050756C7303
:102D600065205761766528302D34303935290000CB
:102D70001E000020B200002053504F323A202D2D6B
:102D80002020000053504F323A20253364200000A9
:102D900050523A2020202D2D2020000050523A2061
:102DA0002025336420200000504920523A2D2D2048
:102DB000493A2D2D20000000504920523A25326416
:102DC00020493A2532642000523A202564202020F0
:102DD0002000000050574D20523A256420493A25E2
:102DE00064202020000000004761696E3A202D2DEC
:102DF000202000004761696E3A20256420202000D1
:102E000052454400495200002DE9FC4704460D4656
:102E100016461F46DDE90B9ADDF8288041F2A20034
:102E20000090E81983B2A01982B229462046FEF725
:102E300089FA2848A0F80080E81983B2A01982B264
:102E400029462046FEF750FA05EB070CACF1010CC1
:102E50001FFA8CF304EB060CACF1010C1FFA8CF298
:102E600005F1010C1FFA8CF104F1010C1FFA8CF032
:102E7000FEF73AFA05F1180C1FFA8CF304EB060C76
:102E8000ACF1020C1FFA8CF205F1020C1FFA8CF166
:102E900004F1020C1FFA8CF0CDF80080FEF752FA14
:102EA0000C48A0F800A00C48A0F800801020A6F163
:102EB00014039AB26B1D99B204F10A03CDE900091B
:102EC00098B21023FEF7A0FD40F6410002490880A9
:102ED000BDE8FC871E000020200000200EB500F099
:102EE0003DF840F641001249088012A0FFF79AFD14
:102EF000002012A140F2FF729623CDE9002102903A
:102F0000DC2278213220FFF77FFF01F0B7F84BF683
:102F1000F7500C4908800CA010210B46C822CDE9BF
:102F200000104FF4DC714620FEF76EFD0EBD000070
:102F300020000020522043616C69620052205661DB
:102F40006C7565001E00002050726573732042414D
:102F5000434B20746F20457869740000F8B5002455
:102F600021E02046E11704EB1171091108318EB2FE
:102F70003F2E00DD3F260F2094FBF0F00A3087B291
:102F80001F2F00DD1F274FF4006040EA4610384332
:102F900085B2234640F23F12214600200095FEF7FD
:102FA000D1F9601C84B2B4F5F07FDADBF8BD000023
:102FB0007CB505460E4605EB85003C2101EBC004BF
:102FC000FEB142F2B820009004F11A0083B2A01FB3
:102FD00081B240F231120F20FEF7B4F94FF6FF70C4
:102FE0003049088042F2B8202F49088004F11A00C5
:102FF00083B2A01F81B240F231120F20FEF774F9A4
:1030000022E041F2A200009004F11A0083B2A01F56
:1030100081B240F231120F20FEF794F946F66D307E
:103020002049088041F2A2001F49088004F11A00DB
:1030300083B2A01F81B240F231120F20FEF754F983
:103040004FF6FF7017490880184850F825001021E6
:103050000B46C822CDE9001021461E20FEF7D4FC05
:103060005EB113A010210B461422CDE900102146B9
:103070004FF48C70FEF7C8FC12E046F66D3009493B
:10308000088041F2A200084908800AA010210B46DE
:103090001422CDE9001021464FF48C70FEF7B4FCE9
:1030A0007CBD00001E000020200000204000002009
:1030B0003E000000200000007CB517480588FFF79F
:1030C0004DFF16A0FFF7AEFC00240CE01648007878
:1030D000844201D1012000E0002001462046FFF794
:1030E00067FF601CC4B2092CF0DB4BF6F7500F49A8
:1030F000088040F64100084908800DA010210B46C9
:103100004FF48C72CDE900104FF4DC711420FEF7FF
:103110007BFC014805807CBD200000205365747451
:10312000696E6773000000002D0000201E00002063
:103130004C4C2F524C3A53656C204C483A456E74B7
:1031400065722052483A4261636B00000EB5FFF78A
:1031500005FF40F641002049088020A0FFF762FCEF
:10316000002022A140F2FF729623CDE900210290B7
:10317000C82278213C20FFF747FE00F00BFF4FF4F8
:10318000FC601D4908801DA010210B46A022CDE93E
:103190000010D2215520FEF737FC4FF47840164935
:1031A00008801AA010210B46A022CDE90010E621CC
:1031B0005520FEF729FC4BF6F7500F49088017A061
:1031C00010210B46C822CDE900104FF4DC714620D7
:1031D000FEF71AFC0EBD00002000002053704F3295
:1031E000204761696E205365740000004761696E75
:1031F000204C6576656C00001E00002055503A207A
:10320000496E63726561736500000000444E3A20A8
:1032100044656372656173650000000050726573F8
:1032200073204241434B20746F204578697400003D
:103230000EB5FFF793FE40F641002049088020A01C
:10324000FFF7F0FB4FF6FF7020A140F25D52B42370
:10325000CDE900210290F02264212820FFF7D4FD5F
:1032600000F04EFF4FF4FC601C4908801CA01021A8
:103270000B46B422CDE90010E6214120FEF7C4FB45
:103280004FF478401549088019A010210B46B4224C
:10329000CDE90010FA214120FEF7B6FB4BF6F750BE
:1032A0000E49088016A010210B46B422CDE900106B
:1032B0004FF4DC714620FEF7A7FB0EBD2000002076
:1032C00053797374656D205365740000537973747A
:1032D000656D20436F6E6669670000001E00002068
:1032E0004C4C3A204272696768746E6573732B00A8
:1032F000524C3A204272696768746E6573732D0090
:103300005072657373204241434B20746F2045789F
:10331000697400000EB5FFF721FE40F64100204918
:10332000088020A0FFF77EFB4FF6FF7020A140F23F
:103330005D529623CDE900210290C82264213C20F1
:10334000FFF762FD00F050FF4FF4FC601B4908805E
:103350001BA010210B46B422CDE90010C32155203B
:10336000FEF752FB4FF478401449088017A0102153
:103370000B46B422CDE90010D7215520FEF744FBBF
:103380004BF6F7500D49088013A010210B46B422CC
:10339000CDE900104FF4DC714620FEF735FB0EBD81
:1033A00020000020576F726B204D6F646500000095
:1033B0004D6F64652053656C656374001E000020CA
:1033C0004C4C3A204D6F6E69746F7200524C3A202B
:1033D000536572766963650050726573732042416C
:1033E000434B20746F2045786974000010B540F697
:1033F0004100FDF7B3FE0020034908700120034996
:10340000087000F0AFF910BD2C0000202E00002045
:1034100010B52548007810B101283FD109E00120FE
:1034200021490870002021490870012020490870B6
:1034300035E01E48007809282AD2DFE800F00509A7
:103440000D1115191D21250002201749087020E0D3
:103450000320154908701CE004201349087018E087
:1034600005201149087014E006200F49087010E08B
:1034700007200D4908700CE008200B49087008E08F
:1034800009200949087004E00A200749087000E093
:1034900000BF00BF01200649087000E000BF00BF68
:1034A00000F060F910BD00002C0000202D0000206D
:1034B0002E00002010B53E4800780B2874D2DFE8BB
:1034C00000F07306373D1B27732D494F62003948C2
:1034D000007800280FDD374804780078401E354911
:1034E000087000212046FFF763FD01213148007874
:1034F000FFF75EFD00BF58E000210220FEF7B2FF9B
:103500002D488079401C2C49887100F043FD4CE027
:103510000120FEF7CDFF00F0CDFC46E00120274959
:10352000087001210520FEF79DFF00F0F3F93CE053
:1035300000202349087000F057FE36E0214800784B
:10354000022804DA1F480078401C1E49087000F069
:1035500047F92AE001201C49087000F073FC24E0C0
:103560001A480078052804DA18480078401C1749E2
:10357000087016480078032802DB012014490870FF
:1035800000F0BEFD11E013480078022805DA11486A
:103590000078401C0F49087002E000200D490870B7
:1035A00000F06AFB01E0FFE700BF00BF10BD0000B4
:1035B0002C0000202D000020B20000202F00002051
:1035C00030000020310000203200002033000020B5
:1035D00034000020350000207047000010B512486C
:1035E00000780B2817D2DFE800F016060A0B0C0D46
:1035F0000E0F1011120000200B4908700CE000BFE4
:1036000000BF00BF00BF00BF00BF00BF00BF012060
:103610000549087000E000BF00BF012003490870A1
:1036200000F0A0F810BD00002C0000202E000020AB
:1036300010B5404800780B2878D2DFE800F0770614
:103640003B411B2B77314D5366003B4800780828DF
:103650000FDA394804780078401C37490870002197
:103660002046FFF7A5FC012133480078FFF7A0FCB6
:1036700000BF5CE000210320FEF7F4FE2F488079B4
:10368000002804DD2D488079401E2C49887100F007
:1036900081FC4CE00020FEF70BFF00F00BFC46E045
:1036A00000202749087000210520FEF7DBFE00F00E
:1036B00031F93CE001202349087000F095FD36E027
:1036C00021480078002804DD1F480078401E1E496C
:1036D000087000F085F82AE000201C49087000F00E
:1036E000B1FB24E01A480078012804DD184800786E
:1036F000401E1749087016480078032802DA002097
:103700001449087000F0FCFC11E013480078002810
:1037100006DD11480078401E0F49087003E005E0FF
:1037200002200D49087000F0A7FA00E000BF00BFBA
:1037300010BD00002C0000202D000020B200002051
:103740002F00002030000020310000203200002037
:1037500033000020340000203500002010B500F0B8
:1037600001F810BD10B51C48007800B910BD1B4809
:1037700000780B2828D2DFE800F006090C0F12159C
:10378000181B1E212400FFF797F91EE0FFF794FC99
:103790001BE0FFF7BFFD18E0FEF794FE15E0FFF712
:1037A000D5FC12E0FFF7C2F80FE0FFF797FB0CE043
:1037B000FEF7FAFE09E0FFF74BF806E0FFF738FDE9
:1037C00003E0FEF7D3FF00E000BF00BF0020024986
:1037D000087000BFCAE700002E0000202C00002067
:1037E00070B58AB03048007818B95A262D24822541
:1037F0000AE02D480078012803D15C2632248C256C
:1038000002E05E26372496254FF6FF702749088090
:1038100040F64100264908802348007850B925A089
:1038200010210B46B422CDE900108C214120FEF777
:10383000EBF818E01C48007801280AD122A01021DA
:103840000B46B422CDE900108C214120FEF7DCF8B4
:1038500009E022A010210B46B422CDE900108C21F2
:103860004120FEF7D1F8324621A102A800F020FF46
:1038700002A810210B46B422CDE90010A821412056
:10388000FEF7C2F82B4622461DA102A800F010FF49
:1038900002A810210B46B422CDE90010BE21412020
:1038A000FEF7B2F80AB070BD310000201E00002003
:1038B0002000002050726F66696C653A204C6F776B
:1038C000202020200000000050726F66696C653A6D
:1038D000204D656469756D200000000050726F66B0
:1038E000696C653A20486967682020200000000064
:1038F00053704F32204C6F773A20256420202000EF
:103900004852204D696E2F4D61783A25642F256409
:10391000000000001CB54FF6FF700F49088040F60C
:1039200041000E4908800E48007850B10DA01021CA
:103930000B46A022CDE90010AA215020FEF764F822
:1039400009E00CA010210B46A022CDE90010AA210D
:103950005020FEF759F81CBD1E000020200000205A
:103960002F00002043757272656E743A204F4E200E
:103970002000000043757272656E743A204F46460F
:103980002000000030B587B004460CB907B030BD48
:10399000E07928B99248C07910B19148C079E071B6
:1039A000207A28B98E48007A10B18D48007A2072AA
:1039B000A079FF2806D18A488079FF2802D088485C
:1039C0008079A0718748007800287DD1002584483F
:1039D00000782178884200D00125814840786178BC
:1039E000884200D001257E488078A178884200D0A6
:1039F00001257B48C078E178884200D001257848CD
:103A00008088A188884200D001257548C079E17975
:103A1000884200D001257248007A217A884200D07D
:103A200001256F488079A179884200D001253DB9F0
:103A30006B48216801606168416021890181A5E7C7
:103A400040F2FF706849088041F2A200674908808F
:103A5000207820B966A102A800F02AFE04E02278AE
:103A600066A102A800F024FE02A810210B46C8227D
:103A7000CDE900104E211820FDF7C6FF4FF4FC6081
:103A80005949088041F2A20058490880607820B95D
:103A90005DA102A800F00CFE04E062785DA102A81E
:103AA00000F006FE02A810210B46C822CDE9001046
:103AB0009E211820FDF7A8FF4FF6E0704A490880C4
:103AC00041F2A200494900E072E00880A07830B9D4
:103AD000E07820B952A102A800F0EAFD05E0A37841
:103AE000E27853A102A800F0E3FD02A810210B46E2
:103AF000DC22CDE90010EE211820FDF785FF4FF6FE
:103B0000E0703949088041F2A20038490880A28853
:103B10004BA102A800F0CCFD02A810210B465422B4
:103B2000CDE900104FF49B711820FDF76DFF48F2AE
:103B300030402D49088041F2A2002C490880237AA8
:103B4000E27942A102A800F0B3FD02A810210B46C1
:103B50006022CDE900104FF49B717820FDF754FFEF
:103B600048F230402049088041F2A2001F490880F5
:103B7000A079FF2804D13AA102A800F099FD04E041
:103B8000A2793AA102A800F093FD02A810210B46E9
:103B90004022CDE900104FF49B71F020FDF734FF77
:103BA0000F4821680160616841602189018115E049
:103BB0000B482168016061684160218901810948E1
:103BC0000078062802D00A2806D102E000F056FA52
:103BD00003E000F051F800E000BF00BF00BFD5E6F1
:103BE000B20000202C0000201E0000202000002039
:103BF00053504F323A202D2D2020000053504F3289
:103C00003A2025336420000050523A2020202D2DE8
:103C10002020000050523A2020253364202000004C
:103C2000504920523A2D2D20493A2D2D20000000D8
:103C3000504920523A25326420493A253264200006
:103C4000523A2025642020202000000050574D20AB
:103C5000523A256420493A256420202000000000C3
:103C60004761696E3A202D2D202000004761696E62
:103C70003A2025642020200000B58BB04FF6FF705D
:103C80004849088040F64100474908804748007885
:103C900010B1012857D12AE045A010210B46B422CB
:103CA000CDE9001078213220FDF7AEFE44480278BD
:103CB00044A103A800F0FCFC03A810210B46B42289
:103CC000CDE9001094213220FDF79EFE3C48427859
:103CD00040A103A800F0ECFC03A810210B46B4227D
:103CE000CDE90010AA213220FDF78EFE57E03DA05D
:103CF00010210B46B422CDE9001078213220FDF7C7
:103D000083FE2F488378C2783AA103A800F0D0FC44
:103D100003A810210B46B422CDE9001094213220D3
:103D2000FDF772FE2648828836A103A800F0C0FC89
:103D300003A810210B46B422CDE90010AA2132209D
:103D4000FDF762FE2BE033A010210B46B422CDE933
:103D5000001078213220FDF757FE1948037AC27906
:103D600030A103A800F0A4FC03A810210B46B42244
:103D7000CDE9001094213220FDF746FE10488279EB
:103D80002CA103A800F094FC03A810210B46B42238
:103D9000CDE90010AA213220FDF736FE00BF00BF9A
:103DA0000BB000BD1E0000202000002035000020C8
:103DB0005061676520313A2053504F322F505200E6
:103DC000B200002053504F323A202564202020209A
:103DD0000000000050523A2025642020202020209E
:103DE000000000005061676520323A2050492F5290
:103DF00000000000504920523A256420493A2564C9
:103E000020202000523A202564202020202020203D
:103E1000202000005061676520333A2044726976A3
:103E20006500000050574D20523A256420493A253C
:103E3000642020004761696E3A20256420202020FC
:103E4000202020001CB54FF6FF700F49088040F677
:103E500041000E4908800E48007850B10DA0102195
:103E60000B46AA22CDE9001011465020FDF7CCFDEB
:103E700009E00CA010210B46AA22CDE90010114642
:103E80005020FDF7C1FD1CBD1E00002020000020B9
:103E90003200002043757272656E743A204F4E20D6
:103EA0002020000043757272656E743A204F4646BA
:103EB000202000001CB54FF6FF700F49088040F627
:103EC00041000E490880FEF731FA50B10CA01021D4
:103ED0000B46A022CDE90010AA215020FDF794FD49
:103EE00009E00BA010210B46A022CDE90010AA2169
:103EF0005020FDF789FD1CBD1E0000202000002081
:103F000043757272656E743A204F4E202000000097
:103F100043757272656E743A204F46462000000069
:103F200010B588B00446144884711448007810B164
:103F300004281DD119E048F230401149088041F2AF
:103F4000A200104908800C4882790FA103A800F054
:103F5000AFFB03A810210B464022CDE900104FF41F
:103F60009B71F020FDF750FD03E000F013F800E036
:103F700000BF00BF08B010BDB20000202C00002020
:103F80001E000020200000204761696E3A20256451
:103F90002020200000B58BB04FF6FF700B49088041
:103FA00040F641000A4908800A4882790AA103A81C
:103FB00000F07EFB03A810210B46A022CDE90010E3
:103FC000AA215020FDF720FD0BB000BD1E000020EF
:103FD00020000020B200002043757272656E7420CC
:103FE0004C6576656C3A2025642020200000000096
:103FF00030B587B004460D4614B90DB907B030BDD1
:104000001548C47105721548007810B106281ED1F4
:104010001AE048F230401249088041F2A2001149EA
:1040200008800D48037AC2790FA102A800F040FB76
:1040300002A810210B466022CDE900104FF49B71BD
:104040007820FDF7E1FC03E000F018F800E000BF85
:1040500000BF00BFD2E70000B20000202C0000200B
:104060001E0000202000002050574D20523A2564A9
:1040700020493A25642020200000000000B58BB0C4
:104080004FF6FF701449088040F64100134908803C
:104090001348828813A103A800F00AFB03A810218B
:1040A0000B467822CDE90010AA216420FDF7ACFC74
:1040B0000B48037AC2790EA103A800F0F9FA03A80D
:1040C00010210B46A022CDE90010C3214620FDF7A8
:1040D0009BFC0BB000BD00001E0000202000002053
:1040E000B2000020523A2025642020202000000049
:1040F00050574D20523A256420493A25642000004B
:1041000000B58BB04FF6FF701749088040F64100AC
:10411000164908801648027816A103A800F0C8FACC
:1041200003A810210B46B422CDE90010A0214120A4
:10413000FDF76AFC1448007850B114A010210B461A
:10414000B422CDE90010BC214120FDF75DFC09E05F
:1041500012A010210B46B422CDE90010BC21412051
:10416000FDF752FC0BB000BD1E0000202000002017
:10417000330000204272696768746E6573733A2079
:104180002564202020000000340000204B657920A9
:10419000426565703A204F4E200000004B65792043
:1041A000426565703A204F464600000070B50446EF
:1041B0000D460B48007880B90A480078401C094930
:1041C000087008460078042800DA70BD0020054910
:1041D00008702946204600F07FF800BFF5E7000090
:1041E0002C0000203E0000201CB54FF6FF700F4948
:1041F000088040F641000E4908800E48007850B90A
:104200000DA010210B46AA22CDE9001096215020C6
:10421000FDF7FAFB09E00DA010210B46AA22CDE91B
:10422000001096215020FDF7EFFB1CBD1E00002062
:10423000200000203000002043757272656E743AD1
:10424000204D6F6E69746F722000000043757272AA
:10425000656E743A205365727669636520000000CC
:1042600030B50146592318480088814201DA1648C2
:10427000018016480088814201DD144801801448FD
:104280000088814201DD124801881248008881427D
:1042900001DA104801880E4800880E4C2488A0429C
:1042A00001D15A080AE00B480088081A5843084C04
:1042B0002488084D2D88641BB0FBF4F203F5B97017
:1042C000801A80B230BD00002400002026000020AB
:1042D0002A000020280000202DE9F84381460F46DF
:1042E0006848007820B900F0DFF8012065490870BF
:1042F0006548008800284CD164490988644A1288BE
:10430000891A0A2291FBF2F188B20A2800DA0A20FF
:104310005F490988814205DD5D490988091A5D4ABE
:10432000118002E000215B4A11805849098801444C
:10433000594A118011460988B1F5805F02DB40F6C9
:10434000FF71118054490988524A1288891A32290A
:1043500017DA514B1B88DFF83CC1BCF800C003EBF7
:104360000C0202EBD273C3F34F0101F119024A4B65
:104370001A80192901DD323A00E00022454B1A80EB
:1043800000BF40F6FF71424A118000213F4A118070
:1043900000BF4846FFF764FF06463846FFF760FF58
:1043A000054639480088143084B237480088E8B997
:1043B00041F2A20040F2CB1340F22B124FF4B9713C
:1043C00000901420FCF7BEFF46F66D30334908809C
:1043D00040F2CB1340F22B124FF4B9711420FCF7CA
:1043E00083FF2F4806802F4805803CE0601C1FFAA1
:1043F00080F8B8F5967F01DB40F22B1841F2A2005D
:1044000040F2CB1342464FF4B97100902046FCF7BE
:1044100099FF46F66D30214908804FF4B971204666
:10442000FCF752FF40F2CB112046FCF74DFF4FF452
:1044300078401A490880A11E88B23346224618499E
:104440000988FCF7E7FE1F2014490880A11E88B2E6
:104450002B46224613490988FCF7DCFE10480680EB
:104460001048058000BF08480088801C0649088065
:1044700008460088B0F58C7F01DB00200880BDE88D
:10448000F8830000360000203800002026000020BD
:1044900024000020280000202A0000201E00002008
:1044A0003A0000203C00002008B50020194908709F
:1044B0001949088040F29F1018490880184908805F
:1044C00000201849087040F6FF7017490880002046
:1044D000164908801649088040F6FF701549088083
:1044E00041F2A20040F2CB1340F22B124FF4B9710B
:1044F00000901420FCF726FF46F66D300E49088028
:1045000040F2CB1340F22B124FF4B9711420FCF798
:10451000EBFE08BD36000020380000203A000020E5
:104520003C0000203E000020240000202600002047
:10453000280000202A0000201E00002008B50020CE
:1045400000901F491F4801F044FD78B11C491D48E7
:1045500001F032FD2520FDF751FB1A4801F0ACFCBB
:10456000C0B200909DF8000000F07CF81649154894
:1045700001F02FFD012806D11349124801F01CFD5E
:10458000104801F099FC11490E4801F022FDB0B12C
:104590002520FDF733FB6846FDF77AFC9DF80010F7
:1045A000084801F08EFC0A48FDF76BFC38B100208A
:1045B0000849087040F20731024801F0E3FC08BDE9
:1045C000050305000038014000050300070307004C
:1045D0005C2200209800002010B51B491B4801F008
:1045E000F8FC90B1194801F067FCC4B2204600F015
:1045F00045F810B90120164908702046FDF79CFEC9
:104600001149124801F0D8FC00BF12490F4801F0CF
:10461000E0FC30B10D4801F04FFC0E490B4801F0B1
:10462000CBFC0D49094801F0D4FC18B10A490748F0
:1046300001F0C2FC0949054801F0CBFC18B107495B
:10464000024801F0B9FC10BD05030500004400401C
:104650008E00002000050300000502000005010097
:1046600000BFFEE731B50024012269460248FCF78D
:1046700051FBC4B2204638BD6822002001B501229A
:1046800069460248FCF746FBC0B208BDF01900209D
:104690000FB4054B10B503A9044A029800F02CF89A
:1046A00010BC5DF814FB0000794C00089400002059
:1046B0000FB4084B10B504A902AA039800F01CF827
:1046C000044602A9002000F048FA204610BC5DF81C
:1046D00014FB00005B4B000802E008C8121F08C171
:1046E000002AFAD170477047002001E001C1121F73
:1046F000002AFBD1704700002DE9FF4F8DB00F4617
:104700000546002606E025280BD0DDE90F1290476C
:104710006D1C761C28780028F5D111B03046BDE814
:10472000F08F0024A246A1460122EC4900E0044398
:1047300015F8013F203B02FA03F00842F7D1287830
:104740002A2810D06FF02F022878A0F13001092913
:1047500014D80AEB8A0102EB410144F0020400EB99
:10476000010A6D1CF0E701CF5FEA000A03D544F4AB
:104770000054CAF1000A44F002046D1C28782E2867
:1047800017D115F8010F44F004042A280ED06FF059
:104790002F022878A0F1300109290AD809EB8901F4
:1047A00002EB410100EB01096D1CF2E757F8049B95
:1047B0006D1C28786C280FD006DC4C2817D0682890
:1047C0000DD06A2814D104E0742810D07A280FD1B3
:1047D0000DE044F400140AE044F4801401E044F4D1
:1047E00040146978814202D104F580146D1C6D1C5F
:1047F0002A786E2A1FD00CDC632A31D004DC002A10
:104800008BD0582A11D1A3E0642A68D0692A0CD130
:1048100065E0732A2ED004DC6F2A73D0702A04D18D
:104820009BE0752A6FD0782A6ED01046DDE90F1212
:104830009047761C50E1C4F30250022806D00328AA
:1048400009D0042801CF09D0066045E101CFF11756
:10485000C0E9006140E101CF06803DE106703BE127
:1048600017F8040B8DF8000000208DF80100EB46CE
:10487000012003E057F804BB4FF0FF3061074FF011
:10488000000102D40DE008F10101884649450FDA24
:104890008045F8DB1BF808100029F4D108E008F186
:1048A000010188468142FADB1BF808100029F6D185
:1048B000DDE90F23AAEB08008146214600F036F916
:1048C000304400EB080604E0DDE90F121BF8010B91
:1048D0009047B8F10108F7D221464846F7E00A218F
:1048E000C4F302534FF0000B0891022B04D001CF08
:1048F000C117032B09D00AE0FF1D27F00707F7E8CF
:10490000020108E032E01FE020E000B2C117042BF2
:1049100001D140B2C117031E71F1000307DA4FF055
:10492000000CD0EB0C006CEB01012D2302E0230501
:1049300004D52B238DF82430012303E0E30701D0B5
:104940002023F7E7984658E00A2110E010210EE0F6
:1049500010204FF0000B08900CE010214FF0000BDE
:1049600044F004044FF00809089103E008214FF0D7
:10497000000B0891C4F30253022B04D001CF002195
:10498000032B06D006E0FF1D27F00707F7E802011A
:1049900003E080B2042B00D1C0B24FF0000823071F
:1049A0002BD5702A07D0DDF820C08CF0100C5CEA03
:1049B0000B0C05D00EE040238DF82430012308E0D5
:1049C00050EA010306D030238DF824308DF82520DD
:1049D00002239846DDF820C08CF0080C5CEA0B0C32
:1049E0000BD150EA010301D1630706D530238DF8BE
:1049F00024304FF00108A9F10109582A04D038A247
:104A00000B9208AA0A920BE03AA2F9E75B46089AD1
:104A1000FBF786FC0B9B9B5C0A9A521E0A92137052
:104A200050EA0102F2D10A98ADEB000000F1200B30
:104A3000600702D524F4803401E04FF00109D94524
:104A400002DDA9EB0B0000E0002000EB0B0141446C
:104A50000890AAEB010AE00306D4DDE90F23214602
:104A6000504600F063F806444FF0000908E009A939
:104A700011F80900DDE90F12904709F10109761CD0
:104A8000C145F4DBE0030CD5DDE90F232146504698
:104A900000F04CF8064404E0DDE90F1230209047A6
:104AA000761C0899481E08900029F5DC08E00A9851
:104AB0000A990078491C0A91DDE90F129047761C8B
:104AC000BBF10001ABF1010BF1DC21465046DDE901
:104AD0000F2300F019F806446D1C1BE6092801009D
:104AE0003031323334353637383961626364656664
:104AF0000000000030313233343536373839414226
:104B000043444546000000002DE9F04104460025DD
:104B10001E461746880404D405E039462020B047D5
:104B20006D1C641EF9D52846BDE8F0812DE9F041E1
:104B3000044600251E469046C80301D5302700E0F4
:104B40002027880404D505E041463846B0476D1C4F
:104B5000641EF9D52846BDE8F0810A68531C0B6035
:104B600010707047014604480068084008B10120F1
:104B700070470020FCE700001404014010B52C4BE6
:104B80001B6883432A4C2360231D1B688343241D19
:104B90002360231D1B688343241D2360231D1B6882
:104BA0008343241D236011B101290ED105E0204B60
:104BB0001B6803431E4C236008E01D4B1B1D1B6834
:104BC00003431B4C241D236000E000BF00BF22B143
:104BD000012A0FD0022A27D119E0154B08331B6890
:104BE0000343134C08342360231D1B688343241D97
:104BF00023601AE00E4B08331B6883430C4C0834C7
:104C00002360231D1B680343241D23600DE0084B14
:104C100008331B680343064C08342360231D1B68BC
:104C20000343241D236000E000BF00BF10BD00004F
:104C300000040140024909688143014A116070473C
:104C400000040140024909680143014A11607047AC
:104C5000000401400149086070470000140401404D
:104C6000044A116821F0070141EA0002014B1A6071
:104C7000704700000020024070B504460D46E1B2C6
:104C8000054801F01EF900BF0721034801F06BF948
:104C90000028F9D0204670BD0038014041617047BE
:104CA000016170470AB1016100E041617047000095
:104CB00010B500228B071C0F0F2303FA04F20429FE
:104CC0000EDA204B9B6893431E4CA36023469B68DF
:104CD0008C07240F00FA04F423431A4CA3602FE03E
:104CE00008290EDA174BDB689343164CE360234622
:104CF000DB688C07240F00FA04F42343114CE360B3
:104D00001EE00C290EDA0F4B1B6993430D4C2361F7
:104D100023461B698C07240F00FA04F42343094C33
:104D200023610DE0074B5B699343064C63612346A7
:104D30005B698C07240F00FA04F42343014C636180
:104D400010BD000000000140F0B5044616460025E5
:104D5000002201F00F0501F0100747B1042E05D124
:104D600045F00305E76B1F43E76300E03543002090
:104D70001EE0012787401F40C7B122684FEA800C20
:104D80000F2707FA0CF7BA43870005FA07F73A43EB
:104D9000282904D1012787401F40676105E0482981
:104DA00003D1012787401F4027612260471CB8B20A
:104DB0000828DED3082022E0012787401F40E7B102
:104DC0006268A0F108074FEA870C0F2707FA0CF773
:104DD000BA43A0F10807BF0005FA07F73A432829AC
:104DE00004D1012787401F40676105E0482903D1AE
:104DF000012787401F4027616260471CB8B2102816
:104E0000DAD3F0BD02469068084008B1012070472F
:104E10000020FCE70146886880B270470246D068EF
:104E2000084008B1012070470020FCE70146C8682F
:104E300080B27047C160704770B5002300241E4ADD
:104E40001278002A01DD1D4A54784CB1051B2AB2A4
:104E5000002A01DA55422AB2142A00DD70BD00BFD3
:104E6000174A184D2D7822F81500134A1278052A92
:104E700004DA114A1278521C0F4D2A70114A127826
:104E8000521C052592FBF5F605FB16220D4D2A70E6
:104E9000002105E00A4A32F8112013444A1C91B25D
:104EA000054A12789142F5DB034A1278B3FBF2F21D
:104EB000024D6A7000BFD1E771000020BC190020CC
:104EC000C8190020700000208AB0FBF755FFFBF7DF
:104ED000A6FF60A0FFF7DCFB67A0FFF7D9FB6AA085
:104EE000FFF7D6FB6BA0FFF7D3FB6DA0FFF7D0FB5E
:104EF0006FA0FFF7CDFB72A0FFF7CAFBA9E0FBF79D
:104F000033FF18B1FCF750F8FBF766FCFDF782FAA7
:104F10007248007800283ED07048007800F0010008
:104F200058B16F4801786F480078FFF761F86B4817
:104F3000007820F00100694908706848007800F0A6
:104F4000020048B168480078FEF7EAFF634800783D
:104F500020F00200614908706048007800F0040009
:104F600058B16248018862480088FFF71FF95B4822
:104F7000007820F00400594908705848007800F083
:104F8000080040B15B48FEF7FDFC5448007820F073
:104F9000080052490870FDF727F8FDF71DF810B119
:104FA00055A0FFF775FB04A805A906AB07AACDE934
:104FB000001008A909A8FCF785FF002840D09DF83B
:104FC00024008DF804009DF820008DF805009DF860
:104FD0001C008DF806009DF818008DF807009DED67
:104FE000050ADFED4B0A20EE200ABCEEC00A10EEE7
:104FF000100A80B2ADF80800FF208DF80A000020EA
:105000008DF80B008DF80C0001A8FEF7BBFC9DF895
:10501000241040A0FFF73CFB9DF8201040A0FFF7B4
:1050200037FB42A00499FFF733FBBDF8081042A0FC
:10503000FFF72EFB9DF80A1042A0FFF729FB00BFE7
:10504000FBF78CFE18B1FCF7F2FEFBF7BFFBFEF797
:1050500085FB54E7496E69742053797374656D203C
:10506000686173206265656E2066696E6973686544
:10507000642E0D0A000000007B7B312C53504F3210
:105080007D7D0D0A000000007B7B322C48527D7D27
:105090000D0A00007B7B332C41437D7D0D0A00000F
:1050A0007B7B342C525F56616C7D7D0D0A000000C5
:1050B0007B7B352C4761696E7D7D0D0A0000000009
:1050C0004C434420446973706C6179205465737457
:1050D0002053746172742E0D0A0000008A000020B3
:1050E000830000208200002084000020880000202F
:1050F0008600002006220020414C474F5F53454761
:105100004D454E545F44524F505045440D0A0000E7
:1051100000007A445B5B312C25645D5D0D0A000064
:105120005B5B322C25645D5D0D0A00005B5B332CFC
:1051300025645D5D0D0A00005B5B342C25645D5DBC
:105140000D0A00005B5B352C25645D5D0D0A0000D7
:105150002DE9F04103460D46164600240027A046DF
:105160002A48006800F4E060B0F5E06F03D100BFAA
:105170004FF0040830E02548006800F4E060B0F526
:10518000C06F03D101274FF0030825E01F480068D6
:1051900000F4E060B0F5A06F02D10227B8461BE032
:1051A0001A48006800F4E060B0F5806F03D103276F
:1051B0004FF0010810E01548006800F4E060B0F519
:1051C000407F03D104274FF0000805E04FF4A060B2
:1051D00000F020F80227B846C7F1040005FA00F4F1
:1051E000C8F104010F20C84030400443240108489E
:1051F000C45403F01F01012088405911890001F1B6
:10520000E021C1F80001BDE8F08100000CED00E0F4
:1052100000E400E002490143024A116070470000C7
:105220000000FA050CED00E0FFF726BD044A5168C6
:1052300021F0F00141EA0002014B5A607047000082
:1052400000100240044A516821F4E06141EA000282
:10525000014B5A607047000000100240044A516838
:1052600021F4605141EA0002014B5A60704700008E
:10527000001002402DE9F04F8CB0074600200A9044
:105280004AA090E8004CC068CDE905BECDF810A05A
:1052900007900FF21C1ADAE9000ACDE9020A0FF2B0
:1052A000101ADAE9000ACDE9000A44484068C0F360
:1052B00081000B900B9820B1012804D002283FD127
:1052C00003E03F4A3EE03E4A3CE03C48406800F490
:1052D000803CBCF5803F12D13848C06A00F080485D
:1052E000B8F1000F01D1364C00E0364C334840682D
:1052F00000F40039B9F5003F02D1334C00E0324CE4
:105300002E484068C0F383412C48406800F000609C
:1053100008B141F010012948406800F0804008B110
:1053200041F020010F2901D2891C06E00F2903D387
:105330003E2901D8491C00E03F2104FB01F201E0B5
:105340001F4A00BF00BF1D484068C0F3031504A8F2
:10535000465D22FA06F319484068C0F3022502A808
:10536000465D23FA06F0099014484068C0F3C22550
:105370001DF8056023FA06F0089037B1012F06D01A
:10538000022F06D0032F0AD106E00A9208E00A9302
:1053900006E009980A9003E008980A9000E000BF30
:1053A00000BF0A980CB0BDE8F08F000000000000BC
:1053B0000000000001020304060708090010024073
:1053C00000127A00006CDC0200093D0000B51148B3
:1053D000006840F001000F490860002000F042F82A
:1053E0000C4840680C4908400A4948600846006873
:1053F0000A490840074908600846006820F48020F0
:1054000008604FF41F0088600846C06A20F0C04062
:10541000C86200BD001002400C000020FFFFF6FE35
:105420000146074A02EB9110006801F01F030122B8
:105430009A40104008B1012070470020FCE70000AE
:1054400000100240064A02EB9011096800F01F03A9
:1054500001229A401143024B03EB901211607047F6
:1054600000100240F0B50646002400270025B6F5DE
:10547000006F1FD005DC86B3102E0BD0182E72D112
:1054800060E0B6F5106F4BD0A6F5405010380028FC
:1054900069D133E004E01120FFF7C2FF0546641C28
:1054A00015B9B4F5006FF6D11120FFF7B9FF00B1BF
:1054B000012759E005E040F60100FFF7B1FF05467E
:1054C000641C1DB96FF07C408442F4D140F60100A9
:1054D000FFF7A6FF00B1012746E0FFE704E0012047
:1054E000FFF79EFF0546641C15B9B4F5A06FF6D111
:1054F0000120FFF795FF00B1012735E005E043F2F9
:105500001100FFF78DFF0546641C15B91848844249
:10551000F5D143F21100FFF783FF00B1012723E02B
:1055200005E040F60110FFF77BFF0546641C15B946
:105530000F488442F5D140F60110FFF771FF00B12A
:10554000012711E004E01920FFF76AFF0546641CFB
:1055500015B907488442F6D11920FFF761FF00B161
:10556000012701E0FFE700BF00BF3846F0BD0000A3
:10557000FFFF0F00064A02EB9011096800F01F03BD
:1055800001229A401143024B03EB901211607047C5
:1055900000100240064A02EB9011096800F01F0358
:1055A00001229A409143024B03EB90121160704725
:1055B00000100240064A02EB9011096800F01F0338
:1055C00001229A401143024B03EB90121160704785
:1055D0000010024002460020044B5868044B18405B
:1055E00042EA01031843014B586070470010024023
:1055F000FFFFC2B701460020034AD06A20F0804076
:105600000843D062704700000010024001460020AD
:10561000054A506820F40030012901D140F40030DF
:10562000014A50607047000000100240044A51686F
:1056300021F0030141EA0002014B5A60704700006B
:10564000001002400248406800F00C007047000063
:10565000001002402DE9FF4F9CB0074615469E48BA
:105660001B90C0F1000900200D904FF6FF700C90C8
:1056700019200B9000200A90032D02DBB5F5487F1E
:1056800004DD0020188020B0BDE8F08F1D9800F5E3
:105690004870401B4FF4487290FBF2F402FB140078
:1056A0001FFA80FC002112E00CEB01024FF4487459
:1056B00092FBF4F804FB182257F822001B9A904240
:1056C00000DD1B90484500DA8146481C81B2A942A2
:1056D000EADB1B98A0EB090680480660032E02DA7D
:1056E00000201880CFE706EB460040000A2290FB1E
:1056F000F2F048441A9006EB860090FBF2F0484422
:105700001990C6EB0610642290FBF2F0189000206E
:1057100009900022704CC4F10008012173E00CEBE9
:10572000010AAAF1010A4FF4487B9AFBFBFE0BFB2E
:105730001EAA57F82AA0CDF820A00CEB010A9AFB6C
:10574000FBFE0BFB1EAA57F82A000CEB010A0AF11C
:10575000010A9AFBFBFE0BFB1EAA57F82AA0CDF804
:105760001CA0DDF824A0BAF1000F15D1404500DAE5
:105770008046DDF868A0504543DBDDF820A05045A9
:105780003FDBDDF81CA050453BDB4FF0010ACDF8B4
:1057900024A00A46044634E0A04201DD04460A463D
:1057A000DDF864A050452CDAA4EB080BDDF860A00E
:1057B000D34520DB4FF6FF7BDDF830A0DA4508D07B
:1057C000DDF830A0A2EB0A0A1FFA8AFABAF1190F23
:1057D00011DDDDF834A0BAF1140F0CDADDF834A0D5
:1057E0000AF1010B1FFA8BFBCDF834B00DF1380B29
:1057F0002BF81A200C924FF0000ACDF824A0804616
:10580000354C481C81B2681E884288DC0D980228FD
:105810005DDB0022012111E00EA830F81140481E86
:105820000DF1380838F81000201A1FFA80F81046D9
:10583000541CA2B22DF81080481C81B20D988142F0
:10584000EADB032A23DBA2F1030B3DF81B00A2F1E4
:10585000020B3DF81B40A2F1010B3DF81B80A0425A
:1058600001DB404503DDA04203DC404501DB82460D
:105870000AE0844201DB444503DD844203DC444505
:1058800001DBA24600E0C246A3F800A012E000201F
:10589000002104E03DF8114020444C1CA1B291428B
:1058A000F8DB002A03DDB0FBF2F4A4B200E0002430
:1058B0001C8000BF1888002808DD188841F2707429
:1058C00094FBF0F0C0B20A900A98DCE600BF00201A
:1058D000188000BFD7E60000C0BDF0FF6C000020BC
:1058E0002DE9F04F0446904609AD95E8E010DFF849
:1058F0009C90C5F80090C9F10009C6F80090DFF847
:105900008C90C7F80090C9F10009CCF800900022F3
:1059100037E008F21F39A9EB02094FF4487A99FBE6
:10592000FAFB0AFB1B991FFA89F054F82090D5F86E
:1059300000A0D14503DD54F82090C5F8009054F83C
:105940002090D6F800A0D14503DA54F82090C6F88C
:10595000009051F82090D7F800A0D14503DD51F810
:105960002090C7F8009051F82090DCF800A0D145B5
:1059700003DA51F82090CCF8009002F101091FFAE7
:1059800089F29A42C5DBBDE8F08F0000C0BDF0FF90
:105990002DE9F04705460E46DFF868C0CCF1000857
:1059A000032A02DBB2F5487F02DD0020BDE8F08764
:1059B00006F54870801A4FF4487990FBF9FA09FB14
:1059C0001A0087B2002310E0F8184FF4487990FBD2
:1059D000F9FA09FB1A0055F82010614500DD8C46E4
:1059E000414500DA8846581C83B29342ECDBACEBAD
:1059F000080405480460C82C01DD0120D6E700201A
:105A0000D4E70000C0BDF0FF6C000020F0B5154CDD
:105A100024684CB9144C246834B90402114D2C602C
:105A20000C02114D2C6014E004020D020D4E36687C
:105A3000A61B0C4F3F6807EBE6060A4F3E600A4E76
:105A40003668AE1B084F3F6807EBE606064F3E6020
:105A500000BF044C246824121460034C24682412F0
:105A60001C60F0BD74000020780000202DE9F05F7C
:105A700006460F46904699464FF0000AD346002549
:105A80003846FFF7D9F92C482C49097820F81160DD
:105A90002B482A49097820F811802A49274A127888
:105AA0000A9821F8120028480078052804DA2648C8
:105AB0000078401C2449087020480078401C0521CB
:105AC00090FBF1F201FB12001C49087000240DE06C
:105AD000194830F814008244194830F814008344FF
