:020000040800F2
:10000000080600204501000859160008DD07000811
:10001000551600082F0200083923000800000000D0
:100020000000000000000000000000008D19000822
:100030003906000800000000D91700088F190008D1
:100040005F0100085F0100085F0100085F01000810
:100050005F0100085F0100085F0100085F01000800
:100060005F010008B1060008DD0600085F01000816
:100070005F0100085F0100085F0100085F010008E0
:100080005F0100085F0100085F0100085F010008D0
:100090005F0100085F0100085F0100080907000810
:1000A0005F0100085F0100085F0100085F010008B0
:1000B0005F010008E91900085F0100085F010008FE
:1000C0005F0100085F0100085F0100085F01000890
:1000D0005F01000821220008BD2200085F0100081E
:1000E000550600085F0100085F0100085F01000875
:1000F0005F0100085F0100085F0100085F01000860
:100100005F0100085F010008291A00085F0100086C
:100110005F0100085F0100085F0100085F0100083F
:100120005F0100085F0100085F0100085F0100082F
:10013000DFF80CD000F05AF800480047112B0008F7
:10014000080600200648804706480047FEE7FEE70D
:10015000FEE7FEE7FEE7FEE7FEE7FEE7FEE7FEE777
:1001600099190008310100082DE9F05F05460020CB
:1001700092469B4688460646814640241BE0284618
:1001800041464746224600F020F853465A46C01AD8
:10019000914110D311461846224600F039F82D1A25
:1001A00067EB01084F4622460120002100F030F89D
:1001B00017EB00094E41201EA4F10104DFDC484684
:1001C00031462A464346BDE8F09F202A04DB203A08
:1001D00021FA02F00021704721FA02F3D040C2F167
:1001E000200291400843194670470000064C074D15
:1001F00006E0E06840F0010394E8070098471034F7
:10020000AC42F6D3FFF798FFCC3B0008EC3B00086C
:10021000202A04DB203A00FA02F1002070479140C6
:10022000C2F1200320FA03F319439040704700BF46
:10023000FEE70000002001490870704745000020DB
:1002400000200149087070474400002010B540F2BA
:10025000066002F0ABFE40F2046002F0A7FE4FF42D
:10026000C06002F0A3FE082303224821374802F0B1
:10027000D7FB102303224821344802F0D1FB20236E
:1002800003224821314802F0CBFB4FF400530322F4
:1002900048212F4802F0C4FB4FF400730322482189
:1002A0002B4802F0BDFB0321042002F06DFB04216A
:1002B000084602F069FB0521042002F065FB0D21D0
:1002C000022002F061FB0921022002F05DFB012205
:1002D0000021082002F0BEFA01220021102002F0C5
:1002E000B9FA01220021202002F0B4FA01220021F3
:1002F000500302F0AFFA01220021500202F0AAFAE4
:10030000082002F013FB102002F010FB202002F066
:100310000DFB4FF4005002F009FB4FF4007002F0A7
:1003200005FB02221146092002F030FC0222114690
:100330000A2002F02BFC02221146282002F026FCA3
:1003400002221146172002F021FC10BD00180140C6
:100350000010014010B540F2026002F027FE40F2AA
:10036000046002F023FE4FF48073032210210E4834
:1003700002F056FB4FF480710B4802F0FBFA402369
:1003800003221021094802F04BFB4021074802F0EC
:10039000F1FA802303221021044802F041FB80215E
:1003A000024802F0E7FA10BD0008014000100140C9
:1003B00010B54FF4A06002F04BFC10BD10B502F078
:1003C00021FD102002F05AFD102002F067FD0446C6
:1003D000012C26D102F0B0FA002002F043FC0020EC
:1003E00002F058FCA00202F049FC002002F01EFEC0
:1003F000002002F027FE4FF45011200402F006FE08
:10040000182002F03BFD00BF192002F025FD002856
:10041000FAD0022002F026FE00BF02F02FFE0028D4
:10042000FBD010BD7FB504460D4640F2017002F0CE
:10043000BDFD0F4802F0B6FE684602F086FFADF83B
:1004400000500020ADF804000294ADF806006946A3
:10045000074802F01BFF0121054802F063FF00225C
:1004600001211D2002F092FB014802F009FF7FBD2F
:10047000000400407FB504460D4640F2037002F0D0
:1004800095FD0F4802F08EFE684602F05EFFADF863
:1004900000500020ADF804000294ADF80600694653
:1004A000074802F0F3FE0121054802F03BFF00225D
:1004B0000121322002F06AFB014802F0E1FE7FBD1B
:1004C000000C004010B5044640F2026002F06EFDE0
:1004D00040F20E6002F06AFD4FF40073032218210F
:1004E0001D4802F09DFA4FF48063032204211A484C
:1004F00002F096FA194802F085FF2146174802F0EB
:100500002FFF0021154803F02CF80021134803F0B9
:1005100038F80021114803F014F804210F4803F0C3
:1005200018F808210D4803F024F840F205310B4873
:1005300002F0D1FF40F20731084802F0CCFF074833
:1005400002F0A8FF00221146252002F01FFB002028
:100550000349087010BD0000000801400038014048
:100560005800002010B5044640F2026002F01EFD63
:1005700040F2117002F01AFD0423032218211B48D7
:1005800002F04EFA082303220421184802F048FA28
:10059000174802F037FF2146154802F0E1FE00211E
:1005A000134802F0DEFF0021114802F0EAFF0021AB
:1005B0000F4802F0C6FF04210D4802F0CAFF0821CF
:1005C0000B4802F0D6FF40F20531094802F083FFE4
:1005D0004FF4A061064802F07EFF00220121262090
:1005E00002F0D4FA024802F055FF10BD00080140A5
:1005F0000044004030B50346002016E0B3F9005037
:100600009C68645D0C541C88641C24B21C80B3F983
:100610000040B3F90450AC4201DB00241C80441CB0
:1006200020B2DC88641E24B2DC80B3F90640002CC2
:1006300001DD9042E2DB30BD7047000001B50449A6
:100640000098086000BF024800680028FBD108BD80
:100650006800002010B54FF4005002F0EFF868B1C8
:100660004FF4005002F062F94FF4005002F04EF9DE
:1006700001200D49C87000200C49C8704FF48060FB
:1006800002F054F94FF4006002F050F94FF480503A
:1006900002F04CF94FF4804002F048F94FF400406A
:1006A00002F044F910BD00001400002019000020E1
:1006B00010B5082002F0C2F858B1082002F036F94F
:1006C000082002F023F901200249087000200249A5
:1006D000087010BD140000201900002010B5102073
:1006E00002F0ACF858B1102002F020F9102002F00E
:1006F0000DF901200249487000200249487010BDE0
:10070000140000201900002010B5202002F096F8F7
:1007100058B1202002F00AF9202002F0F7F8012059
:10072000144988700020144988704FF4007002F05A
:1007300085F868B14FF4007002F0F8F84FF40070DB
:1007400002F0E4F801200B49087100200A49087101
:10075000202002F0EBF8402002F0E8F8802002F0C0
:10076000E5F84FF4807002F0E1F84FF4007002F009
:10077000DDF810BD140000201900002070B50346FC
:10078000002016E00C5CB3F902609D68AC555C88F3
:10079000641C24B25C80B3F90240B3F90450AC424B
:1007A00001DB00245C80441C20B2DC88641C24B281
:1007B000DC80B3F90640B3F90450AC4201DA904250
:1007C000E0DB70BD01480078704700004500002064
:1007D00001480078704700004400002000BFFEE799
:1007E00010B501F0D9F800F048F800F02FF84FF4F8
:1007F000E13000F087F800F079F800F023F800F01D
:1008000041F84FF4E13000F085F800F007F800F00F
:1008100021F800F033FB01F023FC10BD10B5FFF709
:1008200015FD002406E00020044908550449085538
:10083000601CC4B2052CF6DB10BD000014000020C3
:100840001900002010B5FFF785FD10BD10B5FFF7AA
:10085000AFFD10BD704730B50B46002404804480C6
:100860008280C4808360002104E0002485686C5489
:100870004C1C21B29142F8DB30BD10B5FFF79EFD54
:1008800010BD704730B5164800684FF47A72B0FB5F
:10089000F2F1481EB0F1807F01D301201BE0481E19
:1008A0004FF0E022506150170F22002807DA13079B
:1008B0001D0E0C4B00F00F04241F1D5503E0130701
:1008C0001C0E094B1C5400BF00204FF0E022906129
:1008D00007201061002008B100BFFEE730BD000016
:1008E0006400002018ED00E000E400E010B577217E
:1008F00040F2E730FFF796FD772140F2E730FFF74F
:10090000B9FD10BD10B5044600F020F82046FFF7F1
:10091000D9FD10BD10B5044600F004F82046FFF7DD
:1009200021FE10BD10B5002404E000200549085543
:10093000601C84B2642CF8DB642202490248FFF791
:100940008AFF10BD880000207C00002010B5002424
:1009500006E000200949085509490855601C04B201
:10096000642CF6DB642205490648FFF774FF642215
:1009700003490548FFF76FFF10BD0000300100205C
:1009800094010020180100202401002010B5044625
:10099000052C33D2DFE804F0030C151E28000821D3
:1009A000174802F09BF808B9012010BD0020FCE7B1
:1009B0001021134802F092F808B90120F5E7002051
:1009C000F3E720210E4802F089F808B90120ECE78E
:1009D0000020EAE74FF400510A4802F07FF808B916
:1009E0000120E2E70020E0E74FF40071054802F043
:1009F00075F808B90120D8E70020D6E70020D4E731
:100A0000001801400010014010B50024C4E0644803
:100A1000005D58B92046FFF7B9FF002805D0012036
:100A20005F49085500205F490855B3E05C48005D08
:100A300001286DD12046FFF7A9FF002845D059486D
:100A4000005D401C574908550846005D0528ECDB51
:100A50004CB900F0CDFD54480068401C5249086074
:100A600000F0C0FE2AE0012C09D100F0D3FD4F4870
:100A70000068401C4D49086000F0EEFE1EE0022CAC
:100A800009D100F0D7FD4A480068401C4849086079
:100A900000F0B8FE12E0032C07D146480068401C65
:100AA0004449086000F0E8FE08E0042C06D1424802
:100AB0000068401C4049086000F0BAFE0220384936
:100AC000085500203749085564E00020354908558D
:100AD000334908551CB9082001F020FF5AE0012CC9
:100AE00003D1102001F01AFF54E0022C03D1202082
:100AF00001F014FF4EE0032C04D14FF4005001F03C
:100B00000DFF47E0042C45D1E00101F007FF41E073
:100B10002348005D02283DD12046FFF737FFA8BBE0
:100B20002048005D401C1F4908550846005D052807
:100B300030DB2CB900F0B6FE082001F0EFFE1FE01C
:100B4000012C05D100F0DEFE102001F0E7FE17E0D9
:100B5000022C05D100F0B4FE202001F0DFFE0FE0F2
:100B6000032C06D100F0DCFE4FF4005001F0D6FE5D
:100B700006E0042C04D100F0B5FEE00101F0CEFE49
:100B80000020074908550749085503E0FFE7002002
:100B900004490855601CC4B2052CFFF638AF10BDDF
:100BA0001400002019000020000000200400002094
:100BB000080000200C0000201000002070B5054641
:100BC00000240A4800880949498800FB01F60021F1
:100BD000084600F0B3FB00F0DBFC00BF03E0284652
:100BE00000F0D0FC641CB442F9D370BD6C0000204E
:100BF0001F498871898845F21052914210D138B945
:100C00004FF4F0711A4A11804FF4487151802EE070
:100C10004FF44871164A11804FF4F071518026E06C
:100C20001349898845F21032914210D138B94FF4F6
:100C3000A0710F4A11804FF4F071518017E04FF40A
:100C4000F0710B4A11804FF4A07151800FE038B958
:100C50004FF4A071064A11804FF4F071518006E004
:100C60004FF4F071024A11804FF4A0715180704727
:100C70006C0000202DE9FF4F85B081468A46002098
:100C8000049003900798A0EB09040898A0EB0A05CC
:100C9000CDF80890CDF804A0002C01DD012705E077
:100CA0000CB9002702E04FF0FF376442002D02DD4F
:100CB0004FF0010806E015B94FF0000802E04FF0D0
:100CC000FF386D42AC4201DD204600E02846064672
:100CD0004FF0000B21E0019A91B2029A90B200F01D
:100CE00023F804982044049003982844039004981F
:100CF000B04205DD0498801B0490029838440290AD
:100D00000398B04205DD0398801B0390019840448E
:100D100001900BF101001FFA80FB701C8345DADDA6
:100D200009B0BDE8F08F000070B504460D462946B5
:100D3000204600F003FB00F02BFC0248008800F086
:100D400021FC70BD1E0000202DE9F04104460D4637
:100D500016461F462B46324629462046FFF78AFF95
:100D60003B46224629462046FFF784FF3B46324653
:100D700039462046FFF77EFF3B463246294630463D
:100D8000FFF778FFBDE8F08170B505460E461446C2
:100D90003146284600F0D2FA00F0FAFB204600F077
:100DA000F1FB70BD2DE9F05F05460E4617469846EB
:100DB000DDF828A0781B401C1FFA80FB344613E0A6
:100DC0002146284600F0BAFA00F0E2FB4FF0000995
:100DD00006E0504600F0D6FB09F101001FFA80F949
:100DE000D945F6DB601C84B24445E9DDBDE8F09FDF
:100DF00010B540F2026002F0D9F840F2036002F050
:100E0000D5F840F2056002F0D1F840F2066002F039
:100E1000CDF84FF4805303221021144801F000FE56
:100E2000012303221021124801F0FAFD4CF6B3739E
:100E3000032210210F4801F0F3FD4FF680730322C7
:100E400010210D4801F0ECFD80210A4801F094FDCD
:100E50004FF40061074801F08FFD2021054801F0A3
:100E60008BFD1021034801F087FD10BD00080140F3
:100E7000000C0140001401400018014010B5FFF7BC
:100E8000B7FF4FF48051994801F076FD0A20FFF733
:100E9000D5FB4FF48051954801F06CFD3220FFF7EF
:100EA000CDFB4FF48051914801F066FDC820FFF75B
:100EB000C5FBD32000F07EFB00F092F98C498880BE
:100EC00000F08EF98A49888000F08AF98849888084
:100ED000084680884FF6FF7101EA00208449888027
:100EE00000F07EF982498988084381498880084654
:100EF000818880A001F038FA7D48808845F2105141
:100F0000884210D14FF43050794908814FF428506D
:100F100048814FF42C5088814FF4487008804FF47A
:100F2000F0704880CCE07248808845F210318842E9
:100F30000DD12C206E4908812A2048812B208881E0
:100F40004FF4A07008804FF4F0704880B8E02C2077
:100F5000674908812A2048812B2088814FF4A0709E
:100F600008804FF4F07048800846808847F2897105
:100F700088423ED10021112000F012FB7820FFF7BB
:100F80005DFB05213A2000F00BFB0C21B22000F0A4
:100F900007FB0C21B22000F003FB0021B72000F07A
:100FA000FFFA3D21BB2000F0FBFA2C21C02000F00D
:100FB000F7FA0121C22000F0F3FA1321C32000F058
:100FC000EFFA2021C42000F0EBFA0F21C62000F038
:100FD000E7FAA421D02000F0E3FAA121D02000F00C
:100FE000DFFA0021292000F0DBFA7820FFF726FB4A
:100FF00066E03F48808847F29671884252D10021CE
:10100000112000F0CDFA7820FFF718FB08213620D8
:1010100000F0C6FA05213A2000F0C2FA0021B12002
:1010200000F0BEFA1821B12000F0BAFA0021B32076
:1010300000F0B6FA0221B32000F0B2FA0321B32087
:1010400000F0AEFA0821B32000F0AAFA0021B42083
:1010500000F0A6FA0221C02000F0A2FA0221C1206D
:1010600000F09EFA3221C52000F09AFA3221C72002
:1010700000F096FA0821362000F092FA002137207D
:1010800000F08EFA0021382000F08AFA0021392081
:1010900000F086FA0021292000F082FA7820FFF77C
:1010A000CDFA0DE00021112000F07AFA7820FFF748
:1010B000C5FA0021292000F073FA7820FFF7BEFA64
:1010C0000020FFF795FD022000F0B8F801210F483D
:1010D00001F052FC4FF6FF70FFF770FD04484388A3
:1010E000028881880AA001F03FF910BD0008014084
:1010F0006C0000205B4C43445D20526561642049D4
:10110000443A203078253034580D0A00000C014054
:101110005B4C43445D20496E697420446F6E652CBE
:101120002049443A203078253034582C20576964BF
:1011300074683A2025642C204865696768743A20F1
:1011400025640D0A0000000070B500254CF2037301
:1011500003220421204801F063FC4FF68073032230
:1011600004211E4801F05CFC1B4801F0BFFC044652
:10117000A00B04F0030140EA810004F4807140EA0E
:10118000411004F4007140EA411004F4806140EA27
:1011900041100543114801F0A9FC0646F02000EA81
:1011A000E6004FF4706101EAE60108434FF4805114
:1011B00001EAE601084305434CF2037303221021C0
:1011C000054801F02DFC4FF68073032210210348DF
:1011D00001F026FC284670BD0014014000180140B3
:1011E0001CB5002001904FF40061134801F0C4FBCE
:1011F0008021114801F0BEFB10210F4801F0BAFB1D
:101200000020009005E000BF9DF80000401CC0B227
:1012100000909DF800000A28F5DBFFF795FF01908C
:101220001021054801F0A8FB8021034801F0A4FB30
:10123000BDF804001CBD0000001401402DE9F04180
:101240000546002400273C488079012818D1082D44
:1012500015D2DFE805F00406080A0C0E1012062568
:101260000DE007250BE0042509E0052507E0012531
:1012700005E0002503E0032501E0022500BF00BFD3
:10128000082D1CD2DFE805F00406090C0F12151812
:1012900000BF14E044F0800411E044F040040EE08C
:1012A00044F0C0040BE044F0200408E044F0600483
:1012B00005E044F0A00402E044F0E00400BF00BFF9
:1012C0001D48808845F21051884202D14FF458578A
:1012D00000E036271848808847F29671884205D08A
:1012E0001548808847F28971884201D144F008048A
:1012F0002146384600F054F904F0200068B10E4849
:1013000000880D494988884214DA0B4806884088CD
:1013100009490880084646800CE0074800880649CD
:101320004988884206DD04480688408802490880CA
:1013300008464680BDE8F0816C00002070B5044688
:101340000D461E48808845F21051884220D11B4925
:10135000488900F02FF9201200F0F6F81749498962
:10136000491C88B200F026F9E0B200F0EDF813490C
:10137000888900F01FF9281200F0E6F80F498989E2
:10138000491C88B200F016F9E8B200F0DDF813E06D
:101390000A49488900F00EF9201200F0D5F8E0B2B1
:1013A00000F0D2F80549888900F004F9281200F00D
:1013B000CBF8E8B200F0C8F870BD00006C00002067
:1013C0002DE9F05F80460C4616461F46A346A6F15F
:1013D0002000C6B2102F3DD1002539E01E4800EB99
:1013E000061010F805904FF0000A2BE009F080007D
:1013F00030B11A48028821464046FFF7C5FC07E095
:101400000A9828B91648028821464046FFF7BCFCD6
:101410004FEA49604FEA1069601C84B21148408865
:10142000A04201DCBDE8F09FA4EB0B00B84205D15F
:101430005C4608F101001FFA80F806E00AF101009D
:1014400000F0FF0ABAF1080FD0DB00BF681CC5B27C
:10145000102DC3DB00BFE5E7923500081E00002019
:10146000200000206C0000202DE9F84F04460D46B6
:1014700090469946DDE90A6704F0FF0A08EB04008C
:101480001FFA80F809EB05001FFA80F916E04445C1
:1014900002DB5446A81985B24D4500DB14E000205C
:1014A00000903A78334629462046FFF789FF3046B8
:1014B00006EBD07104EB61018CB27F1C38787E287A
:1014C00002DC38782028E2DA00BFBDE8F88F00009F
:1014D00070B504461A4801F015FB06464CF203703D
:1014E000864304F00300C4F3810141EA803004F430
:1014F000005140EA611004F4804140EA611004F4B4
:10150000004140EA6110064331460D4801F0FEFA01
:101510000C4801F0F7FA05464FF68070854304F059
:10152000F000C00004F4706140EAC10004F480518E
:1015300040EAC10005432946024801F0E7FA70BDC0
:10154000001401400018014010B504464FF400613A
:101550000B4801F011FA8021094801F00BFA2046EE
:10156000FFF7B6FF2021064801F004FA20210448C5
:1015700001F002FA8021024801F0FEF910BD0000DE
:101580000014014010B504462046FFF7DDFF10BDF2
:1015900010B50249088900F00DF810BD6C0000205C
:1015A00070B505460C46284600F004F82046FFF7C3
:1015B000CBFF70BD10B504464FF400610B4801F03D
:1015C000D9F98021094801F0D5F92046FFF780FFBD
:1015D0002021064801F0CEF92021044801F0CCF981
:1015E0008021024801F0C8F910BD0000001401403C
:1015F00010B54FF48071064801F07CFA0446C4F13E
:101600000100C2B24FF48071014801F0B7F910BD7A
:101610000008014010B54021054801F06BFA04466E
:10162000C4F10100C2B24021014801F0A7F910BD88
:101630000010014010B58021054801F05BFA044616
:10164000C4F10100C2B28021014801F097F910BD38
:101650000010014000BFFEE77047000000F01F02CD
:1016600001219140024A430942F8231070470000CB
:1016700080E200E010B504463848007830B1012817
:101680000FD0022822D0032861D131E0AA2C03D147
:1016900001203249087003E0214631A000F064FEC9
:1016A00059E0032C08D12F48047000202E490870FF
:1016B00002202A49087008E0AA2C03D101202749FA
:1016C000087002E000202549087044E026480178AF
:1016D0000078401C244A1070244844541046007876
:1016E00020490978884202DB03201C49087032E057
:1016F000552C1BD11D4800781D4908701B484078A7
:1017000048701A48807888700020C87001200871DD
:10171000084683784278017816A000F025FE144828
:1017200000F05AFD00200D4908700FE0AA2C06D1E8
:1017300018A000F019FE01200849087006E02146B3
:101740001EA000F011FE00200449087003E00020F4
:101750000249087000BF00BF10BD0000510000200A
:101760002563000053000020520000200C010020DF
:101770004A0000205061727365643A2053504F3222
:101780003D25642048523D25642050493D25640D87
:101790000A0000005061727365204572726F723AE0
:1017A000205461696C206D69736D617463682C20CD
:1017B000726573746172742E0D0A00005061727349
:1017C00065204572726F723A205461696C3D253014
:1017D00032580D0A00000000704710B5FFF72AFFCD
:1017E00010BD000010B503A000F0BEFD00F06EFCBF
:1017F00010BD00004C4C205055534820444F574ECC
:101800000D0A000010B503A000F0AEFD00F03AFC98
:1018100010BD00004C4546542048494748204B45E0
:1018200059205055534820444F574E0D0A00000090
:1018300010B503A000F098FD00F06AFC10BD000098
:101840004D454E55204B4559205055534820444F47
:10185000574E0D0A0000000010B503A000F084FDF3
:1018600000F074FC10BD0000524C2050555348202D
:10187000444F574E0D0A000010B503A000F074FD50
:1018800000F048FC10BD0000524947485420484928
:101890004748204B4559205055534820444F574EF8
:1018A0000D0A000010B502A000F05EFD10BD0000A2
:1018B0004C4C2052454C454153450D0A0000000058
:1018C00010B502A000F050FD10BD00004C4546547C
:1018D0002048494748204B45592052454C454153E3
:1018E000450D0A0010B502A000F03EFD10BD00003D
:1018F0004D454E55204B45592052454C4541534589
:101900000D0A000010B502A000F02EFD10BD000071
:10191000524C2052454C454153450D0A00000000F1
:1019200010B502A000F020FD10BD0000524947484C
:10193000542048494748204B45592052454C454181
:1019400053450D0A000000000146C88808B901206F
:1019500070470020FCE7000070B504460025012216
:1019600021460348FEF746FEC5B2284670BD00007A
:101970001801002070B504460D462A46214602484B
:10198000FEF738FEC0B270BD7C000020704710B575
:1019900000F06EF810BD000010B51048006840F46B
:1019A00070000E4908600E48006840F001000C49C4
:1019B000086000204860C86208460068094908407D
:1019C000074908604FF41F0088600846006820F44B
:1019D0008020086001F0E2FB10BD000088ED00E00F
:1019E00000100240FFFFF6FE10B501210B4801F088
:1019F000A0FC012803D10121084801F097FC084808
:101A00000088401C0649088008460088022804DB3C
:101A10000020088001200349087010BD0004004028
:101A2000460000204400002010B501210D4801F0BF
:101A300080FC012803D101210A4801F077FC0A4803
:101A40000088401C00B2084908800846B0F9000030
:101A5000B0F57A7F04DB002008800120034908707C
:101A600010BD0000000C0040480000204500002090
:101A70000448006820B103480068401E014908601E
:101A800070470000680000200C490D4A1278885405
:101A90000B490978491C0A4A117011460978202916
:101AA00001DB0021117007490978202904DA054972
:101AB0000978491C034A117070470000EC000020AF
:101AC0004F0000205000002038B5402403E09DF86E
:101AD0000000FFF7CFFD01216846FFF74BFF18B16B
:101AE000201EA4F10104F2D138BD00007CB50546EA
:101AF0000E46AB208DF8000002208DF801008DF815
:101B000002508DF8036055208DF8040000240DE08C
:101B10001DF80410074801F070FC00BF07210548BC
:101B200001F0BDFC0028F9D0601CC4B2052CEFDB2D
:101B30007CBD0000004400401CB5044642F2241065
:101B40001E23F022002100900846FFF72BF94FF6E4
:101B5000FF701649088042F22410154908801020B1
:101B60000346C8220721CDE900040A20FFF77CFCC8
:101B700010A010210B46C822CDE9001007218220B9
:101B8000FFF772FC00200A49088047F6FF700749FA
:101B900008801E23F02219460020FFF76BF81F2350
:101BA000F02219460020FFF765F81CBD1E0000203A
:101BB0002000002049443A30312031323A303000A0
:101BC00000B589B00020FEF7F9FF00204F490880DA
:101BD0004FA0FFF7B1FF00204FA147F6FF7264232B
:101BE000CDE900210290DC2228210A2000F0B2F881
:101BF00047F6FF704A49088041F282004349088055
:101C00004848007820B948A104A800F0BDFB05E0D1
:101C10004448027845A104A800F0B6FB04A81821A6
:101C20000B466422CDE9001050210846FFF71CFC4A
:101C300000203FA14FF4FC626423CDE90021029013
:101C4000692296210A2000F085F84FF4FC6034499F
:101C5000088041F282002D4908803248407820B93E
:101C600031A104A800F090FB05E02E4842782FA196
:101C700004A800F089FB04A818210B465022CDE9E6
:101C80000010BE212320FFF7EFFB00202AA14FF612
:101C9000E0726423CDE900210290692296217D2023
:101CA00000F058F84FF6E0701D49088041F28200BC
:101CB000164908801B48807820B91BA104A800F0B1
:101CC00063FB05E01748827818A104A800F05CFBCC
:101CD00004A818210B465022CDE90010BE21962001
:101CE000FFF7C2FB48F230400D4908800020074949
:101CF000088013A010210B46C822CDE900104FF434
:101D000091713C20FFF7B0FB09B000BD200000201E
:101D10004D6F6E69746F720053704F322025000052
:101D20001E000020270000202D2D0000256400004B
:101D300050522062706D00005049202500000000C4
:101D400050726573732053455420746F204D656E37
:101D5000750000002DE9FC4704460D4616461F4657
:101D6000DDE90B9ADDF8288041F282000090E81945
:101D700083B2A01982B229462046FFF713F82848FB
:101D8000A0F80080E81983B2A01982B22946204643
:101D9000FEF7DAFF05EB070CACF1010C1FFA8CF330
:101DA00004EB060CACF1010C1FFA8CF205F1010CEE
:101DB0001FFA8CF104F1010C1FFA8CF0FEF7C4FF3E
:101DC00005F1180C1FFA8CF304EB060CACF1020CB5
:101DD0001FFA8CF205F1020C1FFA8CF104F1020CCF
:101DE0001FFA8CF0CDF80080FEF7DCFF0C48A0F85D
:101DF00000A00C48A0F800801020A6F114039AB2AD
:101E00006B1D99B204F10A03CDE9000998B21023C1
:101E1000FFF72AFB002003490880BDE8FC8700008B
:101E20001E000020200000207CB53B4806880020D2
:101E3000FEF7C4FE39A0FFF77FFE002555E0C5EB95
:101E4000C50000EB800000F132043748007885427D
:101E50001BD11F20009004F1190083B2601F81B2D2
:101E6000E6220A20FEF79EFF4FF6FF702F490880FA
:101E70001F202949088004F1190083B2601F81B234
:101E8000E6220A20FEF760FF13E041F28200009094
:101E900004F1190083B2601F81B2E6220A20FEF726
:101EA00081FF48F230402149088041F282001A49FE
:101EB00008801F4850F8250010210B46C822CDE9A4
:101EC000001021461420FFF7CFFA1748007885420A
:101ED00009D118A010210B461422CDE9001021468B
:101EE000D220FFF7C1FA681CC5B2062DA7DB4FF65A
:101EF000FF700E4908800020074908800EA01021BD
:101F00000B46C822CDE900104FF496710A20FFF766
:101F1000ABFA014806807CBD200000205365747434
:101F2000696E677300000000250000201E0000207D
:101F30002C0000203E00000055502F444E3A205304
:101F4000656C65637420205345543A20456E746572
:101F5000720000000EB50020FEF730FE0020274979
:101F6000088027A0FFF7E8FD002029A147F6FF72AF
:101F70007823CDE900210290A02250212820FFF7EC
:101F8000E9FE4FF6FF702549088000201B490880B4
:101F900023A010210B467822CDE9001082213C209D
:101FA000FFF762FA4FF4FC601C4908801FA0102163
:101FB0000B467822CDE90010A0213C20FFF754FA0F
:101FC0004FF47840154908801CA010210B46782258
:101FD000CDE90010B4213C20FFF746FA48F230402A
:101FE0000E49088019A010210B46C822CDE9001027
:101FF0004FF491713C20FFF737FA0EBD200000200E
:1020000053704F32204761696E20536574000000A1
:102010004761696E204C6576656C00001E000020EB
:1020200041646A757374204761696E0055503A20A7
:10203000496E63726561736500000000444E3A208A
:1020400044656372656173650000000050726573DA
:1020500073204241434B20746F204578697400001F
:1020600010B50020FEF7AAFD0020044908700120E9
:102070000349087000F08EF810BD00002400002015
:102080002600002010B50E48007848B901200C4900
:10209000087000200B49087001200B4908700CE003
:1020A00007480078012808D106480078022804D1A2
:1020B0000349087001200449087000F06BF810BD56
:1020C00024000020250000202600002010B50D4827
:1020D000007801280CD10C48007800280FDD0A4850
:1020E0000078401E0849087001200849087006E081
:1020F00004480078022802D10021FFF7F7FC00F025
:1021000049F810BD240000202500002026000020F2
:102110007047000010B50B480078012806D1002058
:102120000849087001200849087008E0054800784F
:10213000022804D10120034908700349087000F007
:1021400029F810BD240000202600002010B50E48FC
:10215000007801280CD10D480078052810DA0B48CA
:102160000078401C0949087001200949087007E0FF
:1021700005480078022803D100210320FFF7B6FCB0
:1021800000F008F810BD0000240000202500002009
:102190002600002010B50E48007800B910BD0D488B
:1021A000007810B9FFF70CFD0CE00A480078012810
:1021B00002D1FFF739FE05E006480078022801D178
:1021C000FFF7C8FE00200249087000BFE6E70000E4
:1021D000260000202400002000B970470D4909782E
:1021E0000278914209D10B4949784278914204D151
:1021F00008498978827891420AD0064902680A60C3
:1022000002790A710449097811B90121034A117050
:1022100000BFE2E727000020240000202600002065
:1022200008B5002000901F491F4801F06EF978B1F1
:102230001C491D4801F05CF92520FFF70FFA1A48E8
:1022400001F0D6F8C0B200909DF8000000F076F8DA
:102250001649154801F059F9012806D113491248C9
:1022600001F046F9104801F0C3F811490E4801F099
:102270004CF9B0B12520FFF7F1F96846FFF76CFB88
:102280009DF80010084801F0B8F80A48FFF75CFB19
:1022900038B100200849087040F20731024801F0C7
:1022A0000DF908BD050305000038014000050300D5
:1022B00007030700180100205800002010B5194935
:1022C000194801F022F970B1174801F091F8C4B231
:1022D000204600F03FF82046FFF7D6FB1149124890
:1022E00001F006F900BF11490F4801F00EF930B1B5
:1022F0000D4801F07DF80D490B4801F0F9F80C4943
:10230000094801F002F918B10949074801F0F0F84D
:102310000849054801F0F9F818B10649024801F0EA
:10232000E7F810BD05030500004400400005030068
:10233000000502000005010000BFFEE731B50024E2
:10234000012269460248FEF719FAC4B2204638BD98
:102350002401002001B5012269460248FEF70EFA69
:10236000C0B208BD7C0000200FB4054B10B503A916
:10237000044A029800F02CF810BC5DF814FB000031
:1023800051290008540000200FB4084B10B504A9CF
:1023900002AA039800F01CF8044602A9002000F0ED
:1023A00048FA204610BC5DF814FB000033280008F2
:1023B00002E008C8121F08C1002AFAD1704770470E
:1023C000002001E001C1121F002AFBD1704700006C
:1023D0002DE9FF4F8DB00F460546002606E0252863
:1023E0000BD0DDE90F1290476D1C761C2878002871
:1023F000F5D111B03046BDE8F08F0024A246A146C9
:102400000122EC4900E0044315F8013F203B02FAA9
:1024100003F00842F7D128782A2810D06FF02F0255
:102420002878A0F13001092914D80AEB8A0102EBBF
:10243000410144F0020400EB010A6D1CF0E701CFFA
:102440005FEA000A03D544F40054CAF1000A44F0DC
:1024500002046D1C28782E2817D115F8010F44F0BE
:1024600004042A280ED06FF02F022878A0F1300142
:1024700009290AD809EB890102EB410100EB0109A6
:102480006D1CF2E757F8049B6D1C28786C280FD060
:1024900006DC4C2817D068280DD06A2814D104E037
:1024A000742810D07A280FD10DE044F400140AE00B
:1024B00044F4801401E044F440146978814202D16C
:1024C00004F580146D1C6D1C2A786E2A1FD00CDC5C
:1024D000632A31D004DC002A8BD0582A11D1A3E022
:1024E000642A68D0692A0CD165E0732A2ED004DCF6
:1024F0006F2A73D0702A04D19BE0752A6FD0782A96
:102500006ED01046DDE90F129047761C50E1C4F3FF
:102510000250022806D0032809D0042801CF09D090
:10252000066045E101CFF117C0E9006140E101CF4C
:1025300006803DE106703BE117F8040B8DF80000C2
:1025400000208DF80100EB46012003E057F804BBA2
:102550004FF0FF3061074FF0000102D40DE008F1A9
:102560000101884649450FDA8045F8DB1BF8081061
:102570000029F4D108E008F1010188468142FADB24
:102580001BF808100029F6D1DDE90F23AAEB08009B
:102590008146214600F036F9304400EB080604E09D
:1025A000DDE90F121BF8010B9047B8F10108F7D2D3
:1025B00021464846F7E00A21C4F302534FF0000BCE
:1025C0000891022B04D001CFC117032B09D00AE0D8
:1025D000FF1D27F00707F7E8020108E032E01FE0DF
:1025E00020E000B2C117042B01D140B2C117031E75
:1025F00071F1000307DA4FF0000CD0EB0C006CEB2C
:1026000001012D2302E0230504D52B238DF824306E
:10261000012303E0E30701D02023F7E7984658E0C1
:102620000A2110E010210EE010204FF0000B08905E
:102630000CE010214FF0000B44F004044FF00809A7
:10264000089103E008214FF0000B0891C4F30253F6
:10265000022B04D001CF0021032B06D006E0FF1D82
:1026600027F00707F7E8020103E080B2042B00D14E
:10267000C0B24FF0000823072BD5702A07D0DDF831
:1026800020C08CF0100C5CEA0B0C05D00EE040234F
:102690008DF82430012308E050EA010306D03023EE
:1026A0008DF824308DF8252002239846DDF820C0CF
:1026B0008CF0080C5CEA0B0C0BD150EA010301D141
:1026C000630706D530238DF824304FF00108A9F1B7
:1026D0000109582A04D038A20B9208AA0A920BE0EA
:1026E0003AA2F9E75B46089AFDF73EFD0B9B9B5C1F
:1026F0000A9A521E0A92137050EA0102F2D10A9805
:10270000ADEB000000F1200B600702D524F480340B
:1027100001E04FF00109D94502DDA9EB0B0000E013
:10272000002000EB0B0141440890AAEB010AE003F2
:1027300006D4DDE90F232146504600F063F8064435
:102740004FF0000908E009A911F80900DDE90F12AE
:10275000904709F10109761CC145F4DBE0030CD573
:10276000DDE90F232146504600F04CF8064404E012
:10277000DDE90F1230209047761C0899481E08901A
:102780000029F5DC08E00A980A990078491C0A91AA
:10279000DDE90F129047761CBBF10001ABF1010B94
:1027A000F1DC21465046DDE90F2300F019F806441C
:1027B0006D1C1BE6092801003031323334353637C1
:1027C000383961626364656600000000303132337D
:1027D000343536373839414243444546000000001D
:1027E0002DE9F041044600251E461746880404D40E
:1027F00005E039462020B0476D1C641EF9D52846F7
:10280000BDE8F0812DE9F041044600251E469046C2
:10281000C80301D5302700E02027880404D505E04F
:1028200041463846B0476D1C641EF9D52846BDE8C0
:10283000F0810A68531C0B60107070470146044811
:102840000068084008B1012070470020FCE7000044
:102850001404014010B52C4B1B6883432A4C2360A1
:10286000231D1B688343241D2360231D1B68834392
:10287000241D2360231D1B688343241D236011B185
:1028800001290ED105E0204B1B6803431E4C236039
:1028900008E01D4B1B1D1B6803431B4C241D2360BC
:1028A00000E000BF00BF22B1012A0FD0022A27D1C9
:1028B00019E0154B08331B680343134C083423609D
:1028C000231D1B688343241D23601AE00E4B08332D
:1028D0001B6883430C4C08342360231D1B6803438F
:1028E000241D23600DE0084B08331B680343064C8E
:1028F00008342360231D1B680343241D236000E06C
:1029000000BF00BF10BD000000040140024909687B
:102910008143014A1160704700040140024909687F
:102920000143014A116070470004014001490860F9
:102930007047000014040140044A116821F00701A7
:1029400041EA0002014B1A6070470000002002407B
:1029500070B504460D46E1B2054800F04EFD00BFDB
:102960000721034800F09BFD0028F9D0204670BDE8
:102970000038014041617047016170470AB101614F
:1029800000E041617047000010B500228B071C0F6A
:102990000F2303FA04F204290EDA204B9B689343B9
:1029A0001E4CA36023469B688C07240F00FA04F496
:1029B00023431A4CA3602FE008290EDA174BDB687B
:1029C0009343164CE3602346DB688C07240F00FA20
:1029D00004F42343114CE3601EE00C290EDA0F4B84
:1029E0001B6993430D4C236123461B698C07240FFD
:1029F00000FA04F42343094C23610DE0074B5B69A3
:102A00009343064C636123465B698C07240F00FAED
:102A100004F42343014C636110BD00000000014039
:102A2000F0B5044616460025002201F00F0501F01E
:102A3000100747B1042E05D145F00305E76B1F438E
:102A4000E76300E0354300201EE0012787401F4078
:102A5000C7B122684FEA800C0F2707FA0CF7BA4378
:102A6000870005FA07F73A43282904D10127874050
:102A70001F40676105E0482903D1012787401F40B7
:102A800027612260471CB8B20828DED3082022E064
:102A9000012787401F40E7B16268A0F108074FEAAD
:102AA000870C0F2707FA0CF7BA43A0F10807BF00FD
:102AB00005FA07F73A43282904D1012787401F4028
:102AC000676105E0482903D1012787401F4027613E
:102AD0006260471CB8B21028DAD3F0BD0246906895
:102AE000084008B1012070470020FCE701468868D3
:102AF00080B270470246D068084008B10120704794
:102B00000020FCE70146C86880B27047C16070478A
:102B1000FDF766FEFDF7B5FE0CA0FFF725FC14A03F
:102B2000FFF722FC11E0FDF753FE18B1FDF76CFF33
:102B3000FDF786FBFDF746FE18B1FEF74EFEFDF7EA
:102B400079FBFEF7C1FFFFF725FBECE7496E6974DF
:102B50002053797374656D20686173206265656EBA
:102B60002066696E69736865642E0D0A00000000B6
:102B70004C434420446973706C61792054657374CC
:102B80002053746172742E0D0A0000002DE9F0418B
:102B900003460D46164600240027A0462A48006832
:102BA00000F4E060B0F5E06F03D100BF4FF004081F
:102BB00030E02548006800F4E060B0F5C06F03D154
:102BC00001274FF0030825E01F48006800F4E0608B
:102BD000B0F5A06F02D10227B8461BE01A48006882
:102BE00000F4E060B0F5806F03D103274FF00108D7
:102BF00010E01548006800F4E060B0F5407F03D1B4
:102C000004274FF0000805E04FF4A06000F020F822
:102C10000227B846C7F1040005FA00F4C8F1040120
:102C20000F20C8403040044324010848C45403F036
:102C30001F01012088405911890001F1E021C1F8EC
:102C40000001BDE8F08100000CED00E000E400E0D0
:102C500002490143024A1160704700000000FA0572
:102C60000CED00E0044A516821F0F00141EA000255
:102C7000014B5A607047000000100240044A51683E
:102C800021F4E06141EA0002014B5A607047000004
:102C900000100240044A516821F4605141EA0002E8
:102CA000014B5A6070470000001002402DE9F04FC0
:102CB0008CB0074600200A904AA090E8004CC068FB
:102CC000CDE905BECDF810A007900FF21C1ADAE985
:102CD000000ACDE9020A0FF2101ADAE9000ACDE97A
:102CE000000A44484068C0F381000B900B9820B163
:102CF000012804D002283FD103E03F4A3EE03E4A8B
:102D00003CE03C48406800F4803CBCF5803F12D178
:102D10003848C06A00F08048B8F1000F01D1364C45
:102D200000E0364C3348406800F40039B9F5003F04
:102D300002D1334C00E0324C2E484068C0F383414E
:102D40002C48406800F0006008B141F010012948AB
:102D5000406800F0804008B141F020010F2901D205
:102D6000891C06E00F2903D33E2901D8491C00E045
:102D70003F2104FB01F201E01F4A00BF00BF1D48D4
:102D80004068C0F3031504A8465D22FA06F319480B
:102D90004068C0F3022502A8465D23FA06F00990B8
:102DA00014484068C0F3C2251DF8056023FA06F0F8
:102DB000089037B1012F06D0022F06D0032F0AD179
:102DC00006E00A9208E00A9306E009980A9003E0F8
:102DD00008980A9000E000BF00BF0A980CB0BDE858
:102DE000F08F00000000000000000000010203045A
:102DF000060708090010024000127A00006CDC028D
:102E000000093D0000B51148006840F001000F497D
:102E10000860002000F042F80C4840680C49084067
:102E20000A494860084600680A490840074908609E
:102E30000846006820F4802008604FF41F00886076
:102E40000846C06A20F0C040C86200BD00100240C1
:102E50000C000020FFFFF6FE0146074A02EB91102E
:102E6000006801F01F0301229A40104008B10120C0
:102E700070470020FCE7000000100240064A02EB09
:102E80009011096800F01F0301229A401143024B80
:102E900003EB90121160704700100240F0B5064637
:102EA000002400270025B6F5006F1FD005DC86B38F
:102EB000102E0BD0182E72D160E0B6F5106F4BD0EB
:102EC000A6F540501038002869D133E004E0112005
:102ED000FFF7C2FF0546641C15B9B4F5006FF6D1C3
:102EE0001120FFF7B9FF00B1012759E005E040F6D6
:102EF0000100FFF7B1FF0546641C1DB96FF07C406F
:102F00008442F4D140F60100FFF7A6FF00B101278B
:102F100046E0FFE704E00120FFF79EFF0546641C42
:102F200015B9B4F5A06FF6D10120FFF795FF00B1F8
:102F3000012735E005E043F21100FFF78DFF05465C
:102F4000641C15B918488442F5D143F21100FFF70B
:102F500083FF00B1012723E005E040F60110FFF7F1
:102F60007BFF0546641C15B90F488442F5D140F635
:102F70000110FFF771FF00B1012711E004E01920F3
:102F8000FFF76AFF0546641C15B907488442F6D16D
:102F90001920FFF761FF00B1012701E0FFE700BF43
:102FA00000BF3846F0BD0000FFFF0F00064A02EBED
:102FB0009011096800F01F0301229A401143024B4F
:102FC00003EB90121160704700100240064A02EBBA
:102FD0009011096800F01F0301229A409143024BAF
:102FE00003EB90121160704700100240064A02EB9A
:102FF0009011096800F01F0301229A401143024B0F
:1030000003EB90121160704700100240024600204E
:10301000044B5868044B184042EA01031843014B23
:103020005860704700100240FFFFC2B70146002001
:10303000034AD06A20F080400843D0627047000005
:103040000010024001460020054A506820F400307C
:10305000012901D140F40030014A5060704700005E
:1030600000100240044A516821F0030141EA0002C5
:10307000014B5A607047000000100240024840684F
:1030800000F00C00704700000010024000200021FA
:103090003E4A126842F480323C4B1A6000BF401C2A
:1030A0003A4A126802F4003111B9B0F5006FF6D156
:1030B000364A126802F400320AB900BFFEE7334A0A
:1030C000D26942F08052314BDA61314A126842F4DF
:1030D00040422F4B1A602D4A52682C4B5A601A46B8
:1030E00052685A601A46526842F480625A601A4620
:1030F000526822F440325A601A46526842F4403212
:103100005A601A465268234B1A40204B5A601A469E
:103110005268214B1A431D4B5A601A46126842F0FE
:1031200080721A6000BF194A126802F00072002A09
:10313000F9D0174A126842F48032154B1A6000BF6A
:10314000134A526802F48032002AF9D0104A1268F9
:1031500042F400320E4B1A6000BF0D4A526802F46E
:103160000032002AF9D0094A526822F00302074BC4
:103170005A601A46526842F002025A6000BF034A7F
:10318000526802F00802002AF9D07047001002408D
:1031900000700040FFFFC3B70000340810B5FFF710
:1031A00075FF10BD10B504463349601A8C4244D0F7
:1031B0000CDCB4F1804F1CD03048204410B3B0F583
:1031C000806F28D0B0F5006F52D12DE0B0F5806F40
:1031D0003CD0B0F58E3F03D0B0F5923F48D13EE0F1
:1031E00040F20B30FFF702FF40F20B30FFF7EEFE2C
:1031F0003FE04FF48060FFF7F9FE4FF48060FFF787
:10320000E5FE36E040F20140FFF7F0FE40F20140FB
:10321000FFF7DCFE2DE040F20240FFF7E7FE40F250
:103220000240FFF7D3FE24E040F20340FFF7DEFE4A
:1032300040F20340FFF7CAFE1BE040F20440FFF7F4
:10324000D5FE40F20440FFF7C1FE12E040F2054017
:10325000FFF7CCFE40F20540FFF7B8FE09E040F270
:103260000D30FFF7C3FE40F20D30FFF7AFFE00E078
:1032700000BF00BF10BD00000010004000FCFFBFF9
:10328000016841F001010160704700000A88826214
:103290001D4A90420ED0B0F1804F0BD01B4A904295
:1032A00008D01B4A904205D01A4A904202D01A4ACE
:1032B00090420BD1026822F07002026002684B88D3
:1032C0001A43026002688B881A4302608A68C262ED
:1032D000124A90420AD0124A904207D0026822F461
:1032E000407202600268CB881A430260064A90422C
:1032F00002D0094A904201D10A7B0263426942F03E
:103300000102426170470000002C014000040040AF
:1033100000080040000C0040003401400010004054
:1033200000140040C2680A43C2607047CA43026189
:1033300070470246D06800EA01031069084010B1E6
:103340000BB1012070470020FCE700210180418083
:1033500081804FF6FF7181600021C1800173704749
:103360002DE9F04704460D460027B846B946002629
:103370001D49601A8C421CD006DC1C48204470B1E8
:10338000B0F5806F1FD10FE0B0F5806F16D0B0F5AB
:103390006C4F18D10320FFF789FC074614E0022088
:1033A000FFF784FC07460FE00220FFF77FFC07468B
:1033B0000AE00220FFF77AFC074605E00220FFF74B
:1033C00075FC074600E000BF00BF07EB5500B0FBEF
:1033D000F5F64FF6F07006EA000806F00F0948EA25
:1033E0000900A060BDE8F087004C004000BCFFBFB2
:1033F00001464868C0F308007047C1F30802426004
:103400007047000010B504462049601A8C4228D04D
:1034100006DC1F48204490B1B0F5806F33D117E02F
:10342000B0F5806F26D0B0F56C4F2CD140F20E3045
:10343000FFF7DCFD40F20E30FFF7C8FD24E040F25C
:103440001140FFF7D3FD40F21140FFF7BFFD1BE035
:1034500040F21240FFF7CAFD40F21240FFF7B6FDFE
:1034600012E040F21340FFF7C1FD40F21340FFF7B6
:10347000ADFD09E040F21440FFF7B8FD40F2144002
:10348000FFF7A4FD00E000BF00BF10BD004C0040EE
:1034900000BCFFBFC16841F40051C160704710B566
:1034A000024602EB9110006801F01F040123A340C3
:1034B000184008B1012010BD0020FCE710B500EB5A
:1034C0009112126801F01F040123A3409A4300EBFC
:1034D00091131A6010BD10B500EB9112126801F043
:1034E0001F040123A3401A4300EB91131A6010BD7F
:1034F00010B500EB91521268C1F304440123A340BC
:103500009A4300EB91531A6010BD70B50246002338
:103510000024C1F38910105801F01F060125B540A1
:1035200000EA050302EB91500068C1F3044601254F
:10353000B54000EA050414B10BB1012070BD0020B4
:10354000FCE7C26822F4C062C260C2680A43C2607B
:1035500070470A460021C16821F004011143C1608F
:103560007047026922F44052026102690A43026113
:1035700070470A460021C16821F008011143C1606B
:103580007047C26822F48052C260C2680A43C260B7
:103590007047000000000000000000000000000074
:1035A00000000000000000001FCC000C0000000024
:1035B00000000000080030006000080030006000DB
:1035C0000000022003FC1E20022003FC1E2002201B
:1035D000000000000E1811043FFF10840C7800005A
:1035E00000000F0010840F3800C00778188400789E
:1035F000000000780F8410C411240E9800E40084A9
:1036000000080800680070000000000000000000D2
:10361000000000000000000007E01818200440022D
:103620000000000040022004181807E0000000001D
:1036300000000240024001800FF001800240024081
:1036400000000080008000800FF800800080008073
:1036500000000001000D000E00000000000000004E
:10366000000000000080008000800080008000805A
:1036700000800000000C000C0000000000000000B2
:10368000000000000006001800600180060018001D
:103690002000000007F0080810041004080807F0D4
:1036A00000000000080408041FFC000400040000DF
:1036B000000000000E0C10141024104411840E0C95
:1036C000000000000C1810041104110412880C7082
:1036D0000000000000E00320042408241FFC002454
:1036E000000000001F98108411041104108810704D
:1036F0000000000007F00888110411041888007009
:10370000000000001C00100010FC13001C00100042
:10371000000000000E3811441084108411440E384B
:10372000000000000700088C10441044088807F0CF
:103730000000000000000000030C030C000000006B
:103740000000000000000001010600000000000071
:10375000000000000080014002200410080810044E
:10376000000002200220022002200220022002206B
:10377000000000001004080804100220014000802E
:10378000000000000E001200100C106C10800F00E2
:10379000000003E00C1813E4142417C4082807D011
:1037A00000000004003C03C41C40074000E4001C6F
:1037B000000410041FFC1104110411040E88007091
:1037C000000003E00C1810041004100410081C1072
:1037D000000010041FFC100410041004080807F077
:1037E000000010041FFC1104110417C41004081871
:1037F000000010041FFC1104110017C01000080085
:10380000000003E00C181004100410441C78004061
:10381000000010041FFC10840080008010841FFC36
:1038200010040000100410041FFC10041004000019
:10383000000000030001100110011FFE1000100025
:10384000000010041FFC110403801464181C1004F1
:10385000000010041FFC1004000400040004000C0D
:10386000000010041FFC1F0000FC1F001FFC1004C0
:10387000000010041FFC0C04030000E010181FFCE3
:10388000100007F00808100410041004080807F0DE
:10389000000010041FFC10841080108010800F00A6
:1038A000000007F0081810241024101C080A07F262
:1038B000000010041FFC1104110011C011300E0C87
:1038C000000400000E1C11041084108410441C38E5
:1038D00000001800100010041FFC10041000180055
:1038E000000010001FF810040004000410041FF86A
:1038F000100010001E0011E0001C007013801C005E
:1039000010001FC0103C00E01F0000E0103C1FC072
:1039100000001004180C163401C001C01634180C35
:10392000100410001C00130400FC13041C00100001
:1039300000000804101C1064108413041C041018E8
:1039400000000000000000007FFE40024002400234
:103950000000000030000C0003800060001C000329
:10396000000000004002400240027FFE0000000014
:103970000000000000002000400040004000200047
:103980000000000100010001000100010001000130
:103990000001000040004000200000000000000086
:1039A000000000000098012401440144014400FC8F
:1039B000000410001FFC008801040104008800704E
:1039C0000000000000700088010401040104008868
:1039D00000000000007000880104010411081FFCB1
:1039E0000004000000F8014401440144014400C8FF
:1039F00000000000010401040FFC11041104110077
:103A00001800000000D601290129012901C9010679
:103A1000000010041FFC008401000100010400FCF0
:103A2000000400000104190419FC00040004000053
:103A300000000000000300010101190119FE00004F
:103A4000000010041FFC0024004001B4010C01041C
:103A500000000000100410041FFC0004000400001B
:103A60000000010401FC0104010001FC010401004B
:103A700000FC010401FC008401000100010400FCC1
:103A80000004000000F8010401040104010400F82E
:103A90000000010101FF008501040104008800709D
:103AA000000000000070008801040104010501FF0E
:103AB00000010104010401FC0084010401000180F3
:103AC0000000000000CC01240124012401240198FD
:103AD000000000000100010007F8010401040000DB
:103AE0000000010001F8000400040004010801FCCA
:103AF0000004010001800170000C001001600180D1
:103B0000010001F0010C003001C00030010C01F097
:103B1000010000000104018C00740170018C01049B
:103B20000000010101810171000E00180160018097
:103B3000010000000184010C013401440184010CE6
:103B40000000000000000000000001003EFC4002F8
:103B500040020000000000000000FFFF0000000025
:103B600000000000400240023EFC01000000000096
:103B70000000000060008000800040004000200045
:103B800020000000576F726B204D6F6465000000CD
:103B90004574434F322053657400000053704F3218
:103BA000205365740000000053797374656D2053D1
:103BB00065740000416C61726D20536574000000F3
:103BC000446174612052657669657700EC3B0008BA
:103BD000000000206C000000B0230008583C0008E2
:103BE0006C0000209C050000C023000800000000BD
:103BF00000000000000000000000000000000000C5
:103C0000000000000000000000000000FFFF0000B6
:103C10000000010000000000843B0008B43B0008E5
:103C20009C3B0008903B0008A83B0008C03B0008F4
:103C30000000000000000000000000000000000084
:103C40000000000000000000000000000000000074
:083C5000000E27070000000030
:0400000508000131BD
:00000001FF
