:020000040800F2
:100000006027002045010008E91B0008650D000875
:10001000E51B0008B90700085D4400080000000067
:10002000000000000000000000000000A121000806
:10003000C10B000800000000D91D0008A321000822
:100040005F0100085F0100085F0100085F01000810
:100050005F0100085F0100085F0100085F01000800
:100060005F010008390C0008650C00085F010008FA
:100070005F0100085F0100085F0100085F010008E0
:100080005F0100085F0100085F0100085F010008D0
:100090005F0100085F0100085F010008910C000883
:1000A0005F0100085F0100085F0100085F010008B0
:1000B0005F010008FD2100085F0100085F010008E2
:1000C0005F0100085F0100085F0100085F01000890
:1000D0005F01000845430008E14300085F01000894
:1000E000DD0B00085F0100085F0100085F010008E8
:1000F0005F0100085F0100085F0100085F01000860
:100100005F0100085F0100083D2200085F01000850
:100110005F0100085F0100085F0100085F0100083F
:100120005F0100085F0100085F0100085F0100082F
:10013000DFF80CD000F070F900480047BD4D000812
:10014000602700200648804706480047FEE7FEE794
:10015000FEE7FEE7FEE7FEE7FEE7FEE7FEE7FEE777
:10016000AD21000831010008D2B201E000F8012BF6
:10017000491EFBD270470022F6E710B513460A4627
:1001800004461946FFF7F0FF204610BD0FB400B536
:100190008DB010A909900B9000914FF0FF300A909C
:1001A00000200C9005480690054807906A4609A86B
:1001B0000F9900F003F90DB05DF814FBD9030008A6
:1001C000F70300082DE9FF5F1D464FF0FF3BD5E91F
:1001D000014691465F464FF00008A9697F1C0198CF
:1001E0008847296A824688470028F6D1BAF1FF3F3E
:1001F0000CD024F4C064002E19DD600614D5BAF1C9
:100200002B0F09D0BAF12D0F0ED103E0584604B0E0
:10021000BDE8F09F44F48064A9697F1C0198884779
:10022000761E8246002E02DDBAF1300F03D0B9F1FE
:10023000000F26D032E0A969761E44F400747F1CBA
:10024000019888478246002E05DDBAF1780F06D066
:10025000BAF1580F03D0B9F1000F10D01EE0B9F178
:10026000000F02D0B9F1100F18D1A969761E24F43D
:1002700000747F1C019888478246102002E0082005
:1002800000E00A20814609E008FB0908A969761EFA
:1002900044F400747F1C019888478246002E05DDD7
:1002A0004946504600F075F80028EDDAE9690198F2
:1002B0008847A00502D46FF00100A8E7E00725D128
:1002C000600613D5600502D5C8F1000000E0404685
:1002D00029680A1D2A600968220501D5087015E001
:1002E000220701D5088011E008600FE02868011D91
:1002F00029600068210502D580F8008006E021070A
:1003000002D5A0F8008001E0C0F8008038467EE702
:100310002DE9F05F0546002092469B46884606463A
:10032000814640241BE0284641464746224600F0CD
:1003300020F853465A46C01A914110D31146184628
:10034000224600F07BF82D1A67EB01084F46224643
:100350000120002100F072F817EB00094E41201E29
:10036000A4F10104DFDC484631462A464346BDE895
:10037000F09F202A04DB203A21FA02F00021704786
:1003800021FA02F3D040C2F12002914008431946FD
:1003900070473A2800D2303820F02002412A01D399
:1003A000A2F13700884201D34FF0FF3070470000C0
:1003B000026811441378016018467047D1600449FF
:1003C00051610449116200211161114600F04AB8DF
:1003D000B10300085B040008426842B1016811F8EB
:1003E000013B23B1521EC0E900121846704701219B
:1003F000C160881E704742685AB1C368016843B93A
:1004000083688B4205D0491E521CC0E900120020AF
:1004100070474FF0FF307047064C074D06E0E0682C
:1004200040F0010394E8070098471034AC42F6D33B
:10043000FFF782FE6463000884630008202A04DB5F
:10044000203A00FA02F1002070479140C2F12003E7
:1004500020FA03F3194390407047C0B24FF4F051B3
:1004600000F096B92DE9F34F8BB04FF0000801F181
:100470000C000C464FF0010B46460DF1080A0190A6
:100480006269012101989047051E2DD0252D2CD0A1
:10049000216A8847C0B16269012101989047216AA9
:1004A00088470028F7D1411E62690198904700E013
:1004B000761CA1690B988847216A88470028F7D1E4
:1004C000E1690B988847DBE7A1690B9888470746E5
:1004D000A84201D1761CD3E7E1690B9888477F1CBD
:1004E00002D1B8F1000F6FD046E1002762693D46A6
:1004F0003946019890472A2804D162690121019860
:1005000090470125DFF884926269012101989047A4
:10051000A0F130010A290AD24F45E5DC07EB87013B
:1005200000EB4107303FDFD445F01005ECE7E9066A
:1005300001D46FF000476C280AD04C2814D06828EA
:1005400015D06A280DD074281CD07A281AD01DE046
:1005500062690121019890476C2802D045F004059A
:1005600014E045F002050DE045F020050AE062695F
:10057000012101989047682802D045F0080505E060
:1005800045F400656269012101989047C4E901576B
:1005900065283DD019DC58287AD00CDC452837D0A6
:1005A00004DC252826D0412831D131E046282FD03F
:1005B00047282CD12CE05B2877D0612828D06328ED
:1005C0007CD0642823D15AE0D0E06F2848D008DCE2
:1005D00066281DD067281BD0692821D06E2816D127
:1005E00027E0702845D0732868D0752847D0782830
:1005F0000DD14DE0A1690B988847054625283FF4A9
:1006000069AFE1690B9888476D1C3FF46AAFB3E0AE
:1006100023466A466FF001000B99AFF300809EE01D
:1006200045F040006060A80723464FF0000236D432
:100630003EE0E8077FF447AF2068011D21600068B5
:10064000290501D506701BE7290701D5068017E7A4
:10065000A90703D5F117C0E9006111E706600FE7AC
:1006600045F040006060A80723464FF0080216D40A
:100670001EE040F60E0125EA0100606016E045F03C
:1006800040006060A80723464FF00A0207D40FE03D
:1006900045F040006060A80708D5234610226FF09F
:1006A00001000B99AFF3008059E007E023461022C8
:1006B0006FF001000B99FFF785FD50E04FF0000946
:1006C0004F464B46632802D05B2806D040E0E80640
:1006D00001D40120A06001273AE06269012101985C
:1006E00090475E2805D14FF001096269494601989B
:1006F0009047216939B900210A46534643F8212021
:10070000491C0829FADBB0B3216969B9C11700EBAC
:10071000D16253110AEB830122F01F02821A0120D9
:100720000B68904003430B60626901210198904778
:100730005D28E8D1B9F1000F09D00020514651F8E9
:100740002020D24341F82020401C0828F7DB02ABD0
:10075000224600976FF001000B99AFF3008000284C
:100760000CDA401C08D1BBF1000F05D04FF0FF3070
:100770000DB0BDE8F08FFFE74046F9E7E90701D18A
:1007800008F1010806444FF0000B79E6CCCCCC0C04
:100790007F2801D9002208E0064A02EB5002C00778
:1007A000127800D1120902F00F0201209040084097
:1007B00070470000BA62000800BFFEE70020014950
:1007C00008707047910000200020014908707047B0
:1007D0009000002010B540F2066004F0ABFD40F23E
:1007E000046004F0A7FD4FF4C06004F0A3FD0823EB
:1007F00003224821374804F0A5F910230322482199
:10080000344804F09FF9202303224821314804F0A2
:1008100099F94FF40053032248212F4804F092F92C
:100820004FF40073032248212B4804F08BF9032175
:10083000042004F03BF90421084604F037F90521AF
:10084000042004F033F90D21022004F02FF90921CE
:10085000022004F02BF901220021082004F08CF87A
:1008600001220021102004F087F80122002120201D
:1008700004F082F801220021500304F07DF80122E7
:100880000021500204F078F8082004F0E1F810206C
:1008900004F0DEF8202004F0DBF84FF4005004F000
:1008A000D7F84FF4007004F0D3F802221146092063
:1008B00004F02EFB022211460A2004F029FB02223A
:1008C0001146282004F024FB02221146172004F0D0
:1008D0001FFB10BD001801400010014010B540F290
:1008E000026004F027FD40F2046004F023FD4FF4A1
:1008F0008073032210210E4804F024F94FF4807114
:100900000B4804F0C9F8402303221021094804F0E1
:1009100019F94021074804F0BFF880230322102171
:10092000044804F00FF98021024804F0B5F810BD26
:10093000000801400010014010B54FF4A06004F021
:1009400049FB10BD10B504F021FC102004F05AFC46
:10095000102004F067FC0446012C26D104F07EF838
:10096000002004F043FB002004F058FBA00204F038
:1009700049FB002004F01EFD002004F027FD4FF489
:100980005011200404F006FD182004F03BFC00BFC9
:10099000192004F025FC0028FAD0022004F026FDDE
:1009A00000BF04F02FFD0028FBD010BD7FB504462A
:1009B0000D4640F2017004F0BDFC0F4804F08EFFBC
:1009C000684605F05EF8ADF800500020ADF8040070
:1009D0000294ADF806006946074804F0F3FF0121D0
:1009E000054805F03BF8002201211D2004F090FA93
:1009F000014804F0E1FF7FBD000400407FB50446DC
:100A00000D4640F2037004F095FC0F4804F066FFB9
:100A1000684605F036F8ADF800500020ADF8040047
:100A20000294ADF806006946074804F0CBFF0121A7
:100A3000054805F013F800220121322004F068FA7D
:100A4000014804F0B9FF7FBD000C004010B504461A
:100A500040F2026004F06EFC40F20E6004F06AFCAA
:100A60004FF40073032218211D4804F06BF84FF473
:100A70008063032204211A4804F064F8194805F041
:100A80005DF82146174805F007F80021154805F0E4
:100A900004F90021134805F010F90021114805F070
:100AA000ECF804210F4805F0F0F808210D4805F096
:100AB000FCF840F205310B4805F0A9F840F2073187
:100AC000084805F0A4F8074805F080F80022022144
:100AD000252004F01DFA00200349087010BD000015
:100AE0000008014000380140B000002010B5044665
:100AF00040F2026004F01EFC40F2117004F01AFC97
:100B00000423032218211B4804F01CF808230322A5
:100B10000421184804F016F8174805F00FF821468C
:100B2000154804F0B9FF0021134805F0B6F800217C
:100B3000114805F0C2F800210F4805F09EF8042185
:100B40000D4805F0A2F808210B4805F0AEF840F278
:100B50000531094805F05BF84FF4A061064805F03F
:100B600056F800221146262004F0D2F9024805F07A
:100B70002DF810BD000801400044004030B5034688
:100B8000002016E0B3F900509C68645D0C541C888A
:100B9000641C24B21C80B3F90040B3F90450AC4289
:100BA00001DB00241C80441C20B2DC88641E24B2BB
:100BB000DC80B3F90640002C01DD9042E2DB30BD61
:100BC0007047000001B504490098086000BF024862
:100BD00000680028FBD108BDB800002010B54FF414
:100BE000005003F0BDFE68B14FF4005003F030FF39
:100BF0004FF4005003F01CFF01200D49C870002085
:100C00000C49C8704FF4806003F022FF4FF400607D
:100C100003F01EFF4FF4805003F01AFF4FF48040A2
:100C200003F016FF4FF4004003F012FF10BD000068
:100C3000140000201900002010B5082003F090FED9
:100C400058B1082003F004FF082003F0F1FE012052
:100C50000249087000200249087010BD14000020ED
:100C60001900002010B5102003F07AFE58B11020B2
:100C700003F0EEFE102003F0DBFE01200249487075
:100C800000200249487010BD140000201900002007
:100C900010B5202003F064FE58B1202003F0D8FEE8
:100CA000202003F0C5FE012014498870002014495B
:100CB00088704FF4007003F053FE68B14FF4007079
:100CC00003F0C6FE4FF4007003F0B2FE01200B49A2
:100CD000087100200A490871202003F0B9FE402065
:100CE00003F0B6FE802003F0B3FE4FF4807003F0F3
:100CF000AFFE4FF4007003F0ABFE10BD14000020F7
:100D00001900002070B50346002016E00C5CB3F912
:100D100002609D68AC555C88641C24B25C80B3F9A9
:100D20000240B3F90450AC4201DB00245C80441C57
:100D300020B2DC88641C24B2DC80B3F90640B3F92D
:100D40000450AC4201DA9042E0DB70BD014800780B
:100D500070470000910000200148007870470000B3
:100D60009000002000BFFEE710B501F01FFA00F070
:100D70004AF800F031F84FF4612000F089F800F0F3
:100D80007BF800F025F800F043F84FF4612000F004
:100D900087F800F009F800F023F800F037FB02F0C4
:100DA00097FA01F08BF810BD10B5FFF713FD002482
:100DB00006E000200449085504490855601CC4B2E7
:100DC000052CF6DB10BD00001400002019000020E7
:100DD00010B5FFF783FD10BD10B5FFF7ADFD10BDD9
:100DE000704730B50B460024048044808280C48064
:100DF0008360002104E0002485686C544C1C21B2FF
:100E00009142F8DB30BD10B5FFF79CFD10BD704777
:100E100030B5164800684FF47A72B0FBF2F1481E04
:100E2000B0F1807F01D301201BE0481E4FF0E0228B
:100E3000506150170F22002807DA13071D0E0C4BC4
:100E400000F00F04241F1D5503E013071C0E094B6F
:100E50001C5400BF00204FF0E02290610720106179
:100E6000002008B100BFFEE730BD0000B400002044
:100E700018ED00E000E400E010B5772140F2E73023
:100E8000FFF794FD772140F2E730FFF7B7FD10BD83
:100E900010B5044600F022F82046FFF7D7FD10BD3C
:100EA00010B5044600F004F82046FFF71FFE10BD01
:100EB00010B5002404E0002006490855601C84B2E7
:100EC000B4F5006FF7DB4FF4006202490248FFF708
:100ED00088FF10BD141A0020081A002010B5002445
:100EE00006E000200949085509490855601C04B26C
:100EF000642CF6DB642205490648FFF772FF642282
:100F000003490548FFF76DFF10BD00008022002057
:100F1000E4220020682200207422002010B504463C
:100F2000052C33D2DFE804F0030C151E280008213D
:100F3000174803F065FE08B9012010BD0020FCE74A
:100F40001021134803F05CFE08B90120F5E70020EA
:100F5000F3E720210E4803F053FE08B90120ECE727
:100F60000020EAE74FF400510A4803F049FE08B9AF
:100F70000120E2E70020E0E74FF40071054803F0AC
:100F80003FFE08B90120D8E70020D6E70020D4E7CB
:100F9000001801400010014010B50024C4E064486E
:100FA000005D58B92046FFF7B9FF002805D00120A1
:100FB0005F49085500205F490855B3E05C48005D73
:100FC00001286DD12046FFF7A9FF002845D05948D8
:100FD000005D401C574908550846005D0528ECDBBC
:100FE0004CB900F0CDFD54480068401C52490860DF
:100FF00000F0F8FE2AE0012C09D100F0D3FD4F48A3
:101000000068401C4D49086000F004FF1EE0022CFF
:1010100009D100F0D7FD4A480068401C48490860E3
:1010200000F0F0FE12E0032C07D146480068401C97
:101030004449086000F0F2FE08E0042C06D1424862
:101040000068401C4049086000F0E0FE022038497A
:10105000085500203749085564E0002035490855F7
:10106000334908551CB9082003F0EAFC5AE0012C6A
:1010700003D1102003F0E4FC54E0022C03D1202023
:1010800003F0DEFC4EE0032C04D14FF4005003F0DB
:10109000D7FC47E0042C45D1E00103F0D1FC41E04E
:1010A0002348005D02283DD12046FFF737FFA8BB4B
:1010B0002048005D401C1F4908550846005D052872
:1010C00030DB2CB900F0AEFE082003F0B9FC1FE0C5
:1010D000012C05D100F0A9FE102003F0B1FC17E0AF
:1010E000022C05D100F09FFE202003F0A9FC0FE0A8
:1010F000032C06D100F09AFE4FF4005003F0A0FC40
:1011000006E0042C04D100F08FFEE00103F098FC0F
:101110000020074908550749085503E0FFE700206C
:1011200004490855601CC4B2052CFFF638AF10BD49
:1011300014000020190000200000002004000020FE
:10114000080000200C0000201000002070B50546AB
:1011500000240A4800880949498800FB01F600215B
:10116000084600F0B3FB00F0DBFC00BF03E02846BC
:1011700000F0D0FC641CB442F9D370BDBC00002068
:101180001F498871898845F21052914210D138B9AF
:101190004FF4F0711A4A11804FF4487151802EE0DB
:1011A0004FF44871164A11804FF4F071518026E0D7
:1011B0001349898845F21032914210D138B94FF461
:1011C000A0710F4A11804FF4F071518017E04FF475
:1011D000F0710B4A11804FF4A07151800FE038B9C3
:1011E0004FF4A071064A11804FF4F071518006E06F
:1011F0004FF4F071024A11804FF4A0715180704792
:10120000BC0000202DE9FF4F85B081468A460020B2
:10121000049003900798A0EB09040898A0EB0A0536
:10122000CDF80890CDF804A0002C01DD012705E0E1
:101230000CB9002702E04FF0FF376442002D02DDB9
:101240004FF0010806E015B94FF0000802E04FF03A
:10125000FF386D42AC4201DD204600E028460646DC
:101260004FF0000B21E0019A91B2029A90B200F087
:1012700023F8049820440490039828440390049889
:10128000B04205DD0498801B049002983844029017
:101290000398B04205DD0398801B039001984044F9
:1012A00001900BF101001FFA80FB701C8345DADD11
:1012B00009B0BDE8F08F000070B504460D46294620
:1012C000204600F003FB00F02BFC0248008800F0F1
:1012D00021FC70BD1E0000202DE9F04104460D46A2
:1012E00016461F462B46324629462046FFF78AFF00
:1012F0003B46224629462046FFF784FF3B463246BE
:1013000039462046FFF77EFF3B46324629463046A7
:10131000FFF778FFBDE8F08170B505460E4614462C
:101320003146284600F0D2FA00F0FAFB204600F0E1
:10133000F1FB70BD2DE9F05F05460E461746984655
:10134000DDF828A0781B401C1FFA80FB344613E010
:101350002146284600F0BAFA00F0E2FB4FF00009FF
:1013600006E0504600F0D6FB09F101001FFA80F9B3
:10137000D945F6DB601C84B24445E9DDBDE8F09F49
:1013800010B540F2026003F0D5FF40F2036003F0B5
:10139000D1FF40F2056003F0CDFF40F2066003F09C
:1013A000C9FF4FF4805303221021144803F0CAFBF5
:1013B000012303221021124803F0C4FB4CF6B3733F
:1013C000032210210F4803F0BDFB4FF68073032268
:1013D00010210D4803F0B6FB80210A4803F05EFBA4
:1013E0004FF40061074803F059FB2021054803F042
:1013F00055FB1021034803F051FB10BD00080140CC
:10140000000C0140001401400018014010B5FFF726
:10141000B7FF4FF48051994803F040FB0A20FFF7D3
:10142000D1FB4FF48051954803F036FB3220FFF793
:10143000C9FB4FF48051914803F030FBC820FFF7FF
:10144000C1FBD32000F07EFB00F092F98C4988802C
:1014500000F08EF98A49888000F08AF988498880EE
:10146000084680884FF6FF7101EA00208449888091
:1014700000F07EF9824989880843814988800846BE
:10148000818880A003F002F87D48808845F21051E1
:10149000884210D14FF43050794908814FF42850D8
:1014A00048814FF42C5088814FF4487008804FF4E5
:1014B000F0704880CCE07248808845F21031884254
:1014C0000DD12C206E4908812A2048812B2088814B
:1014D0004FF4A07008804FF4F0704880B8E02C20E2
:1014E000674908812A2048812B2088814FF4A07009
:1014F00008804FF4F07048800846808847F2897170
:1015000088423ED10021112000F012FB7820FFF725
:1015100059FB05213A2000F00BFB0C21B22000F012
:1015200007FB0C21B22000F003FB0021B72000F0E4
:10153000FFFA3D21BB2000F0FBFA2C21C02000F077
:10154000F7FA0121C22000F0F3FA1321C32000F0C2
:10155000EFFA2021C42000F0EBFA0F21C62000F0A2
:10156000E7FAA421D02000F0E3FAA121D02000F076
:10157000DFFA0021292000F0DBFA7820FFF722FBB8
:1015800066E03F48808847F29671884252D1002138
:10159000112000F0CDFA7820FFF714FB0821362047
:1015A00000F0C6FA05213A2000F0C2FA0021B1206D
:1015B00000F0BEFA1821B12000F0BAFA0021B320E1
:1015C00000F0B6FA0221B32000F0B2FA0321B320F2
:1015D00000F0AEFA0821B32000F0AAFA0021B420EE
:1015E00000F0A6FA0221C02000F0A2FA0221C120D8
:1015F00000F09EFA3221C52000F09AFA3221C7206D
:1016000000F096FA0821362000F092FA00213720E7
:1016100000F08EFA0021382000F08AFA00213920EB
:1016200000F086FA0021292000F082FA7820FFF7E6
:10163000C9FA0DE00021112000F07AFA7820FFF7B6
:10164000C1FA0021292000F073FA7820FFF7BAFAD6
:101650000020FFF795FD022000F0B8F801210F48A7
:1016600003F01CFA0020FFF771FD0548438802884B
:1016700081880BA002F00AFF10BD000000080140A5
:10168000BC0000205B4C43445D20526561642049EE
:10169000443A203078253034580D0A00000C0140BF
:1016A0005B4C43445D20496E697420446F6E652C29
:1016B0002049443A203078253034582C205769642A
:1016C00074683A2025642C204865696768743A205C
:1016D00025640D0A0000000070B500254CF203736C
:1016E00003220421204803F02DFA4FF680730322D1
:1016F00004211E4803F026FA1B4803F089FA044629
:10170000A00B04F0030140EA810004F4807140EA78
:10171000411004F4007140EA411004F4806140EA91
:1017200041100543114803F073FA0646F02000EA21
:10173000E6004FF4706101EAE60108434FF480517E
:1017400001EAE601084305434CF20373032210212A
:10175000054803F0F7F94FF6807303221021034880
:1017600003F0F0F9284670BD001401400018014054
:101770001CB5002001904FF40061134803F08EF96E
:101780008021114803F088F910210F4803F084F9F3
:101790000020009005E000BF9DF80000401CC0B292
:1017A00000909DF800000A28F5DBFFF795FF0190F7
:1017B0001021054803F072F98021034803F06EF907
:1017C000BDF804001CBD0000001401402DE9F041EB
:1017D0000546002400273C488079012818D1082DAF
:1017E00015D2DFE805F00406080A0C0E10120625D3
:1017F0000DE007250BE0042509E0052507E001259C
:1018000005E0002503E0032501E0022500BF00BF3D
:10181000082D1CD2DFE805F00406090C0F1215187C
:1018200000BF14E044F0800411E044F040040EE0F6
:1018300044F0C0040BE044F0200408E044F06004ED
:1018400005E044F0A00402E044F0E00400BF00BF63
:101850001D48808845F21051884202D14FF45857F4
:1018600000E036271848808847F29671884205D0F4
:101870001548808847F28971884201D144F00804F4
:101880002146384600F054F904F0200068B10E48B3
:1018900000880D494988884214DA0B480688408838
:1018A00009490880084646800CE007480088064938
:1018B0004988884206DD0448068840880249088035
:1018C00008464680BDE8F081BC00002070B50446A3
:1018D0000D461E48808845F21051884220D11B4990
:1018E000488900F02FF9201200F0F6F817494989CD
:1018F000491C88B200F026F9E0B200F0EDF8134977
:10190000888900F01FF9281200F0E6F80F4989894C
:10191000491C88B200F016F9E8B200F0DDF813E0D7
:101920000A49488900F00EF9201200F0D5F8E0B21B
:1019300000F0D2F80549888900F004F9281200F077
:10194000CBF8E8B200F0C8F870BD0000BC00002081
:101950002DE9F05F80460C4616461F46A346A6F1C9
:101960002000C6B2102F3DD1002539E01E4800EB03
:10197000061010F805904FF0000A2BE009F08000E7
:1019800030B11A48028821464046FFF7C5FC07E0FF
:101990000A9828B91648028821464046FFF7BCFC41
:1019A0004FEA49604FEA1069601C84B211484088D0
:1019B000A04201DCBDE8F09FA4EB0B00B84205D1CA
:1019C0005C4608F101001FFA80F806E00AF1010008
:1019D00000F0FF0ABAF1080FD0DB00BF681CC5B2E7
:1019E000102DC3DB00BFE5E7CA5C00081E00002025
:1019F00020000020BC0000202DE9F84F04460D46D1
:101A000090469946DDE90A6704F0FF0A08EB0400F6
:101A10001FFA80F809EB05001FFA80F916E044452B
:101A200002DB5446A81985B24D4500DB14E00020C6
:101A300000903A78334629462046FFF789FF304622
:101A400006EBD07104EB61018CB27F1C38787E28E4
:101A500002DC38782028E2DA00BFBDE8F88F000009
:101A600070B504461A4803F0DFF806464CF20370DE
:101A7000864304F00300C4F3810141EA803004F49A
:101A8000005140EA611004F4804140EA611004F41E
:101A9000004140EA6110064331460D4803F0C8F8A2
:101AA0000C4803F0C1F805464FF68070854304F0FA
:101AB000F000C00004F4706140EAC10004F48051F9
:101AC00040EAC10005432946024803F0B1F870BD61
:101AD000001401400018014010B504464FF40061A5
:101AE0000B4802F0DBFF8021094802F0D5FF2046B9
:101AF000FFF7B6FF2021064802F0CEFF2021044860
:101B000002F0CCFF8021024802F0C8FF10BD0000A7
:101B10000014014010B504462046FFF7DDFF10BD5C
:101B200010B50249088900F00DF810BDBC00002076
:101B300070B505460C46284600F004F82046FFF72D
:101B4000CBFF70BD10B504464FF400610B4802F0A6
:101B5000A3FF8021094802F09FFF2046FFF780FF86
:101B60002021064802F098FF2021044802F096FF49
:101B70008021024802F092FF10BD000000140140D5
:101B800010B54FF48071064803F046F80446C4F1DE
:101B90000100C2B24FF48071014802F081FF10BD14
:101BA0000008014010B54021054803F035F804460F
:101BB000C4F10100C2B24021014802F071FF10BD22
:101BC0000010014010B58021054803F025F80446B7
:101BD000C4F10100C2B28021014802F061FF10BDD2
:101BE0000010014000BFFEE77047000000F01F0238
:101BF00001219140024A430942F823107047000036
:101C000080E200E010B588B00446002007900690FE
:101C1000059004900390029001906148007830B1E3
:101C200001285DD002287AD0032877D189E0AA2C38
:101C300003D101205A49087051E00A2C43D10020F9
:101C40005849594A1278885404AB05AA57A15548F7
:101C5000FEF79CFA022806D1049AD1B2059AD0B2B6
:101C600002F038F92BE003AA52A14E48FEF78EFA93
:101C7000012804D10399C8B202F0C4F81FE006ABF2
:101C800007AA4EA14748FEF781FA022817D1069A03
:101C900091B2079A90B201AB02AA00F0FFFABDF828
:101CA000080002F0F5F9BDF80410BDF8080000F0D6
:101CB00029FABDF80410BDF8080000F023FB00204D
:101CC000394908700BE0384800781E2807DA364892
:101CD00001780078401C344A1070324844545CE06B
:101CE000062C08D1374804700020374908700220BC
:101CF0002B49087010E0AA2C03D101202849087054
:101D00000AE03249AA2003F06FF93049204603F077
:101D10006BF90020224908703FE000E039E02A48D2
:101D200001780078401C284A107029484454104615
:101D3000007824490978884202DB0320184908709A
:101D40002BE0552C1BD122480078224908702048EE
:101D5000407848701E48807888701D48C078C870E8
:101D60001B48007988801A484079887101204872A0
:101D7000084601F079FD00200949087008E0AA2C06
:101D800003D101200649087002E0002004490870D0
:101D900003E000200249087000BF00BF08B010BD7A
:101DA000A500002048220020A8000020502C256417
:101DB0002C256400472C25640000000025642C2598
:101DC00064000000A7000020A6000020AC00002056
:101DD0003E22002014220020704710B5FFF7F2FECB
:101DE00010BD000010B503A002F050FB01F0D4FAC2
:101DF00010BD00004C4C205055534820444F574EC6
:101E00000D0A000010B501F075FA10BD10B501F013
:101E100055FB10BD10B501F07DFB10BD10B501F0F4
:101E20004FFB10BD704770477047704770470146C1
:101E3000C88808B9012070470020FCE770B5044647
:101E40000025012221460348FEF798FEC5B2284628
:101E500070BD00006822002070B504460D462A4679
:101E600021460248FEF78AFEC0B270BD081A002063
:101E700070B50446049D1048007AD0B114B10E48E4
:101E80000078207011B10C484078087012B10A48EF
:101E90008078107013B10848C078187025B10648D2
:101EA00090ED010A85ED000A0020034E30720120FA
:101EB00070BD0020FCE70000D419002010B54FF4DD
:101EC00048611E48FEF757F94FF448611C48FEF779
:101ED00052F900201B4908801B4908801B490880D3
:101EE0001B4908701B4908601B4908601B490860B2
:101EF0001B4908601B4908601B4908601B490860B2
:101F00001B4908601B4908701B4908701B480021C9
:101F10000160416001810020194908701949087069
:101F20001948002101604160018118480160416049
:101F30000181174801604160018110BDD40000207B
:101F4000540D00206400002066000020680000207E
:101F50006A0000206C000020700000207400002047
:101F6000780000207C0000208000002084000020F9
:101F7000880000208C0000208D000020E019002047
:101F80008E0000208F000020EA190020F4190020A4
:101F9000FE1900202DE9F04F8BB000200A9000249C
:101FA00000258346059004904F48007810B90BB087
:101FB000BDE8F08F00204C4908700AAB4FF4C8729E
:101FC0004A4801884A4803F025FA0646002E7DDD7E
:101FD000BDF82800002879DD06A807A908AA09ABE2
:101FE000CDE90032CDE90210BDF828303F48028823
:101FF0003F49404803F01AFBDDE90810A0EB010A55
:10200000DDE90821881800EBD0714F10DDE90610DA
:10201000A0EB0108DDE90621881800EBD0714FEA3A
:102020006109B8F10A0F5CDB002F5ADDB9F1000F2E
:1020300057DD0AFB09F04FF47A71484308FB07F1BA
:1020400090FBF1F4B4F5C87F0EDB40F2DC50844223
:102050000ADC04EBC40000EB04104FF47A7190FB2F
:10206000F1F0C0F16E0500E00025642D00DD64256F
:10207000462D01DA05B1462505F0FF0B642008FB6B
:1020800000F090FBF9F0C0B2059064200AFB00F06C
:1020900090FBF7F0C0B204900598632801DD63203F
:1020A00005900498632801DD63200490BBF1460F7E
:1020B00017DBA0B2009031465846DDE9043203F048
:1020C0000DFB01200C4908720BE0FFE700200A49D4
:1020D00008704870012008720020084908700849FB
:1020E000087000BF63E700006A0000206400002061
:1020F000540D0020D4000020D41900208E000020B0
:102100008D0000202DE9F04105460C46284602F0DE
:1021100017FE0646204602F0D5FD07461A481B4921
:10212000098840F821601A481849098840F8217048
:1021300016480088401C4FF4487190FBF1F201FBF7
:1021400012001249088013480088B0F5487F04DA6D
:1021500010480088401C0F4908800F480088401C28
:102160000D4908800B480088B0F5C87F09DB084698
:102170000088642805DB0120084908700020064912
:102180000880BDE8F0810000D40000206400002039
:10219000540D002066000020680000206A00002026
:1021A000704710B500F06EF810BD000010B5104873
:1021B000006840F470000E4908600E48006840F066
:1021C00001000C49086000204860C86208460068A9
:1021D00009490840074908604FF41F008860084615
:1021E000006820F48020086003F074FB10BD00003C
:1021F00088ED00E000100240FFFFF6FE10B501215F
:102200000B4803F032FC012803D10121084803F0F8
:1022100029FC08480088401C0649088008460088B8
:10222000022804DB0020088001200349087010BD4B
:1022300000040040920000209000002010B5012111
:102240000D4803F012FC012803D101210A4803F0D4
:1022500009FC0A480088401C00B20849088008466A
:10226000B0F90000B0F57A7F04DB0020088001207F
:102270000349087010BD0000000C004094000020CD
:10228000910000200448006820B103480068401E07
:102290000149086070470000B800002030B5154CB7
:1022A000247814B91080198030BD134C24783CB9BF
:1022B000124C2060124C216001240F4D2C7011E053
:1022C0000E4C2468041B0D4D2D6805EBA4040B4D2A
:1022D0002C600B4C24680C1B094D2D6805EBA404E5
:1022E000074D2C60054C24881480054C24881C80E4
:1022F00000BFD9E79A000020A40000209C00002025
:10230000A000002070B504460D462A46214602A0D2
:1023100002F0BCF870BD000025752C25750D0A0073
:1023200001480078704700009A0000200C490D4ACF
:10233000127888540B490978491C0A4A11701146D1
:102340000978202901DB002111700749097820292B
:1023500004DA05490978491C034A117070470000E6
:102360001E220020980000209900002038B540244B
:1023700003E09DF80000FFF745FC01216846FFF7E8
:102380006BFD18B1201EA4F10104F2D138BD00008C
:102390007CB505460E46AB208DF8000002208DF876
:1023A00001008DF802508DF8036055208DF804006F
:1023B00000240DE01DF80410074803F0BAFB00BF2D
:1023C0000721054803F007FC0028F9D0601CC4B2BF
:1023D000052CEFDB7CBD00000044004008B101216A
:1023E00000E00021024A11700021024A117070477A
:1023F0009A000020A40000200EB500F021FD40F658
:1024000041002049088020A000F0A6FA4FF6FF7096
:1024100020A140F25D52B423CDE900210290F022C8
:102420006421282000F062FC01F04CF94FF4FC60BC
:102430001C4908801CA010210B46B422CDE90010D5
:10244000E6214120FFF7D8FA4FF47840154908807B
:1024500019A010210B46B422CDE90010FA21412029
:10246000FFF7CAFA4BF6F7500E49088016A0102164
:102470000B46B422CDE900104FF4DC714620FFF783
:10248000BBFA0EBD20000020416C61726D205365C7
:1024900074000000416C61726D2050726F66696C4F
:1024A000650000001E0000204C4C3A2050726F6600
:1024B000696C65202B000000524C3A2050726F6608
:1024C000696C65202D0000005072657373204241D5
:1024D000434B20746F204578697400000EB500F0FE
:1024E000AFFC40F641002049088020A000F034FAFB
:1024F000002021A140F2FF729623CDE90021029035
:10250000C82278213C2000F0F1FB01F075F94FF46E
:10251000FC601D4908801DA010210B46C822CDE992
:102520000010D2215520FFF767FA4FF47840164982
:1025300008801AA010210B46C822CDE90010E62120
:102540005520FFF759FA4BF6F7500F49088018A0AD
:1025500010210B46C822CDE900104FF4DC71462053
:10256000FFF74AFA0EBD0000200000204175746F8D
:10257000204C6967687400004C6967687420537761
:1025800069746368000000001E00002055503A2066
:10259000456E61626C6520284F4E2900444E3A20FA
:1025A00044697361626C65284F464629000000004B
:1025B0005072657373204241434B20746F204578FD
:1025C000697400002DE9FC4704460D4616461F4677
:1025D000DDE90B9ADDF8288041F2A2000090E819AD
:1025E00083B2A01982B229462046FEF7A3FE46F622
:1025F0006D3029490880E81983B2A01982B22946B2
:102600002046FEF769FE2448A0F8008005EB070C81
:10261000ACF1010C1FFA8CF304EB060CACF1010CCD
:102620001FFA8CF205F1010C1FFA8CF104F1010C78
:102630001FFA8CF0FEF750FE05F1120C1FFA8CF316
:1026400004EB060CACF1020C1FFA8CF205F1020C43
:102650001FFA8CF104F1020C1FFA8CF0CDF8008007
:10266000FEF768FE0C48A0F800900C48A0F8008027
:102670001020A6F10C039AB22B1D99B204F10803A5
:10268000CDE9000A98B21023FFF7B6F940F64100F1
:1026900002490880BDE8FC871E00002020000020C1
:1026A0000EB500F0CDFB40F641002149088021A085
:1026B00000F052F94FF6FF7021A140F25D52C8239D
:1026C000CDE9002102904FF4827250211E2000F0CB
:1026D0000DFB01F043FA4FF4FC601C4908801CA07C
:1026E00010210B46B422CDE90010F0213720FFF76E
:1026F00083F94FF478401549088019A010210B4642
:10270000B422CDE900104FF482713720FFF774F93D
:102710004BF6F7500D49088015A010210B46B42246
:10272000CDE900104FF4DC714620FFF765F90EBDCE
:10273000200000204461746120526576696577004D
:102740005265766965772050616765001E0000203C
:102750004C4C3A2050616765204E6578740000004B
:10276000524C3A2050616765205072657600000037
:102770005072657373204241434B20746F2045783B
:10278000697400000EB500F05BFB40F64100204983
:10279000088020A000F0E0F84FF6FF7020A140F282
:1027A0005D529623CDE900210290C82278213C2079
:1027B00000F09CFA01F0B8FA4FF4FC601C49088064
:1027C0001CA010210B46B422CDE90010D2215520C7
:1027D000FFF712F94FF478401549088018A010212E
:1027E0000B46B422CDE90010E6215520FFF704F98D
:1027F0004BF6F7500E49088014A010210B46B42266
:10280000CDE900104FF4DC714620FFF7F5F80EBD5E
:10281000200000204574434F3220536574000000AF
:102820004574434F32205377697463680000000099
:102830001E0000204C4C3A20456E61626C65000021
:10284000524C3A2044697361626C65005072657342
:1028500073204241434B20746F2045786974000017
:102860000EB500F0EDFA40F641002449088024A09E
:1028700000F072F8002025A140F2FF729623CDE906
:1028800000210290C82278213C2000F02FFA4FF658
:10289000FF702249088040F641001849088001F085
:1028A0007BFA4FF4FC601D4908801DA010210B46E7
:1028B000C822CDE90010D2215520FFF79DF84FF432
:1028C0007840164908801AA010210B46C822CDE98D
:1028D0000010E6215520FFF78FF84BF6F7500F490F
:1028E000088018A010210B46C822CDE900104FF433
:1028F000DC714620FFF780F80EBD000020000020AC
:1029000046696C74657220536574000046696C7486
:102910006572205377697463680000001E00002010
:1029200055503A20456E61626C6520284F4E290053
:10293000444E3A2044697361626C65284F464629CB
:10294000000000005072657373204241434B2074B5
:102950006F204578697400001CB5044641F6E30019
:10296000272340F23F12002100900846FEF7E2FCC8
:102970004FF6FF701749088041F6E30016490880BA
:102980001020034678220C21CDE900040846FFF709
:1029900033F812A010210B466C22CDE900100C2157
:1029A000C820FFF729F840F641000B49088040F2A3
:1029B0005D5008490880282340F23F121946002044
:1029C000FEF720FC292340F23F1219460020FEF7B3
:1029D00019FC1CBD1E0000202000002049443A3094
:1029E00031204F4E4C494E450000000000B589B0E3
:1029F00000F026FA40F641008749088087A0FFF7DB
:102A0000ABFF88A0002140F2FF724623CDE90021F0
:102A100002904FF4967232210A20FFF7D3FD83A073
:102A200000214FF4FC624623CDE9002102904FF4CF
:102A3000967282210A20FFF7C5FD7FA000214FF684
:102A4000E0724623CDE9002102904FF49672D22124
:102A50000A20FFF7B7FD7BA04FF6FF7140F25D52F1
:102A60002823CDE9002102904FF496724FF4917122
:102A70000A20FFF7A7FD75A04FF6FF7140F25D52E7
:102A80008223CDE9002102904FF496724FF4AA718F
:102A90000A20FFF797FD40F2FF707049088041F26D
:102AA000A2005D4908806E48007820B96DA104A895
:102AB00001F0FCFC05E06A4802786DA104A801F071
:102AC000F5FC04A810210B46C822CDE900104E21C8
:102AD0001820FEF791FF4FF4FC606049088041F236
:102AE000A2004D4908805E48407820B963A104A83F
:102AF00001F0DCFC05E05A48427863A104A801F02B
:102B0000D5FC04A810210B46C822CDE900109E2157
:102B10001820FEF771FF4FF6E0705049088041F22F
:102B2000A2003D4908804E48807838B94C48C078AA
:102B300020B958A104A801F0B9FC06E04848837800
:102B4000C27858A104A801F0B1FC04A810210B46DA
:102B5000DC22CDE90010EE211820FEF74DFF4FF6E4
:102B6000E0703E49088041F2A2002B4908803C48B1
:102B7000828850A104A801F099FC04A810210B46FA
:102B80005422CDE900104FF49B711820FEF734FF5A
:102B900048F230403149088041F2A2001E490880C5
:102BA0002F48037AC27946A104A801F07FFC04A84B
:102BB00010210B466022CDE900104FF49B71782064
:102BC000FEF71AFF48F230402449088041F2A20083
:102BD0001149088022488079FF2804D13DA104A82A
:102BE00001F064FC05E01E4882793DA104A801F0D3
:102BF0005DFC04A810210B464022CDE900104FF4E3
:102C00009B71F020FEF7F8FE01F036FB40F6410024
:102C10000149088009B000BD200000204D6F6E6999
:102C2000746F720053504F320000000050756C7387
:102C30006520526174650000506572667573696F36
:102C40006E0000005369676E616C000050756C7314
:102C50006520576176652835732900001E00002025
:102C6000CA00002053504F323A202D2D2020000062
:102C700053504F323A2025336420000050523A20FE
:102C800020202D2D2020000050523A202025336492
:102C900020200000504920523A2D2D20493A2D2D58
:102CA00020000000504920523A25326420493A253C
:102CB00032642000523A20256420202020000000A9
:102CC00050574D20523A256420493A25642020204F
:102CD000000000004761696E3A202D2D2020000081
:102CE0004761696E3A202564202020002DE9FC47C9
:102CF00004460D4616461F46DDE90B9ADDF828808E
:102D000041F2A2000090E81983B2A01982B22946CC
:102D10002046FEF70FFB2848A0F80080E81983B290
:102D2000A01982B229462046FEF7D6FA05EB070C19
:102D3000ACF1010C1FFA8CF304EB060CACF1010CA6
:102D40001FFA8CF205F1010C1FFA8CF104F1010C51
:102D50001FFA8CF0FEF7C0FA05F1180C1FFA8CF37D
:102D600004EB060CACF1020C1FFA8CF205F1020C1C
:102D70001FFA8CF104F1020C1FFA8CF0CDF80080E0
:102D8000FEF7D8FA0C48A0F800A00C48A0F8008084
:102D90001020A6F114039AB26B1D99B204F10A0334
:102DA000CDE9000998B21023FEF726FE40F6410057
:102DB00002490880BDE8FC871E000020200000209A
:102DC0000EB500F03DF840F641001249088012A00F
:102DD000FFF7C2FD002012A140F2FF729623CDE959
:102DE00000210290DC2278213220FFF77FFF01F0E2
:102DF000B7F84BF6F7500C4908800CA010210B4691
:102E0000C822CDE900104FF4DC714620FEF7F4FD36
:102E10000EBD000020000020522043616C6962005A
:102E2000522056616C7565001E000020507265735B
:102E300073204241434B20746F2045786974000031
:102E4000F8B5002421E02046E11704EB11710911C7
:102E500008318EB23F2E00DD3F260F2094FBF0F0AC
:102E60000A3087B21F2F00DD1F274FF4006040EAB1
:102E70004610384385B2234640F23F1221460020D7
:102E80000095FEF757FA601C84B2B4F5F07FDADBE8
:102E9000F8BD00007CB505460E4605EB85003C21DB
:102EA00001EBC004FEB142F2B820009004F11A0018
:102EB00083B2A01F81B240F231120F20FEF73AFA1E
:102EC0004FF6FF703049088042F2B8202F49088041
:102ED00004F11A0083B2A01F81B240F231120F2018
:102EE000FEF7FAF922E041F2A200009004F11A0084
:102EF00083B2A01F81B240F231120F20FEF71AFAFE
:102F000046F66D302049088041F2A2001F49088032
:102F100004F11A0083B2A01F81B240F231120F20D7
:102F2000FEF7DAF94FF6FF7017490880184850F895
:102F3000250010210B46C822CDE9001021461E2095
:102F4000FEF75AFD5EB113A010210B461422CDE905
:102F5000001021464FF48C70FEF74EFD12E046F64D
:102F60006D300949088041F2A200084908800AA092
:102F700010210B461422CDE9001021464FF48C702D
:102F8000FEF73AFD7CBD00001E000020200000205E
:102F9000400000203E000000200000007CB51748E3
:102FA0000588FFF74DFF16A0FFF7D6FC00240CE0C4
:102FB00016480078844201D1012000E0002001463B
:102FC0002046FFF767FF601CC4B2092CF0DB4BF60C
:102FD000F7500F49088040F64100084908800DA0CD
:102FE00010210B464FF48C72CDE900104FF4DC71C8
:102FF0001420FEF701FD014805807CBD2000002063
:1030000053657474696E677300000000250000202A
:103010001E0000204C4C2F524C3A53656C204C48FB
:103020003A456E7465722052483A4261636B000003
:103030000EB5FFF705FF40F641002049088020A0AB
:10304000FFF78AFC002022A140F2FF729623CDE90F
:1030500000210290C82278213C20FFF747FE00F0B3
:103060000BFF4FF4FC601D4908801DA010210B468A
:10307000A022CDE90010D2215520FEF7BDFC4FF46F
:103080007840164908801AA010210B46A022CDE9ED
:103090000010E6215520FEF7AFFC4BF6F7500F4924
:1030A000088017A010210B46C822CDE900104FF46C
:1030B000DC714620FEF7A0FC0EBD000020000020C1
:1030C00053704F32204761696E20536574000000D1
:1030D0004761696E204C6576656C00001E0000201B
:1030E00055503A20496E63726561736500000000B7
:1030F000444E3A20446563726561736500000000C8
:103100005072657373204241434B20746F204578A1
:10311000697400000EB5FFF793FE40F641002049A8
:10312000088020A0FFF718FC4FF6FF7020A140F2A6
:103130005D52B423CDE900210290F02264212820C1
:10314000FFF7D4FD00F04EFF4FF4FC601C490880EF
:103150001CA010210B46B422CDE90010E62141202D
:10316000FEF74AFC4FF478401549088019A0102159
:103170000B46B422CDE90010FA214120FEF73CFCB9
:103180004BF6F7500E49088016A010210B46B422CA
:10319000CDE900104FF4DC714620FEF72DFC0EBD8A
:1031A0002000002053797374656D2053657400000E
:1031B00053797374656D20436F6E66696700000014
:1031C0001E0000204C4C3A204272696768746E659C
:1031D00073732B00524C3A204272696768746E65B3
:1031E00073732D005072657373204241434B2074FA
:1031F0006F204578697400000EB5FFF721FE40F698
:1032000041002049088020A0FFF7A6FB4FF6FF7081
:1032100020A140F25D529623CDE900210290C82200
:1032200064213C20FFF762FD00F050FF4FF4FC608A
:103230001B4908801BA010210B46B422CDE90010C9
:10324000C3215520FEF7D8FB4FF47840144908807D
:1032500017A010210B46B422CDE90010D72155202C
:10326000FEF7CAFB4BF6F7500D49088013A010215A
:103270000B46B422CDE900104FF4DC714620FEF776
:10328000BBFB0EBD20000020576F726B204D6F649A
:10329000650000004D6F64652053656C65637400C4
:1032A0001E0000204C4C3A204D6F6E69746F720006
:1032B000524C3A20536572766963650050726573AB
:1032C00073204241434B20746F204578697400009D
:1032D00010B540F64100FDF739FF002003490870A2
:1032E00001200349087000F0AFF910BD2400002050
:1032F0002600002010B52548007810B101283FD1E4
:1033000009E00120214908700020214908700120AE
:103310002049087035E01E48007809282AD2DFE8E5
:1033200000F005090D1115191D212500022017496E
:10333000087020E00320154908701CE004201349A0
:10334000087018E005201149087014E006200F49A4
:10335000087010E007200D4908700CE008200B49A8
:10336000087008E009200949087004E00A200749AC
:10337000087000E000BF00BF01200649087000E0AF
:1033800000BF00BF00F060F910BD00002400002065
:10339000250000202600002010B53E4800780B28AC
:1033A00074D2DFE800F07306373D1B27732D494FB9
:1033B00062003948007800280FDD3748047800782B
:1033C000401E3549087000212046FFF763FD0121AA
:1033D00031480078FFF75EFD00BF58E00021022071
:1033E000FEF7D6FF2D488079401C2C49887100F0EB
:1033F00043FD4CE00120FEF7F1FF00F0CDFC46E07C
:1034000001202749087001210520FEF7C1FF00F0C7
:10341000F3F93CE000202349087000F057FE36E045
:1034200021480078022804DA1F480078401C1E4911
:10343000087000F047F92AE001201C49087000F0EC
:1034400073FC24E01A480078052804DA184800784C
:10345000401C1749087016480078032802DB012039
:103460001449087000F0BEFD11E0134800780228EE
:1034700005DA11480078401C0F49087002E000206E
:103480000D49087000F06AFB01E0FFE700BF00BFD4
:1034900010BD00002400002025000020CA000020EC
:1034A0002700002028000020290000202A000020FA
:1034B0002B0000202C0000202D0000207047000071
:1034C00010B5124800780B2817D2DFE800F0160676
:1034D0000A0B0C0D0E0F1011120000200B49087082
:1034E0000CE000BF00BF00BF00BF00BF00BF00BFB7
:1034F00000BF01200549087000E000BF00BF0120A7
:103500000349087000F0A0F810BD0000240000205E
:103510002600002010B5404800780B2878D2DFE85C
:1035200000F077063B411B2B77314D5366003B483B
:10353000007808280FDA394804780078401C3749A9
:10354000087000212046FFF7A5FC012133480078D0
:10355000FFF7A0FC00BF5CE000210320FEF718FF8E
:103560002F488079002804DD2D488079401E2C49A1
:10357000887100F081FC4CE00020FEF72FFF00F086
:103580000BFC46E000202749087000210520FEF7CB
:10359000FFFE00F031F93CE001202349087000F003
:1035A00095FD36E021480078002804DD1F480078AA
:1035B000401E1E49087000F085F82AE000201C49D2
:1035C000087000F0B1FB24E01A480078012804DDFF
:1035D00018480078401E17490870164800780328DC
:1035E00002DA00201449087000F0FCFC11E01348D6
:1035F0000078002806DD11480078401E0F49087049
:1036000003E005E002200D49087000F0A7FA00E091
:1036100000BF00BF10BD00002400002025000020D6
:10362000CA000020270000202800002029000020D8
:103630002A0000202B0000202C0000202D0000205C
:1036400010B500F001F810BD10B51C48007800B9A5
:1036500010BD1B4800780B2828D2DFE800F00609CF
:103660000C0F1215181B1E212400FFF7BFF91EE0D6
:10367000FFF794FC1BE0FFF7BFFD18E0FEF7BCFE70
:1036800015E0FFF7D5FC12E0FFF7EAF80FE0FFF7CF
:1036900097FB0CE0FEF722FF09E0FFF773F806E066
:1036A000FFF738FD03E0FEF7FBFF00E000BF00BFBF
:1036B00000200249087000BFCAE700002600002071
:1036C0002400002070B58AB03048007818B95A2616
:1036D0002D2482250AE02D480078012803D15C269C
:1036E00032248C2502E05E26372496254FF6FF70A3
:1036F0002749088040F64100264908802348007881
:1037000050B925A010210B46B422CDE900108C2120
:103710004120FEF771F918E01C48007801280AD111
:1037200022A010210B46B422CDE900108C214120AB
:10373000FEF762F909E022A010210B46B422CDE980
:1037400000108C214120FEF757F9324621A102A832
:1037500000F0ACFE02A810210B46B422CDE9001007
:10376000A8214120FEF748F92B4622461DA102A8B8
:1037700000F09CFE02A810210B46B422CDE90010F7
:10378000BE214120FEF738F90AB070BD29000020A3
:103790001E0000202000002050726F66696C653AA0
:1037A000204C6F77202020200000000050726F66B0
:1037B000696C653A204D656469756D2000000000F4
:1037C00050726F66696C653A2048696768202020EE
:1037D0000000000053704F32204C6F773A20256470
:1037E000202020004852204D696E2F4D61783A25E7
:1037F000642F2564000000001CB54FF6FF700F49D0
:10380000088040F641000E4908800E48007850B10B
:103810000DA010210B46A022CDE90010AA215020B6
:10382000FEF7EAF809E00CA010210B46A022CDE932
:103830000010AA215020FEF7DFF81CBD1E0000205A
:10384000200000202700002043757272656E743AD4
:10385000204F4E202000000043757272656E743A4E
:10386000204F46462000000030B587B004460CB912
:1038700007B030BDE07928B99248C07910B19148BD
:10388000C079E071207A28B98E48007A10B18D484D
:10389000007A2072A079FF2806D18A488079FF2813
:1038A00002D088488079A0718748007800287DD1AF
:1038B0000025844800782178884200D0012581487D
:1038C00040786178884200D001257E488078A178D0
:1038D000884200D001257B48C078E178884200D03A
:1038E000012578488088A188884200D00125754844
:1038F000C079E179884200D001257248007A217AA6
:10390000884200D001256F488079A179884200D093
:1039100001253DB96B4821680160616841602189DA
:103920000181A5E740F2FF706849088041F2A200DA
:1039300067490880207820B966A102A800F0B6FD8A
:1039400004E0227866A102A800F0B0FD02A81021D0
:103950000B46C822CDE900104E211820FEF74CF886
:103960004FF4FC605949088041F2A2005849088090
:10397000607820B95DA102A800F098FD04E06278AB
:103980005DA102A800F092FD02A810210B46C822FA
:10399000CDE900109E211820FEF72EF84FF6E070BA
:1039A0004A49088041F2A200494900E072E00880DB
:1039B000A07830B9E07820B952A102A800F076FDD5
:1039C00005E0A378E27853A102A800F06FFD02A8F9
:1039D00010210B46DC22CDE90010EE211820FEF765
:1039E0000BF84FF6E0703949088041F2A2003849DF
:1039F0000880A2884BA102A800F058FD02A810215F
:103A00000B465422CDE900104FF49B711820FDF7AE
:103A1000F3FF48F230402D49088041F2A2002C49C2
:103A20000880237AE27942A102A800F03FFD02A8B3
:103A300010210B466022CDE900104FF49B717820D5
:103A4000FDF7DAFF48F230402049088041F2A20039
:103A50001F490880A079FF2804D13AA102A800F0EC
:103A600025FD04E0A2793AA102A800F01FFD02A8FA
:103A700010210B464022CDE900104FF49B71F0203D
:103A8000FDF7BAFF0F482168016061684160218934
:103A9000018115E00B48216801606168416021895E
:103AA000018109480078062802D00A2806D102E0E0
:103AB00000F056FA03E000F051F800E000BF00BF4C
:103AC00000BFD5E6CA000020240000201E00002010
:103AD0002000002053504F323A202D2D202000008E
:103AE00053504F323A2025336420000050523A2080
:103AF00020202D2D2020000050523A202025336414
:103B000020200000504920523A2D2D20493A2D2DD9
:103B100020000000504920523A25326420493A25BD
:103B200032642000523A202564202020200000002A
:103B300050574D20523A256420493A2564202020D0
:103B4000000000004761696E3A202D2D2020000002
:103B50004761696E3A2025642020200000B58BB0B3
:103B60004FF6FF704849088040F6410047490880F9
:103B70004748007810B1012857D12AE045A010210C
:103B80000B46B422CDE9001078213220FDF734FF36
:103B90004448027844A103A800F088FC03A810213F
:103BA0000B46B422CDE9001094213220FDF724FF0A
:103BB0003C48427840A103A800F078FC03A81021FB
:103BC0000B46B422CDE90010AA213220FDF714FFE4
:103BD00057E03DA010210B46B422CDE9001078211A
:103BE0003220FDF709FF2F488378C2783AA103A855
:103BF00000F05CFC03A810210B46B422CDE90010B4
:103C000094213220FDF7F8FE2648828836A103A8C9
:103C100000F04CFC03A810210B46B422CDE90010A3
:103C2000AA213220FDF7E8FE2BE033A010210B463D
:103C3000B422CDE9001078213220FDF7DDFE1948CD
:103C4000037AC27930A103A800F030FC03A8102148
:103C50000B46B422CDE9001094213220FDF7CCFEB2
:103C6000104882792CA103A800F020FC03A81021A1
:103C70000B46B422CDE90010AA213220FDF7BCFE8C
:103C800000BF00BF0BB000BD1E00002020000020C0
:103C90002D0000205061676520313A2053504F328B
:103CA0002F505200CA00002053504F323A20256452
:103CB000202020200000000050523A2025642020BF
:103CC00020202020000000005061676520323A204B
:103CD00050492F5200000000504920523A256420DC
:103CE000493A256420202000523A202564202020D3
:103CF00020202020202000005061676520333A20DA
:103D0000447269766500000050574D20523A256490
:103D100020493A25642020004761696E3A202564D5
:103D200020202020202020001CB54FF6FF700F49D6
:103D3000088040F641000E4908800E48007850B1D6
:103D40000DA010210B46AA22CDE9001011465020EB
:103D5000FDF752FE09E00CA010210B46AA22CDE986
:103D6000001011465020FDF747FE1CBD1E0000202C
:103D7000200000202A00002043757272656E743A9C
:103D8000204F4E202020000043757272656E743AF9
:103D9000204F4646202000001CB54FF6FF700F490B
:103DA000088040F641000E490880FEF7B9FA50B18C
:103DB0000CA010210B46A022CDE90010AA21502012
:103DC000FDF71AFE09E00BA010210B46A022CDE959
:103DD0000010AA215020FDF70FFE1CBD1E00002080
:103DE0002000002043757272656E743A204F4E2099
:103DF0002000000043757272656E743A204F46468B
:103E00002000000010B588B004461448847114489E
:103E1000007810B104281DD119E048F23040114952
:103E2000088041F2A200104908800C4882790FA155
:103E300003A800F03BFB03A810210B464022CDE96C
:103E400000104FF49B71F020FDF7D6FD03E000F069
:103E500013F800E000BF00BF08B010BDCA0000208A
:103E6000240000201E000020200000204761696E11
:103E70003A2025642020200000B58BB04FF6FF705B
:103E80000B49088040F641000A4908800A488279B7
:103E90000AA103A800F00AFB03A810210B46A022E8
:103EA000CDE90010AA215020FDF7A6FD0BB000BD02
:103EB0001E00002020000020CA00002043757272FE
:103EC000656E74204C6576656C3A20256420202050
:103ED0000000000030B587B004460D4614B90DB996
:103EE00007B030BD1548C47105721548007810B18F
:103EF00006281ED11AE048F230401249088041F2EB
:103F0000A200114908800D48037AC2790FA102A8C6
:103F100000F0CCFA02A810210B466022CDE9001077
:103F20004FF49B717820FDF767FD03E000F018F86F
:103F300000E000BF00BF00BFD2E70000CA000020C1
:103F4000240000201E0000202000002050574D209B
:103F5000523A256420493A256420202000000000C0
:103F600000B58BB04FF6FF701449088040F6410051
:103F7000134908801348828813A103A800F096FA19
:103F800003A810210B467822CDE90010AA21642055
:103F9000FDF732FD0B48037AC2790EA103A800F0A9
:103FA00085FA03A810210B46A022CDE90010C321F9
:103FB0004620FDF721FD0BB000BD00001E000020D3
:103FC00020000020CA000020523A20256420202032
:103FD0002000000050574D20523A256420493A25D0
:103FE0006420000000B58BB04FF6FF7017490880C1
:103FF00040F64100164908801648027816A103A829
:1040000000F054FA03A810210B46B422CDE90010A9
:10401000A0214120FDF7F0FC1448007850B114A015
:1040200010210B46B422CDE90010BC214120FDF740
:10403000E3FC09E012A010210B46B422CDE90010E8
:10404000BC214120FDF7D8FC0BB000BD1E000020B4
:10405000200000202B0000204272696768746E65A2
:1040600073733A2025642020200000002C000020DB
:104070004B657920426565703A204F4E2000000064
:104080004B657920426565703A204F464600000036
:1040900010B50446204600F01FF90A48007878B9A8
:1040A00009480078401C0849087008460078042830
:1040B00000DA10BD002004490870204600F042F8E4
:1040C00000BFF6E7240000203D0000201CB54FF69D
:1040D000FF700F49088040F641000E4908800E48E5
:1040E000007850B90DA010210B46AA22CDE900108E
:1040F00096215020FDF780FC09E00DA010210B4611
:10410000AA22CDE9001096215020FDF775FC1CBDB8
:104110001E0000202000002028000020437572723D
:10412000656E743A204D6F6E69746F7220000000E6
:1041300043757272656E743A205365727669636571
:10414000200000002DE9F14F82B04448007808B902
:10415000BDE8FE8F4248007820B900F08DF80120BC
:104160003F49087002984FEA002A3E4800684FEA2B
:104170002029B9F1080F01DA4FF008092B243A4839
:104180000068AAEB000060434FEA092190FBF1F6BA
:10419000A64200DD26466042864200DA664240F2D0
:1041A0009F18A8EB060087B230480088143085B20B
:1041B0002E480088C8B941F2A20040F2CB1340F269
:1041C0002B124FF4B97100901420FDF7B3F846F6A6
:1041D0006D3027490880434640F22B124146142097
:1041E000FDF710F82348078029E0681C1FFA80FBC0
:1041F000BBF5967F01DB40F22B1B41F2A20040F29F
:10420000CB135A464FF4B97100902846FDF792F847
:1042100046F66D301649088041462846FDF74CF8B1
:1042200040F2FF7012490880A91E88B23B462A4618
:1042300010490988FCF7E6FF0E48078000BF0B48CD
:104240000088801C0949088008460088B0F58C7FEA
:1042500001DB0020088000BF7AE700003C0000205E
:104260002E00002038000020340000203000002004
:104270001E0000203200002008B5002011490870FF
:104280001149088040F29F10104908800020104911
:10429000087041F2A20040F2CB1340F22B124FF40F
:1042A000B97100901420FDF745F846F66D300949C4
:1042B000088040F29F1340F22B1219461420FCF79D
:1042C000A1FF08BD2E000020300000203200002099
:1042D0003D0000201E00002010B502461102164BC2
:1042E0001B7843B9154B19604FF40063144C2360DD
:1042F0000123114C2370114B1B68CB1A0F4C2468FF
:1043000004EB63130D4C236023461B68C81A002876
:1043100000DA40420A4B1B68C31A094C246804EBBC
:104320002313074C236023461B68B3F5006F02DAA2
:104330004FF40063236010BD3C00002034000020D7
:104340003800002008B5002000901F491F4801F0E8
:1043500078FC78B11C491D4801F066FC2520FDF76A
:1043600045FC1A4801F0E0FBC0B200909DF8000047
:1043700000F076F81649154801F063FC012806D1D3
:104380001349124801F050FC104801F0CDFB1149CF
:104390000E4801F056FCB0B12520FDF727FC684619
:1043A000FDF74CFD9DF80010084801F0C2FB0A48DB
:1043B000FDF73DFD38B100200849087040F2073193
:1043C000024801F017FC08BD050305000038014054
:1043D000000503000703070068220020B00000204A
:1043E00010B51949194801F02CFC70B1174801F0BB
:1043F0009BFBC4B2204600F03FF82046FDF796FF35
:104400001149124801F010FC00BF11490F4801F09A
:1044100018FC30B10D4801F087FB0D490B4801F045
:1044200003FC0C49094801F00CFC18B10949074884
:1044300001F0FAFB0849054801F003FC18B10649F0
:10444000024801F0F1FB10BD0503050000440040E7
:1044500000050300000502000005010000BFFEE7A3
:1044600031B50024012269460248FCF74BFCC4B276
:10447000204638BD7422002001B501226946024859
:10448000FCF740FCC0B208BD081A00200FB4054B71
:1044900010B503A9044A029800F02CF810BC5DF88E
:1044A00014FB0000754A0008AC0000200FB4084B54
:1044B00010B504A902AA039800F01CF8044602A94A
:1044C000002000F048FA204610BC5DF814FB000004
:1044D0005749000802E008C8121F08C1002AFAD193
:1044E00070477047002001E001C1121F002AFBD174
:1044F000704700002DE9FF4F8DB00F46054600269E
:1045000006E025280BD0DDE90F1290476D1C761CC4
:1045100028780028F5D111B03046BDE8F08F00248E
:10452000A246A1460122EC4900E0044315F8013FF0
:10453000203B02FA03F00842F7D128782A2810D04D
:104540006FF02F022878A0F13001092914D80AEB66
:104550008A0102EB410144F0020400EB010A6D1CE8
:10456000F0E701CF5FEA000A03D544F40054CAF132
:10457000000A44F002046D1C28782E2817D115F883
:10458000010F44F004042A280ED06FF02F0228787F
:10459000A0F1300109290AD809EB890102EB410198
:1045A00000EB01096D1CF2E757F8049B6D1C28789D
:1045B0006C280FD006DC4C2817D068280DD06A284C
:1045C00014D104E0742810D07A280FD10DE044F4FF
:1045D00000140AE044F4801401E044F440146978C3
:1045E000814202D104F580146D1C6D1C2A786E2A5C
:1045F0001FD00CDC632A31D004DC002A8BD0582A6F
:1046000011D1A3E0642A68D0692A0CD165E0732A2D
:104610002ED004DC6F2A73D0702A04D19BE0752A57
:104620006FD0782A6ED01046DDE90F129047761CC5
:1046300050E1C4F30250022806D0032809D0042810
:1046400001CF09D0066045E101CFF117C0E9006153
:1046500040E101CF06803DE106703BE117F8040B15
:104660008DF8000000208DF80100EB46012003E0EA
:1046700057F804BB4FF0FF3061074FF0000102D440
:104680000DE008F10101884649450FDA8045F8DB65
:104690001BF808100029F4D108E008F10101884650
:1046A0008142FADB1BF808100029F6D1DDE90F235F
:1046B000AAEB08008146214600F036F9304400EBB1
:1046C000080604E0DDE90F121BF8010B9047B8F172
:1046D0000108F7D221464846F7E00A21C4F3025305
:1046E0004FF0000B0891022B04D001CFC117032B10
:1046F00009D00AE0FF1D27F00707F7E8020108E0EC
:1047000032E01FE020E000B2C117042B01D140B21B
:10471000C117031E71F1000307DA4FF0000CD0EB54
:104720000C006CEB01012D2302E0230504D52B23A3
:104730008DF82430012303E0E30701D02023F7E7BD
:10474000984658E00A2110E010210EE010204FF0AA
:10475000000B08900CE010214FF0000B44F0040413
:104760004FF00809089103E008214FF0000B089171
:10477000C4F30253022B04D001CF0021032B06D037
:1047800006E0FF1D27F00707F7E8020103E080B20B
:10479000042B00D1C0B24FF0000823072BD5702A9C
:1047A00007D0DDF820C08CF0100C5CEA0B0C05D0B3
:1047B0000EE040238DF82430012308E050EA010385
:1047C00006D030238DF824308DF82520022398461A
:1047D000DDF820C08CF0080C5CEA0B0C0BD150EA21
:1047E000010301D1630706D530238DF824304FF043
:1047F0000108A9F10109582A04D038A20B9208AA8D
:104800000A920BE03AA2F9E75B46089AFBF780FDB3
:104810000B9B9B5C0A9A521E0A92137050EA01028B
:10482000F2D10A98ADEB000000F1200B600702D531
:1048300024F4803401E04FF00109D94502DDA9EBF1
:104840000B0000E0002000EB0B0141440890AAEBB4
:10485000010AE00306D4DDE90F232146504600F0AB
:1048600063F806444FF0000908E009A911F80900AF
:10487000DDE90F12904709F10109761CC145F4DB0F
:10488000E0030CD5DDE90F232146504600F04CF83B
:10489000064404E0DDE90F1230209047761C0899A9
:1048A000481E08900029F5DC08E00A980A9900786B
:1048B000491C0A91DDE90F129047761CBBF10001FB
:1048C000ABF1010BF1DC21465046DDE90F2300F08E
:1048D00019F806446D1C1BE60928010030313233FB
:1048E000343536373839616263646566000000002C
:1048F0003031323334353637383941424344454616
:10490000000000002DE9F041044600251E46174630
:10491000880404D405E039462020B0476D1C641E8D
:10492000F9D52846BDE8F0812DE9F041044600257F
:104930001E469046C80301D5302700E02027880492
:1049400004D505E041463846B0476D1C641EF9D5D4
:104950002846BDE8F0810A68531C0B601070704750
:10496000014604480068084008B101207047002053
:10497000FCE700001404014010B52C4B1B68834376
:104980002A4C2360231D1B688343241D2360231DA1
:104990001B688343241D2360231D1B688343241D40
:1049A000236011B101290ED105E0204B1B680343A0
:1049B0001E4C236008E01D4B1B1D1B6803431B4C52
:1049C000241D236000E000BF00BF22B1012A0FD0E8
:1049D000022A27D119E0154B08331B680343134CF7
:1049E00008342360231D1B688343241D23601AE0C1
:1049F0000E4B08331B6883430C4C08342360231D83
:104A00001B680343241D23600DE0084B08331B681B
:104A10000343064C08342360231D1B680343241DF5
:104A2000236000E000BF00BF10BD00000004014093
:104A3000024909688143014A11607047000401403E
:104A4000024909680143014A1160704700040140AE
:104A5000014908607047000014040140044A1168CD
:104A600021F0070141EA0002014B1A607047000083
:104A70000020024070B504460D46E1B2054801F041
:104A800058F800BF0721034801F0A5F80028F9D025
:104A9000204670BD00380140416170470161704798
:104AA0000AB1016100E041617047000010B50022C9
:104AB0008B071C0F0F2303FA04F204290EDA204B94
:104AC0009B6893431E4CA36023469B688C07240F6E
:104AD00000FA04F423431A4CA3602FE008290EDAED
:104AE000174BDB689343164CE3602346DB688C0767
:104AF000240F00FA04F42343114CE3601EE00C2958
:104B00000EDA0F4B1B6993430D4C236123461B693F
:104B10008C07240F00FA04F42343094C23610DE0B1
:104B2000074B5B699343064C636123465B698C07C3
:104B3000240F00FA04F42343014C636110BD00000C
:104B400000000140F0B5044616460025002201F0A1
:104B50000F0501F0100747B1042E05D145F00305FC
:104B6000E76B1F43E76300E0354300201EE00127A9
:104B700087401F40C7B122684FEA800C0F2707FA11
:104B80000CF7BA43870005FA07F73A43282904D1FE
:104B9000012787401F40676105E0482903D10127AD
:104BA00087401F4027612260471CB8B20828DED327
:104BB000082022E0012787401F40E7B16268A0F18A
:104BC00008074FEA870C0F2707FA0CF7BA43A0F142
:104BD0000807BF0005FA07F73A43282904D101273F
:104BE00087401F40676105E0482903D101278740BE
:104BF0001F4027616260471CB8B21028DAD3F0BDAD
:104C000002469068084008B1012070470020FCE788
:104C10000146886880B270470246D068084008B1F3
:104C2000012070470020FCE70146C86880B2704749
:104C3000C160704770B5002300241E4A1278002A14
:104C400001DD1D4A54784CB1051B2AB2002A01DA55
:104C500055422AB2142A00DD70BD00BF174A184D14
:104C60002D7822F81500134A1278052A04DA114A21
:104C70001278521C0F4D2A70114A1278521C0525C9
:104C800092FBF5F605FB16220D4D2A70002105E07A
:104C90000A4A32F8112013444A1C91B2054A12788C
:104CA0009142F5DB034A1278B3FBF2F2024D6A70CF
:104CB00000BFD1E78D000020D4190020E0190020AA
:104CC0008C00002030B5014600BF00BF00BF00BF10
:104CD00000BF00BF40F2F7534B43134C246800253C
:104CE00005FB0433114C2468114D05FB0433114CB2
:104CF000246847F65C7505FB14330F4C24680F4D90
:104D000005FB1432D31702EB5343D813064A12683B
:104D1000064B1A60044A1160064A1268064B1A6074
:104D2000044A106030BD00007400002078000020AC
:104D300009FAFFFF6C00002070000020B388FFFF1D
:104D400030B5014600BF00BF00BF00BF00BF00BFBD
:104D500040F2F7534B43134C2468002505FB043302
:104D6000114C2468114D05FB0433114C246847F69F
:104D70005C7505FB14330F4C24680F4D05FB143292
:104D8000D31702EB5343D813064A1268064B1A6036
:104D9000044A1160064A1268064B1A60044A106001
:104DA00030BD0000840000208800002009FAFFFFC9
:104DB0007C00002080000020B388FFFF88B0FBF754
:104DC000D3FFFCF724F82EA0FFF760FB35A0FFF718
:104DD0005DFB38A0FFF75AFB39A0FFF757FB3CA05B
:104DE000FFF754FB3EA0FFF751FB41A0FFF74EFB3E
:104DF00045E0FBF7B1FF18B1FCF7CEF8FBF7E4FC98
:104E0000FDF7B4FAFDF7C6F803A804AB05AA06A996
:104E1000009007A8FDF72CF840B39DF81C008DF812
:104E200000009DF818008DF801009DF814008DF821
:104E300002009DF810008DF803009DED030ADFEDE0
:104E4000330A20EE200ABCEEC00A10EE100A80B22F
:104E5000ADF80400FF208DF8060000208DF8070053
:104E60008DF808006846FEF7FFFC00BFFBF76EFFF9
:104E700018B1FCF7B2FFFBF7A1FCFEF7E1FBB8E7C6
:104E8000496E69742053797374656D20686173206D
:104E90006265656E2066696E69736865642E0D0AC9
:104EA000000000007B7B312C53504F327D7D0D0A7A
:104EB000000000007B7B322C48527D7D0D0A0000F3
:104EC0007B7B332C50495F49527D7D0D0A000000E9
:104ED0007B7B342C525F56616C7D7D0D0A00000097
:104EE0007B7B352C4761696E7D7D0D0A00000000DB
:104EF0004C434420446973706C6179205465737429
:104F00002053746172742E0D0A00000000007A4470
:104F10002DE9F04103460D46164600240027A04621
:104F20002A48006800F4E060B0F5E06F03D100BFEC
:104F30004FF0040830E02548006800F4E060B0F568
:104F4000C06F03D101274FF0030825E01F48006818
:104F500000F4E060B0F5A06F02D10227B8461BE074
:104F60001A48006800F4E060B0F5806F03D10327B1
:104F70004FF0010810E01548006800F4E060B0F55B
:104F8000407F03D104274FF0000805E04FF4A060F4
:104F900000F020F80227B846C7F1040005FA00F433
:104FA000C8F104010F20C8403040044324010848E0
:104FB000C45403F01F01012088405911890001F1F8
:104FC000E021C1F80001BDE8F08100000CED00E037
:104FD00000E400E002490143024A1160704700000A
:104FE0000000FA050CED00E0FFF744BD044A5168EB
:104FF00021F0F00141EA0002014B5A6070470000C5
:1050000000100240044A516821F4E06141EA0002C4
:10501000014B5A607047000000100240044A51687A
:1050200021F4605141EA0002014B5A6070470000D0
:10503000001002402DE9F04F8CB0074600200A9086
:105040004AA090E8004CC068CDE905BECDF810A09C
:1050500007900FF21C1ADAE9000ACDE9020A0FF2F2
:10506000101ADAE9000ACDE9000A44484068C0F3A2
:1050700081000B900B9820B1012804D002283FD169
:1050800003E03F4A3EE03E4A3CE03C48406800F4D2
:10509000803CBCF5803F12D13848C06A00F080489F
:1050A000B8F1000F01D1364C00E0364C334840686F
:1050B00000F40039B9F5003F02D1334C00E0324C26
:1050C0002E484068C0F383412C48406800F00060DF
:1050D00008B141F010012948406800F0804008B153
:1050E00041F020010F2901D2891C06E00F2903D3CA
:1050F0003E2901D8491C00E03F2104FB01F201E0F8
:105100001F4A00BF00BF1D484068C0F3031504A834
:10511000465D22FA06F319484068C0F3022502A84A
:10512000465D23FA06F0099014484068C0F3C22592
:105130001DF8056023FA06F0089037B1012F06D05C
:10514000022F06D0032F0AD106E00A9208E00A9344
:1051500006E009980A9003E008980A9000E000BF72
:1051600000BF0A980CB0BDE8F08F000000000000FE
:1051700000000000010203040607080900100240B5
:1051800000127A00006CDC0200093D0000B51148F5
:10519000006840F001000F490860002000F042F86C
:1051A0000C4840680C4908400A49486008460068B5
:1051B0000A490840074908600846006820F4802032
:1051C00008604FF41F0088600846C06A20F0C040A5
:1051D000C86200BD001002400C000020FFFFF6FE78
:1051E0000146074A02EB9110006801F01F030122FB
:1051F0009A40104008B1012070470020FCE70000F1
:1052000000100240064A02EB9011096800F01F03EB
:1052100001229A401143024B03EB90121160704738
:1052200000100240F0B50646002400270025B6F520
:10523000006F1FD005DC86B3102E0BD0182E72D154
:1052400060E0B6F5106F4BD0A6F54050103800283E
:1052500069D133E004E01120FFF7C2FF0546641C6A
:1052600015B9B4F5006FF6D11120FFF7B9FF00B101
:10527000012759E005E040F60100FFF7B1FF0546C0
:10528000641C1DB96FF07C408442F4D140F60100EB
:10529000FFF7A6FF00B1012746E0FFE704E0012089
:1052A000FFF79EFF0546641C15B9B4F5A06FF6D153
:1052B0000120FFF795FF00B1012735E005E043F23B
:1052C0001100FFF78DFF0546641C15B9184884428C
:1052D000F5D143F21100FFF783FF00B1012723E06E
:1052E00005E040F60110FFF77BFF0546641C15B989
:1052F0000F488442F5D140F60110FFF771FF00B16D
:10530000012711E004E01920FFF76AFF0546641C3D
:1053100015B907488442F6D11920FFF761FF00B1A3
:10532000012701E0FFE700BF00BF3846F0BD0000E5
:10533000FFFF0F00064A02EB9011096800F01F03FF
:1053400001229A401143024B03EB90121160704707
:1053500000100240064A02EB9011096800F01F039A
:1053600001229A409143024B03EB90121160704767
:1053700000100240064A02EB9011096800F01F037A
:1053800001229A401143024B03EB901211607047C7
:105390000010024002460020044B5868044B18409D
:1053A00042EA01031843014B586070470010024065
:1053B000FFFFC2B701460020034AD06A20F08040B8
:1053C0000843D062704700000010024001460020F0
:1053D000054A506820F40030012901D140F4003022
:1053E000014A50607047000000100240044A5168B2
:1053F00021F0030141EA0002014B5A6070470000AE
:10540000001002400248406800F00C0070470000A5
:10541000001002402DE9FF4F92B004461D4682481D
:105420001190C0F1000C0615002300200290814667
:10543000019000211AE0139800F21F30401A4FF437
:10544000487A90FBFAFB0AFB1B0082B254F822A0B8
:105450001198824502DD54F82200119054F8220080
:10546000604501DA54F822C0481C81B21498814288
:10547000E1DB1198A0EB0C000F900F980A2804DADA
:105480000020288016B0BDE8F08F0F9800EB400098
:105490004FF0050A90FBFAF060441090022148E0BA
:1054A000139800F21F30401A4FF4487A90FBFAFB31
:1054B0000AFB1B0082B202F21F3090FBFAFB0AFBD0
:1054C0001B0080B20E90501C90FBFAFB0AFB1B00E5
:1054D00080B20D9054F822A01098824527DD54F830
:1054E00022A00E9854F82000824520DD54F822A016
:1054F0000D9854F82000824519DD701C18B1B0B227
:10550000081A1C2813DB701C80B1881B87B21C2F63
:105510000CDBC82F0ADC142B08DA184603F1010A49
:105520001FFA8AF30DF10C0A2AF810700E46481C77
:1055300081B21498801E8842B2DC022B02DA00206D
:1055400028809FE700212AE0002020E00DF10C0ACE
:105550003AF810A00DF10C0B00F1010E3BF81EB053
:10556000DA4510DD0DF10C0A3AF810A0CDF800A0D4
:105570000DF10C0BF2463BF81AA02BF810A0DDF849
:1055800000A02BF81EA000F1010A1FFA8AF0A3EB7D
:10559000010AAAF1010A8245D8DC481C81B2581ED2
:1055A0008842D1DC184603EBD07A4FEA6A0A0DF143
:1055B0000C0B3BF81A80002120E00DF10C0A3AF8A0
:1055C00011A0AAEB0800002800DA40424FF0640A5C
:1055D00000FB0AFA9AFBF8FABAF1190F0CDC0DF18C
:1055E0000C0A3AF811B0DDF808A0DA44CDF808A0AA
:1055F00009F1010A1FFA8AF9481C81B29942DCDBE1
:10560000B9F1020F02DA002028803BE70298B0FBD4
:10561000F9F02880288841F2707A9AFBF0F0C0B245
:10562000019001982EE70000C0BDF0FF2DE9F04F7A
:105630000446904609AD95E8E010DFF89C90C5F867
:105640000090C9F10009C6F80090DFF88C90C7F807
:105650000090C9F10009CCF80090002237E008F270
:105660001F39A9EB02094FF4487A99FBFAFB0AFBB0
:105670001B991FFA89F054F82090D5F800A0D14565
:1056800003DD54F82090C5F8009054F82090D6F827
:1056900000A0D14503DA54F82090C6F8009051F8E4
:1056A0002090D7F800A0D14503DD51F82090C7F82D
:1056B000009051F82090DCF800A0D14503DA51F8B1
:1056C0002090CCF8009002F101091FFA89F29A4269
:1056D000C5DBBDE8F08F0000C0BDF0FF2DE9F05F35
:1056E00006460F46904699464FF0000AD3460025DD
:1056F0003846FFF79FFA2C482C49097820F81160AA
:105700002B482A49097820F811802A49274A12781B
:105710000A9821F8120028480078052804DA26485B
:105720000078401C2449087020480078401C05215E
:1057300090FBF1F201FB12001C49087000240DE0FF
:10574000194830F814008244194830F81400834492
:10575000184830F814000544601C84B216480078DC
:105760008442EDDB14480078BAFBF0F0134908706E
:1057700011480078BBFBF0F0887081F803900E4868
:10578000007800EE100AB8EE400ADFED0D0A60EE78
:10579000200A00EE105AB8EE400A80EE201A0846A1
:1057A00080ED011ABDE8F09FEA1900208F0000206B
:1057B000F4190020FE1900208E000020D4190020CA
:1057C00000007A44002000213E4A126842F48032F0
:1057D0003C4B1A6000BF401C3A4A126802F4003188
:1057E00011B9B0F5006FF6D1364A126802F40032F2
:1057F0000AB900BFFEE7334AD26942F08052314B0A
:10580000DA61314A126842F440422F4B1A602D4A45
:1058100052682C4B5A601A4652685A601A465268AF
:1058200042F480625A601A46526822F440325A604A
:105830001A46526842F440325A601A465268234B64
:105840001A40204B5A601A465268214B1A431D4B8E
:105850005A601A46126842F080721A6000BF194AF4
:10586000126802F00072002AF9D0174A126842F456
:105870008032154B1A6000BF134A526802F480321E
:10588000002AF9D0104A126842F400320E4B1A6016
:1058900000BF0D4A526802F40032002AF9D0094ACA
:1058A000526822F00302074B5A601A46526842F0CF
:1058B00002025A6000BF034A526802F00802002A3E
:1058C000F9D070470010024000700040FFFFC3B7DE
:1058D0000000340810B5FFF775FF10BD10B5044681
:1058E0003349601A8C4244D00CDCB4F1804F1CD098
:1058F0003048204410B3B0F5806F28D0B0F5006F69
:1059000052D12DE0B0F5806F3CD0B0F58E3F03D082
:10591000B0F5923F48D13EE040F20B30FFF72AFD50
:1059200040F20B30FFF716FD3FE04FF48060FFF7C9
:1059300021FD4FF48060FFF70DFD36E040F201409D
:10594000FFF718FD40F20140FFF704FD2DE040F2A3
:105950000240FFF70FFD40F20240FFF7FBFC24E09E
:1059600040F20340FFF706FD40F20340FFF7F2FC70
:105970001BE040F20440FFF7FDFC40F20440FFF75B
:10598000E9FC12E040F20540FFF7F4FC40F205406C
:10599000FFF7E0FC09E040F20D30FFF7EBFC40F2CE
:1059A0000D30FFF7D7FC00E000BF00BF10BD0000C6
:1059B0000010004000FCFFBF016841F001010160E0
:1059C000704700000A8882621D4A90420ED0B0F1F2
:1059D000804F0BD01B4A904208D01B4A904205D002
:1059E0001A4A904202D01A4A90420BD1026822F021
:1059F0007002026002684B881A43026002688B885A
:105A00001A4302608A68C262124A90420AD0124A5D
:105A1000904207D0026822F4407202600268CB888C
:105A20001A430260064A904202D0094A904201D1CC
:105A30000A7B0263426942F0010242617047000042
:105A4000002C01400004004000080040000C004011
:105A5000003401400010004000140040C2680A43B6
:105A6000C2607047CA43026170470246D06800EACC
:105A700001031069084010B10BB1012070470020EC
:105A8000FCE700210180418081804FF6FF71816039
:105A90000021C180017370472DE9F04704460D468F
:105AA0000027B846B94600261D49601A8C421CD012
:105AB00006DC1C48204470B1B0F5806F1FD10FE0A8
:105AC000B0F5806F16D0B0F56C4F18D10320FFF7FA
:105AD000B1FA074614E00220FFF7ACFA07460FE0E0
