:020000040800F2
:10000000502A002045010008E91B0008650D000882
:10001000E51B0008B90700080136000800000000D1
:10002000000000000000000000000000AD210008FA
:10003000C10B000800000000E51D0008AF2100080A
:100040005F0100085F0100085F0100085F01000810
:100050005F0100085F0100085F0100085F01000800
:100060005F010008390C0008650C00085F010008FA
:100070005F0100085F0100085F0100085F010008E0
:100080005F0100085F0100085F0100085F010008D0
:100090005F0100085F0100085F010008910C000883
:1000A0005F0100085F0100085F0100085F010008B0
:1000B0005F010008092200085F0100085F010008D5
:1000C0005F0100085F0100085F0100085F01000890
:1000D0005F010008E9340008853500085F01000869
:1000E000DD0B00085F0100085F0100085F010008E8
:1000F0005F0100085F0100085F0100085F01000860
:100100005F0100085F010008492200085F01000844
:100110005F0100085F0100085F0100085F0100083F
:100120005F0100085F0100085F0100085F0100082F
:10013000DFF80CD000F070F900480047D93D000806
:10014000502A00200648804706480047FEE7FEE7A1
:10015000FEE7FEE7FEE7FEE7FEE7FEE7FEE7FEE777
:10016000B921000831010008D2B201E000F8012BEA
:10017000491EFBD270470022F6E710B513460A4627
:1001800004461946FFF7F0FF204610BD0FB400B536
:100190008DB010A909900B9000914FF0FF300A909C
:1001A00000200C9005480690054807906A4609A86B
:1001B0000F9900F003F90DB05DF814FBD9030008A6
:1001C000F70300082DE9FF5F1D464FF0FF3BD5E91F
:1001D000014691465F464FF00008A9697F1C0198CF
:1001E0008847296A824688470028F6D1BAF1FF3F3E
:1001F0000CD024F4C064002E19DD600614D5BAF1C9
:100200002B0F09D0BAF12D0F0ED103E0584604B0E0
:10021000BDE8F09F44F48064A9697F1C0198884779
:10022000761E8246002E02DDBAF1300F03D0B9F1FE
:10023000000F26D032E0A969761E44F400747F1CBA
:10024000019888478246002E05DDBAF1780F06D066
:10025000BAF1580F03D0B9F1000F10D01EE0B9F178
:10026000000F02D0B9F1100F18D1A969761E24F43D
:1002700000747F1C019888478246102002E0082005
:1002800000E00A20814609E008FB0908A969761EFA
:1002900044F400747F1C019888478246002E05DDD7
:1002A0004946504600F075F80028EDDAE9690198F2
:1002B0008847A00502D46FF00100A8E7E00725D128
:1002C000600613D5600502D5C8F1000000E0404685
:1002D00029680A1D2A600968220501D5087015E001
:1002E000220701D5088011E008600FE02868011D91
:1002F00029600068210502D580F8008006E021070A
:1003000002D5A0F8008001E0C0F8008038467EE702
:100310002DE9F05F0546002092469B46884606463A
:10032000814640241BE0284641464746224600F0CD
:1003300020F853465A46C01A914110D31146184628
:10034000224600F07BF82D1A67EB01084F46224643
:100350000120002100F072F817EB00094E41201E29
:10036000A4F10104DFDC484631462A464346BDE895
:10037000F09F202A04DB203A21FA02F00021704786
:1003800021FA02F3D040C2F12002914008431946FD
:1003900070473A2800D2303820F02002412A01D399
:1003A000A2F13700884201D34FF0FF3070470000C0
:1003B000026811441378016018467047D1600449FF
:1003C00051610449116200211161114600F04AB8DF
:1003D000B10300085B040008426842B1016811F8EB
:1003E000013B23B1521EC0E900121846704701219B
:1003F000C160881E704742685AB1C368016843B93A
:1004000083688B4205D0491E521CC0E900120020AF
:1004100070474FF0FF307047064C074D06E0E0682C
:1004200040F0010394E8070098471034AC42F6D33B
:10043000FFF782FE2454000844540008202A04DBFD
:10044000203A00FA02F1002070479140C2F12003E7
:1004500020FA03F3194390407047C0B24FF4F051B3
:1004600000F096B92DE9F34F8BB04FF0000801F181
:100470000C000C464FF0010B46460DF1080A0190A6
:100480006269012101989047051E2DD0252D2CD0A1
:10049000216A8847C0B16269012101989047216AA9
:1004A00088470028F7D1411E62690198904700E013
:1004B000761CA1690B988847216A88470028F7D1E4
:1004C000E1690B988847DBE7A1690B9888470746E5
:1004D000A84201D1761CD3E7E1690B9888477F1CBD
:1004E00002D1B8F1000F6FD046E1002762693D46A6
:1004F0003946019890472A2804D162690121019860
:1005000090470125DFF884926269012101989047A4
:10051000A0F130010A290AD24F45E5DC07EB87013B
:1005200000EB4107303FDFD445F01005ECE7E9066A
:1005300001D46FF000476C280AD04C2814D06828EA
:1005400015D06A280DD074281CD07A281AD01DE046
:1005500062690121019890476C2802D045F004059A
:1005600014E045F002050DE045F020050AE062695F
:10057000012101989047682802D045F0080505E060
:1005800045F400656269012101989047C4E901576B
:1005900065283DD019DC58287AD00CDC452837D0A6
:1005A00004DC252826D0412831D131E046282FD03F
:1005B00047282CD12CE05B2877D0612828D06328ED
:1005C0007CD0642823D15AE0D0E06F2848D008DCE2
:1005D00066281DD067281BD0692821D06E2816D127
:1005E00027E0702845D0732868D0752847D0782830
:1005F0000DD14DE0A1690B988847054625283FF4A9
:1006000069AFE1690B9888476D1C3FF46AAFB3E0AE
:1006100023466A466FF001000B99AFF300809EE01D
:1006200045F040006060A80723464FF0000236D432
:100630003EE0E8077FF447AF2068011D21600068B5
:10064000290501D506701BE7290701D5068017E7A4
:10065000A90703D5F117C0E9006111E706600FE7AC
:1006600045F040006060A80723464FF0080216D40A
:100670001EE040F60E0125EA0100606016E045F03C
:1006800040006060A80723464FF00A0207D40FE03D
:1006900045F040006060A80708D5234610226FF09F
:1006A00001000B99AFF3008059E007E023461022C8
:1006B0006FF001000B99FFF785FD50E04FF0000946
:1006C0004F464B46632802D05B2806D040E0E80640
:1006D00001D40120A06001273AE06269012101985C
:1006E00090475E2805D14FF001096269494601989B
:1006F0009047216939B900210A46534643F8212021
:10070000491C0829FADBB0B3216969B9C11700EBAC
:10071000D16253110AEB830122F01F02821A0120D9
:100720000B68904003430B60626901210198904778
:100730005D28E8D1B9F1000F09D00020514651F8E9
:100740002020D24341F82020401C0828F7DB02ABD0
:10075000224600976FF001000B99AFF3008000284C
:100760000CDA401C08D1BBF1000F05D04FF0FF3070
:100770000DB0BDE8F08FFFE74046F9E7E90701D18A
:1007800008F1010806444FF0000B79E6CCCCCC0C04
:100790007F2801D9002208E0064A02EB5002C00778
:1007A000127800D1120902F00F0201209040084097
:1007B000704700007A53000800BFFEE7002001499F
:1007C000087070475B0000200020014908707047E6
:1007D0005A00002010B540F2066003F0F9FD40F227
:1007E000046003F0F5FD4FF4C06003F0F1FD082351
:1007F00003224821374803F077FA102303224821C7
:10080000344803F071FA202303224821314803F0D1
:100810006BFA4FF40053032248212F4803F064FA87
:100820004FF40073032248212B4803F05DFA0321A3
:10083000042003F00DFA0421084603F009FA05210B
:10084000042003F005FA0D21022003F001FA09212A
:10085000022003F0FDF901220021082003F05EF9D7
:1008600001220021102003F059F90122002120204B
:1008700003F054F901220021500303F04FF9012243
:100880000021500203F04AF9082003F0B3F91020C8
:1008900003F0B0F9202003F0ADF94FF4005003F05D
:1008A000A9F94FF4007003F0A5F9022211460920BE
:1008B00003F07CFB022211460A2003F077FB0222A0
:1008C0001146282003F072FB02221146172003F084
:1008D0006DFB10BD001801400010014010B540F242
:1008E000026003F075FD40F2046003F071FD4FF407
:1008F0008073032210210E4803F0F6F94FF4807143
:100900000B4803F09BF9402303221021094803F010
:10091000EBF94021074803F091F9802303221021CD
:10092000044803F0E1F98021024803F087F910BD83
:10093000000801400010014010B54FF4A06003F022
:1009400097FB10BD10B503F06FFC102003F0A8FC5E
:10095000102003F0B5FC0446012C26D103F050F919
:10096000002003F091FB002003F0A6FBA00203F09F
:1009700097FB002003F06CFD002003F075FD4FF4A1
:100980005011200403F054FD182003F089FC00BF2F
:10099000192003F073FC0028FAD0022003F074FD44
:1009A00000BF03F07DFD0028FBD010BD7FB50446DD
:1009B0000D4640F2017003F00BFD0F4803F0EEFF0F
:1009C000684604F0BEF8ADF800500020ADF8040011
:1009D0000294ADF806006946074804F053F8012177
:1009E000054804F09BF8002201211D2003F0DEFAE7
:1009F000014804F041F87FBD000400407FB5044683
:100A00000D4640F2037003F0E3FC0F4803F0C6FF0D
:100A1000684604F096F8ADF800500020ADF80400E8
:100A20000294ADF806006946074804F02BF801214E
:100A3000054804F073F800220121322003F0B6FAD1
:100A4000014804F019F87FBD000C004010B50446C1
:100A500040F2026003F0BCFC40F20E6003F0B8FC10
:100A60004FF40073032218211D4803F03DF94FF4A1
:100A70008063032204211A4803F036F9194804F070
:100A8000BDF82146174804F067F80021154804F026
:100A900064F90021134804F070F90021114804F0B2
:100AA0004CF904210F4804F050F908210D4804F0D6
:100AB0005CF940F205310B4804F009F940F20731C6
:100AC000084804F004F9074804F0E0F80022114651
:100AD000252003F06BFA00200349087010BD0000C8
:100AE00000080140003801407800002010B504469D
:100AF00040F2026003F06CFC40F2117003F068FCFD
:100B00000423032218211B4803F0EEF808230322D4
:100B10000421184803F0E8F8174804F06FF821465C
:100B2000154804F019F80021134804F016F90021C3
:100B3000114804F022F900210F4804F0FEF80421C6
:100B40000D4804F002F908210B4804F00EF940F2B8
:100B50000531094804F0BBF84FF4A061064804F0E1
:100B6000B6F800220121262003F020FA024804F002
:100B70008DF810BD000801400044004030B5034628
:100B8000002016E0B3F900509C68645D0C541C888A
:100B9000641C24B21C80B3F90040B3F90450AC4289
:100BA00001DB00241C80441C20B2DC88641E24B2BB
:100BB000DC80B3F90640002C01DD9042E2DB30BD61
:100BC0007047000001B504490098086000BF024862
:100BD00000680028FBD108BD8000002010B54FF44C
:100BE000005002F08FFF68B14FF4005003F002F89C
:100BF0004FF4005002F0EEFF01200D49C8700020B4
:100C00000C49C8704FF4806002F0F4FF4FF40060AC
:100C100002F0F0FF4FF4805002F0ECFF4FF4804000
:100C200002F0E8FF4FF4004002F0E4FF10BD0000C6
:100C3000140000201900002010B5082002F062FF07
:100C400058B1082002F0D6FF082002F0C3FF0120AF
:100C50000249087000200249087010BD14000020ED
:100C60001900002010B5102002F04CFF58B11020E0
:100C700002F0C0FF102002F0ADFF012002494870D1
:100C800000200249487010BD140000201900002007
:100C900010B5202002F036FF58B1202002F0AAFF44
:100CA000202002F097FF0120144988700020144989
:100CB00088704FF4007002F025FF68B14FF40070A7
:100CC00002F098FF4FF4007002F084FF01200B49FE
:100CD000087100200A490871202002F08BFF402093
:100CE00002F088FF802002F085FF4FF4807002F050
:100CF00081FF4FF4007002F07DFF10BD1400002052
:100D00001900002070B50346002016E00C5CB3F912
:100D100002609D68AC555C88641C24B25C80B3F9A9
:100D20000240B3F90450AC4201DB00245C80441C57
:100D300020B2DC88641C24B2DC80B3F90640B3F92D
:100D40000450AC4201DA9042E0DB70BD014800780B
:100D5000704700005B0000200148007870470000E9
:100D60005A00002000BFFEE710B501F025FA00F0A0
:100D70004AF800F031F84FF4612000F089F800F0F3
:100D80007BF800F025F800F043F84FF4612000F004
:100D900087F800F009F800F023F800F037FB01F0C5
:100DA0007FFF01F08DF810BD10B5FFF713FD002493
:100DB00006E000200449085504490855601CC4B2E7
:100DC000052CF6DB10BD00001400002019000020E7
:100DD00010B5FFF783FD10BD10B5FFF7ADFD10BDD9
:100DE000704730B50B460024048044808280C48064
:100DF0008360002104E0002485686C544C1C21B2FF
:100E00009142F8DB30BD10B5FFF79CFD10BD704777
:100E100030B5164800684FF47A72B0FBF2F1481E04
:100E2000B0F1807F01D301201BE0481E4FF0E0228B
:100E3000506150170F22002807DA13071D0E0C4BC4
:100E400000F00F04241F1D5503E013071C0E094B6F
:100E50001C5400BF00204FF0E02290610720106179
:100E6000002008B100BFFEE730BD00007C0000207C
:100E700018ED00E000E400E010B5772140F2E73023
:100E8000FFF794FD772140F2E730FFF7B7FD10BD83
:100E900010B5044600F022F82046FFF7D7FD10BD3C
:100EA00010B5044600F004F82046FFF71FFE10BD01
:100EB00010B5002404E0002006490855601C84B2E7
:100EC000B4F5006FF7DB4FF4006202490248FFF708
:100ED00088FF10BD081D0020FC1C002010B5002458
:100EE00006E000200949085509490855601C04B26C
:100EF000642CF6DB642205490648FFF772FF642282
:100F000003490548FFF76DFF10BD00007425002060
:100F1000D82500205C2500206825002010B5044657
:100F2000052C33D2DFE804F0030C151E280008213D
:100F3000174802F037FF08B9012010BD0020FCE778
:100F40001021134802F02EFF08B90120F5E7002018
:100F5000F3E720210E4802F025FF08B90120ECE755
:100F60000020EAE74FF400510A4802F01BFF08B9DD
:100F70000120E2E70020E0E74FF40071054802F0AD
:100F800011FF08B90120D8E70020D6E70020D4E7F8
:100F9000001801400010014010B50024C4E064486E
:100FA000005D58B92046FFF7B9FF002805D00120A1
:100FB0005F49085500205F490855B3E05C48005D73
:100FC00001286DD12046FFF7A9FF002845D05948D8
:100FD000005D401C574908550846005D0528ECDBBC
:100FE0004CB900F0CDFD54480068401C52490860DF
:100FF00000F0FEFE2AE0012C09D100F0D3FD4F489D
:101000000068401C4D49086000F00AFF1EE0022CF9
:1010100009D100F0D7FD4A480068401C48490860E3
:1010200000F0F6FE12E0032C07D146480068401C91
:101030004449086000F0F8FE08E0042C06D142485C
:101040000068401C4049086000F0E6FE0220384974
:10105000085500203749085564E0002035490855F7
:10106000334908551CB9082002F0BCFD5AE0012C98
:1010700003D1102002F0B6FD54E0022C03D1202051
:1010800002F0B0FD4EE0032C04D14FF4005002F00A
:10109000A9FD47E0042C45D1E00102F0A3FD41E0A9
:1010A0002348005D02283DD12046FFF737FFA8BB4B
:1010B0002048005D401C1F4908550846005D052872
:1010C00030DB2CB900F0B4FE082002F08BFD1FE0ED
:1010D000012C05D100F0AFFE102002F083FD17E0D7
:1010E000022C05D100F0A5FE202002F07BFD0FE0D0
:1010F000032C06D100F0A0FE4FF4005002F072FD68
:1011000006E0042C04D100F095FEE00102F06AFD37
:101110000020074908550749085503E0FFE700206C
:1011200004490855601CC4B2052CFFF638AF10BD49
:1011300014000020190000200000002004000020FE
:10114000080000200C0000201000002070B50546AB
:1011500000240A4800880949498800FB01F600215B
:10116000084600F0B3FB00F0DBFC00BF03E02846BC
:1011700000F0D0FC641CB442F9D370BD84000020A0
:101180001F498871898845F21052914210D138B9AF
:101190004FF4F0711A4A11804FF4487151802EE0DB
:1011A0004FF44871164A11804FF4F071518026E0D7
:1011B0001349898845F21032914210D138B94FF461
:1011C000A0710F4A11804FF4F071518017E04FF475
:1011D000F0710B4A11804FF4A07151800FE038B9C3
:1011E0004FF4A071064A11804FF4F071518006E06F
:1011F0004FF4F071024A11804FF4A0715180704792
:10120000840000202DE9FF4F85B081468A460020EA
:10121000049003900798A0EB09040898A0EB0A0536
:10122000CDF80890CDF804A0002C01DD012705E0E1
:101230000CB9002702E04FF0FF376442002D02DDB9
:101240004FF0010806E015B94FF0000802E04FF03A
:10125000FF386D42AC4201DD204600E028460646DC
:101260004FF0000B21E0019A91B2029A90B200F087
:1012700023F8049820440490039828440390049889
:10128000B04205DD0498801B049002983844029017
:101290000398B04205DD0398801B039001984044F9
:1012A00001900BF101001FFA80FB701C8345DADD11
:1012B00009B0BDE8F08F000070B504460D46294620
:1012C000204600F003FB00F02BFC0248008800F0F1
:1012D00021FC70BD1E0000202DE9F04104460D46A2
:1012E00016461F462B46324629462046FFF78AFF00
:1012F0003B46224629462046FFF784FF3B463246BE
:1013000039462046FFF77EFF3B46324629463046A7
:10131000FFF778FFBDE8F08170B505460E4614462C
:101320003146284600F0D2FA00F0FAFB204600F0E1
:10133000F1FB70BD2DE9F05F05460E461746984655
:10134000DDF828A0781B401C1FFA80FB344613E010
:101350002146284600F0BAFA00F0E2FB4FF00009FF
:1013600006E0504600F0D6FB09F101001FFA80F9B3
:10137000D945F6DB601C84B24445E9DDBDE8F09F49
:1013800010B540F2026003F023F840F2036003F06E
:101390001FF840F2056003F01BF840F2066003F00E
:1013A00017F84FF4805303221021144802F09CFCDC
:1013B000012303221021124802F096FC4CF6B3736D
:1013C000032210210F4802F08FFC4FF68073032296
:1013D00010210D4802F088FC80210A4802F030FC00
:1013E0004FF40061074802F02BFC2021054802F071
:1013F00027FC1021034802F023FC10BD0008014027
:10140000000C0140001401400018014010B5FFF726
:10141000B7FF4FF48051994802F012FC0A20FFF701
:10142000D1FB4FF48051954802F008FC3220FFF7C1
:10143000C9FB4FF48051914802F002FCC820FFF72D
:10144000C1FBD32000F07EFB00F092F98C4988802C
:1014500000F08EF98A49888000F08AF988498880EE
:10146000084680884FF6FF7101EA00208449888091
:1014700000F07EF9824989880843814988800846BE
:10148000818880A002F0D4F87D48808845F2105110
:10149000884210D14FF43050794908814FF42850D8
:1014A00048814FF42C5088814FF4487008804FF4E5
:1014B000F0704880CCE07248808845F21031884254
:1014C0000DD12C206E4908812A2048812B2088814B
:1014D0004FF4A07008804FF4F0704880B8E02C20E2
:1014E000674908812A2048812B2088814FF4A07009
:1014F00008804FF4F07048800846808847F2897170
:1015000088423ED10021112000F012FB7820FFF725
:1015100059FB05213A2000F00BFB0C21B22000F012
:1015200007FB0C21B22000F003FB0021B72000F0E4
:10153000FFFA3D21BB2000F0FBFA2C21C02000F077
:10154000F7FA0121C22000F0F3FA1321C32000F0C2
:10155000EFFA2021C42000F0EBFA0F21C62000F0A2
:10156000E7FAA421D02000F0E3FAA121D02000F076
:10157000DFFA0021292000F0DBFA7820FFF722FBB8
:1015800066E03F48808847F29671884252D1002138
:10159000112000F0CDFA7820FFF714FB0821362047
:1015A00000F0C6FA05213A2000F0C2FA0021B1206D
:1015B00000F0BEFA1821B12000F0BAFA0021B320E1
:1015C00000F0B6FA0221B32000F0B2FA0321B320F2
:1015D00000F0AEFA0821B32000F0AAFA0021B420EE
:1015E00000F0A6FA0221C02000F0A2FA0221C120D8
:1015F00000F09EFA3221C52000F09AFA3221C7206D
:1016000000F096FA0821362000F092FA00213720E7
:1016100000F08EFA0021382000F08AFA00213920EB
:1016200000F086FA0021292000F082FA7820FFF7E6
:10163000C9FA0DE00021112000F07AFA7820FFF7B6
:10164000C1FA0021292000F073FA7820FFF7BAFAD6
:101650000020FFF795FD022000F0B8F801210F48A7
:1016600002F0EEFA4FF6FF70FFF770FD0448438872
:10167000028881880AA001F0DBFF10BD000801404C
:10168000840000205B4C43445D2052656164204926
:10169000443A203078253034580D0A00000C0140BF
:1016A0005B4C43445D20496E697420446F6E652C29
:1016B0002049443A203078253034582C205769642A
:1016C00074683A2025642C204865696768743A205C
:1016D00025640D0A0000000070B500254CF203736C
:1016E00003220421204802F0FFFA4FF68073032200
:1016F00004211E4802F0F8FA1B4802F05BFB044686
:10170000A00B04F0030140EA810004F4807140EA78
:10171000411004F4007140EA411004F4806140EA91
:1017200041100543114802F045FB0646F02000EA4F
:10173000E6004FF4706101EAE60108434FF480517E
:1017400001EAE601084305434CF20373032210212A
:10175000054802F0C9FA4FF68073032210210348AE
:1017600002F0C2FA284670BD001401400018014082
:101770001CB5002001904FF40061134802F060FA9C
:101780008021114802F05AFA10210F4802F056FA4F
:101790000020009005E000BF9DF80000401CC0B292
:1017A00000909DF800000A28F5DBFFF795FF0190F7
:1017B0001021054802F044FA8021034802F040FA63
:1017C000BDF804001CBD0000001401402DE9F041EB
:1017D0000546002400273C488079012818D1082DAF
:1017E00015D2DFE805F00406080A0C0E10120625D3
:1017F0000DE007250BE0042509E0052507E001259C
:1018000005E0002503E0032501E0022500BF00BF3D
:10181000082D1CD2DFE805F00406090C0F1215187C
:1018200000BF14E044F0800411E044F040040EE0F6
:1018300044F0C0040BE044F0200408E044F06004ED
:1018400005E044F0A00402E044F0E00400BF00BF63
:101850001D48808845F21051884202D14FF45857F4
:1018600000E036271848808847F29671884205D0F4
:101870001548808847F28971884201D144F00804F4
:101880002146384600F054F904F0200068B10E48B3
:1018900000880D494988884214DA0B480688408838
:1018A00009490880084646800CE007480088064938
:1018B0004988884206DD0448068840880249088035
:1018C00008464680BDE8F0818400002070B50446DB
:1018D0000D461E48808845F21051884220D11B4990
:1018E000488900F02FF9201200F0F6F817494989CD
:1018F000491C88B200F026F9E0B200F0EDF8134977
:10190000888900F01FF9281200F0E6F80F4989894C
:10191000491C88B200F016F9E8B200F0DDF813E0D7
:101920000A49488900F00EF9201200F0D5F8E0B21B
:1019300000F0D2F80549888900F004F9281200F077
:10194000CBF8E8B200F0C8F870BD000084000020B9
:101950002DE9F05F80460C4616461F46A346A6F1C9
:101960002000C6B2102F3DD1002539E01E4800EB03
:10197000061010F805904FF0000A2BE009F08000E7
:1019800030B11A48028821464046FFF7C5FC07E0FF
:101990000A9828B91648028821464046FFF7BCFC41
:1019A0004FEA49604FEA1069601C84B211484088D0
:1019B000A04201DCBDE8F09FA4EB0B00B84205D1CA
:1019C0005C4608F101001FFA80F806E00AF1010008
:1019D00000F0FF0ABAF1080FD0DB00BF681CC5B2E7
:1019E000102DC3DB00BFE5E78A4D00081E00002074
:1019F00020000020840000202DE9F84F04460D4609
:101A000090469946DDE90A6704F0FF0A08EB0400F6
:101A10001FFA80F809EB05001FFA80F916E044452B
:101A200002DB5446A81985B24D4500DB14E00020C6
:101A300000903A78334629462046FFF789FF304622
:101A400006EBD07104EB61018CB27F1C38787E28E4
:101A500002DC38782028E2DA00BFBDE8F88F000009
:101A600070B504461A4802F0B1F906464CF203700C
:101A7000864304F00300C4F3810141EA803004F49A
:101A8000005140EA611004F4804140EA611004F41E
:101A9000004140EA6110064331460D4802F09AF9D0
:101AA0000C4802F093F905464FF68070854304F028
:101AB000F000C00004F4706140EAC10004F48051F9
:101AC00040EAC10005432946024802F083F970BD8F
:101AD000001401400018014010B504464FF40061A5
:101AE0000B4802F0ADF88021094802F0A7F8204623
:101AF000FFF7B6FF2021064802F0A0F82021044895
:101B000002F09EF88021024802F09AF810BD000011
:101B10000014014010B504462046FFF7DDFF10BD5C
:101B200010B50249088900F00DF810BD84000020AE
:101B300070B505460C46284600F004F82046FFF72D
:101B4000CBFF70BD10B504464FF400610B4802F0A6
:101B500075F88021094802F071F82046FFF780FFF0
:101B60002021064802F06AF82021044802F068F8B3
:101B70008021024802F064F810BD0000001401400A
:101B800010B54FF48071064802F018F90446C4F10C
:101B90000100C2B24FF48071014802F053F810BD49
:101BA0000008014010B54021054802F007F904463D
:101BB000C4F10100C2B24021014802F043F810BD57
:101BC0000010014010B58021054802F0F7F80446E6
:101BD000C4F10100C2B28021014802F033F810BD07
:101BE0000010014000BFFEE77047000000F01F0238
:101BF00001219140024A430942F823107047000036
:101C000080E200E010B588B00446002007900690FE
:101C1000059004900390029001906448007830B1E0
:101C2000012863D0022872D0032871D18FE0AA2C3A
:101C300003D101205D49087057E00A2C49D10020EA
:101C40005B495C4A1278885404AB05AA5AA15848EB
:101C5000FEF79CFA022806D1049AD1B2059AD0B2B6
:101C600001F0C0FB31E003AA55A15148FEF78EFAFE
:101C7000012804D10399C8B201F050FB25E006AB5E
:101C800007AA51A14A48FEF781FA02281DD1069AF7
:101C900091B2079A90B201AB02AA00F005FB00F0E6
:101CA0004BFB30B1BDF80410BDF8080000F050FA4D
:101CB00005E0BDF80410BDF8080000F017FABDF803
:101CC0000410BDF8080000F023FB0020394908701B
:101CD0000BE0384800781E2807DA3648017800788B
:101CE000401C344A1070324844545CE0062C08D141
:101CF0003748047000203749087002202B490870CB
:101D000012E0AA2C05D10120284908700CE00CE053
:101D100045E03149AA2002F0B5F92F49204602F0EA
:101D2000B1F90020214908703DE02A480178007887
:101D3000401C284A10702948445410460078244911
:101D40000978884202DB0320184908702BE0552CE3
:101D50001BD12248007822490870204840784870FA
:101D60001E48807888701D48C078C8701B4800796C
:101D700088801A484079887101204872084601F02D
:101D80002FF900200949087008E0AA2C03D101208E
:101D90000649087002E000200449087003E00020B2
:101DA0000249087000BF00BF08B010BD6E000020DF
:101DB0003C25002071000020502C25642C25640057
:101DC000472C25640000000025642C2564000000D9
:101DD000700000206F0000207400002032250020D9
:101DE00008250020704710B5FFF7ECFE10BD00007D
:101DF00010B503A001F01CFC00F0AAFF10BD00000C
:101E00004C4C205055534820444F574E0D0A00006B
:101E100010B500F057FF10BD10B500F0E1FF10BD88
:101E200010B501F01DF810BD10B500F0DBFF10BDBE
:101E3000704770477047704770470146C88808B9B7
:101E4000012070470020FCE770B504460025012200
:101E500021460348FEF792FEC5B2284670BD000039
:101E60005C25002070B504460D462A4621460248EE
:101E7000FEF784FEC0B270BDFC1C002070B50446A5
:101E8000049D0E48007AB0B10C48007820700B48D1
:101E9000407808700948807810700848C078187039
:101EA00025B1064890ED010A85ED000A0020034E99
:101EB0003072012070BD0020FCE70000BC1C002037
:101EC00010B54FF448610848FEF755F94FF44861E2
:101ED0000648FEF750F900200549088005490880AA
:101EE0000549087010BD00009C0000201C0D00205A
:101EF0004C0000204E000020500000202DE9F0434F
:101F00008DB03A48007810B90DB0BDE8F08338487C
:101F10000088B0F5487F5FDB0020049009A80AA97B
:101F20000BAA0CABCDE9002102903148028831495F
:101F3000314802F08CFB05A806A907AA08ABCDE939
:101F40000032CDE90210DDE90932DDE90B1002F0C3
:101F5000AFFADDE90B10441ADDE90910451A0698BD
:101F600064282BDD0598052828DD04AA294620468B
:101F700002F043FB06461E4801881E48DDE9053293
:101F800002F0BCFA0746DDE90920811A069802F042
:101F90001DFB8046DDE90B20811A089802F016FB34
:101FA0008146049880B24B464246394600903046FE
:101FB00002F094FB0120114908720CE000200F4947
:101FC000087048708870C8700120087200200C49A1
:101FD00008700C49087000BF00200B4908800449B4
:101FE00008800249087000BF8EE700005000002002
:101FF0004E0000201C0D00209C000020BC1C002076
:1020000057000020580000204C000020F0B587B099
:102010002F48007808B907B0F0BD2E480088642822
:102020004CDB0024002503A804A905AA06ABCDE9D2
:1020300000210290274802882749284802F007FB20
:10204000DDE90510471ADDE90310461A002F07DD08
:10205000002E05DD4FF47A70784390FBF6F400E033
:102060000024B4F5C87F0DDBB4F5966F0ADC04EBF1
:10207000C40000EB04104FF47A7190FBF1F0C0F152
:102080006E0500E00025642D00DD6425462D01DA93
:1020900005B1462512490D70002048708870C8703F
:1020A00000EE104AB8EEC00ADFED0E0A80EE201AEC
:1020B000084680ED011A0120087200BF00200A497D
:1020C0000880044908800249087000BFA3E70000A7
:1020D00056000020540000202C1B00209C190020DA
:1020E000BC1C002000007A4452000020134A1288D1
:1020F000B2F5487F18DA124A104B1B8842F82300C9
:10210000104A0E4B1B8842F823100C4A1288521CAE
:102110000A4B1A800C4A1288B2F5487F04DA0A4A40
:102120001288521C084B1A80044A1288B2F5487F64
:1021300002DB0122054B1A70704700004C000020A2
:102140009C0000201C0D00204E00002050000020AC
:10215000114A1288642A17DA104A0F4B1B8842F87A
:1021600023000F4A0C4B1B8842F823100A4A12889E
:10217000521C094B1A800B4A1288642A04DA094A55
:102180001288521C074B1A80034A1288642A02DB09
:102190000122054B1A707047520000209C19002044
:1021A0002C1B00205400002056000020704710B562
:1021B00000F06EF810BD000010B51048006840F443
:1021C00070000E4908600E48006840F001000C499C
:1021D000086000204860C862084600680949084055
:1021E000074908604FF41F0088600846006820F423
:1021F0008020086002F0CEFB10BD000088ED00E0FA
:1022000000100240FFFFF6FE10B501210B4802F05E
:102210008CFC012803D10121084802F083FC084806
:102220000088401C0649088008460088022804DB14
:102230000020088001200349087010BD0004004000
:102240005C0000205A00002010B501210D4802F06A
:102250006CFC012803D101210A4802F063FC0A4802
:102260000088401C00B2084908800846B0F9000008
:10227000B0F57A7F04DB0020088001200349087054
:1022800010BD0000000C00405E0000205B0000203C
:102290000448006820B103480068401E01490860F6
:1022A000704700008000002030B5154C247814B928
:1022B0001080198030BD134C24783CB9124C20603A
:1022C000124C216001240F4D2C7011E00E4C24683B
:1022D000041B0D4D2D6805EBA4040B4D2C600B4C1D
:1022E00024680C1B094D2D6805EBA404074D2C60D8
:1022F000054C24881480054C24881C8000BFD9E735
:10230000620000206C0000206400002068000020B3
:1023100070B504460D460548007800B170BD2A46E8
:10232000214603A001F084F900BFF7E76D0000200B
:1023300025752C25750D0A000148007870470000AE
:102340006D00002001480078704700006200002006
:102350000C490D4A127888540B490978491C0A4ADD
:10236000117011460978202901DB002111700749FD
:102370000978202904DA05490978491C034A1170B3
:10238000704700001225002060000020610000203E
:1023900038B5402403E09DF80000FFF733FC01212D
:1023A0006846FFF75FFD18B1201EA4F10104F2D1C9
:1023B00038BD00007CB505460E46AB208DF8000008
:1023C00002208DF801008DF802508DF80360552031
:1023D0008DF8040000240DE01DF80410074802F0F9
:1023E00008FC00BF0721054802F055FC0028F9D081
:1023F000601CC4B2052CEFDB7CBD00000044004033
:1024000008B1012100E00021014A1170704700006D
:102410006D00002008B1012100E00021024A117086
:102420000021024A11707047620000206C000020F9
:102430000EB50020FEF78AFE00202049088020A06B
:1024400000F0E4F8002021A147F6FF727823CDE9DF
:1024500000210290A0225021282000F043FA00F031
:1024600087FD4FF4FC601D4908801DA010210B461C
:10247000C822CDE90010A0213C20FFF7BDFA4FF49F
:102480007840164908801AA010210B46C822CDE9D1
:102490000010B4213C20FFF7AFFA48F230400F495A
:1024A000088018A010210B46C822CDE900104FF477
:1024B00091713C20FFF7A0FA0EBD00002000002023
:1024C0004175746F204C6967687400004C696768D7
:1024D0007420537769746368000000001E000020B8
:1024E00055503A20456E61626C6520284F4E290098
:1024F000444E3A2044697361626C65284F46462910
:10250000000000005072657373204241434B2074F9
:102510006F204578697400000EB50020FEF716FEA6
:1025200000202349088023A000F070F8002024A197
:1025300047F6FF727823CDE900210290A0225021B6
:10254000282000F0CFF94FF6FF70214908800020C5
:102550001749088000F0ACFE4FF4FC601C4908806D
:102560001CA010210B46C822CDE90010A0213C2060
:10257000FFF742FA4FF478401549088019A010215E
:102580000B46C822CDE90010B4213C20FFF734FAF5
:1025900048F230400E49088017A010210B46C8228F
:1025A000CDE900104FF491713C20FFF725FA0EBDE4
:1025B0002000002046696C74657220536574000029
:1025C00046696C7465722053776974636800000013
:1025D0001E00002055503A20456E61626C6520282F
:1025E0004F4E2900444E3A2044697361626C65285D
:1025F0004F46462900000000507265737320424127
:10260000434B20746F204578697400001CB5044664
:1026100042F224101E23F022002100900846FEF70B
:1026200089FE4FF6FF701649088042F224101549C2
:10263000088010200346C8220721CDE900040A20A3
:10264000FFF7DAF910A010210B46C822CDE90010DF
:1026500007218220FFF7D0F900200A49088047F6B9
:10266000FF70074908801E23F02219460020FEF75C
:10267000C9FD1F23F02219460020FEF7C3FD1CBD33
:102680001E0000202000002049443A303120313221
:102690003A30300000B587B00020FEF757FD00202B
:1026A0006449088064A0FFF7B1FF47F6FF706449F2
:1026B000088000205F4908806248007820B962A144
:1026C00002A800F0C5FF05E05E48027861A102A8FB
:1026D00000F0BEFF02A810210B46C822CDE9001071
:1026E0003C210A20FFF788F94FF4FC605449088028
:1026F0000020504908805348407820B958A102A8CA
:1027000000F0A6FF05E04F48427858A102A800F06B
:102710009FFF02A810210B46C822CDE900105521C9
:102720000A20FFF769F94FF6E0704549088000205C
:10273000404908804348807838B94248C07820B979
:102740004DA102A800F084FF06E03E488378C278DD
:102750004DA102A800F07CFF02A810210B46DC224C
:10276000CDE900106E210A20FFF746F94FF6E07020
:102770003349088000202F4908803248828846A1CA
:1027800002A800F065FF02A810210B46C822CDE97F
:10279000001087210A20FFF72FF948F2304028491E
:1027A00008800020234908802648037AC2793DA189
:1027B00002A800F04DFF02A810210B46C822CDE967
:1027C0000010A0210A20FFF717F948F230401C49F9
:1027D00008800020174908801A488079FF2804D112
:1027E00035A102A800F034FF05E01648827935A132
:1027F00002A800F02DFF02A810210B46C822CDE947
:102800000010B9210A20FFF7F7F848F230400C49D0
:1028100008800020074908802DA010210B46C822FF
:10282000CDE900104FF491713C20FFF7E5F807B0B7
:1028300000BD0000200000204D6F6E69746F7200B3
:102840001E0000209200002053504F323A202D2DC0
:102850002020000053504F323A20253364200000DE
:1028600050523A2020202D2D2020000050523A2096
:102870002025336420200000504920523A2D2D207D
:10288000493A2D2D20000000504920523A2532644B
:1028900020493A2532642000523A20256420202025
:1028A0002000000050574D20523A256420493A2517
:1028B00064202020000000004761696E3A202D2D21
:1028C000202000004761696E3A2025642020200006
:1028D00050726573732053455420746F204D656E9C
:1028E000750000002DE9FC4704460D4616461F46BC
:1028F000DDE90B9ADDF8288041F282000090E819AA
:1029000083B2A01982B229462046FEF713FD28485B
:10291000A0F80080E81983B2A01982B229462046A7
:10292000FEF7DAFC05EB070CACF1010C1FFA8CF397
:1029300004EB060CACF1010C1FFA8CF205F1010C52
:102940001FFA8CF104F1010C1FFA8CF0FEF7C4FCA5
:1029500005F1180C1FFA8CF304EB060CACF1020C19
:102960001FFA8CF205F1020C1FFA8CF104F1020C33
:102970001FFA8CF0CDF80080FEF7DCFC0C48A0F8C4
:1029800000A00C48A0F800801020A6F114039AB211
:102990006B1D99B204F10A03CDE9000998B2102326
:1029A000FFF72AF8002003490880BDE8FC870000F3
:1029B0001E000020200000200EB50020FEF7C6FB00
:1029C00000201249088012A0FFF720FE002012A16B
:1029D00047F6FF727823CDE900210290B4225021FE
:1029E0001E20FFF77FFF00F03FFD48F230400C490A
:1029F00008800CA010210B46C822CDE900104FF42E
:102A000091713C20FEF7F8FF0EBD00002000002071
:102A1000522043616C696200522056616C756500FA
:102A20001E0000205072657373204241434B207496
:102A30006F204578697400007CB505460E46C5EBED
:102A4000C50000EB800000F13204DEB11F200090D1
:102A500004F1190083B2601F81B2E6220A20FEF75A
:102A600069FC4FF6FF702B4908801F202A49088017
:102A700004F1190083B2601F81B2E6220A20FEF73A
:102A80002BFC1CE041F28200009004F1190083B29B
:102A9000601F81B2E6220A20FEF74CFC48F230406B
:102AA0001C49088041F282001B49088004F119008A
:102AB00083B2601F81B2E6220A20FEF70DFC1748A0
:102AC00050F8250010210B46C822CDE90010214600
:102AD0001420FEF791FF56B111A010210B461422CD
:102AE000CDE900102146D220FEF786FF11E048F222
:102AF00030400849088041F282000749088009A057
:102B000010210B461422CDE900102146D220FEF7F9
:102B100073FF7CBD1E000020200000202800002044
:102B20003E000000200000007CB51748058800200A
:102B3000FEF70CFB15A0FFF769FD00240CE016481A
:102B40000078844201D1012000E0002001462046A7
:102B5000FFF772FF601CC4B2092CF0DB4FF6FF7068
:102B60000E4908800020084908800DA010210B465E
:102B7000C822CDE900104FF496710A20FEF73CFF01
:102B8000014805807CBD000020000020536574745E
:102B9000696E677300000000250000201E00002001
:102BA00055502F444E3A2053656C65637420205372
:102BB00045543A20456E7465720000000EB5002041
:102BC000FEF7C4FA00202049088020A0FFF71EFD70
:102BD000002022A147F6FF727823CDE90021029060
:102BE000A02250212820FFF77DFE00F0CDFB4FF4FE
:102BF000FC601D4908801DA010210B467822CDE9FC
:102C00000010A0213C20FEF7F7FE4FF47840164953
:102C100008801AA010210B467822CDE90010B421BB
:102C20003C20FEF7E9FE48F230400F49088017A02B
:102C300010210B46C822CDE900104FF491713C20C1
:102C4000FEF7DAFE0EBD00002000002053704F3268
:102C5000204761696E205365740000004761696E0A
:102C6000204C6576656C00001E00002055503A200F
:102C7000496E63726561736500000000444E3A203E
:102C8000446563726561736500000000507265738E
:102C900073204241434B20746F20457869740000D3
:102CA00010B50020FEF752FA0020044908700120F8
:102CB0000349087000F026F910BD00002400002030
:102CC0002600002010B51F48007848B901201D4992
:102CD000087000201C49087001201C4908702DE074
:102CE00018480078012829D117480078022805D112
:102CF000144908700120154908701FE01248007837
:102D0000032805D10F49087001201049087015E00B
:102D10000D480078042808D10A4908700120FFF7FF
:102D20006FFB01200949087008E007480078052872
:102D300004D10449087001200449087000F0E2F849
:102D400010BD0000240000202500002026000020E7
:102D500010B51F480078012813D11E4800780028BC
:102D600035DD1C4804780078401E1A49087000219F
:102D70002046FFF761FE012116480078FFF75CFE50
:102D800025E01348007802280AD10021FFF712FB42
:102D900011488079401C1049887100F0F5FA16E05E
:102DA0000B480078032805D10120FFF733FB00F022
:102DB0007FFA0CE006480078052808D10120074971
:102DC000087001210520FFF7F5FA00F0D1F810BDD9
:102DD0002400002025000020920000202700002071
:102DE0007047000010B51C480078012806D100206B
:102DF0001949087001201949087029E0164800781F
:102E0000022805D1012014490870144908701FE0F8
:102E100011480078032805D101200F4908700F4997
:102E2000087015E00C480078042808D10020FFF74E
:102E3000E7FA0120084908700849087008E00648C8
:102E40000078052804D1012003490870034908705F
:102E500000F058F810BD00002400002026000020DB
:102E600010B522480078012813D12148007808289D
:102E70003ADA1F4804780078401C1D490870002188
:102E80002046FFF7D9FD012119480078FFF7D4FD4E
:102E90002AE01648007802280FD100210320FFF70E
:102EA00089FA14488079002804DD12488079401E90
:102EB0001049887100F068FA16E00C480078032881
:102EC00005D10020FFF7A6FA00F0F2F90CE0074860
:102ED0000078052808D10020074908700021052046
:102EE000FFF768FA00F044F810BD0000240000204D
:102EF00025000020920000202700002010B500F0DF
:102F000001F810BD10B51848007800B910BD174879
:102F1000007810B9FFF7BEFB21E0144800780128C3
:102F200002D1FFF701FE1AE010480078022802D112
:102F3000FFF744FE13E00D480078032802D1FFF7A5
:102F4000EBFA0CE009480078042802D1FFF734FDC1
:102F500005E006480078052801D1FFF769FA00204E
:102F60000149087000BFD1E726000020240000209E
:102F70001CB54FF6FF700F49088000200E490880ED
:102F80000E48007850B10EA010210B46A022CDE9CA
:102F9000001082213C20FEF72FFD09E00CA010213B
:102FA0000B46A022CDE9001082213C20FEF724FD33
:102FB0001CBD00001E000020200000202700002073
:102FC00043757272656E743A204F4E2020000000E7
:102FD00043757272656E743A204F464620000000B9
:102FE00030B587B004460CB907B030BDE07928B9D8
:102FF0008948C07910B18848C079E071207A28B931
:103000008548007A10B18448007A2072A079FF28A0
:1030100006D181488079FF2802D07F488079A0714D
:103020007E48007800287DD100257B4800782178F3
:10303000884200D00125784840786178884200D0E5
:10304000012575488078A178884200D00125724812
:10305000C078E178884200D001256F488088A18837
:10306000884200D001256C48C079E179884200D0BF
:1030700001256948007A217A884200D001256648F6
:103080008079A179884200D001253DB96248216844
:1030900001606168416021890181A5E747F6FF7001
:1030A0005F49088000205F490880207820B95EA130
:1030B00002A800F0CDFA04E022785EA102A800F098
:1030C000C7FA02A810210B46C822CDE900103C2106
:1030D0000A20FEF791FC4FF4FC6051490880002063
:1030E00050490880607820B955A102A800F0B0FAD4
:1030F00004E0627855A102A800F0AAFA02A8102103
:103100000B46C822CDE9001055210A20FEF774FCB9
:103110004FF6E07042490880002042490880A078BC
:1031200040B900E069E0E07820B94BA102A800F0C6
:103130008FFA05E0A378E2784BA102A800F088FAA4
:1031400002A810210B46DC22CDE900106E210A20D6
:10315000FEF752FC4FF6E0703149088000203149FB
:103160000880A28844A102A800F072FA02A81021E7
:103170000B46C822CDE9001087210A20FEF73CFC4F
:1031800048F2304026490880002026490880237AEA
:10319000E2793CA102A800F05BFA02A810210B46DC
:1031A000C822CDE90010A0210A20FEF725FC48F234
:1031B00030401B49088000201A490880A079FF2868
:1031C00004D135A102A800F043FA04E0A27935A1A8
:1031D00002A800F03DFA02A810210B46C822CDE952
:1031E0000010B9210A20FEF707FC0B482168016096
:1031F00061684160218901810CE007482168016014
:10320000616841602189018104480078042801D166
:1032100000F02AF900BFE7E6920000202400002019
:103220001E0000202000002053504F323A202D2D48
:103230002020000053504F323A20253364200000F4
:1032400050523A2020202D2D2020000050523A20AC
:103250002025336420200000504920523A2D2D2093
:10326000493A2D2D20000000504920523A25326461
:1032700020493A2532642000523A2025642020203B
:103280002000000050574D20523A256420493A252D
:1032900064202020000000004761696E3A202D2D37
:1032A000202000004761696E3A202564202020001C
:1032B0001CB54FF6FF700F49088000200E490880AA
:1032C000FFF740F850B10DA010210B46A022CDE928
:1032D000001082213C20FEF78FFB09E00BA010219B
:1032E0000B46A022CDE9001082213C20FEF784FB92
:1032F0001CBD00001E0000202000002043757272DB
:10330000656E743A204F4E202000000043757272A3
:10331000656E743A204F46462000000010B588B014
:1033200004461248847112480078B8B948F2304017
:10333000104908800020104908800C4882790FA1AC
:1033400003A800F085F903A810210B46C822CDE997
:103350000010B9210A20FEF74FFB05E00448007871
:10336000022801D100F010F808B010BD9200002032
:10337000240000201E000020200000204761696E0C
:103380003A2025642020200000B58BB04FF6FF7056
:103390000B49088000200B4908800B4882790BA15B
:1033A00003A800F055F903A810210B46A022CDE98F
:1033B000001082213C20FEF71FFB0BB000BD000077
:1033C0001E00002020000020920000204375727231
:1033D000656E74204C6576656C3A2025642020204B
:1033E0000000000030B587B004460D4614B90DB991
:1033F00007B030BD1348C471057213480078C0B9D6
:1034000048F23040114908800020114908800D48D9
:10341000037AC2790FA102A800F01AF902A81021BC
:103420000B46C822CDE90010A0210A20FEF7E4FADD
:1034300005E005480078042801D100F015F800BF28
:10344000D6E7000092000020240000201E0000208B
:103450002000002050574D20523A256420493A253B
:10346000642020200000000000B58BB04FF6FF70F4
:10347000134908800020134908801348828813A14B
:1034800003A800F0E5F803A810210B467822CDE947
:10349000001082215020FEF7AFFA0B48037AC27960
:1034A0000DA103A800F0D4F803A810210B46A02218
:1034B000CDE900109B213220FEF79EFA0BB000BD33
:1034C0001E0000202000002092000020523A2025FB
:1034D000642020202000000050574D20523A2564DF
:1034E00020493A256420000008B5002000901F49BB
:1034F0001F4801F006FC78B11C491D4801F0F4FB9F
:103500002520FEF773FB1A4801F06EFBC0B2009055
:103510009DF8000000F076F81649154801F0F1FB1F
:10352000012806D11349124801F0DEFB104801F0D2
:103530005BFB11490E4801F0E4FBB0B12520FEF71A
:1035400055FB6846FEF780FC9DF80010084801F026
:1035500050FB0A48FEF771FC38B10020084908709A
:1035600040F20731024801F0A5FB08BD0503050044
:103570000038014000050300070307005C25002018
:103580007800002010B51949194801F0BAFB70B154
:10359000174801F029FBC4B2204600F03FF820464E
:1035A000FEF7D6FE1149124801F09EFB00BF1149FB
:1035B0000F4801F0A6FB30B10D4801F015FB0D4995
:1035C0000B4801F091FB0C49094801F09AFB18B136
:1035D0000949074801F088FB0849054801F091FBBB
:1035E00018B10649024801F07FFB10BD0503050034
:1035F0000044004000050300000502000005010032
:1036000000BFFEE731B50024012269460248FDF7FC
:1036100079FBC4B2204638BD6825002001B50122DF
:1036200069460248FDF76EFBC0B208BDFC1C0020D5
:103630000FB4054B10B503A9044A029800F02CF80A
:1036400010BC5DF814FB0000193C00087400002059
:103650000FB4084B10B504A902AA039800F01CF897
:10366000044602A9002000F048FA204610BC5DF88C
:1036700014FB0000FB3A000802E008C8121F08C152
:10368000002AFAD170477047002001E001C1121FE3
:10369000002AFBD1704700002DE9FF4F8DB00F4687
:1036A0000546002606E025280BD0DDE90F129047DD
:1036B0006D1C761C28780028F5D111B03046BDE885
:1036C000F08F0024A246A1460122EC4900E0044309
:1036D00015F8013F203B02FA03F00842F7D12878A1
:1036E0002A2810D06FF02F022878A0F13001092984
:1036F00014D80AEB8A0102EB410144F0020400EB0A
:10370000010A6D1CF0E701CF5FEA000A03D544F41B
:103710000054CAF1000A44F002046D1C28782E28D7
:1037200017D115F8010F44F004042A280ED06FF0C9
:103730002F022878A0F1300109290AD809EB890164
:1037400002EB410100EB01096D1CF2E757F8049B05
:103750006D1C28786C280FD006DC4C2817D0682800
:103760000DD06A2814D104E0742810D07A280FD123
:103770000DE044F400140AE044F4801401E044F441
:1037800040146978814202D104F580146D1C6D1CCF
:103790002A786E2A1FD00CDC632A31D004DC002A80
:1037A0008BD0582A11D1A3E0642A68D0692A0CD1A1
:1037B00065E0732A2ED004DC6F2A73D0702A04D1FE
:1037C0009BE0752A6FD0782A6ED01046DDE90F1283
:1037D0009047761C50E1C4F30250022806D003281B
:1037E00009D0042801CF09D0066045E101CFF117C7
:1037F000C0E9006140E101CF06803DE106703BE198
:1038000017F8040B8DF8000000208DF80100EB463E
:10381000012003E057F804BB4FF0FF3061074FF081
:10382000000102D40DE008F10101884649450FDA94
:103830008045F8DB1BF808100029F4D108E008F1F6
:10384000010188468142FADB1BF808100029F6D1F5
:10385000DDE90F23AAEB08008146214600F036F986
:10386000304400EB080604E0DDE90F121BF8010B01
:103870009047B8F10108F7D221464846F7E00A21FF
:10388000C4F302534FF0000B0891022B04D001CF78
:10389000C117032B09D00AE0FF1D27F00707F7E83F
:1038A000020108E032E01FE020E000B2C117042B63
:1038B00001D140B2C117031E71F1000307DA4FF0C6
:1038C000000CD0EB0C006CEB01012D2302E0230572
:1038D00004D52B238DF82430012303E0E30701D026
:1038E0002023F7E7984658E00A2110E010210EE067
:1038F00010204FF0000B08900CE010214FF0000B4F
:1039000044F004044FF00809089103E008214FF047
:10391000000B0891C4F30253022B04D001CF002105
:10392000032B06D006E0FF1D27F00707F7E802018A
:1039300003E080B2042B00D1C0B24FF0000823078F
:103940002BD5702A07D0DDF820C08CF0100C5CEA73
:103950000B0C05D00EE040238DF82430012308E045
:1039600050EA010306D030238DF824308DF825204D
:1039700002239846DDF820C08CF0080C5CEA0B0CA2
:103980000BD150EA010301D1630706D530238DF82E
:1039900024304FF00108A9F10109582A04D038A2B7
:1039A0000B9208AA0A920BE03AA2F9E75B46089A42
:1039B000FCF7AEFC0B9B9B5C0A9A521E0A9213709A
:1039C00050EA0102F2D10A98ADEB000000F1200BA1
:1039D000600702D524F4803401E04FF00109D94595
:1039E00002DDA9EB0B0000E0002000EB0B014144DD
:1039F0000890AAEB010AE00306D4DDE90F23214673
:103A0000504600F063F806444FF0000908E009A9A9
:103A100011F80900DDE90F12904709F10109761C40
:103A2000C145F4DBE0030CD5DDE90F232146504608
:103A300000F04CF8064404E0DDE90F123020904716
:103A4000761C0899481E08900029F5DC08E00A98C1
:103A50000A990078491C0A91DDE90F129047761CFB
:103A6000BBF10001ABF1010BF1DC21465046DDE971
:103A70000F2300F019F806446D1C1BE6092801000D
:103A800030313233343536373839616263646566D4
:103A90000000000030313233343536373839414296
:103AA00043444546000000002DE9F041044600254E
:103AB0001E461746880404D405E039462020B04746
:103AC0006D1C641EF9D52846BDE8F0812DE9F04152
:103AD000044600251E469046C80301D5302700E065
:103AE0002027880404D505E041463846B0476D1CC0
:103AF000641EF9D52846BDE8F0810A68531C0B60A6
:103B000010707047014604480068084008B1012061
:103B100070470020FCE700001404014010B52C4B56
:103B20001B6883432A4C2360231D1B688343241D89
:103B30002360231D1B688343241D2360231D1B68F2
:103B40008343241D236011B101290ED105E0204BD0
:103B50001B6803431E4C236008E01D4B1B1D1B68A4
:103B600003431B4C241D236000E000BF00BF22B1B3
:103B7000012A0FD0022A27D119E0154B08331B6800
:103B80000343134C08342360231D1B688343241D07
:103B900023601AE00E4B08331B6883430C4C083437
:103BA0002360231D1B680343241D23600DE0084B85
:103BB00008331B680343064C08342360231D1B682D
:103BC0000343241D236000E000BF00BF10BD0000C0
:103BD00000040140024909688143014A11607047AD
:103BE00000040140024909680143014A116070471D
:103BF00000040140014908607047000014040140BE
:103C0000044A116821F0070141EA0002014B1A60E1
:103C1000704700000020024070B504460D46E1B236
:103C2000054800F0E6FF00BF0721034801F033F824
:103C30000028F9D0204670BD00380140416170472E
:103C4000016170470AB1016100E041617047000005
:103C500010B500228B071C0F0F2303FA04F204296E
:103C60000EDA204B9B6893431E4CA36023469B684F
:103C70008C07240F00FA04F423431A4CA3602FE0AE
:103C800008290EDA174BDB689343164CE360234692
:103C9000DB688C07240F00FA04F42343114CE36023
:103CA0001EE00C290EDA0F4B1B6993430D4C236168
:103CB00023461B698C07240F00FA04F42343094CA4
:103CC00023610DE0074B5B699343064C6361234618
:103CD0005B698C07240F00FA04F42343014C6361F1
:103CE00010BD000000000140F0B504461646002556
:103CF000002201F00F0501F0100747B1042E05D195
:103D000045F00305E76B1F43E76300E03543002000
:103D10001EE0012787401F40C7B122684FEA800C90
:103D20000F2707FA0CF7BA43870005FA07F73A435B
:103D3000282904D1012787401F40676105E04829F1
:103D400003D1012787401F4027612260471CB8B27A
:103D50000828DED3082022E0012787401F40E7B172
:103D60006268A0F108074FEA870C0F2707FA0CF7E3
:103D7000BA43A0F10807BF0005FA07F73A4328291C
:103D800004D1012787401F40676105E0482903D11E
:103D9000012787401F4027616260471CB8B2102886
:103DA000DAD3F0BD02469068084008B101207047A0
:103DB0000020FCE70146886880B270470246D06860
:103DC000084008B1012070470020FCE70146C868A0
:103DD00080B27047C160704788B0FCF7C5FFFDF73F
:103DE00016F840A0FFF724FC47A0FFF721FC4AA0EB
:103DF000FFF71EFC4BA0FFF71BFC4EA0FFF718FCC3
:103E000050A0FFF715FC53A0FFF712FC69E0FCF788
:103E1000A3FF18B1FDF7C0F8FCF7D6FCFEF7B8FA1F
:103E2000FEF78AFA10B1FEF7F1F801E0FEF766F846
:103E300003A804AB05AA06A9009007A8FEF71EF880
:103E4000002845D09DF81C008DF800009DF8180052
:103E50008DF801009DF814008DF802009DF8100007
:103E60008DF803009DED030ADFED410A20EE200AE4
:103E7000BCEEC00A10EE100A80B2ADF80400FF20BC
:103E80008DF8060000208DF807008DF808006846C0
:103E9000FFF7A6F8FEF750FA28B1BDF8041035A0D8
:103EA000FFF7C6FB13E09DF81C1034A0FFF7C0FB22
:103EB0009DF8181034A0FFF7BBFB9DF8141035A037
:103EC000FFF7B6FBBDF8041035A0FFF7B1FB00BF4C
:103ED000FCF73CFF18B1FDF786FFFCF76FFCFFF71E
:103EE0000DF894E7496E69742053797374656D20F9
:103EF000686173206265656E2066696E69736865C6
:103F0000642E0D0A000000007B7B312C53504F3291
:103F10007D7D0D0A000000007B7B322C48527D7DA8
:103F20000D0A00007B7B332C50495F49527D7D0D8B
:103F30000A0000007B7B342C525F56616C7D7D0D46
:103F40000A0000007B7B352C4761696E7D7D0D0A80
:103F5000000000004C434420446973706C61792078
:103F6000546573742053746172742E0D0A0000003E
:103F700000007A4425642C300D0A00005B5B312C74
:103F800025645D5D0D0A00005B5B322C25645D5D80
:103F90000D0A00005B5B332C25645D5D0D0A00009B
:103FA0005B5B342C25645D5D0D0A00002DE9F0415A
:103FB00003460D46164600240027A0462A480068FE
:103FC00000F4E060B0F5E06F03D100BF4FF00408EB
:103FD00030E02548006800F4E060B0F5C06F03D120
:103FE00001274FF0030825E01F48006800F4E06057
:103FF000B0F5A06F02D10227B8461BE01A4800684E
:1040000000F4E060B0F5806F03D103274FF00108A2
:1040100010E01548006800F4E060B0F5407F03D17F
:1040200004274FF0000805E04FF4A06000F020F8EE
:104030000227B846C7F1040005FA00F4C8F10401EC
:104040000F20C8403040044324010848C45403F002
:104050001F01012088405911890001F1E021C1F8B8
:104060000001BDE8F08100000CED00E000E400E09C
:1040700002490143024A1160704700000000FA053E
:104080000CED00E0FFF7C8BD044A516821F0F001D3
:1040900041EA0002014B5A607047000000100240E4
:1040A000044A516821F4E06141EA0002014B5A6080
:1040B0007047000000100240044A516821F460512A
:1040C00041EA0002014B5A607047000000100240B4
:1040D0002DE9F04F8CB0074600200A904AA090E8E6
:1040E000004CC068CDE905BECDF810A007900FF2D6
:1040F0001C1ADAE9000ACDE9020A0FF2101ADAE90D
:10410000000ACDE9000A44484068C0F381000B90E2
:104110000B9820B1012804D002283FD103E03F4A88
:104120003EE03E4A3CE03C48406800F4803CBCF540
:10413000803F12D13848C06A00F08048B8F1000FC3
:1041400001D1364C00E0364C3348406800F4003969
:10415000B9F5003F02D1334C00E0324C2E484068A4
:10416000C0F383412C48406800F0006008B141F082
:1041700010012948406800F0804008B141F020015A
:104180000F2901D2891C06E00F2903D33E2901D84B
:10419000491C00E03F2104FB01F201E01F4A00BF7F
:1041A00000BF1D484068C0F3031504A8465D22FA0D
:1041B00006F319484068C0F3022502A8465D23FAB9
:1041C00006F0099014484068C0F3C2251DF8056048
:1041D00023FA06F0089037B1012F06D0022F06D03F
:1041E000032F0AD106E00A9208E00A9306E0099834
:1041F0000A9003E008980A9000E000BF00BF0A9808
:104200000CB0BDE8F08F00000000000000000000CE
:1042100001020304060708090010024000127A0098
:10422000006CDC0200093D0000B51148006840F058
:1042300001000F490860002000F042F80C48406877
:104240000C4908400A494860084600680A49084085
:10425000074908600846006820F4802008604FF491
:104260001F0088600846C06A20F0C040C86200BDD8
:10427000001002400C000020FFFFF6FE0146074A36
:1042800002EB9110006801F01F0301229A401040D8
:1042900008B1012070470020FCE700000010024038
:1042A000064A02EB9011096800F01F0301229A40B0
:1042B0001143024B03EB9012116070470010024053
:1042C000F0B50646002400270025B6F5006F1FD084
:1042D00005DC86B3102E0BD0182E72D160E0B6F537
:1042E000106F4BD0A6F540501038002869D133E04C
:1042F00004E01120FFF7C2FF0546641C15B9B4F5B0
:10430000006FF6D11120FFF7B9FF00B1012759E086
:1043100005E040F60100FFF7B1FF0546641C1DB93A
:104320006FF07C408442F4D140F60100FFF7A6FF15
:1043300000B1012746E0FFE704E00120FFF79EFF00
:104340000546641C15B9B4F5A06FF6D10120FFF73E
:1043500095FF00B1012735E005E043F21100FFF7BA
:104360008DFF0546641C15B918488442F5D143F207
:104370001100FFF783FF00B1012723E005E040F6BD
:104380000110FFF77BFF0546641C15B90F488442F6
:10439000F5D140F60110FFF771FF00B1012711E0E0
:1043A00004E01920FFF76AFF0546641C15B90748A9
:1043B0008442F6D11920FFF761FF00B1012701E027
:1043C000FFE700BF00BF3846F0BD0000FFFF0F0051
:1043D000064A02EB9011096800F01F0301229A407F
:1043E0001143024B03EB9012116070470010024022
:1043F000064A02EB9011096800F01F0301229A405F
:104400009143024B03EB9012116070470010024081
:10441000064A02EB9011096800F01F0301229A403E
:104420001143024B03EB90121160704700100240E1
:1044300002460020044B5868044B184042EA01032E
:104440001843014B5860704700100240FFFFC2B78D
:1044500001460020034AD06A20F080400843D06221
:10446000704700000010024001460020054A5068D5
:1044700020F40030012901D140F40030014A50609D
:104480007047000000100240044A516821F0030107
:1044900041EA0002014B5A607047000000100240E0
:1044A0000248406800F00C00704700000010024015
:1044B0002DE9F04106ACF0CC00EB010C0CEBDC7804
:1044C0004FEA6808C4F8008002EB030C0CEBDC78C0
:1044D0004FEA6808C6F80080A0EB010C0CEBDC7812
:1044E0004FEA6808C5F80080A2EB030C0CEBDC78FF
:1044F0004FEA6808C7F80080BDE8F0812DE9F04F69
:1045000085B004460E4617469C461E200190C820E2
:1045100000904FEA4C00032590FBF5F038440490DE
:10452000DFF8A480281F039000200290002381461A
:1045300001212DE054F821004D1E54F825A04D1CFA
:1045400054F825B0049DA84220DD50451EDD584595
:104550001CDDA1EB08051E2D05DA029DA84215DD24
:104560008846029012E0039D002D01DA03910BE0D2
:10457000A1EB08051E2D06DBC82D04DCA94403F1C0
:10458000010E1FFA8EF300BF88460290481C81B2CC
:10459000701E8842CEDC002B05DD41F2707058435E
:1045A00090FBF9F200E00022C82A00DDC822002AB0
:1045B00002DD1E2A00DA1E22002A00DA0022D0B212
:1045C00005B0BDE8F08F000018FCFFFF30B50246D3
:1045D0000B460AB9002030BD4FF47A705843B0FB47
:1045E000F2F4601D0A25B0FBF5F081B201B901219A
:1045F000632900DD6321C8B2EDE770B503460C46C0
:104600001546002B07DD002C05DD4FF47A7058436A
:1046100090FBF4F100E00021B1F5C87F0DDBB1F5AE
:10462000966F0ADC01EBC10000EB01104FF47A76C3
:1046300090FBF6F0C0F16E0200E00022642A00DD7B
:104640006422462A00DA46222960D0B270BD2DE9E4
:10465000F041044606ADE0CDD4F800C0C3F800C078
:10466000D4F800C0C5F800C0D1F800C0C6F800C03A
:10467000D1F800C0C7F800C001202BE054F820C0DA
:10468000D3F80080C44503DD54F820C0C3F800C04F
:1046900054F820C0D5F80080C44503DA54F820C08F
:1046A000C5F800C051F820C0D6F80080C44503DD2D
:1046B00051F820C0C6F800C051F820C0D7F80080DB
:1046C000C44503DA51F820C0C7F800C000F1010C5E
:1046D0001FFA8CF09042D1DBBDE8F0812DE9F04764
:1046E00005460E4617469C46DDF82080DFF870919F
:1046F000DFF870A19AF800A029F81A50DFF8689145
:10470000DFF860A19AF800A029F81A60DFF85C9140
:10471000DFF850A19AF800A029F81A70DFF850913C
:10472000DFF840A19AF800A029F81AC0DFF84491F8
:10473000DFF830A19AF800A029F81A80DFF8389144
:1047400099F80090B9F1050F09DADFF82C9199F882
:10475000009009F10109DFF820A18AF80090DFF844
:10476000049199F8009009F10109DFF8F8A08AF89E
:104770000090D14699F80090B9F1050F03DB4FF096
:1047800000098AF800900022002300210024002064
:1047900017E0DFF8CC9039F810904A44DFF8C89061
:1047A00039F810904B44DFF8C49039F81090494420
:1047B000DFF8C09039F810904C4400F101091FFA5D
:1047C00089F0DFF8B49099F800904845E1DBDFF814
:1047D000A89099F80090B2FBF9F9DFF8A0A08AF848
:1047E0000090DFF8949099F80090B3FBF9F98AF8FB
:1047F0000190DFF8849099F80090B1FBF9F98AF8FC
:1048000002900021002008E0DFF8649039F8109051
:10481000494400F101091FFA89F0DFF85C9099F82A
:1048200000904845F0DBDFF8509099F80090B1FB1C
:10483000F9F9DFF848A08AF80390DFF83C9099F87E
:104840000090B4FBF9F900EE109AB8EE400ADFEDE3
:104850000C0A80EE201AD14689ED011ABDE8F087D6
:10486000C81C002058000020D21C0020DC1C0020A6
:10487000E61C0020F01C002057000020BC1C00207B
:1048800000007A44002000213E4A126842F480323F
:104890003C4B1A6000BF401C3A4A126802F40031D7
:1048A00011B9B0F5006FF6D1364A126802F4003241
:1048B0000AB900BFFEE7334AD26942F08052314B59
:1048C000DA61314A126842F440422F4B1A602D4A95
:1048D00052682C4B5A601A4652685A601A465268FF
:1048E00042F480625A601A46526822F440325A609A
:1048F0001A46526842F440325A601A465268234BB4
:104900001A40204B5A601A465268214B1A431D4BDD
:104910005A601A46126842F080721A6000BF194A43
:10492000126802F00072002AF9D0174A126842F4A5
:104930008032154B1A6000BF134A526802F480326D
:10494000002AF9D0104A126842F400320E4B1A6065
:1049500000BF0D4A526802F40032002AF9D0094A19
:10496000526822F00302074B5A601A46526842F01E
:1049700002025A6000BF034A526802F00802002A8D
:10498000F9D070470010024000700040FFFFC3B72D
:104990000000340810B5FFF775FF10BD10B50446D0
:1049A0003349601A8C4244D00CDCB4F1804F1CD0E7
:1049B0003048204410B3B0F5806F28D0B0F5006FB8
:1049C00052D12DE0B0F5806F3CD0B0F58E3F03D0D2
:1049D000B0F5923F48D13EE040F20B30FFF718FDB2
:1049E00040F20B30FFF704FD3FE04FF48060FFF72B
:1049F0000FFD4FF48060FFF7FBFC36E040F2014012
:104A0000FFF706FD40F20140FFF7F2FC2DE040F217
:104A10000240FFF7FDFC40F20240FFF7E9FC24E012
:104A200040F20340FFF7F4FC40F20340FFF7E0FCE4
:104A30001BE040F20440FFF7EBFC40F20440FFF7BC
:104A4000D7FC12E040F20540FFF7E2FC40F20540DF
:104A5000FFF7CEFC09E040F20D30FFF7D9FC40F241
:104A60000D30FFF7C5FC00E000BF00BF10BD000027
:104A70000010004000FCFFBF016841F0010101602F
:104A8000704700000A8882621D4A90420ED0B0F141
:104A9000804F0BD01B4A904208D01B4A904205D051
:104AA0001A4A904202D01A4A90420BD1026822F070
:104AB0007002026002684B881A43026002688B88A9
:104AC0001A4302608A68C262124A90420AD0124AAD
:104AD000904207D0026822F4407202600268CB88DC
:104AE0001A430260064A904202D0094A904201D11C
:104AF0000A7B0263426942F0010242617047000092
:104B0000002C01400004004000080040000C004060
:104B1000003401400010004000140040C2680A4305
:104B2000C2607047CA43026170470246D06800EA1B
:104B300001031069084010B10BB10120704700203B
:104B4000FCE700210180418081804FF6FF71816088
:104B50000021C180017370472DE9F04704460D46DE
:104B60000027B846B94600261D49601A8C421CD061
:104B700006DC1C48204470B1B0F5806F1FD10FE0F7
:104B8000B0F5806F16D0B0F56C4F18D10320FFF749
:104B90009FFA074614E00220FFF79AFA07460FE053
:104BA0000220FFF795FA07460AE00220FFF790FA85
:104BB000074605E00220FFF78BFA074600E000BF3A
:104BC00000BF07EB5500B0FBF5F64FF6F07006EAB4
:104BD000000806F00F0948EA0900A060BDE8F08768
:104BE000004C004000BCFFBF01464868C0F308000D
:104BF0007047C1F3080242607047000010B50446D8
:104C00002049601A8C4228D006DC1F48204490B10D
:104C1000B0F5806F33D117E0B0F5806F26D0B0F5D6
:104C20006C4F2CD140F20E30FFF7F2FB40F20E3009
:104C3000FFF7DEFB24E040F21140FFF7E9FB40F212
:104C40001140FFF7D5FB1BE040F21240FFF7E0FBFD
:104C500040F21240FFF7CCFB12E040F21340FFF7A6
:104C6000D7FB40F21340FFF7C3FB09E040F21440CA
:104C7000FFF7CEFB40F21440FFF7BAFB00E000BFA5
:104C800000BF10BD004C004000BCFFBFC16841F434
:104C90000051C160704710B5024602EB91100068E8
:104CA00001F01F040123A340184008B1012010BDEA
:104CB0000020FCE710B500EB9112126801F01F0410
:104CC0000123A3409A4300EB91131A6010BD10B565
:104CD00000EB9112126801F01F040123A3401A4354
:104CE00000EB91131A6010BD10B500EB91521268E1
:104CF000C1F304440123A3409A4300EB91531A608B
:104D000010BD70B5024600230024C1F3891010586D
:104D100001F01F060125B54000EA050302EB9150A2
:104D20000068C1F304460125B54000EA050414B14A
:104D30000BB1012070BD0020FCE7C26822F4C06204
:104D4000C260C2680A43C26070470A460021C16857
:104D500021F004011143C1607047026922F44052FE
:104D6000026102690A43026170470A460021C16874
:104D700021F008011143C1607047C26822F48052DB
:104D8000C260C2680A43C2607047000000000000B1
:104D90000000000000000000000000000000000013
:104DA0001FCC000C000000000000000008003000D4
:104DB00060000800300060000000022003FC1E209C
:104DC000022003FC1E200220000000000E18110427
:104DD0003FFF10840C78000000000F0010840F3893
:104DE00000C0077818840078000000780F8410C491
:104DF00011240E9800E40084000808006800700088
:104E000000000000000000000000000000000000A2
:104E100007E01818200440020000000040022004AF
:104E2000181807E000000000000002400240018066
:104E30000FF00180024002400000008000800080EE
:104E40000FF800800080008000000001000D000EBF
:104E50000000000000000000000000000080008052
:104E6000008000800080008000800000000C000CAA
:104E70000000000000000000000000000006001814
:104E800000600180060018002000000007F00808FC
:104E900010041004080807F00000000008040804CB
:104EA0001FFC000400040000000000000E0C1014A1
:104EB0001024104411840E0C000000000C18100483
:104EC0001104110412880C700000000000E003209F
:104ED000042408241FFC0024000000001F981084F4
:104EE00011041104108810700000000007F00888F9
:104EF0001104110418880070000000001C0010004C
:104F000010FC13001C001000000000000E381144BB
:104F10001084108411440E38000000000700088C33
:104F200010441044088807F0000000000000000052
:104F3000030C030C00000000000000000000000152
:104F40000106000000000000000000000080014099
:104F50000220041008081004000002200220022091
:104F60000220022002200220000000001004080895
:104F70000410022001400080000000000E0012001A
:104F8000100C106C10800F00000003E00C1813E4EC
:104F9000142417C4082807D000000004003C03C4F0
:104FA0001C40074000E4001C000410041FFC110416
:104FB000110411040E880070000003E00C181004A6
:104FC0001004100410081C10000010041FFC100432
:104FD00010041004080807F0000010041FFC11045E
:104FE000110417C410040818000010041FFC110459
:104FF000110017C010000800000003E00C18100496
:10500000100410441C780040000010041FFC1084A1
:105010000080008010841FFC1004000010041004A5
:105020001FFC100410040000000000030001100128
:1050300010011FFE10001000000010041FFC1104DE
:1050400003801464181C1004000010041FFC1004DA
:10505000000400040004000C000010041FFC1F00EA
:1050600000FC1F001FFC1004000010041FFC0C04B7
:10507000030000E010181FFC100007F008081004DF
:1050800010041004080807F0000010041FFC10842E
:105090001080108010800F00000007F00818102406
:1050A0001024101C080A07F2000010041FFC110451
:1050B000110011C011300E0C000400000E1C110470
:1050C0001084108410441C380000180010001004D4
:1050D0001FFC100410001800000010001FF810043E
:1050E0000004000410041FF8100010001E0011E05E
:1050F000001C007013801C0010001FC0103C00E05A
:105100001F0000E0103C1FC000001004180C1634F3
:1051100001C001C01634180C100410001C00130448
:1051200000FC13041C00100000000804101C106494
:10513000108413041C04101800000000000000007C
:105140007FFE4002400240020000000030000C00E0
:1051500003800060001C00030000000040024002C9
:1051600040027FFE00000000000000000000200060
:10517000400040004000200000000001000100014C
:10518000000100010001000100010000400040009A
:105190002000000000000000000000000098012432
:1051A00001440144014400FC000410001FFC00887D
:1051B00001040104008800700000000000700088F5
:1051C0000104010401040088000000000070008850
:1051D0000104010411081FFC0004000000F8014450
:1051E00001440144014400C800000000010401041E
:1051F0000FFC1104110411001800000000D6012951
:105200000129012901C90106000010041FFC0084C6
:1052100001000100010400FC000400000104190465
:1052200019FC00040004000000000000000300015D
:105230000101190119FE0000000010041FFC0024E8
:10524000004001B4010C010400000000100410042F
:105250001FFC0004000400000000010401FC010424
:10526000010001FC0104010000FC010401FC0084B8
:1052700001000100010400FC0004000000F801042A
:1052800001040104010400F80000010101FF008590
:105290000104010400880070000000000070008814
:1052A00001040104010501FF00010104010401FCE6
:1052B00000840104010001800000000000CC0124F2
:1052C00001240124012401980000000001000100D4
:1052D00007F80104010400000000010001F80004C7
:1052E00000040004010801FC0004010001800170B9
:1052F000000C001001600180010001F0010C003081
:1053000001C00030010C01F0010000000104018C1B
:1053100000740170018C0104000001010181017120
:10532000000E001801600180010000000184010CE2
:10533000013401440184010C000000000000000061
:10534000000001003EFC400240020000000000009E
:105350000000FFFF000000000000000040024002CB
:105360003EFC010000000000000000006000800022
:1053700080004000400020002000DDDDDDDDDCBBE2
:10538000BBDDDDDDDDDDDDDDDDDD9888888888885D
:1053900088887777777777888888855555566666C1
:1053A000666666666666666888888333333222225C
:1053B0002222222222222228888D000052204361AC
:1053C0006C696200576F726B204D6F64650000005E
:1053D0004574434F322053657400000053704F32C0
:1053E000205365740000000053797374656D205379
:1053F00065740000416C61726D205365740000009B
:1054000046696C7465722053657400004175746F51
:10541000204C6967687400004461746120526576AD
:1054200069657700445400080000002084000000F3
:1054300078360008C854000884000020CC290000F9
:105440008836000800000000000000000000000096
:10545000000000000000000000000000000000004C
:1054600000000000FFFF000000000100C45300081E
:10547000F4530008DC53000800540008BC53000833
:105480000C540008D0530008E853000818540008D2
:10549000000000000000000000000000000000000C
:1054A00000000000000001000000000000000000FB
:1054B00000000000000000000000000000000000EC
:0854C000000E270700000000A8
:0400000508000131BD
:00000001FF
