:020000040800F2
:10000000080600204501000895160008170800089A
:10001000911600082F020008C92300080000000004
:10002000000000000000000000000000231C000889
:10003000390600080000000021180008251C0008EF
:100040005F0100085F0100085F0100085F01000810
:100050005F0100085F0100085F0100085F01000800
:100060005F010008B1060008DD0600085F01000816
:100070005F0100085F0100085F0100085F010008E0
:100080005F0100085F0100085F0100085F010008D0
:100090005F0100085F0100085F0100080907000810
:1000A0005F0100085F0100085F0100085F010008B0
:1000B0005F0100087D1C00085F0100085F01000867
:1000C0005F0100085F0100085F0100085F01000890
:1000D0005F010008B12200084D2300085F010008FD
:1000E000550600085F0100085F0100085F01000875
:1000F0005F0100085F0100085F0100085F01000860
:100100005F0100085F010008BD1C00085F010008D6
:100110005F0100085F0100085F0100085F0100083F
:100120005F0100085F0100085F0100085F0100082F
:10013000DFF80CD000F05AF800480047A12B000867
:10014000080600200648804706480047FEE7FEE70D
:10015000FEE7FEE7FEE7FEE7FEE7FEE7FEE7FEE777
:100160002D1C0008310100082DE9F05F0546002034
:1001700092469B4688460646814640241BE0284618
:1001800041464746224600F020F853465A46C01AD8
:10019000914110D311461846224600F039F82D1A25
:1001A00067EB01084F4622460120002100F030F89D
:1001B00017EB00094E41201EA4F10104DFDC484684
:1001C00031462A464346BDE8F09F202A04DB203A08
:1001D00021FA02F00021704721FA02F3D040C2F167
:1001E000200291400843194670470000064C074D15
:1001F00006E0E06840F0010394E8070098471034F7
:10020000AC42F6D3FFF798FF5C3C00087C3C00084A
:10021000202A04DB203A00FA02F1002070479140C6
:10022000C2F1200320FA03F319439040704700BF46
:10023000FEE70000002001490870704745000020DB
:1002400000200149087070474400002010B540F2BA
:10025000066002F0F3FE40F2046002F0EFFE4FF49D
:10026000C06002F0EBFE082303224821374802F069
:100270001FFC102303224821344802F019FC2023DC
:1002800003224821314802F013FC4FF400530322AB
:1002900048212F4802F00CFC4FF400730322482140
:1002A0002B4802F005FC0321042002F0B5FB0421D9
:1002B000084602F0B1FB0521042002F0ADFB0D2140
:1002C000022002F0A9FB0921022002F0A5FB012275
:1002D0000021082002F006FB01220021102002F07C
:1002E00001FB01220021202002F0FCFA0122002162
:1002F000500302F0F7FA01220021500202F0F2FA54
:10030000082002F05BFB102002F058FB202002F0D6
:1003100055FB4FF4005002F051FB4FF4007002F017
:100320004DFB02221146092002F078FC0222114600
:100330000A2002F073FC02221146282002F06EFC13
:1003400002221146172002F069FC10BD001801407E
:100350000010014010B540F2026002F06FFE40F262
:10036000046002F06BFE4FF48073032210210E48EC
:1003700002F09EFB4FF480710B4802F043FB4023D8
:1003800003221021094802F093FB4021074802F0A4
:1003900039FB802303221021044802F089FB8021CD
:1003A000024802F02FFB10BD000801400010014080
:1003B00010B54FF4A06002F093FC10BD10B502F030
:1003C00069FD102002F0A2FD102002F0AFFD0446EE
:1003D000012C26D102F0F8FA002002F08BFC00205C
:1003E00002F0A0FCA00202F091FC002002F066FEE8
:1003F000002002F06FFE4FF45011200402F04EFE78
:10040000182002F083FD00BF192002F06DFD0028C6
:10041000FAD0022002F06EFE00BF02F077FE002844
:10042000FBD010BD7FB504460D4640F2017002F0CE
:1004300005FE0F4802F0FEFE684602F0CEFFADF862
:1004400000500020ADF804000294ADF806006946A3
:10045000074802F063FF0121054802F0ABFF0022CC
:1004600001211D2002F0DAFB014802F051FF7FBD9F
:10047000000400407FB504460D4640F2037002F0D0
:10048000DDFD0F4802F0D6FE684602F0A6FFADF88B
:1004900000500020ADF804000294ADF80600694653
:1004A000074802F03BFF0121054802F083FF0022CC
:1004B0000121322002F0B2FB014802F029FF7FBD8A
:1004C000000C004010B5044640F2026002F0B6FD98
:1004D00040F20E6002F0B2FD4FF4007303221821C7
:1004E0001D4802F0E5FA4FF48063032204211A4804
:1004F00002F0DEFA194802F0CDFF2146174802F05B
:1005000077FF0021154803F074F80021134803F029
:1005100080F80021114803F05CF804210F4803F033
:1005200060F808210D4803F06CF840F205310B48E3
:1005300003F019F840F20731084803F014F80748AF
:1005400002F0F0FF00221146252002F067FB002098
:100550000349087010BD0000000801400038014048
:100560005800002010B5044640F2026002F066FD1B
:1005700040F2117002F062FD0423032218211B488F
:1005800002F096FA082303220421184802F090FA98
:10059000174802F07FFF2146154802F029FF00218D
:1005A000134803F026F80021114803F032F8002127
:1005B0000F4803F00EF804210D4803F012F808214B
:1005C0000B4803F01EF840F20531094802F0CBFF5A
:1005D0004FF4A061064802F0C6FF00220121262048
:1005E00002F01CFB024802F09DFF10BD0008014014
:1005F0000044004030B50346002016E0B3F9005037
:100600009C68645D0C541C88641C24B21C80B3F983
:100610000040B3F90450AC4201DB00241C80441CB0
:1006200020B2DC88641E24B2DC80B3F90640002CC2
:1006300001DD9042E2DB30BD7047000001B50449A6
:100640000098086000BF024800680028FBD108BD80
:100650006800002010B54FF4005002F037F968B17F
:100660004FF4005002F0AAF94FF4005002F096F94E
:1006700001200D49C87000200C49C8704FF48060FB
:1006800002F09CF94FF4006002F098F94FF48050AA
:1006900002F094F94FF4804002F090F94FF40040DA
:1006A00002F08CF910BD0000140000201900002099
:1006B00010B5082002F00AF958B1082002F07EF9BE
:1006C000082002F06BF9012002490870002002495D
:1006D000087010BD140000201900002010B5102073
:1006E00002F0F4F858B1102002F068F9102002F07E
:1006F00055F901200249487000200249487010BD98
:10070000140000201900002010B5202002F0DEF8AF
:1007100058B1202002F052F9202002F03FF90120C8
:10072000144988700020144988704FF4007002F05A
:10073000CDF868B14FF4007002F040F94FF400704A
:1007400002F02CF901200B49087100200A490871B8
:10075000202002F033F9402002F030F9802002F02E
:100760002DF94FF4807002F029F94FF4007002F077
:1007700025F910BD140000201900002070B50346B3
:10078000002016E00C5CB3F902609D68AC555C88F3
:10079000641C24B25C80B3F90240B3F90450AC424B
:1007A00001DB00245C80441C20B2DC88641C24B281
:1007B000DC80B3F90640B3F90450AC4201DA904250
:1007C000E0DB70BD01480078704700004500002064
:1007D00001480078704700004400002001463C2991
:1007E00004DB642902DC4FF4FC607047322901DB32
:1007F0003C2903DB642904DD782902DC4FF6E07034
:10080000F3E7282901DB962902DD4FF47840ECE775
:100810004FF4FC60E9E700BFFEE710B501F006FA0F
:1008200000F049F800F030F84FF4E13000F088F8BB
:1008300000F07AF800F024F800F042F84FF4E130CC
:1008400000F086F800F008F800F022F800F034FB21
:1008500001F07EFC10BD000010B5FFF7F7FC00248E
:1008600006E000200449085504490855601CC4B23C
:10087000052CF6DB10BD000014000020190000203C
:1008800010B5FFF767FD10BD10B5FFF791FD10BD66
:10089000704730B50B460024048044808280C480B9
:1008A0008360002104E0002485686C544C1C21B254
:1008B0009142F8DB30BD10B5FFF780FD10BD7047E9
:1008C00030B5164800684FF47A72B0FBF2F1481E5A
:1008D000B0F1807F01D301201BE0481E4FF0E022E1
:1008E000506150170F22002807DA13071D0E0C4B1A
:1008F00000F00F04241F1D5503E013071C0E094BC5
:100900001C5400BF00204FF0E022906107201061CE
:10091000002008B100BFFEE730BD000064000020E9
:1009200018ED00E000E400E010B5772140F2E73078
:10093000FFF778FD772140F2E730FFF79BFD10BD10
:1009400010B5044600F020F82046FFF7BBFD10BDAF
:1009500010B5044600F004F82046FFF703FE10BD72
:1009600010B5002404E0002005490855601C84B23D
:10097000642CF8DB642202490248FFF78AFF10BDAD
:10098000880000207C00002010B5002406E0002034
:100990000949085509490855601C04B2642CF6DB66
:1009A000642205490648FFF774FF6422034905489D
:1009B000FFF76FFF10BD0000300100209401002000
:1009C000180100202401002010B50446052C33D264
:1009D000DFE804F0030C151E28000821174802F078
:1009E000C5F808B9012010BD0020FCE7102113480C
:1009F00002F0BCF808B90120F5E70020F3E7202158
:100A00000E4802F0B3F808B90120ECE70020EAE74D
:100A10004FF400510A4802F0A9F808B90120E2E7B2
:100A20000020E0E74FF40071054802F09FF808B994
:100A30000120D8E70020D6E70020D4E700180140C5
:100A40000010014010B50024C4E06448005D58B9AE
:100A50002046FFF7B9FF002805D001205F4908555F
:100A600000205F490855B3E05C48005D01286DD166
:100A70002046FFF7A9FF002845D05948005D401CDB
:100A8000574908550846005D0528ECDB4CB900F0D5
:100A9000CDFD54480068401C5249086000F0C6FE75
:100AA0002AE0012C09D100F0D3FD4F480068401C1A
:100AB0004D49086000F0F4FE1EE0022C09D100F060
:100AC000D7FD4A480068401C4849086000F0BEFE57
:100AD00012E0032C07D146480068401C44490860D6
:100AE00000F0EEFE08E0042C06D142480068401CED
:100AF0004049086000F0C0FE022038490855002037
:100B00003749085564E000203549085533490855F0
:100B10001CB9082001F04AFF5AE0012C03D1102033
:100B200001F044FF54E0022C03D1202001F03EFFED
:100B30004EE0032C04D14FF4005001F037FF47E0A2
:100B4000042C45D1E00101F031FF41E02348005D74
:100B500002283DD12046FFF737FFA8BB2048005DA3
:100B6000401C1F4908550846005D052830DB2CB99C
:100B700000F0BCFE082001F019FF1FE0012C05D198
:100B800000F0E4FE102001F011FF17E0022C05D167
:100B900000F0BAFE202001F009FF0FE0032C06D17F
:100BA00000F0E2FE4FF4005001F000FF06E0042CDC
:100BB00004D100F0BBFEE00101F0F8FE002007497F
:100BC00008550749085503E0FFE700200449085588
:100BD000601CC4B2052CFFF638AF10BD1400002015
:100BE0001900002000000020040000200800002060
:100BF0000C0000201000002070B5054600240A48B3
:100C000000880949498800FB01F60021084600F0E8
:100C1000B3FB00F0DBFC00BF03E0284600F0D0FC93
:100C2000641CB442F9D370BD6C0000201F49887168
:100C3000898845F21052914210D138B94FF4F071C1
:100C40001A4A11804FF4487151802EE04FF44871D8
:100C5000164A11804FF4F071518026E013498988BB
:100C600045F21032914210D138B94FF4A0710F4AB9
:100C700011804FF4F071518017E04FF4F0710B4A7E
:100C800011804FF4A07151800FE038B94FF4A0717A
:100C9000064A11804FF4F071518006E04FF4F07174
:100CA000024A11804FF4A071518070476C000020FF
:100CB0002DE9FF4F85B081468A46002004900390BD
:100CC0000798A0EB09040898A0EB0A05CDF8089056
:100CD000CDF804A0002C01DD012705E00CB90027A8
:100CE00002E04FF0FF376442002D02DD4FF00108B3
:100CF00006E015B94FF0000802E04FF0FF386D42F2
:100D0000AC4201DD204600E0284606464FF0000BCD
:100D100021E0019A91B2029A90B200F023F804986F
:100D2000204404900398284403900498B04205DDC1
:100D30000498801B04900298384402900398B042B3
:100D400005DD0398801B03900198404401900BF14E
:100D500001001FFA80FB701C8345DADD09B0BDE895
:100D6000F08F000070B504460D462946204600F07D
:100D700003FB00F02BFC0248008800F021FC70BD52
:100D80001E0000202DE9F04104460D4616461F4680
:100D90002B46324629462046FFF78AFF3B4622462D
:100DA00029462046FFF784FF3B4632463946204617
:100DB000FFF77EFF3B46324629463046FFF778FF75
:100DC000BDE8F08170B505460E461446314628460A
:100DD00000F0D2FA00F0FAFB204600F0F1FB70BD03
:100DE0002DE9F05F05460E4617469846DDF828A027
:100DF000781B401C1FFA80FB344613E0214628462E
:100E000000F0BAFA00F0E2FB4FF0000906E05046AD
:100E100000F0D6FB09F101001FFA80F9D945F6DB95
:100E2000601C84B24445E9DDBDE8F09F10B540F296
:100E3000026002F003F940F2036002F0FFF840F2B2
:100E4000056002F0FBF840F2066002F0F7F84FF49C
:100E5000805303221021144801F02AFE01230322AB
:100E60001021124801F024FE4CF6B3730322102126
:100E70000F4801F01DFE4FF68073032210210D482C
:100E800001F016FE80210A4801F0BEFD4FF400611A
:100E9000074801F0B9FD2021054801F0B5FD1021FA
:100EA000034801F0B1FD10BD00080140000C0140F5
:100EB000001401400018014010B5FFF7B7FF4FF4D0
:100EC0008051994801F0A0FD0A20FFF7B7FB4FF4CD
:100ED0008051954801F096FD3220FFF7AFFB4FF4AB
:100EE0008051914801F090FDC820FFF7A7FBD32067
:100EF00000F07EFB00F092F98C49888000F08EF9BA
:100F00008A49888000F08AF9884988800846808864
:100F10004FF6FF7101EA00208449888000F07EF9D5
:100F2000824989880843814988800846818880A051
:100F300001F062FA7D48808845F21051884210D154
:100F40004FF43050794908814FF4285048814FF4CC
:100F50002C5088814FF4487008804FF4F07048801E
:100F6000CCE07248808845F2103188420DD12C20A7
:100F70006E4908812A2048812B2088814FF4A07077
:100F800008804FF4F0704880B8E02C206749088151
:100F90002A2048812B2088814FF4A07008804FF4CC
:100FA000F07048800846808847F2897188423ED1B7
:100FB0000021112000F012FB7820FFF73FFB0521F4
:100FC0003A2000F00BFB0C21B22000F007FB0C21B3
:100FD000B22000F003FB0021B72000F0FFFA3D2112
:100FE000BB2000F0FBFA2C21C02000F0F7FA012111
:100FF000C22000F0F3FA1321C32000F0EFFA202101
:10100000C42000F0EBFA0F21C62000F0E7FAA4217B
:10101000D02000F0E3FAA121D02000F0DFFA002177
:10102000292000F0DBFA7820FFF708FB66E03F4854
:10103000808847F29671884252D10021112000F039
:10104000CDFA7820FFF7FAFA0821362000F0C6FA28
:1010500005213A2000F0C2FA0021B12000F0BEFACA
:101060001821B12000F0BAFA0021B32000F0B6FA3E
:101070000221B32000F0B2FA0321B32000F0AEFA4F
:101080000821B32000F0AAFA0021B42000F0A6FA4B
:101090000221C02000F0A2FA0221C12000F09EFA35
:1010A0003221C52000F09AFA3221C72000F096FACA
:1010B0000821362000F092FA0021372000F08EFA45
:1010C0000021382000F08AFA0021392000F086FA49
:1010D0000021292000F082FA7820FFF7AFFA0DE016
:1010E0000021112000F07AFA7820FFF7A7FA0021FA
:1010F000292000F073FA7820FFF7A0FA0020FFF70C
:1011000095FD022000F0B8F801210F4801F07CFCA9
:101110004FF6FF70FFF770FD04484388028881880E
:101120000AA001F069F910BD000801406C00002020
:101130005B4C43445D20526561642049443A203051
:1011400078253034580D0A00000C01405B4C4344B4
:101150005D20496E697420446F6E652C2049443AC5
:10116000203078253034582C2057696474683A2030
:1011700025642C204865696768743A2025640D0A47
:101180000000000070B500254CF203730322042117
:10119000204801F08DFC4FF68073032204211E4885
:1011A00001F086FC1B4801F0E9FC0446A00B04F0AA
:1011B000030140EA810004F4807140EA411004F424
:1011C000007140EA411004F4806140EA4110054397
:1011D000114801F0D3FC0646F02000EAE6004FF487
:1011E000706101EAE60108434FF4805101EAE6012B
:1011F000084305434CF2037303221021054801F014
:1012000057FC4FF6807303221021034801F050FC75
:10121000284670BD00140140001801401CB5002094
:1012200001904FF40061134801F0EEFB802111485A
:1012300001F0E8FB10210F4801F0E4FB00200090D2
:1012400005E000BF9DF80000401CC0B200909DF872
:1012500000000A28F5DBFFF795FF019010210548F3
:1012600001F0D2FB8021034801F0CEFBBDF8040061
:101270001CBD0000001401402DE9F041054600248A
:1012800000273C488079012818D1082D15D2DFE8C5
:1012900005F00406080A0C0E101206250DE00725BD
:1012A0000BE0042509E0052507E0012505E0002500
:1012B00003E0032501E0022500BF00BF082D1CD27A
:1012C000DFE805F00406090C0F12151800BF14E042
:1012D00044F0800411E044F040040EE044F0C00407
:1012E0000BE044F0200408E044F0600405E044F022
:1012F000A00402E044F0E00400BF00BF1D48808865
:1013000045F21051884202D14FF4585700E0362779
:101310001848808847F29671884205D01548808821
:1013200047F28971884201D144F0080421463846C9
:1013300000F054F904F0200068B10E4800880D490F
:101340004988884214DA0B48068840880949088091
:10135000084646800CE007480088064949888842CC
:1013600006DD044806884088024908800846468011
:10137000BDE8F0816C00002070B504460D461E48A3
:10138000808845F21051884220D11B49488900F0DD
:101390002FF9201200F0F6F817494989491C88B244
:1013A00000F026F9E0B200F0EDF81349888900F06A
:1013B0001FF9281200F0E6F80F498989491C88B204
:1013C00000F016F9E8B200F0DDF813E00A494889A8
:1013D00000F00EF9201200F0D5F8E0B200F0D2F8DB
:1013E0000549888900F004F9281200F0CBF8E8B22A
:1013F00000F0C8F870BD00006C0000202DE9F05F1F
:1014000080460C4616461F46A346A6F12000C6B2EB
:10141000102F3DD1002539E01E4800EB061010F8D2
:1014200005904FF0000A2BE009F0800030B11A4817
:10143000028821464046FFF7C5FC07E00A9828B914
:101440001648028821464046FFF7BCFC4FEA496037
:101450004FEA1069601C84B211484088A04201DC48
:10146000BDE8F09FA4EB0B00B84205D15C4608F143
:1014700001001FFA80F806E00AF1010000F0FF0AFF
:10148000BAF1080FD0DB00BF681CC5B2102DC3DB5A
:1014900000BFE5E7223600081E00002020000020E3
:1014A0006C0000202DE9F84F04460D469046994601
:1014B000DDE90A6704F0FF0A08EB04001FFA80F870
:1014C00009EB05001FFA80F916E0444502DB54469B
:1014D000A81985B24D4500DB14E0002000903A7851
:1014E000334629462046FFF789FF304606EBD07188
:1014F00004EB61018CB27F1C38787E2802DC3878DE
:101500002028E2DA00BFBDE8F88F000070B504467D
:101510001A4801F03FFB06464CF20370864304F084
:101520000300C4F3810141EA803004F4005140EA31
:10153000611004F4804140EA611004F4004140EA83
:101540006110064331460D4801F028FB0C4801F0BC
:1015500021FB05464FF68070854304F0F000C00083
:1015600004F4706140EAC10004F4805140EAC10013
:1015700005432946024801F011FB70BD00140140EB
:101580000018014010B504464FF400610B4801F00B
:101590003BFA8021094801F035FA2046FFF7B6FFF3
:1015A0002021064801F02EFA2021044801F02CFAEF
:1015B0008021024801F028FA10BD0000001401400B
:1015C00010B504462046FFF7DDFF10BD10B50249F7
:1015D000088900F00DF810BD6C00002070B50546BC
:1015E0000C46284600F004F82046FFF7CBFF70BDFC
:1015F00010B504464FF400610B4801F003FA802156
:10160000094801F0FFF92046FFF780FF2021064836
:1016100001F0F8F92021044801F0F6F98021024890
:1016200001F0F2F910BD00000014014010B54FF4B4
:101630008071064801F0A6FA0446C4F10100C2B266
:101640004FF48071014801F0E1F910BD000801403C
:1016500010B54021054801F095FA0446C4F1010097
:10166000C2B24021014801F0D1F910BD0010014083
:1016700010B58021054801F085FA0446C4F1010047
:10168000C2B28021014801F0C1F910BD0010014033
:1016900000BFFEE77047000000F01F0201219140EB
:1016A000024A430942F823107047000080E200E03C
:1016B00010B504463B48007830B101280FD002280D
:1016C00022D0032867D131E0AA2C03D1012035496B
:1016D000087003E0214634A000F08EFE5FE0032C8A
:1016E00008D13248047000203149087002202D4989
:1016F000087008E0AA2C03D101202A49087002E0F2
:101700000020284908704AE0294801780078401CE8
:10171000274A107027484454104600782349097816
:10172000884202DB03201F49087038E0552C21D184
:1017300020480078204908701E48407848701D48AD
:10174000807888700020C87001200871084683786E
:101750004278017819A000F04FFE174800F084FD90
:10176000154800F043F9012000F004FA00200D496B
:1017700008700FE0AA2C06D118A000F03DFE012051
:101780000849087006E021461EA000F035FE002042
:101790000449087003E000200249087000BF00BF40
:1017A00010BD000051000020256300005300002000
:1017B000520000200C0100204A000020506172738A
:1017C00065643A2053504F323D25642048523D25F0
:1017D000642050493D25640D0A0000005061727379
:1017E00065204572726F723A205461696C206D6990
:1017F000736D617463682C20726573746172742EEA
:101800000D0A00005061727365204572726F723A62
:10181000205461696C3D253032580D0A00000000EB
:10182000704710B5FFF724FF10BD000010B503A0EE
:1018300000F0E2FD00F0B6FC10BD00004C4C205062
:1018400055534820444F574E0D0A000010B503A0D1
:1018500000F0D2FD00F08EFC10BD00004C45465457
:101860002048494748204B4559205055534820446B
:101870004F574E0D0A00000010B503A000F0BCFD4C
:1018800000F0AAFC10BD00004D454E55204B4559B7
:10189000205055534820444F574E0D0A0000000079
:1018A00010B503A000F0A8FD00F0AAFC10BD0000D8
:1018B000524C205055534820444F574E0D0A0000BB
:1018C00010B503A000F098FD00F088FC10BD0000EA
:1018D00052494748542048494748204B45592050D1
:1018E00055534820444F574E0D0A000010B502A032
:1018F00000F082FD10BD00004C4C2052454C45418B
:1019000053450D0A0000000010B502A000F074FD60
:1019100010BD00004C4546542048494748204B45DF
:10192000592052454C454153450D0A0010B502A0BF
:1019300000F062FD10BD00004D454E55204B45594D
:101940002052454C454153450D0A000010B502A0F8
:1019500000F052FD10BD0000524C2052454C454154
:1019600053450D0A0000000010B502A000F044FD30
:1019700010BD000052494748542048494748204B71
:1019800045592052454C454153450D0A0000000081
:101990000146C88808B9012070470020FCE7000014
:1019A00070B504460025012221460348FEF722FEB9
:1019B000C5B2284670BD00001801002070B504466D
:1019C0000D462A4621460248FEF714FEC0B270BDFD
:1019D0007C00002008B500204FF48C73E622A02183
:1019E00000901E20FFF7FCF908BD0000F0B58BB099
:1019F00004462748007808B900F05AF825480588B9
:101A0000207800F0F7F823490880227822A103A863
:101A100000F002FD03A810210B463C22CDE9001086
:101A2000B4216E20FFF73EFD6078FEF7D7FE19491E
:101A3000088062781AA103A800F0EEFC03A8102128
:101A40000B465022CDE90010C8216E20FFF72AFD79
:101A50004FF4FC600F490880A0780A2190FBF1F256
:101A600001FB120690FBF1F733463A460EA103A89C
:101A700000F0D2FC03A810210B463C22CDE9001057
:101A8000DC216E20FFF70EFD024805800BB0F0BD93
:101A9000220000201E0000202564252500000000F3
:101AA00025642062706D000025642E2564252500C4
:101AB0001CB52048007800283AD1FFF78BFF4FF67D
:101AC000FF701D4908801DA010210B46C822CDE9DA
:101AD0000010A0211E20FFF7E5FC1EA010210B46E0
:101AE0007822CDE90010B4211E20FFF7DBFC1BA0FB
:101AF00010210B467822CDE90010C8211E20FFF7E7
:101B0000D1FC19A010210B467822CDE90010DC2170
:101B10001E20FFF7C7FC15A010210B467822CDE947
:101B20000010F0211E20FFF7BDFC012001490870C4
:101B30001CBD0000220000201E0000203D3D3D2075
:101B400053504F32204D6F6E69746F72203D3D3D92
:101B50000000000053704F323A0000004865617287
:101B60007420526174653A0050493A0053746174AC
:101B700075733A0030B58BB004461848007808B940
:101B8000FFF796FF1648058800204FF48273AA22BB
:101B9000F02100906E20FFF723F944B14FF4FC6070
:101BA0000F4908800FA103A800F036FC07E04FF4AE
:101BB00078400B4908800DA103A800F02DFC03A874
:101BC00010210B463C22CDE90010F0216E20FFF7DA
:101BD00069FC034805800BB030BD000022000020E6
:101BE0001E00002056616C6964000000496E766139
:101BF0006C69640001465F2904DB642902DC4FF450
:101C0000FC6070475A2904DB5F2902DA4FF6E07066
:101C1000F7E7552902DA4FF47840F2E74FF4FC6019
:101C2000EFE7704710B500F06DF810BD10B5104823
:101C3000006840F470000E4908600E48006840F0EB
:101C400001000C49086000204860C862084600682E
:101C500009490840074908604FF41F00886008469A
:101C6000006820F48020086001F0E0FA10BD000058
:101C700088ED00E000100240FFFFF6FE10B50121E4
:101C80000B4801F09EFB012803D10121084801F017
:101C900095FB08480088401C0649088008460088D3
:101CA000022804DB0020088001200349087010BDD1
:101CB00000040040460000204400002010B501212F
:101CC0000D4801F07EFB012803D101210A4801F0F3
:101CD00075FB0A480088401C00B208490880084685
:101CE000B0F90000B0F57A7F04DB00200880012005
:101CF0000349087010BD0000000C0040480000209F
:101D0000450000200448006820B103480068401ED8
:101D10000149086070470000680000200C490D4A26
:101D2000127888540B490978491C0A4A11701146E7
:101D30000978202901DB0021117007490978202941
:101D400004DA05490978491C034A117070470000FC
:101D5000EC0000204F0000205000002038B5402447
:101D600003E09DF80000FFF7A3FC01216846FFF7A0
:101D700025FE18B1201EA4F10104F2D138BD0000E7
:101D80001CB5044642F224101E23F02200210090CC
:101D90000846FFF725F84FF6FF701349088010201A
:101DA0000346C8220721CDE900040A20FFF77AFB89
:101DB0000EA010210B46C822CDE900100721822079
:101DC000FFF770FB47F6FF70074908801E23F022DB
:101DD00019460020FEF76CFF1F23F0221946002051
:101DE000FEF766FF1CBD00001E00002049443A308B
:101DF000312031323A30300030B589B00020FEF762
:101E0000FBFE4CA0FFF7BCFF00204CA147F6FF7281
:101E10006423CDE900210290DC2228210A2000F071
:101E2000AFF847F6FF70474908804748007820B967
:101E300046A104A800F0F0FA05E04348027844A166
:101E400004A800F0E9FA04A818210B466422CDE9A1
:101E5000001050210846FFF725FB00203DA14FF45C
:101E6000FC626423CDE900210290692296210A20B8
:101E700000F086F84FF4FC60324908803248407820
:101E800020B932A104A800F0C7FA05E02E48427834
:101E90002FA104A800F0C0FA04A818210B46502274
:101EA000CDE90010BE212320FFF7FCFA00202BA172
:101EB0004FF6E0726423CDE9002102906922962159
:101EC0007D2000F05DF84FF6E0701E4908801E4846
:101ED00080780A2190FBF1F201FB12041A48807805
:101EE00090FBF1F523462A461EA104A800F094FABF
:101EF0001548807818B915A104A800F08DFA04A837
:101F000018210B465022CDE90010BE219620FFF784
:101F1000C9FA48F230400B49088014A010210B4642
:101F2000C822CDE900104FF491713C20FFF7BAFAB6
:101F300009B030BD4D6F6E69746F720053704F32CF
:101F4000202500001E000020270000202D2D00006D
:101F50002564000050522062706D00005049202519
:101F60000000000025642E25640000005072657397
:101F7000732053455420746F204D656E750000002A
:101F80002DE9FC4704460D4616461F46DDE90B9A2F
:101F9000DDF8288041F282000090E81983B2A01990
:101FA00082B229462046FEF71BFF2548A0F8008094
:101FB000E81983B2A01982B229462046FEF7E2FE54
:101FC00005EB070CACF1010C1FFA8CF304EB060CCB
:101FD000ACF1010C1FFA8CF205F1010C1FFA8CF127
:101FE00004F1010C1FFA8CF0FEF7CCFE05F1180C81
:101FF0001FFA8CF304EB060CACF1020C1FFA8CF206
:1020000005F1020C1FFA8CF104F1020C1FFA8CF09E
:10201000CDF80080FEF7E4FE0948A0F800A01020EB
:10202000A6F114039AB26B1D99B204F10A03CDE92B
:10203000000998B21023FFF735FABDE8FC870000CD
:102040001E0000207CB50020FEF7D6FD32A0FFF771
:1020500097FE00254EE0C5EBC50000EB800000F1C7
:10206000320430480078854218D11F20009004F1D6
:10207000190083B2601F81B2E6220A20FEF7B0FE8B
:102080004FF6FF702849088004F1190083B2601FE1
:1020900081B2E6220A20FEF775FE0FE041F28200CF
:1020A000009004F1190083B2601F81B2E6220A2079
:1020B000FEF796FE48F230401B4908801B4850F856
:1020C000250010210B46C822CDE90010214614201E
:1020D000FFF7E8F913480078854209D114A01021D0
:1020E0000B461422CDE900102146D220FFF7DAF981
:1020F000681CC5B2062DAEDB4FF6FF700A4908809A
:102100000CA010210B46C822CDE900104FF49671A7
:102110000A20FFF7C7F97CBD53657474696E677355
:1021200000000000250000201E0000202C000020E0
:102130003E00000055502F444E3A2053656C6563B5
:102140007420205345543A20456E74657200000097
:1021500010B50020FEF750FD002004490870012052
:102160000349087000F066F810BD0000240000204C
:102170002600002010B50848007848B9012006491B
:10218000087000200549087001200549087000E02A
:1021900000BF00F04FF810BD2400002025000020F3
:1021A0002600002010B50948007801280BD1084806
:1021B0000078002807DD06480078401E04490870B2
:1021C00001200449087000F035F810BD24000020FB
:1021D00025000020260000207047000010B50648AA
:1021E0000078012805D10020034908700120034927
:1021F000087000F01FF810BD240000202600002009
:1022000010B50948007801280BD108480078052846
:1022100007DA06480078401C044908700120044988
:10222000087000F007F810BD2400002025000020F1
:102230002600002010B50A48007800B910BD0948F2
:10224000007810B9FFF7D8FD05E0064800780128AE
:1022500001D1FFF7F7FE00200149087000BFEDE74C
:10226000260000202400002000B970470D4909789D
:102270000278914209D10B4949784278914204D1C0
:1022800008498978827891420AD0064902680A6032
:1022900002790A710449097811B90121034A1170C0
:1022A00000BFE2E7270000202400002026000020D5
:1022B00008B5002000901F491F4801F06EF978B161
:1022C0001C491D4801F05CF92520FFF7E5F91A4883
:1022D00001F0D6F8C0B200909DF8000000F076F84A
:1022E0001649154801F059F9012806D11349124839
:1022F00001F046F9104801F0C3F811490E4801F009
:102300004CF9B0B12520FFF7C7F96846FFF748FB45
:102310009DF80010084801F0B8F80A48FFF738FBAC
:1023200038B100200849087040F20731024801F036
:102330000DF908BD05030500003801400005030044
:1023400007030700180100205800002010B51949A4
:10235000194801F022F970B1174801F091F8C4B2A0
:10236000204600F03FF82046FFF7D8FC11491248FC
:1023700001F006F900BF11490F4801F00EF930B124
:102380000D4801F07DF80D490B4801F0F9F80C49B2
:10239000094801F002F918B10949074801F0F0F8BD
:1023A0000849054801F0F9F818B10649024801F05A
:1023B000E7F810BD050305000044004000050300D8
:1023C000000502000005010000BFFEE731B5002452
:1023D000012269460248FEF7D1F9C4B2204638BD51
:1023E0002401002001B5012269460248FEF7C6F922
:1023F000C0B208BD7C0000200FB4054B10B503A986
:10240000044A029800F02CF810BC5DF814FB0000A0
:10241000E1290008540000200FB4084B10B504A9AE
:1024200002AA039800F01CF8044602A9002000F05C
:1024300048FA204610BC5DF814FB0000C3280008D1
:1024400002E008C8121F08C1002AFAD1704770477D
:10245000002001E001C1121F002AFBD170470000DB
:102460002DE9FF4F8DB00F460546002606E02528D2
:102470000BD0DDE90F1290476D1C761C28780028E0
:10248000F5D111B03046BDE8F08F0024A246A14638
:102490000122EC4900E0044315F8013F203B02FA19
:1024A00003F00842F7D128782A2810D06FF02F02C5
:1024B0002878A0F13001092914D80AEB8A0102EB2F
:1024C000410144F0020400EB010A6D1CF0E701CF6A
:1024D0005FEA000A03D544F40054CAF1000A44F04C
:1024E00002046D1C28782E2817D115F8010F44F02E
:1024F00004042A280ED06FF02F022878A0F13001B2
:1025000009290AD809EB890102EB410100EB010915
:102510006D1CF2E757F8049B6D1C28786C280FD0CF
:1025200006DC4C2817D068280DD06A2814D104E0A6
:10253000742810D07A280FD10DE044F400140AE07A
:1025400044F4801401E044F440146978814202D1DB
:1025500004F580146D1C6D1C2A786E2A1FD00CDCCB
:10256000632A31D004DC002A8BD0582A11D1A3E091
:10257000642A68D0692A0CD165E0732A2ED004DC65
:102580006F2A73D0702A04D19BE0752A6FD0782A05
:102590006ED01046DDE90F129047761C50E1C4F36F
:1025A0000250022806D0032809D0042801CF09D000
:1025B000066045E101CFF117C0E9006140E101CFBC
:1025C00006803DE106703BE117F8040B8DF8000032
:1025D00000208DF80100EB46012003E057F804BB12
:1025E0004FF0FF3061074FF0000102D40DE008F119
:1025F0000101884649450FDA8045F8DB1BF80810D1
:102600000029F4D108E008F1010188468142FADB93
:102610001BF808100029F6D1DDE90F23AAEB08000A
:102620008146214600F036F9304400EB080604E00C
:10263000DDE90F121BF8010B9047B8F10108F7D242
:1026400021464846F7E00A21C4F302534FF0000B3D
:102650000891022B04D001CFC117032B09D00AE047
:10266000FF1D27F00707F7E8020108E032E01FE04E
:1026700020E000B2C117042B01D140B2C117031EE4
:1026800071F1000307DA4FF0000CD0EB0C006CEB9B
:1026900001012D2302E0230504D52B238DF82430DE
:1026A000012303E0E30701D02023F7E7984658E031
:1026B0000A2110E010210EE010204FF0000B0890CE
:1026C0000CE010214FF0000B44F004044FF0080917
:1026D000089103E008214FF0000B0891C4F3025366
:1026E000022B04D001CF0021032B06D006E0FF1DF2
:1026F00027F00707F7E8020103E080B2042B00D1BE
:10270000C0B24FF0000823072BD5702A07D0DDF8A0
:1027100020C08CF0100C5CEA0B0C05D00EE04023BE
:102720008DF82430012308E050EA010306D030235D
:102730008DF824308DF8252002239846DDF820C03E
:102740008CF0080C5CEA0B0C0BD150EA010301D1B0
:10275000630706D530238DF824304FF00108A9F126
:102760000109582A04D038A20B9208AA0A920BE059
:102770003AA2F9E75B46089AFDF7F6FC0B9B9B5CD7
:102780000A9A521E0A92137050EA0102F2D10A9874
:10279000ADEB000000F1200B600702D524F480347B
:1027A00001E04FF00109D94502DDA9EB0B0000E083
:1027B000002000EB0B0141440890AAEB010AE00362
:1027C00006D4DDE90F232146504600F063F80644A5
:1027D0004FF0000908E009A911F80900DDE90F121E
:1027E000904709F10109761CC145F4DBE0030CD5E3
:1027F000DDE90F232146504600F04CF8064404E082
:10280000DDE90F1230209047761C0899481E089089
:102810000029F5DC08E00A980A990078491C0A9119
:10282000DDE90F129047761CBBF10001ABF1010B03
:10283000F1DC21465046DDE90F2300F019F806448B
:102840006D1C1BE609280100303132333435363730
:1028500038396162636465660000000030313233EC
:10286000343536373839414243444546000000008C
:102870002DE9F041044600251E461746880404D47D
:1028800005E039462020B0476D1C641EF9D5284666
:10289000BDE8F0812DE9F041044600251E46904632
:1028A000C80301D5302700E02027880404D505E0BF
:1028B00041463846B0476D1C641EF9D52846BDE830
:1028C000F0810A68531C0B60107070470146044881
:1028D0000068084008B1012070470020FCE70000B4
:1028E0001404014010B52C4B1B6883432A4C236011
:1028F000231D1B688343241D2360231D1B68834302
:10290000241D2360231D1B688343241D236011B1F4
:1029100001290ED105E0204B1B6803431E4C2360A8
:1029200008E01D4B1B1D1B6803431B4C241D23602B
:1029300000E000BF00BF22B1012A0FD0022A27D138
:1029400019E0154B08331B680343134C083423600C
:10295000231D1B688343241D23601AE00E4B08339C
:102960001B6883430C4C08342360231D1B680343FE
:10297000241D23600DE0084B08331B680343064CFD
:1029800008342360231D1B680343241D236000E0DB
:1029900000BF00BF10BD00000004014002490968EB
:1029A0008143014A116070470004014002490968EF
:1029B0000143014A11607047000401400149086069
:1029C0007047000014040140044A116821F0070117
:1029D00041EA0002014B1A607047000000200240EB
:1029E00070B504460D46E1B2054800F04EFD00BF4B
:1029F0000721034800F09BFD0028F9D0204670BD58
:102A00000038014041617047016170470AB10161BE
:102A100000E041617047000010B500228B071C0FD9
:102A20000F2303FA04F204290EDA204B9B68934328
:102A30001E4CA36023469B688C07240F00FA04F405
:102A400023431A4CA3602FE008290EDA174BDB68EA
:102A50009343164CE3602346DB688C07240F00FA8F
:102A600004F42343114CE3601EE00C290EDA0F4BF3
:102A70001B6993430D4C236123461B698C07240F6C
:102A800000FA04F42343094C23610DE0074B5B6912
:102A90009343064C636123465B698C07240F00FA5D
:102AA00004F42343014C636110BD000000000140A9
:102AB000F0B5044616460025002201F00F0501F08E
:102AC000100747B1042E05D145F00305E76B1F43FE
:102AD000E76300E0354300201EE0012787401F40E8
:102AE000C7B122684FEA800C0F2707FA0CF7BA43E8
:102AF000870005FA07F73A43282904D101278740C0
:102B00001F40676105E0482903D1012787401F4026
:102B100027612260471CB8B20828DED3082022E0D3
:102B2000012787401F40E7B16268A0F108074FEA1C
:102B3000870C0F2707FA0CF7BA43A0F10807BF006C
:102B400005FA07F73A43282904D1012787401F4097
:102B5000676105E0482903D1012787401F402761AD
:102B60006260471CB8B21028DAD3F0BD0246906804
:102B7000084008B1012070470020FCE70146886842
:102B800080B270470246D068084008B10120704703
:102B90000020FCE70146C86880B27047C1607047FA
:102BA000FDF73BFEFDF78BFE0CA0FFF725FC14A004
:102BB000FFF722FC11E0FDF70BFE18B1FDF742FF15
:102BC000FDF73EFBFDF7FEFD18B1FEF72AFEFDF70F
:102BD00031FBFFF7C3F8FFF72DFBECE7496E697493
:102BE0002053797374656D20686173206265656E2A
:102BF0002066696E69736865642E0D0A0000000026
:102C00004C434420446973706C617920546573743B
:102C10002053746172742E0D0A0000002DE9F041FA
:102C200003460D46164600240027A0462A480068A1
:102C300000F4E060B0F5E06F03D100BF4FF004088E
:102C400030E02548006800F4E060B0F5C06F03D1C3
:102C500001274FF0030825E01F48006800F4E060FA
:102C6000B0F5A06F02D10227B8461BE01A480068F1
:102C700000F4E060B0F5806F03D103274FF0010846
:102C800010E01548006800F4E060B0F5407F03D123
:102C900004274FF0000805E04FF4A06000F020F892
:102CA0000227B846C7F1040005FA00F4C8F1040190
:102CB0000F20C8403040044324010848C45403F0A6
:102CC0001F01012088405911890001F1E021C1F85C
:102CD0000001BDE8F08100000CED00E000E400E040
:102CE00002490143024A1160704700000000FA05E2
:102CF0000CED00E0044A516821F0F00141EA0002C5
:102D0000014B5A607047000000100240044A5168AD
:102D100021F4E06141EA0002014B5A607047000073
:102D200000100240044A516821F4605141EA000257
:102D3000014B5A6070470000001002402DE9F04F2F
:102D40008CB0074600200A904AA090E8004CC0686A
:102D5000CDE905BECDF810A007900FF21C1ADAE9F4
:102D6000000ACDE9020A0FF2101ADAE9000ACDE9E9
:102D7000000A44484068C0F381000B900B9820B1D2
:102D8000012804D002283FD103E03F4A3EE03E4AFA
:102D90003CE03C48406800F4803CBCF5803F12D1E8
:102DA0003848C06A00F08048B8F1000F01D1364CB5
:102DB00000E0364C3348406800F40039B9F5003F74
:102DC00002D1334C00E0324C2E484068C0F38341BE
:102DD0002C48406800F0006008B141F0100129481B
:102DE000406800F0804008B141F020010F2901D275
:102DF000891C06E00F2903D33E2901D8491C00E0B5
:102E00003F2104FB01F201E01F4A00BF00BF1D4843
:102E10004068C0F3031504A8465D22FA06F319487A
:102E20004068C0F3022502A8465D23FA06F0099027
:102E300014484068C0F3C2251DF8056023FA06F067
:102E4000089037B1012F06D0022F06D0032F0AD1E8
:102E500006E00A9208E00A9306E009980A9003E067
:102E600008980A9000E000BF00BF0A980CB0BDE8C7
:102E7000F08F0000000000000000000001020304C9
:102E8000060708090010024000127A00006CDC02FC
:102E900000093D0000B51148006840F001000F49ED
:102EA0000860002000F042F80C4840680C490840D7
:102EB0000A494860084600680A490840074908600E
:102EC0000846006820F4802008604FF41F008860E6
:102ED0000846C06A20F0C040C86200BD0010024031
:102EE0000C000020FFFFF6FE0146074A02EB91109E
:102EF000006801F01F0301229A40104008B1012030
:102F000070470020FCE7000000100240064A02EB78
:102F10009011096800F01F0301229A401143024BEF
:102F200003EB90121160704700100240F0B50646A6
:102F3000002400270025B6F5006F1FD005DC86B3FE
:102F4000102E0BD0182E72D160E0B6F5106F4BD05A
:102F5000A6F540501038002869D133E004E0112074
:102F6000FFF7C2FF0546641C15B9B4F5006FF6D132
:102F70001120FFF7B9FF00B1012759E005E040F645
:102F80000100FFF7B1FF0546641C1DB96FF07C40DE
:102F90008442F4D140F60100FFF7A6FF00B10127FB
:102FA00046E0FFE704E00120FFF79EFF0546641CB2
:102FB00015B9B4F5A06FF6D10120FFF795FF00B168
:102FC000012735E005E043F21100FFF78DFF0546CC
:102FD000641C15B918488442F5D143F21100FFF77B
:102FE00083FF00B1012723E005E040F60110FFF761
:102FF0007BFF0546641C15B90F488442F5D140F6A5
:103000000110FFF771FF00B1012711E004E0192062
:10301000FFF76AFF0546641C15B907488442F6D1DC
:103020001920FFF761FF00B1012701E0FFE700BFB2
:1030300000BF3846F0BD0000FFFF0F00064A02EB5C
:103040009011096800F01F0301229A401143024BBE
:1030500003EB90121160704700100240064A02EB29
:103060009011096800F01F0301229A409143024B1E
:1030700003EB90121160704700100240064A02EB09
:103080009011096800F01F0301229A401143024B7E
:1030900003EB9012116070470010024002460020BE
:1030A000044B5868044B184042EA01031843014B93
:1030B0005860704700100240FFFFC2B70146002071
:1030C000034AD06A20F080400843D0627047000075
:1030D0000010024001460020054A506820F40030EC
:1030E000012901D140F40030014A506070470000CE
:1030F00000100240044A516821F0030141EA000235
:10310000014B5A60704700000010024002484068BE
:1031100000F00C0070470000001002400020002169
:103120003E4A126842F480323C4B1A6000BF401C99
:103130003A4A126802F4003111B9B0F5006FF6D1C5
:10314000364A126802F400320AB900BFFEE7334A79
:10315000D26942F08052314BDA61314A126842F44E
:1031600040422F4B1A602D4A52682C4B5A601A4627
:1031700052685A601A46526842F480625A601A468F
:10318000526822F440325A601A46526842F4403281
:103190005A601A465268234B1A40204B5A601A460E
:1031A0005268214B1A431D4B5A601A46126842F06E
:1031B00080721A6000BF194A126802F00072002A79
:1031C000F9D0174A126842F48032154B1A6000BFDA
:1031D000134A526802F48032002AF9D0104A126869
:1031E00042F400320E4B1A6000BF0D4A526802F4DE
:1031F0000032002AF9D0094A526822F00302074B34
:103200005A601A46526842F002025A6000BF034AEE
:10321000526802F00802002AF9D0704700100240FC
:1032200000700040FFFFC3B70000340810B5FFF77F
:1032300075FF10BD10B504463349601A8C4244D066
:103240000CDCB4F1804F1CD03048204410B3B0F5F2
:10325000806F28D0B0F5006F52D12DE0B0F5806FAF
:103260003CD0B0F58E3F03D0B0F5923F48D13EE060
:1032700040F20B30FFF702FF40F20B30FFF7EEFE9B
:103280003FE04FF48060FFF7F9FE4FF48060FFF7F6
:10329000E5FE36E040F20140FFF7F0FE40F201406B
:1032A000FFF7DCFE2DE040F20240FFF7E7FE40F2C0
:1032B0000240FFF7D3FE24E040F20340FFF7DEFEBA
:1032C00040F20340FFF7CAFE1BE040F20440FFF764
:1032D000D5FE40F20440FFF7C1FE12E040F2054087
:1032E000FFF7CCFE40F20540FFF7B8FE09E040F2E0
:1032F0000D30FFF7C3FE40F20D30FFF7AFFE00E0E8
:1033000000BF00BF10BD00000010004000FCFFBF68
:10331000016841F001010160704700000A88826283
:103320001D4A90420ED0B0F1804F0BD01B4A904204
:1033300008D01B4A904205D01A4A904202D01A4A3D
:1033400090420BD1026822F07002026002684B8842
:103350001A43026002688B881A4302608A68C2625C
:10336000124A90420AD0124A904207D0026822F4D0
:10337000407202600268CB881A430260064A90429B
:1033800002D0094A904201D10A7B0263426942F0AD
:103390000102426170470000002C0140000400401F
:1033A00000080040000C00400034014000100040C4
:1033B00000140040C2680A43C2607047CA430261F9
:1033C00070470246D06800EA01031069084010B156
:1033D0000BB1012070470020FCE7002101804180F3
:1033E00081804FF6FF7181600021C18001737047B9
:1033F0002DE9F04704460D460027B846B946002699
:103400001D49601A8C421CD006DC1C48204470B157
:10341000B0F5806F1FD10FE0B0F5806F16D0B0F51A
:103420006C4F18D10320FFF789FC074614E00220F7
:10343000FFF784FC07460FE00220FFF77FFC0746FA
:103440000AE00220FFF77AFC074605E00220FFF7BA
:1034500075FC074600E000BF00BF07EB5500B0FB5E
:10346000F5F64FF6F07006EA000806F00F0948EA94
:103470000900A060BDE8F087004C004000BCFFBF21
:1034800001464868C0F308007047C1F30802426073
:103490007047000010B504462049601A8C4228D0BD
:1034A00006DC1F48204490B1B0F5806F33D117E09F
:1034B000B0F5806F26D0B0F56C4F2CD140F20E30B5
:1034C000FFF7DCFD40F20E30FFF7C8FD24E040F2CC
:1034D0001140FFF7D3FD40F21140FFF7BFFD1BE0A5
:1034E00040F21240FFF7CAFD40F21240FFF7B6FD6E
:1034F00012E040F21340FFF7C1FD40F21340FFF726
:10350000ADFD09E040F21440FFF7B8FD40F2144071
:10351000FFF7A4FD00E000BF00BF10BD004C00405D
:1035200000BCFFBFC16841F40051C160704710B5D5
:10353000024602EB9110006801F01F040123A34032
:10354000184008B1012010BD0020FCE710B500EBC9
:103550009112126801F01F040123A3409A4300EB6B
:1035600091131A6010BD10B500EB9112126801F0B2
:103570001F040123A3401A4300EB91131A6010BDEE
:1035800010B500EB91521268C1F304440123A3402B
:103590009A4300EB91531A6010BD70B502460023A8
:1035A0000024C1F38910105801F01F060125B54011
:1035B00000EA050302EB91500068C1F304460125BF
:1035C000B54000EA050414B10BB1012070BD002024
:1035D000FCE7C26822F4C062C260C2680A43C260EB
:1035E00070470A460021C16821F004011143C160FF
:1035F0007047026922F44052026102690A43026183
:1036000070470A460021C16821F008011143C160DA
:103610007047C26822F48052C260C2680A43C26026
:1036200070470000000000000000000000000000E3
:1036300000000000000000001FCC000C0000000093
:10364000000000000800300060000800300060004A
:103650000000022003FC1E20022003FC1E2002208A
:10366000000000000E1811043FFF10840C780000C9
:1036700000000F0010840F3800C00778188400780D
:10368000000000780F8410C411240E9800E4008418
:103690000008080068007000000000000000000042
:1036A000000000000000000007E01818200440029D
:1036B0000000000040022004181807E0000000008D
:1036C00000000240024001800FF0018002400240F1
:1036D00000000080008000800FF8008000800080E3
:1036E00000000001000D000E0000000000000000BE
:1036F00000000000008000800080008000800080CA
:1037000000800000000C000C000000000000000021
:10371000000000000006001800600180060018008C
:103720002000000007F0080810041004080807F043
:1037300000000000080408041FFC0004000400004E
:10374000000000000E0C10141024104411840E0C04
:10375000000000000C1810041104110412880C70F1
:103760000000000000E00320042408241FFC0024C3
:10377000000000001F9810841104110410881070BC
:103780000000000007F00888110411041888007078
:10379000000000001C00100010FC13001C001000B2
:1037A000000000000E3811441084108411440E38BB
:1037B000000000000700088C10441044088807F03F
:1037C0000000000000000000030C030C00000000DB
:1037D00000000000000000010106000000000000E1
:1037E00000000000008001400220041008081004BE
:1037F00000000220022002200220022002200220DB
:10380000000000001004080804100220014000809D
:10381000000000000E001200100C106C10800F0051
:10382000000003E00C1813E4142417C4082807D080
:1038300000000004003C03C41C40074000E4001CDE
:10384000000410041FFC1104110411040E88007000
:10385000000003E00C1810041004100410081C10E1
:10386000000010041FFC100410041004080807F0E6
:10387000000010041FFC1104110417C410040818E0
:10388000000010041FFC1104110017C010000800F4
:10389000000003E00C181004100410441C780040D1
:1038A000000010041FFC10840080008010841FFCA6
:1038B00010040000100410041FFC10041004000089
:1038C000000000030001100110011FFE1000100095
:1038D000000010041FFC110403801464181C100461
:1038E000000010041FFC1004000400040004000C7D
:1038F000000010041FFC1F0000FC1F001FFC100430
:10390000000010041FFC0C04030000E010181FFC52
:10391000100007F00808100410041004080807F04D
:10392000000010041FFC10841080108010800F0015
:10393000000007F0081810241024101C080A07F2D1
:10394000000010041FFC1104110011C011300E0CF6
:10395000000400000E1C11041084108410441C3854
:1039600000001800100010041FFC100410001800C4
:10397000000010001FF810040004000410041FF8D9
:10398000100010001E0011E0001C007013801C00CD
:1039900010001FC0103C00E01F0000E0103C1FC0E2
:1039A00000001004180C163401C001C01634180CA5
:1039B000100410001C00130400FC13041C00100071
:1039C00000000804101C1064108413041C04101858
:1039D00000000000000000007FFE400240024002A4
:1039E0000000000030000C0003800060001C000399
:1039F000000000004002400240027FFE0000000084
:103A000000000000000020004000400040002000B6
:103A1000000000010001000100010001000100019F
:103A200000010000400040002000000000000000F5
:103A3000000000000098012401440144014400FCFE
:103A4000000410001FFC00880104010400880070BD
:103A500000000000007000880104010401040088D7
:103A600000000000007000880104010411081FFC20
:103A70000004000000F8014401440144014400C86E
:103A800000000000010401040FFC110411041100E6
:103A90001800000000D601290129012901C90106E9
:103AA000000010041FFC008401000100010400FC60
:103AB000000400000104190419FC000400040000C3
:103AC00000000000000300010101190119FE0000BF
:103AD000000010041FFC0024004001B4010C01048C
:103AE00000000000100410041FFC0004000400008B
:103AF0000000010401FC0104010001FC01040100BB
:103B000000FC010401FC008401000100010400FC30
:103B10000004000000F8010401040104010400F89D
:103B20000000010101FF008501040104008800700C
:103B3000000000000070008801040104010501FF7D
:103B400000010104010401FC008401040100018062
:103B50000000000000CC012401240124012401986C
:103B6000000000000100010007F80104010400004A
:103B70000000010001F8000400040004010801FC39
:103B80000004010001800170000C00100160018040
:103B9000010001F0010C003001C00030010C01F007
:103BA000010000000104018C00740170018C01040B
:103BB0000000010101810171000E00180160018007
:103BC000010000000184010C013401440184010C56
:103BD0000000000000000000000001003EFC400268
:103BE00040020000000000000000FFFF0000000095
:103BF00000000000400240023EFC01000000000006
:103C000000000000600080008000400040002000B4
:103C100020000000576F726B204D6F64650000003C
:103C20004574434F322053657400000053704F3287
:103C3000205365740000000053797374656D205340
:103C400065740000416C61726D2053657400000062
:103C50004461746120526576696577007C3C000898
:103C6000000000206C00000040240008E83C000830
:103C70006C0000209C05000050240008000000009B
:103C80000000000000000000000000000000000034
:103C9000000000000000000000000000FFFF000026
:103CA0000000010000000000143C0008443C000833
:103CB0002C3C0008203C0008383C0008503C000820
:103CC00000000000000000000000000000000000F4
:103CD00000000000000000000000000000000000E4
:083CE000000E270700000000A0
:0400000508000131BD
:00000001FF
