:020000040800F2
:100000009827002045010008F91B0008710D000821
:10001000F51B0008C9070008E55A000800000000A9
:100020000000000000000000000000006D27000834
:10003000A90B0008000000002D1E0008152900086B
:100040005F0100085F0100085F0100085F01000810
:100050005F0100085F0100085F0100085F01000800
:100060005F010008210C00084D0C00085F0100082A
:100070005F0100085F0100085F0100085F010008E0
:100080005F0100085F0100085F0100085F010008D0
:100090005F0100085F0100085F010008790C00089B
:1000A0005F0100085F0100085F0100085F010008B0
:1000B0005F0100086D2900085F0100085F0100086A
:1000C0005F0100085F0100085F0100085F01000890
:1000D0005F010008C15900085D5A00085F0100086F
:1000E000C50B00085F0100085F0100085F01000800
:1000F0005F0100085F0100085F0100085F01000860
:100100005F0100085F010008AD2900085F010008D9
:100110005F0100085F0100085F0100085F0100083F
:100120005F0100085F0100085F0100085F0100082F
:10013000DFF80CD000F078F900480047616600084D
:10014000982700200648804706480047FEE7FEE75C
:10015000FEE7FEE7FEE7FEE7FEE7FEE7FEE7FEE777
:100160001D29000831010008D2B201E000F8012B7E
:10017000491EFBD270470022F6E710B513460A4627
:1001800004461946FFF7F0FF204610BD421C10F848
:10019000011B0029FBD1801A704700000FB400B585
:1001A0008DB010A909900B9000914FF0FF300A908C
:1001B00000200C9005480690054807906A4609A85B
:1001C0000F9900F003F90DB05DF814FBE903000886
:1001D000070400082DE9FF5F1D464FF0FF3BD5E9FE
:1001E000014691465F464FF00008A9697F1C0198BF
:1001F0008847296A824688470028F6D1BAF1FF3F2E
:100200000CD024F4C064002E19DD600614D5BAF1B8
:100210002B0F09D0BAF12D0F0ED103E0584604B0D0
:10022000BDE8F09F44F48064A9697F1C0198884769
:10023000761E8246002E02DDBAF1300F03D0B9F1EE
:10024000000F26D032E0A969761E44F400747F1CAA
:10025000019888478246002E05DDBAF1780F06D056
:10026000BAF1580F03D0B9F1000F10D01EE0B9F168
:10027000000F02D0B9F1100F18D1A969761E24F42D
:1002800000747F1C019888478246102002E00820F5
:1002900000E00A20814609E008FB0908A969761EEA
:1002A00044F400747F1C019888478246002E05DDC7
:1002B0004946504600F075F80028EDDAE9690198E2
:1002C0008847A00502D46FF00100A8E7E00725D118
:1002D000600613D5600502D5C8F1000000E0404675
:1002E00029680A1D2A600968220501D5087015E0F1
:1002F000220701D5088011E008600FE02868011D81
:1003000029600068210502D580F8008006E02107F9
:1003100002D5A0F8008001E0C0F8008038467EE7F2
:100320002DE9F05F0546002092469B46884606462A
:10033000814640241BE0284641464746224600F0BD
:1003400020F853465A46C01A914110D31146184618
:10035000224600F07BF82D1A67EB01084F46224633
:100360000120002100F072F817EB00094E41201E19
:10037000A4F10104DFDC484631462A464346BDE885
:10038000F09F202A04DB203A21FA02F00021704776
:1003900021FA02F3D040C2F12002914008431946ED
:1003A00070473A2800D2303820F02002412A01D389
:1003B000A2F13700884201D34FF0FF3070470000B0
:1003C000026811441378016018467047D1600449EF
:1003D00051610449116200211161114600F04AB8CF
:1003E000C10300086B040008426842B1016811F8BB
:1003F000013B23B1521EC0E900121846704701218B
:10040000C160881E704742685AB1C368016843B929
:1004100083688B4205D0491E521CC0E9001200209F
:1004200070474FF0FF307047064C074D06E0E0681C
:1004300040F0010394E8070098471034AC42F6D32B
:10044000FFF77AFE147F0008347F0008202A04DBBF
:10045000203A00FA02F1002070479140C2F12003D7
:1004600020FA03F3194390407047C0B24FF4F051A3
:1004700000F096B92DE9F34F8BB04FF0000801F171
:100480000C000C464FF0010B46460DF1080A019096
:100490006269012101989047051E2DD0252D2CD091
:1004A000216A8847C0B16269012101989047216A99
:1004B00088470028F7D1411E62690198904700E003
:1004C000761CA1690B988847216A88470028F7D1D4
:1004D000E1690B988847DBE7A1690B9888470746D5
:1004E000A84201D1761CD3E7E1690B9888477F1CAD
:1004F00002D1B8F1000F6FD046E1002762693D4696
:100500003946019890472A2804D16269012101984F
:1005100090470125DFF88492626901210198904794
:10052000A0F130010A290AD24F45E5DC07EB87012B
:1005300000EB4107303FDFD445F01005ECE7E9065A
:1005400001D46FF000476C280AD04C2814D06828DA
:1005500015D06A280DD074281CD07A281AD01DE036
:1005600062690121019890476C2802D045F004058A
:1005700014E045F002050DE045F020050AE062694F
:10058000012101989047682802D045F0080505E050
:1005900045F400656269012101989047C4E901575B
:1005A00065283DD019DC58287AD00CDC452837D096
:1005B00004DC252826D0412831D131E046282FD02F
:1005C00047282CD12CE05B2877D0612828D06328DD
:1005D0007CD0642823D15AE0D0E06F2848D008DCD2
:1005E00066281DD067281BD0692821D06E2816D117
:1005F00027E0702845D0732868D0752847D0782820
:100600000DD14DE0A1690B988847054625283FF498
:1006100069AFE1690B9888476D1C3FF46AAFB3E09E
:1006200023466A466FF001000B99AFF300809EE00D
:1006300045F040006060A80723464FF0000236D422
:100640003EE0E8077FF447AF2068011D21600068A5
:10065000290501D506701BE7290701D5068017E794
:10066000A90703D5F117C0E9006111E706600FE79C
:1006700045F040006060A80723464FF0080216D4FA
:100680001EE040F60E0125EA0100606016E045F02C
:1006900040006060A80723464FF00A0207D40FE02D
:1006A00045F040006060A80708D5234610226FF08F
:1006B00001000B99AFF3008059E007E023461022B8
:1006C0006FF001000B99FFF785FD50E04FF0000936
:1006D0004F464B46632802D05B2806D040E0E80630
:1006E00001D40120A06001273AE06269012101984C
:1006F00090475E2805D14FF001096269494601988B
:100700009047216939B900210A46534643F8212010
:10071000491C0829FADBB0B3216969B9C11700EB9C
:10072000D16253110AEB830122F01F02821A0120C9
:100730000B68904003430B60626901210198904768
:100740005D28E8D1B9F1000F09D00020514651F8D9
:100750002020D24341F82020401C0828F7DB02ABC0
:10076000224600976FF001000B99AFF3008000283C
:100770000CDA401C08D1BBF1000F05D04FF0FF3060
:100780000DB0BDE8F08FFFE74046F9E7E90701D17A
:1007900008F1010806444FF0000B79E6CCCCCC0CF4
:1007A0007F2801D9002208E0064A02EB5002C00768
:1007B000127800D1120902F00F0201209040084087
:1007C000704700005E7E000800BFFEE70020014980
:1007D00008707047C1000020002001490870704770
:1007E000C000002010B540F2066006F0CBFA40F2DF
:1007F000046006F0C7FA4FF4C06006F0C3FA08239D
:10080000032248212D4805F06BFE102303224821C6
:100810002A4805F065FE202303224821274805F0D9
:100820005FFE4FF4005303224821254805F058FE8F
:100830000321042005F008FE0421084605F004FE0B
:100840000521042005F000FE0D21022005F0FCFD2D
:1008500001220021082005F05DFD01220021102069
:1008600005F058FD01220021202005F053FD012252
:100870000021500305F04EFD082005F0B7FD1020C3
:1008800005F0B4FD202005F0B1FD4FF4005005F057
:10089000ADFD02221146092006F02CF80222114675
:1008A0000A2006F027F802221146282006F022F836
:1008B00002221146172006F01DF810BD0018014055
:1008C0000010014010B540F2026006F05BFA40F201
:1008D000046006F057FA4FF48073032210210E488B
:1008E00005F0FEFD4FF480710B4805F0A3FD402399
:1008F00003221021094805F0F3FD4021074805F0C7
:1009000099FD802303221021044805F0E9FD802190
:10091000024805F08FFD10BD0008014000100140A5
:1009200010B54FF4A06006F047F810BD10B506F002
:1009300055F9102006F08EF9102006F09BF90446B8
:10094000012C26D105F058FD002006F077F8002094
:1009500006F08CF8A00206F07DF8002006F052FAAE
:10096000002006F05BFA4FF45011200406F03AFA2A
:10097000182006F06FF900BF192006F059F9002879
:10098000FAD0022006F05AFA00BF06F063FA0028F7
:10099000FBD010BD7FB504460D4640F2017006F055
:1009A000F1F90F4806F06AFD684606F03AFEADF828
:1009B00000500020ADF804000294ADF8060069462E
:1009C000074806F0CFFD0121054806F017FE00227A
:1009D00001211D2005F08EFF014806F0BDFD7FBD01
:1009E000000400407FB504460D4640F2037006F057
:1009F000C9F90F4806F042FD684606F012FEADF850
:100A000000500020ADF804000294ADF806006946DD
:100A1000074806F0A7FD0121054806F0EFFD00227A
:100A20000121322005F066FF014806F095FD7FBDEB
:100A3000000C004010B5044640F2026006F0A2F936
:100A400040F20E6006F09EF94FF400730322182165
:100A50001D4805F045FD4FF48063032204211A4828
:100A600005F03EFD194806F039FE2146174806F00C
:100A7000E3FD0021154806F0E0FE0021134806F0D2
:100A8000ECFE0021114806F0C8FE04210F4806F0D4
:100A9000CCFE08210D4806F0D8FE40F205310B4887
:100AA00006F085FE40F20731084806F080FE074850
:100AB00006F05CFE00220221252005F01BFF00202D
:100AC0000349087010BD00000008014000380140D3
:100AD000DC00002010B5044640F2026006F052F936
:100AE00040F2117006F04EF90423032218211B482E
:100AF00005F0F6FC082303220421184805F0F0FC59
:100B0000174806F0EBFD2146154806F095FD00213B
:100B1000134806F092FE0021114806F09EFE0021C7
:100B20000F4806F07AFE04210D4806F07EFE0821EB
:100B30000B4806F08AFE40F20531094806F037FE00
:100B40004FF4A061064806F032FE0022114626202E
:100B500005F0D0FE024806F009FE10BD0008014075
:100B60000044004030B50346002016E0B3F90050C1
:100B70009C68645D0C541C88641C24B21C80B3F90E
:100B80000040B3F90450AC4201DB00241C80441C3B
:100B900020B2DC88641E24B2DC80B3F90640002C4D
:100BA00001DD9042E2DB30BD7047000001B5044931
:100BB0000098086000BF024800680028FBD108BD0B
:100BC000E400002010B54FF4005005F097FB68B129
:100BD0004FF4005005F00AFC4FF4005005F0F6FB0E
:100BE00001200D49C87000200C49C8704FF4806086
:100BF00005F0FCFB4FF4006005F0F8FB4FF480506B
:100C000005F0F4FB4FF4804005F0F0FB4FF400409A
:100C100005F0ECFB10BD00001400002019000020BE
:100C200010B5082005F06AFB58B1082005F0DEFB7E
:100C3000082005F0CBFB0120024908700020024982
:100C4000087010BD140000201900002010B51020FD
:100C500005F054FB58B1102005F0C8FB102005F03A
:100C6000B5FB01200249487000200249487010BDC0
:100C7000140000201900002010B5202005F03EFBD4
:100C800058B1202005F0B2FB202005F09FFB012089
:100C90000E49887000200E4988704FF4807005F06E
:100CA0002DFB08B100F016F8202005F09FFB402036
:100CB00005F09CFB802005F099FB4FF4807005F057
:100CC00095FB4FF4007005F091FB10BD140000205F
:100CD0001900002010B54FF4807005F00FFB78B1BB
:100CE0004FF4807005F082FB4FF4807005F06EFBCE
:100CF0000120044908700020034908700349088056
:100D000010BD0000B4000020B3000020B600002099
:100D100070B50346002016E00C5CB3F902609D68D4
:100D2000AC555C88641C24B25C80B3F90240B3F912
:100D30000450AC4201DB00245C80441C20B2DC88FF
:100D4000641C24B2DC80B3F90640B3F90450AC4211
:100D500001DA9042E0DB70BD014800787047000086
:100D6000C10000200148007870470000C00000204A
:100D700000BFFEE710B501F0D1FD01F059F800F019
:100D80004EF800F035F801F005F94FF4E13000F0CD
:100D90008BF800F07DF800F027F800F045F84FF4EC
:100DA000E13000F089F800F00BF800F025F800F0D1
:100DB00031FB03F059F901F047FB01F005FD10BDCF
:100DC00010B5FFF70FFD002406E000200449085588
:100DD00004490855601CC4B2052CF6DB10BD0000A8
:100DE000140000201900002010B5FFF76BFD10BDA6
:100DF00010B5FFF795FD10BD704730B50B460024C8
:100E0000048044808280C4808360002104E0002448
:100E100085686C544C1C21B29142F8DB30BD10B592
:100E2000FFF784FD10BD704730B5164800684FF4D9
:100E30007A72B0FBF2F1481EB0F1807F01D301203D
:100E40001BE0481E4FF0E022506150170F2200288F
:100E500007DA13071D0E0C4B00F00F04241F1D555D
:100E600003E013071C0E094B1C5400BF00204FF079
:100E7000E022906107201061002008B100BFFEE76A
:100E800030BD0000E000002018ED00E000E400E0CC
:100E900010B5772140F2E730FFF77CFD772140F273
:100EA000E730FFF79FFD10BD10B5044600F022F8B3
:100EB0002046FFF7BFFD10BD10B5044600F004F852
:100EC0002046FFF707FE10BD10B5002404E0002007
:100ED00006490855601C84B2B4F5006FF7DB4FF487
:100EE000006202490248FFF788FF10BD401A002047
:100EF000341A002010B5002406E0002009490855E6
:100F000009490855601C04B2642CF6DB64220549CB
:100F10000648FFF772FF642203490548FFF76DFF9B
:100F200010BD0000B82200201C230020A0220020B9
:100F3000AC22002010B50446052C2BD2DFE804F0CB
:100F4000030C151E28000821134805F027FB08B9DB
:100F5000012010BD0020FCE710210F4805F01EFB0A
:100F600008B90120F5E70020F3E720210A4805F041
:100F700015FB08B90120ECE70020EAE74FF4005127
:100F8000064805F00BFB08B90120E2E70020E0E786
:100F90000020DEE70020DCE70018014000100140DF
:100FA00010B50024C4E06448005D58B92046FFF73E
:100FB000C1FF002805D001205F49085500205F4986
:100FC0000855B3E05C48005D01286DD12046FFF76D
:100FD000B1FF002845D05948005D401C57490855CD
:100FE0000846005D0528ECDB4CB900F0D1FD544803
:100FF0000068401C5249086001F0FAF82AE0012C10
:1010000009D100F0D7FD4F480068401C4D490860E9
:1010100001F016F91EE0022C09D100F0DBFD4A4870
:101020000068401C4849086001F0F2F812E0032C07
:1010300007D146480068401C4449086001F004F9A3
:1010400008E0042C06D142480068401C4049086072
:1010500001F0E2F8022038490855002037490855C8
:1010600064E0002035490855334908551CB908206B
:1010700005F0B4F95AE0012C03D1102005F0AEF9C7
:1010800054E0022C03D1202005F0A8F94EE0032CF7
:1010900004D14FF4005005F0A1F947E0042C45D1EC
:1010A000E00105F09BF941E02348005D02283DD1B5
:1010B0002046FFF73FFFA8BB2048005D401C1F49AA
:1010C00008550846005D052830DB2CB901F0C0F852
:1010D000082005F083F91FE0012C05D101F0BBF8D1
:1010E000102005F07BF917E0022C05D101F0B1F8D2
:1010F000202005F073F90FE0032C06D101F0ACF8C5
:101100004FF4005005F06AF906E0042C04D101F018
:10111000A1F8E00105F062F90020074908550749E8
:10112000085503E0FFE7002004490855601CC4B2DD
:10113000052CFFF638AF10BD140000201900002068
:101140000000002004000020080000200C00002007
:101150001000002070B5054600240A48008809499F
:10116000498800FB01F60021084600F0B7FB00F0BB
:10117000DFFC00BF03E0284600F0D4FC641CB4424E
:10118000F9D370BDE80000201F498871898845F2B5
:101190001052914210D138B94FF4F0711A4A1180AF
:1011A0004FF4487151802EE04FF44871164A118077
:1011B0004FF4F071518026E01349898845F21032CE
:1011C000914210D138B94FF4A0710F4A11804FF4F9
:1011D000F071518017E04FF4F0710B4A11804FF419
:1011E000A07151800FE038B94FF4A071064A118008
:1011F0004FF4F071518006E04FF4F071024A118013
:101200004FF4A07151807047E80000202DE9FF4F96
:1012100085B081468A460020049003900798A0EB91
:1012200009040898A0EB0A05CDF80890CDF804A0B1
:10123000002C01DD012705E00CB9002702E04FF08A
:10124000FF376442002D02DD4FF0010806E015B9BA
:101250004FF0000802E04FF0FF386D42AC4201DD74
:10126000204600E0284606464FF0000B21E0019A98
:1012700091B2029A90B200F023F8049820440490AE
:101280000398284403900498B04205DD0498801B1D
:1012900004900298384402900398B04205DD039808
:1012A000801B03900198404401900BF101001FFA4C
:1012B00080FB701C8345DADD09B0BDE8F08F0000CB
:1012C00070B504460D462946204600F007FB00F0A5
:1012D0002FFC0248008800F025FC70BD1E00002095
:1012E0002DE9F04104460D4616461F462B46324670
:1012F00029462046FFF78AFF3B46224629462046DC
:10130000FFF784FF3B46324639462046FFF77EFF13
:101310003B46324629463046FFF778FFBDE8F0816C
:1013200070B505460E4614463146284600F0D6FAFA
:1013300000F0FEFB204600F0F5FB70BD2DE9F05FEC
:1013400005460E4617469846DDF828A0781B401C37
:101350001FFA80FB344613E02146284600F0BEFA0F
:1013600000F0E6FB4FF0000906E0504600F0DAFB23
:1013700009F101001FFA80F9D945F6DB601C84B23F
:101380004445E9DDBDE8F09F10B540F2026005F08C
:10139000F9FC40F2036005F0F5FC40F2056005F051
:1013A000F1FC40F2066005F0EDFC4FF4805303229F
:1013B0001021144805F094F801230322102112484B
:1013C00005F08EF84CF6B373032210210F4805F098
:1013D00087F84FF68073032210210D4805F080F83E
:1013E00080210A4805F028F84FF40061074805F00D
:1013F00023F82021054805F01FF81021034805F0C7
:101400001BF810BD00080140000C01400014014011
:101410000018014010B5FFF7B7FF4FF480519B480B
:1014200005F00AF80A20FFF7C1FB4FF480519748F6
:1014300005F000F83220FFF7B9FB4FF480519348D4
:1014400004F0FAFFC820FFF7B1FBD32000F082FBC5
:1014500000F096F98E49888000F092F98C498880D6
:1014600000F08EF98A498880084680884FF6FF711F
:1014700001EA00208649888000F082F98449898841
:101480000843834988800846818882A004F042FB93
:101490007F48808845F21051884210D14FF4305077
:1014A0007B4908814FF4285048814FF42C508881A3
:1014B0004FF4487008804FF4F0704880D0E07448D2
:1014C000808845F2103188420DD12C207049088166
:1014D0002A2048812B2088814FF4A07008804FF487
:1014E000F0704880BCE02C20694908812A2048819E
:1014F0002B2088814FF4A07008804FF4F070488052
:101500000846808847F2897188423ED10021112027
:1015100000F016FB7820FFF749FB05213A2000F088
:101520000FFB0C21B22000F00BFB0C21B22000F0CD
:1015300007FB0021B72000F003FB3D21BB2000F09A
:10154000FFFA2C21C02000F0FBFA0121C22000F09C
:10155000F7FA1321C32000F0F3FA2021C42000F091
:10156000EFFA0F21C62000F0EBFAA421D02000F002
:10157000E7FAA121D02000F0E3FA0021292000F0B1
:10158000DFFA7820FFF712FB6AE04148808847F2D3
:101590009671884256D10021112000F0D1FA7820AE
:1015A000FFF704FB0821362000F0CAFA05213A2093
:1015B00000F0C6FA0021B12000F0C2FA1821B120D3
:1015C00000F0BEFA0021B32000F0BAFA0221B320E5
:1015D00000F0B6FA0321B32000F0B2FA0821B320DC
:1015E00000F0AEFA0121B42000F0AAFA0221C020D6
:1015F00000F0A6FA0221C12000F0A2FA3221C52093
:1016000000F09EFA3221C72000F09AFA0821362015
:1016100000F096FA0021372000F092FA00213820DD
:1016200000F08EFA0021392000F08AFA00212120F2
:1016300000F086FA0021292000F082FA7820FFF7D6
:10164000B5FA0DE00021112000F07AFA7820FFF7BA
:10165000ADFA0021292000F073FA7820FFF7A6FAEE
:101660000020FFF791FD022000F0B8F801210F489B
:1016700004F0E2FE0020FFF76DFD05484388028874
:1016800081880BA004F046FA10BD0000000801405C
:10169000E80000205B4C43445D20526561642049B2
:1016A000443A203078253034580D0A00000C0140AF
:1016B0005B4C43445D20496E697420446F6E652C19
:1016C0002049443A203078253034582C205769641A
:1016D00074683A2025642C204865696768743A204C
:1016E00025640D0A0000000070B500254CF203735C
:1016F00003220421204804F0F3FE4FF680730322F6
:1017000004211E4804F0ECFE1B4804F04FFF044681
:10171000A00B04F0030140EA810004F4807140EA68
:10172000411004F4007140EA411004F4806140EA81
:1017300041100543114804F039FF0646F02000EA45
:10174000E6004FF4706101EAE60108434FF480516E
:1017500001EAE601084305434CF20373032210211A
:10176000054804F0BDFE4FF68073032210210348A4
:1017700004F0B6FE284670BD001401400018014078
:101780001CB5002001904FF40061134804F054FE92
:101790008021114804F04EFE10210F4804F04AFE4B
:1017A0000020009005E000BF9DF80000401CC0B282
:1017B00000909DF800000A28F5DBFFF795FF0190E7
:1017C0001021054804F038FE8021034804F034FE5F
:1017D000BDF804001CBD0000001401402DE9F041DB
:1017E0000546002400273C488079012818D1082D9F
:1017F00015D2DFE805F00406080A0C0E10120625C3
:101800000DE007250BE0042509E0052507E001258B
:1018100005E0002503E0032501E0022500BF00BF2D
:10182000082D1CD2DFE805F00406090C0F1215186C
:1018300000BF14E044F0800411E044F040040EE0E6
:1018400044F0C0040BE044F0200408E044F06004DD
:1018500005E044F0A00402E044F0E00400BF00BF53
:101860001D48808845F21051884202D14FF45857E4
:1018700000E036271848808847F29671884205D0E4
:101880001548808847F28971884201D124F0080404
:101890002146384600F054F904F0200068B10E48A3
:1018A00000880D494988884214DA0B480688408828
:1018B00009490880084646800CE007480088064928
:1018C0004988884206DD0448068840880249088025
:1018D00008464680BDE8F081E800002070B5044667
:1018E0000D461E48808845F21051884220D11B4980
:1018F000488900F02FF9201200F0F6F817494989BD
:10190000491C88B200F026F9E0B200F0EDF8134966
:10191000888900F01FF9281200F0E6F80F4989893C
:10192000491C88B200F016F9E8B200F0DDF813E0C7
:101930000A49488900F00EF9201200F0D5F8E0B20B
:1019400000F0D2F80549888900F004F9281200F067
:10195000CBF8E8B200F0C8F870BD0000E800002045
:101960002DE9F05F80460C4616461F46A346A6F1B9
:101970002000C6B2102F3DD1002539E01E4800EBF3
:10198000061010F805904FF0000A2BE009F08000D7
:1019900030B11A48028821464046FFF7C1FC07E0F3
:1019A0000A9828B91648028821464046FFF7B8FC35
:1019B0004FEA49604FEA1069601C84B211484088C0
:1019C000A04201DCBDE8F09FA4EB0B00B84205D1BA
:1019D0005C4608F101001FFA80F806E00AF10100F8
:1019E00000F0FF0ABAF1080FD0DB00BF681CC5B2D7
:1019F000102DC3DB00BFE5E76A7800081E00002059
:101A000020000020E80000202DE9F84F04460D4694
:101A100090469946DDE90A6704F0FF0A08EB0400E6
:101A20001FFA80F809EB05001FFA80F916E044451B
:101A300002DB5446A81985B24D4500DB14E00020B6
:101A400000903A78334629462046FFF789FF304612
:101A500006EBD07104EB61018CB27F1C38787E28D4
:101A600002DC38782028E2DA00BFBDE8F88F0000F9
:101A700070B504461A4804F0A5FD06464CF2037002
:101A8000864304F00300C4F3810141EA803004F48A
:101A9000005140EA611004F4804140EA611004F40E
:101AA000004140EA6110064331460D4804F08EFDC6
:101AB0000C4804F087FD05464FF68070854304F01E
:101AC000F000C00004F4706140EAC10004F48051E9
:101AD00040EAC10005432946024804F077FD70BD85
:101AE000001401400018014010B504464FF4006195
:101AF0000B4804F0A1FC8021094804F09BFC20461F
:101B0000FFF7B6FF2021064804F094FC202104488A
:101B100004F092FC8021024804F08EFC10BD00000D
:101B20000014014010B504462046FFF7DDFF10BD4C
:101B300010B50249088900F00DF810BDE80000203A
:101B400070B505460C46284600F004F82046FFF71D
:101B5000CBFF70BD10B504464FF400610B4804F094
:101B600069FC8021094804F065FC2046FFF780FFEE
:101B70002021064804F05EFC2021044804F05CFCAF
:101B80008021024804F058FC10BD00000014014000
:101B900010B54FF48071064804F00CFD0446C4F102
:101BA0000100C2B24FF48071014804F047FC10BD3F
:101BB0000008014010B54021054804F0FBFC044634
:101BC000C4F10100C2B24021014804F037FC10BD4D
:101BD0000010014010B58021054804F0EBFC0446DC
:101BE000C4F10100C2B28021014804F027FC10BDFD
:101BF0000010014000BFFEE77047000000F01F0228
:101C000001219140024A430942F823107047000025
:101C100080E200E010B588B00446002007900690EE
:101C20000590049003906E48007830B101286CD084
:101C3000022875D0032874D198E0AA2C03D1012082
:101C40006749087060E00A2C50D100216548664A57
:101C50001278815406AB07AA64A1FEF79FFA022806
:101C60000CD1644907980870634906980870634866
:101C7000007840F001006149087033E005AA60A1D6
:101C80005848FEF78BFA012809D15F49059808707A
:101C90005A48007840F002005849087022E003AA30
:101CA00004A9504800F0E6FEE0B101AB02AABDF87D
:101CB0000C10BDF8100000F003FDBDF80C005349F6
:101CC0000880BDF80400524908804C48007840F074
:101CD00004004A490870BDF80410BDF8080000F07F
:101CE00095FE00BF0020404908700DE00D2C0BD080
:101CF0003D4800781E2807DA3B4801780078401CF0
:101D0000394A10703748445466E0062C0AD14148DD
:101D1000047000204049087002203149087012E028
:101D200012E055E0AA2C03D101202D4908700AE0E9
:101D30003A49AA2004F04AFE3849204604F046FEFB
:101D400000202749087047E0334801780078401C9C
:101D5000314A107032484454104600782D490978B1
:101D6000884202DB03201E49087035E0552C25D13E
:101D70002B4800782B49087029484078487028483B
:101D8000807888702648C078C87025480079888097
:101D90002348407988710120487223480A6802600C
:101DA0004A684260098901811448007840F00800BF
:101DB0001249087000200A49087008E0AA2C03D1D3
:101DC00001200749087002E000200549087003E07F
:101DD00000200349087000BF00BF08B010BD00001C
:101DE000D30000207E220020D6000020502C256445
:101DF0002C256400C6000020C7000020CE00002073
:101E0000472C256400000000C8000020CA00002004
:101E1000CC000020D5000020D4000020D8000020F5
:101E200074220020402200204A2200207047000037
:101E300010B540F2046004F0A5FF4FF48073032254
:101E400048210E4804F04CFB4FF40073032210218C
:101E50000A4804F045FB4FF48071084804F09EFBEB
:101E600028B94FF40071054804F0E6FA04E04FF495
:101E70000071024804F0DEFA10BD000000100140BD
:101E800010B52948007888B14FF48071274804F0D4
:101E900085FB50B10020244908704FF4807004F095
:101EA000A5FA4FF4807004F099FA10BD204800782C
:101EB000002837D04FF480711C4804F06FFB10BB32
:101EC0001C4800780A2805DA1A480078401C19498D
:101ED0000870EAE71848008840F2EE21884205DAE7
:101EE00015480088401C144908801BE00020134955
:101EF00008704FF400710D4804F09CFA10A003F034
:101F000009FE00BFFEE70020094908700949087072
:101F1000094908804FF4807004F068FA4FF480702B
:101F200004F05CFA00BFC0E7B800002000100140D8
:101F3000B4000020B3000020B6000020B200002052
:101F4000506F776572204F464620747269676765E7
:101F50007265642E0D0A00000D48008840F245713C
:101F6000884201DA002070470948008840F62E2197
:101F7000884201DD6420F6E705480088A0F245703C
:101F80006421484340F2E92190FBF1F0C0B2EAE756
:101F9000BA00002010B540F2026004F0F3FE40F2F7
:101FA000046004F0EFFE40F2096004F0EBFE4FF431
:101FB000C06004F0E7FE4FF40073032210214A488A
:101FC00004F08EFA4FF48071474804F0E7FA28B91C
:101FD0004FF40071444804F02FFA04E04FF400710C
:101FE000414804F027FA4FF48073032248213E4809
:101FF00004F076FA0821022004F026FA01220021DA
:10200000100204F087F94FF4807004F0EFF9012218
:102010000221172004F06EFC4FF48071324804F066
:10202000BDFA30B9012031490870000204F0CEF940
:1020300006E000202D4908704FF4807004F0CEF9BE
:102040000123032248212A4804F04AFA02230322EA
:102050004821274804F044FA0223032200212248A1
:1020600004F03EFA0423032200211F4804F038FA4A
:10207000204804F035F8032004F0AAFC01221102E4
:102080001C4804F00DF9012202211A4804F008F955
:102090000021184804F018F802220121154803F025
:1020A000F0FF07230B220021124804F090F80723C9
:1020B0000C2201210F4804F08AF84FF4602201211C
:1020C0000C4804F061F8012211460A4804F03DF87A
:1020D000084804F031F8074803F0BEFF0121054825
:1020E00004F0CFF810BD000000100140B80000203F
:1020F000000801400024014010B50121034804F00C
:102100004DFA08B9012010BD0020FCE7000801408D
:1021100010B500224FF480712F4804F0C1F800225E
:1021200002212D4804F0BCF8012211462A4803F090
:10213000A8FF2A48007838BB07230B220021264835
:1021400004F045F80121244804F09BF800BF022167
:10215000214804F035F80028F9D002211E4804F087
:102160002BF81D4804F089F81D490988C1EBC1010D
:102170004418E01704EB5070C0F3CF0018490880F2
:1021800001201649087026E007230C22002112487E
:1021900004F01DF80121104804F073F800BF02217B
:1021A0000D4804F00DF80028F9D002210A4804F087
:1021B00003F8094804F061F80A490988C1EBC10134
:1021C0004418E01704EB5070C0F3CF0005490880B5
:1021D00000200249087010BD00240140BE0000200C
:1021E000BA000020BC00002010B5FFF7F3FC10BDC2
:1021F00010B503A003F08EFC01F0E2FF10BD00005B
:102200004C4C205055534820444F574E0D0A000067
:1022100010B501F043FF10BD10B503A003F07AFC28
:1022200002F094F810BD00004D454E55204B455925
:10223000205055534820444F574E0D0A00000000CF
:1022400010B502F0EFF810BD10B502F09BF810BD0C
:10225000704770477047704770470146C88808B993
:10226000012070470020FCE770B5044600250122DC
:1022700021460348FEF776FCC5B2284670BD000033
:10228000A022002070B504460D462A462146024889
:10229000FEF768FCC0B270BD341A00202DE9F0438F
:1022A00004460F4623024148007860B94FF40020ED
:1022B0003F4908603F4803603F4804804480848071
:1022C00001203A49087017B1012F2AD119E0394885
:1022D0000068181A3749096801EBE00035490860C1
:1022E0000968591A01F5002031490968411A304D31
:1022F0002D6805EBE1012E4D2960294609680A1277
:1023000048E02C480068181A2A49096801EB601057
:102310002849086008460068181A00F500200212D3
:1023200038E0C3F30F2CDFF89080DFF8909099F835
:10233000009028F819C0DFF884C09CF800C00CF1A8
:10234000010C4FF003089CFBF8F908FB19CCDFF8EF
:102350006C8088F800C0DFF860C0BCF80000BCF8F2
:102360000210BCF80450884201DBA84203DD884219
:1023700003DCA84201DB06460AE0814201DBA942F8
:1023800003DD814203DCA94201DB0E4600E02E465C
:10239000324600BF00BF002A00DA0022B2F5805F9B
:1023A00001DB40F6FF7290B2BDE8F083AB00002085
:1023B0009C000020A0000020A4000020AA00002013
:1023C0000020064908600649086006498880488060
:1023D0000880054908700549087070479C00002076
:1023E000A0000020A4000020AA000020AB000020D4
:1023F000F0B50446DDE905561148007AF0B114B194
:102400000F480078207011B10D484078087012B163
:102410000B488078107013B10948C078187025B146
:10242000074890ED010A85ED000A16B105480068DD
:1024300030600020024F38720120F0BD0020FCE720
:10244000001A00208C00002010B54FF4486121488C
:10245000FDF791FE4FF448611F48FDF78CFE002008
:102460001E4908801E4908801E4908801E490870C0
:102470001E4908701E4908701E4908701E48002138
:1024800001604160018100201C4908701C490870EE
:102490001C4800210160416001811B4801604160CE
:1024A00001811A48016041600181002018490860DB
:1024B00018490860184908601849086018490860F8
:1024C00018498880488008801749087017490870A3
:1024D00010BD000000010020800D002084000020BD
:1024E00086000020880000208A0000208B00002049
:1024F00090000020910000200C1A00209200002083
:1025000093000020161A0020201A00202A1A00200A
:102510008C00002094000020980000209C000020E7
:10252000A0000020A4000020AA000020AB00002092
:10253000024908780021014A117070478B00002081
:102540002DE9F04F8BB000200A9000240025059063
:10255000834604905248007810B90BB0BDE8F08F64
:1025600000204F4908704FF4FA724E4801884E48D7
:1025700004F016FE18B101204C490870EDE70AABD3
:102580004FF4FA7247480188474804F06BFC06464E
:10259000002E77DDBDF82800002873DD06A807A906
:1025A00008AA09ABCDE90032CDE90210BDF8283008
:1025B0003C4802883C493E4804F09AFDDDE9081099
:1025C000A0EB010ADDE90821881800EBD0714F105B
:1025D000DDE90610A0EB0108DDE90621881800EB13
:1025E000D0714FEA6109B8F1000F53DD002F51DDC2
:1025F000B9F1000F4EDD0AFB09F04FF47A71484340
:1026000008FB07F190FBF1F4B4F5C87F0EDB40F254
:10261000DC5084420ADC04EBC40000EB04104FF4ED
:102620007A7190FBF1F0C0F16E0500E00025642D99
:1026300000DD6425462D01DA05B14625E8B2059096
:10264000642008FB00F090FBF9F000F0FF0B642021
:102650000AFB00F090FBF7F0C0B20490BBF1630FEF
:1026600001DD4FF0630B0498632801DD63200490C3
:10267000A0B200905A463146DDE9043004F0FEFD78
:1026800008E0FFE700200B49087048700A4908700D
:102690000A49087001200749087200BF5DE7000081
:1026A0008A00002084000020800D00208B00002084
:1026B00000010020001A002092000020910000205C
:1026C0002DE9FC4106460F4614461D466B4601AAFD
:1026D0003946304604F0A2FD0CB1019820800DB1BE
:1026E000009828801B491C4A1288019841F8220052
:1026F0001A49194A1288009841F8220016480088A1
:10270000401C4FF4487190FBF1F201FB120012499A
:10271000088013480088B0F5487F04DA1048008824
:10272000401C0F4908800F480088401C0D49088054
:102730000B480088B0F5FA7F0ADB08460088B0F540
:10274000FA7F05DB01200849087000200549088050
:10275000BDE8FC810001002084000020800D0020E5
:1027600086000020880000208A00002070470000BA
:102770001148007800B970471048007880F00100D7
:102780000E4908700846007860B10D49098801F5C6
:10279000006188B2B0F5805F01DB40F6FF70094947
:1027A000086007E006490988C1F5006188B205495B
:1027B000086000BF00BFDEE7AC000020B0000020D2
:1027C000AE0000200874004010B540F2026004F032
:1027D000D9FA40F2036004F0D5FA40F21D7004F01B
:1027E000D1FA40F2066004F0CDFA10230322002152
:1027F000244803F075FE4FF40053032210212248B1
:1028000003F06EFE4FF48043032210211E4803F0B4
:1028100067FE4FF40043032210211B4803F060FEC3
:10282000012303221021194803F05AFE0121174801
:1028300003F002FE4FF48041134803F0FDFD4FF416
:102840000051114803F0F6FD4FF400410E4803F02B
:10285000F1FD0F48006820F004000D4908600846AB
:10286000006820F0C00008600846006840F00100E1
:102870000860C8140649083108600648007800F06E
:102880002DF810BD00080140000C01400018014067
:1028900000740040AD00002010B504460CB10120CA
:1028A00000E000200A4908700846007820B10121A4
:1028B000084803F0BFFD03E00121064803F0BCFD1A
:1028C0000348007818B94FF400600349086010BD50
:1028D000AC000020001801400874004070B50446A8
:1028E0001F2C00DD1F2409480470C4EB04201F21A5
:1028F00090FBF1F0C5B2284603F07CFBA0021F213B
:1029000090FBF1F032300249088070BDAD0000202C
:10291000AE00002010B500F06DF810BD10B51048E5
:10292000006840F470000E4908600E48006840F0EE
:1029300001000C49086000204860C8620846006831
:1029400009490840074908604FF41F00886008469D
:10295000006820F48020086004F08CFD10BD0000A9
:1029600088ED00E000100240FFFFF6FE10B50121E7
:102970000B4804F04AFE012803D10121084804F065
:1029800041FE08480088401C064908800846008827
:10299000022804DB0020088001200349087010BDD4
:1029A00000040040C2000020C000002010B501213A
:1029B0000D4804F02AFE012803D101210A4804F041
:1029C00021FE0A480088401C00B2084908800846D9
:1029D000B0F90000B0F57A7F04DB00200880012008
:1029E0000349087010BD0000000C0040C400002026
:1029F000C10000200448006820B103480068401E60
:102A00000149086070470000E400002070B50446EA
:102A10000D462A46214602A003F07CF870BD000056
:102A200025752C25750D0A000148007870470000B7
:102A3000D10000200C490D4A127888540B490978BE
:102A4000491C0A4A117011460978202901DB00212E
:102A5000117007490978202904DA05490978491CC9
:102A6000034A11707047000054220020CF0000205C
:102A7000D00000202DE9F04704460E4617464FF0DF
:102A80000008C1460CB106B117B90020BDE8F087B7
:102A90002046FDF77BFB092801D00020F6E72079CE
:102AA0002C2801D00020F1E7002520E0605D3028CF
:102AB00002DB605D392801DD0020E7E7681D205C4E
:102AC000302803DB681D205C392801DD0020DDE7AC
:102AD000605D303808EB880100EB4108681D205C20
:102AE000303809EB890100EB4109681CC5B2042D9F
:102AF000DCDBB8F5805F02D2B9F5805F01D300203E
:102B0000C4E7A6F80080A7F800900120BEE7000007
:102B100038B54FF4007403E09DF80000FFF77AF831
:102B200001216846FFF7AEFB18B1201EA4F1010495
:102B3000F2D10548007828B100200349087003A0AD
:102B400002F0E8FF38BD0000D20000205541525489
:102B50005F52585F4F564552464C4F570D0A000082
:102B60007CB505460E46AB208DF8000002208DF89E
:102B700001008DF802508DF8036055208DF8040097
:102B800000240DE01DF80410074804F0A2FD00BF6A
:102B90000721054804F0EFFD0028F9D0601CC4B2FD
:102BA000052CEFDB7CBD00000044004008B1012192
:102BB00000E00021014A117070470000D1000020A0
:102BC000024617480088174B93F90030184400B2AA
:102BD000134B18801846B0F90000142804DD1420A7
:102BE0001880FF200F4B18700D48B0F9000010F14D
:102BF000140F06DA6FF01300094B18800120094BFF
:102C000018700748B0F900001118002900DA0021F7
:102C1000B1F5805F01DB40F6FF7188B270470000BC
:102C2000420000204400002010B5024610480088F1
:102C300080EAC0100E4C20802046008880EA602088
:102C400020802046008880EA0020208020460078EE
:102C500000F00F00A0F10803D118002900DA0021CC
:102C6000B1F5805F01DB40F6FF7188B210BD000056
:102C7000460000200EB500F097FF40F641002049C5
:102C8000088020A000F0BAFC4FF6FF7020A140F2AF
:102C90005D52B423CDE900210290F0226421282066
:102CA00000F0D8FE01F0E6FC4FF4FC601C490880FF
:102CB0001CA010210B46B422CDE90010E6214120D2
:102CC000FEF7A2FE4FF478401549088019A01021A4
:102CD0000B46B422CDE90010FA214120FEF794FE04
:102CE0004BF6F7500E49088016A010210B46C8225B
:102CF000CDE900104FF4DC713C20FEF785FE0EBDDF
:102D000020000020416C61726D205365740000004A
:102D1000416C61726D2050726F66696C65000000D5
:102D20001E0000204C4C3A2050726F66696C652082
:102D30002B000000524C3A2050726F66696C65207F
:102D40002D0000004C483A20416C61726D205465A2
:102D50007374202052483A4261636B000EB500F054
:102D600023FF40F641002049088020A000F046FCE7
:102D70004FF6FF7020A140F25D52AA23CDE9002159
:102D80000290C82278213C2000F064FE01F00CFD86
:102D90004FF4FC601C4908801CA010210B46DC226B
:102DA000CDE9001011464B20FEF72EFE4FF478407F
:102DB0001549088019A010210B46DC22CDE900102E
:102DC000F0214B20FEF720FE4BF6F7500E4908800D
:102DD00016A010210B46DC22CDE9001051003C204A
:102DE000FEF712FE0EBD000020000020416C617253
:102DF0006D20546573740000416C61726D20436FE7
:102E00006E666967000000001E0000204C4C3A20EE
:102E1000566F6C756D65202B00000000524C3A20F7
:102E2000566F6C756D65202D000000004C483A4DC2
:102E30006F646520202052483A4261636B000000B5
:102E40000EB500F0B1FE40F641002049088020A0F8
:102E500000F0D4FB002021A14FF478429623CDE965
:102E600000210290C82278213C2000F0F3FD01F0FF
:102E7000FFFC4FF4FC601D4908801DA010210B468B
:102E8000C822CDE90010D2215520FEF7BDFD4FF438
:102E90007840164908801AA010210B46C822CDE9B7
:102EA0000010E6215520FEF7AFFD4BF6F7500F4915
:102EB000088018A010210B46C822CDE900104FF45D
:102EC000DC714620FEF7A0FD0EBD000020000020B2
:102ED0004175746F204C6967687400004C696768BD
:102EE0007420537769746368000000001E0000209E
:102EF00055503A20456E61626C6520284F4E29007E
:102F0000444E3A2044697361626C65284F464629F5
:102F1000000000005072657373204241434B2074DF
:102F20006F204578697400002DE9F34F87B007469C
:102F3000894800882C3884B208254FF022081026D2
:102F4000032006904FF0080B4FF4FC600490142F00
:102F500003DA4FF47840049004E0322F02DA4FF69F
:102F6000E070049041F6E30005EB060C0CF1020C56
:102F70001FFA8CF304EB08090090DDF818C0CC446C
:102F80000CF1020C1FFA8CF2A5F1020C1FFA8CF165
:102F9000A4F1020C1FFA8CF0FEF7D0F94FF6FF7087
:102FA0006E490880A81983B204EB080082B2294652
:102FB0002046FEF795F94FF6FF70A6EB0B0909EBDB
:102FC000D97C05EB6C0CDC441FFA8CF3A6EB0B0CE4
:102FD000CDF80CC000900CEBDC7C05EB6C0C1FFA00
:102FE0008CF104EB080ADDF818C0D4441FFA8CF207
:102FF00004EB080C0CF1010C1FFA8CF0FEF79EF9A3
:1030000041F6E30005EB060CACF1010C1FFA8CF362
:1030100004EB080CACF1010C1FFA8CF205F1010C69
:103020001FFA8CF104F1010C00901FFA8CF0FEF7EE
:1030300085F9642F00DD6427A8F106007843642138
:1030400090FBF1F080B205900598002818DD0498F7
:1030500005EB060CACF1030C1FFA8CF304F1030C26
:103060000090DDF81490CC441FFA8CF205F1030CAB
:103070001FFA8CF104F1030C1FFA8CF0FEF75EF9D5
:10308000601D80B28246102E05DDA6F1100000EB17
:10309000D071491000E0002129441FFA81F9632F03
:1030A00004DD2FA102A802F045FD04E03A462DA15F
:1030B00002A802F03FFD41F6E3002B4908804FF6DD
:1030C000FF702649088002A810210B461822CDE97E
:1030D000001049465046FEF797FC0898C8B3A4F183
:1030E0000A001FFA80F9E81C1FFA80FA4FF6E07018
:1030F0001A4908800AF1040083B209F1040082B27F
:1031000051464846FEF782F80AF1040C1FFA8CF388
:1031100009F1020C1FFA8CF20AF1040C1FFA8CF16F
:1031200009F1040C1FFA8CF0FEF770F80AF10A0C92
:103130001FFA8CF309F1060C1FFA8CF20AF1040C49
:103140001FFA8CF109F1020C1FFA8CF0FEF75EF801
:1031500000BF09B0BDE8F08FE80000201E0000208D
:103160003130300025750000200000202DE9FC479B
:1031700004460D4616461F46DDE90B9ADDF8288009
:1031800041F2A2000090E81983B2A01982B2294648
:103190002046FEF7D3F846F66D3029490880E81935
:1031A00083B2A01982B229462046FEF799F8244836
:1031B000A0F8008005EB070CACF1010C1FFA8CF3B2
:1031C00004EB060CACF1010C1FFA8CF205F1010CBA
:1031D0001FFA8CF104F1010C1FFA8CF0FEF780F855
:1031E00005F1120C1FFA8CF304EB060CACF1020C87
:1031F0001FFA8CF205F1020C1FFA8CF104F1020C9B
:103200001FFA8CF0CDF80080FEF798F80C48A0F873
:1032100000900C48A0F800801020A6F10C039AB290
:103220002B1D99B204F10803CDE9000A98B21023CE
:10323000FEF7EAFB40F6410002490880BDE8FC8742
:103240001E000020200000200EB500F0ADFC40F66E
:1032500041002149088021A000F0D0F94FF6FF700D
:1032600021A140F25D52C823CDE9002102904FF424
:10327000827250211E2000F0EDFB01F0EDFC4FF4B6
:10328000FC601C4908801CA010210B46B422CDE92B
:103290000010F0213720FEF7B7FB4FF478401549B6
:1032A000088019A010210B46B422CDE900104FF47C
:1032B00082713720FEF7A8FB4BF6F7500D490880C6
:1032C00015A010210B46B422CDE900104FF4DC719B
:1032D0004620FEF799FB0EBD20000020446174617A
:1032E000205265766965770052657669657720506A
:1032F000616765001E0000204C4C3A2050616765F4
:10330000204E657874000000524C3A205061676589
:103310002050726576000000507265737320424140
:10332000434B20746F204578697400000EB500F09F
:103330003BFC40F641002049088020A000F05EF9E7
:103340004FF6FF7020A140F25D529623CDE9002197
:103350000290C82278213C2000F07CFB01F062FD45
:103360004FF4FC601C4908801CA010210B46B422BD
:10337000CDE90010D2215520FEF746FB4FF47840EE
:103380001549088018A010210B46B422CDE9001081
:10339000E6215520FEF738FB4BF6F7500E49088022
:1033A00014A010210B46B422CDE900104FF4DC71BB
:1033B0004620FEF729FB0EBD200000204574434F38
:1033C00032205365740000004574434F3220537718
:1033D00069746368000000001E0000204C4C3A2015
:1033E000456E61626C650000524C3A20446973611D
:1033F000626C65005072657373204241434B2074C8
:103400006F204578697400002DE9FC470120FDF725
:10341000BBFE2A492A4A1278885CFEF7DFF90120B0
:10342000FDF7B2FE40F64100FDF794FE40F6410084
:103430002449088024A000F0E1F80A2425480088E7
:103440000A3886B24625234840880A3887B20020C9
:103450003B463246294600902046FDF76FFF46F670
:103460006D301D4908803B46324629462046FDF70F
:1034700037FF301B401C1FFA80F8781B401C1FFAD6
:1034800080F94B4642462946204601F085F84BF626
:10349000F7501149088041F6E3000A4908800FA05F
:1034A00010210B464FF49672CDE900100C21A0209C
:1034B000FEF7AAFA01F0EEFCBDE8FC875A7E000890
:1034C000490000202000002046696C746572204489
:1034D000656D6F00E80000201E0000204C483A4D4A
:1034E0006F646520204C4C3A4E6F69736520205202
:1034F0004C3A44726966740010B5FFF785FF02F01C
:10350000ABF910BD0EB500F04FFB40F64100244969
:10351000088024A000F072F8002025A14FF4784222
:103520009623CDE900210290C82278213C2000F0AA
:1035300091FA4FF6FF702249088040F64100184981
:10354000088001F04FFD4FF4FC601D4908801DA06C
:1035500010210B46C822CDE90010D2215520FEF7DC
:1035600053FA4FF47840164908801AA010210B46F0
:10357000C822CDE90010E6215520FEF745FA4BF6AA
:10358000F7500F49088018A010210B46C822CDE93A
:1035900000104FF4DC714620FEF736FA0EBD000035
:1035A0002000002046696C74657220536574000029
:1035B00046696C7465722053776974636800000013
:1035C0001E00002055503A20456E61626C6520282F
:1035D0004F4E2900444E3A2044697361626C65285D
:1035E0004F46462900000000507265737320424127
:1035F000434B20746F204578697400001CB5044665
:1036000041F6E300009022480088401E82B2272342
:1036100000210846FDF792FE4FF6FF701D49088015
:1036200041F6E3001C4908801020034678220C2153
:10363000CDE900040846FEF7E7F918A01021CDE90E
:10364000001013490988C83988B21023A0220C2120
:10365000FEF7DAF940F641000F49088040F25D506C
:103660000C4908800A480088401E82B22823194667
:103670000020FDF7CBFD06480088401E82B22923BA
:1036800019460020FDF7C2FD01F02AF91CBD00001B
:10369000E80000201E0000202000002049443A30AD
:1036A00031204F4E4C494E450000000000B589B016
:1036B00000F07AFA40F64100A6490880A6A0FFF77C
:1036C0009DFFA7A000214FF478424623CDE90021B9
:1036D00002904FF4967232210A20FFF747FDA2A014
:1036E00000214FF4FC624623CDE9002102904FF403
:1036F000967282210A20FFF739FD9EA0002141F633
:10370000E3024623CDE9002102904FF49672D221C4
:103710000A20FFF72BFD9AA04FF6FF7140F25D5291
:103720002823CDE9002102904FF496724FF4917155
:103730000A20FFF71BFD94A04FF6FF7140F25D5287
:103740008223CDE9002102904FF496724FF4AA71C2
:103750000A20FFF70BFD4FF478409049088041F2B2
:10376000A2007C4908808E48007820B98DA104A869
:1037700002F0E0F905E08A4802788DA104A802F081
:10378000D9F904A810210B46C822CDE900104E211A
:103790001820FEF739F94FF4FC608049088041F2A7
:1037A000A2006C4908807E48407820B983A104A813
:1037B00002F0C0F905E07A48427883A104A802F03B
:1037C000B9F904A810210B46C822CDE900109E21AA
:1037D0001820FEF719F94FF6E0707049088041F2A1
:1037E000A2005C4908806E48807838B96C48C0787F
:1037F00020B978A104A802F09DF906E06848837812
:10380000C27878A104A802F095F904A810210B460B
:10381000DC22CDE90010EE211820FEF7F5F84FF676
:10382000E0705E49088041F2A2004A4908805C4885
:10383000828870A104A802F07DF904A810210B462B
:103840005422CDE900104FF49B711820FEF7DCF8EC
:1038500048F230405149088041F2A2003D490880B9
:103860004F48037AC27966A104A802F063F904A85C
:1038700010210B466022CDE900104FF49B71782097
:10388000FEF7C2F848F230404449088041F2A200F5
:103890003049088042488079FF2804D15DA104A8FE
:1038A00002F048F905E03E4882795DA104A802F0E3
:1038B00041F904A810210B464022CDE900104FF435
:1038C0009B71F020FEF7A0F84FF478403349088050
:1038D00041F2A2001F49088054A010210B468C22FF
:1038E000CDE900104FF4AF711820FEF78DF85A2380
:1038F0004FF48C724FF4B971142000F04DFE01F0BA
:10390000ABFF40F64100134908804C480078F0B105
:103910004FF4784040F2B3134FF4827240F28B11AF
:1039200000903C20FDF70AFD4FF6FF701B49088010
:103930004FF478400749088041A018210B46C02267
:10394000CDE9001040F293114020FEF75DF809B078
:1039500000BD0000200000204D6F6E69746F720082
:1039600053504F320000000050756C736520526157
:1039700074650000506572667573696F6E000000B3
:103980005369676E616C000050756C7365205761F8
:10399000766528302D343039352900001E0000208E
:1039A000F600002053504F323A202D2D20200000E9
:1039B00053504F323A2025336420000050523A20B1
:1039C00020202D2D2020000050523A202025336445
:1039D00020200000504920523A2D2D20493A2D2D0B
:1039E00020000000504920523A25326420493A25EF
:1039F00032642000523A202564202020200000005C
:103A000050574D20523A256420493A256420202001
:103A1000000000004761696E3A202D2D2020000033
:103A20004761696E3A2025642020200049522028F1
:103A300066696C7465726564290000004A000020A4
:103A40004552524F523A204E4F2046494E4745521A
:103A5000000000002DE9FC4704460D4616461F46AF
:103A6000DDE90B9ADDF8288041F2A2000090E81908
:103A700083B2A01982B229462046FDF75FFC284890
:103A8000A0F80080E81983B2A01982B22946204626
:103A9000FDF726FC05EB070CACF1010C1FFA8CF3CB
:103AA00004EB060CACF1010C1FFA8CF205F1010CD1
:103AB0001FFA8CF104F1010C1FFA8CF0FDF710FCD9
:103AC00005F1180C1FFA8CF304EB060CACF1020C98
:103AD0001FFA8CF205F1020C1FFA8CF104F1020CB2
:103AE0001FFA8CF0CDF80080FDF728FC0C48A0F8F8
:103AF00000A00C48A0F800801020A6F114039AB290
:103B00006B1D99B204F10A03CDE9000998B21023A4
:103B1000FDF77AFF40F6410002490880BDE8FC87C6
:103B20001E000020200000200EB500F03DF840F6F9
:103B300041001249088012A0FFF760FD002012A189
:103B40004FF478429623CDE900210290DC227821BF
:103B50003220FFF77FFF01F029FB4BF6F7500C49AD
:103B600008800CA010210B46C822CDE900104FF4AC
:103B7000DC714620FDF748FF0EBD0000200000204C
:103B8000522043616C696200522056616C75650079
:103B90001E0000205072657373204241434B207415
:103BA0006F20457869740000F8B500241EE01220EB
:103BB00094FBF0F00C3086B23F2E00DD3F2614203F
:103BC00094FBF0F0143087B21F2F00DD1F2747EA67
:103BD000461085B2084800950088401E82B22346F0
:103BE00021460020FDF7AAFB601C84B202484088F1
:103BF000A042DCDCF8BD0000E80000207CB50546F2
:103C00000E4605EB85003C2101EBC004FEB142F2FB
:103C1000B820009004F11A0083B2A01F81B240F2D4
:103C200031120F20FDF78AFB4FF6FF7030490880F4
:103C300042F2B8202F49088004F11A0083B2A01F75
:103C400081B240F231120F20FDF74AFB22E041F22F
:103C5000A200009004F11A0083B2A01F81B240F2CA
:103C600031120F20FDF76AFB46F66D3020490880BF
:103C700041F2A2001F49088004F11A0083B2A01F7C
:103C800081B240F231120F20FDF72AFB4FF6FF7090
:103C900017490880184850F8250010210B46C82203
:103CA000CDE9001021461E20FDF7AEFE5EB113A047
:103CB00010210B461422CDE9001021464FF48C70E0
:103CC000FDF7A2FE12E046F66D300949088041F288
:103CD000A200084908800AA010210B461422CDE951
:103CE000001021464FF48C70FDF78EFE7CBD000065
:103CF0001E000020200000205C0000203E0000008C
:103D0000200000007CB517480588FFF74DFF16A07E
:103D1000FFF774FC00240CE016480078844201D1BF
:103D2000012000E0002001462046FFF767FF601CED
:103D3000C4B20A2CF0DB4BF6F7500F49088040F66E
:103D40004100084908800DA010210B464FF48C72E9
:103D5000CDE900104FF4DC711420FDF755FE014849
:103D600005807CBD2000002053657474696E677304
:103D7000000000002D0000201E0000204C4C2F529F
:103D80004C3A53656C204C483A456E74657220522B
:103D9000483A4261636B00000EB5FFF705FF40F63D
:103DA00041002049088020A0FFF728FC002022A124
:103DB0004FF478429623CDE900210290C822782161
:103DC0003C20FFF747FE01F07DF94FF4FC601D49F0
:103DD00008801DA010210B46A022CDE90010D221A1
:103DE0005520FDF711FE4FF47840164908801AA0BF
:103DF00010210B46A022CDE90010E6215520FDF749
:103E000003FE4BF6F7500F49088017A010210B4610
:103E1000C822CDE900104FF4DC714620FDF7F4FD17
:103E20000EBD00002000002053704F322047616912
:103E30006E205365740000004761696E204C657602
:103E4000656C00001E00002055503A20496E6372D8
:103E50006561736500000000444E3A20446563725A
:103E60006561736500000000507265737320424104
:103E7000434B20746F204578697400000EB5FFF73E
:103E800093FE40F641002049088020A0FFF7B6FBD2
:103E90004FF6FF7020A140F25D52B423CDE900211E
:103EA0000290F02264212820FFF7D4FD01F0C0F930
:103EB0004FF4FC601C4908801CA010210B46B42262
:103EC000CDE90010E6214120FDF79EFD4FF478403A
:103ED0001549088019A010210B46B422CDE9001025
:103EE000FA214120FDF790FD4BF6F7500E4908806E
:103EF00016A010210B46B422CDE900104FF4DC715E
:103F00004620FDF781FD0EBD20000020537973741B
:103F1000656D20536574000053797374656D20439B
:103F20006F6E6669670000001E0000204C4C3A204E
:103F30004272696768746E6573732B00524C3A2045
:103F40004272696768746E6573732D005072657391
:103F500073204241434B20746F2045786974000000
:103F60000EB5FFF721FE40F641002049088020A051
:103F7000FFF744FB4FF6FF7020A140F25D529623FD
:103F8000CDE900210290C82264213C20FFF762FDA8
:103F900001F03EFA4FF4FC601B4908801BA0102181
:103FA0000B46B422CDE90010C3215520FDF72CFDAE
:103FB0004FF478401449088017A010210B46B42212
:103FC000CDE90010D7215520FDF71EFD4BF6F75027
:103FD0000D49088013A010210B46B422CDE9001032
:103FE0004FF4DC714620FDF70FFD0EBD20000020D0
:103FF000576F726B204D6F64650000004D6F6465F4
:104000002053656C656374001E0000204C4C3A2000
:104010004D6F6E69746F7200524C3A205365727620
:10402000696365005072657373204241434B20748D
:104030006F20457869740000014611B1012904D14F
:1040400001E003A0704704A0FCE705A0FAE7000028
:10405000494952204C50460044657472656E6400B4
:104060004D656469616E000010B540F64100FDF7D2
:1040700071F80020074908700120074908705A2389
:104080004FF48C724FF4B971142000F085FA00F0EF
:10409000ADFA10BD2C0000202E00002010B54248C3
:1040A000007803284CD003DC38B1012877D10EE02A
:1040B0000B284CD00C2872D158E001203A490870E6
:1040C00000203A49087001203949087068E03748F3
:1040D00000780A282ED2DFE800F005090D11151925
:1040E0001D21252902203049087024E003202E4993
:1040F000087020E004202C4908701CE005202A49A3
:10410000087018E00B202849087014E006202649A2
:10411000087010E00720244908700CE008202249AC
:10412000087008E009202049087004E00A201E49B0
:10413000087000E000BF00BF01201D4908702FE09B
:104140000C201949087001201949087028E0194805
:104150000078401C032190FBF1F201FB120015498D
:104160000870FEF72DF900F095FE19E0124800786E
:10417000401C032190FBF1F201FB12000E49087074
:1041800000F012FB0C490978022902D1012102E05A
:1041900005E00A4909780846FEF77EFB00E000BF0B
:1041A00000BF00F023FA10BD2C0000202D000020DD
:1041B0002E000020480000204E0000204C0000206F
:1041C00010B5544800780D287DD2DFE800F0A00734
:1041D00053591C28A049656B802E90004E480078EA
:1041E00000280FDD4C4804780078401E4A490870CA
:1041F00000212046FFF702FD012147480078FFF724
:10420000FDFC00BF84E000210220FEF7A9FC43482A
:104210008079401C4149887100F054FF78E001200A
:10422000FEF7C4FC00F0DEFE72E03D48007808B9FD
:10423000012000E000203A4908703A490978481CFA
:10424000C11700EB91718910A0EB8101354A117003
:1042500001203549087000F01DFE00F0C7F957E055
:1042600001203249087001210520FEF779FC00F099
:10427000FFFA4DE000202E49087001F0C9F847E030
:104280002C480078022804DA2A480078401C294982
:10429000087000F0EFF93BE001202749087000F0BA
:1042A000C1FD35E025480078052804DA2348007868
:1042B000401C2249087021480078032802DB0120B5
:1042C0001F49087000E022E000F0B2FF20E01D4826
:1042D0000078022805DA1B480078401C194908704C
:1042E00002E000201749087000F0B6FC10E0164804
:1042F00000781F2804DA14480078401C124908701E
:1043000000F052FA10480078FEF7E8FA00E000BF2B
:1043100000BF10BD2C0000202D000020F600002062
:104320003F000020490000202E0000202F00002028
:104330003000002031000020320000203300002037
:1043400034000020350000204D00002010B50A4840
:1043500000780B280FD109490978481CC11700EBD8
:1043600091718910A0EB8101044A11700120044968
:10437000087000F03BF910BD2C000020490000201F
:104380002E00002010B5234800780D2839D2DFE830
:1043900000F038070B0C0D0E30313233340F1000A3
:1043A00000201C4908702DE000BF00BF00BF00BF07
:1043B00000BF184800780B2809D10020FCF7E4FE64
:1043C0000220FDF70BFA40F64100FCF7C3FE11484E
:1043D00000780C280CD110480078022804D1002065
:1043E0000E490870FEF758FA03200A49087009E0E0
:1043F00000BF00BF00BF00BF00BF0120054908701B
:1044000000E000BF00BF01200549087000F0EEF891
:1044100010BD00002C0000204E0000204C000020A9
:104420002E00002010B54E4800780D2873D2DFE82A
:1044300000F09307474D1C2C933D595F7332830066
:104440004848007809280FDA464804780078401C6C
:104450004449087000212046FFF7D0FB0121414864
:104460000078FFF7CBFB00BF77E000210320FEF7C9
:1044700077FB3D488079002804DD3B488079401E69
:104480003949887100F01EFE67E00020FEF78EFBC0
:1044900000F0A8FD61E03548007808B9012000E08F
:1044A00000203249087000F0F5FC56E00020304949
:1044B000087000210520FEF753FB00F0D9F94CE00D
:1044C00001202C49087000F0A3FF46E02A4800783C
:1044D000002804DD28480078401E2749087000F0B5
:1044E000C9F83AE000202549087000F09BFC34E050
:1044F00023480078012804DD21480078401E204927
:1045000008701F480078032802DA00201D4908704F
:1045100000F08EFE21E01FE01B480078002805DD3A
:1045200019480078401E1849087002E00220164918
:10453000087000F091FB10E014480078002804DDBA
:1045400012480078401E1149087000F02DF90F48FC
:104550000078FEF7C3F900E000BF00BF10BD000007
:104560002C0000202D000020F6000020400000203C
:104570002F000020300000203100002032000020F9
:104580003300002034000020350000204D000020C2
:1045900010B500F02BF810BDF0B504460D4D2C8081
:1045A0000D4D29800D4D2A800D4D2B800D4D2D88F0
:1045B00092FBF5F5A8B200B9012000F2F315B5FBA6
:1045C000F0F6094F3E803E4636880EB901263E8001
:1045D000F0BD0000500000205200002054000020D8
:1045E00056000020580000205A00002010B51F4837
:1045F000007800B910BD1E4800780D282FD2DFE8E2
:1046000000F0070A0D1013161F2225282B191C0075
:10461000FFF74CF824E0FFF775FB21E0FFF7A0FC63
:104620001EE0FEF727FB1BE0FFF7B6FB18E0FEF7E6
:1046300069FF15E0FEF760FF12E0FEF78FFB0FE069
:10464000FFF772FA0CE0FEF7FBFB09E0FEF76EFEE7
:1046500006E0FFF713FC03E0FEF7F6FD00E000BF05
:1046600000BF00200149087000BFC3E72E000020F2
:104670002C00002070B58AB03048007818B95A264E
:104680002D2482250AE02D480078012803D15C26DC
:1046900032248C2502E05E26372496254FF6FF70E3
:1046A0002749088040F641002649088023480078C1
:1046B00050B925A010210B46B422CDE900108C2161
:1046C0004120FDF7A1F918E01C48007801280AD123
:1046D00022A010210B46B422CDE900108C214120EC
:1046E000FDF792F909E022A010210B46B422CDE992
:1046F00000108C214120FDF787F9324621A102A844
:1047000001F018FA02A810210B46B422CDE90010DE
:10471000A8214120FDF778F92B4622461DA102A8C9
:1047200001F008FA02A810210B46B422CDE90010CE
:10473000BE214120FDF768F90AB070BD31000020AC
:104740001E0000202000002050726F66696C653AE0
:10475000204C6F77202020200000000050726F66F0
:10476000696C653A204D656469756D200000000034
:1047700050726F66696C653A20486967682020202E
:104780000000000053704F32204C6F773A202564B0
:10479000202020004852204D696E2F4D61783A2527
:1047A000642F25640000000000B58BB04FF6FF7049
:1047B0001B49088040F641001A4908801A480078D1
:1047C00020B91AA103A801F0B5F90CE01648007849
:1047D000012804D119A103A801F0ACF903E01BA141
:1047E00003A801F0A7F903A810210B46C822CDE9C0
:1047F0000010A0215020FDF707F91848027818A1F1
:1048000003A801F097F903A810210B46C822CDE9AF
:104810000010B4215020FDF7F7F80BB000BD0000E8
:104820001E000020200000204E0000204D6F646517
:104830003A204F4646202020000000004D6F64655E
:104840003A204155544F2020000000004D6F646510
:104850003A20464F52434520000000004D00002002
:10486000566F6C756D653A2025326420202000005B
:104870001CB54FF6FF700F49088040F641000E4905
:1048800008800E48007850B10DA010210B46A022E0
:10489000CDE90010AA215020FDF7B6F809E00CA0E0
:1048A00010210B46A022CDE90010AA215020FDF7CF
:1048B000ABF81CBD1E000020200000202F000020AF
:1048C00043757272656E743A204F4E2020000000CE
:1048D00043757272656E743A204F464620000000A0
:1048E00070B5FDF739FB0446FDF706FC0546294681
:1048F0002046FEF719FB70BD30B587B004460CB9F1
:1049000007B030BDE07928B9AB48C07910B1AA48EA
:10491000C079E071207A28B9A748007A10B1A6487A
:10492000007A2072A079FF2806D1A3488079FF2859
:1049300002D0A1488079A071A048007818B9002061
:104940009F4908701CE09D48007801280DD120780F
:10495000002806DD20785A2803DA012098490870DB
:104960000EE00020964908700AE0964800780C286E
:1049700003D101209249087002E00020904908709C
:104980008F480078FDF788FF8E48007800287DD199
:104990000025894800782178884200D00125864882
:1049A00040786178884200D0012583488078A178DA
:1049B000884200D001258048C078E178884200D044
:1049C00001257D488088A188884200D001257A4849
:1049D000C079E179884200D001257748007A217AB0
:1049E000884200D0012574488079A179884200D09E
:1049F00001253DB9704821680160616841602189E5
:104A000001817DE74FF478406F49088041F2A200B0
:104A10006E490880207820B96DA102A801F08AF8BB
:104A200004E022786DA102A801F084F802A8102108
:104A30000B46C822CDE900104E211820FCF7E4FFF8
:104A40004FF4FC606049088041F2A2005F49088091
:104A5000607820B964A102A801F06CF804E06278E3
:104A600064A102A801F066F802A810210B46C82232
:104A7000CDE900109E211820FCF7C6FF4FF6E0702C
:104A80005149088041F2A200504900E074E00880DA
:104A9000A07830B9E07820B959A102A801F04AF80D
:104AA00005E0A378E2785AA102A801F043F802A831
:104AB00010210B46DC22CDE90010EE211820FCF776
:104AC000A3FF4FF6E0704049088041F2A2003F4941
:104AD0000880A28852A102A801F02CF802A8102197
:104AE0000B465422CDE900104FF49B711820FCF7BF
:104AF0008BFF48F230403449088041F2A20033492C
:104B00000880237AE27949A102A801F013F802A8EB
:104B100010210B466022CDE900104FF49B717820E4
:104B2000FCF772FF48F230402749088041F2A200AA
:104B300026490880A079FF2804D141A102A800F0ED
:104B4000F9FF04E0A27941A102A800F0F3FF02A856
:104B500010210B464022CDE900104FF49B71F0204C
:104B6000FCF752FF144821680160616841602189A7
:104B70000181FFF7B5FE1CE00F4821680160616804
:104B80004160218901810F480078062804D00A2855
:104B900008D00C2809D102E000F008FB06E0FFF77E
:104BA00003FE03E000F058F800E000BF00BFFFF78D
:104BB00097FE00BFA4E60000F60000204E00002093
:104BC0004C0000202C0000201E00002020000020AF
:104BD00053504F323A202D2D2020000053504F3299
:104BE0003A2025336420000050523A2020202D2DF9
:104BF0002020000050523A2020253364202000005D
:104C0000504920523A2D2D20493A2D2D20000000E8
:104C1000504920523A25326420493A253264200016
:104C2000523A2025642020202000000050574D20BB
:104C3000523A256420493A256420202000000000D3
:104C40004761696E3A202D2D202000004761696E72
:104C50003A2025642020200000B58BB04FF6FF706D
:104C60004849088040F64100474908804748007895
:104C700010B1012857D12AE045A010210B46B422DB
:104C8000CDE9001078213220FCF7BEFE44480278BE
:104C900044A103A800F04EFF03A810210B46B42244
:104CA000CDE9001094213220FCF7AEFE3C4842785A
:104CB00040A103A800F03EFF03A810210B46B42238
:104CC000CDE90010AA213220FCF79EFE57E03DA05E
:104CD00010210B46B422CDE9001078213220FCF7D8
:104CE00093FE2F488378C2783AA103A800F022FFF0
:104CF00003A810210B46B422CDE9001094213220E4
:104D0000FCF782FE2648828836A103A800F012FF35
:104D100003A810210B46B422CDE90010AA213220AD
:104D2000FCF772FE2BE033A010210B46B422CDE934
:104D3000001078213220FCF767FE1948037AC27907
:104D400030A103A800F0F6FE03A810210B46B42200
:104D5000CDE9001094213220FCF756FE10488279EC
:104D60002CA103A800F0E6FE03A810210B46B422F4
:104D7000CDE90010AA213220FCF746FE00BF00BF9B
:104D80000BB000BD1E0000202000002035000020D8
:104D90005061676520313A2053504F322F505200F6
:104DA000F600002053504F323A2025642020202066
:104DB0000000000050523A202564202020202020AE
:104DC000000000005061676520323A2050492F52A0
:104DD00000000000504920523A256420493A2564D9
:104DE00020202000523A202564202020202020204E
:104DF000202000005061676520333A2044726976B4
:104E00006500000050574D20523A256420493A254C
:104E1000642020004761696E3A202564202020200C
:104E2000202020001CB54FF6FF700F49088040F687
:104E300041000E4908800E48007850B10DA01021A5
:104E40000B46AA22CDE9001011465020FCF7DCFDEC
:104E500009E00CA010210B46AA22CDE90010114652
:104E60005020FCF7D1FD1CBD1E00002020000020BA
:104E70003200002043757272656E743A204F4E20E6
:104E80002020000043757272656E743A204F4646CA
:104E90002020000010B58AB040F641003949088052
:104EA0001F203949088039A010210B466E22CDE918
:104EB000001030211420FCF7A7FD4FF47840324950
:104EC000088035A010210B468222CDE90010302148
:104ED0001046FCF799FD4FF6FF702B4908803248C9
:104EE0000078FFF7A9F80446224630A102A800F096
:104EF00021FE02A810210B467822CDE900103021B6
:104F00004FF48770FCF780FD4BF6F7501E49088080
:104F10002948007808B129A000E029A003462948C3
:104F2000007808B125A000E025A0024626A102A82D
:104F300000F000FE02A810210B465A22CDE9001015
:104F400030214FF4C370FCF75FFD4FF6FF700E4940
:104F5000088020480278521C1FA102A800F0EAFD38
:104F600002A810210B465A22CDE900101E214FF451
:104F7000C370FCF749FD40F64100024908800AB0C1
:104F800010BD0000200000201E000020426C75654E
:104F90003A205261772000005265643A2046696CDD
:104FA0007465726564000000480000204D6F646500
:104FB0003A252D3873000000400000204F4E20009D
:104FC0004F4646003F0000204E3A257320443A25C4
:104FD00073200000490000205363616E3A25642F5E
:104FE000342000001CB54FF6FF700F49088040F6D2
:104FF00041000E490880FDF717FD50B10CA01021AB
:105000000B46A022CDE90010AA215020FCF7FCFCA1
:1050100009E00BA010210B46A022CDE90010AA2127
:105020005020FCF7F1FC1CBD1E00002020000020D9
:1050300043757272656E743A204F4E202000000056
:1050400043757272656E743A204F46462000000028
:1050500010B588B00446144884711448007810B123
:1050600004281DD119E048F230401149088041F26E
:10507000A200104908800C4882790FA103A800F013
:1050800059FD03A810210B464022CDE900104FF432
:105090009B71F020FCF7B8FC03E000F013F800E08F
:1050A00000BF00BF08B010BDF60000202C0000209B
:1050B0001E000020200000204761696E3A20256410
:1050C0002020200000B58BB04FF6FF700B49088000
:1050D00040F641000A4908800A4882790AA103A8DB
:1050E00000F028FD03A810210B46A022CDE90010F6
:1050F000AA215020FCF788FC0BB000BD1E00002048
:1051000020000020F600002043757272656E742046
:105110004C6576656C3A2025642020200000000054
:1051200030B587B004460D4614B90DB907B030BD8F
:105130001548C47105721548007810B106281ED1B3
:105140001AE048F230401249088041F2A2001149A9
:1051500008800D48037AC2790FA102A800F0EAFC8A
:1051600002A810210B466022CDE900104FF49B717C
:105170007820FCF749FC03E000F018F800E000BFDD
:1051800000BF00BFD2E70000F60000202C00002086
:105190001E0000202000002050574D20523A256468
:1051A00020493A25642020200000000000B58BB083
:1051B0004FF6FF701449088040F6410013490880FB
:1051C0001348828813A103A800F0B4FC03A810219F
:1051D0000B467822CDE90010AA216420FCF714FCCC
:1051E0000B48037AC2790EA103A800F0A3FC03A820
:1051F00010210B46A022CDE90010C3214620FCF768
:1052000003FC0BB000BD00001E00002020000020A9
:10521000F6000020523A20256420202020000000C3
:1052200050574D20523A256420493A256420000009
:1052300000B58BB04FF6FF701749088040F641006B
:10524000164908801648027816A103A800F072FCDF
:1052500003A810210B46B422CDE90010A021412063
:10526000FCF7D2FB1448007850B114A010210B4673
:10527000B422CDE90010BC214120FCF7C5FB09E0B8
:1052800012A010210B46B422CDE90010BC21412010
:10529000FCF7BAFB0BB000BD1E0000202000002070
:1052A000330000204272696768746E6573733A2038
:1052B0002564202020000000340000204B65792068
:1052C000426565703A204F4E200000004B65792002
:1052D000426565703A204F46460000002DE9FC41CA
:1052E00004460D46B4F57F6F04DDB5F57F6F01DD33
:1052F000012000E0002006463748007848BB3748C8
:105300000078864225D035480670007810B900F044
:10531000A3FA1EE04FF4784040F2B3134FF48272C8
:1053200040F28B1100903C20FCF708F84FF6FF701C
:105330002B4908804FF478402A4908802AA0182178
:105340000B46C022CDE9001040F293114020FCF73B
:105350005BFB2148007818B11F4800780B2838D132
:1053600026480078401C25490870084600782449E2
:105370000988884201DABDE8FC8100201F490870D5
:105380001648007818B11448007800B9F3E71248BD
:1053900000780B2819D127461A48007818B13846EA
:1053A000FDF742FC07461848007818B13846FDF76B
:1053B00007FC0746154801783846FCF76FFF804622
:1053C0004146384600F0A2F803E02946204600F0A6
:1053D0009DF800BFCFE700002C0000204A0000200D
:1053E0001E000020200000204552524F523A204E0D
:1053F0004F2046494E474552000000003E00002025
:105400005A0000203F0000204000002048000020FB
:105410001CB54FF6FF700F49088040F641000E4959
:1054200008800E48007850B90DA010210B46AA2222
:10543000CDE9001096215020FCF7E6FA09E00DA016
:1054400010210B46AA22CDE9001096215020FCF72E
:10545000DBFA1CBD1E0000202000002030000020D0
:1054600043757272656E743A204D6F6E69746F7217
:105470002000000043757272656E743A20536572A5
:10548000766963652000000030B501461948008840
:10549000421E19480088814201DA174801801748E6
:1054A0000088814201DD154801801548008881424D
:1054B00001DD1348018813480088814201DA114850
:1054C00001880F4800880F4C2488A04201D153085E
:1054D0000AE00C480088081A5043094C2488094DFA
:1054E0002D88641BB0FBF4F3074800881044C01AF1
:1054F00080B230BD5600002024000020260000208D
:105500002A00002028000020520000202DE9F84346
:1055100081460F46C148007820B900F09DF901206E
:10552000BE490870BE48008800284CD1BD49098892
:10553000BD4A1288891A0A2291FBF2F188B20A2820
:1055400000DA0A20B8490988814205DDB649098890
:10555000091AB64A118002E00021B44A1180B1490B
:1055600009880144B24A118011460988B1F5805F6B
:1055700002DB40F6FF711180AD490988AB4A128801
:10558000891A322917DAAA4B1B88DFF8A0C2BCF8A7
:1055900000C003EB0C0202EBD273C3F34F0101F125
:1055A0001902A34B1A80192901DD323A00E00022CA
:1055B0009E4B1A8000BF40F6FF719B4A118000216C
:1055C000984A118000BF4846FFF75EFF06463846FE
:1055D000FFF75AFF05469748008891490988084413
:1055E00084B28F480088002871D1934800780B2836
:1055F00002D1FDF709FF64E090480088022832DDFF
:105600008F48008802282EDD0020DFF838C2009085
:10561000BCF800C0DFF82882B8F80080C444ACF1C0
:10562000020C1FFA8CF3DFF80CC2BCF800C0DFF8E4
:105630000C82B8F80080C444ACF1020C1FFA8CF262
:10564000DFF800C2BCF800C00CF1010C1FFA8CF1AD
:10565000DFF8E0C1BCF800C00CF1010C1FFA8CF0BF
:10566000FBF76CFE15E00020009076480088744936
:1056700009880844401E83B26E4800886F49098833
:105680000844401E82B26F4801886A480088FBF7D0
:1056900055FE46F66D306C4908806A4800886849B6
:1056A00009880844401E83B262480088634909881B
:1056B0000844401E82B2634801885E480088FBF7B8
:1056C0000FFE624806806248058095E0FFE761486A
:1056D00000882044401E1FFA80F856480088574929
:1056E00009880844401E404507DA5248008853495B
:1056F00009880844401E1FFA80F84F4800780B289C
:105700000FD1002000904F4800884D490988084477
:10571000401E83B242464B4801882046FBF70EFEEE
:1057200037E047480088022811DD002000904548F6
:105730000088434A12881044801E83B24148008882
:10574000401C81B242462046FBF7F8FD0EE00020E7
:1057500000903C4800883A4909880844401E83B2BA
:105760004246384801882046FBF7E8FD46F66D3092
:1057700035490880334801882046FBF7A1FD3148B0
:1057800000882F4A12881044401E81B22046FBF741
:1057900097FD294800780B281BD11F202A49088033
:1057A0002C490988611A88B233462246274909885C
:1057B000FBF72CFD4FF478402349088025490988E0
:1057C000611A88B22B46224621490988FBF71EFD43
:1057D0000DE04FF478401C4908801E490988611A81
:1057E00088B22B4622461A490988FBF70FFD174855
:1057F00006801748058000BF0948008815490988B8
:10580000084407490880084600880C4909888842EE
:1058100002DB002002490880BDE8F8833600002042
:10582000380000202600002024000020280000204E
:105830002A000020500000202C00002054000020EE
:1058400056000020520000201E0000203A000020D8
:105850003C0000205800002038B50020494908705D
:10586000494908804949088800EBD071484A1288A4
:1058700002EB6101474A11804449088800EBD0716E
:10588000434A128802EB6101434A118000204349D8
:10589000087040F6FF7042490880002041490880A6
:1058A0004149088040F6FF70404908804048007830
:1058B0000B2816D10020009035480088334909880C
:1058C0000844401E83B23B4800883B49098808448D
:1058D000401E82B22E48018836480088FBF72EFD14
:1058E0004FE0002000902A48008828490988084491
:1058F000401E83B22F4800882F4909880844401E63
:1059000082B2234801882B480088FBF717FD46F632
:105910006D302A4908801E4800881C4909880844BF
:10592000401E83B223480088234909880844401E4A
:1059300082B2174801881F480088FBF7D1FC1E4837
:10594000008802281DDD11480088022819DD00208A
:105950000F4C009024880D4D2D882C44A41EA3B21A
:10596000144C2488144D2D882C44A41EA2B2084C3B
:105970002488641CA1B20F4C2488641CA0B2FBF7DD
:10598000DDFC38BD36000020380000205600002025
:10599000520000203A0000203C0000203E00002081
:1059A0002400002026000020280000202A000020DB
:1059B0002C00002050000020540000201E00002079
:1059C00008B5002000901F491F4801F00AFF78B178
:1059D0001C491D4801F0F8FE2520FCF70FF91A4874
:1059E00001F072FEC0B200909DF8000000F07CF85B
:1059F0001649154801F0F5FE012806D11349124851
:105A000001F0E2FE104801F05FFE11490E4801F07E
:105A1000E8FEB0B12520FCF7F1F86846FCF724FC5D
:105A20009DF80010084801F054FE0A48FCF715FCE8
:105A300038B100200849087040F20731024801F0EF
:105A4000A9FE08BD0503050000380140000503005C
:105A500007030700A0220020DC00002010B51B492E
:105A60001B4801F0BEFE90B1194801F02DFEC4B2F2
:105A7000204600F045F810B901201649087020466C
:105A8000FCF7D8FF1149124801F09EFE00BF1249F1
:105A90000F4801F0A6FE30B10D4801F015FE0E4989
:105AA0000B4801F091FE0D49094801F09AFE18B12A
:105AB0000A49074801F088FE0949054801F091FEAE
:105AC00018B10749024801F07FFE10BD050305002B
:105AD00000440040D2000020000503000005020041
