:020000040800F2
:100000006027002045010008011C0008750D00084C
:10001000FD1B0008C9070008914800080000000007
:100020000000000000000000000000001D22000889
:10003000D10B000800000000351E00081F22000838
:100040005F0100085F0100085F0100085F01000810
:100050005F0100085F0100085F0100085F01000800
:100060005F010008490C0008750C00085F010008DA
:100070005F0100085F0100085F0100085F010008E0
:100080005F0100085F0100085F0100085F010008D0
:100090005F0100085F0100085F010008A10C000873
:1000A0005F0100085F0100085F0100085F010008B0
:1000B0005F010008792200085F0100085F01000865
:1000C0005F0100085F0100085F0100085F01000890
:1000D0005F0100086D470008094800085F0100083B
:1000E000ED0B00085F0100085F0100085F010008D8
:1000F0005F0100085F0100085F0100085F01000860
:100100005F0100085F010008B92200085F010008D4
:100110005F0100085F0100085F0100085F0100083F
:100120005F0100085F0100085F0100085F0100082F
:10013000DFF80CD000F078F900480047F9500008CB
:10014000602700200648804706480047FEE7FEE794
:10015000FEE7FEE7FEE7FEE7FEE7FEE7FEE7FEE777
:100160002922000831010008D2B201E000F8012B79
:10017000491EFBD270470022F6E710B513460A4627
:1001800004461946FFF7F0FF204610BD421C10F848
:10019000011B0029FBD1801A704700000FB400B585
:1001A0008DB010A909900B9000914FF0FF300A908C
:1001B00000200C9005480690054807906A4609A85B
:1001C0000F9900F003F90DB05DF814FBE903000886
:1001D000070400082DE9FF5F1D464FF0FF3BD5E9FE
:1001E000014691465F464FF00008A9697F1C0198BF
:1001F0008847296A824688470028F6D1BAF1FF3F2E
:100200000CD024F4C064002E19DD600614D5BAF1B8
:100210002B0F09D0BAF12D0F0ED103E0584604B0D0
:10022000BDE8F09F44F48064A9697F1C0198884769
:10023000761E8246002E02DDBAF1300F03D0B9F1EE
:10024000000F26D032E0A969761E44F400747F1CAA
:10025000019888478246002E05DDBAF1780F06D056
:10026000BAF1580F03D0B9F1000F10D01EE0B9F168
:10027000000F02D0B9F1100F18D1A969761E24F42D
:1002800000747F1C019888478246102002E00820F5
:1002900000E00A20814609E008FB0908A969761EEA
:1002A00044F400747F1C019888478246002E05DDC7
:1002B0004946504600F075F80028EDDAE9690198E2
:1002C0008847A00502D46FF00100A8E7E00725D118
:1002D000600613D5600502D5C8F1000000E0404675
:1002E00029680A1D2A600968220501D5087015E0F1
:1002F000220701D5088011E008600FE02868011D81
:1003000029600068210502D580F8008006E02107F9
:1003100002D5A0F8008001E0C0F8008038467EE7F2
:100320002DE9F05F0546002092469B46884606462A
:10033000814640241BE0284641464746224600F0BD
:1003400020F853465A46C01A914110D31146184618
:10035000224600F07BF82D1A67EB01084F46224633
:100360000120002100F072F817EB00094E41201E19
:10037000A4F10104DFDC484631462A464346BDE885
:10038000F09F202A04DB203A21FA02F00021704776
:1003900021FA02F3D040C2F12002914008431946ED
:1003A00070473A2800D2303820F02002412A01D389
:1003B000A2F13700884201D34FF0FF3070470000B0
:1003C000026811441378016018467047D1600449EF
:1003D00051610449116200211161114600F04AB8CF
:1003E000C10300086B040008426842B1016811F8BB
:1003F000013B23B1521EC0E900121846704701218B
:10040000C160881E704742685AB1C368016843B929
:1004100083688B4205D0491E521CC0E9001200209F
:1004200070474FF0FF307047064C074D06E0E0681C
:1004300040F0010394E8070098471034AC42F6D32B
:10044000FFF77AFE3069000850690008202A04DBB3
:10045000203A00FA02F1002070479140C2F12003D7
:1004600020FA03F3194390407047C0B24FF4F051A3
:1004700000F096B92DE9F34F8BB04FF0000801F171
:100480000C000C464FF0010B46460DF1080A019096
:100490006269012101989047051E2DD0252D2CD091
:1004A000216A8847C0B16269012101989047216A99
:1004B00088470028F7D1411E62690198904700E003
:1004C000761CA1690B988847216A88470028F7D1D4
:1004D000E1690B988847DBE7A1690B9888470746D5
:1004E000A84201D1761CD3E7E1690B9888477F1CAD
:1004F00002D1B8F1000F6FD046E1002762693D4696
:100500003946019890472A2804D16269012101984F
:1005100090470125DFF88492626901210198904794
:10052000A0F130010A290AD24F45E5DC07EB87012B
:1005300000EB4107303FDFD445F01005ECE7E9065A
:1005400001D46FF000476C280AD04C2814D06828DA
:1005500015D06A280DD074281CD07A281AD01DE036
:1005600062690121019890476C2802D045F004058A
:1005700014E045F002050DE045F020050AE062694F
:10058000012101989047682802D045F0080505E050
:1005900045F400656269012101989047C4E901575B
:1005A00065283DD019DC58287AD00CDC452837D096
:1005B00004DC252826D0412831D131E046282FD02F
:1005C00047282CD12CE05B2877D0612828D06328DD
:1005D0007CD0642823D15AE0D0E06F2848D008DCD2
:1005E00066281DD067281BD0692821D06E2816D117
:1005F00027E0702845D0732868D0752847D0782820
:100600000DD14DE0A1690B988847054625283FF498
:1006100069AFE1690B9888476D1C3FF46AAFB3E09E
:1006200023466A466FF001000B99AFF300809EE00D
:1006300045F040006060A80723464FF0000236D422
:100640003EE0E8077FF447AF2068011D21600068A5
:10065000290501D506701BE7290701D5068017E794
:10066000A90703D5F117C0E9006111E706600FE79C
:1006700045F040006060A80723464FF0080216D4FA
:100680001EE040F60E0125EA0100606016E045F02C
:1006900040006060A80723464FF00A0207D40FE02D
:1006A00045F040006060A80708D5234610226FF08F
:1006B00001000B99AFF3008059E007E023461022B8
:1006C0006FF001000B99FFF785FD50E04FF0000936
:1006D0004F464B46632802D05B2806D040E0E80630
:1006E00001D40120A06001273AE06269012101984C
:1006F00090475E2805D14FF001096269494601988B
:100700009047216939B900210A46534643F8212010
:10071000491C0829FADBB0B3216969B9C11700EB9C
:10072000D16253110AEB830122F01F02821A0120C9
:100730000B68904003430B60626901210198904768
:100740005D28E8D1B9F1000F09D00020514651F8D9
:100750002020D24341F82020401C0828F7DB02ABC0
:10076000224600976FF001000B99AFF3008000283C
:100770000CDA401C08D1BBF1000F05D04FF0FF3060
:100780000DB0BDE8F08FFFE74046F9E7E90701D17A
:1007900008F1010806444FF0000B79E6CCCCCC0CF4
:1007A0007F2801D9002208E0064A02EB5002C00768
:1007B000127800D1120902F00F0201209040084087
:1007C000704700007A68000800BFFEE7002001497A
:1007D00008707047890000200020014908707047A8
:1007E0008800002010B540F2066004F0DBFF40F204
:1007F000046004F0D7FF4FF4C06004F0D3FF082377
:1008000003224821374804F0B7FB10230322482174
:10081000344804F0B1FB202303224821314804F07E
:10082000ABFB4FF40053032248212F4804F0A4FBF4
:100830004FF40073032248212B4804F09DFB032151
:10084000042004F04DFB0421084604F049FB052177
:10085000042004F045FB0D21022004F041FB092196
:10086000022004F03DFB01220021082004F09EFA42
:1008700001220021102004F099FA012200212020F9
:1008800004F094FA01220021500304F08FFA0122AF
:100890000021500204F08AFA082004F0F3FA102034
:1008A00004F0F0FA202004F0EDFA4FF4005004F0C8
:1008B000E9FA4FF4007004F0E5FA0222114609202B
:1008C00004F05EFD022211460A2004F059FD0222C6
:1008D0001146282004F054FD02221146172004F08E
:1008E0004FFD10BD001801400010014010B540F24E
:1008F000026004F057FF40F2046004F053FF4FF42D
:100900008073032210210E4804F036FB4FF48071EF
:100910000B4804F0DBFA402303221021094804F0BD
:100920002BFB4021074804F0D1FA80230322102139
:10093000044804F021FB8021024804F0C7FA10BDEE
:10094000000801400010014010B54FF4A06004F011
:1009500079FD10BD10B504F051FE102004F08AFEA0
:10096000102004F097FE0446012C26D104F090FAE2
:10097000002004F073FD002004F088FDA00204F0C4
:1009800079FD002004F04EFF002004F057FF4FF4E3
:100990005011200404F036FF182004F06BFE00BF55
:1009A000192004F055FE0028FAD0022004F056FF6A
:1009B00000BF04F05FFF0028FBD010BD7FB50446E8
:1009C0000D4640F2017004F0EDFE0F4805F066FAA6
:1009D000684605F036FBADF800500020ADF8040085
:1009E0000294ADF806006946074805F0CBFA0121EC
:1009F000054805F013FB002201211D2004F0C0FC76
:100A0000014805F0B9FA7FBD000400407FB50446F7
:100A10000D4640F2037004F0C5FE0F4805F03EFAA3
:100A2000684605F00EFBADF800500020ADF804005C
:100A30000294ADF806006946074805F0A3FA0121C3
:100A4000054805F0EBFA00220121322004F098FC61
:100A5000014805F091FA7FBD000C004010B5044636
:100A600040F2026004F09EFE40F20E6004F09AFE36
:100A70004FF40073032218211D4804F07DFA4FF44F
:100A80008063032204211A4804F076FA194805F01D
:100A900035FB2146174805F0DFFA0021154805F01F
:100AA000DCFB0021134805F0E8FB0021114805F0AC
:100AB000C4FB04210F4805F0C8FB08210D4805F0D0
:100AC000D4FB40F205310B4805F081FB40F20731C1
:100AD000084805F07CFB074805F058FB002202217E
:100AE000252004F04DFC00200349087010BD0000D3
:100AF0000008014000380140A400002010B5044661
:100B000040F2026004F04EFE40F2117004F04AFE22
:100B10000423032218211B4804F02EFA0823032281
:100B20000421184804F028FA174805F0E7FA21468E
:100B3000154805F091FA0021134805F08EFB0021BD
:100B4000114805F09AFB00210F4805F076FB0421BF
:100B50000D4805F07AFB08210B4805F086FB40F2B2
:100B60000531094805F033FB4FF4A061064805F054
:100B70002EFB00221146262004F002FC024805F05C
:100B800005FB10BD000801400044004030B503469D
:100B9000002016E0B3F900509C68645D0C541C887A
:100BA000641C24B21C80B3F90040B3F90450AC4279
:100BB00001DB00241C80441C20B2DC88641E24B2AB
:100BC000DC80B3F90640002C01DD9042E2DB30BD51
:100BD0007047000001B504490098086000BF024852
:100BE00000680028FBD108BDAC00002010B54FF410
:100BF000005004F0CFF868B14FF4005004F042F90F
:100C00004FF4005004F02EF901200D49C870002067
:100C10000C49C8704FF4806004F034F94FF4006060
:100C200004F030F94FF4805004F02CF94FF4804078
:100C300004F028F94FF4004004F024F910BD00003E
:100C4000140000201900002010B5082004F0A2F8BC
:100C500058B1082004F016F9082004F003F9012027
:100C60000249087000200249087010BD14000020DD
:100C70001900002010B5102004F08CF858B1102095
:100C800004F000F9102004F0EDF80120024948704A
:100C900000200249487010BD1400002019000020F7
:100CA00010B5202004F076F858B1202004F0EAF8BE
:100CB000202004F0D7F8012014498870002014493E
:100CC00088704FF4007004F065F868B14FF400705C
:100CD00004F0D8F84FF4007004F0C4F801200B4978
:100CE000087100200A490871202004F0CBF8402048
:100CF00004F0C8F8802004F0C5F84FF4807004F0C8
:100D0000C1F84FF4007004F0BDF810BD14000020CD
:100D10001900002070B50346002016E00C5CB3F902
:100D200002609D68AC555C88641C24B25C80B3F999
:100D30000240B3F90450AC4201DB00245C80441C47
:100D400020B2DC88641C24B2DC80B3F90640B3F91D
:100D50000450AC4201DA9042E0DB70BD01480078FB
:100D600070470000890000200148007870470000AB
:100D70008800002000BFFEE710B501F055FA00F032
:100D80004AF800F031F84FF4E13000F089F800F053
:100D90007BF800F025F800F043F84FF4E13000F064
:100DA00087F800F009F800F023F800F037FB02F0B4
:100DB000EBFB01F0B7F810BD10B5FFF713FD0024F1
:100DC00006E000200449085504490855601CC4B2D7
:100DD000052CF6DB10BD00001400002019000020D7
:100DE00010B5FFF783FD10BD10B5FFF7ADFD10BDC9
:100DF000704730B50B460024048044808280C48054
:100E00008360002104E0002485686C544C1C21B2EE
:100E10009142F8DB30BD10B5FFF79CFD10BD704767
:100E200030B5164800684FF47A72B0FBF2F1481EF4
:100E3000B0F1807F01D301201BE0481E4FF0E0227B
:100E4000506150170F22002807DA13071D0E0C4BB4
:100E500000F00F04241F1D5503E013071C0E094B5F
:100E60001C5400BF00204FF0E02290610720106169
:100E7000002008B100BFFEE730BD0000A800002040
:100E800018ED00E000E400E010B5772140F2E73013
:100E9000FFF794FD772140F2E730FFF7B7FD10BD73
:100EA00010B5044600F022F82046FFF7D7FD10BD2C
:100EB00010B5044600F004F82046FFF71FFE10BDF1
:100EC00010B5002404E0002006490855601C84B2D7
:100ED000B4F5006FF7DB4FF4006202490248FFF7F8
:100EE00088FF10BD081A0020FC19002010B500244E
:100EF00006E000200949085509490855601C04B25C
:100F0000642CF6DB642205490648FFF772FF642271
:100F100003490548FFF76DFF10BD00008022002047
:100F2000E4220020682200207422002010B504462C
:100F3000052C33D2DFE804F0030C151E280008212D
:100F4000174804F077F808B9012010BD0020FCE72D
:100F50001021134804F06EF808B90120F5E70020CD
:100F6000F3E720210E4804F065F808B90120ECE70A
:100F70000020EAE74FF400510A4804F05BF808B992
:100F80000120E2E70020E0E74FF40071054804F09B
:100F900051F808B90120D8E70020D6E70020D4E7AF
:100FA000001801400010014010B50024C4E064485E
:100FB000005D58B92046FFF7B9FF002805D0012091
:100FC0005F49085500205F490855B3E05C48005D63
:100FD00001286DD12046FFF7A9FF002845D05948C8
:100FE000005D401C574908550846005D0528ECDBAC
:100FF0004CB900F0D1FD54480068401C52490860CB
:1010000000F01EFF2AE0012C09D100F0D7FD4F4867
:101010000068401C4D49086000F02AFF1EE0022CC9
:1010200009D100F0DBFD4A480068401C48490860CF
:1010300000F016FF12E0032C07D146480068401C60
:101040004449086000F018FF08E0042C06D142482B
:101050000068401C4049086000F006FF0220384943
:10106000085500203749085564E0002035490855E7
:10107000334908551CB9082003F0FCFE5AE0012C46
:1010800003D1102003F0F6FE54E0022C03D12020FF
:1010900003F0F0FE4EE0032C04D14FF4005003F0B7
:1010A000E9FE47E0042C45D1E00103F0E3FE41E016
:1010B0002348005D02283DD12046FFF737FFA8BB3B
:1010C0002048005D401C1F4908550846005D052862
:1010D00030DB2CB900F0D4FE082003F0CBFE1FE07B
:1010E000012C05D100F0CFFE102003F0C3FE17E065
:1010F000022C05D100F0C5FE202003F0BBFE0FE05E
:10110000032C06D100F0C0FE4FF4005003F0B2FEF5
:1011100006E0042C04D100F0B5FEE00103F0AAFEC5
:101120000020074908550749085503E0FFE700205C
:1011300004490855601CC4B2052CFFF638AF10BD39
:1011400014000020190000200000002004000020EE
:10115000080000200C0000201000002070B505469B
:1011600000240A4800880949498800FB01F600214B
:10117000084600F0B7FB00F0DFFC00BF03E02846A4
:1011800000F0D4FC641CB442F9D370BDB000002060
:101190001F498871898845F21052914210D138B99F
:1011A0004FF4F0711A4A11804FF4487151802EE0CB
:1011B0004FF44871164A11804FF4F071518026E0C7
:1011C0001349898845F21032914210D138B94FF451
:1011D000A0710F4A11804FF4F071518017E04FF465
:1011E000F0710B4A11804FF4A07151800FE038B9B3
:1011F0004FF4A071064A11804FF4F071518006E05F
:101200004FF4F071024A11804FF4A0715180704781
:10121000B00000202DE9FF4F85B081468A460020AE
:10122000049003900798A0EB09040898A0EB0A0526
:10123000CDF80890CDF804A0002C01DD012705E0D1
:101240000CB9002702E04FF0FF376442002D02DDA9
:101250004FF0010806E015B94FF0000802E04FF02A
:10126000FF386D42AC4201DD204600E028460646CC
:101270004FF0000B21E0019A91B2029A90B200F077
:1012800023F8049820440490039828440390049879
:10129000B04205DD0498801B049002983844029007
:1012A0000398B04205DD0398801B039001984044E9
:1012B00001900BF101001FFA80FB701C8345DADD01
:1012C00009B0BDE8F08F000070B504460D46294610
:1012D000204600F007FB00F02FFC0248008800F0D9
:1012E00025FC70BD1E0000202DE9F04104460D468E
:1012F00016461F462B46324629462046FFF78AFFF0
:101300003B46224629462046FFF784FF3B463246AD
:1013100039462046FFF77EFF3B4632462946304697
:10132000FFF778FFBDE8F08170B505460E4614461C
:101330003146284600F0D6FA00F0FEFB204600F0C9
:10134000F5FB70BD2DE9F05F05460E461746984641
:10135000DDF828A0781B401C1FFA80FB344613E000
:101360002146284600F0BEFA00F0E6FB4FF00009E7
:1013700006E0504600F0DAFB09F101001FFA80F99F
:10138000D945F6DB601C84B24445E9DDBDE8F09F39
:1013900010B540F2026004F005FA40F2036004F078
:1013A00001FA40F2056004F0FDF940F2066004F035
:1013B000F9F94FF4805303221021144803F0DCFDA7
:1013C000012303221021124803F0D6FD4CF6B3731B
:1013D000032210210F4803F0CFFD4FF68073032244
:1013E00010210D4803F0C8FD80210A4803F070FD6C
:1013F0004FF40061074803F06BFD2021054803F01E
:1014000067FD1021034803F063FD10BD0008014093
:10141000000C0140001401400018014010B5FFF716
:10142000B7FF4FF480519B4803F052FD0A20FFF7AD
:10143000D1FB4FF48051974803F048FD3220FFF76D
:10144000C9FB4FF48051934803F042FDC820FFF7D9
:10145000C1FBD32000F082FB00F096F98E49888012
:1014600000F092F98C49888000F08EF98A498880D2
:10147000084680884FF6FF7101EA0020864988807F
:1014800000F082F9844989880843834988800846A6
:10149000818882A003F014FA7F48808845F21051B9
:1014A000884210D14FF430507B4908814FF42850C6
:1014B00048814FF42C5088814FF4487008804FF4D5
:1014C000F0704880D0E07448808845F2103188423E
:1014D0000DD12C20704908812A2048812B20888139
:1014E0004FF4A07008804FF4F0704880BCE02C20CE
:1014F000694908812A2048812B2088814FF4A070F7
:1015000008804FF4F07048800846808847F289715F
:1015100088423ED10021112000F016FB7820FFF711
:1015200059FB05213A2000F00FFB0C21B22000F0FE
:101530000BFB0C21B22000F007FB0021B72000F0CC
:1015400003FB3D21BB2000F0FFFA2C21C02000F05E
:10155000FBFA0121C22000F0F7FA1321C32000F0AA
:10156000F3FA2021C42000F0EFFA0F21C62000F08A
:10157000EBFAA421D02000F0E7FAA121D02000F05E
:10158000E3FA0021292000F0DFFA7820FFF722FBA0
:101590006AE04148808847F29671884256D100211E
:1015A000112000F0D1FA7820FFF714FB0821362033
:1015B00000F0CAFA05213A2000F0C6FA0021B12055
:1015C00000F0C2FA1821B12000F0BEFA0021B320C9
:1015D00000F0BAFA0221B32000F0B6FA0321B320DA
:1015E00000F0B2FA0821B32000F0AEFA0121B420D5
:1015F00000F0AAFA0221C02000F0A6FA0221C120C0
:1016000000F0A2FA3221C52000F09EFA3221C72054
:1016100000F09AFA0821362000F096FA00213720CF
:1016200000F092FA0021382000F08EFA00213920D3
:1016300000F08AFA0021212000F086FA00212920FA
:1016400000F082FA7820FFF7C5FA0DE000211120A2
:1016500000F07AFA7820FFF7BDFA0021292000F087
:1016600073FA7820FFF7B6FA0020FFF791FD022009
:1016700000F0B8F801210F4803F02AFC0020FFF722
:101680006DFD05484388028881880BA003F018F996
:1016900010BD000000080140B00000205B4C434436
:1016A0005D20526561642049443A20307825303409
:1016B000580D0A00000C01405B4C43445D20496E0C
:1016C000697420446F6E652C2049443A2030782597
:1016D0003034582C2057696474683A2025642C20D3
:1016E0004865696768743A2025640D0A00000000A7
:1016F00070B500254CF2037303220421204803F047
:101700003BFC4FF68073032204211E4803F034FC97
:101710001B4803F097FC0446A00B04F0030140EAC9
:10172000810004F4807140EA411004F4007140EA41
:10173000411004F4806140EA41100543114803F070
:1017400081FC0646F02000EAE6004FF4706101EAF1
:10175000E60108434FF4805101EAE60108430543DE
:101760004CF2037303221021054803F005FC4FF6E9
:10177000807303221021034803F0FEFB284670BD4E
:1017800000140140001801401CB5002001904FF4E6
:101790000061134803F09CFB8021114803F096FB85
:1017A00010210F4803F092FB0020009005E000BFDD
:1017B0009DF80000401CC0B200909DF800000A286F
:1017C000F5DBFFF795FF01901021054803F080FB42
:1017D0008021034803F07CFBBDF804001CBD000021
:1017E000001401402DE9F0410546002400273C4843
:1017F0008079012818D1082D15D2DFE805F00406FC
:10180000080A0C0E101206250DE007250BE0042532
:1018100009E0052507E0012505E0002503E0032593
:1018200001E0022500BF00BF082D1CD2DFE805F053
:101830000406090C0F12151800BF14E044F08004D0
:1018400011E044F040040EE044F0C0040BE044F02A
:10185000200408E044F0600405E044F0A00402E045
:1018600044F0E00400BF00BF1D48808845F21051DD
:10187000884202D14FF4585700E036271848808834
:1018800047F29671884205D01548808847F28971E1
:10189000884201D124F008042146384600F054F96A
:1018A00004F0200068B10E4800880D49498888423C
:1018B00014DA0B48068840880949088008464680A3
:1018C0000CE00748008806494988884206DD04483C
:1018D000068840880249088008464680BDE8F081B5
:1018E000B000002070B504460D461E48808845F2C1
:1018F0001051884220D11B49488900F02FF920124D
:1019000000F0F6F817494989491C88B200F026F919
:10191000E0B200F0EDF81349888900F01FF92812B1
:1019200000F0E6F80F498989491C88B200F016F9E1
:10193000E8B200F0DDF813E00A49488900F00EF93A
:10194000201200F0D5F8E0B200F0D2F805498889FD
:1019500000F004F9281200F0CBF8E8B200F0C8F863
:1019600070BD0000B00000202DE9F05F80460C46FD
:1019700016461F46A346A6F12000C6B2102F3DD141
:10198000002539E01E4800EB061010F805904FF0D6
:10199000000A2BE009F0800030B11A480288214685
:1019A0004046FFF7C1FC07E00A9828B916480288AC
:1019B00021464046FFF7B8FC4FEA49604FEA1069FC
:1019C000601C84B211484088A04201DCBDE8F09F51
:1019D000A4EB0B00B84205D15C4608F101001FFAE8
:1019E00080F806E00AF1010000F0FF0ABAF1080FE2
:1019F000D0DB00BF681CC5B2102DC3DB00BFE5E71C
:101A00008A6200081E00002020000020B000002094
:101A10002DE9F84F04460D4690469946DDE90A67E0
:101A200004F0FF0A08EB04001FFA80F809EB050038
:101A30001FFA80F916E0444502DB5446A81985B226
:101A40004D4500DB14E0002000903A7833462946EB
:101A50002046FFF789FF304606EBD07104EB6101A9
:101A60008CB27F1C38787E2802DC38782028E2DAB5
:101A700000BFBDE8F88F000070B504461A4803F0B7
:101A8000EDFA06464CF20370864304F00300C4F3FB
:101A9000810141EA803004F4005140EA611004F40D
:101AA000804140EA611004F4004140EA61100643BD
:101AB00031460D4803F0D6FA0C4803F0CFFA05463C
:101AC0004FF68070854304F0F000C00004F47061AC
:101AD00040EAC10004F4805140EAC10005432946B0
:101AE000024803F0BFFA70BD001401400018014025
:101AF00010B504464FF400610B4803F0E9F980216A
:101B0000094803F0E3F92046FFF7B6FF2021064815
:101B100003F0DCF92021044803F0DAF980210248BF
:101B200003F0D6F910BD00000014014010B50446C2
:101B30002046FFF7DDFF10BD10B50249088900F00F
:101B40000DF810BDB000002070B505460C462846C3
:101B500000F004F82046FFF7CBFF70BD10B5044637
:101B60004FF400610B4803F0B1F98021094803F0FC
:101B7000ADF92046FFF780FF2021064803F0A6F9C3
:101B80002021044803F0A4F98021024803F0A0F9C1
:101B900010BD00000014014010B54FF480710648DC
:101BA00003F054FA0446C4F10100C2B24FF480714C
:101BB000014803F08FF910BD0008014010B5402125
:101BC000054803F043FA0446C4F10100C2B24021C3
:101BD000014803F07FF910BD0010014010B58021CD
:101BE000054803F033FA0446C4F10100C2B2802173
:101BF000014803F06FF910BD0010014000BFFEE77F
:101C00007047000000F01F0201219140024A430981
:101C100042F823107047000080E200E010B588B061
:101C200004460020079006900590049003906E48AB
:101C3000007830B101286CD0022875D0032874D107
:101C400098E0AA2C03D101206749087060E00A2CB3
:101C500050D100216548664A1278815406AB07AA24
:101C600064A1FEF79BFA02280CD16449079808701A
:101C70006349069808706348007840F001006149A4
:101C8000087033E005AA60A15848FEF787FA0128DA
:101C900009D15F49059808705A48007840F0020061
:101CA0005849087022E003AA04A9504800F068FBD4
:101CB000E0B101AB02AABDF80C10BDF8100000F0B5
:101CC00057FABDF80C0053490880BDF8040052498A
:101CD00008804C48007840F004004A490870BDF87C
:101CE0000410BDF8080000F017FB00BF00204049B9
:101CF00008700DE00D2C0BD03D4800781E2807DA47
:101D00003B4801780078401C394A107037484454E9
:101D100066E0062C0AD14148047000204049087052
:101D200002203149087012E012E055E0AA2C03D1DC
:101D300001202D4908700AE03A49AA2003F08CFBE3
:101D40003849204603F088FB00202749087047E007
:101D5000334801780078401C314A107032484454AE
:101D6000104600782D490978884202DB03201E497D
:101D7000087035E0552C25D12B4800782B49087088
:101D80002948407848702848807888702648C0786C
:101D9000C8702548007988802348407988710120DF
:101DA000487223480A6802604A68426009890181D2
:101DB0001448007840F008001249087000200A49D1
:101DC000087008E0AA2C03D101200749087002E03E
:101DD00000200549087003E000200349087000BF97
:101DE00000BF08B010BD00009B000020462200206C
:101DF0009E000020502C25642C2564008E000020BD
:101E00008F00002096000020472C25640000000071
:101E10009000002092000020940000209D000020EF
:101E20009C000020A00000203C220020082200206E
:101E300012220020704710B5FFF7D0FE10BD000041
:101E400010B503A002F03CFD01F006FC10BD00003F
:101E50004C4C205055534820444F574E0D0A00001B
:101E600010B501F0A3FB10BD10B501F091FC10BD41
:101E700010B501F0B9FC10BD10B501F08BFC10BD20
:101E8000704770477047704770470146C88808B967
:101E9000012070470020FCE770B5044600250122B0
:101EA00021460348FEF772FEC5B2284670BD000009
:101EB0006822002070B504460D462A462146024895
:101EC000FEF764FEC0B270BDFC190020F0B50446F8
:101ED000DDE905561148007AF0B114B10F480078D9
:101EE000207011B10D484078087012B10B4880780D
:101EF000107013B10948C078187025B1074890EDEB
:101F0000010A85ED000A16B105480068306000201E
:101F1000024F38720120F0BD0020FCE7C8190020F4
:101F20007800002010B54FF448611B48FEF723F9F4
:101F30004FF448611948FEF71EF90020184908803F
:101F4000184908801849088018490870184908700D
:101F5000184908701849087018480021016041604C
:101F600001810020164908701649087016480021A2
:101F700001604160018115480160416001811448A0
:101F80000160416001810020124908601249086027
:101F90001249086010BD0000C8000020480D002054
:101FA00070000020720000207400002076000020E5
:101FB000770000207C0000207D000020D419002044
:101FC0007E0000207F000020DE190020E81900209C
:101FD000F2190020780000208000002084000020FA
:101FE000024908780021014A1170704777000020EB
:101FF0002DE9F04F8BB000200A90002400250590B9
:10200000834604905248007810B90BB0BDE8F08FB9
:1020100000204F4908704FF4FA724E4801884E482C
:1020200003F0CEFD18B101204C490870EDE70AAB72
:102030004FF4FA7247480188474803F023FC0646EC
:10204000002E77DDBDF82800002873DD06A807A95B
:1020500008AA09ABCDE90032CDE90210BDF828305D
:102060003C4802883C493E4803F052FDDDE9081037
:10207000A0EB010ADDE90821881800EBD0714F10B0
:10208000DDE90610A0EB0108DDE90621881800EB68
:10209000D0714FEA6109B8F1000F53DD002F51DD17
:1020A000B9F1000F4EDD0AFB09F04FF47A71484395
:1020B00008FB07F190FBF1F4B4F5C87F0EDB40F2AA
:1020C000DC5084420ADC04EBC40000EB04104FF443
:1020D0007A7190FBF1F0C0F16E0500E00025642DEF
:1020E00000DD6425462D01DA05B14625E8B20590EC
:1020F000642008FB00F090FBF9F000F0FF0B642077
:102100000AFB00F090FBF7F0C0B20490BBF1630F44
:1021100001DD4FF0630B0498632801DD6320049018
:10212000A0B200905A463146DDE9043003F0B6FD16
:1021300008E0FFE700200B49087048700A49087062
:102140000A49087001200749087200BF5DE70000D6
:102150007600002070000020480D0020770000204D
:10216000C8000020C81900207E0000207D0000204B
:102170002DE9FC4106460F4614461D466B4601AA52
:102180003946304603F05AFD0CB1019820800DB15C
:10219000009828801B491C4A1288019841F82200A7
:1021A0001A49194A1288009841F8220016480088F6
:1021B000401C4FF4487190FBF1F201FB12001249F0
:1021C000088013480088B0F5487F04DA104800887A
:1021D000401C0F4908800F480088401C0D490880AA
:1021E0000B480088B0F5FA7F0ADB08460088B0F596
:1021F000FA7F05DB012008490870002005490880A6
:10220000BDE8FC81C800002070000020480D0020BF
:10221000720000207400002076000020704710B586
:1022200000F06EF810BD000010B51048006840F4D2
:1022300070000E4908600E48006840F001000C492B
:10224000086000204860C8620846006809490840E4
:10225000074908604FF41F0088600846006820F4B2
:102260008020086003F016FE10BD000088ED00E03D
:1022700000100240FFFFF6FE10B501210B4803F0ED
:10228000D4FE012803D10121084803F0CBFE084801
:102290000088401C0649088008460088022804DBA4
:1022A0000020088001200349087010BD0004004090
:1022B0008A0000208800002010B501210D4803F09D
:1022C000B4FE012803D101210A4803F0ABFE0A48FD
:1022D0000088401C00B2084908800846B0F9000098
:1022E000B0F57A7F04DB00200880012003490870E4
:1022F00010BD0000000C00408C0000208900002070
:102300000448006820B103480068401E0149086085
:1023100070470000AC00002070B504460D462A4608
:10232000214602A002F0CCFA70BD000025752C25D4
:10233000750D0A00014800787047000099000020E0
:102340000C490D4A127888540B490978491C0A4AED
:10235000117011460978202901DB0021117007490D
:102360000978202904DA05490978491C034A1170C3
:10237000704700001C2200209700002098000020D9
:102380002DE9F04704460E4617464FF00008C146B7
:102390000CB106B117B90020BDE8F0872046FDF763
:1023A000F5FE092801D00020F6E720792C2801D07D
:1023B0000020F1E7002520E0605D302802DB605D51
:1023C000392801DD0020E7E7681D205C302803DBA9
:1023D000681D205C392801DD0020DDE7605D3038B4
:1023E00008EB880100EB4108681D205C303809EBE0
:1023F000890100EB4109681CC5B2042DDCDBB8F58E
:10240000805F02D2B9F5805F01D30020C4E7A6F84F
:102410000080A7F800900120BEE7000038B54FF417
:10242000007403E09DF80000FFF7F8FB0121684607
:10243000FFF740FD18B1201EA4F10104F2D10548B8
:10244000007828B100200349087003A002F038FA90
:1024500038BD00009A000020554152545F52585F29
:102460004F564552464C4F570D0A00007CB5054665
:102470000E46AB208DF8000002208DF801008DF88B
:1024800002508DF8036055208DF8040000240DE003
:102490001DF80410074803F02CFE00BF0721054873
:1024A00003F079FE0028F9D0601CC4B2052CEFDBE4
:1024B0007CBD00000044004008B1012100E0002183
:1024C000014A117070470000990000200246174829
:1024D0000088174B93F90030184400B2134B188052
:1024E0001846B0F90000142804DD14201880FF20DD
:1024F0000F4B18700D48B0F9000010F1140F06DAF8
:102500006FF01300094B18800120094B1870074821
:10251000B0F900001118002900DA0021B1F5805F40
:1025200001DB40F6FF7188B27047000042000020D6
:102530004400002010B502461048008880EAC01010
:102540000E4C20802046008880EA602020802046B3
:10255000008880EA002020802046007800F00F00EC
:10256000A0F10803D118002900DA0021B1F5805F3D
:1025700001DB40F6FF7188B210BD0000460000206C
:102580000EB500F0BFFD40F641002049088020A0B4
:1025900000F026FB4FF6FF7020A140F25D52B423FD
:1025A000CDE900210290F0226421282000F000FDF6
:1025B00001F0FEF94FF4FC601C4908801CA01021BA
:1025C0000B46B422CDE90010E6214120FFF720FAA6
:1025D0004FF478401549088019A010210B46B42209
:1025E000CDE90010FA214120FFF712FA4BF6F7501F
:1025F0000E49088016A010210B46B422CDE9001028
:102600004FF4DC714620FFF703FA0EBD20000020D6
:10261000416C61726D20536574000000416C617201
:102620006D2050726F66696C650000001E0000200E
:102630004C4C3A2050726F66696C65202B0000008C
:10264000524C3A2050726F66696C65202D00000074
:102650005072657373204241434B20746F2045785C
:10266000697400000EB500F04DFD40F641002049B0
:10267000088020A000F0B4FA002021A14FF4784295
:102680009623CDE900210290C82278213C2000F059
:102690008FFC01F027FA4FF4FC601D4908801DA053
:1026A00010210B46C822CDE90010D2215520FFF79A
:1026B000AFF94FF47840164908801AA010210B4654
:1026C000C822CDE90010E6215520FFF7A1F94BF60D
:1026D000F7500F49088018A010210B46C822CDE9F9
:1026E00000104FF4DC714620FFF792F90EBD000098
:1026F000200000204175746F204C696768740000E9
:102700004C6967687420537769746368000000003F
:102710001E00002055503A20456E61626C652028ED
:102720004F4E2900444E3A2044697361626C65281B
:102730004F464629000000005072657373204241E5
:10274000434B20746F204578697400002DE9FC47E5
:1027500004460D4616461F46DDE90B9ADDF8288033
:1027600041F2A2000090E81983B2A01982B2294672
:102770002046FEF7E7FD46F66D3029490880E81946
:1027800083B2A01982B229462046FEF7ADFD244847
:10279000A0F8008005EB070CACF1010C1FFA8CF3DC
:1027A00004EB060CACF1010C1FFA8CF205F1010CE4
:1027B0001FFA8CF104F1010C1FFA8CF0FEF794FD66
:1027C00005F1120C1FFA8CF304EB060CACF1020CB1
:1027D0001FFA8CF205F1020C1FFA8CF104F1020CC5
:1027E0001FFA8CF0CDF80080FEF7ACFD0C48A0F885
:1027F00000900C48A0F800801020A6F10C039AB2BB
:102800002B1D99B204F10803CDE9000A98B21023F8
:10281000FFF7FEF840F6410002490880BDE8FC875A
:102820001E000020200000200EB500F06BFC40F6DA
:1028300041002149088021A000F0D2F94FF6FF7035
:1028400021A140F25D52C823CDE9002102904FF44E
:10285000827250211E2000F0ABFB01F0F5FA4FF41C
:10286000FC601C4908801CA010210B46B422CDE955
:102870000010F0213720FFF7CBF84FF478401549CE
:10288000088019A010210B46B422CDE900104FF4A6
:1028900082713720FFF7BCF84BF6F7500D490880DE
:1028A00015A010210B46B422CDE900104FF4DC71C5
:1028B0004620FFF7ADF80EBD200000204461746192
:1028C0002052657669657700526576696577205094
:1028D000616765001E0000204C4C3A20506167651E
:1028E000204E657874000000524C3A2050616765B4
:1028F000205072657600000050726573732042416B
:10290000434B20746F204578697400000EB500F0C9
:10291000F9FB40F641002049088020A000F060F952
:102920004FF6FF7020A140F25D529623CDE90021C1
:102930000290C82278213C2000F03AFB01F06AFBAB
:102940004FF4FC601C4908801CA010210B46B422E7
:10295000CDE90010D2215520FFF75AF84FF4784006
:102960001549088018A010210B46B422CDE90010AB
:10297000E6215520FFF74CF84BF6F7500E4908803A
:1029800014A010210B46B422CDE900104FF4DC71E5
:102990004620FFF73DF80EBD200000204574434F50
:1029A00032205365740000004574434F3220537742
:1029B00069746368000000001E0000204C4C3A203F
:1029C000456E61626C650000524C3A204469736147
:1029D000626C65005072657373204241434B2074F2
:1029E0006F204578697400001CB500F08BFB40F641
:1029F00041002649088026A000F0F2F800204FF49C
:102A0000EB734FF49B72822100900A20FEF79AFC30
:102A100046F66D30214908804FF4EB734FF49B72FA
:102A200082210A20FEF760FC4BF6F7501B49088014
:102A30001BA010210B464FF48272CDE900103C21FF
:102A40001420FEF7E5FF1F201449088040F64100DE
:102A50000E4908801BA010210B46A022CDE90010D2
:102A600050211420FEF7D4FF4FF478400B49088022
:102A700019A010210B46A022CDE9001064211420DA
:102A8000FEF7C6FF01F028FE1CBD0000200000205C
:102A900046696C7465722044656D6F001E000020ED
:102AA0004C4C3A4E6F697365204F4E2F4F4646206F
:102AB00020524C3A4472696674204F4E2F4F46465E
:102AC00000000000426C75653A205261772028644E
:102AD000656D6F29000000005265643A2020466948
:102AE0006C746572656400000EB500F00BFB40F677
:102AF00041002449088024A000F072F8002025A19C
:102B00004FF478429623CDE900210290C822782123
:102B10003C2000F04DFA4FF6FF702249088040F645
:102B200041001849088001F0ADFA4FF4FC601D49DE
:102B300008801DA010210B46C822CDE90010D2212B
:102B40005520FEF765FF4FF47840164908801AA01B
:102B500010210B46C822CDE90010E6215520FEF7D2
:102B600057FF4BF6F7500F49088018A010210B466D
:102B7000C822CDE900104FF4DC714620FEF748FF73
:102B80000EBD00002000002046696C746572205361
:102B90006574000046696C746572205377697463CC
:102BA000680000001E00002055503A20456E61620A
:102BB0006C6520284F4E2900444E3A2044697361C9
:102BC000626C65284F46462900000000507265730C
:102BD00073204241434B20746F2045786974000094
:102BE0001CB5044641F6E300272340F23F120021C2
:102BF00000900846FEF7A6FB4FF6FF7017490880C5
:102C000041F6E300164908801020034678220C2183
:102C1000CDE900040846FEF7FBFE12A010210B468A
:102C20006C22CDE900100C21C820FEF7F1FE40F621
:102C300041000B49088040F25D5008490880282374
:102C400040F23F1219460020FEF7E4FA292340F231
:102C50003F1219460020FEF7DDFA1CBD1E000020C1
:102C60002000002049443A3031204F4E4C494E4517
:102C70000000000000B589B000F044FA40F64100C1
:102C80009149088091A0FFF7ABFF92A000214FF47B
:102C900078424623CDE9002102904FF4967232210A
:102CA0000A20FFF753FD8DA000214FF4FC6246235C
:102CB000CDE9002102904FF4967282210A20FFF79D
:102CC00045FD89A0002141F6E3024623CDE900211C
:102CD00002904FF49672D2210A20FFF737FD85A0AB
:102CE0004FF6FF7140F25D522823CDE9002102909A
:102CF0004FF496724FF491710A20FFF727FD7FA0E1
:102D00004FF6FF7140F25D528223CDE9002102901F
:102D10004FF496724FF4AA710A20FFF717FD4FF493
:102D200078407B49088041F2A200674908807948D1
:102D3000007820B978A104A801F0D2FD05E075481B
:102D4000027878A104A801F0CBFD04A810210B465D
:102D5000C822CDE900104E211820FEF759FE4FF48D
:102D6000FC606B49088041F2A2005749088069481D
:102D7000407820B96EA104A801F0B2FD05E06548D5
:102D800042786EA104A801F0ABFD04A810210B4607
:102D9000C822CDE900109E211820FEF739FE4FF61B
:102DA000E0705B49088041F2A20047490880594819
:102DB000807838B95748C07820B963A104A801F0D9
:102DC0008FFD06E053488378C27863A104A801F020
:102DD00087FD04A810210B46DC22CDE90010EE216E
:102DE0001820FEF715FE4FF6E0704949088041F2C1
:102DF000A20035490880474882885BA104A801F0F9
:102E00006FFD04A810210B465422CDE900104FF4A9
:102E10009B711820FEF7FCFD48F230403C490880C9
:102E200041F2A200284908803A48037AC27951A1A8
:102E300004A801F055FD04A810210B466022CDE93D
:102E400000104FF49B717820FEF7E2FD48F230400D
:102E50002F49088041F2A2001B4908802D48807943
:102E6000FF2804D148A104A801F03AFD05E0294853
:102E7000827948A104A801F033FD04A810210B4673
:102E80004022CDE900104FF49B71F020FEF7C0FD09
:102E90004FF478401E49088041F2A2000A49088098
:102EA0003FA010210B468C22CDE900104FF4AF71EA
:102EB0001820FEF7ADFD01F00FFC40F6410002497D
:102EC000088009B000BD0000200000204D6F6E6931
:102ED000746F720053504F320000000050756C73D5
:102EE0006520526174650000506572667573696F84
:102EF0006E0000005369676E616C000050756C7362
:102F000065205761766528302D3430393529000029
:102F10001E000020BE00002053504F323A202D2DBD
:102F20002020000053504F323A2025336420000007
:102F300050523A2020202D2D2020000050523A20BF
:102F40002025336420200000504920523A2D2D20A6
:102F5000493A2D2D20000000504920523A25326474
:102F600020493A2532642000523A2025642020204E
:102F70002000000050574D20523A256420493A2540
:102F800064202020000000004761696E3A202D2D4A
:102F9000202000004761696E3A202564202020002F
:102FA0004952202866696C746572656429000000C6
:102FB0002DE9FC4704460D4616461F46DDE90B9AEF
:102FC000DDF8288041F2A2000090E81983B2A01930
:102FD00082B229462046FEF7B5F92848A0F80080BD
:102FE000E81983B2A01982B229462046FEF77CF97F
:102FF00005EB070CACF1010C1FFA8CF304EB060C8B
:10300000ACF1010C1FFA8CF205F1010C1FFA8CF1E6
:1030100004F1010C1FFA8CF0FEF766F905F1180CAB
:103020001FFA8CF304EB060CACF1020C1FFA8CF2C5
:1030300005F1020C1FFA8CF104F1020C1FFA8CF05E
:10304000CDF80080FEF77EF90C48A0F800A00C48EF
:10305000A0F800801020A6F114039AB26B1D99B25B
:1030600004F10A03CDE9000998B21023FEF7D0FC61
:1030700040F6410002490880BDE8FC871E000020A0
:10308000200000200EB500F03DF840F64100124946
:10309000088012A0FFF7A4FD002012A14FF478428F
:1030A0009623CDE900210290DC2278213220FFF71F
:1030B0007FFF01F0CBF84BF6F7500C4908800CA0CD
:1030C00010210B46C822CDE900104FF4DC714620D8
:1030D000FEF79EFC0EBD0000200000205220436140
:1030E0006C696200522056616C7565001E000020FC
:1030F0005072657373204241434B20746F204578B2
:1031000069740000F8B500241CE0122094FBF0F074
:103110000C3085B23F2D00DD3F25142094FBF0F0EC
:10312000143086B21F2E00DD1F2646EA451087B2F6
:10313000234640F23F12214600200097FEF702F995
:10314000601C84B2B4F5F07FDFDBF8BD7CB50546CA
:103150000E4605EB85003C2101EBC004FEB142F2B6
:10316000B820009004F11A0083B2A01F81B240F28F
:1031700031120F20FEF7E6F84FF6FF703049088055
:1031800042F2B8202F49088004F11A0083B2A01F30
:1031900081B240F231120F20FEF7A6F822E041F290
:1031A000A200009004F11A0083B2A01F81B240F285
:1031B00031120F20FEF7C6F846F66D302049088020
:1031C00041F2A2001F49088004F11A0083B2A01F37
:1031D00081B240F231120F20FEF786F84FF6FF70F1
:1031E00017490880184850F8250010210B46C822BE
:1031F000CDE9001021461E20FEF70AFC5EB113A0A7
:1032000010210B461422CDE9001021464FF48C709A
:10321000FEF7FEFB12E046F66D300949088041F2E8
:10322000A200084908800AA010210B461422CDE90B
:10323000001021464FF48C70FEF7EAFB7CBD0000C5
:103240001E00002020000020480000203E0000005A
:10325000200000007CB517480588FFF753FF16A033
:10326000FFF7BEFC00240CE016480078844201D130
:10327000012000E0002001462046FFF767FF601CA8
:10328000C4B20A2CF0DB4BF6F7500F49088040F629
:103290004100084908800DA010210B464FF48C72A4
:1032A000CDE900104FF4DC711420FEF7B1FB0148AA
:1032B00005807CBD2000002053657474696E6773BF
:1032C000000000002D0000201E0000204C4C2F525A
:1032D0004C3A53656C204C483A456E7465722052E6
:1032E000483A4261636B00000EB5FFF70BFF40F6F2
:1032F00041002049088020A0FFF772FC002022A195
:103300004FF478429623CDE900210290C82278211B
:103310003C20FFF74DFE00F025FF4FF4FC601D49F7
:1033200008801DA010210B46A022CDE90010D2215B
:103330005520FEF76DFB4FF47840164908801AA01F
:1033400010210B46A022CDE90010E6215520FEF702
:103350005FFB4BF6F7500F49088017A010210B4672
:10336000C822CDE900104FF4DC714620FEF750FB77
:103370000EBD00002000002053704F3220476169CD
:103380006E205365740000004761696E204C6576BD
:10339000656C00001E00002055503A20496E637293
:1033A0006561736500000000444E3A204465637215
:1033B00065617365000000005072657373204241BF
:1033C000434B20746F204578697400000EB5FFF7F9
:1033D00099FE40F641002049088020A0FFF700FC3C
:1033E0004FF6FF7020A140F25D52B423CDE90021D9
:1033F0000290F02264212820FFF7DAFD00F068FF38
:103400004FF4FC601C4908801CA010210B46B4221C
:10341000CDE90010E6214120FEF7FAFA4FF478409A
:103420001549088019A010210B46B422CDE90010DF
:10343000FA214120FEF7ECFA4BF6F7500E490880CE
:1034400016A010210B46B422CDE900104FF4DC7118
:103450004620FEF7DDFA0EBD20000020537973747C
:10346000656D20536574000053797374656D204356
:103470006F6E6669670000001E0000204C4C3A2009
:103480004272696768746E6573732B00524C3A2000
:103490004272696768746E6573732D00507265734C
:1034A00073204241434B20746F20457869740000BB
:1034B0000EB5FFF727FE40F641002049088020A006
:1034C000FFF78EFB4FF6FF7020A140F25D5296236E
:1034D000CDE900210290C82264213C20FFF768FD5D
:1034E00000F08AFF4FF4FC601B4908801BA01021EC
:1034F0000B46B422CDE90010C3215520FEF788FA0F
:103500004FF478401449088017A010210B46B422CC
:10351000CDE90010D7215520FEF77AFA4BF6F75087
:103520000D49088013A010210B46B422CDE90010EC
:103530004FF4DC714620FEF76BFA0EBD2000002030
:10354000576F726B204D6F64650000004D6F6465AE
:103550002053656C656374001E0000204C4C3A20BB
:103560004D6F6E69746F7200524C3A2053657276DB
:10357000696365005072657373204241434B207448
:103580006F2045786974000010B540F64100FDF7E2
:10359000E5FD00200349087001200349087000F090
:1035A000C7F910BD2C0000202E00002010B52748C0
:1035B000007810B1012843D109E0012023490870A7
:1035C00000202349087001202249087039E0204872
:1035D00000780A282ED2DFE800F005090D11151930
:1035E0001D21252902201949087024E003201749CC
:1035F000087020E00420154908701CE005201349DC
:10360000087018E00B201149087014E006200F49DB
:10361000087010E007200D4908700CE008200B49E5
:10362000087008E009200949087004E00A200749E9
:10363000087000E000BF00BF01200649087000E0EC
:1036400000BF00BF00F074F910BD00002C00002086
:103650002D0000202E00002010B5424800780C28D4
:103660007DD2DFE800F07C0640461B277C365258AE
:103670006B2D3D48007800280FDD3B48047800782A
:10368000401E3949087000212046FFF75FFD0121E7
:1036900035480078FFF75AFD00BF61E000210220A5
:1036A000FEF7E4FE31488079401C3049887100F013
:1036B00059FD55E00120FEF7FFFE00F0E3FC4FE06E
:1036C0002B48007808B9012000E000202849087044
:1036D00046E001202749087001210520FEF7C6FEBB
:1036E00000F000FA3CE000202349087000F084FE5E
:1036F00036E022480078022804DA20480078401C8E
:103700001E49087000F054F92AE001201C49087095
:1037100000F080FC24E01B480078052804DA1948F2
:103720000078401C1749087016480078032802DB0F
:1037300001201549087000F0CBFD11E01348007816
:10374000022806DA11480078401C1049087003E08E
:1037500005E000200D49087000F076FB00E000BF96
:1037600000BF10BD2C0000202D000020BE00002056
:103770003F0000202F0000203000002031000020FA
:1037800032000020330000203400002035000020EB
:103790007047000010B5124800780C2818D2DFE8F6
:1037A00000F017060A0B0C0D0F101112130E00205B
:1037B0000B4908700DE000BF00BF00BF00BF00BF95
:1037C00000BF00BF00BF00BF01200549087000E036
:1037D00000BF00BF01200349087000F0A9F810BD28
:1037E0002C0000202E00002010B5444800780C2842
:1037F00070D2DFE800F08006444A1B2B803A565C0A
:1038000070313F48007809280FDA3D480478007885
:10381000401C3B49087000212046FFF797FC01211E
:1038200037480078FFF792FC00BF65E000210320D5
:10383000FEF71CFE33488079002804DD314880798A
:10384000401E3049887100F08DFC55E00020FEF7E5
:1038500033FE00F017FC4FE02B48007808B9012038
:1038600000E000202849087046E000202749087041
:1038700000210520FEF7FAFD00F034F93CE00120BC
:103880002349087000F0B8FD36E02248007800288F
:1038900004DD20480078401E1E49087000F088F8BA
:1038A0002AE000201C49087000F0B4FB24E01B480B
:1038B0000078012804DD19480078401E1749087077
:1038C00016480078032802DA00201549087000F035
:1038D000FFFC11E00FE013480078002805DD1148D7
:1038E0000078401E0F49087002E002200D49087060
:1038F00000F0AAFA00E000BF00BF10BD2C000020BD
:103900002D000020BE000020400000202F000020DD
:103910003000002031000020320000203300002061
:10392000340000203500002010B500F001F810BD73
:1039300010B51D48007800B910BD1C4800780C284F
:103940002BD2DFE800F006090C0F12151B1E2124F4
:103950002718FFF78FF921E0FFF77CFC1EE0FFF747
:10396000A7FD1BE0FEF70CFE18E0FFF7BDFC15E01D
:10397000FFF7BAF812E0FFF737F80FE0FFF782FB26
:103980000CE0FEF76FFE09E0FEF7C0FF06E0FFF770
:103990001DFD03E0FEF748FF00E000BF00BF002070
:1039A0000149087000BFC7E72E0000202C0000204E
:1039B00070B58AB03048007818B95A262D2482256F
:1039C0000AE02D480078012803D15C2632248C259A
:1039D00002E05E26372496254FF6FF7027490880BF
:1039E00040F64100264908802348007850B925A0B8
:1039F00010210B46B422CDE900108C214120FEF7A6
:103A000007F818E01C48007801280AD122A01021EC
:103A10000B46B422CDE900108C214120FDF7F8FFC0
:103A200009E022A010210B46B422CDE900108C2120
:103A30004120FDF7EDFF324621A102A800F050FF22
:103A400002A810210B46B422CDE90010A821412084
:103A5000FDF7DEFF2B4622461DA102A800F040FF25
:103A600002A810210B46B422CDE90010BE2141204E
:103A7000FDF7CEFF0AB070BD310000201E0000200F
:103A80002000002050726F66696C653A204C6F7799
:103A9000202020200000000050726F66696C653A9B
:103AA000204D656469756D200000000050726F66DE
:103AB000696C653A20486967682020200000000092
:103AC00053704F32204C6F773A202564202020001D
:103AD0004852204D696E2F4D61783A25642F256438
:103AE000000000001CB54FF6FF700F49088040F63B
:103AF00041000E4908800E48007850B10DA01021F9
:103B00000B46A022CDE90010AA215020FDF780FF2E
:103B100009E00CA010210B46A022CDE90010AA213B
:103B20005020FDF775FF1CBD1E0000202000002066
:103B30002F00002043757272656E743A204F4E203C
:103B40002000000043757272656E743A204F46463D
:103B50002000000030B587B004460CB907B030BD76
:103B6000E07928B99248C07910B19148C079E071E4
:103B7000207A28B98E48007A10B18D48007A2072D8
:103B8000A079FF2806D18A488079FF2802D088488A
:103B90008079A0718748007800287DD1002584486D
:103BA00000782178884200D00125814840786178EA
:103BB000884200D001257E488078A178884200D0D4
:103BC00001257B48C078E178884200D001257848FB
:103BD0008088A188884200D001257548C079E179A4
:103BE000884200D001257248007A217A884200D0AC
:103BF00001256F488079A179884200D001253DB91F
:103C00006B48216801606168416021890181A5E7F5
:103C10004FF478406849088041F2A2006749088063
:103C2000207820B966A102A800F05AFE04E02278AC
:103C300066A102A800F054FE02A810210B46C8227B
:103C4000CDE900104E211820FDF7E2FE4FF4FC6094
:103C50005949088041F2A20058490880607820B98B
:103C60005DA102A800F03CFE04E062785DA102A81C
:103C700000F036FE02A810210B46C822CDE9001044
:103C80009E211820FDF7C4FE4FF6E0704A490880D7
:103C900041F2A200494900E072E00880A07830B902
:103CA000E07820B952A102A800F01AFE05E0A3783E
:103CB000E27853A102A800F013FE02A810210B46DF
:103CC000DC22CDE90010EE211820FDF7A1FE4FF611
:103CD000E0703949088041F2A20038490880A28882
:103CE0004BA102A800F0FCFD02A810210B465422B3
:103CF000CDE900104FF49B711820FDF789FE48F2C2
:103D000030402D49088041F2A2002C490880237AD6
:103D1000E27942A102A800F0E3FD02A810210B46BF
:103D20006022CDE900104FF49B717820FDF770FE02
:103D300048F230402049088041F2A2001F49088023
:103D4000A079FF2804D13AA102A800F0C9FD04E03F
:103D5000A2793AA102A800F0C3FD02A810210B46E7
:103D60004022CDE900104FF49B71F020FDF750FE8A
:103D70000F4821680160616841602189018115E077
:103D80000B4821680160616841602189018109480F
:103D90000078062802D00A2806D102E000F056FA80
:103DA00003E000F051F800E000BF00BF00BFD5E61F
:103DB000BE0000202C0000201E000020200000205B
:103DC00053504F323A202D2D2020000053504F32B7
:103DD0003A2025336420000050523A2020202D2D17
:103DE0002020000050523A2020253364202000007B
:103DF000504920523A2D2D20493A2D2D2000000007
:103E0000504920523A25326420493A253264200034
:103E1000523A2025642020202000000050574D20D9
:103E2000523A256420493A256420202000000000F1
:103E30004761696E3A202D2D202000004761696E90
:103E40003A2025642020200000B58BB04FF6FF708B
:103E50004849088040F641004749088047480078B3
:103E600010B1012857D12AE045A010210B46B422F9
:103E7000CDE9001078213220FDF7CAFD44480278D0
:103E800044A103A800F02CFD03A810210B46B42286
:103E9000CDE9001094213220FDF7BAFD3C4842786C
:103EA00040A103A800F01CFD03A810210B46B4227A
:103EB000CDE90010AA213220FDF7AAFD57E03DA070
:103EC00010210B46B422CDE9001078213220FDF7F5
:103ED0009FFD2F488378C2783AA103A800F000FD27
:103EE00003A810210B46B422CDE900109421322002
:103EF000FDF78EFD2648828836A103A800F0F0FC6D
:103F000003A810210B46B422CDE90010AA213220CB
:103F1000FDF77EFD2BE033A010210B46B422CDE946
:103F2000001078213220FDF773FD1948037AC27919
:103F300030A103A800F0D4FC03A810210B46B42242
:103F4000CDE9001094213220FDF762FD10488279FE
:103F50002CA103A800F0C4FC03A810210B46B42236
:103F6000CDE90010AA213220FDF752FD00BF00BFAD
:103F70000BB000BD1E0000202000002035000020F6
:103F80005061676520313A2053504F322F50520014
:103F9000BE00002053504F323A20256420202020BC
:103FA0000000000050523A202564202020202020CC
:103FB000000000005061676520323A2050492F52BE
:103FC00000000000504920523A256420493A2564F7
:103FD00020202000523A202564202020202020206C
:103FE000202000005061676520333A2044726976D2
:103FF0006500000050574D20523A256420493A256B
:10400000642020004761696E3A202564202020202A
:10401000202020001CB54FF6FF700F49088040F6A5
:1040200041000E4908800E48007850B10DA01021C3
:104030000B46AA22CDE9001011465020FDF7E8FCFE
:1040400009E00CA010210B46AA22CDE90010114670
:104050005020FDF7DDFC1CBD1E00002020000020CC
:104060003200002043757272656E743A204F4E2004
:104070002020000043757272656E743A204F4646E8
:10408000202000001CB54FF6FF700F49088040F655
:1040900041000E490880FEF74DF950B10CA01021E7
:1040A0000B46A022CDE90010AA215020FDF7B0FC5C
:1040B00009E00BA010210B46A022CDE90010AA2197
:1040C0005020FDF7A5FC1CBD1E0000202000002094
:1040D00043757272656E743A204F4E2020000000C6
:1040E00043757272656E743A204F46462000000098
:1040F00010B588B00446144884711448007810B193
:1041000004281DD119E048F230401149088041F2DD
:10411000A200104908800C4882790FA103A800F082
:10412000DFFB03A810210B464022CDE900104FF41D
:104130009B71F020FDF76CFC03E000F013F800E049
:1041400000BF00BF08B010BDBE0000202C00002042
:104150001E000020200000204761696E3A2025647F
:104160002020200000B58BB04FF6FF700B4908806F
:1041700040F641000A4908800A4882790AA103A84A
:1041800000F0AEFB03A810210B46A022CDE90010E1
:10419000AA215020FDF73CFC0BB000BD1E00002002
:1041A00020000020BE00002043757272656E7420EE
:1041B0004C6576656C3A20256420202000000000C4
:1041C00030B587B004460D4614B90DB907B030BDFF
:1041D0001548C47105721548007810B106281ED123
:1041E0001AE048F230401249088041F2A200114919
:1041F00008800D48037AC2790FA102A800F070FB75
:1042000002A810210B466022CDE900104FF49B71EB
:104210007820FDF7FDFB03E000F018F800E000BF98
:1042200000BF00BFD2E70000BE0000202C0000202D
:104230001E0000202000002050574D20523A2564D7
:1042400020493A25642020200000000000B58BB0F2
:104250004FF6FF701449088040F64100134908806A
:104260001348828813A103A800F03AFB03A8102189
:104270000B467822CDE90010AA216420FDF7C8FB87
:104280000B48037AC2790EA103A800F029FB03A80A
:1042900010210B46A022CDE90010C3214620FDF7D6
:1042A000B7FB0BB000BD00001E0000202000002066
:1042B000BE000020523A202564202020200000006B
:1042C00050574D20523A256420493A256420000079
:1042D00000B58BB04FF6FF701749088040F64100DB
:1042E000164908801648027816A103A800F0F8FACB
:1042F00003A810210B46B422CDE90010A0214120D3
:10430000FDF786FB1448007850B114A010210B462D
:10431000B422CDE90010BC214120FDF779FB09E072
:1043200012A010210B46B422CDE90010BC2141207F
:10433000FDF76EFB0BB000BD1E000020200000202A
:10434000330000204272696768746E6573733A20A7
:104350002564202020000000340000204B657920D7
:10436000426565703A204F4E200000004B65792071
:10437000426565703A204F464600000070B504461D
:104380000D461948007818B1174800780B2828D135
:1043900016480078401C1549087008460078042823
:1043A00000DA70BD0020114908700F4800780B2812
:1043B00013D126460E48007818B13046FEF7BAF8F9
:1043C00006460C48007818B13046FEF77FF80646DE
:1043D0002946304600F088F803E02946204600F0E0
:1043E00083F800BFDDE700002C0000203E00002025
:1043F0003F000020400000201CB54FF6FF700F4921
:10440000088040F641000E4908800E48007850B9F7
:104410000DA010210B46AA22CDE9001096215020B4
:10442000FDF7F6FA09E00DA010210B46AA22CDE90E
:10443000001096215020FDF7EBFA1CBD1E00002055
:10444000200000203000002043757272656E743ABF
:10445000204D6F6E69746F72200000004375727298
:10446000656E743A205365727669636520000000BA
:1044700030B50146592318480088814201DA1648B0
:10448000018016480088814201DD144801801448EB
:104490000088814201DD124801881248008881426B
:1044A00001DA104801880E4800880E4C2488A0428A
:1044B00001D15A080AE00B480088081A5843084CF2
:1044C0002488084D2D88641BB0FBF4F203F5B97005
:1044D000801A80B230BD0000240000202600002099
:1044E0002A000020280000202DE9F84381460F46CD
:1044F0006F48007820B900F0EFF801206C4908708F
:104500006C48008800284CD16B4909886B4A128896
:10451000891A0A2291FBF2F188B20A2800DA0A20ED
:1045200066490988814205DD64490988091A644A97
:10453000118002E00021624A11805F49098801442C
:10454000604A118011460988B1F5805F02DB40F6B0
:10455000FF7111805B490988594A1288891A3229EA
:1045600017DA584B1B88DFF858C1BCF800C003EBC2
:104570000C0202EBD273C3F34F0101F11902514B4C
:104580001A80192901DD323A00E000224C4B1A80D2
:1045900000BF40F6FF71494A11800021464A118050
:1045A00000BF4846FFF764FF06463846FFF760FF46
:1045B000054640480088143084B23E480088E0B97F
:1045C000002040F2CB1340F22B124FF4B97100904F
:1045D0001420FCF7B7FE46F66D303B49088040F2E8
:1045E000CB1340F22B124FF4B9711420FCF77CFE70
:1045F00036480680364805804CE0601C1FFA80F87B
:10460000B8F5967F01DB40F22B18002040F2CB1367
:1046100042464FF4B97100902046FCF793FE46F6EF
:104620006D30294908804FF4B9712046FCF74CFEE3
:1046300040F2CB112046FCF747FE264800780B28B5
:1046400017D11F2020490880A11E88B23346224678
:104650001E490988FCF7DEFD4FF478401A490880AE
:10466000A11E88B22B46224619490988FCF7D2FDC3
:104670000BE04FF4784014490880A11E88B22B4605
:10468000224613490988FCF7C5FD104806801048EA
:10469000058000BF07480088801C0649088008463E
:1046A0000088B0F58C7F01DB00200880BDE8F8832E
:1046B00036000020380000202600002024000020C2
:1046C000280000202A0000201E0000203A000020C0
:1046D0003C0000202C00002008B50020194908707B
:1046E0001949088040F29F1018490880184908802D
:1046F00000201849087040F6FF7017490880002014
:10470000164908801649088040F6FF701549088050
:10471000002040F2CB1340F22B124FF4B9710090FD
:104720001420FCF70FFE46F66D300F49088040F26A
:10473000CB1340F22B124FF4B9711420FCF7D4FDC7
:1047400008BD000036000020380000203A0000209C
:104750003C0000203E000020240000202600002015
:10476000280000202A0000201E00002008B500209C
:1047700000901F491F4801F044FD78B11C491D48B5
:1047800001F032FD2520FDF73DFA1A4801F0ACFC9E
:10479000C0B200909DF8000000F07CF81649154862
:1047A00001F02FFD012806D11349124801F01CFD2C
:1047B000104801F099FC11490E4801F022FDB0B1FA
:1047C0002520FDF71FFA6846FDF766FB9DF80010EF
:1047D000084801F08EFC0A48FDF757FB38B100206D
:1047E0000849087040F20731024801F0E3FC08BDB7
:1047F000050305000038014000050300070307001A
:1048000068220020A400002010B51B491B4801F0BD
:10481000F8FC90B1194801F067FCC4B2204600F0E2
:1048200045F810B90120164908702046FDF788FDAB
:104830001149124801F0D8FC00BF12490F4801F09D
:10484000E0FC30B10D4801F04FFC0E490B4801F07F
:10485000CBFC0D49094801F0D4FC18B10A490748BE
:1048600001F0C2FC0949054801F0CBFC18B1074929
:10487000024801F0B9FC10BD0503050000440040EA
:104880009A00002000050300000502000005010059
:1048900000BFFEE731B50024012269460248FCF75B
:1048A00039FAC4B2204638BD7422002001B5012275
:1048B00069460248FCF72EFAC0B208BDFC19002078
:1048C0000FB4054B10B503A9044A029800F02CF868
:1048D00010BC5DF814FB0000A94E0008A0000020E9
:1048E0000FB4084B10B504A902AA039800F01CF8F5
:1048F000044602A9002000F048FA204610BC5DF8EA
:1049000014FB00008B4D000802E008C8121F08C10C
:10491000002AFAD170477047002001E001C1121F40
:10492000002AFBD1704700002DE9FF4F8DB00F46E4
:104930000546002606E025280BD0DDE90F1290473A
:104940006D1C761C28780028F5D111B03046BDE8E2
:10495000F08F0024A246A1460122EC4900E0044366
:1049600015F8013F203B02FA03F00842F7D12878FE
:104970002A2810D06FF02F022878A0F130010929E1
:1049800014D80AEB8A0102EB410144F0020400EB67
:10499000010A6D1CF0E701CF5FEA000A03D544F479
:1049A0000054CAF1000A44F002046D1C28782E2835
:1049B00017D115F8010F44F004042A280ED06FF027
:1049C0002F022878A0F1300109290AD809EB8901C2
:1049D00002EB410100EB01096D1CF2E757F8049B63
:1049E0006D1C28786C280FD006DC4C2817D068285E
:1049F0000DD06A2814D104E0742810D07A280FD181
:104A00000DE044F400140AE044F4801401E044F49E
:104A100040146978814202D104F580146D1C6D1C2C
:104A20002A786E2A1FD00CDC632A31D004DC002ADD
:104A30008BD0582A11D1A3E0642A68D0692A0CD1FE
:104A400065E0732A2ED004DC6F2A73D0702A04D15B
:104A50009BE0752A6FD0782A6ED01046DDE90F12E0
:104A60009047761C50E1C4F30250022806D0032878
:104A700009D0042801CF09D0066045E101CFF11724
:104A8000C0E9006140E101CF06803DE106703BE1F5
:104A900017F8040B8DF8000000208DF80100EB469C
:104AA000012003E057F804BB4FF0FF3061074FF0DF
:104AB000000102D40DE008F10101884649450FDAF2
:104AC0008045F8DB1BF808100029F4D108E008F154
:104AD000010188468142FADB1BF808100029F6D153
:104AE000DDE90F23AAEB08008146214600F036F9E4
:104AF000304400EB080604E0DDE90F121BF8010B5F
:104B00009047B8F10108F7D221464846F7E00A215C
:104B1000C4F302534FF0000B0891022B04D001CFD5
:104B2000C117032B09D00AE0FF1D27F00707F7E89C
:104B3000020108E032E01FE020E000B2C117042BC0
:104B400001D140B2C117031E71F1000307DA4FF023
:104B5000000CD0EB0C006CEB01012D2302E02305CF
:104B600004D52B238DF82430012303E0E30701D083
:104B70002023F7E7984658E00A2110E010210EE0C4
:104B800010204FF0000B08900CE010214FF0000BAC
:104B900044F004044FF00809089103E008214FF0A5
:104BA000000B0891C4F30253022B04D001CF002163
:104BB000032B06D006E0FF1D27F00707F7E80201E8
:104BC00003E080B2042B00D1C0B24FF000082307ED
:104BD0002BD5702A07D0DDF820C08CF0100C5CEAD1
:104BE0000B0C05D00EE040238DF82430012308E0A3
:104BF00050EA010306D030238DF824308DF82520AB
:104C000002239846DDF820C08CF0080C5CEA0B0CFF
:104C10000BD150EA010301D1630706D530238DF88B
:104C200024304FF00108A9F10109582A04D038A214
:104C30000B9208AA0A920BE03AA2F9E75B46089A9F
:104C4000FBF76EFB0B9B9B5C0A9A521E0A92137039
:104C500050EA0102F2D10A98ADEB000000F1200BFE
:104C6000600702D524F4803401E04FF00109D945F2
:104C700002DDA9EB0B0000E0002000EB0B0141443A
:104C80000890AAEB010AE00306D4DDE90F232146D0
:104C9000504600F063F806444FF0000908E009A907
:104CA00011F80900DDE90F12904709F10109761C9E
:104CB000C145F4DBE0030CD5DDE90F232146504666
:104CC00000F04CF8064404E0DDE90F123020904774
:104CD000761C0899481E08900029F5DC08E00A981F
:104CE0000A990078491C0A91DDE90F129047761C59
:104CF000BBF10001ABF1010BF1DC21465046DDE9CF
:104D00000F2300F019F806446D1C1BE6092801006A
:104D10003031323334353637383961626364656631
:104D200000000000303132333435363738394142F3
:104D300043444546000000002DE9F04104460025AB
:104D40001E461746880404D405E039462020B047A3
:104D50006D1C641EF9D52846BDE8F0812DE9F041AF
:104D6000044600251E469046C80301D5302700E0C2
:104D70002027880404D505E041463846B0476D1C1D
:104D8000641EF9D52846BDE8F0810A68531C0B6003
:104D900010707047014604480068084008B10120BF
:104DA00070470020FCE700001404014010B52C4BB4
:104DB0001B6883432A4C2360231D1B688343241DE7
:104DC0002360231D1B688343241D2360231D1B6850
:104DD0008343241D236011B101290ED105E0204B2E
:104DE0001B6803431E4C236008E01D4B1B1D1B6802
:104DF00003431B4C241D236000E000BF00BF22B111
:104E0000012A0FD0022A27D119E0154B08331B685D
:104E10000343134C08342360231D1B688343241D64
:104E200023601AE00E4B08331B6883430C4C083494
:104E30002360231D1B680343241D23600DE0084BE2
:104E400008331B680343064C08342360231D1B688A
:104E50000343241D236000E000BF00BF10BD00001D
:104E600000040140024909688143014A116070470A
:104E700000040140024909680143014A116070477A
:104E8000000401400149086070470000140401401B
:104E9000044A116821F0070141EA0002014B1A603F
:104EA000704700000020024070B504460D46E1B294
:104EB000054801F01EF900BF0721034801F06BF916
:104EC0000028F9D0204670BD00380140416170478C
:104ED000016170470AB1016100E041617047000063
:104EE00010B500228B071C0F0F2303FA04F20429CC
:104EF0000EDA204B9B6893431E4CA36023469B68AD
:104F00008C07240F00FA04F423431A4CA3602FE00B
:104F100008290EDA174BDB689343164CE3602346EF
:104F2000DB688C07240F00FA04F42343114CE36080
:104F30001EE00C290EDA0F4B1B6993430D4C2361C5
:104F400023461B698C07240F00FA04F42343094C01
:104F500023610DE0074B5B699343064C6361234675
:104F60005B698C07240F00FA04F42343014C63614E
:104F700010BD000000000140F0B5044616460025B3
:104F8000002201F00F0501F0100747B1042E05D1F2
:104F900045F00305E76B1F43E76300E0354300205E
:104FA0001EE0012787401F40C7B122684FEA800CEE
:104FB0000F2707FA0CF7BA43870005FA07F73A43B9
:104FC000282904D1012787401F40676105E048294F
:104FD00003D1012787401F4027612260471CB8B2D8
:104FE0000828DED3082022E0012787401F40E7B1D0
:104FF0006268A0F108074FEA870C0F2707FA0CF741
:10500000BA43A0F10807BF0005FA07F73A43282979
:1050100004D1012787401F40676105E0482903D17B
:10502000012787401F4027616260471CB8B21028E3
:10503000DAD3F0BD02469068084008B101207047FD
:105040000020FCE70146886880B270470246D068BD
:10505000084008B1012070470020FCE70146C868FD
:1050600080B27047C160704770B5002300241E4AAB
:105070001278002A01DD1D4A54784CB1051B2AB272
:10508000002A01DA55422AB2142A00DD70BD00BFA1
:10509000174A184D2D7822F81500134A1278052A60
:1050A00004DA114A1278521C0F4D2A70114A1278F4
:1050B000521C052592FBF5F605FB16220D4D2A70B4
:1050C000002105E00A4A32F8112013444A1C91B22B
:1050D000054A12789142F5DB034A1278B3FBF2F2EB
:1050E000024D6A7000BFD1E77D000020C819002082
:1050F000D41900207C0000208AB0FBF73DFEFBF7AE
:105100008EFE60A0FFF7DCFB67A0FFF7D9FB6AA06B
:10511000FFF7D6FB6BA0FFF7D3FB6DA0FFF7D0FB2B
:105120006FA0FFF7CDFB72A0FFF7CAFBA9E0FBF76A
:105130001BFE18B1FBF738FFFBF74EFBFDF76EF9CE
:105140007248007800283ED07048007800F00100D6
:1051500058B16F4801786F480078FFF731F86B4815
:10516000007820F00100694908706848007800F074
:10517000020048B168480078FEF7BAFF634800783B
:1051800020F00200614908706048007800F00400D7
:1051900058B16248018862480088FFF7EFF85B4821
:1051A000007820F00400594908705848007800F051
:1051B000080040B15B48FEF7CDFC5448007820F071
:1051C000080052490870FCF713FFFCF709FF10B103
:1051D00055A0FFF775FB04A805A906AB07AACDE902
:1051E000001008A909A8FCF771FE002840D09DF81E
:1051F00024008DF804009DF820008DF805009DF82E
:105200001C008DF806009DF818008DF807009DED34
:10521000050ADFED4B0A20EE200ABCEEC00A10EEB4
:10522000100A80B2ADF80800FF208DF80A000020B7
:105230008DF80B008DF80C0001A8FEF78BFC9DF893
:10524000241040A0FFF73CFB9DF8201040A0FFF782
:1052500037FB42A00499FFF733FBBDF8081042A0CA
:10526000FFF72EFB9DF80A1042A0FFF729FB00BFB5
:10527000FBF774FD18B1FCF7DEFDFBF7A7FAFEF7AC
:1052800053FB54E7496E69742053797374656D203C
:10529000686173206265656E2066696E6973686512
:1052A000642E0D0A000000007B7B312C53504F32DE
:1052B0007D7D0D0A000000007B7B322C48527D7DF5
:1052C0000D0A00007B7B332C41437D7D0D0A0000DD
:1052D0007B7B342C525F56616C7D7D0D0A00000093
:1052E0007B7B352C4761696E7D7D0D0A00000000D7
:1052F0004C434420446973706C6179205465737425
:105300002053746172742E0D0A0000009600002074
:105310008F0000208E0000209000002094000020CC
:105320009200002012220020414C474F5F53454716
:105330004D454E545F44524F505045440D0A0000B5
:1053400000007A445B5B312C25645D5D0D0A000032
:105350005B5B322C25645D5D0D0A00005B5B332CCA
:1053600025645D5D0D0A00005B5B342C25645D5D8A
:105370000D0A00005B5B352C25645D5D0D0A0000A5
:105380002DE9F04103460D46164600240027A046AD
:105390002A48006800F4E060B0F5E06F03D100BF78
:1053A0004FF0040830E02548006800F4E060B0F5F4
:1053B000C06F03D101274FF0030825E01F480068A4
:1053C00000F4E060B0F5A06F02D10227B8461BE000
:1053D0001A48006800F4E060B0F5806F03D103273D
:1053E0004FF0010810E01548006800F4E060B0F5E7
:1053F000407F03D104274FF0000805E04FF4A06080
:1054000000F020F80227B846C7F1040005FA00F4BE
:10541000C8F104010F20C84030400443240108486B
:10542000C45403F01F01012088405911890001F183
:10543000E021C1F80001BDE8F08100000CED00E0C2
:1054400000E400E002490143024A11607047000095
:105450000000FA050CED00E0FFF726BD044A516894
:1054600021F0F00141EA0002014B5A607047000050
:1054700000100240044A516821F4E06141EA000250
:10548000014B5A607047000000100240044A516806
:1054900021F4605141EA0002014B5A60704700005C
:1054A000001002402DE9F04F8CB0074600200A9012
:1054B0004AA090E8004CC068CDE905BECDF810A028
:1054C00007900FF21C1ADAE9000ACDE9020A0FF27E
:1054D000101ADAE9000ACDE9000A44484068C0F32E
:1054E00081000B900B9820B1012804D002283FD1F5
:1054F00003E03F4A3EE03E4A3CE03C48406800F45E
:10550000803CBCF5803F12D13848C06A00F080482A
:10551000B8F1000F01D1364C00E0364C33484068FA
:1055200000F40039B9F5003F02D1334C00E0324CB1
:105530002E484068C0F383412C48406800F000606A
:1055400008B141F010012948406800F0804008B1DE
:1055500041F020010F2901D2891C06E00F2903D355
:105560003E2901D8491C00E03F2104FB01F201E083
:105570001F4A00BF00BF1D484068C0F3031504A8C0
:10558000465D22FA06F319484068C0F3022502A8D6
:10559000465D23FA06F0099014484068C0F3C2251E
:1055A0001DF8056023FA06F0089037B1012F06D0E8
:1055B000022F06D0032F0AD106E00A9208E00A93D0
:1055C00006E009980A9003E008980A9000E000BFFE
:1055D00000BF0A980CB0BDE8F08F0000000000008A
:1055E0000000000001020304060708090010024041
:1055F00000127A00006CDC0200093D0000B5114881
:10560000006840F001000F490860002000F042F8F7
:105610000C4840680C4908400A4948600846006840
:105620000A490840074908600846006820F48020BD
:1056300008604FF41F0088600846C06A20F0C04030
:10564000C86200BD001002400C000020FFFFF6FE03
:105650000146074A02EB9110006801F01F03012286
:105660009A40104008B1012070470020FCE700007C
:1056700000100240064A02EB9011096800F01F0377
:1056800001229A401143024B03EB901211607047C4
:1056900000100240F0B50646002400270025B6F5AC
:1056A000006F1FD005DC86B3102E0BD0182E72D1E0
:1056B00060E0B6F5106F4BD0A6F5405010380028CA
:1056C00069D133E004E01120FFF7C2FF0546641CF6
:1056D00015B9B4F5006FF6D11120FFF7B9FF00B18D
:1056E000012759E005E040F60100FFF7B1FF05464C
:1056F000641C1DB96FF07C408442F4D140F6010077
:10570000FFF7A6FF00B1012746E0FFE704E0012014
:10571000FFF79EFF0546641C15B9B4F5A06FF6D1DE
:105720000120FFF795FF00B1012735E005E043F2C6
:105730001100FFF78DFF0546641C15B91848844217
:10574000F5D143F21100FFF783FF00B1012723E0F9
:1057500005E040F60110FFF77BFF0546641C15B914
:105760000F488442F5D140F60110FFF771FF00B1F8
:10577000012711E004E01920FFF76AFF0546641CC9
:1057800015B907488442F6D11920FFF761FF00B12F
:10579000012701E0FFE700BF00BF3846F0BD000071
:1057A000FFFF0F00064A02EB9011096800F01F038B
:1057B00001229A401143024B03EB90121160704793
:1057C00000100240064A02EB9011096800F01F0326
:1057D00001229A409143024B03EB901211607047F3
:1057E00000100240064A02EB9011096800F01F0306
:1057F00001229A401143024B03EB90121160704753
:105800000010024002460020044B5868044B184028
:1058100042EA01031843014B5860704700100240F0
:10582000FFFFC2B701460020034AD06A20F0804043
:105830000843D0627047000000100240014600207B
:10584000054A506820F40030012901D140F40030AD
:10585000014A50607047000000100240044A51683D
:1058600021F0030141EA0002014B5A607047000039
:10587000001002400248406800F00C007047000031
:10588000001002402DE9FF4F9CB0074615469E4888
:105890001B90C0F1000900200D904FF6FF700C9096
:1058A00019200B9000200A90032D02DBB5F5487FEC
:1058B00004DD0020188020B0BDE8F08F1D9800F5B1
:1058C0004870401B4FF4487290FBF2F402FB140046
:1058D0001FFA80FC002112E00CEB01024FF4487427
:1058E00092FBF4F804FB182257F822001B9A90420E
:1058F00000DD1B90484500DA8146481C81B2A94270
:10590000EADB1B98A0EB090680480660032E02DA4A
:1059100000201880CFE706EB460040000A2290FBEB
:10592000F2F048441A9006EB860090FBF2F04844EF
:105930001990C6EB0610642290FBF2F0189000203C
:1059400009900022704CC4F10008012173E00CEBB7
:10595000010AAAF1010A4FF4487B9AFBFBFE0BFBFC
:105960001EAA57F82AA0CDF820A00CEB010A9AFB3A
:10597000FBFE0BFB1EAA57F82A000CEB010A0AF1EA
:10598000010A9AFBFBFE0BFB1EAA57F82AA0CDF8D2
:105990001CA0DDF824A0BAF1000F15D1404500DAB3
:1059A0008046DDF868A0504543DBDDF820A0504577
:1059B0003FDBDDF81CA050453BDB4FF0010ACDF882
:1059C00024A00A46044634E0A04201DD04460A460B
:1059D000DDF864A050452CDAA4EB080BDDF860A0DC
:1059E000D34520DB4FF6FF7BDDF830A0DA4508D049
:1059F000DDF830A0A2EB0A0A1FFA8AFABAF1190FF1
:105A000011DDDDF834A0BAF1140F0CDADDF834A0A2
:105A10000AF1010B1FFA8BFBCDF834B00DF1380BF6
:105A20002BF81A200C924FF0000ACDF824A08046E3
:105A3000354C481C81B2681E884288DC0D980228CB
:105A40005DDB0022012111E00EA830F81140481E54
:105A50000DF1380838F81000201A1FFA80F81046A7
:105A6000541CA2B22DF81080481C81B20D988142BE
:105A7000EADB032A23DBA2F1030B3DF81B00A2F1B2
:105A8000020B3DF81B40A2F1010B3DF81B80A04228
:105A900001DB404503DDA04203DC404501DB8246DB
:105AA0000AE0844201DB444503DD844203DC4445D3
:105AB00001DBA24600E0C246A3F800A012E00020ED
:105AC000002104E03DF8114020444C1CA1B2914259
:105AD000F8DB002A03DDB0FBF2F4A4B200E00024FE
