:020000040800F2
:1000000088060020450100089D1300082B07000802
:100010009913000877020008F51B00080000000093
:100020000000000000000000000000003B19000874
:100030001D06000800000000751400083D190008A6
:100040005F0100085F0100085F0100085F01000810
:100050005F0100085F0100085F0100085F01000800
:100060005F01000839060008650600085F01000806
:100070005F0100085F0100085F0100085F010008E0
:100080005F0100085F0100085F0100085F010008D0
:100090005F0100085F0100085F0100085F010008C0
:1000A0005F0100085F0100085F0100085F010008B0
:1000B0005F010008951900085F0100085F01000852
:1000C0005F0100085F0100085F0100085F01000890
:1000D0005F010008091B0008A51B00085F0100085C
:1000E0005F0100085F0100085F0100085F01000870
:1000F0005F0100085F0100085F0100085F01000860
:100100005F0100085F010008D51900085F010008C1
:100110005F0100085F0100085F0100085F0100083F
:100120005F0100085F0100085F0100085F0100082F
:10013000DFF80CD000F07EF800480047CD2300081F
:10014000880600200648804706480047FEE7FEE78D
:10015000FEE7FEE7FEE7FEE7FEE7FEE7FEE7FEE777
:10016000451900083101000840EA01039B0703D04C
:1001700009E008C9121F08C0042AFAD203E011F8E6
:10018000013B00F8013B521EF9D27047D2B201E0A8
:1001900000F8012B491EFBD270470022F6E710B58C
:1001A00013460A4604461946FFF7F0FF204610BDE5
:1001B0002DE9F05F0546002092469B46884606469C
:1001C000814640241BE0284641464746224600F02F
:1001D00020F853465A46C01A914110D3114618468A
:1001E000224600F039F82D1A67EB01084F462246E7
:1001F0000120002100F030F817EB00094E41201ECD
:10020000A4F10104DFDC484631462A464346BDE8F6
:10021000F09F202A04DB203A21FA02F000217047E7
:1002200021FA02F3D040C2F120029140084319465E
:1002300070470000064C074D06E0E06840F00103FF
:1002400094E8070098471034AC42F6D3FFF774FFE8
:100250003C3400085C340008202A04DB203A00FA11
:1002600002F1002070479140C2F1200320FA03F30D
:1002700019439040704700BFFEE70000002001498D
:10028000087070471D000020002001490870704769
:100290001C00002010B540F2066002F0E3FA40F2C4
:1002A000046002F0DFFA4FF4C06002F0DBFA0823CA
:1002B00003224821214802F011F81023032248218B
:1002C0001E4802F00BF82023032248211B4802F0AD
:1002D00005F80321042001F0B5FF0421084601F0D0
:1002E000B1FF0521042001F0ADFF0122002108200B
:1002F00001F00EFF01220021102001F009FF012270
:100300000021202001F004FF082001F06DFF1020E3
:1003100001F06AFF202001F067FF02221146092048
:1003200002F090F8022211460A2002F08BF8022215
:100330001146172002F086F810BD00000018014099
:1003400010B540F2026002F08DFA40F2046002F053
:1003500089FA4FF48073032210210E4801F0BEFF8A
:100360004FF480710B4801F063FF402303221021FA
:10037000094801F0B3FF4021074801F059FF8023ED
:1003800003221021044801F0A9FF8021024801F056
:100390004FFF10BD000801400010014010B54FF4A0
:1003A000A06002F0B1F810BD10B502F087F910207E
:1003B00002F0C0F9102002F0CDF90446012C26D13C
:1003C00001F018FF002002F0A9F8002002F0BEF8AA
:1003D000A00202F0AFF8002002F084FA002002F040
:1003E0008DFA4FF45011200402F06CFA182002F03C
:1003F000A1F900BF192002F08BF90028FAD00220E1
:1004000002F08CFA00BF02F095FA0028FBD010BD74
:100410007FB504460D4640F2017002F023FA0F4802
:1004200002F01CFB684602F0ECFBADF80050002027
:10043000ADF804000294ADF806006946074802F0E2
:1004400081FB0121054802F0C9FB002201211D208A
:1004500001F0F8FF014802F06FFB7FBD000400408F
:100460007FB504460D4640F2037002F0FBF90F48D9
:1004700002F0F4FA684602F0C4FBADF80050002028
:10048000ADF804000294ADF806006946074802F092
:1004900059FB0121054802F0A1FB00220121322075
:1004A00001F0D0FF014802F047FB7FBD000C004087
:1004B00010B5044640F2026002F0D4F940F20E603A
:1004C00002F0D0F94FF40073032218211D4801F007
:1004D00005FF4FF48063032204211A4801F0FEFE59
:1004E000194802F0EBFB2146174802F095FB00216A
:1004F000154802F092FC0021134802F09EFC0021F6
:10050000114802F07AFC04210F4802F07EFC082119
:100510000D4802F08AFC40F205310B4802F037FC2E
:1005200040F20731084802F032FC074802F00EFCA6
:1005300000221146252001F085FF002003490870A4
:1005400010BD0000000801400038014030000020CC
:1005500010B5044640F2026002F084F940F21170D6
:1005600002F080F9042303221821194801F0B6FE95
:10057000082303220421164801F0B0FE154802F0BA
:100580009DFB2146134802F047FB0021114802F071
:1005900044FC00210F4802F050FC00210D4802F0FD
:1005A0002CFC04210B4802F030FC0821094802F021
:1005B0003CFC40F20531074802F0E9FB0022012132
:1005C000262001F03FFF034802F0C0FB10BD0000F1
:1005D000000801400044004030B50346002016E00A
:1005E000B3F900509C68645D0C541C88641C24B2F0
:1005F0001C80B3F90040B3F90450AC4201DB002485
:100600001C80441C20B2DC88641E24B2DC80B3F958
:100610000640002C01DD9042E2DB30BD7047000057
:1006200001B504490098086000BF0248006800282E
:10063000FBD108BD4000002010B5082001F05CFD92
:1006400058B1082001F0D0FD082001F0BDFD0120C7
:100650000249087000200249087010BD10000020F7
:100660001300002010B5102001F046FD58B11020F5
:1006700001F0BAFD102001F0A7FD012002494870E9
:1006800000200249487010BD100000201300002017
:1006900070B50346002016E00C5CB3F902609D685B
:1006A000AC555C88641C24B25C80B3F90240B3F999
:1006B0000450AC4201DB00245C80441C20B2DC8886
:1006C000641C24B2DC80B3F90640B3F90450AC4298
:1006D00001DA9042E0DB70BD01480078704700000D
:1006E0001D00002001480078704700001C00002019
:1006F00001463C2904DB642902DC4FF4FC607047AE
:10070000322901DB3C2903DB642904DD782902DC82
:100710004FF6E070F3E7282901DB962902DD4FF45C
:100720007840ECE74FF4FC60E9E700BFFEE710B566
:1007300001F008F900F049F800F030F84FF4E1302A
:1007400000F088F800F07AF800F024F800F042F8A1
:100750004FF4E13000F086F800F008F800F022F8DD
:1007600000F02EFA01F030F810BD000010B5FFF7D0
:1007700091FD002406E0002004490855044908556D
:10078000601CC4B2032CF6DB10BD0000100000207A
:100790001300002010B5FFF7D3FD10BD10B5FFF713
:1007A000FDFD10BD704730B50B4600240480448029
:1007B0008280C4808360002104E0002485686C543A
:1007C0004C1C21B29142F8DB30BD10B5FFF7ECFDB7
:1007D00010BD704730B5164800684FF47A72B0FB10
:1007E000F2F1481EB0F1807F01D301201BE0481ECA
:1007F0004FF0E022506150170F22002807DA13074C
:100800001D0E0C4B00F00F04241F1D5503E01307B1
:100810001C0E094B1C5400BF00204FF0E0229061D9
:1008200007201061002008B100BFFEE730BD0000C6
:100830003C00002018ED00E000E400E010B5772156
:1008400040F2E730FFF7E4FD772140F2E730FFF7B1
:1008500007FE10BD10B5044600F020F82046FFF753
:1008600027FE10BD10B5044600F004F82046FFF73F
:100870006FFE10BD10B5002404E0002005490855A6
:10088000601C84B2642CF8DB642202490248FFF742
:100890008AFF10BD08010020FC00002010B50024D4
:1008A00006E000200949085509490855601C04B2B2
:1008B000642CF6DB642205490648FFF774FF6422C6
:1008C00003490548FFF76FFF10BD0000B00100208D
:1008D0001402002098010020A401002010B5044655
:1008E00024B1012C0BD0022C1BD111E008210E48A1
:1008F00001F052FD08B9012010BD0020FCE71021D5
:10090000094801F049FD08B90120F5E70020F3E7A7
:100910002021054801F040FD08B90120ECE7002046
:10092000EAE70020E8E700000018014010B50024C5
:1009300063E03348005D012833D12046FFF7CEFF46
:1009400058B33048005D401C2E4908550846005DEC
:10095000052850DB3CB900F0EDFC2B480068401C3A
:100960002949086012E0012C07D100F0F5FC274866
:100970000068401C2549086008E0022C06D100F000
:10098000FBFC23480068401C2149086002201C49E8
:10099000085500201B4908552DE00020194908552D
:1009A00029E01748005D022825D12046FFF796FF71
:1009B000F0B91448005D401C124908550846005D16
:1009C000052818DB1CB9082001F006FC0AE0012C00
:1009D00003D1102001F000FC04E0022C02D1202001
:1009E00001F0FAFB0020064908550649085502E0C7
:1009F000002004490855601CC4B2032C99DB10BDCB
:100A00001000002013000020040000200800002037
:100A10000C00002070B5054600240A4800880949EA
:100A2000498800FB01F60021084600F029FB00F090
:100A300051FC00BF03E0284600F046FC641CB442B1
:100A4000F9D370BDEE0000201F498871898845F2F6
:100A50001052914210D138B94FF4F0711A4A1180F6
:100A60004FF4487151802EE04FF44871164A1180BE
:100A70004FF4F071518026E01349898845F2103215
:100A8000914210D138B94FF4A0710F4A11804FF440
:100A9000F071518017E04FF4F0710B4A11804FF460
:100AA000A07151800FE038B94FF4A071064A11804F
:100AB0004FF4F071518006E04FF4F071024A11805A
:100AC0004FF4A07151807047EE00002070B50546CC
:100AD0000E4614463146284600F0D2FA00F0FAFBE2
:100AE000204600F0F1FB70BD2DE9F05F05460E4693
:100AF00017469846DDF828A0781B401C1FFA80FB9B
:100B0000344613E02146284600F0BAFA00F0E2FB32
:100B10004FF0000906E0504600F0D6FB09F1010055
:100B20001FFA80F9D945F6DB601C84B24445E9DD43
:100B3000BDE8F09F10B540F2026001F093FE40F274
:100B4000036001F08FFE40F2056001F08BFE40F281
:100B5000066001F087FE4FF48053032210211448F1
:100B600001F0BCFB012303221021124801F0B6FB67
:100B70004CF6B373032210210F4801F0AFFB4FF680
:100B80008073032210210D4801F0A8FB80210A4840
:100B900001F050FB4FF40061074801F04BFB2021AE
:100BA000054801F047FB1021034801F043FB10BD4D
:100BB00000080140000C01400014014000180140F1
:100BC00010B5FFF7B7FF4FF48051994801F032FBA1
:100BD0000A20FFF725FD4FF48051954801F028FBCE
:100BE0003220FFF71DFD4FF48051914801F022FBA8
:100BF000C820FFF715FDD32000F07EFB00F092F92E
:100C00008C49888000F08EF98A49888000F08AF942
:100C100088498880084680884FF6FF7101EA0020E5
:100C20008449888000F07EF9824989880843814997
:100C300088800846818880A000F0F4FF7D48808885
:100C400045F21051884210D14FF430507949088153
:100C50004FF4285048814FF42C5088814FF448704D
:100C600008804FF4F0704880CCE07248808845F2EC
:100C7000103188420DD12C206E4908812A204881EC
:100C80002B2088814FF4A07008804FF4F0704880CA
:100C9000B8E02C20674908812A2048812B208881D0
:100CA0004FF4A07008804FF4F070488008468088A8
:100CB00047F2897188423ED10021112000F012FBD9
:100CC0007820FFF7ADFC05213A2000F00BFB0C214A
:100CD000B22000F007FB0C21B22000F003FB002142
:100CE000B72000F0FFFA3D21BB2000F0FBFA2C21D9
:100CF000C02000F0F7FA0121C22000F0F3FA13211E
:100D0000C32000F0EFFA2021C42000F0EBFA0F21FD
:100D1000C62000F0E7FAA421D02000F0E3FAA121D8
:100D2000D02000F0DFFA0021292000F0DBFA782043
:100D3000FFF776FC66E03F48808847F2967188426C
:100D400052D10021112000F0CDFA7820FFF768FC85
:100D50000821362000F0C6FA05213A2000F0C2FA38
:100D60000021B12000F0BEFA1821B12000F0BAFA3B
:100D70000021B32000F0B6FA0221B32000F0B2FA4D
:100D80000321B32000F0AEFA0821B32000F0AAFA44
:100D90000021B42000F0A6FA0221C02000F0A2FA3F
:100DA0000221C12000F09EFA3221C52000F09AFAFB
:100DB0003221C72000F096FA0821362000F092FA7E
:100DC0000021372000F08EFA0021382000F08AFA46
:100DD0000021392000F086FA0021292000F082FA53
:100DE0007820FFF71DFC0DE00021112000F07AFAB9
:100DF0007820FFF715FC0021292000F073FA7820F5
:100E0000FFF70EFC0020FFF71FFE022000F0B8F8ED
:100E100001210F4801F00EFA4FF6FF70FFF7FAFDBF
:100E200004484388028881880AA000F0FBFE10BDB8
:100E300000080140EE0000205B4C43445D205265F9
:100E400061642049443A203078253034580D0A0036
:100E5000000C01405B4C43445D20496E69742044A2
:100E60006F6E652C2049443A203078253034582C58
:100E70002057696474683A2025642C2048656967A6
:100E800068743A2025640D0A0000000070B5002542
:100E90004CF2037303220421204801F01FFA4FF69D
:100EA0008073032204211E4801F018FA1B4801F048
:100EB0007BFA0446A00B04F0030140EA810004F42D
:100EC000807140EA411004F4007140EA411004F4DA
:100ED000806140EA41100543114801F065FA064679
:100EE000F02000EAE6004FF4706101EAE6010843F1
:100EF0004FF4805101EAE601084305434CF20373C5
:100F000003221021054801F0E9F94FF6807303220E
:100F10001021034801F0E2F9284670BD0014014099
:100F2000001801401CB5002001904FF400611348E7
:100F300001F080F98021114801F07AF910210F4861
:100F400001F076F90020009005E000BF9DF8000058
:100F5000401CC0B200909DF800000A28F5DBFFF7A6
:100F600095FF01901021054801F064F980210348A4
:100F700001F060F9BDF804001CBD00000014014040
:100F80002DE9F0410546002400273C4880790128DE
:100F900018D1082D15D2DFE805F00406080A0C0E5A
:100FA000101206250DE007250BE0042509E00525B4
:100FB00007E0012505E0002503E0032501E0022507
:100FC00000BF00BF082D1CD2DFE805F00406090CA5
:100FD0000F12151800BF14E044F0800411E044F033
:100FE00040040EE044F0C0040BE044F0200408E0AC
:100FF00044F0600405E044F0A00402E044F0E004A2
:1010000000BF00BF1D48808845F21051884202D1C0
:101010004FF4585700E036271848808847F29671F9
:10102000884205D01548808847F28971884201D1ED
:1010300044F008042146384600F054F904F020003A
:1010400068B10E4800880D494988884214DA0B4877
:101050000688408809490880084646800CE0074811
:10106000008806494988884206DD04480688408889
:101070000249088008464680BDE8F081EE00002065
:1010800070B504460D461E48808845F210518842CE
:1010900020D11B49488900F02FF9201200F0F6F802
:1010A00017494989491C88B200F026F9E0B200F0DE
:1010B000EDF81349888900F01FF9281200F0E6F8CE
:1010C0000F498989491C88B200F016F9E8B200F08E
:1010D000DDF813E00A49488900F00EF9201200F00B
:1010E000D5F8E0B200F0D2F80549888900F004F99B
:1010F000281200F0CBF8E8B200F0C8F870BD00008C
:10110000EE0000202DE9F05F80460C4616461F4693
:10111000A346A6F12000C6B2102F3DD1002539E02C
:101120001E4800EB061010F805904FF0000A2BE067
:1011300009F0800030B11A48028821464046FFF786
:10114000C5FC07E00A9828B916480288214640469F
:10115000FFF7BCFC4FEA49604FEA1069601C84B29B
:1011600011484088A04201DCBDE8F09FA4EB0B00D1
:10117000B84205D15C4608F101001FFA80F806E08C
:101180000AF1010000F0FF0ABAF1080FD0DB00BF3E
:10119000681CC5B2102DC3DB00BFE5E74A2E00086E
:1011A0001600002018000020EE0000202DE9F84F66
:1011B00004460D4690469946DDE90A6704F0FF0AA9
:1011C00008EB04001FFA80F809EB05001FFA80F90C
:1011D00016E0444502DB5446A81985B24D4500DBB4
:1011E00014E0002000903A78334629462046FFF765
:1011F00089FF304606EBD07104EB61018CB27F1C95
:1012000038787E2802DC38782028E2DA00BFBDE892
:10121000F88F000070B504461A4801F0D1F8064670
:101220004CF20370864304F00300C4F3810141EAE9
:10123000803004F4005140EA611004F4804140EA37
:10124000611004F4004140EA6110064331460D4844
:1012500001F0BAF80C4801F0B3F805464FF680707B
:10126000854304F0F000C00004F4706140EAC1005E
:1012700004F4805140EAC10005432946024801F0C8
:10128000A3F870BD001401400018014010B50446D9
:101290004FF400610B4800F0CDFF8021094800F0B9
:1012A000C7FF2046FFF7B6FF2021064800F0C0FF29
:1012B0002021044800F0BEFF8021024800F0BAFF60
:1012C00010BD00000014014010B504462046FFF791
:1012D000DDFF10BD10B50249088900F00DF810BD02
:1012E000EE00002070B505460C46284600F004F8D4
:1012F0002046FFF7CBFF70BD10B504464FF40061E8
:101300000B4800F095FF8021094800F091FF20462E
:10131000FFF780FF2021064800F08AFF20210448C3
:1013200000F088FF8021024800F084FF10BD00001B
:101330000014014010B54FF48071064801F038F8F0
:101340000446C4F10100C2B24FF48071014800F0BC
:1013500073FF10BD0008014010B54021054801F0A1
:1013600027F80446C4F10100C2B24021014800F050
:1013700063FF10BD0010014010B58021054801F049
:1013800017F80446C4F10100C2B28021014800F000
:1013900053FF10BD0010014000BFFEE77047000082
:1013A00000F01F0201219140024A430942F8231034
:1013B0007047000080E200E010B50446284800783D
:1013C00030B101280AD0022817D0032841D126E0E5
:1013D000AA2C02D10120224908703EE0032C08D13A
:1013E0002048047000202049087002201C49087021
:1013F00002E000201A4908702FE01B4801780078AD
:10140000401C194A10701948445410460078154978
:101410000978884202DB0320114908701DE0552C31
:1014200013D112480078124908701048407848706B
:101430000E48807888700020C87001200871084626
:1014400000F060F9012000F021FA00200449087042
:1014500003E000200249087000BF00BF10BD00007B
:10146000290000202B0000202A0000208C010020F1
:101470002200002070470000F0B5C1B05D488288AE
:101480005DA1604800F0DEFB4FF478405E490880C3
:101490005EA018210B46C822CDE9001028211E208D
:1014A000FFF784FE574810210B46C822CDE90010F3
:1014B00046211E20FFF77AFE57A010210B46C822B6
:1014C000CDE900105A211E20FFF770FE5548006834
:1014D0000090554803685548026855A134A800F0AB
:1014E000B1FB34A810210B46F022CDE900106E218B
:1014F0001E20FFF75BFE53A010210B46C822CDE94A
:1015000000108C211E20FFF751FE202114A800F0AE
:10151000A3FA04464F4802680068401C4D4B18600F
:1015200023464DA1504800F08DFB4F4810210B463B
:101530006422CDE900108C210846FFF737FE2246D1
:101540004448016849A000F06DFB002C22DD102CFE
:1015500001DD102000E0204607460025002608E0B7
:1015600014A98A5D02A9481945A100F06BFB054446
:10157000761CBE42F4DB402243494448FEF7F4FDAA
:1015800040214148FEF709FE6A1C02A93E48FEF7C9
:10159000EBFD00BF12A800F04DFA40B19DF84A30B3
:1015A0009DF849209DF8481039A000F03BFB002031
:1015B0004FF4A073F0224FF48C7100901E20FFF7BF
:1015C00093FA324810210B46F022CDE900104FF477
:1015D0008D711E20FFF7EAFD2B4810210B46F022EB
:1015E000CDE900104FF497711E20FFF7DFFD41B0E9
:1015F000F0BD0000EE0000204C43442049443A2551
:101600003034580062000020160000204744333276
:101610004633303356450000323032362D30312DCE
:10162000303800000C0000200800002004000020DA
:101630004B313A2564204B323A2564204B333A250E
:10164000640000005541525431204D6F6E69746F33
:10165000723A00000000002052756E3A2564204C5A
:101660003A25642000000000440000205258205217
:10167000756E3D256C75204C3D25640D0A000000FB
:1016800025303258200000006E000020AE000020FF
:1016900053504F323D25642048523D256420504927
:1016A0003D25640D0A0000000146C88808B90120E4
:1016B00070470020FCE7000070B5044600250122B9
:1016C00021460348FEF788FFC5B2284670BD0000DA
:1016D0009801002070B504460D462A46214602486E
:1016E000FEF77AFFC0B270BDFC00002008B50020F4
:1016F0004FF48C73E622A02100901E20FFF7F4F92E
:1017000008BD0000F0B58BB004462748007808B942
:1017100000F05AF825480588207800F0F7F82349AA
:101720000880227822A103A800F08CFA03A81021D7
:101730000B463C22CDE90010B4216E20FFF736FDA8
:101740006078FEF7D5FF1949088062781AA103A8CE
:1017500000F078FA03A810210B465022CDE90010C2
:10176000C8216E20FFF722FD4FF4FC600F4908806E
:10177000A0780A2190FBF1F201FB120690FBF1F731
:1017800033463A460EA103A800F05CFA03A81021E4
:101790000B463C22CDE90010DC216E20FFF706FD50
:1017A000024805800BB0F0BD1A0000201600002092
:1017B000256425250000000025642062706D00006E
:1017C00025642E25642525001CB5204800780028B6
:1017D0003AD1FFF78BFF4FF6FF701D4908801DA01F
:1017E00010210B46C822CDE90010A0211E20FFF7D2
:1017F000DDFC1EA010210B467822CDE90010B4219B
:101800001E20FFF7D3FC1BA010210B467822CDE948
:101810000010C8211E20FFF7C9FC19A010210B469B
:101820007822CDE90010DC211E20FFF7BFFC15A0B7
:1018300010210B467822CDE90010F0211E20FFF781
:10184000B5FC0120014908701CBD00001A000020F1
:10185000160000203D3D3D2053504F32204D6F6E0D
:1018600069746F72203D3D3D0000000053704F329F
:101870003A000000486561727420526174653A0054
:1018800050493A005374617475733A0030B58BB0A7
:1018900004461848007808B9FFF796FF16480588EF
:1018A00000204FF48273AA22F02100906E20FFF7EF
:1018B0001BF944B14FF4FC600F4908800FA103A845
:1018C00000F0C0F907E04FF478400B4908800DA103
:1018D00003A800F0B7F903A810210B463C22CDE97C
:1018E0000010F0216E20FFF761FC034805800BB06B
:1018F00030BD00001A0000201600002056616C69FF
:1019000064000000496E76616C69640001465F29DD
:1019100004DB642902DC4FF4FC6070475A2904DBC5
:101920005F2902DA4FF6E070F7E7552902DA4FF443
:101930007840F2E74FF4FC60EFE7704710B500F035
:101940006DF810BD10B51048006840F470000E49E5
:1019500008600E48006840F001000C490860002053
:101960004860C8620846006809490840074908609D
:101970004FF41F0088600846006820F4802008604B
:1019800001F068F810BD000088ED00E00010024092
:10199000FFFFF6FE10B501210B4801F026F90128E2
:1019A00003D10121084801F01DF908480088401CB6
:1019B0000649088008460088022804DB00200880C9
:1019C00001200349087010BD000400401E000020E3
:1019D0001C00002010B501210D4801F006F9012876
:1019E00003D101210A4801F0FDF80A480088401C93
:1019F00000B2084908800846B0F90000B0F57A7FC7
:101A000004DB0020088001200349087010BD00009D
:101A1000000C0040200000201D0000200448006849
:101A200020B103480068401E01490860704700006B
:101A30004000002001460748007948B10548026887
:101A40000A60007908710020024A10710120704775
:101A50000020FCE72200002070B505460B46104C24
:101A60002078984200DD18460E4C24782034241A41
:101A7000E2B2202A02DBA2F12004E2B200210BE054
:101A80005618F4B2202C02DBA4F12006F4B2064E64
:101A9000365D6E544C1CE1B28142F1DB70BD00003A
:101AA00028000020270000206C0100200C490D4A6E
:101AB000127888540B490978491C0A4A117011465A
:101AC0000978202901DB00211170074909782029B4
:101AD00004DA05490978491C034A1170704700006F
:101AE0006C010020270000202800002008B503E03A
:101AF0009DF80000FFF760FC01216846FFF7EAFD52
:101B00000028F5D108BD000008B5002000901F494D
:101B10001F4801F056F978B11C491D4801F044F9FD
:101B20002520FFF73DFC1A4801F0BEF8C0B2009036
:101B30009DF8000000F060F81649154801F041F9E1
:101B4000012806D11349124801F02EF9104801F07E
:101B5000ABF811490E4801F034F9B0B12520FFF778
:101B60001FFC6846FFF7A8FD9DF80010084801F02B
:101B7000A0F80A48FFF798FD38B10020084908701E
:101B800040F20731024801F0F5F808BD05030500F1
:101B900000380140000503000703070098010020FA
:101BA0003000002010B51049104801F00AF970B15A
:101BB0000E4801F079F8C4B2204600F029F820461A
:101BC000FFF774FF0849094801F0EEF800BF084923
:101BD000064801F0F6F830B1044801F065F8044910
:101BE000024801F0E1F810BD050305000044004083
:101BF0000005030000BFFEE731B50024012269465D
:101C00000248FEF745FDC4B2204638BDA4010020BD
:101C100001B5012269460248FEF73AFDC0B208BD8F
:101C2000FC0000200FB4054B10B503A9044A02982C
:101C300000F02CF810BC5DF814FB00000D22000829
:101C40002C0000200FB4084B10B504A902AA039879
:101C500000F01CF8044602A9002000F048FA2046D3
:101C600010BC5DF814FB0000EF20000802E008C87B
:101C7000121F08C1002AFAD170477047002001E006
:101C800001C1121F002AFBD1704700002DE9FF4F50
:101C90008DB00F460546002606E025280BD0DDE96D
:101CA0000F1290476D1C761C28780028F5D111B0D2
:101CB0003046BDE8F08F0024A246A1460122EC493F
:101CC00000E0044315F8013F203B02FA03F008420C
:101CD000F7D128782A2810D06FF02F022878A0F1A9
:101CE0003001092914D80AEB8A0102EB410144F0C2
:101CF000020400EB010A6D1CF0E701CF5FEA000A65
:101D000003D544F40054CAF1000A44F002046D1CE7
:101D100028782E2817D115F8010F44F004042A283A
:101D20000ED06FF02F022878A0F1300109290AD8CF
:101D300009EB890102EB410100EB01096D1CF2E79F
:101D400057F8049B6D1C28786C280FD006DC4C28B3
:101D500017D068280DD06A2814D104E0742810D058
:101D60007A280FD10DE044F400140AE044F4801402
:101D700001E044F440146978814202D104F58014F2
:101D80006D1C6D1C2A786E2A1FD00CDC632A31D0A2
:101D900004DC002A8BD0582A11D1A3E0642A68D031
:101DA000692A0CD165E0732A2ED004DC6F2A73D027
:101DB000702A04D19BE0752A6FD0782A6ED0104625
:101DC000DDE90F129047761C50E1C4F3025002285F
:101DD00006D0032809D0042801CF09D0066045E1C8
:101DE00001CFF117C0E9006140E101CF06803DE17C
:101DF00006703BE117F8040B8DF8000000208DF809
:101E00000100EB46012003E057F804BB4FF0FF3020
:101E100061074FF0000102D40DE008F1010188468E
:101E200049450FDA8045F8DB1BF808100029F4D18A
:101E300008E008F1010188468142FADB1BF808102E
:101E40000029F6D1DDE90F23AAEB080081462146DF
:101E500000F036F9304400EB080604E0DDE90F122B
:101E60001BF8010B9047B8F10108F7D2214648460C
:101E7000F7E00A21C4F302534FF0000B0891022B44
:101E800004D001CFC117032B09D00AE0FF1D27F0B2
:101E90000707F7E8020108E032E01FE020E000B2A7
:101EA000C117042B01D140B2C117031E71F1000309
:101EB00007DA4FF0000CD0EB0C006CEB01012D2386
:101EC00002E0230504D52B238DF82430012303E001
:101ED000E30701D02023F7E7984658E00A2110E0F5
:101EE00010210EE010204FF0000B08900CE01021A4
:101EF0004FF0000B44F004044FF00809089103E090
:101F000008214FF0000B0891C4F30253022B04D0B8
:101F100001CF0021032B06D006E0FF1D27F00707A5
:101F2000F7E8020103E080B2042B00D1C0B24FF009
:101F3000000823072BD5702A07D0DDF820C08CF0CD
:101F4000100C5CEA0B0C05D00EE040238DF8243019
:101F5000012308E050EA010306D030238DF8243035
:101F60008DF8252002239846DDF820C08CF0080C5F
:101F70005CEA0B0C0BD150EA010301D1630706D5D3
:101F800030238DF824304FF00108A9F10109582AB7
:101F900004D038A20B9208AA0A920BE03AA2F9E701
:101FA0005B46089AFEF704F90B9B9B5C0A9A521E4B
:101FB0000A92137050EA0102F2D10A98ADEB0000C8
:101FC00000F1200B600702D524F4803401E04FF0CB
:101FD0000109D94502DDA9EB0B0000E0002000EB70
:101FE0000B0141440890AAEB010AE00306D4DDE9A5
:101FF0000F232146504600F063F806444FF00009D5
:1020000008E009A911F80900DDE90F12904709F16C
:102010000109761CC145F4DBE0030CD5DDE90F2393
:102020002146504600F04CF8064404E0DDE90F126A
:1020300030209047761C0899481E08900029F5DC4E
:1020400008E00A980A990078491C0A91DDE90F1204
:102050009047761CBBF10001ABF1010BF1DC21468E
:102060005046DDE90F2300F019F806446D1C1BE60D
:10207000092801003031323334353637383961625E
:102080006364656600000000303132333435363722
:102090003839414243444546000000002DE9F041F3
:1020A000044600251E461746880404D405E0394638
:1020B0002020B0476D1C641EF9D52846BDE8F0818C
:1020C0002DE9F041044600251E469046C80301D57F
:1020D000302700E02027880404D505E04146384633
:1020E000B0476D1C641EF9D52846BDE8F0810A682A
:1020F000531C0B601070704701460448006808408C
:1021000008B1012070470020FCE7000014040140E2
:1021100010B52C4B1B6883432A4C2360231D1B687E
:102120008343241D2360231D1B688343241D2360D8
:10213000231D1B688343241D236011B101290ED187
:1021400005E0204B1B6803431E4C236008E01D4B39
:102150001B1D1B6803431B4C241D236000E000BFB4
:1021600000BF22B1012A0FD0022A27D119E0154B56
:1021700008331B680343134C08342360231D1B687A
:102180008343241D23601AE00E4B08331B688343EE
:102190000C4C08342360231D1B680343241D23605B
:1021A0000DE0084B08331B680343064C08342360DA
:1021B000231D1B680343241D236000E000BF00BFF4
:1021C00010BD000000040140024909688143014A32
:1021D0001160704700040140024909680143014A47
:1021E0001160704700040140014908607047000019
:1021F00014040140044A116821F0070141EA000279
:10220000014B1A60704700000020024070B5044680
:102210000D46E1B2054800F04CFD00BF0721034820
:1022200000F099FD0028F9D0204670BD003801402B
:1022300041617047016170470AB1016100E041618D
:102240007047000010B500228B071C0F0F2303FA04
:1022500004F204290EDA204B9B6893431E4CA360C2
:1022600023469B688C07240F00FA04F423431A4C7E
:10227000A3602FE008290EDA174BDB689343164C56
:10228000E3602346DB688C07240F00FA04F4234341
:10229000114CE3601EE00C290EDA0F4B1B699343CF
:1022A0000D4C236123461B698C07240F00FA04F4AC
:1022B0002343094C23610DE0074B5B699343064CB4
:1022C000636123465B698C07240F00FA04F42343FF
:1022D000014C636110BD000000000140F0B50446F0
:1022E00016460025002201F00F0501F0100747B146
:1022F000042E05D145F00305E76B1F43E76300E0BB
:10230000354300201EE0012787401F40C7B12268E7
:102310004FEA800C0F2707FA0CF7BA43870005FA3B
:1023200007F73A43282904D1012787401F406761F6
:1023300005E0482903D1012787401F40276122601B
:10234000471CB8B20828DED3082022E001278740C6
:102350001F40E7B16268A0F108074FEA870C0F271A
:1023600007FA0CF7BA43A0F10807BF0005FA07F710
:102370003A43282904D1012787401F40676105E0BF
:10238000482903D1012787401F4027616260471C0D
:10239000B8B21028DAD3F0BD02469068084008B100
:1023A000012070470020FCE70146886880B2704732
:1023B0000246D068084008B1012070470020FCE7C1
:1023C0000146C86880B27047C1607047FEF7AFF938
:1023D000FEF7FFF90BA0FFF725FC13A0FFF722FC87
:1023E0000FE0FEF77FF918B1FEF7A0FAFDF74CFFFA
:1023F000FEF772F918B1FFF73FF8FDF73FFFFFF75F
:1024000075FBEEE7496E69742053797374656D202E
:10241000686173206265656E2066696E69736865C0
:10242000642E0D0A000000004C4344204469737080
:102430006C617920546573742053746172742E0D2D
:102440000A0000002DE9F04103460D46164600241F
:102450000027A0462A48006800F4E060B0F5E06F6D
:1024600003D100BF4FF0040830E02548006800F4B5
:10247000E060B0F5C06F03D101274FF0030825E0FD
:102480001F48006800F4E060B0F5A06F02D1022799
:10249000B8461BE01A48006800F4E060B0F5806FB1
:1024A00003D103274FF0010810E01548006800F43D
:1024B000E060B0F5407F03D104274FF0000805E04D
:1024C0004FF4A06000F020F80227B846C7F10400DE
:1024D00005FA00F4C8F104010F20C840304004435D
:1024E00024010848C45403F01F01012088405911F9
:1024F000890001F1E021C1F80001BDE8F081000090
:102500000CED00E000E400E002490143024A1160E2
:10251000704700000000FA050CED00E0044A516825
:1025200021F0F00141EA0002014B5A6070470000BF
:1025300000100240044A516821F4E06141EA0002BF
:10254000014B5A607047000000100240044A516875
:1025500021F4605141EA0002014B5A6070470000CB
:10256000001002402DE9F04F8CB0074600200A9081
:102570004AA090E8004CC068CDE905BECDF810A097
:1025800007900FF21C1ADAE9000ACDE9020A0FF2ED
:10259000101ADAE9000ACDE9000A44484068C0F39D
:1025A00081000B900B9820B1012804D002283FD164
:1025B00003E03F4A3EE03E4A3CE03C48406800F4CD
:1025C000803CBCF5803F12D13848C06A00F080489A
:1025D000B8F1000F01D1364C00E0364C334840686A
:1025E00000F40039B9F5003F02D1334C00E0324C21
:1025F0002E484068C0F383412C48406800F00060DA
:1026000008B141F010012948406800F0804008B14D
:1026100041F020010F2901D2891C06E00F2903D3C4
:102620003E2901D8491C00E03F2104FB01F201E0F2
:102630001F4A00BF00BF1D484068C0F3031504A82F
:10264000465D22FA06F319484068C0F3022502A845
:10265000465D23FA06F0099014484068C0F3C2258D
:102660001DF8056023FA06F0089037B1012F06D057
:10267000022F06D0032F0AD106E00A9208E00A933F
:1026800006E009980A9003E008980A9000E000BF6D
:1026900000BF0A980CB0BDE8F08F000000000000F9
:1026A00000000000010203040607080900100240B0
:1026B00000127A00006CDC0200093D0000B51148F0
:1026C000006840F001000F490860002000F042F867
:1026D0000C4840680C4908400A49486008460068B0
:1026E0000A490840074908600846006820F480202D
:1026F00008604FF41F0088600846C06A20F0C040A0
:10270000C86200BD001002400C000020FFFFF6FE72
:102710000146074A02EB9110006801F01F030122F5
:102720009A40104008B1012070470020FCE70000EB
:1027300000100240064A02EB9011096800F01F03E6
:1027400001229A401143024B03EB90121160704733
:1027500000100240F0B50646002400270025B6F51B
:10276000006F1FD005DC86B3102E0BD0182E72D14F
:1027700060E0B6F5106F4BD0A6F540501038002839
:1027800069D133E004E01120FFF7C2FF0546641C65
:1027900015B9B4F5006FF6D11120FFF7B9FF00B1FC
:1027A000012759E005E040F60100FFF7B1FF0546BB
:1027B000641C1DB96FF07C408442F4D140F60100E6
:1027C000FFF7A6FF00B1012746E0FFE704E0012084
:1027D000FFF79EFF0546641C15B9B4F5A06FF6D14E
:1027E0000120FFF795FF00B1012735E005E043F236
:1027F0001100FFF78DFF0546641C15B91848844287
:10280000F5D143F21100FFF783FF00B1012723E068
:1028100005E040F60110FFF77BFF0546641C15B983
:102820000F488442F5D140F60110FFF771FF00B167
:10283000012711E004E01920FFF76AFF0546641C38
:1028400015B907488442F6D11920FFF761FF00B19E
:10285000012701E0FFE700BF00BF3846F0BD0000E0
:10286000FFFF0F00064A02EB9011096800F01F03FA
:1028700001229A401143024B03EB90121160704702
:1028800000100240064A02EB9011096800F01F0395
:1028900001229A409143024B03EB90121160704762
:1028A00000100240064A02EB9011096800F01F0375
:1028B00001229A401143024B03EB901211607047C2
:1028C0000010024002460020044B5868044B184098
:1028D00042EA01031843014B586070470010024060
:1028E000FFFFC2B701460020034AD06A20F08040B3
:1028F0000843D062704700000010024001460020EB
:10290000054A506820F40030012901D140F400301C
:10291000014A50607047000000100240044A5168AC
:1029200021F0030141EA0002014B5A6070470000A8
:10293000001002400248406800F00C0070470000A0
:1029400000100240002000213E4A126842F480320A
:102950003C4B1A6000BF401C3A4A126802F4003136
:1029600011B9B0F5006FF6D1364A126802F40032A0
:102970000AB900BFFEE7334AD26942F08052314BB8
:10298000DA61314A126842F440422F4B1A602D4AF4
:1029900052682C4B5A601A4652685A601A4652685E
:1029A00042F480625A601A46526822F440325A60F9
:1029B0001A46526842F440325A601A465268234B13
:1029C0001A40204B5A601A465268214B1A431D4B3D
:1029D0005A601A46126842F080721A6000BF194AA3
:1029E000126802F00072002AF9D0174A126842F405
:1029F0008032154B1A6000BF134A526802F48032CD
:102A0000002AF9D0104A126842F400320E4B1A60C4
:102A100000BF0D4A526802F40032002AF9D0094A78
:102A2000526822F00302074B5A601A46526842F07D
:102A300002025A6000BF034A526802F00802002AEC
:102A4000F9D070470010024000700040FFFFC3B78C
:102A50000000340810B5FFF775FF10BD10B504462F
:102A60003349601A8C4244D00CDCB4F1804F1CD046
:102A70003048204410B3B0F5806F28D0B0F5006F17
:102A800052D12DE0B0F5806F3CD0B0F58E3F03D031
:102A9000B0F5923F48D13EE040F20B30FFF702FF25
:102AA00040F20B30FFF7EEFE3FE04FF48060FFF79F
:102AB000F9FE4FF48060FFF7E5FE36E040F201409A
:102AC000FFF7F0FE40F20140FFF7DCFE2DE040F2A0
:102AD0000240FFF7E7FE40F20240FFF7D3FE24E09A
:102AE00040F20340FFF7DEFE40F20340FFF7CAFE6C
:102AF0001BE040F20440FFF7D5FE40F20440FFF730
:102B0000C1FE12E040F20540FFF7CCFE40F2054066
:102B1000FFF7B8FE09E040F20D30FFF7C3FE40F2C8
:102B20000D30FFF7AFFE00E000BF00BF10BD00009A
:102B30000010004000FCFFBF016841F0010101608E
:102B4000704700000A8882621D4A90420ED0B0F1A0
:102B5000804F0BD01B4A904208D01B4A904205D0B0
:102B60001A4A904202D01A4A90420BD1026822F0CF
:102B70007002026002684B881A43026002688B8808
:102B80001A4302608A68C262124A90420AD0124A0C
:102B9000904207D0026822F4407202600268CB883B
:102BA0001A430260064A904202D0094A904201D17B
:102BB0000A7B0263426942F00102426170470000F1
:102BC000002C01400004004000080040000C0040C0
:102BD000003401400010004000140040C2680A4365
:102BE000C2607047CA43026170470246D06800EA7B
:102BF00001031069084010B10BB10120704700209B
:102C0000FCE700210180418081804FF6FF718160E7
:102C10000021C180017370472DE9F04704460D463D
:102C20000027B846B94600261D49601A8C421CD0C0
:102C300006DC1C48204470B1B0F5806F1FD10FE056
:102C4000B0F5806F16D0B0F56C4F18D10320FFF7A8
:102C500089FC074614E00220FFF784FC07460FE0DA
:102C60000220FFF77FFC07460AE00220FFF77AFC0C
:102C7000074605E00220FFF775FC074600E000BFAD
:102C800000BF07EB5500B0FBF5F64FF6F07006EA13
:102C9000000806F00F0948EA0900A060BDE8F087C7
:102CA000004C004000BCFFBF01464868C0F308006C
:102CB0007047C1F3080242607047000010B5044637
:102CC0002049601A8C4228D006DC1F48204490B16D
:102CD000B0F5806F33D117E0B0F5806F26D0B0F536
:102CE0006C4F2CD140F20E30FFF7DCFD40F20E307D
:102CF000FFF7C8FD24E040F21140FFF7D3FD40F29A
:102D00001140FFF7BFFD1BE040F21240FFF7CAFD84
:102D100040F21240FFF7B6FD12E040F21340FFF719
:102D2000C1FD40F21340FFF7ADFD09E040F2144051
:102D3000FFF7B8FD40F21440FFF7A4FD00E000BF2C
:102D400000BF10BD004C004000BCFFBFC16841F493
:102D50000051C160704710B5024602EB9110006847
:102D600001F01F040123A340184008B1012010BD49
:102D70000020FCE710B500EB9112126801F01F046F
:102D80000123A3409A4300EB91131A6010BD10B5C4
:102D900000EB9112126801F01F040123A3401A43B3
:102DA00000EB91131A6010BD10B500EB9152126840
:102DB000C1F304440123A3409A4300EB91531A60EA
:102DC00010BD70B5024600230024C1F389101058CD
:102DD00001F01F060125B54000EA050302EB915002
:102DE0000068C1F304460125B54000EA050414B1AA
:102DF0000BB1012070BD0020FCE7C26822F4C06264
:102E0000C260C2680A43C26070470A460021C168B6
:102E100021F004011143C1607047026922F440525D
:102E2000026102690A43026170470A460021C168D3
:102E300021F008011143C1607047C26822F480523A
:102E4000C260C2680A43C260704700000000000010
:102E50000000000000000000000000000000000072
:102E60001FCC000C00000000000000000800300033
:102E700060000800300060000000022003FC1E20FB
:102E8000022003FC1E200220000000000E18110486
:102E90003FFF10840C78000000000F0010840F38F2
:102EA00000C0077818840078000000780F8410C4F0
:102EB00011240E9800E400840008080068007000E7
:102EC0000000000000000000000000000000000002
:102ED00007E018182004400200000000400220040F
:102EE000181807E0000000000000024002400180C6
:102EF0000FF001800240024000000080008000804E
:102F00000FF800800080008000000001000D000E1E
:102F100000000000000000000000000000800080B1
:102F2000008000800080008000800000000C000C09
:102F30000000000000000000000000000006001873
:102F400000600180060018002000000007F008085B
:102F500010041004080807F000000000080408042A
:102F60001FFC000400040000000000000E0C101400
:102F70001024104411840E0C000000000C181004E2
:102F80001104110412880C700000000000E00320FE
:102F9000042408241FFC0024000000001F98108453
:102FA00011041104108810700000000007F0088858
:102FB0001104110418880070000000001C001000AB
:102FC00010FC13001C001000000000000E3811441B
:102FD0001084108411440E38000000000700088C93
:102FE00010441044088807F00000000000000000B2
:102FF000030C030C000000000000000000000001B2
:1030000001060000000000000000000000800140F8
:1030100002200410080810040000022002200220F0
:1030200002200220022002200000000010040808F4
:103030000410022001400080000000000E00120079
:10304000100C106C10800F00000003E00C1813E44B
:10305000142417C4082807D000000004003C03C44F
:103060001C40074000E4001C000410041FFC110475
:10307000110411040E880070000003E00C18100405
:103080001004100410081C10000010041FFC100491
:1030900010041004080807F0000010041FFC1104BD
:1030A000110417C410040818000010041FFC1104B8
:1030B000110017C010000800000003E00C181004F5
:1030C000100410441C780040000010041FFC108401
:1030D0000080008010841FFC100400001004100405
:1030E0001FFC100410040000000000030001100188
:1030F00010011FFE10001000000010041FFC11043E
:1031000003801464181C1004000010041FFC100439
:10311000000400040004000C000010041FFC1F0049
:1031200000FC1F001FFC1004000010041FFC0C0416
:10313000030000E010181FFC100007F0080810043E
:1031400010041004080807F0000010041FFC10848D
:103150001080108010800F00000007F00818102465
:103160001024101C080A07F2000010041FFC1104B0
:10317000110011C011300E0C000400000E1C1104CF
:103180001084108410441C38000018001000100433
:103190001FFC100410001800000010001FF810049D
:1031A0000004000410041FF8100010001E0011E0BD
:1031B000001C007013801C0010001FC0103C00E0B9
:1031C0001F0000E0103C1FC000001004180C163453
:1031D00001C001C01634180C100410001C001304A8
:1031E00000FC13041C00100000000804101C1064F4
:1031F000108413041C0410180000000000000000DC
:103200007FFE4002400240020000000030000C003F
:1032100003800060001C0003000000004002400228
:1032200040027FFE000000000000000000002000BF
:1032300040004000400020000000000100010001AB
:1032400000010001000100010001000040004000F9
:103250002000000000000000000000000098012491
:1032600001440144014400FC000410001FFC0088DC
:103270000104010400880070000000000070008854
:1032800001040104010400880000000000700088AF
:103290000104010411081FFC0004000000F80144AF
:1032A00001440144014400C800000000010401047D
:1032B0000FFC1104110411001800000000D60129B0
:1032C0000129012901C90106000010041FFC008426
:1032D00001000100010400FC0004000001041904C5
:1032E00019FC0004000400000000000000030001BD
:1032F0000101190119FE0000000010041FFC002448
:10330000004001B4010C010400000000100410048E
:103310001FFC0004000400000000010401FC010483
:10332000010001FC0104010000FC010401FC008417
:1033300001000100010400FC0004000000F8010489
:1033400001040104010400F80000010101FF0085EF
:103350000104010400880070000000000070008873
:1033600001040104010501FF00010104010401FC45
:1033700000840104010001800000000000CC012451
:103380000124012401240198000000000100010033
:1033900007F80104010400000000010001F8000426
:1033A00000040004010801FC000401000180017018
:1033B000000C001001600180010001F0010C0030E0
:1033C00001C00030010C01F0010000000104018C7B
:1033D00000740170018C0104000001010181017180
:1033E000000E001801600180010000000184010C42
:1033F000013401440184010C0000000000000000C1
:10340000000001003EFC40024002000000000000FD
:103410000000FFFF0000000000000000400240022A
:103420003EFC010000000000000000006000800081
:103430008000400040002000200000005C340008B4
:1034400000000020440000006C1C0008A0340008AC
:1034500044000020440600007C1C0008000000001E
:10346000000000000000000000000000000000005C
:1034700000000000FFFF000000000000000000004E
:10348000000000000000000000000000000000003C
:103490000000000000000000000E270700000000F0
:0400000508000131BD
:00000001FF
