:020000040800F2
:100000000805002045010008ED05000891040008DE
:10001000E90500088D010008B50700080000000090
:100020000000000000000000000000001D060008A5
:100030002D04000800000000EF0500081F0600085E
:100040005F0100085F0100085F0100085F01000810
:100050005F0100085F0100085F0100085F01000800
:100060005F0100085F0100085F0100085F010008F0
:100070005F0100085F0100085F0100085F010008E0
:100080005F0100085F0100085F0100085F010008D0
:100090005F0100085F0100085F0100085F010008C0
:1000A0005F0100085F0100085F0100085F010008B0
:1000B0005F010008790600085F0100085F01000881
:1000C0005F0100085F0100085F0100085F01000890
:1000D0005F010008190700085F0100085F010008C0
:1000E0005F0100085F0100085F0100085F01000870
:1000F0005F0100085F0100085F0100085F01000860
:100100005F0100085F010008B90600085F010008F0
:100110005F0100085F0100085F0100085F0100083F
:100120005F0100085F0100085F0100085F0100082F
:10013000DFF80CD000F018F800480047CD0900089F
:10014000080500200648804706480047FEE7FEE70E
:10015000FEE7FEE7FEE7FEE7FEE7FEE7FEE7FEE777
:100160002906000831010008064C074D06E0E0684A
:1001700040F0010394E8070098471034AC42F6D3EE
:10018000FFF7DAFF6C1400088C14000800BFFEE7CC
:1001900010B540F2066000F075FE40F2046000F019
:1001A00071FE0823032228210B4800F06CFB10236A
:1001B00003222821084800F066FB2023032228217F
:1001C000054800F060FB4FF4005303222821034848
:1001D00000F059FB10BD0000001801400010014064
:1001E00010B540F2026000F04DFE40F2046000F0F5
:1001F00049FE4FF48073032210210E4800F043FBA8
:100200004FF480710B4800F037FB4023032210218C
:10021000094800F038FB4021074800F02DFB8023FF
:1002200003221021044800F02EFB8021024800F038
:1002300023FB10BD0008014000100140704710B5BD
:1002400000F04CFD102000F085FD102000F092FD24
:100250000446012C26D100F0F1FA002000F06EFCDB
:10026000002000F083FCA00200F074FC002000F0ED
:1002700049FE002000F052FE4FF45011200400F01F
:1002800031FE182000F066FD00BF192000F050FD7F
:100290000028FAD0022000F051FE00BF00F05AFE04
:1002A0000028FBD010BD00007FB504460D4640F28B
:1002B000017000F0E7FD0F4800F0E0FE684600F036
:1002C000B0FFADF800500020ADF804000294ADF886
:1002D00006006946074800F045FF0121054800F087
:1002E0008DFF002201211D2000F0BCFB014800F021
:1002F00033FF7FBD000400407FB504460D4640F249
:10030000037000F0BFFD0F4800F0B8FE684600F033
:1003100088FFADF800500020ADF804000294ADF85D
:1003200006006946074800F01DFF0121054800F05E
:1003300065FF00220121322000F094FB014800F00B
:100340000BFF7FBD000C004010B5044640F2026078
:1003500000F098FD40F20E6000F094FD4FF4007341
:10036000032218211D4800F08EFA4FF48063032207
:1003700004211A4800F087FA194800F0AFFF21461F
:10038000174800F059FF0021154801F056F80021E8
:10039000134801F062F80021114801F03EF80421F1
:1003A0000F4801F042F808210D4801F04EF840F2E4
:1003B00005310B4800F0FBFF40F20731084800F020
:1003C000F6FF074800F0D2FF00221146252000F07A
:1003D00049FB00200349087010BD000000080140DF
:1003E000003801401600002030B50346002016E01A
:1003F000B3F900509C68645D0C541C88641C24B2E2
:100400001C80B3F90040B3F90450AC4201DB002476
:100410001C80441C20B2DC88641E24B2DC80B3F94A
:100420000640002C01DD9042E2DB30BD7047000049
:1004300001B504490098086000BF02480068002820
:10044000FBD108BD1C00002070B50346002016E05B
:100450000C5CB3F902609D68AC555C88641C24B2E6
:100460005C80B3F90240B3F90450AC4201DB0024D4
:100470005C80441C20B2DC88641C24B2DC80B3F9AC
:100480000640B3F90450AC4201DA9042E0DB70BDA3
:1004900000BFFEE710B500F0C7F800F038F800F034
:1004A0001FF84FF4E13000F077F800F069F800F041
:1004B00013F800F031F800F003F800F015F810BD63
:1004C00010B5FFF765FEFF20024908700020487054
:1004D000887010BD0600002010B5FFF781FE10BD2A
:1004E00010B5FFF7ABFE10BD704730B50B460024CA
:1004F000048044808280C4808360002104E0002462
:1005000085686C544C1C21B29142F8DB30BD10B5AB
:10051000FFF795FE10BD704730B5164800684FF4E0
:100520007A72B0FBF2F1481EB0F1807F01D3012056
:100530001BE0481E4FF0E022506150170F220028A8
:1005400004DB13071C0E0C4B1C5406E013071D0E96
:100550000A4B00F00F04241F1D5500BF00204FF070
:10056000E022906107201061002008B100BFFEE783
:1005700030BD00001800002000E400E018ED00E0AD
:1005800010B5772140F2E730FFF78EFE772140F279
:10059000E730FFF7B1FE10BD10B5044600F004F8D7
:1005A0002046FFF7D1FE10BD10B5002406E0002064
:1005B0000949085509490855601C04B2642CF6DB4A
:1005C000642205490648FFF790FF64220349054865
:1005D000FFF78BFF10BD00003C000020A0000020B2
:1005E000240000203000002000BFFEE77047704765
:1005F0000146C88808B9012070470020FCE70000C8
:1006000070B504460025012221460348FFF7ECFEA1
:10061000C5B2284670BD000024000020704710B508
:1006200000F06EF810BD000010B51048006840F4EE
:1006300070000E4908600E48006840F001000C4947
:10064000086000204860C862084600680949084000
:10065000074908604FF41F0088600846006820F4CE
:100660008020086000F006FD10BD000088ED00E06D
:1006700000100240FFFFF6FE10B501210B4800F00C
:10068000C4FD012803D10121084800F0BBFD084842
:100690000088401C0649088008460088022804DBC0
:1006A0000020088001200349087010BD00040040AC
:1006B000120000201000002010B501210D4800F0AC
:1006C000A4FD012803D101210A4800F09BFD0A483E
:1006D0000088401C00B2084908800846B0F90000B4
:1006E000B0F57A7F04DB0020088001200349087000
:1006F00010BD0000000C004014000020110000207C
:100700000448006820B103480068401E01490860A1
:10071000704700001C00002008B5002000901F4911
:100720001F4800F05EFE78B11C491D4800F04CFEE9
:10073000252000F055F81A4800F0C6FDC0B2009020
:100740009DF8000000F038F81649154800F049FE01
:10075000012806D11349124800F036FE104800F077
:10076000B3FD11490E4800F03CFEB0B1252000F069
:1007700037F86846FFF744FF9DF80010084800F07E
:10078000A8FD0A48FFF734FF38B100200849087077
:1007900040F20731024800F0FDFD08BD05030500E9
:1007A0000038014000050300070307002400002073
:1007B0001600002000BFFEE731B500240122694683
:1007C0000248FFF741FEC4B2204638BD3000002089
:1007D000014A024900F021B8550800082000002015
:1007E000002807DB00F01F0201219140024A430963
:1007F00042F823107047000080E200E002E008C8E1
:10080000121F08C1002AFAD170477047002001E08A
:1008100001C1121F002AFBD170472DE9F041164695
:100820000F460446002503E03946B047641C6D1CA2
:1008300020780028F8D12846BDE8F081044A1168E4
:1008400021F0070141EA0002014B1A6070470000E5
:100850000020024070B504460D46E1B2054800F0A4
:1008600038FD00BF0721034800F085FD0028F9D0BE
:10087000204670BD00380140416170470AB10161F6
:1008800000E041617047F0B504461646002500229D
:1008900001F00F0501F0100747B1042E05D145F016
:1008A0000305E76B1F43E76300E0354300201EE0CC
:1008B000012787401F40C7B122684FEA800C0F27ED
:1008C00007FA0CF7BA43870005FA07F73A432829D5
:1008D00004D1012787401F40676105E0482903D103
:1008E000012787401F4027612260471CB8B20828B3
:1008F000DED3082022E0012787401F40E7B162686D
:10090000A0F108074FEA870C0F2707FA0CF7BA4344
:10091000A0F10807BF0005FA07F73A43282904D1D8
:10092000012787401F40676105E0482903D101275F
:1009300087401F4027616260471CB8B21028DAD395
:10094000F0BD02469068084008B1012070470020C1
:10095000FCE70246D068084008B10120704700203B
:10096000FCE770B504460D4629462046FFF7E9FF2F
:1009700080B91420FFF75CFD29462046FFF7E1FF10
:1009800040B900BF29462046FFF7DBFF0028F9D019
:10099000012070BD0020FCE72DE9F04106460F461E
:1009A000144639463046FFF7D4FFC0F10100C5B206
:1009B0002A4639463046FFF761FF2CB1012D01D19F
:1009C000012000E000202070BDE8F081FFF762FD0B
:1009D000FFF7A1FD14A0FFF7FBFE23E008211B4851
:1009E000FFF7BFFF012804D1194A01021948FFF798
:1009F000D3FF10211548FFF7B4FF012804D1164A90
:100A000040211648FFF7C8FF20211048FFF7A9FF33
:100A1000012804D1124A80211048FFF7BDFF0A20A7
:100A2000FFF706FDDAE70000496E69742053797319
:100A300074656D20686173206265656E2066696EFD
:100A400069736865642E0D0A0000000000180140FB
:100A500000000020000801400100002000100140BB
:100A6000020000202DE9F04103460D461646002401
:100A70000027A0462A48006800F4E060B0F5E06F67
:100A800003D100BF4FF0040830E02548006800F4AF
:100A9000E060B0F5C06F03D101274FF0030825E0F7
:100AA0001F48006800F4E060B0F5A06F02D1022793
:100AB000B8461BE01A48006800F4E060B0F5806FAB
:100AC00003D103274FF0010810E01548006800F437
:100AD000E060B0F5407F03D104274FF0000805E047
:100AE0004FF4A06000F020F80227B846C7F10400D8
:100AF00005FA00F4C8F104010F20C8403040044357
:100B000024010848C45403F01F01012088405911F2
:100B1000890001F1E021C1F80001BDE8F081000089
:100B20000CED00E000E400E002490143024A1160DC
:100B3000704700000000FA050CED00E0044A51681F
:100B400021F0F00141EA0002014B5A6070470000B9
:100B500000100240044A516821F4E06141EA0002B9
:100B6000014B5A607047000000100240044A51686F
:100B700021F4605141EA0002014B5A6070470000C5
:100B8000001002402DE9F04F8CB0074600200A907B
:100B90004AA090E8004CC068CDE905BECDF810A091
:100BA00007900FF21C1ADAE9000ACDE9020A0FF2E7
:100BB000101ADAE9000ACDE9000A44484068C0F397
:100BC00081000B900B9820B1012804D002283FD15E
:100BD00003E03F4A3EE03E4A3CE03C48406800F4C7
:100BE000803CBCF5803F12D13848C06A00F0804894
:100BF000B8F1000F01D1364C00E0364C3348406864
:100C000000F40039B9F5003F02D1334C00E0324C1A
:100C10002E484068C0F383412C48406800F00060D3
:100C200008B141F010012948406800F0804008B147
:100C300041F020010F2901D2891C06E00F2903D3BE
:100C40003E2901D8491C00E03F2104FB01F201E0EC
:100C50001F4A00BF00BF1D484068C0F3031504A829
:100C6000465D22FA06F319484068C0F3022502A83F
:100C7000465D23FA06F0099014484068C0F3C22587
:100C80001DF8056023FA06F0089037B1012F06D051
:100C9000022F06D0032F0AD106E00A9208E00A9339
:100CA00006E009980A9003E008980A9000E000BF67
:100CB00000BF0A980CB0BDE8F08F000000000000F3
:100CC00000000000010203040607080900100240AA
:100CD00000127A00006CDC0200093D0000B51148EA
:100CE000006840F001000F490860002000F042F861
:100CF0000C4840680C4908400A49486008460068AA
:100D00000A490840074908600846006820F4802026
:100D100008604FF41F0088600846C06A20F0C04099
:100D2000C86200BD001002400C000020FFFFF6FE6C
:100D30000146074A02EB9110006801F01F030122EF
:100D40009A40104008B1012070470020FCE70000E5
:100D500000100240064A02EB9011096800F01F03E0
:100D600001229A401143024B03EB9012116070472D
:100D700000100240F0B50646002400270025B6F515
:100D8000006F1FD005DC86B3102E0BD0182E72D149
:100D900060E0B6F5106F4BD0A6F540501038002833
:100DA00069D133E004E01120FFF7C2FF0546641C5F
:100DB00015B9B4F5006FF6D11120FFF7B9FF00B1F6
:100DC000012759E005E040F60100FFF7B1FF0546B5
:100DD000641C1DB96FF07C408442F4D140F60100E0
:100DE000FFF7A6FF00B1012746E0FFE704E001207E
:100DF000FFF79EFF0546641C15B9B4F5A06FF6D148
:100E00000120FFF795FF00B1012735E005E043F22F
:100E10001100FFF78DFF0546641C15B91848844280
:100E2000F5D143F21100FFF783FF00B1012723E062
:100E300005E040F60110FFF77BFF0546641C15B97D
:100E40000F488442F5D140F60110FFF771FF00B161
:100E5000012711E004E01920FFF76AFF0546641C32
:100E600015B907488442F6D11920FFF761FF00B198
:100E7000012701E0FFE700BF00BF3846F0BD0000DA
:100E8000FFFF0F00064A02EB9011096800F01F03F4
:100E900001229A401143024B03EB901211607047FC
:100EA00000100240064A02EB9011096800F01F038F
:100EB00001229A409143024B03EB9012116070475C
:100EC00000100240064A02EB9011096800F01F036F
:100ED00001229A401143024B03EB901211607047BC
:100EE0000010024002460020044B5868044B184092
:100EF00042EA01031843014B58607047001002405A
:100F0000FFFFC2B701460020034AD06A20F08040AC
:100F10000843D062704700000010024001460020E4
:100F2000054A506820F40030012901D140F4003016
:100F3000014A50607047000000100240044A5168A6
:100F400021F0030141EA0002014B5A6070470000A2
:100F5000001002400248406800F00C00704700009A
:100F600000100240002000213E4A126842F4803204
:100F70003C4B1A6000BF401C3A4A126802F4003130
:100F800011B9B0F5006FF6D1364A126802F400329A
:100F90000AB900BFFEE7334AD26942F08052314BB2
:100FA000DA61314A126842F440422F4B1A602D4AEE
:100FB00052682C4B5A601A4652685A601A46526858
:100FC00042F480625A601A46526822F440325A60F3
:100FD0001A46526842F440325A601A465268234B0D
:100FE0001A40204B5A601A465268214B1A431D4B37
:100FF0005A601A46126842F080721A6000BF194A9D
:10100000126802F00072002AF9D0174A126842F4FE
:101010008032154B1A6000BF134A526802F48032C6
:10102000002AF9D0104A126842F400320E4B1A60BE
:1010300000BF0D4A526802F40032002AF9D0094A72
:10104000526822F00302074B5A601A46526842F077
:1010500002025A6000BF034A526802F00802002AE6
:10106000F9D070470010024000700040FFFFC3B786
:101070000000340810B5FFF775FF10BD10B5044629
:101080003349601A8C4244D00CDCB4F1804F1CD040
:101090003048204410B3B0F5806F28D0B0F5006F11
:1010A00052D12DE0B0F5806F3CD0B0F58E3F03D02B
:1010B000B0F5923F48D13EE040F20B30FFF702FF1F
:1010C00040F20B30FFF7EEFE3FE04FF48060FFF799
:1010D000F9FE4FF48060FFF7E5FE36E040F2014094
:1010E000FFF7F0FE40F20140FFF7DCFE2DE040F29A
:1010F0000240FFF7E7FE40F20240FFF7D3FE24E094
:1011000040F20340FFF7DEFE40F20340FFF7CAFE65
:101110001BE040F20440FFF7D5FE40F20440FFF729
:10112000C1FE12E040F20540FFF7CCFE40F2054060
:10113000FFF7B8FE09E040F20D30FFF7C3FE40F2C2
:101140000D30FFF7AFFE00E000BF00BF10BD000094
:101150000010004000FCFFBF016841F00101016088
:10116000704700000A8882621D4A90420ED0B0F19A
:10117000804F0BD01B4A904208D01B4A904205D0AA
:101180001A4A904202D01A4A90420BD1026822F0C9
:101190007002026002684B881A43026002688B8802
:1011A0001A4302608A68C262124A90420AD0124A06
:1011B000904207D0026822F4407202600268CB8835
:1011C0001A430260064A904202D0094A904201D175
:1011D0000A7B0263426942F00102426170470000EB
:1011E000002C01400004004000080040000C0040BA
:1011F000003401400010004000140040C2680A435F
:10120000C2607047CA43026170470246D06800EA74
:1012100001031069084010B10BB101207047002094
:10122000FCE700210180418081804FF6FF718160E1
:101230000021C180017370472DE9F04704460D4637
:101240000027B846B94600261D49601A8C421CD0BA
:1012500006DC1C48204470B1B0F5806F1FD10FE050
:10126000B0F5806F16D0B0F56C4F18D10320FFF7A2
:1012700089FC074614E00220FFF784FC07460FE0D4
:101280000220FFF77FFC07460AE00220FFF77AFC06
:10129000074605E00220FFF775FC074600E000BFA7
:1012A00000BF07EB5500B0FBF5F64FF6F07006EA0D
:1012B000000806F00F0948EA0900A060BDE8F087C1
:1012C000004C004000BCFFBF01464868C0F3080066
:1012D0007047C1F3080242607047000010B5044631
:1012E0002049601A8C4228D006DC1F48204490B167
:1012F000B0F5806F33D117E0B0F5806F26D0B0F530
:101300006C4F2CD140F20E30FFF7DCFD40F20E3076
:10131000FFF7C8FD24E040F21140FFF7D3FD40F293
:101320001140FFF7BFFD1BE040F21240FFF7CAFD7E
:1013300040F21240FFF7B6FD12E040F21340FFF713
:10134000C1FD40F21340FFF7ADFD09E040F214404B
:10135000FFF7B8FD40F21440FFF7A4FD00E000BF26
:1013600000BF10BD004C004000BCFFBFC16841F48D
:101370000051C160704710B5024602EB9110006841
:1013800001F01F040123A340184008B1012010BD43
:101390000020FCE710B500EB9112126801F01F0469
:1013A0000123A3409A4300EB91131A6010BD10B5BE
:1013B00000EB9112126801F01F040123A3401A43AD
:1013C00000EB91131A6010BD10B500EB915212683A
:1013D000C1F304440123A3409A4300EB91531A60E4
:1013E00010BD70B5024600230024C1F389101058C7
:1013F00001F01F060125B54000EA050302EB9150FC
:101400000068C1F304460125B54000EA050414B1A3
:101410000BB1012070BD0020FCE7C26822F4C0625D
:10142000C260C2680A43C26070470A460021C168B0
:1014300021F004011143C1607047026922F4405257
:10144000026102690A43026170470A460021C168CD
:1014500021F008011143C1607047C26822F4805234
:10146000C260C2680A43C260704700008C14000862
:101470000000002024000000FC070008B014000851
:1014800024000020E40400000C0800080000000014
:101490000000000000000000010101000000000049
:1014A00000000000000E2707000000000000000000
:0400000508000131BD
:00000001FF
