:020000040800F2
:10000000480E002065010008270400086503000869
:100010002304000835020008FB0900080000000066
:100020000000000000000000000000008D08000833
:1000300055030008000000002B0400089108000888
:100040007F0100087F0100087F0100087F01000890
:100050007F0100087F0100087F0100087F01000880
:100060007F0100087F0100087F0100087F01000870
:100070007F0100087F0100087F0100087F01000860
:1000800069090008000000007F0100087F010008E6
:100090007F0100087F0100087F0100087F01000840
:1000A0007F0100087F0100087F0100087F01000830
:1000B0007F010008000000007F0100080000000030
:1000C0007F010008000000007F0100080000000020
:1000D0000000000000000000000000000000000020
:1000E00000000000000000007F0100080000000088
:1000F0000000000000000000000000000000000000
:100100007F01000800000000000000000000000067
:1001100000000000000000000000000000000000DF
:1001200000000000000000000000000000000000CF
:1001300000000000000000000000000000000000BF
:100140000000000000000000000000007F01000827
:10015000DFF80CD000F040F800480047911000088C
:10016000480E00200648804706480047FEE7FEE7A5
:10017000FEE7FEE7FEE7FEE7FEE7FEE7FEE7FEE757
:10018000990800085101000840EA01039B0703D0C9
:1001900009E008C9121F08C0042AFAD203E011F8C6
:1001A000013B00F8013B521EF9D2704730B50B46B7
:1001B000014600202022012409E021FA02F59D4297
:1001C00005D303FA02F5491B04FA02F52844151E6B
:1001D000A2F10102F1DC30BD064C074D06E0E068FB
:1001E00040F0010394E8070098471034AC42F6D37E
:1001F000FFF7B2FF741C0008941C000810B54FF400
:10020000805405220121002000F042FD012000F071
:10021000BDFD04E0201EA4F1010400D110BD0220A8
:1002200000F02CFD0028F5D0022000F01FFD00F0AA
:1002300099FDF3E700BFFEE7002001490870704711
:100240005200002010B54FF4A06001F021F810BD5D
:100250007FB504460D4640F2017001F08FFA0F4859
:1002600001F06AFB684601F038FCADF80050002050
:10027000ADF804000294ADF806006946074801F0A5
:10028000C3FB0121054801F015FC002201211020CB
:1002900000F0A8FF014801F0B1FB7FBD0004004061
:1002A00010B5044640F2115001F068FA40F20E60B9
:1002B00001F064FA4FF4007201214FF0904000F019
:1002C0004FFE4FF40073012202214FF0904000F0E6
:1002D0007AFE4FF40073032200214FF0904000F0AB
:1002E00099FE4FF4806201214FF0904000F038FEFB
:1002F0004FF48063012202214FF0904000F063FE32
:10030000134801F037FC2146114801F0F1FB0021B0
:100310000F4801F08FFC00210D4801F09FFC0021E7
:100320000B4801F073FC0021094801F063FC002137
:10033000074801F053FC0021054801F073FC082137
:10034000034801F083FC024801F034FC10BD0000BA
:100350000038014000BFFEE7014800787047000008
:100360005200002000BFFEE710B500F026F84FF461
:10037000E13000F045F800F007F800F059F800F01F
:1003800021F800F043F810BD10B540F2115001F013
:10039000F5F94023002201214FF0904000F013FEB8
:1003A0004023032200214FF0904000F033FE402113
:1003B0004FF0904000F003FE10BD10B5FFF742FF74
:1003C00010BD70472DE9F041022001F01BF80546F1
:1003D000012001F017F80746AF4201D96C0000E098
:1003E0002C460648B4FBF0F0401E86B2314640F27F
:1003F000F310FFF72DFFBDE8F081000040420F0031
:1004000010B504462046FFF74BFF10BD10B500F0B5
:100410009FFD062140F6B83000F056FD00F090FD3B
:1004200010BD00BFFEE700BFFEE700BFFEE7000013
:1004300010B540F2115001F0A1F940F2135001F053
:100440009DF940F2096001F099F94FF40053002240
:100450000121214800F0B7FD4FF400530322002191
:100460001D4800F0D7FD4FF48043002201211A48B7
:1004700000F0A9FD4FF4804303220021164800F04C
:10048000C9FD4FF40051144800F099FD4FF480412C
:10049000114800F094FD0223002203214FF0904008
:1004A00000F091FD00F0CAFB062000F005FF0021DE
:1004B000022000F081FC00214FF4807000F07CFCF1
:1004C000002000F0A9FB002000F052FC00F0C0FB6F
:1004D00000F084FB10BD00000008004810B5034682
:1004E0000948C07868B10848007818700648407814
:1004F00008700548807810700020034CE0700120DF
:1005000010BD0020FCE700004C00002070B52DED70
:10051000028BD1480078401CCF490870084600780B
:10052000142801DB00200870CB4800780A2835D059
:1005300006DC02280BD003280FD006287DD127E047
:100540000B2831D00E2859D01328F7D15CE04FF496
:100550000051C24800F035FD7AE1FFF74FFE044636
:100560001022BF49BF4800EE104AB8EE400A00F022
:1005700063FCB0EE408ABC480088B0F5967F06DA8E
:10058000BA48B949098800EB810080ED008A5FE133
:100590004FF40051B14800F012FD59E14FF4804191
:1005A000AE4800F00EFD53E1FFF728FE044610228E
:1005B000AB49AF4800EE104AB8EE400A00F03CFCF0
:1005C000B0EE408AA8480088B0F5967F15DAA948B1
:1005D000A549098800EB810080ED008AA2480088C7
:1005E000401CA1490880A4480088B0F5967F04DA31
:1005F000A1480088401CA049088029E14FF48041AF
:10060000964800F0DCFC23E197480088B0F5967F1F
:100610007EDB00209449088097480088002878DD18
:10062000924DD5ED005AF0EE651AD5ED005AB0EEB8
:10063000652A904DD5ED005A00E008E1F0EE652AFC
:10064000D5ED005AB0EE653A012045E0874D05EB47
:100650008005D5ED005AF4EEE15AF1EE10FA06DD10
:10066000824D05EB8005D5ED005AF0EE651A7F4D01
:1006700005EB8005D5ED005AF4EEC25AF1EE10FA02
:1006800006D27A4D05EB8005D5ED005AB0EE652A0D
:10069000784D05EB8005D5ED005AF4EEE25AF1EE07
:1006A00010FA06DD734D05EB8005D5ED005AF0EE2E
:1006B000652A704D05EB8005D5ED005AF4EEC35A5E
:1006C000F1EE10FA06D26B4D05EB8005D5ED005A20
:1006D000B0EE653A451CA8B2674D2D88A842B5DB3F
:1006E00072EE835AB0EE006A85EE860A72EEC30A95
:1006F000DFED625AB4EEE50AF1EE10FA06D3F2EE3F
:10070000045AF4EEE50AF1EE10FA0AD2002501E0EF
:100710009CE098E05A4E35707570B5700125F57003
:1007200090E071EE825AB0EE006AC5EE863A31EE84
:10073000C24AC4EE235A80EE806AC5EE864ADFEDD7
:10074000515AB3EE096AB0EE651A06EE641ADFED8F
:100750004B5AB4EEE51AF1EE10FA03DDDFED475A1D
:10076000B0EE651ADFED485AB4EEE51AF1EE10FA74
:1007700003D2DFED455AB0EE651A0021B0EE405AC3
:100780006FF0630301202FE03A4D05EB8005D5EDB6
:10079000005AF4EEC55AF1EE10FA23DD354D05EBA3
:1007A0008005D5ED005A451E324E06EB850595EDC8
:1007B000006AF4EEC65AF1EE10FA13DD354605EB89
:1007C0008005D5ED005A451C06EB850595ED006AC0
:1007D000F4EEC65AF1EE10FA04DDC51A192D01DD4A
:1007E000491C0346451CA8B2234D2D886D1E854229
:1007F000CADC01EB8105AA00FA2A00DDFA22204EAC
:100800007270FCEEC15A15EE905A3570B5EEC00A02
:10081000F1EE10FA10D0C0EE805A9FED186A65EE26
:10082000865AFCEEE55A15EE905AB5703546AD780D
:100830002DB90125B57002E00025114EB5700125D6
:100840000F4EF57000BF00200B49088000E000BF8C
:1008500000BFBDEC028B70BD5000002000080048B6
:10086000040000206000002048000020E800002074
:10087000A4000020980500204A0000200000C84283
:100880004C0000200000DC4200008C4200BFFEE76C
:1008900000B500F08DF800BD10B52D48006840F49B
:1008A00070002B4908602B48006840F0010029497E
:1008B00008604FF4001000BF2649096801F00201EA
:1008C00019B9011EA0F10100F6D122484068224961
:1008D00008402049486008464068204908401D49B2
:1008E0004860084600681E4908401A4908600846E2
:1008F000C06A1C4908401749C8620846006B40F2AC
:1009000003118843134908630846006B20F48030C4
:1009100008630846006B20F0004008630846406BFF
:1009200020F0010048630B48C030006820F480309C
:10093000C1F8C000002088600649CC31086000F092
:10094000D7FF00214FF0006000F0ACFC10BD0000AC
:1009500088ED00E0001002400C00FF08FFFFC277A6
:10096000FFFFF2FEF0FFFF3F10B501210D4801F03F
:10097000A8F8012814D101210A4801F09FF8FFF7D7
:10098000C5FD09480088401C0749088008460088C2
:10099000B0F5FA6F04DB00200880012003490870DD
:1009A00010BD000000040040540000205200002050
:1009B0000448006820B103480068401E01490860EF
:1009C000704700005C0000201CB50446AA208DF88A
:1009D000000003208DF8010020788DF80200607877
:1009E0008DF80300A0788DF8040055208DF80500DF
:1009F0000621684600F004F81CBD00BFFEE70000B9
:100A00002DE9F04106460C460027002514E0715DF3
:100A10000C4801F0ABF8002704E07F1CB7F5803FDD
:100A200000D306E040F20771064801F0C8F800283C
:100A3000F3D000BF681CC5B2A542E8DB2046BDE884
:100A4000F0810000003801400FB4054B10B503A938
:100A5000044A029800F018F810BC5DF814FB00007E
:100A6000950E00085800002002E008C8121F08C1B7
:100A7000002AFAD170477047002001E001C1121F1F
:100A8000002AFBD1704700002DE9FF4F89B09B463B
:100A90000446002506E025280BD05A460B999047BE
:100AA000641C6D1C20780028F5D10DB02846BDE8E7
:100AB000F08F0027B8460122474900E0074314F8A9
:100AC000013F203B02FA03F00842F7D120782E289C
:100AD00019D114F8010F47F004072A280ED06FF03F
:100AE0002F022078A0F1300109290CD808EB8801E9
:100AF00002EB410100EB0108641CF2E70A98641C58
:100B000050F8048B0A9020780028CED0642808D0B2
:100B1000692806D075281ED05A460B9990476D1C3F
:100B200058E00A994FF00A0901C90A91002802DA2F
:100B300040422D2102E0390504D52B218DF82010EB
:100B4000012103E0F90704D02021F7E78A4608AE27
:100B50000DE00021FAE70A994FF00A0901C90A914C
:100B6000F7E74946FFF722FB303106F8011D002860
:100B7000F7D1ADEB060000F12009780701D44FF062
:100B80000108C84502DDA8EB090000E0002080460E
:100B9000002706E008A85A46C05D0B9990476D1CD7
:100BA0007F1C5745F6DB04E030205A460B999047EE
:100BB0006D1CB8F10001A8F10108F5DC05E016F89C
:100BC000010B5A460B9990476D1CB9F10001A9F130
:100BD0000109F4DC641C65E7092801000D48006880
:100BE00040F008000B49086000BF0A48006800F0A8
:100BF00008000028F9D10748006840F004000549C2
:100C0000086000BF0348006800F004000028F9D124
:100C1000704700000824014030B10749096841F4D9
:100C20000061054A116005E00349096821F400618B
:100C3000014A1160704700000824014010B540F2DD
:100C4000093000F0BBFD40F2093000F0A7FD10BDF7
:100C50000548006800F0010028B90348006840F02A
:100C600001000149086070470824014002490968F1
:100C70008143014A11607047002401400146002071
:100C8000024A12680A4002B1012070470024014064
:100C900070B5144606280ED2314D2A6800EB800646
:100CA0001F25B540AA4300EB800501FA05F52A434C
:100CB0002B4D2A602AE00C2812D2294D2D1F2A68BC
:100CC000851F05EB85061F25B540AA43851F05EB4B
:100CD000850501FA05F52A43214D2D1F2A6015E0EF
:100CE000102813D21E4D083D2A68A0F10C0505EB13
:100CF00085061F25B540AA43A0F10C0505EB850527
:100D000001FA05F52A43164D083D2A600A2910D23A
:100D1000134D243D2B6801EB41060725B540AB433D
:100D200001EB410504FA05F52B430D4D243D2B60E5
:100D300015E0132913D20A4D283D2B68A1F10A05AD
:100D400005EB45060725B540AB43A1F10A0505EBC8
:100D5000450504FA05F52B43014D283D2B6070BD78
:100D6000342401400148006880B270474C2401409F
:100D70000549096821F04071034A1160114609686C
:100D800001431160704700000424014000F001019C
:100D900029B10849096841F48001064A116000F050
:100DA000020129B10349096841F40011014A1160A7
:100DB0007047000008240140E9B100F480722AB1B4
:100DC0001C4A126842F480721A4B1A6000F4806266
:100DD0002AB1184A126842F48062164B1A6000F079
:100DE00002022AB3134A121D126842F00202114B8A
:100DF0001B1D1A601CE000F480722AB10D4A1268B3
:100E000022F480720B4B1A6000F480622AB1094A06
:100E1000126822F48062074B1A6000F002023AB1B5
:100E2000044A121D126822F00202024B1B1D1A60B6
:100E3000704700000424014010B5F0EE400A03465C
:100E40009FED131AB0EE410A104609E0441E03EB71
:100E5000840494ED001A03EB800484ED001A401E14
:100E60000028F3DCC3ED000A00200EE003EB800451
:100E7000D4ED001A01EB800494ED002AB0EE401A84
:100E800001EE821AB0EE410A401C9042EEDD10BD28
:100E90000000000070B504460E460025E1B2094886
:100EA00000F064FE04E06D1CB5F5803F00D306E061
:100EB00040F20771034800F082FE0028F3D000BF23
:100EC000204670BD0038014030B502460B46164C36
:100ED000002145F25550154D286000BF1348C068E9
:100EE00000F00101601E041E01D00029F6D109B1F5
:100EF000002030BD0D4843600B4C00BF0B48C0685C
:100F000000F00201601E041E01D00029F6D109B1D3
:100F10000020EEE7C2F30B00044DA8604AF6AA20B9
:100F200028600120E5E70000FFFF0F0000300040CF
:100F30004AF6AA20014908607047000000300040CE
:100F40004CF6CC400149086070470000003000407A
:100F500045F25550014908607047000000300040DC
:100F6000F0B503461C6A5D6A00200DE0012686404C
:100F700016403EB187000F26BE40B443860001FAFA
:100F800006F63443461CB0B20828EFD3082011E01F
:100F90000126864016405EB1A0F10806B7000F2674
:100FA000BE40B543A0F10806B60001FA06F6354387
:100FB000461CB0B21028EBD31C625D62F0BD8162AA
:100FC000704781617047F0B504460D4616462168AA
:100FD000E268002019E0012787401F409FB14FEAD7
:100FE000400C032707FA0CF7B943470005FA07F747
:100FF00039434FEA400C032707FA0CF7BA4347007E
:1010000006FA07F73A43471CB8B21028E3D3216029
:10101000E260F0BDF0B504460E46012E03D16768CC
:101020001F43676002E067689F436760A1684FF6EF
:10103000FF77BA4216D1E56B00200EE0012787400A
:101040001F4047B14FEA400C032707FA0CF739431A
:10105000012787403D43471CB8B21028EED3A1605A
:10106000E56314E000200FE0012787401F404FB1E7
:101070004FEA400C032707FA0CF7B943470002FA7E
:1010800007F73943471CB8B21028EDD3A160F0BD73
:101090008EB01C2235A102A8FFF776F8FFF764F99D
:1010A000FFF78FF963208DF8000050208DF80100C4
:1010B0000A208DF8020000208DF803006846FFF733
:1010C00083FC1B2102A8FFF79BFC2FA0FFF7BCFCB1
:1010D000022000F097F90446012000F093F905463C
:1010E000002000F08FF9064623462A4631462DA0FF
:1010F000FFF7AAFC38E0FFF71BFF09AA0AA90BA813
:10110000FFF7ECF988B19DF82C008DF830009DF8C0
:1011100028008DF831009DF824008DF83200002061
:101120008DF833000CA8FFF74FFCFFF715F9D8B185
:10113000FFF782F825480068401C244908600846EB
:10114000016823A0FFF780FC2048007800F0010030
:1011500028B940214FF09040FFF733FF04E04021D1
:101160004FF09040FFF72BFFC5E700004445425584
:10117000473A2052617720554152542053656E649E
:1011800020546573740D0A0053797374656D205390
:1011900074617274202837324D487A292E2E2E0D14
:1011A0000A000000434B5F5359533A2025642C201A
:1011B000434B5F4148423A2025642C20434B5F411A
:1011C0005042313A2025640D0A0000000000002042
:1011D00052756E2054696D653A20256420736563ED
:1011E0000D0A00002DE9F04103460D461646002485
:1011F0000027A0462448006800F4E060B0F5A06F26
:1012000015D006DCB0F5407F18D0B0F5806F19D14D
:1012100010E0B0F5C06F06D0B0F5E06F12D1002736
:101220004FF0040815E001274FF0030811E00227F2
:10123000B8460EE003274FF001080AE004274FF0FC
:10124000000806E04FF4A06000F022F80227B8463C
:1012500000BF00BFC7F1040005FA00F4C8F10401A3
:101260000F20C8403040044324010848C45403F010
:101270001F01012088405911890001F1E021C1F8C6
:101280000001BDE8F08100000CED00E000E400E0AA
:1012900002490143024A1160704700000000FA054C
:1012A0000CED00E0024A0A400243024B1A6070470C
:1012B00080FFFF1F08ED00E05049496821F44041DC
:1012C0004E4A51601146096B4D4A11404B4A116319
:1012D0000A2871D2DFE800F005111D273642535F5E
:1012E000717D4649096B21F48031444A11631146EE
:1012F000096B21F4807111637DE04049096B41F471
:1013000080313E4A11631146096B21F480711163EB
:1013100071E03A494968394A51601146096B41F414
:101320008071116367E035494968344A516011465C
:10133000096B41F0004111631146096B41F4807162
:10134000116358E02D49496841F480412B4A5160AE
:101350001146096B41F4807111634CE027494968DB
:1013600041F48041254A51601146096B41F000412A
:1013700011631146096B41F4807111633BE01F4911
:10138000496841F400411D4A51601146096B41F41E
:10139000807111632FE01949496841F40041174AEF
:1013A00051601146096B41F0004111631146096B10
:1013B00041F4807111631EE01CE01049496841F45A
:1013C00040410E4A51601146096B41F4807111632E
:1013D00011E00A49496841F44041084A5160114608
:1013E000096B41F0004111631146096B41F48071B2
:1013F000116300E000BF00BF704700000010024012
:10140000FFFEFE7F2DE9F04F92B006464FF0000937
:10141000CDF84490CDF84090002400200025002213
:10142000CDF83C900023CDF83890CDF83490CDF82D
:1014300030900021CDF82C90CDF82890CDF8249054
:10144000CDF820908046002784460FF2083999E8AD
:10145000004CD9F80C90CDE905BECDF810A0CDF820
:101460001C900FF2F42ADAE9009ACDE9029A0FF201
:10147000E82ADAE9009ACDE9009ADFF8E892D9F88B
:101480000490C9F38109CDF84490DDF84490B9F196
:10149000000F06D0B9F1010F05D0B9F1020F61D1EB
:1014A00003E0B14D60E0B04D5EE0DFF8B892D9F8EE
:1014B0000490C9F38341DFF8AC92D9F80490C9F3E2
:1014C000C069CDF82C90DFF89C92D9F82C904FEAA7
:1014D000D979CDF82890DDF82C90B9F1000F01D022
:1014E000113104E00F2901D1491C00E0891CDDF80D
:1014F0002890B9F1010F00D11F31DFF86892D9F8B7
:101500000490C9F30049CDF82490DFF85892D9F837
:101510002C90C9F38079CDF82090DDF82490B9F1B2
:10152000000F1AD0DFF83C92D9F82C9009F00F097F
:1015300009F10108DDF82090B9F1000F06D1DFF8BC
:101540002892B9FBF8F909FB01F50AE0DFF81C92D3
:10155000B9FBF8F909FB01F503E0DFF8149201FB90
:1015600009F501E0804D00BF00BFDFF8F891D9F820
:101570000490C9F303170DF1100919F807C025FAF3
:101580000CF2DFF8E091D9F80490C9F302270DF1CD
:10159000080919F807C022FA0CF9CDF83C90DFF8D9
:1015A000C491D9F80490C9F3C2271DF807C022FAE4
:1015B0000CF3072E6FD2DFE806F00406080A0C8051
:1015C00094002846C1E01046BFE00F98BDE01846E1
:1015D000BBE0DFF89091D9F8309009F48079B9F543
:1015E000807F12D0DFF87C91D9F8309009F48039EF
:1015F000B9F5803F04D0DFF87C91CDF838905AE0FF
:10160000DFF87491CDF8389055E0DFF85891D9F8AB
:101610000490C9F38139CDF84090DFF84891D9F8AA
:1016200030904FEAD974DDF84090B9F1000F09D03D
:10163000B9F1010F13D0B9F1020F1DD0B9F1030FA9
:1016400037D129E024B94FEA5309CDF8389005E0A5
:101650004FF00309B2FBF9F9CDF838902AE024B92C
:101660004FEA9309CDF8389005E04FF00509B2FB39
:10167000F9F9CDF838901DE034B94FF00609B3FB05
:10168000F9F9CDF8389005E04FF00709B2FBF9F908
:10169000CDF838900EE057E024B94FEAD309CDF8E1
:1016A000389005E04FF00909B2FBF9F9CDF8389010
:1016B00000E000BF00BF0E9847E0DFF8A890D9F81F
:1016C000309009F04009B9F1400F04D048F21209F6
:1016D000CDF8349003E04FF40049CDF834900D98E4
:1016E00033E0DFF88090D9F8309009F00309B9F1C0
:1016F000000F01D10C9325E0DFF86890D9F8309005
:1017000009F00309B9F1010F01D10C951AE0DFF8D6
:101710005490D9F8309009F00309B9F1020F04D1BF
:101720004FF40049CDF830900CE0DFF83890D9F84C
:10173000309009F00309B9F1030F03D1DFF82890C5
:10174000CDF830900C9800E000BF00BF12B0BDE8AB
:10175000F08F000000000000000000000102030400
:10176000060708090010024000127A00006CDC0233
:1017700000093D00809FD500003FAB01064A02EB07
:101780009011096800F01F0301229A401143024B97
:1017900003EB90121160704700100240064A02EB02
:1017A0009011096800F01F0301229A409143024BF7
:1017B00003EB90121160704700100240064A02EBE2
:1017C0009011096800F01F0301229A401143024B57
:1017D00003EB9012116070470010024010B53F48B3
:1017E000006840F001003D4908604FF4001400BF5C
:1017F0003A48006800F0020018B9201EA4F1010464
:10180000F6D13648006800F0020010B900F074F814
:1018100010BD3348006820F00700801C3049086084
:101820002E4840682D4948600846406840F4005002
:1018300048600846406840F4806048600846406858
:1018400028490840254948600846C06A264908409A
:101850002249C86208464068244908431F49486035
:101860000846C06AC8620846006840F08070086098
:101870004FF4001400BF1948006800F0007018B958
:10188000201EA4F10104F6D11448006800F0007095
:1018900010B900F031F8BBE71048406820F00300B1
:1018A0000E4948600846406840F0020048604FF426
:1018B000001400BF0948406800F0080018B9201E55
:1018C000A4F10104F6D10548406800F0080010B901
:1018D00000F012F89CE700BF9AE7000000100240F9
:1018E00000200240FFFFC0F7F0FFFF3F00000408A8
:1018F00010B5FFF773FF10BD0E4840680D494860F2
:1019000008464068486008464068486008464068A5
:1019100020F0030048600846406848604FF400101B
:1019200000BF04494968002119B9011EA0F1010056
:10193000F7D170470010024010B504462D49601AD7
:101940008C4214D009DCB4F1804F19D02A482044CD
:10195000F8B1B0F5E05F49D124E0B0F5A05F2AD03E
:10196000B0F5C05F30D0B0F5E05F3FD135E040F278
:101970000B30FFF723FF40F20B30FFF70FFF36E08D
:101980004FF48060FFF71AFF4FF48060FFF706FF07
:101990002DE040F20140FFF711FF40F20140FFF758
:1019A000FDFE24E04FF48160FFF708FF4FF48160F3
:1019B000FFF7F4FE1BE04FF44470FFF7FFFE4FF417
:1019C0004470FFF7EBFE12E040F21130FFF7F6FE35
:1019D00040F21130FFF7E2FE09E040F21230FFF76B
:1019E000EDFE40F21230FFF7D9FE00E000BF00BF6D
:1019F00010BD0000002C014000FCFFBF016841F059
:101A000001010160704700000A888262234A904207
:101A100005D0B0F1804F02D0214A90420BD102682C
:101A200022F07002026002684B881A43026002686A
:101A30008B881A4302608A68C262184A904211D0A9
:101A4000B0F1804F0ED0164A90420BD0154A90420A
:101A500008D0154A904205D0144A904202D0144A48
:101A6000904207D1026822F4407202600268CB887B
:101A70001A430260094A904208D00B4A904205D0AE
:101A80000A4A904202D00A4A904201D10A7B02637C
:101A9000426942F00102426170470000002C01409F
:101AA000000400400020004000400140004401408C
:101AB00000480140C2680A43C2607047CA430261DD
:101AC00070470246D06800EA01031069084010B16F
:101AD0000BB1012070470020FCE70021018041800C
:101AE00081804FF6FF7181600021C18001737047D2
:101AF0002DE9F04704460D460027B846B9460026B2
:101B00001948204438B1B0F5744F09D10620FFF7C9
:101B100079FC074605E00220FFF774FC074600E069
:101B200000BF00BF206800F4004070B1780000EBF7
:101B30005500B0FBF5F64FF6F07006EA0008C6F364
:101B4000420948EA0900E0600CE007EB5500B0FBF1
:101B5000F5F64FF6F07006EA000806F00F0948EABD
:101B60000900E060BDE8F08700BCFFBFC1F30802D8
:101B70008262704710B504460D48204458B1B0F554
:101B8000744F11D140F20E30FFF718FE40F20E30C4
:101B9000FFF704FE09E040F21140FFF70FFE40F2AC
:101BA0001140FFF7FBFD00E000BF00BF10BD0000CB
:101BB00000BCFFBF016841F001010160704710B532
:101BC000024602EB9110006801F01F040123A340BC
:101BD000184008B1012010BD0020FCE7026822F087
:101BE00001020260826822F40072826082680A4305
:101BF00082607047026822F001020260826822F46B
:101C00008072826082680A4382607047026822F0B4
:101C100001020260026822F4C062026002680A43A4
:101C200002607047026822F00402026002680A4300
:101C300002607047026822F001020260426822F4EA
:101C40004052426042680A4342607047026822F094
:101C50000802026002680A4302607047026822F0CC
:101C600001020260026822F48052026002680A43A4
:101C700002607047941C0008000000206000000013
:101C8000680A0008F41C000860000020E80D00004D
:101C9000780A000800000000F4FDD43B55C1283C40
:101CA0003108AC3C9A771C3DB459753D7AC7A93DC3
:101CB000865AD33D20D2EF3D910FFA3D20D2EF3D21
:101CC000865AD33D7AC7A93DB459753D9A771C3DD4
:101CD0003108AC3C55C1283CF4FDD43B0000000069
:101CE00000000000000000000000000000000000F4
:041CF00000000000F0
:04000005080001519D
:00000001FF
