:020000040800F2
:100000002804002065010008DB03000849030008FC
:10001000D703000821020008110A000800000000B0
:100020000000000000000000000000005908000867
:100030004503000800000000AD0400087D0800082A
:100040007F0100087F0100087F0100087F01000890
:100050007F0100087F0100087F0100087F01000880
:100060007F0100087F0100087F0100087F01000870
:100070007F0100087F0100087F0100087F01000860
:1000800055090008000000007F0100087F010008FA
:100090007F0100087F0100087F0100087F01000840
:1000A0007F0100087F0100087F010008E9090008BE
:1000B0007F010008000000007F0100080000000030
:1000C0007F010008000000007F0100080000000020
:1000D0000000000000000000000000000000000020
:1000E00000000000000000007F0100080000000088
:1000F0000000000000000000000000000000000000
:100100007F01000800000000000000000000000067
:1001100000000000000000000000000000000000DF
:1001200000000000000000000000000000000000CF
:1001300000000000000000000000000000000000BF
:100140000000000000000000000000007F01000827
:10015000DFF80CD000F02EF800480047D912000854
:10016000280400200648804706480047FEE7FEE7CF
:10017000FEE7FEE7FEE7FEE7FEE7FEE7FEE7FEE757
:10018000850800085101000830B50B4601460020E3
:100190002022012409E021FA02F59D4205D303FA49
:1001A00002F5491B04FA02F52844151EA2F10102CA
:1001B000F1DC30BD064C074D06E0E06840F001037D
:1001C00094E8070098471034AC42F6D3FFF7C4FF19
:1001D0000C2200082C22000810B5022000F0A6FE18
:1001E00010B94FF6FF7010BD022000F097FE00F02E
:1001F00011FFF8E710B507220121002000F0A0FE52
:10020000122000F08BFE0548006820F480000349AE
:100210000860012000F012FF10BD0000082401401A
:1002200000BFFEE710B54FF4A06001F03DF910BD2E
:100230007FB504460D4640F2017001F0B5FB0F4852
:1002400001F00AFE684601F0E4FEADF8005000201F
:10025000ADF804000294ADF806006946074801F0C5
:1002600063FE0121054801F0B5FE00221146102071
:1002700001F0C4F8014801F051FE7FBD00040040C8
:1002800010B5044640F2115001F08EFB40F20E60B2
:1002900001F08AFB4FF4007201214FF0904000F012
:1002A00083FF4FF40073012202214FF0904000F0D1
:1002B000AEFF4FF40073032200214FF0904000F096
:1002C000CDFF4FF4806201214FF0904000F06CFFB1
:1002D0004FF48063012202214FF0904000F097FF1D
:1002E000174801F0E9FE2146154801F09DFE002166
:1002F000134801F06AFF0021114801F07AFF002144
:100300000F4801F04EFF00210D4801F015FF0021BC
:100310000B4801F005FF0421094801F04EFF0821B8
:10032000074801F05EFF0521054801F011FF00229A
:1003300002211B2001F062F8014801F0DDFE10BD32
:100340000038014000BFFEE700BFFEE710B500F037
:100350000EF84FF4E13000F02DF800F007F800F04F
:10036000A7F800F009F800F02BF810BD704710B5A1
:10037000FFF758FF10BD70472DE9F041022001F052
:1003800057F90546012001F053F90746AF4201D95C
:100390006C0000E02C460648B4FBF0F0401E86B22C
:1003A000314640F2F310FFF743FFBDE8F081000053
:1003B00040420F0010B504462046FFF761FF10BD14
:1003C00010B500F0E9FE062140F6B83000F0A0FEBE
:1003D00000F0DAFE10BD00BFFEE700BFFEE7000040
:1003E0002B49097831B101290AD002291DD00329EE
:1003F00048D12CE0AB2802D10121254A117045E0FB
:10040000022808D1234908700021234A11700221D3
:100410001F4A117008E0AB2803D101211C4A11705A
:1004200002E000211A4A117030E01B490A7809786D
:10043000491C194B19701949885419460978154AED
:100440001278914202DB0321114A11701EE05528F7
:100450000ED112490978124A117010494978114A8F
:1004600011700121104A11700021094A117008E031
:10047000AB2803D10121064A117002E00021044A91
:10048000117003E00021024A117000BF00BF7047E5
:100490001D0000201E000020230000201F0000205F
:1004A0001B0000201C0000201A00002000BFFEE7F7
:1004B00010B540F2115001F077FA40F2135001F0FC
:1004C00073FA40F2096001F06FFA40F21C7001F01B
:1004D0006BFA00F0FDFF4FF4005300220121314878
:1004E00000F095FE4FF40053032200212D4800F048
:1004F000B5FE4FF48043002201212A4800F087FE18
:100500004FF4804303220021264800F0A7FE4FF459
:100510000051244800F077FE4FF48041214800F05C
:1005200072FE1C23002201214FF0904000F06FFE6C
:100530001C23032200214FF0904000F08FFE042086
:1005400000F0DEF800F05EF80223002203214FF0F5
:10055000904000F05CFE00F07FFC062000F0C2FF3F
:100560000021022000F080FD00214FF4807000F097
:100570007BFD002000F05EFC002000F051FD012119
:10058000084600F027FC4FF46021012000F0A6FC93
:100590000121084600F078FC00F068FC00F0FCFB4C
:1005A00010BD0000000800480148007870470000B6
:1005B0000600002010B1044A1278027011B1034AFB
:1005C00012780A70704700000D0000200E00002015
:1005D000034A12880280034A12880A80704700008A
:1005E000020000200400002010B1044A128802809A
:1005F00011B1034A12880A807047000008000020E9
:100600000A00002000B589B040F2125001F0CCF988
:100610004FF4C26001F0C8F94FF4404300220221B8
:100620002A4800F0F4FD4FF44043032200212748FC
:1006300000F014FE4FF440420121244800F0B4FDC4
:10064000234801F009FC01A801F0E3FC0020ADF80B
:100650000400ADF80600ADF80800902003900020DB
:10066000ADF80A008DF8100001A9194801F05CFCF2
:1006700005A801F0E8FB012005900420ADF8180062
:100680000020ADF81A00ADF81C00ADF81E00ADF862
:10069000200005AA00210E4801F064FA002211464C
:1006A0000B4801F090FB60220021094801F05EFB3D
:1006B00000221146064801F099FB0121044801F08F
:1006C0009CFC034801F02AFC09B000BD000400486E
:1006D0000040014008B1012100E00021054A1170ED
:1006E0001146097829B90421034A11700621034AE9
:1006F000117070470C0000200D0000200E0000203B
:1007000070B50446002600251C2604F0010008B13F
:1007100045F0040504F0020008B145F0080504F0B6
:10072000040008B145F0100531464FF0904000F04C
:100730006AFD29464FF0904000F067FD04F0070085
:100740000149087070BD00000600002010B538484F
:100750000078401C3649087008460078142801DBF0
:100760000020087032480078801E0D285CD2DFE837
:1007700000F0075B1316255B5B5B305B3C3F500072
:100780002C48027800212C4801F01DFB4FF4005149
:100790002A4800F03AFD48E0FFF72CFD45E0FFF75E
:1007A0001BFD04464FF6FF70844201D024480480AC
:1007B00024480088401C2349088036E00022114666
:1007C0001D4801F000FB4FF400511C4800F01BFDD8
:1007D0002BE01D4802780021174801F0F4FA4FF48D
:1007E0008041164800F011FD1FE0FFF703FD1CE0FB
:1007F000FFF7F2FC04464FF6FF70844201D0134825
:10080000048013480088401C114908801148007872
:100810000BE000221146084801F0D5FA4FF4804160
:10082000064800F0F0FC00E000BF00BF10BD000073
:100830000F0000200D00002000400140000800488B
:1008400002000020080000200E000020040000200C
:100850000A0000200C00002000BFFEE770B504462F
:100860000D462A46214602A000F0D4F870BD0000D3
:10087000253034752C253034750D0A0000B500F094
:100880008FF800BD10B52D48006840F470002B496A
:1008900008602B48006840F00100294908604FF4C7
:1008A000001000BF2649096801F0020119B9011EB4
:1008B000A0F10100F6D122484068224908402049B1
:1008C000486008464068204908401D49486008467D
:1008D00000681E4908401A4908600846C06A1C4959
:1008E00008401749C8620846006B40F2031188436C
:1008F000134908630846006B20F4803008630846FB
:10090000006B20F0004008630846406B20F00100B7
:1009100048630B48C030006820F48030C1F8C00044
:10092000002088600649CC31086001F0F7F800210A
:100930004FF0006000F0C2FD10BD000088ED00E047
:10094000001002400C00FF08FFFFC277FFFFF2FE1D
:10095000F0FFFF3F10B501210E4801F042FB0128D6
:1009600016D101210B4801F039FB00F005FCFFF71F
:10097000EDFE09480088401C0749088008460088A9
:10098000B0F5FA6F04DB00200880012003490870ED
:1009900010BD0000000400401200002010000020E4
:1009A0000448006820B103480068401E01490860FF
:1009B000704700002400002002460848007850B12B
:1009C0000748007810700748007808700020034B33
:1009D0001870012070470020FCE700001A0000207A
:1009E0001B0000201C00002010B50749074801F03B
:1009F000BCFB38B1054801F055FBC4B22046FFF7F7
:100A0000EFFC00BF10BD00000500050700380140E5
:100A100000BFFEE70FB4054B10B503A9044A0298C6
:100A200000F018F810BC5DF814FB0000E910000895
:100A30001400002002E008C8121F08C1002AFAD1E1
:100A400070477047002001E001C1121F002AFBD14E
:100A5000704700002DE9FF4F8BB088460546002601
:100A600006E025280BD0DDE90D1290476D1C761CA1
:100A700028780028F5D10FB03046BDE8F08F00246B
:100A8000A146A2460122AE4900E0044315F8013F09
:100A9000203B02FA03F00842F7D128782A2810D028
:100AA0006FF02F022878A0F13001092915D809EB41
:100AB000890102EB410144F0020400EB01096D1CC5
:100AC000F0E758F8041B5FEA010903D544F4005429
:100AD000C9F1000944F002046D1C28782E2817D1B2
:100AE00015F8010F44F004042A280ED06FF02F02ED
:100AF0002878A0F1300109290AD80AEB8A0102EB13
:100B0000410100EB010A6D1CF2E758F804AB6D1CC3
:100B100028786C280FD006DC4C2817D068280DD018
:100B20006A2814D104E0742810D07A280FD10DE07F
:100B300044F400140AE044F4801401E044F4401446
:100B40006978814202D104F580146D1C6D1C2878EF
:100B5000692865D006DC00288DD0632827D064285A
:100B600006D15DE06E2808D073282AD0752877D08A
:100B7000DDE90D129047761CE0E0C4F30250022834
:100B800009D003280DD0D8F8001004280DD00E602D
:100B900008F10408D2E0D8F80010F217C1E90062A9
:100BA000F6E7D8F800100E80F2E70E70F0E718F8BC
:100BB000041B8DF8001000208DF80100EB46012089
:100BC00003E058F804BB4FF0FF3061074FF0000717
:100BD00001D40AE07F1C57450DDA8742FADB1BF887
:100BE00007100029F6D106E07F1C8742FCDB1BF8CA
:100BF00007100029F8D1DDE90D23A9EB0700814694
:100C0000214600F0B1F83044C61904E0DDE90D12C8
:100C10001BF8010B90477F1EF8D22146484688E01A
:100C200058F8040BC4F302514FF00A0B032900D10A
:100C300000B2042900D140B2002802DA40422D213E
:100C400002E0210505D52B218DF82410012104E0B7
:100C500006E0E10710D02021F6E708AF089113E085
:100C600058F8040BC4F302514FF00A0B032900D1CA
:100C700080B2042900D1C0B20021EEE75946FFF747
:100C800083FA303107F8011D0028F7D1ADEB0700DA
:100C900000F1200B600702D524F4803401E04FF00E
:100CA000010ADA4502DDAAEB0B0000E000208246D3
:100CB00000EB0B0108980144A9EB01000A90E00346
:100CC00006D4DDE90D2321460A9800F04DF80644CC
:100CD0004FF0000908E009A911F80900DDE90D123B
:100CE000904709F10109761C08998945F3DBE00377
:100CF0000CD5DDE90D2321460A9800F035F80644AD
:100D000004E0DDE90D1230209047761CBAF10001B5
:100D1000AAF1010AF5DC05E0DDE90D1217F8010B77
:100D20009047761CBBF10001ABF1010BF4DC0A9893
:100D30002146DDE90D2300F005F806446D1C97E619
:100D4000092801002DE9F041044600251E461746FA
:100D5000880404D405E039462020B0476D1C641E89
:100D6000F9D52846BDE8F0812DE9F041044600257B
:100D70001E469046C80301D5302700E0202788048E
:100D800004D505E041463846B0476D1C641EF9D5D0
:100D90002846BDE8F08100000D48006840F00800DA
:100DA0000B49086000BF0A48006800F008000028EE
:100DB000F9D10748006840F004000549086000BF09
:100DC0000348006800F004000028F9D170470000D3
:100DD0000824014010B5012802D0022825D110E0D6
:100DE000134A126822F47002114B1A601A461268F4
:100DF0004B1E4FF4700404EA03531A430C4B1A6061
:100E000014E00B4A0C32126822F44012084B0C33E7
:100E10001A601A4612684B1E4FF4401404EA03533A
:100E20001A43034B0C331A6000E000BF00BF10BD33
:100E30002C24014030B10749096841F40061054A9A
:100E4000116005E00349096821F40061014A11605D
:100E5000704700000824014010B540F2093000F04E
:100E6000C3FD40F2093000F0AFFD10BD0548006839
:100E700000F0010028B90348006840F00100014972
:100E8000086070470824014091B100F001022AB1C6
:100E9000114A126842F480120F4B1A6000F00202ED
:100EA000C2B10D4A126842F400420B4B1A6011E0C5
:100EB00000F001022AB1084A126822F48012064B9F
:100EC0001A6000F002022AB1034A126822F40042BA
:100ED000014B1A607047000008240140012802D02D
:100EE000022816D10AE00C4A126822F460220A4B4A
:100EF0001A601A4612680A431A600BE0064A126822
:100F000022F4E042044B1A601A4612680A431A603F
:100F100000E000BF00BF7047082401400249096893
:100F20008143014A116070470024014001460020BE
:100F3000024A12680A4002B10120704700240140B1
:100F400070B5144606280ED2314D2A6800EB800693
:100F50001F25B540AA4300EB800501FA05F52A4399
:100F60002B4D2A602AE00C2812D2294D2D1F2A6809
:100F7000851F05EB85061F25B540AA43851F05EB98
:100F8000850501FA05F52A43214D2D1F2A6015E03C
:100F9000102813D21E4D083D2A68A0F10C0505EB60
:100FA00085061F25B540AA43A0F10C0505EB850574
:100FB00001FA05F52A43164D083D2A600A2910D288
:100FC000134D243D2B6801EB41060725B540AB438B
:100FD00001EB410504FA05F52B430D4D243D2B6033
:100FE00015E0132913D20A4D283D2B68A1F10A05FB
:100FF00005EB45060725B540AB43A1F10A0505EB16
:10100000450504FA05F52B43014D283D2B6070BDC5
:10101000342401400148006880B270474C240140EC
:101020000549096821F04071034A116011460968B9
:1010300001431160704700000424014000F00101E9
:1010400029B10849096841F48001064A116000F09D
:10105000020129B10349096841F40011014A1160F4
:101060007047000008240140E9B100F480722AB101
:101070001C4A126842F480721A4B1A6000F48062B3
:101080002AB1184A126842F48062164B1A6000F0C6
:1010900002022AB3134A121D126842F00202114BD7
:1010A0001B1D1A601CE000F480722AB10D4A126800
:1010B00022F480720B4B1A6000F480622AB1094A54
:1010C000126822F48062074B1A6000F002023AB103
:1010D000044A121D126822F00202024B1B1D1A6004
:1010E000704700000424014070B504460D46E1B28B
:1010F000064800F0DCFF00BF40F20771034801F032
:1011000000F80028F8D0204670BD000000380140EB
:1011100030B502460B46164C002145F25550154D90
:10112000286000BF1348C06800F00101601E041E63
:1011300001D00029F6D109B1002030BD0D4843602F
:101140000B4C00BF0B48C06800F00201601E041E7B
:1011500001D00029F6D109B10020EEE7C2F30B005F
:10116000044DA8604AF6AA2028600120E5E70000A7
:10117000FFFF0F00003000404AF6AA200149086036
:1011800070470000003000404CF6CC400149086038
:10119000704700000030004045F25550014908609A
:1011A0007047000000300040F0B503461C6A5D6ADD
:1011B00000200DE00126864016403EB187000F2634
:1011C000BE40B443860001FA06F63443461CB0B272
:1011D0000828EFD3082011E00126864016405EB1B2
:1011E000A0F10806B7000F26BE40B543A0F10806DF
:1011F000B60001FA06F63543461CB0B21028EBD310
:101200001C625D62F0BD8162704781617047F0B51C
:1012100004460D4616462168E268002019E00127C1
:1012200087401F409FB14FEA400C032707FA0CF795
:10123000B943470005FA07F739434FEA400C032743
:1012400007FA0CF7BA43470006FA07F73A43471C78
:10125000B8B21028E3D32160E260F0BDF0B50446D7
:101260000E46012E03D167681F43676002E067687E
:101270009F436760A1684FF6FF77BA4216D1E56BCE
:1012800000200EE0012787401F4047B14FEA400C85
:10129000032707FA0CF73943012787403D43471CD2
:1012A000B8B21028EED3A160E56314E000200FE08F
:1012B000012787401F404FB14FEA400C032707FA30
:1012C0000CF7B943470002FA07F73943471CB8B295
:1012D0001028EDD3A160F0BD88B0FFF737F8FFF715
:1012E0004AF80020FFF7F6F90520FFF709FA00BFDA
:1012F000002575E0694601A8FFF75EFB00283ED097
:101300009DF80400012807D19DF80000FFF7F8F9C7
:101310000020FFF7DFF932E09DF8040002280CD12D
:10132000FFF742F90446072C03DA611CC8B2FFF745
:10133000E7F90020FFF7CEF921E09DF8040003282B
:101340000CD1FFF731F90446002C03DD611EC8B251
:10135000FFF7D6F90020FFF7BDF910E09DF8040073
:1013600004280CD09DF80400052808D19DF8001031
:1013700009B1012100E000210846FFF7ABF904A9FB
:1013800005A8FFF731F9BDF81000A84228D0BDF834
:10139000105006A907A8FFF71BF9BDF81810BDF8F3
:1013A0001C00FFF75BFA0F480088401C0D490880BD
:1013B00008460088642813DB0020088002A903A8DF
:1013C000FFF7F8F8FFF7F0F806469DF808209DF8BB
:1013D0000C1005A0FFF71EFB314606A0FFF71AFB15
:1013E00088E7000000000020502C25752C25750D85
:1013F0000A000000472C25750D0A00002DE9F04178
:1014000003460D46164600240027A04624480068DF
:1014100000F4E060B0F5A06F15D006DCB0F5407FB9
:1014200018D0B0F5806F19D110E0B0F5C06F06D0BC
:10143000B0F5E06F12D100274FF0040815E0012746
:101440004FF0030811E00227B8460EE003274FF0E3
:1014500001080AE004274FF0000806E04FF4A060FE
:1014600000F022F80227B84600BF00BFC7F1040011
:1014700005FA00F4C8F104010F20C84030400443CD
:1014800024010848C45403F01F0101208840591169
:10149000890001F1E021C1F80001BDE8F081000000
:1014A0000CED00E000E400E002490143024A116053
:1014B000704700000000FA050CED00E0024A0A4007
:1014C0000243024B1A60704780FFFF1F08ED00E0E7
:1014D0000348006840F480700149086070470000CC
:1014E000007000405049496821F440414E4A516023
:1014F0001146096B4D4A11404B4A11630A2871D2BB
:10150000DFE800F005111D273642535F717D464923
:10151000096B21F48031444A11631146096B21F4AF
:10152000807111637DE04049096B41F480313E4A8E
:1015300011631146096B21F48071116371E03A491E
:101540004968394A51601146096B41F48071116351
:1015500067E035494968344A51601146096B41F0EA
:10156000004111631146096B41F48071116358E029
:101570002D49496841F480412B4A51601146096B5D
:1015800041F4807111634CE02749496841F480417E
:10159000254A51601146096B41F000411163114623
:1015A000096B41F4807111633BE01F49496841F4C4
:1015B00000411D4A51601146096B41F4807111636D
:1015C0002FE01949496841F40041174A516011461A
:1015D000096B41F0004111631146096B41F48071C0
:1015E00011631EE01CE01049496841F440410E4A75
:1015F00051601146096B41F48071116311E00A4991
:10160000496841F44041084A51601146096B41F074
:10161000004111631146096B41F48071116300E0D0
:1016200000BF00BF7047000000100240FFFEFE7FB9
:101630002DE9F04F92B006464FF00009CDF84490E6
:10164000CDF840900024002000250022CDF83C90E9
:101650000023CDF83890CDF83490CDF830900021AB
:10166000CDF82C90CDF82890CDF82490CDF820908E
:101670008046002784460FF2083999E8004CD9F8D3
:101680000C90CDE905BECDF810A0CDF81C900FF25E
:10169000F42ADAE9009ACDE9029A0FF2E82ADAE9A7
:1016A000009ACDE9009ADFF8E892D9F80490C9F3DE
:1016B0008109CDF84490DDF84490B9F1000F06D0CF
:1016C000B9F1010F05D0B9F1020F61D103E0B14DBD
:1016D00060E0B04D5EE0DFF8B892D9F80490C9F34D
:1016E0008341DFF8AC92D9F80490C9F3C069CDF812
:1016F0002C90DFF89C92D9F82C904FEAD979CDF84C
:101700002890DDF82C90B9F1000F01D0113104E0E0
:101710000F2901D1491C00E0891CDDF82890B9F19E
:10172000010F00D11F31DFF86892D9F80490C9F396
:101730000049CDF82490DFF85892D9F82C90C9F3DD
:101740008079CDF82090DDF82490B9F1000F1AD0FF
:10175000DFF83C92D9F82C9009F00F0909F1010843
:10176000DDF82090B9F1000F06D1DFF82892B9FB1F
:10177000F8F909FB01F50AE0DFF81C92B9FBF8F96A
:1017800009FB01F503E0DFF8149201FB09F501E024
:10179000804D00BF00BFDFF8F891D9F80490C9F37D
:1017A00003170DF1100919F807C025FA0CF2DFF83C
:1017B000E091D9F80490C9F302270DF1080919F84E
:1017C00007C022FA0CF9CDF83C90DFF8C491D9F8A3
:1017D0000490C9F3C2271DF807C022FA0CF3072EA4
:1017E0006FD2DFE806F00406080A0C809400284651
:1017F000C1E01046BFE00F98BDE01846BBE0DFF83F
:101800009091D9F8309009F48079B9F5807F12D0A1
:10181000DFF87C91D9F8309009F48039B9F5803F30
:1018200004D0DFF87C91CDF838905AE0DFF874915D
:10183000CDF8389055E0DFF85891D9F80490C9F305
:101840008139CDF84090DFF84891D9F830904FEACF
:10185000D974DDF84090B9F1000F09D0B9F1010F4A
:1018600013D0B9F1020F1DD0B9F1030F37D129E020
:1018700024B94FEA5309CDF8389005E04FF0030939
:10188000B2FBF9F9CDF838902AE024B94FEA930970
:10189000CDF8389005E04FF00509B2FBF9F9CDF825
:1018A00038901DE034B94FF00609B3FBF9F9CDF8D3
:1018B000389005E04FF00709B2FBF9F9CDF8389000
:1018C0000EE057E024B94FEAD309CDF8389005E08F
:1018D0004FF00909B2FBF9F9CDF8389000E000BFEC
:1018E00000BF0E9847E0DFF8A890D9F8309009F0D3
:1018F0004009B9F1400F04D048F21209CDF83490F4
:1019000003E04FF40049CDF834900D9833E0DFF850
:101910008090D9F8309009F00309B9F1000F01D196
:101920000C9325E0DFF86890D9F8309009F00309AE
:10193000B9F1010F01D10C951AE0DFF85490D9F8F4
:10194000309009F00309B9F1020F04D14FF40049B6
:10195000CDF830900CE0DFF83890D9F8309009F0ED
:101960000309B9F1030F03D1DFF82890CDF83090C7
:101970000C9800E000BF00BF12B0BDE8F08F00007F
:10198000000000000000000001020304060708092F
:101990000010024000127A00006CDC0200093D00D9
:1019A000809FD500003FAB01064A02EB9011096809
:1019B00000F01F0301229A401143024B03EB9012E7
:1019C0001160704700100240064A02EB901109684E
:1019D00000F01F0301229A409143024B03EB901247
:1019E0001160704700100240064A02EB901109682E
:1019F00000F01F0301229A401143024B03EB9012A7
:101A0000116070470010024010B53F48006840F078
:101A100001003D4908604FF4001400BF3A480068D7
:101A200000F0020018B9201EA4F10104F6D13648D6
:101A3000006800F0020010B900F074F810BD3348DF
:101A4000006820F00700801C304908602E4840687C
:101A50002D4948600846406840F4005048600846F8
:101A6000406840F480604860084640682849084063
:101A7000254948600846C06A264908402249C8628C
:101A800008464068244908431F4948600846C06A20
:101A9000C8620846006840F0807008604FF4001487
:101AA00000BF1948006800F0007018B9201EA4F1AA
:101AB0000104F6D11448006800F0007010B900F07D
:101AC00031F8BBE71048406820F003000E49486039
:101AD0000846406840F0020048604FF4001400BF20
:101AE0000948406800F0080018B9201EA4F101045C
:101AF000F6D10548406800F0080010B900F012F86F
:101B00009CE700BF9AE7000000100240002002405E
:101B1000FFFFC0F7F0FFFF3F0000040810B5FFF71C
:101B200073FF10BD0E4840680D4948600846406884
:101B300048600846406848600846406820F0030056
:101B400048600846406848604FF4001000BF0449F0
:101B50004968002119B9011EA0F10100F7D17047B1
:101B60000010024010B531B1012945D002297DD0C5
:101B700003297CD1CBE0036A23F00103036283696C
:101B800023F003038361036A146823430362036A37
:101B900023F002030362036AD488234303626F4B7A
:101BA000984208D06E4B984205D06E4B984202D0B6
:101BB0006D4B98421FD1036A23F004030362036A4A
:101BC000948823430362036A23F008030362036AD1
:101BD000148923430362436823F48073436043689A
:101BE000548923434360436823F40073436043688C
:101BF000948923434360AEE0036A23F01003036239
:101C0000836923F440738361036A146843EA04130D
:101C10000362036A23F020030362036AD48843EA61
:101C2000041303624D4B984226D1036A23F040030C
:101C30000362036A948843EA04130362036A23F08D
:101C400080030362036A148943EA0413036243684E
:101C500023F4806343604368548943EA8403436008
:101C6000436823F400634360436801E011E071E0DE
:101C7000948943EA84034360394B984208D143680E
:101C800023F4806343604368548943EA84034360D8
:101C900061E0036A23F480730362C36923F00303E2
:101CA000C361036A146843EA04230362036A23F4EA
:101CB00000730362036AD48843EA04230362274B58
:101CC000984223D1036A23F480630362036A9488F1
:101CD00043EA04230362036A23F400630362036A92
:101CE000148943EA04230362436823F48053436066
:101CF0004368548943EA04134360436823F4005360
:101D000043604368948943EA0413436023E0036A11
:101D100023F480530362C36923F44073C361036AED
:101D2000146843EA04330362036A23F40053036232
:101D3000036AD48843EA04330362084B984208D10B
:101D4000436823F4804343604368548943EA84131F
:101D5000436000E000BF00BF10BD0000002C014048
:101D600000400140004401400048014031B10129D8
:101D70000CD0022913D0032922D118E0836923F063
:101D8000700383618369134383611AE0836923F4D9
:101D9000E0438361836943EA0223836111E0C369FD
:101DA00023F07003C361C3691343C36109E0C369CE
:101DB00023F4E043C361C36943EA0223C36100E043
:101DC00000BF00BF704731B1012906D0022906D0FB
:101DD000032908D105E0426306E0826304E0C263A0
:101DE00002E0026400E000BF00BF704731B101298A
:101DF0000CD0022913D0032922D118E0836923F0E3
:101E0000080383618369134383611AE0836923F4C0
:101E100000638361836943EA0223836111E0C3693C
:101E200023F00803C361C3691343C36109E0C369B5
:101E300023F40063C361C36943EA0223C36100E082
:101E400000BF00BF7047002101608180C180018117
:101E5000418181817047000010B504462D49601A08
:101E60008C4214D009DCB4F1804F19D02A482044A8
:101E7000F8B1B0F5E05F49D124E0B0F5A05F2AD019
:101E8000B0F5C05F30D0B0F5E05F3FD135E040F253
:101E90000B30FFF7A9FD40F20B30FFF795FD36E060
:101EA0004FF48060FFF7A0FD4FF48060FFF78CFDDA
:101EB0002DE040F20140FFF797FD40F20140FFF7AF
:101EC00083FD24E04FF48160FFF78EFD4FF48160C5
:101ED000FFF77AFD1BE04FF44470FFF785FD4FF4E8
:101EE0004470FFF771FD12E040F21130FFF77CFD06
:101EF00040F21130FFF768FD09E040F21230FFF7C1
:101F000073FD40F21230FFF75FFD00E000BF00BF3D
:101F100010BD0000002C014000FCFFBF016841F033
:101F200001010160704700000A888262234A9042E2
:101F300005D0B0F1804F02D0214A90420BD1026807
:101F400022F07002026002684B881A430260026845
:101F50008B881A4302608A68C262184A904211D084
:101F6000B0F1804F0ED0164A90420BD0154A9042E5
:101F700008D0154A904205D0144A904202D0144A23
:101F8000904207D1026822F4407202600268CB8856
:101F90001A430260094A904208D00B4A904205D089
:101FA0000A4A904202D00A4A904201D10A7B026357
:101FB000426942F00102426170470000002C01407A
:101FC0000004004000200040004001400044014067
:101FD00000480140C2680A43C2607047CA430261B8
:101FE00070470246D06800EA01031069084010B14A
:101FF0000BB1012070470020FCE7012904D1426C9D
:1020000042F40042426403E0426C22F40042426423
:10201000704700210180418081804FF6FF7181600F
:102020000021C180017370472DE9F04704460D4639
:102030000027B846B94600261948204438B1B0F503
:10204000744F09D10620FFF7F3FA074605E0022096
:10205000FFF7EEFA074600E000BF00BF206800F47B
:10206000004070B1780000EB5500B0FBF5F64FF67C
:10207000F07006EA0008C6F3420948EA0900E06089
:102080000CE007EB5500B0FBF5F64FF6F07006EAF2
:10209000000806F00F0948EA0900E060BDE8F08793
:1020A00000BCFFBF0146486AC0F308007047C1F397
:1020B000080282627047000010B504460D482044B3
:1020C00058B1B0F5744F11D140F20E30FFF78CFCCF
:1020D00040F20E30FFF778FC09E040F21140FFF7C4
:1020E00083FC40F21140FFF76FFC00E000BF00BF2F
:1020F00010BD000000BCFFBF016841F0010101609C
:10210000704710B5024602EB9110006801F01F0401
:102110000123A340184008B1012010BD0020FCE7B6
:10212000026822F001020260826822F4007282607A
:1021300082680A4382607047026822F001020260EE
:10214000826822F48072826082680A4382607047EB
:1021500010B500EB9112126801F01F040123A34097
:102160001A4300EB91131A6010BD70B502460023AC
:102170000024C1F38910105801F01F060125B54055
:1021800000EA050302EB91500068C1F30446012503
:10219000B54000EA050414B10BB1012070BD002068
:1021A000FCE7026822F001020260026822F4C062C9
:1021B000026002680A4302607047026822F004026B
:1021C000026002680A4302607047026822F001025E
:1021D0000260426822F44052426042680A43426010
:1021E0007047026822F00802026002680A43026037
:1021F0007047026822F001020260026822F48052F5
:10220000026002680A430260704700002C22000846
:102210000000002028000000340A000854220008B2
:102220002800002000040000440A0008000000000C
:102230000000000000000000000406000000000094
:10224000000000000000000000000000000000008E
:04225000000000008A
:04000005080001519D
:00000001FF
