:020000040800F2
:100000003004002065010008E703000855030008DC
:10001000E30300082D020008510A00080000000058
:10002000000000000000000000000000A10800081F
:100030005103000800000000B9040008C1080008CE
:100040007F0100087F0100087F0100087F01000890
:100050007F0100087F0100087F0100087F01000880
:100060007F0100087F0100087F0100087F01000870
:100070007F0100087F0100087F0100087F01000860
:1000800099090008000000007F0100087F010008B6
:100090007F0100087F0100087F0100087F01000840
:1000A0007F0100087F0100087F010008290A00087D
:1000B0007F010008000000007F0100080000000030
:1000C0007F010008000000007F0100080000000020
:1000D0000000000000000000000000000000000020
:1000E00000000000000000007F0100080000000088
:1000F0000000000000000000000000000000000000
:100100007F01000800000000000000000000000067
:1001100000000000000000000000000000000000DF
:1001200000000000000000000000000000000000CF
:1001300000000000000000000000000000000000BF
:100140000000000000000000000000007F01000827
:10015000DFF80CD000F02EF80048004735110008F9
:10016000300400200648804706480047FEE7FEE7C7
:10017000FEE7FEE7FEE7FEE7FEE7FEE7FEE7FEE757
:10018000C90800085101000830B50B46014600209F
:100190002022012409E021FA02F59D4205D303FA49
:1001A00002F5491B04FA02F52844151EA2F10102CA
:1001B000F1DC30BD064C074D06E0E06840F001037D
:1001C00094E8070098471034AC42F6D3FFF7C4FF19
:1001D0006C2000088C20000810B54FF480640722C2
:1001E0000121002000F0D4FD122000F0BFFD0E48D8
:1001F000006820F480000C490860012000F046FEF1
:1002000006E0201EA4F1010402D14FF6FF7010BDDC
:10021000022000F0B3FD0028F3D0022000F0A6FD7C
:1002200000F020FEF3E700000824014000BFFEE7D5
:1002300010B54FF4A06001F067F810BD7FB504461B
:100240000D4640F2017001F0DFFA0F4801F034FD75
:10025000684601F00EFEADF800500020ADF8040035
:100260000294ADF806006946074801F08DFD0121B2
:10027000054801F0DFFD00221146102000F0EEFFDE
:10028000014801F07BFD7FBD0004004010B504462D
:1002900040F2115001F0B8FA40F20E6001F0B4FAE9
:1002A0004FF4007201214FF0904000F0ABFE4FF48C
:1002B0000073012202214FF0904000F0D6FE4FF46F
:1002C0000073032200214FF0904000F0F5FE4FF440
:1002D000806201214FF0904000F094FE4FF4806363
:1002E000012202214FF0904000F0BFFE174801F0BC
:1002F00013FE2146154801F0C7FD0021134801F007
:1003000094FE0021114801F0A4FE00210F4801F0E5
:1003100078FE00210D4801F03FFE00210B4801F05E
:100320002FFE0421094801F078FE0821074801F05A
:1003300088FE0521054801F03BFE002202211B201A
:1003400000F08CFF014801F007FE10BD00380140AD
:1003500000BFFEE700BFFEE710B500F00EF84FF457
:10036000612000F02DF800F007F800F0A7F800F089
:1003700009F800F02BF810BD704710B5FFF758FFD3
:1003800010BD70472DE9F041022001F081F80546CB
:10039000012001F07DF80746AF4201D96C0000E072
:1003A0002C460648B4FBF0F0401E86B2314640F2BF
:1003B000F310FFF743FFBDE8F081000040420F005B
:1003C00010B504462046FFF761FF10BD10B500F0E0
:1003D00011FE062140F6B83000F0C8FD00F002FE24
:1003E00010BD00BFFEE700BFFEE700002B49097803
:1003F00031B101290AD002291DD0032948D12CE0AE
:10040000AB2802D10121254A117045E0022808D10C
:10041000234908700021234A117002211F4A1170DC
:1004200008E0AB2803D101211C4A117002E0002131
:100430001A4A117030E01B490A780978491C194B97
:1004400019701949885419460978154A1278914249
:1004500002DB0321114A11701EE055280ED112490A
:100460000978124A117010494978114A1170012116
:10047000104A11700021094A117008E0AB2803D11D
:100480000121064A117002E00021044A117003E0C4
:100490000021024A117000BF00BF704721000020F8
:1004A0002200002027000020230000201F00002041
:1004B000200000201E00002000BFFEE710B540F223
:1004C000115001F0A1F940F2135001F09DF940F2F2
:1004D000096001F099F940F21C7001F095F900F003
:1004E00027FF4FF4005300220121314800F0BDFDE9
:1004F0004FF40053032200212D4800F0DDFD4FF49E
:100500008043002201212A4800F0AFFD4FF48043D0
:1005100003220021264800F0CFFD4FF4005124486B
:1005200000F09FFD4FF48041214800F09AFD1C230C
:10053000002201214FF0904000F097FD1C23032280
:1005400000214FF0904000F0B7FD052000F0DEF8EC
:1005500000F05EF80223002203214FF0904000F0EB
:1005600084FD00F0A1FB062000F0ECFE002102203B
:1005700000F0A2FC00214FF4807000F09DFC0020F0
:1005800000F080FB002000F073FC0121084600F021
:1005900049FB4FF46021012000F0C8FB012108460F
:1005A00000F09AFB00F08AFB00F01EFB10BD00007B
:1005B000000800480148007870470000080000204B
:1005C00010B1044A1278027011B1034A12780A700D
:1005D000704700000F00002010000020034A12881E
:1005E0000280034A12880A8070470000020000203F
:1005F0000400002010B1044A1288028011B1034A9D
:1006000012880A80704700000A0000200C000020B9
:1006100000B589B040F2125001F0F6F84FF4C26014
:1006200001F0F2F84FF44043002202212A4800F082
:100630001CFD4FF4404303220021274800F03CFDFD
:100640004FF440420121244800F0DCFC234801F033
:1006500033FB01A801F00DFC0020ADF80400ADF85B
:100660000600ADF80800902003900020ADF80A00C5
:100670008DF8100001A9194801F086FB05A801F0CA
:1006800012FB012005900420ADF818000020ADF801
:100690001A00ADF81C00ADF81E00ADF8200005AA48
:1006A00000210E4801F08EF9002211460B4801F09E
:1006B000BAFA60220021094801F088FA00221146A6
:1006C000064801F0C3FA0121044801F0C6FB0348C3
:1006D00001F054FB09B000BD000400480040014097
:1006E00008B1012100E00021054A11701146097886
:1006F00029B90421034A11700521034A117070477A
:100700000E0000200F0000201000002070B50446ED
:10071000002600251C2604F0010008B145F0040560
:1007200004F0020008B145F0080504F0040008B127
:1007300045F0100531464FF0904000F092FC2946FC
:100740004FF0904000F08FFC04F007000149087062
:1007500070BD00000800002010B545480078401C1E
:100760004349087008460078142801DB002008700F
:100770003F480078062835D006DC01280BD0022837
:100780000ED0052870D117E00A2836D00D2840D0A9
:100790000E2869D15CE0FFF71FFD3649088064E050
:1007A000354802780021354801F03DFA4FF40051F8
:1007B000334800F058FC58E0FFF70EFD04462D4882
:1007C0000088844205DB2B480088201A2D490880C8
:1007D00002E000202B4908802B480088401C2A4951
:1007E000088042E000221146244801F01CFA4FF430
:1007F0000051234800F035FC37E0244802780021FE
:100800001E4801F010FA4FF480411D4800F02BFC07
:100810002BE0FFF7E1FC044616480088844205DB24
:1008200014480088201A1A49088002E0002018495C
:10083000088018480088401C16490880164800782F
:1008400028B116480078401C1449087000BF0CE01D
:1008500000221146094801F0E6F94FF480410848AA
:1008600000F0FFFB01E0FFE700BF00BF10BD00008C
:1008700011000020060000200F0000200040014071
:1008800000080048020000200A000020100000209C
:10089000040000200C0000200E00002012000020A8
:1008A00000BFFEE770B504460D462A46214602A069
:1008B00000F0D0F870BD000025752C25750D0A00DC
:1008C00000B500F08DF800BD10B52D48006840F46B
:1008D00070002B4908602B48006840F0010029494E
:1008E00008604FF4001000BF2649096801F00201BA
:1008F00019B9011EA0F10100F6D122484068224931
:1009000008402049486008464068204908401D4981
:100910004860084600681E4908401A4908600846B1
:10092000C06A1C4908401749C8620846006B40F27B
:1009300003118843134908630846006B20F4803094
:1009400008630846006B20F0004008630846406BCF
:1009500020F0010048630B48C030006820F480306C
:10096000C1F8C000002088600649CC31086001F061
:1009700005F800214FF0006000F0D0FC10BD000031
:1009800088ED00E0001002400C00FF08FFFFC27776
:10099000FFFFF2FEF0FFFF3F10B501210D4801F00F
:1009A00050FA012814D101210A4801F047FAFFF753
:1009B000D3FE09480088401C074908800846008883
:1009C000B0F5FA6F04DB00200880012003490870AD
:1009D00010BD00000004004016000020140000209C
:1009E0000448006820B103480068401E01490860BF
:1009F000704700002800002002460848007850B1E7
:100A00000748007810700748007808700020034BF2
:100A10001870012070470020FCE700001E00002035
:100A20001F0000202000002010B50749074801F0F2
:100A3000CCFA38B1054801F065FAC4B22046FFF798
:100A4000D5FC00BF10BD00000500050700380140BF
:100A500000BFFEE70FB4054B10B503A9044A029886
:100A600000F018F810BC5DF814FB0000390F000806
:100A70001800002002E008C8121F08C1002AFAD19D
:100A800070477047002001E001C1121F002AFBD10E
:100A9000704700002DE9FF4F89B09B4604460025B2
:100AA00006E025280BD05A460B999047641C6D1C14
:100AB00020780028F5D10DB02846BDE8F08F00273A
:100AC000B8460122474900E0074314F8013F203BA4
:100AD00002FA03F00842F7D120782E2819D114F831
:100AE000010F47F004072A280ED06FF02F0220785C
:100AF000A0F1300109290CD808EB880102EB410173
:100B000000EB0108641CF2E70A98641C50F8048B9F
:100B10000A9020780028CED0642808D0692806D012
:100B200075281ED05A460B9990476D1C58E00A99BB
:100B30004FF00A0901C90A91002802DA40422D212A
:100B400002E0390504D52B218DF82010012103E0A6
:100B5000F90704D02021F7E78A4608AE0DE000210E
:100B6000FAE70A994FF00A0901C90A91F7E74946DD
:100B7000FFF70AFB303106F8011D0028F7D1ADEB75
:100B8000060000F12009780701D44FF00108C8459C
:100B900002DDA8EB090000E000208046002706E007
:100BA00008A85A46C05D0B9990476D1C7F1C57459D
:100BB000F6DB04E030205A460B9990476D1CB8F1E3
:100BC0000001A8F10108F5DC05E016F8010B5A4612
:100BD0000B9990476D1CB9F10001A9F10109F4DCF2
:100BE000641C65E7092801000D48006840F0080012
:100BF0000B49086000BF0A48006800F008000028A0
:100C0000F9D10748006840F004000549086000BFBA
:100C10000348006800F004000028F9D17047000084
:100C20000824014010B5012802D0022825D110E087
:100C3000134A126822F47002114B1A601A461268A5
:100C40004B1E4FF4700404EA03531A430C4B1A6012
:100C500014E00B4A0C32126822F44012084B0C3399
:100C60001A601A4612684B1E4FF4401404EA0353EC
:100C70001A43034B0C331A6000E000BF00BF10BDE5
:100C80002C24014030B10749096841F40061054A4C
:100C9000116005E00349096821F40061014A11600F
:100CA000704700000824014010B540F2093000F000
:100CB000CBFD40F2093000F0B7FD10BD05480068DB
:100CC00000F0010028B90348006840F00100014924
:100CD000086070470824014091B100F001022AB178
:100CE000114A126842F480120F4B1A6000F002029F
:100CF000C2B10D4A126842F400420B4B1A6011E077
:100D000000F001022AB1084A126822F48012064B50
:100D10001A6000F002022AB1034A126822F400426B
:100D2000014B1A607047000008240140012802D0DE
:100D3000022816D10AE00C4A126822F460220A4BFB
:100D40001A601A4612680A431A600BE0064A1268D3
:100D500022F4E042044B1A601A4612680A431A60F1
:100D600000E000BF00BF7047082401400249096845
:100D70008143014A11607047002401400146002070
:100D8000024A12680A4002B1012070470024014063
:100D900070B5144606280ED2314D2A6800EB800645
:100DA0001F25B540AA4300EB800501FA05F52A434B
:100DB0002B4D2A602AE00C2812D2294D2D1F2A68BB
:100DC000851F05EB85061F25B540AA43851F05EB4A
:100DD000850501FA05F52A43214D2D1F2A6015E0EE
:100DE000102813D21E4D083D2A68A0F10C0505EB12
:100DF00085061F25B540AA43A0F10C0505EB850526
:100E000001FA05F52A43164D083D2A600A2910D239
:100E1000134D243D2B6801EB41060725B540AB433C
:100E200001EB410504FA05F52B430D4D243D2B60E4
:100E300015E0132913D20A4D283D2B68A1F10A05AC
:100E400005EB45060725B540AB43A1F10A0505EBC7
:100E5000450504FA05F52B43014D283D2B6070BD77
:100E6000342401400148006880B270474C2401409E
:100E70000549096821F04071034A1160114609686B
:100E800001431160704700000424014000F001019B
:100E900029B10849096841F48001064A116000F04F
:100EA000020129B10349096841F40011014A1160A6
:100EB0007047000008240140E9B100F480722AB1B3
:100EC0001C4A126842F480721A4B1A6000F4806265
:100ED0002AB1184A126842F48062164B1A6000F078
:100EE00002022AB3134A121D126842F00202114B89
:100EF0001B1D1A601CE000F480722AB10D4A1268B2
:100F000022F480720B4B1A6000F480622AB1094A05
:100F1000126822F48062074B1A6000F002023AB1B4
:100F2000044A121D126822F00202024B1B1D1A60B5
:100F3000704700000424014070B504460E460025A9
:100F4000E1B2094800F0E3FF04E06D1CB5F5803F15
:100F500000D306E040F20771034801F002F80028D0
:100F6000F3D000BF204670BD0038014030B50246C6
:100F70000B46164C002145F25550154D286000BF18
:100F80001348C06800F00101601E041E01D0002952
:100F9000F6D109B1002030BD0D4843600B4C00BFB5
:100FA0000B48C06800F00201601E041E01D0002939
:100FB000F6D109B10020EEE7C2F30B00044DA860A2
:100FC0004AF6AA2028600120E5E70000FFFF0F0095
:100FD000003000404AF6AA2001490860704700002E
:100FE000003000404CF6CC400149086070470000DA
:100FF0000030004045F2555001490860704700003C
:1010000000300040F0B503461C6A5D6A00200DE028
:101010000126864016403EB187000F26BE40B443ED
:10102000860001FA06F63443461CB0B20828EFD316
:10103000082011E00126864016405EB1A0F10806A6
:10104000B7000F26BE40B543A0F10806B60001FA6E
:1010500006F63543461CB0B21028EBD31C625D6225
:10106000F0BD8162704781617047F0B504460D465E
:1010700016462168E268002019E0012787401F40DA
:101080009FB14FEA400C032707FA0CF7B94347001A
:1010900005FA07F739434FEA400C032707FA0CF724
:1010A000BA43470006FA07F73A43471CB8B210287C
:1010B000E3D32160E260F0BDF0B504460E46012E98
:1010C00003D167681F43676002E067689F436760FA
:1010D000A1684FF6FF77BA4216D1E56B00200EE00B
:1010E000012787401F4047B14FEA400C032707FA0A
:1010F0000CF73943012787403D43471CB8B21028FD
:10110000EED3A160E56314E000200FE001278740E3
:101110001F404FB14FEA400C032707FA0CF7B943C1
:10112000470002FA07F73943471CB8B21028EDD33D
:10113000A160F0BD88B0FFF70FF9FFF722F900209A
:10114000FFF7CEFA0520FFF7E1FA00BF002577E0B0
:10115000FFF740FF694601A8FFF74EFC00283ED08C
:101160009DF80400012807D19DF80000FFF7CEFA92
:101170000020FFF7B5FA32E09DF8040002280CD1F8
:10118000FFF718FA0446072C03DA611CC8B2FFF710
:10119000BDFA0020FFF7A4FA21E09DF8040003281F
:1011A0000CD1FFF707FA0446002C03DD611EC8B21C
:1011B000FFF7ACFA0020FFF793FA10E09DF8040067
:1011C00004280CD09DF80400052808D19DF80010D3
:1011D00009B1012100E000210846FFF781FA04A9C6
:1011E00005A8FFF707FABDF81000A84228D0BDF8FF
:1011F000105006A907A8FFF7F1F9BDF81810BDF8BF
:101200001C00FFF74FFB0F480088401C0D49088069
:1012100008460088642813DB0020088002A903A880
:10122000FFF7CEF9FFF7C6F906469DF808209DF8AE
:101230000C1005A0FFF70EFC314606A0FFF70AFCD4
:1012400086E7000000000020502C25752C25750D28
:101250000A000000472C25750D0A00002DE9F04119
:1012600003460D46164600240027A0462448006881
:1012700000F4E060B0F5A06F15D006DCB0F5407F5B
:1012800018D0B0F5806F19D110E0B0F5C06F06D05E
:10129000B0F5E06F12D100274FF0040815E00127E8
:1012A0004FF0030811E00227B8460EE003274FF085
:1012B00001080AE004274FF0000806E04FF4A060A0
:1012C00000F022F80227B84600BF00BFC7F10400B3
:1012D00005FA00F4C8F104010F20C840304004436F
:1012E00024010848C45403F01F010120884059110B
:1012F000890001F1E021C1F80001BDE8F0810000A2
:101300000CED00E000E400E002490143024A1160F4
:10131000704700000000FA050CED00E0024A0A40A8
:101320000243024B1A60704780FFFF1F08ED00E088
:101330000348006840F4807001490860704700006D
:10134000007000405049496821F440414E4A5160C4
:101350001146096B4D4A11404B4A11630A2871D25C
:10136000DFE800F005111D273642535F717D4649C5
:10137000096B21F48031444A11631146096B21F451
:10138000807111637DE04049096B41F480313E4A30
:1013900011631146096B21F48071116371E03A49C0
:1013A0004968394A51601146096B41F480711163F3
:1013B00067E035494968344A51601146096B41F08C
:1013C000004111631146096B41F48071116358E0CB
:1013D0002D49496841F480412B4A51601146096BFF
:1013E00041F4807111634CE02749496841F4804120
:1013F000254A51601146096B41F0004111631146C5
:10140000096B41F4807111633BE01F49496841F465
:1014100000411D4A51601146096B41F4807111630E
:101420002FE01949496841F40041174A51601146BB
:10143000096B41F0004111631146096B41F4807161
:1014400011631EE01CE01049496841F440410E4A16
:1014500051601146096B41F48071116311E00A4932
:10146000496841F44041084A51601146096B41F016
:10147000004111631146096B41F48071116300E072
:1014800000BF00BF7047000000100240FFFEFE7F5B
:101490002DE9F04F92B006464FF00009CDF8449088
:1014A000CDF840900024002000250022CDF83C908B
:1014B0000023CDF83890CDF83490CDF8309000214D
:1014C000CDF82C90CDF82890CDF82490CDF8209030
:1014D0008046002784460FF2083999E8004CD9F875
:1014E0000C90CDE905BECDF810A0CDF81C900FF200
:1014F000F42ADAE9009ACDE9029A0FF2E82ADAE949
:10150000009ACDE9009ADFF8E892D9F80490C9F37F
:101510008109CDF84490DDF84490B9F1000F06D070
:10152000B9F1010F05D0B9F1020F61D103E0B14D5E
:1015300060E0B04D5EE0DFF8B892D9F80490C9F3EE
:101540008341DFF8AC92D9F80490C9F3C069CDF8B3
:101550002C90DFF89C92D9F82C904FEAD979CDF8ED
:101560002890DDF82C90B9F1000F01D0113104E082
:101570000F2901D1491C00E0891CDDF82890B9F140
:10158000010F00D11F31DFF86892D9F80490C9F338
:101590000049CDF82490DFF85892D9F82C90C9F37F
:1015A0008079CDF82090DDF82490B9F1000F1AD0A1
:1015B000DFF83C92D9F82C9009F00F0909F10108E5
:1015C000DDF82090B9F1000F06D1DFF82892B9FBC1
:1015D000F8F909FB01F50AE0DFF81C92B9FBF8F90C
:1015E00009FB01F503E0DFF8149201FB09F501E0C6
:1015F000804D00BF00BFDFF8F891D9F80490C9F31F
:1016000003170DF1100919F807C025FA0CF2DFF8DD
:10161000E091D9F80490C9F302270DF1080919F8EF
:1016200007C022FA0CF9CDF83C90DFF8C491D9F844
:101630000490C9F3C2271DF807C022FA0CF3072E45
:101640006FD2DFE806F00406080A0C8094002846F2
:10165000C1E01046BFE00F98BDE01846BBE0DFF8E0
:101660009091D9F8309009F48079B9F5807F12D043
:10167000DFF87C91D9F8309009F48039B9F5803FD2
:1016800004D0DFF87C91CDF838905AE0DFF87491FF
:10169000CDF8389055E0DFF85891D9F80490C9F3A7
:1016A0008139CDF84090DFF84891D9F830904FEA71
:1016B000D974DDF84090B9F1000F09D0B9F1010FEC
:1016C00013D0B9F1020F1DD0B9F1030F37D129E0C2
:1016D00024B94FEA5309CDF8389005E04FF00309DB
:1016E000B2FBF9F9CDF838902AE024B94FEA930912
:1016F000CDF8389005E04FF00509B2FBF9F9CDF8C7
:1017000038901DE034B94FF00609B3FBF9F9CDF874
:10171000389005E04FF00709B2FBF9F9CDF83890A1
:101720000EE057E024B94FEAD309CDF8389005E030
:101730004FF00909B2FBF9F9CDF8389000E000BF8D
:1017400000BF0E9847E0DFF8A890D9F8309009F074
:101750004009B9F1400F04D048F21209CDF8349095
:1017600003E04FF40049CDF834900D9833E0DFF8F2
:101770008090D9F8309009F00309B9F1000F01D138
:101780000C9325E0DFF86890D9F8309009F0030950
:10179000B9F1010F01D10C951AE0DFF85490D9F896
:1017A000309009F00309B9F1020F04D14FF4004958
:1017B000CDF830900CE0DFF83890D9F8309009F08F
:1017C0000309B9F1030F03D1DFF82890CDF8309069
:1017D0000C9800E000BF00BF12B0BDE8F08F000021
:1017E00000000000000000000102030406070809D1
:1017F0000010024000127A00006CDC0200093D007B
:10180000809FD500003FAB01064A02EB90110968AA
:1018100000F01F0301229A401143024B03EB901288
:101820001160704700100240064A02EB90110968EF
:1018300000F01F0301229A409143024B03EB9012E8
:101840001160704700100240064A02EB90110968CF
:1018500000F01F0301229A401143024B03EB901248
:10186000116070470010024010B53F48006840F01A
:1018700001003D4908604FF4001400BF3A48006879
:1018800000F0020018B9201EA4F10104F6D1364878
:10189000006800F0020010B900F074F810BD334881
:1018A000006820F00700801C304908602E4840681E
:1018B0002D4948600846406840F40050486008469A
:1018C000406840F480604860084640682849084005
:1018D000254948600846C06A264908402249C8622E
:1018E00008464068244908431F4948600846C06AC2
:1018F000C8620846006840F0807008604FF4001429
:1019000000BF1948006800F0007018B9201EA4F14B
:101910000104F6D11448006800F0007010B900F01E
:1019200031F8BBE71048406820F003000E494860DA
:101930000846406840F0020048604FF4001400BFC1
:101940000948406800F0080018B9201EA4F10104FD
:10195000F6D10548406800F0080010B900F012F810
:101960009CE700BF9AE70000001002400020024000
:10197000FFFFC0F7F0FFFF3F0000040810B5FFF7BE
:1019800073FF10BD0E4840680D4948600846406826
:1019900048600846406848600846406820F00300F8
:1019A00048600846406848604FF4001000BF044992
:1019B0004968002119B9011EA0F10100F7D1704753
:1019C0000010024010B531B1012945D002297DD067
:1019D00003297CD1CBE0036A23F00103036283690E
:1019E00023F003038361036A146823430362036AD9
:1019F00023F002030362036AD488234303626F4B1C
:101A0000984208D06E4B984205D06E4B984202D057
:101A10006D4B98421FD1036A23F004030362036AEB
:101A2000948823430362036A23F008030362036A72
:101A3000148923430362436823F48073436043683B
:101A4000548923434360436823F40073436043682D
:101A5000948923434360AEE0036A23F010030362DA
:101A6000836923F440738361036A146843EA0413AF
:101A70000362036A23F020030362036AD48843EA03
:101A8000041303624D4B984226D1036A23F04003AE
:101A90000362036A948843EA04130362036A23F02F
:101AA00080030362036A148943EA041303624368F0
:101AB00023F4806343604368548943EA84034360AA
:101AC000436823F400634360436801E011E071E080
:101AD000948943EA84034360394B984208D14368B0
:101AE00023F4806343604368548943EA840343607A
:101AF00061E0036A23F480730362C36923F0030384
:101B0000C361036A146843EA04230362036A23F48B
:101B100000730362036AD48843EA04230362274BF9
:101B2000984223D1036A23F480630362036A948892
:101B300043EA04230362036A23F400630362036A33
:101B4000148943EA04230362436823F48053436007
:101B50004368548943EA04134360436823F4005301
:101B600043604368948943EA0413436023E0036AB3
:101B700023F480530362C36923F44073C361036A8F
:101B8000146843EA04330362036A23F400530362D4
:101B9000036AD48843EA04330362084B984208D1AD
:101BA000436823F4804343604368548943EA8413C1
:101BB000436000E000BF00BF10BD0000002C0140EA
:101BC00000400140004401400048014031B101297A
:101BD0000CD0022913D0032922D118E0836923F005
:101BE000700383618369134383611AE0836923F47B
:101BF000E0438361836943EA0223836111E0C3699F
:101C000023F07003C361C3691343C36109E0C3696F
:101C100023F4E043C361C36943EA0223C36100E0E4
:101C200000BF00BF704731B1012906D0022906D09C
:101C3000032908D105E0426306E0826304E0C26341
:101C400002E0026400E000BF00BF704731B101292B
:101C50000CD0022913D0032922D118E0836923F084
:101C6000080383618369134383611AE0836923F462
:101C700000638361836943EA0223836111E0C369DE
:101C800023F00803C361C3691343C36109E0C36957
:101C900023F40063C361C36943EA0223C36100E024
:101CA00000BF00BF7047002101608180C1800181B9
:101CB000418181817047000010B504462D49601AAA
:101CC0008C4214D009DCB4F1804F19D02A4820444A
:101CD000F8B1B0F5E05F49D124E0B0F5A05F2AD0BB
:101CE000B0F5C05F30D0B0F5E05F3FD135E040F2F5
:101CF0000B30FFF7A9FD40F20B30FFF795FD36E002
:101D00004FF48060FFF7A0FD4FF48060FFF78CFD7B
:101D10002DE040F20140FFF797FD40F20140FFF750
:101D200083FD24E04FF48160FFF78EFD4FF4816066
:101D3000FFF77AFD1BE04FF44470FFF785FD4FF489
:101D40004470FFF771FD12E040F21130FFF77CFDA7
:101D500040F21130FFF768FD09E040F21230FFF762
:101D600073FD40F21230FFF75FFD00E000BF00BFDF
:101D700010BD0000002C014000FCFFBF016841F0D5
:101D800001010160704700000A888262234A904284
:101D900005D0B0F1804F02D0214A90420BD10268A9
:101DA00022F07002026002684B881A4302600268E7
:101DB0008B881A4302608A68C262184A904211D026
:101DC000B0F1804F0ED0164A90420BD0154A904287
:101DD00008D0154A904205D0144A904202D0144AC5
:101DE000904207D1026822F4407202600268CB88F8
:101DF0001A430260094A904208D00B4A904205D02B
:101E00000A4A904202D00A4A904201D10A7B0263F8
:101E1000426942F00102426170470000002C01401B
:101E20000004004000200040004001400044014008
:101E300000480140C2680A43C2607047CA43026159
:101E400070470246D06800EA01031069084010B1EB
:101E50000BB1012070470020FCE7012904D1426C3E
:101E600042F40042426403E0426C22F400424264C5
:101E7000704700210180418081804FF6FF718160B1
:101E80000021C180017370472DE9F04704460D46DB
:101E90000027B846B94600261948204438B1B0F5A5
:101EA000744F09D10620FFF7F3FA074605E0022038
:101EB000FFF7EEFA074600E000BF00BF206800F41D
:101EC000004070B1780000EB5500B0FBF5F64FF61E
:101ED000F07006EA0008C6F3420948EA0900E0602B
:101EE0000CE007EB5500B0FBF5F64FF6F07006EA94
:101EF000000806F00F0948EA0900E060BDE8F08735
:101F000000BCFFBF0146486AC0F308007047C1F338
:101F1000080282627047000010B504460D48204454
:101F200058B1B0F5744F11D140F20E30FFF78CFC70
:101F300040F20E30FFF778FC09E040F21140FFF765
:101F400083FC40F21140FFF76FFC00E000BF00BFD0
:101F500010BD000000BCFFBF016841F0010101603D
:101F6000704710B5024602EB9110006801F01F04A3
:101F70000123A340184008B1012010BD0020FCE758
:101F8000026822F001020260826822F4007282601C
:101F900082680A4382607047026822F00102026090
:101FA000826822F48072826082680A43826070478D
:101FB00010B500EB9112126801F01F040123A34039
:101FC0001A4300EB91131A6010BD70B5024600234E
:101FD0000024C1F38910105801F01F060125B540F7
:101FE00000EA050302EB91500068C1F304460125A5
:101FF000B54000EA050414B10BB1012070BD00200A
:10200000FCE7026822F001020260026822F4C0626A
:10201000026002680A4302607047026822F004020C
:10202000026002680A4302607047026822F00102FF
:102030000260426822F44052426042680A434260B1
:102040007047026822F00802026002680A430260D8
:102050007047026822F001020260026822F4805296
:10206000026002680A430260704700008C2000088A
:10207000000000202C000000740A0008B8200008AE
:102080002C00002004040000840A00080000000066
:102090000000000000000000000000040500000037
:1020A0000000000000000000000000000000000030
:0820B000000000000000000028
:04000005080001519D
:00000001FF
