:020000040800F2
:10000000A007002065010008FF0300086D03000839
:10001000FB0300082D020008610F0008000000002B
:10002000000000000000000000000000E50C0008D7
:100030005D03000800000000D1040008CF0D000897
:100040007F0100087F0100087F0100087F01000890
:100050007F0100087F0100087F0100087F01000880
:100060007F0100087F0100087F0100087F01000870
:100070007F0100087F0100087F0100087F01000860
:10008000A90E0008000000007F0100087F010008A1
:100090007F0100087F0100087F0100087F01000840
:1000A0007F0100087F0100087F010008390F000868
:1000B0007F010008000000007F0100080000000030
:1000C0007F010008000000007F0100080000000020
:1000D0000000000000000000000000000000000020
:1000E00000000000000000007F0100080000000088
:1000F0000000000000000000000000000000000000
:100100007F01000800000000000000000000000067
:1001100000000000000000000000000000000000DF
:1001200000000000000000000000000000000000CF
:1001300000000000000000000000000000000000BF
:100140000000000000000000000000007F01000827
:10015000DFF80CD000F02EF800480047E916000840
:10016000A00700200648804706480047FEE7FEE754
:10017000FEE7FEE7FEE7FEE7FEE7FEE7FEE7FEE757
:10018000D90D00085101000830B50B46014600208A
:100190002022012409E021FA02F59D4205D303FA49
:1001A00002F5491B04FA02F52844151EA2F10102CA
:1001B000F1DC30BD064C074D06E0E06840F001037D
:1001C00094E8070098471034AC42F6D3FFF7C4FF19
:1001D000F42600081427000810B54FF480640722A5
:1001E0000121002001F080F8122001F06BF80E4888
:1001F000006820F480000C490860012001F0F2F84A
:1002000006E0201EA4F1010402D14FF6FF7010BDDC
:10021000022001F05FF80028F3D0022001F052F82C
:1002200001F0CCF8F3E700000824014000BFFEE72E
:1002300000200149087070473A00002010B54FF4C3
:10024000A06001F0A5FB10BD7FB504460D4640F24D
:10025000017001F01DFE0F4802F072F8684602F0CE
:100260004CF9ADF800500020ADF804000294ADF850
:1002700006006946074802F0CBF80121054802F064
:100280001DF900220121102001F02CFB014802F091
:10029000B9F87FBD0004004010B5044640F211508B
:1002A00001F0F6FD40F20E6001F0F2FD4FF4007235
:1002B00001214FF0904001F07FF94FF400730122CB
:1002C00002214FF0904001F0AAF94FF4007303228D
:1002D00000214FF0904001F0C9F94FF480620121F4
:1002E0004FF0904001F068F94FF480630122022141
:1002F0004FF0904001F093F9174802F051F9214670
:10030000154802F005F90021134802F0D2F9002146
:10031000114802F0E2F900210F4802F0B6F900217D
:100320000D4802F07DF900210B4802F06DF904211F
:10033000094802F0B6F90821074802F0C6F905217C
:10034000054802F079F9002211461B2001F0CAFA93
:10035000014802F045F910BD0038014000BFFEE73A
:1003600001480078704700003A00002000BFFEE717
:1003700010B500F00EF84FF4E13000F02DF800F069
:1003800007F800F0A7F800F009F800F02BF810BD0E
:10039000704710B5FFF752FF10BD70472DE9F041CF
:1003A000022001F0B9FB0546012001F0B5FB07462C
:1003B000AF4201D96C0000E02C460648B4FBF0F0D7
:1003C000401E86B2314640F2F310FFF73DFFBDE814
:1003D000F081000040420F0010B504462046FFF7B0
:1003E0005BFF10BD10B501F0DFF8062140F6B83014
:1003F00001F096F801F0D0F810BD00BFFEE700BF95
:10040000FEE700002B49097831B101290AD0022901
:100410001DD0032948D12CE0AB2802D10121254A67
:10042000117045E0022808D1234908700021234AB1
:10043000117002211F4A117008E0AB2803D101217D
:100440001C4A117002E000211A4A117030E01B4969
:100450000A780978491C194B1970194988541946AA
:100460000978154A1278914202DB0321114A117072
:100470001EE055280ED112490978124A1170104910
:100480004978114A11700121104A11700021094A5E
:10049000117008E0AB2803D10121064A117002E077
:1004A0000021044A117003E00021024A117000BFCC
:1004B00000BF7047490000204A0000204F00002084
:1004C0004B0000204700002048000020460000208C
:1004D00000BFFEE710B540F2115001F0D9FC40F228
:1004E000135001F0D5FC40F2096001F0D1FC40F25C
:1004F0001C7001F0CDFC01F05FFA4FF400530022B4
:1005000001213A4801F08BF84FF4005303220021F7
:10051000364801F0ABF84FF4804300220121334804
:1005200001F07DF84FF48043032200212F4801F0B1
:100530009DF84FF400512D4801F06DF84FF48041C3
:100540002A4801F068F81C23002201214FF0904056
:1005500001F065F81C23032200214FF0904001F0C8
:1005600085F8002000F012F900F080F80223002244
:1005700003214FF0904001F052F800F041FE0620B8
:1005800001F024FA0021022000F042FF00214FF484
:10059000807000F03DFF002000F020FE002000F001
:1005A00013FF0121084600F0E9FD4FF4602101200E
:1005B00000F068FE0121084600F03AFE00F02AFE35
:1005C00000F0BEFD00200EE09FED090A094901EB95
:1005D000800181ED000A9FED060A074901EB8001C9
:1005E00081ED000A401C0428EEDD10BD0008004823
:1005F000000000005400002068000020014800783E
:100600007047000032000020034A12880280034A2B
:1006100012880A80704700002C0000202E00002065
:1006200010B503460948C07868B1084800781870CA
:100630000648407808700548807810700020034C08
:10064000E070012010BD0020FCE700002800002021
:1006500010B1044A1288028011B1034A12880A803C
:1006600070470000340000203600002000B589B03B
:1006700040F2125001F00CFC4FF4C26001F008FC93
:100680004FF4404300220221344800F0C8FF4FF4E9
:10069000404303220021314800F0E8FF4FF440427C
:1006A00001212E4800F088FF2D4801F049FE01A8E5
:1006B00001F023FF0020ADF80400ADF80600ADF80E
:1006C0000800902003900020ADF80A008DF810007B
:1006D00001A9234801F09CFE05A801F028FE012095
:1006E00005900020ADF81800ADF81A00ADF81C0018
:1006F000ADF81E00ADF8200005AA0021184801F051
:10070000A5FC05AA0121164801F0A0FC0022114613
:10071000134801F0CCFD60220021114801F09AFD40
:10072000002211460E4801F0D5FD002201210C489F
:1007300001F0BDFD60220121094801F08BFD00227E
:100740000121074801F0C6FD0121054801F0C9FE5D
:10075000034801F057FE09B000BD00000004004846
:100760000040014008B1012100E00021014A117060
:10077000704700003800002008B1012100E000218E
:10078000014A1170704700003300002070B5044624
:10079000002600251C2604F0010008B145F00405E0
:1007A00004F0020008B145F0080504F0040008B1A7
:1007B00045F0100531464FF0904000F02CFF2946DF
:1007C0004FF0904000F029FF04F007000A4908703C
:1007D00000200EE09FED090A094901EB800181ED3F
:1007E000000A9FED060A074901EB800181ED000A2E
:1007F000401C0428EEDD70BD320000200000000027
:1008000054000020680000202DE9F0472DED0C8BEE
:10081000FE480078401CFD490870084600781428FE
:1008200001DB00200870F9480078102874D2DFE856
:1008300000F073080D737318507373735B737366F2
:10084000ADB8FFF7C9FCF249088041E20122114628
:10085000F04801F02CFD4FF40051EF4800F0DDFEB0
:1008600036E2FFF7B9FC0646E9480088864205DB18
:10087000E7480088301AE949088002E00020E7498B
:100880000880E7480088401CE5490880E548007872
:1008900068B10422E449E548E04B1B8800EE103AB9
:1008A000B8EE400A00F0F4FDB0EE408A05E0DB4807
:1008B000008800EE100AB8EE408ADD4800886428FF
:1008C00006DADC48DA49098800EB810080ED008A0D
:1008D000FEE100220121CF4801F0E9FC4FF4005174
:1008E000CD4800F098FEF3E106220021C94801F04E
:1008F000DEFC4FF48041C84800F08FFEE8E1FFF7CE
:100900006BFC0646C2480088864206DBC048008869
:10091000301AC949088003E0D9E10020C64908809F
:10092000C6480088401CC5490880BE48007868B1A8
:100930000422BD49C248C04B1B8800EE103AB8EEF5
:10094000400A00F0A5FDB0EE408A05E0BA480088F4
:1009500000EE100AB8EE408AB5480088642814DA20
:10096000B848B349098800EB810080ED008AB0489F
:100970000088401CAE490880B3480088642804DA27
:10098000B1480088401CB0490880A1E1002211460E
:10099000A04801F08CFC4FF480419F4800F03BFEE2
:1009A00096E1A348008864287DDB0020A0490880E8
:1009B000A5480088002877DD9E4890ED000AB0EE3B
:1009C00040BA90ED000AF0EE40BA9E4890ED000A61
:1009D000B0EE40AA90ED000AF0EE40AA012445E0F6
:1009E000944800EB840090ED000AB4EECB0AF1EEDF
:1009F00010FA06DD8F4800EB840090ED000AB0EE9F
:100A000040BA8C4800EB840090ED000AB4EEEB0A8B
:100A1000F1EE10FA06D2874800EB840090ED000A50
:100A2000F0EE40BA874800EB840090ED000AB4EE87
:100A3000CA0AF1EE10FA06DD824800EB840090ED60
:100A4000000AB0EE40AA7F4800EB840090ED000A57
:100A5000B4EEEA0AF1EE10FA06D27A4800EB84000E
:100A600090ED000AF0EE40AA601C84B2764800883F
:100A70008442B5DB3AEE2A0AF0EE000A80EE201A34
:100A8000F0EE418A714890ED000AF0EE408A70481D
:100A900090ED00CA3AEE6A0AF1EE000A80EE209A62
:100AA0003BEE6B0A01E011E10DE1F1EE000AC0EE50
:100AB00020CA9FED680AF4EEC08AF1EE10FA06D360
:100AC000B1EE040AB4EEC09AF1EE10FA07D200209B
:100AD00061490870487088700120C870F2E05F4872
:100AE000007848B35E4805789FED5E0AF4EEC08A50
:100AF000F1EE10FA03DDC5B1681EC5B215E09FED39
:100B00005A0AB4EEC09AF1EE10FA0ED29FED570ACF
:100B1000F4EEC08AF1EE10FA07D2072D05D2052DAA
:100B200001D1072501E0681CC5B24D480078854217
:100B300002D02846FFF72AFE8CEE8C0AC9EE280A5E
:100B400080EE20DA9FED4A0AF3EE090AF0EE409AB1
:100B500040EECD9A9FED3F0AF4EEC09AF1EE10FA06
:100B600003DD9FED3C0AF0EE409A9FED420AF4EE61
:100B7000C09AF1EE10FA03D29FED3E0AF0EE409AD1
:100B80000027F0EE68DA6FF06309012430E02D48A9
:100B900000EB840090ED000AB4EEED0AF1EE10FADD
:100BA00024DD284800EB840090ED000A601E2549F2
:100BB00001EB8000D0ED000AB4EEE00AF1EE10FA8D
:100BC00014DD084600EB840090ED000A601C01EB88
:100BD0008000D0ED000AB4EEE00AF1EE10FA05DD77
:100BE000A4EB0900192801DD7F1CA146601C84B21A
:100BF00015480088401EA042C9DCC7EB07104FEA29
:100C00008008B8F1FA0F39DD36E000003900002025
:100C10003000002000400140000800482C00002067
:100C20003400002033000020080000205400002081
:100C3000240000207C0000202E0000203600002030
:100C4000680000200C020020260000202000002068
:100C50001C0000200000C8422800002038000020AE
:100C60003200002000806D450000204200803B459E
:100C70000000DC4200008C424FF0FA08174981F86E
:100C80000180BCEEE90A10EE100A0870F5EEC08A89
:100C9000F1EE10FA10D089EE280A5FED120A20EE6C
:100CA000200ABCEEC00A10EE100A88700846807850
:100CB00028B90120887002E00020084988700120CE
:100CC0000649C87000BF00200549088000E000BF49
:100CD00000BFBDEC0C8BBDE8F087000028000020B1
:100CE0002600002000BFFEE7F0B587B006460F469D
:100CF000002536B930222846691CCDB203A90A5412
:100D000022E000240FE00A2096FBF0F100FB1160C6
:100D10003030C2B22046611CCCB201A90A540A206C
:100D200096FBF0F086B2002E01DD052CEBD309E036
:100D3000601EC0B2044601A90A5C2846691CCDB2F7
:100D400003A90A54002CF3DC2C222846691CCDB2DE
:100D500003A90A5437B930222846691CCDB203A929
:100D60000A5422E000240FE00A2097FBF0F100FB78
:100D700011703030C2B22046611CCCB201A90A54B5
:100D80000A2097FBF0F087B2002F01DD052CEBD392
:100D900009E0601EC0B2044601A90A5C2846691C2D
:100DA000CDB203A90A54002CF3DC0D222846691C9D
:100DB000CDB203A90A540A222846691CCDB203A960
:100DC0000A54294603A800F0CDF807B0F0BD00B5DD
:100DD00000F08EF800BD000010B52D48006840F40A
:100DE00070002B4908602B48006840F00100294939
:100DF00008604FF4001000BF2649096801F00201A5
:100E000019B9011EA0F10100F6D12248406822491B
:100E100008402049486008464068204908401D496C
:100E20004860084600681E4908401A49086008469C
:100E3000C06A1C4908401749C8620846006B40F266
:100E400003118843134908630846006B20F480307F
:100E500008630846006B20F0004008630846406BBA
:100E600020F0010048630B48C030006820F4803057
:100E7000C1F8C000002088600649CC31086001F04C
:100E8000C1F800214FF0006000F08CFD10BD0000A3
:100E900088ED00E0001002400C00FF08FFFFC27761
:100EA000FFFFF2FEF0FFFF3F10B501210D4801F0FA
:100EB0000CFB012814D101210A4801F003FBFFF7C4
:100EC000A3FC09480088401C0749088008460088A0
:100ED000B0F5FA6F04DB0020088001200349087098
:100EE00010BD0000000400403C0000203A0000203B
:100EF0000448006820B103480068401E01490860AA
:100F0000704700005000002002460848007850B1A9
:100F10000748007810700748007808700020034BDD
:100F20001870012070470020FCE7000046000020F8
:100F3000470000204800002010B50749074801F08D
:100F400088FB38B1054801F021FBC4B22046FFF709
:100F500059FA00BF10BD0000050005070038014028
:100F600000BFFEE72DE9F04106460C4600270025AC
:100F700014E0715D0C4801F00EFB002704E07F1CBB
:100F8000B7F5803F00D306E040F20771064801F054
:100F90002CFB0028F3D000BF681CC5B2A542E8DBDB
:100FA0002046BDE8F0810000003801400FB4054B39
:100FB00010B503A9044A029800F018F810BC5DF8B7
:100FC00014FB0000ED1400084000002002E008C8F7
:100FD000121F08C1002AFAD170477047002001E0B3
:100FE00001C1121F002AFBD1704700002DE9FF4FFD
:100FF00089B09B460446002506E025280BD05A46BA
:101000000B999047641C6D1C20780028F5D10DB019
:101010002846BDE8F08F0027B8460122474900E086
:10102000074314F8013F203B02FA03F00842F7D1CE
:1010300020782E2819D114F8010F47F004072A2828
:101040000ED06FF02F022078A0F1300109290CD8C2
:1010500008EB880102EB410100EB0108641CF2E798
:101060000A98641C50F8048B0A9020780028CED08F
:10107000642808D0692806D075281ED05A460B99D6
:1010800090476D1C58E00A994FF00A0901C90A916E
:10109000002802DA40422D2102E0390504D52B2137
:1010A0008DF82010012103E0F90704D02021F7E793
:1010B0008A4608AE0DE00021FAE70A994FF00A09C6
:1010C00001C90A91F7E74946FFF75EF8303106F8A3
:1010D000011D0028F7D1ADEB060000F120097807CB
:1010E00001D44FF00108C84502DDA8EB090000E07B
:1010F00000208046002706E008A85A46C05D0B99EC
:1011000090476D1C7F1C5745F6DB04E030205A46A3
:101110000B9990476D1CB8F10001A8F10108F5DCAE
:1011200005E016F8010B5A460B9990476D1CB9F172
:101130000001A9F10109F4DC641C65E7092801003C
:101140000D48006840F008000B49086000BF0A48DD
:10115000006800F008000028F9D10748006840F056
:1011600004000549086000BF0348006800F004005F
:101170000028F9D1704700000824014010B501286B
:1011800002D0022825D110E0134A126822F470021E
:10119000114B1A601A4612684B1E4FF4700404EA91
:1011A00003531A430C4B1A6014E00B4A0C321268BA
:1011B00022F44012084B0C331A601A4612684B1E78
:1011C0004FF4401404EA03531A43034B0C331A60E0
:1011D00000E000BF00BF10BD2C24014030B1074922
:1011E000096841F40061054A116005E00349096896
:1011F00021F40061014A1160704700000824014099
:1012000010B540F2093000F063FE40F2093000F002
:101210004FFE10BD0548006800F0010028B90348E2
:10122000006840F00100014908607047082401404F
:1012300091B100F001022AB1114A126842F4801201
:101240000F4B1A6000F00202C2B10D4A126842F45C
:1012500000420B4B1A6011E000F001022AB1084A6B
:10126000126822F48012064B1A6000F002022AB1C2
:10127000034A126822F40042014B1A6070470000D2
:1012800008240140012802D0022816D10AE00C4AA5
:10129000126822F460220A4B1A601A4612680A4346
:1012A0001A600BE0064A126822F4E042044B1A600E
:1012B0001A4612680A431A6000E000BF00BF704778
:1012C00008240140024909688143014A11607047BE
:1012D0000024014001460020024A12680A4002B17F
:1012E000012070470024014070B5144606280ED234
:1012F000314D2A6800EB80061F25B540AA4300EB5C
:10130000800501FA05F52A432B4D2A602AE00C28B6
:1013100012D2294D2D1F2A68851F05EB85061F2532
:10132000B540AA43851F05EB850501FA05F52A435B
:10133000214D2D1F2A6015E0102813D21E4D083DA7
:101340002A68A0F10C0505EB85061F25B540AA43C8
:10135000A0F10C0505EB850501FA05F52A43164DAC
:10136000083D2A600A2910D2134D243D2B6801EB59
:1013700041060725B540AB4301EB410504FA05F5ED
:101380002B430D4D243D2B6015E0132913D20A4D3C
:10139000283D2B68A1F10A0505EB45060725B54058
:1013A000AB43A1F10A0505EB450504FA05F52B430E
:1013B000014D283D2B6070BD342401400148006878
:1013C00080B270474C2401400549096821F0407102
:1013D000034A11601146096801431160704700001B
:1013E0000424014000F0010129B10849096841F4D1
:1013F0008001064A116000F0020129B10349096821
:1014000041F40011014A11607047000008240140B6
:10141000E9B100F480722AB11C4A126842F4807269
:101420001A4B1A6000F480622AB1184A126842F41A
:101430008062164B1A6000F002022AB3134A121D92
:10144000126842F00202114B1B1D1A601CE000F4EE
:1014500080722AB10D4A126822F480720B4B1A6016
:1014600000F480622AB1094A126822F48062074BB4
:101470001A6000F002023AB1044A121D126822F00A
:101480000202024B1B1D1A60704700000424014039
:1014900010B5F0EE400A03469FED131AB0EE410A74
:1014A000104609E0441E03EB840494ED001A03EB9C
:1014B000800484ED001A401E0028F3DCC3ED000A0E
:1014C00000200EE003EB8004D4ED001A01EB800451
:1014D00094ED002AB0EE401A01EE821AB0EE410AF5
:1014E000401C9042EEDD10BD0000000070B50446C7
:1014F0000E460025E1B2094801F04DF804E06D1CEC
:10150000B5F5803F00D306E040F20771034801F0D3
:101510006CF80028F3D000BF204670BD00380140B1
:1015200030B502460B46164C002145F25550154D7C
:10153000286000BF1348C06800F00101601E041E4F
:1015400001D00029F6D109B1002030BD0D4843601B
:101550000B4C00BF0B48C06800F00201601E041E67
:1015600001D00029F6D109B10020EEE7C2F30B004B
:10157000044DA8604AF6AA2028600120E5E7000093
:10158000FFFF0F00003000404AF6AA200149086022
:1015900070470000003000404CF6CC400149086024
:1015A000704700000030004045F255500149086086
:1015B0007047000000300040F0B503461C6A5D6AC9
:1015C00000200DE00126864016403EB187000F2620
:1015D000BE40B443860001FA06F63443461CB0B25E
:1015E0000828EFD3082011E00126864016405EB19E
:1015F000A0F10806B7000F26BE40B543A0F10806CB
:10160000B60001FA06F63543461CB0B21028EBD3FB
:101610001C625D62F0BD8162704781617047F0B508
:1016200004460D4616462168E268002019E00127AD
:1016300087401F409FB14FEA400C032707FA0CF781
:10164000B943470005FA07F739434FEA400C03272F
:1016500007FA0CF7BA43470006FA07F73A43471C64
:10166000B8B21028E3D32160E260F0BDF0B50446C3
:101670000E46012E03D167681F43676002E067686A
:101680009F436760A1684FF6FF77BA4216D1E56BBA
:1016900000200EE0012787401F4047B14FEA400C71
:1016A000032707FA0CF73943012787403D43471CBE
:1016B000B8B21028EED3A160E56314E000200FE07B
:1016C000012787401F404FB14FEA400C032707FA1C
:1016D0000CF7B943470002FA07F73943471CB8B281
:1016E0001028EDD3A160F0BD8CB0FEF741FEFEF7EF
:1016F00054FE0020FFF740F80120FFF733F80020E8
:10170000FFF744F847A0FFF751FC0025002687E0CB
:10171000FFF73AFF01A902A8FFF7F6FB002829D03E
:10172000FEF76CFF04469DF8080002280FD1072C35
:1017300008D2611CC8B2FFF729F8611C41A0FFF76D
:1017400035FC16E0214645A0FFF730FC11E09DF87E
:10175000080003280DD144B1611EC8B2FFF716F886
:10176000611E46A0FFF722FC03E0214649A0FFF7D7
:101770001DFC00BF03A904A8FEF76AFFBDF8100016
:10178000A84203D1BDF80C00B0420DD0BDF81050F6
:10179000BDF80C6005A906A8FEF736FFBDF81410C9
:1017A000BDF81800FFF7A0FA07AA08A909A8FEF7D4
:1017B00037FFD8B19DF824008DF828009DF820004F
:1017C0008DF829009DF81C008DF82A0000208DF866
:1017D0002B00FEF713FF044600909DF81C309DF887
:1017E00020209DF8241033A0FFF7E0FBFEF7B8FDA2
:1017F000B0B1FEF71DFD3A480068401C384908604A
:101800000846007800F0010028B940214FF09040D0
:10181000FFF703FF04E040214FF09040FFF7FBFE8D
:1018200076E700004761696E20546573743A204979
:101830006E697469616C204C6576656C20300D0AA8
:1018400000000000434D443A204761696E20496E14
:1018500063202D3E2025640D0A000000434D443ACC
:10186000204761696E204D6178207265616368650B
:101870006420282564290D0A00000000434D443AE5
:10188000204761696E20446563202D3E2025640D4C
:101890000A000000434D443A204761696E204D69BB
:1018A0006E207265616368656420282564290D0ACD
:1018B000000000005B5B312C25755D5D0D0A5B5BF4
:1018C000322C25755D5D0D0A5B5B332C25755D5DE6
:1018D0000D0A5B5B342C25755D5D0D0A0000000070
:1018E000000000202DE9F04103460D461646002475
:1018F0000027A0462448006800F4E060B0F5A06F1F
:1019000015D006DCB0F5407F18D0B0F5806F19D146
:1019100010E0B0F5C06F06D0B0F5E06F12D100272F
:101920004FF0040815E001274FF0030811E00227EB
:10193000B8460EE003274FF001080AE004274FF0F5
:10194000000806E04FF4A06000F022F80227B84635
:1019500000BF00BFC7F1040005FA00F4C8F104019C
:101960000F20C8403040044324010848C45403F009
:101970001F01012088405911890001F1E021C1F8BF
:101980000001BDE8F08100000CED00E000E400E0A3
:1019900002490143024A1160704700000000FA0545
:1019A0000CED00E0024A0A400243024B1A60704705
:1019B00080FFFF1F08ED00E00348006840F48070DE
:1019C00001490860704700000070004050494968B4
:1019D00021F440414E4A51601146096B4D4A114075
:1019E0004B4A11630A2871D2DFE800F005111D2768
:1019F0003642535F717D4649096B21F48031444A78
:101A000011631146096B21F4807111637DE0404937
:101A1000096B41F480313E4A11631146096B21F490
:101A20008071116371E03A494968394A5160114641
:101A3000096B41F48071116367E035494968344AA4
:101A400051601146096B41F0004111631146096B69
:101A500041F48071116358E02D49496841F4804197
:101A60002B4A51601146096B41F4807111634CE0BF
:101A70002749496841F48041254A51601146096B64
:101A800041F0004111631146096B41F4807111630B
:101A90003BE01F49496841F400411D4A516011462D
:101AA000096B41F4807111632FE01949496841F4D1
:101AB0000041174A51601146096B41F00041116322
:101AC0001146096B41F4807111631EE01CE010495E
:101AD000496841F440410E4A51601146096B41F496
:101AE0008071116311E00A49496841F44041084A94
:101AF00051601146096B41F0004111631146096BB9
:101B000041F48071116300E000BF00BF7047000026
:101B100000100240FFFEFE7F2DE9F04F92B0064616
:101B20004FF00009CDF84490CDF8409000240020FB
:101B300000250022CDF83C900023CDF83890CDF858
:101B40003490CDF830900021CDF82C90CDF828902D
:101B5000CDF82490CDF820908046002784460FF2DF
:101B6000083999E8004CD9F80C90CDE905BECDF8BC
:101B700010A0CDF81C900FF2F42ADAE9009ACDE912
:101B8000029A0FF2E82ADAE9009ACDE9009ADFF822
:101B9000E892D9F80490C9F38109CDF84490DDF8B2
:101BA0004490B9F1000F06D0B9F1010F05D0B9F199
:101BB000020F61D103E0B14D60E0B04D5EE0DFF8AF
:101BC000B892D9F80490C9F38341DFF8AC92D9F800
:101BD0000490C9F3C069CDF82C90DFF89C92D9F835
:101BE0002C904FEAD979CDF82890DDF82C90B9F1F6
:101BF000000F01D0113104E00F2901D1491C00E090
:101C0000891CDDF82890B9F1010F00D11F31DFF8F0
:101C10006892D9F80490C9F30049CDF82490DFF810
:101C20005892D9F82C90C9F38079CDF82090DDF83E
:101C30002490B9F1000F1AD0DFF83C92D9F82C901B
:101C400009F00F0909F10108DDF82090B9F1000F42
:101C500006D1DFF82892B9FBF8F909FB01F50AE093
:101C6000DFF81C92B9FBF8F909FB01F503E0DFF896
:101C7000149201FB09F501E0804D00BF00BFDFF8C1
:101C8000F891D9F80490C9F303170DF1100919F868
:101C900007C025FA0CF2DFF8E091D9F80490C9F3F7
:101CA00002270DF1080919F807C022FA0CF9CDF83E
:101CB0003C90DFF8C491D9F80490C9F3C2271DF80D
:101CC00007C022FA0CF3072E6FD2DFE806F00406F5
:101CD000080A0C8094002846C1E01046BFE00F9827
:101CE000BDE01846BBE0DFF89091D9F8309009F4D8
:101CF0008079B9F5807F12D0DFF87C91D9F83090E7
:101D000009F48039B9F5803F04D0DFF87C91CDF833
:101D100038905AE0DFF87491CDF8389055E0DFF84C
:101D20005891D9F80490C9F38139CDF84090DFF883
:101D30004891D9F830904FEAD974DDF84090B9F164
:101D4000000F09D0B9F1010F13D0B9F1020F1DD066
:101D5000B9F1030F37D129E024B94FEA5309CDF87F
:101D6000389005E04FF00309B2FBF9F9CDF838904F
:101D70002AE024B94FEA9309CDF8389005E04FF0F6
:101D80000509B2FBF9F9CDF838901DE034B94FF0F0
:101D90000609B3FBF9F9CDF8389005E04FF00709D3
:101DA000B2FBF9F9CDF838900EE057E024B94FEACC
:101DB000D309CDF8389005E04FF00909B2FBF9F9E5
:101DC000CDF8389000E000BF00BF0E9847E0DFF884
:101DD000A890D9F8309009F04009B9F1400F04D02B
:101DE00048F21209CDF8349003E04FF40049CDF8E1
:101DF00034900D9833E0DFF88090D9F8309009F0F6
:101E00000309B9F1000F01D10C9325E0DFF86890C8
:101E1000D9F8309009F00309B9F1010F01D10C95FF
:101E20001AE0DFF85490D9F8309009F00309B9F1BD
:101E3000020F04D14FF40049CDF830900CE0DFF8E8
:101E40003890D9F8309009F00309B9F1030F03D1A4
:101E5000DFF82890CDF830900C9800E000BF00BF6C
:101E600012B0BDE8F08F000000000000000000008C
:101E700001020304060708090010024000127A005C
:101E8000006CDC0200093D00809FD500003FAB01E3
:101E9000064A02EB9011096800F01F0301229A40E4
:101EA0001143024B03EB9012116070470010024087
:101EB000064A02EB9011096800F01F0301229A40C4
:101EC0009143024B03EB90121160704700100240E7
:101ED000064A02EB9011096800F01F0301229A40A4
:101EE0001143024B03EB9012116070470010024047
:101EF00010B53F48006840F001003D4908604FF4CC
:101F0000001400BF3A48006800F0020018B9201E13
:101F1000A4F10104F6D13648006800F0020010B9BF
:101F200000F074F810BD3348006820F00700801CF2
:101F3000304908602E4840682D494860084640688E
:101F400040F4005048600846406840F480604860B3
:101F50000846406828490840254948600846C06A44
:101F6000264908402249C862084640682449084377
:101F70001F4948600846C06AC8620846006840F0C9
:101F8000807008604FF4001400BF1948006800F02A
:101F9000007018B9201EA4F10104F6D1144800689D
:101FA00000F0007010B900F031F8BBE7104840684D
:101FB00020F003000E4948600846406840F00200E7
:101FC00048604FF4001400BF0948406800F0080062
:101FD00018B9201EA4F10104F6D10548406800F0AC
:101FE000080010B900F012F89CE700BF9AE7000063
:101FF0000010024000200240FFFFC0F7F0FFFF3F4B
:102000000000040810B5FFF773FF10BD0E484068CC
:102010000D49486008464068486008464068486086
:102020000846406820F00300486008464068486061
:102030004FF4001000BF04494968002119B9011E7E
:10204000A0F10100F7D170470010024010B531B186
:10205000012945D002297DD003297CD1CBE0036A38
:1020600023F001030362836923F003038361036A9E
:10207000146823430362036A23F002030362036AC2
:10208000D488234303626F4B984208D06E4B98422A
:1020900005D06E4B984202D06D4B98421FD1036A17
:1020A00023F004030362036A948823430362036AF0
:1020B00023F008030362036A14892343036243681D
:1020C00023F4807343604368548923434360436827
:1020D00023F4007343604368948923434360AEE074
:1020E000036A23F010030362836923F4407383615E
:1020F000036A146843EA04130362036A23F02003AB
:102100000362036AD48843EA041303624D4B984286
:1021100026D1036A23F040030362036A948843EAEA
:1021200004130362036A23F080030362036A1489C1
:1021300043EA04130362436823F480634360436803
:10214000548943EA84034360436823F40063436093
:10215000436801E011E071E0948943EA840343603D
:10216000394B984208D1436823F480634360436845
:10217000548943EA8403436061E0036A23F4807373
:102180000362C36923F00303C361036A146843EA6B
:1021900004230362036A23F400730362036AD4888E
:1021A00043EA04230362274B984223D1036A23F4B2
:1021B00080630362036A948843EA04230362036A28
:1021C00023F400630362036A148943EA042303626D
:1021D000436823F4805343604368548943EA0413FB
:1021E0004360436823F4005343604368948943EA9F
:1021F0000413436023E0036A23F480530362C3693A
:1022000023F44073C361036A146843EA043303622E
:10221000036A23F400530362036AD48843EA043355
:102220000362084B984208D1436823F4804343601B
:102230004368548943EA8413436000E000BF00BF51
:1022400010BD0000002C014000400140004401404E
:102250000048014031B101290CD0022913D00329D3
:1022600022D118E0836923F07003836183691343EB
:1022700083611AE0836923F4E0438361836943EA5D
:102280000223836111E0C36923F07003C361C36952
:102290001343C36109E0C36923F4E043C361C36925
:1022A00043EA0223C36100E000BF00BF704731B1C1
:1022B000012906D0022906D0032908D105E042638E
:1022C00006E0826304E0C26302E0026400E000BF53
:1022D00000BF704731B101290CD0022913D0032966
:1022E00022D118E0836923F00803836183691343D3
:1022F00083611AE0836923F400638361836943EA9D
:102300000223836111E0C36923F00803C361C36939
:102310001343C36109E0C36923F40063C361C36964
:1023200043EA0223C36100E000BF00BF7047002101
:1023300001608180C18001814181818170470000FD
:1023400010B504462D49601A8C4214D009DCB4F152
:10235000804F19D02A482044F8B1B0F5E05F49D148
:1023600024E0B0F5A05F2AD0B0F5C05F30D0B0F562
:10237000E05F3FD135E040F20B30FFF7A9FD40F2BE
:102380000B30FFF795FD36E04FF48060FFF7A0FDBE
:102390004FF48060FFF78CFD2DE040F20140FFF725
:1023A00097FD40F20140FFF783FD24E04FF4816088
:1023B000FFF78EFD4FF48160FFF77AFD1BE04FF4CD
:1023C0004470FFF785FD4FF44470FFF771FD12E094
:1023D00040F21130FFF77CFD40F21130FFF768FD4D
:1023E00009E040F21230FFF773FD40F21230FFF7C0
:1023F0005FFD00E000BF00BF10BD0000002C0140E9
:1024000000FCFFBF016841F001010160704700005E
:102410000A888262234A904205D0B0F1804F02D0F0
:10242000214A90420BD1026822F0700202600268D9
:102430004B881A43026002688B881A4302608A68DC
:10244000C262184A904211D0B0F1804F0ED0164AA5
:1024500090420BD0154A904208D0154A904205D0C0
:10246000144A904202D0144A904207D1026822F4E2
:10247000407202600268CB881A430260094A9042A7
:1024800008D00B4A904205D00A4A904202D00A4A2C
:10249000904201D10A7B0263426942F0010242612B
:1024A00070470000002C0140000400400020004064
:1024B000004001400044014000480140C2680A4316
:1024C000C2607047CA43026170470246D06800EAA2
:1024D00001031069084010B10BB1012070470020C2
:1024E000FCE7012904D1426C42F40042426403E05B
:1024F000426C22F400424264704700210180418016
:1025000081804FF6FF7181600021C18001737047A7
:102510002DE9F04704460D460027B846B946002687
:102520001948204438B1B0F5744F09D10620FFF79F
:10253000F3FA074605E00220FFF7EEFA074600E04F
:1025400000BF00BF206800F4004070B1780000EBCD
:102550005500B0FBF5F64FF6F07006EA0008C6F33A
:10256000420948EA0900E0600CE007EB5500B0FBC7
:10257000F5F64FF6F07006EA000806F00F0948EA93
:102580000900E060BDE8F08700BCFFBF0146486A73
:10259000C0F308007047C1F3080282627047000070
:1025A00010B504460D48204458B1B0F5744F11D110
:1025B00040F20E30FFF78CFC40F20E30FFF778FC53
:1025C00009E040F21140FFF783FC40F21140FFF7B1
:1025D0006FFC00E000BF00BF10BD000000BCFFBFEB
:1025E000016841F001010160704710B5024602EB3D
:1025F0009110006801F01F040123A340184008B1A6
:10260000012010BD0020FCE7026822F001020260F8
:10261000826822F40072826082680A438260704796
:10262000026822F001020260826822F480728260F5
:1026300082680A438260704710B500EB91121268FD
:1026400001F01F040123A3401A4300EB91131A6009
:1026500010BD70B5024600230024C1F38910105844
:1026600001F01F060125B54000EA050302EB915079
:102670000068C1F304460125B54000EA050414B121
:102680000BB1012070BD0020FCE7026822F00102BE
:102690000260026822F4C062026002680A430260BB
:1026A0007047026822F00402026002680A43026076
:1026B0007047026822F001020260426822F4405230
:1026C000426042680A4342607047026822F0080292
:1026D000026002680A4302607047026822F0010249
:1026E0000260026822F48052026002680A430260BB
:1026F000704700001427000800000020540000006C
:10270000CC0F000868270008540000204C07000088
:10271000DC0F00080000000000000000CDCCCC3D24
:10272000CDCC4C3ECDCCCC3ECDCC4C3ECDCCCC3D1E
:102730000000000000000000000000000000000099
:102740000000000000000001000000000100000087
:102750000000000000000000000000000000000079
:08276000000000000000000071
:04000005080001519D
:00000001FF
