:020000040800F2
:100000001004002065010008DD0300085D030008FE
:10001000D9030008AD0100082F0600080000000009
:100020000000000000000000000000008104000843
:100030001D03000800000000E1030008850400081B
:100040007F0100087F0100087F0100087F01000890
:100050007F0100087F0100087F0100087F01000880
:100060007F0100087F0100087F0100087F01000870
:100070007F0100087F0100087F0100087F01000860
:100080005D050008000000009D0500087F010008D4
:100090007F0100087F0100087F0100087F01000840
:1000A0007F0100087F0100087F0100087F01000830
:1000B0007F010008000000007F0100080000000030
:1000C0007F010008000000007F0100080000000020
:1000D0000000000000000000000000000000000020
:1000E00000000000000000007F0100080000000088
:1000F0000000000000000000000000000000000000
:100100007F01000800000000000000000000000067
:1001100000000000000000000000000000000000DF
:1001200000000000000000000000000000000000CF
:1001300000000000000000000000000000000000BF
:100140000000000000000000000000007F01000827
:10015000DFF80CD000F018F800480047CB07000883
:10016000100400200648804706480047FEE7FEE7E7
:10017000FEE7FEE7FEE7FEE7FEE7FEE7FEE7FEE757
:100180008D04000851010008064C074D06E0E068A8
:1001900040F0010394E8070098471034AC42F6D3CE
:1001A000FFF7DAFF701100089011000800BFFEE7AA
:1001B00000200149087070470300002010B54FF47B
:1001C000A06000F089FB10BD7FB504460D4640F2EB
:1001D000017000F051FD0F4800F02CFE684600F061
:1001E000FAFEADF800500020ADF804000294ADF81E
:1001F00006006946074800F085FE0121054800F029
:10020000D7FE00220121102000F010FB014800F071
:1002100073FE7FBD000400407FB504460D4640F2EA
:10022000037000F029FD0F4800F004FE684600F05E
:10023000D2FEADF800500020ADF804000294ADF8F5
:1002400006006946074800F05DFE0121054800F000
:10025000AFFE00220121122000F0E8FA014800F070
:100260004BFE7FBD000C004010B5044640F211501B
:1002700000F002FD40F20E6000F0FEFC4FF4007250
:1002800001214FF0904000F008FA4FF40073012272
:1002900002214FF0904000F033FA4FF40073032234
:1002A00000214FF0904000F052FA4FF4806201219B
:1002B0004FF0904000F0F1F94FF4806301220221E9
:1002C0004FF0904000F01CFA134800F0D1FE214698
:1002D000114800F08BFE00210F4800F029FF00219B
:1002E0000D4800F039FF00210B4800F00DFF002100
:1002F000094800F0FDFE0021074800F0EDFE002156
:10030000054800F00DFF0821034800F01DFF0248DA
:1003100000F0CEFE10BD00000038014000BFFEE737
:1003200001B582B0002001900DE00020009003E0B4
:1003300000BF0098401C00900098B0F5E15FF7D333
:100340000198401C0190DDE901018842EDD30EBD0A
:1003500001480078704700000300002000BFFEE75E
:1003600010B500F022F84FF4E13000F02FF800F063
:1003700021F800F001F810BD10B540F2115000F066
:100380007BFC4023002201214FF0904000F0B8F99F
:100390004023032200214FF0904000F0D8F9402183
:1003A0004FF0904000F0A8F910BD10B5FFF706FF20
:1003B00010BD704710B5472140F2E730FFF704FF4A
:1003C000472140F2E730FFF727FF10BD10B5044684
:1003D0002046FFF749FF10BD00BFFEE700BFFEE764
:1003E00000BFFEE71CB5FFF7B3FF002843D022484B
:1003F000007840B140214FF0904000F07DF900209E
:100400001D49087007E040214FF0904000F076F958
:1004100001201949087019480078401C17490870D4
:10042000084600780B2190FBF1F201FB12005A30D4
:10043000C0B28DF800001148007800EB40003D216B
:1004400090FBF1F201FB12003C30C0B28DF80100CC
:100450000A480078142190FBF1F201FB1200401CC5
:10046000C0B28DF8020000208DF80300684600F04D
:10047000C5F8FFF79DFE1CBD000000200100002014
:1004800000BFFEE700B500F0ADF800BD10B52D4887
:10049000006840F470002B4908602B48006840F069
:1004A0000100294908604FF4001000BF264909687F
:1004B00001F0020119B9011EA0F10100F6D1224894
:1004C0004068224908402049486008464068204961
:1004D00008401D494860084600681E4908401A49FE
:1004E00008600846C06A1C4908401749C8620846A7
:1004F000006B40F203118843134908630846006B00
:1005000020F4803008630846006B20F00040086348
:100510000846406B20F0010048630B48C03000687B
:1005200020F48030C1F8C000002088600649CC313A
:10053000086000F05BFC00214FF0006000F0D6F98D
:1005400010BD000088ED00E0001002400C00FF0824
:10055000FFFFC277FFFFF2FEF0FFFF3F10B5012162
:100560000B4800F02CFD012803D10121084800F0C0
:1005700023FD08480088401C06490880084600887A
:10058000022804DB0020088001200349087010BD08
:1005900000040040040000200200002010B50121EA
:1005A0000D4800F00CFD012803D101210A4800F09C
:1005B00003FD0A480088401C00B20849088008462C
:1005C000B0F90000B0F57A7F04DB0020088001203C
:1005D0000349087010BD0000000C00400600002018
:1005E000030000200448006820B103480068401E52
:1005F0000149086070470000080000201CB504464F
:10060000AA208DF8000003208DF8010020788DF8D5
:10061000020060788DF80300A0788DF80400552062
:100620008DF805000621684600F004F81CBD00BFE7
:10063000FEE700002DE9F04106460C4600270025A4
:1006400014E0715D0C4800F00FFD002704E07F1CF2
:10065000B7F5803F00D306E040F20771064800F08E
:100660002CFD0028F3D000BF681CC5B2A542E8DB12
:100670002046BDE8F08100000038014002E008C8D3
:10068000121F08C1002AFAD170477047002001E00C
:1006900001C1121F002AFBD17047F0B503461C6A46
:1006A0005D6A00200DE00126864016403EB18700BD
:1006B0000F26BE40B443860001FA06F63443461CBA
:1006C000B0B20828EFD3082011E00126864016407A
:1006D0005EB1A0F10806B7000F26BE40B543A0F1F9
:1006E0000806B60001FA06F63543461CB0B21028DB
:1006F000EBD31C625D62F0BD81627047816170471F
:10070000F0B504460D4616462168E268002019E05F
:10071000012787401F409FB14FEA400C032707FA8B
:100720000CF7B943470005FA07F739434FEA400C85
:10073000032707FA0CF7BA43470006FA07F73A43CC
:10074000471CB8B21028E3D32160E260F0BDF0B5D9
:1007500004460E46012E03D167681F43676002E01E
:1007600067689F436760A1684FF6FF77BA4216D16A
:10077000E56B00200EE0012787401F4047B14FEA9C
:10078000400C032707FA0CF73943012787403D4304
:10079000471CB8B21028EED3A160E56314E0002036
:1007A0000FE0012787401F404FB14FEA400C03275D
:1007B00007FA0CF7B943470002FA07F73943471C19
:1007C000B8B21028EDD3A160F0BD1CB5FFF7C8FD8D
:1007D000FFF7EFFD63208DF8000050208DF8010039
:1007E0000A208DF8020000208DF803006846FFF70C
:1007F00005FFC820FFF794FD002410E040214FF0D2
:100800009040FFF77BFF5020FFF78AFD40214FF01B
:100810009040FFF771FF5020FFF782FD641C032C0E
:10082000ECDB01E0FFF7DEFDFCE700002DE9F04125
:1008300003460D46164600240027A04624480068BB
:1008400000F4E060B0F5A06F15D006DCB0F5407F95
:1008500018D0B0F5806F19D110E0B0F5C06F06D098
:10086000B0F5E06F12D100274FF0040815E0012722
:100870004FF0030811E00227B8460EE003274FF0BF
:1008800001080AE004274FF0000806E04FF4A060DA
:1008900000F022F80227B84600BF00BFC7F10400ED
:1008A00005FA00F4C8F104010F20C84030400443A9
:1008B00024010848C45403F01F0101208840591145
:1008C000890001F1E021C1F80001BDE8F0810000DC
:1008D0000CED00E000E400E002490143024A11602F
:1008E000704700000000FA050CED00E0024A0A40E3
:1008F0000243024B1A60704780FFFF1F08ED00E0C3
:100900002DE9F04F92B006464FF00009CDF8449023
:10091000CDF840900024002000250022CDF83C9026
:100920000023CDF83890CDF83490CDF830900021E8
:10093000CDF82C90CDF82890CDF82490CDF82090CB
:100940008046002784460FF2083999E8004CD9F810
:100950000C90CDE905BECDF810A0CDF81C900FF29B
:10096000F42ADAE9009ACDE9029A0FF2E82ADAE9E4
:10097000009ACDE9009ADFF8E892D9F80490C9F31B
:100980008109CDF84490DDF84490B9F1000F06D00C
:10099000B9F1010F05D0B9F1020F61D103E0B14DFA
:1009A00060E0B04D5EE0DFF8B892D9F80490C9F38A
:1009B0008341DFF8AC92D9F80490C9F3C069CDF84F
:1009C0002C90DFF89C92D9F82C904FEAD979CDF889
:1009D0002890DDF82C90B9F1000F01D0113104E01E
:1009E0000F2901D1491C00E0891CDDF82890B9F1DC
:1009F000010F00D11F31DFF86892D9F80490C9F3D4
:100A00000049CDF82490DFF85892D9F82C90C9F31A
:100A10008079CDF82090DDF82490B9F1000F1AD03C
:100A2000DFF83C92D9F82C9009F00F0909F1010880
:100A3000DDF82090B9F1000F06D1DFF82892B9FB5C
:100A4000F8F909FB01F50AE0DFF81C92B9FBF8F9A7
:100A500009FB01F503E0DFF8149201FB09F501E061
:100A6000804D00BF00BFDFF8F891D9F80490C9F3BA
:100A700003170DF1100919F807C025FA0CF2DFF879
:100A8000E091D9F80490C9F302270DF1080919F88B
:100A900007C022FA0CF9CDF83C90DFF8C491D9F8E0
:100AA0000490C9F3C2271DF807C022FA0CF3072EE1
:100AB0006FD2DFE806F00406080A0C80940028468E
:100AC000C1E01046BFE00F98BDE01846BBE0DFF87C
:100AD0009091D9F8309009F48079B9F5807F12D0DF
:100AE000DFF87C91D9F8309009F48039B9F5803F6E
:100AF00004D0DFF87C91CDF838905AE0DFF874919B
:100B0000CDF8389055E0DFF85891D9F80490C9F342
:100B10008139CDF84090DFF84891D9F830904FEA0C
:100B2000D974DDF84090B9F1000F09D0B9F1010F87
:100B300013D0B9F1020F1DD0B9F1030F37D129E05D
:100B400024B94FEA5309CDF8389005E04FF0030976
:100B5000B2FBF9F9CDF838902AE024B94FEA9309AD
:100B6000CDF8389005E04FF00509B2FBF9F9CDF862
:100B700038901DE034B94FF00609B3FBF9F9CDF810
:100B8000389005E04FF00709B2FBF9F9CDF838903D
:100B90000EE057E024B94FEAD309CDF8389005E0CC
:100BA0004FF00909B2FBF9F9CDF8389000E000BF29
:100BB00000BF0E9847E0DFF8A890D9F8309009F010
:100BC0004009B9F1400F04D048F21209CDF8349031
:100BD00003E04FF40049CDF834900D9833E0DFF88E
:100BE0008090D9F8309009F00309B9F1000F01D1D4
:100BF0000C9325E0DFF86890D9F8309009F00309EC
:100C0000B9F1010F01D10C951AE0DFF85490D9F831
:100C1000309009F00309B9F1020F04D14FF40049F3
:100C2000CDF830900CE0DFF83890D9F8309009F02A
:100C30000309B9F1030F03D1DFF82890CDF8309004
:100C40000C9800E000BF00BF12B0BDE8F08F0000BC
:100C5000000000000000000001020304060708096C
:100C60000010024000127A00006CDC0200093D0016
:100C7000809FD500003FAB01064A02EB9011096846
:100C800000F01F0301229A401143024B03EB901224
:100C90001160704700100240064A02EB901109688B
:100CA00000F01F0301229A409143024B03EB901284
:100CB0001160704700100240064A02EB901109686B
:100CC00000F01F0301229A401143024B03EB9012E4
:100CD000116070470010024010B53F48006840F0B6
:100CE00001003D4908604FF4001400BF3A48006815
:100CF00000F0020018B9201EA4F10104F6D1364814
:100D0000006800F0020010B900F074F810BD33481C
:100D1000006820F00700801C304908602E484068B9
:100D20002D4948600846406840F400504860084635
:100D3000406840F4806048600846406828490840A0
:100D4000254948600846C06A264908402249C862C9
:100D500008464068244908431F4948600846C06A5D
:100D6000C8620846006840F0807008604FF40014C4
:100D700000BF1948006800F0007018B9201EA4F1E7
:100D80000104F6D11448006800F0007010B900F0BA
:100D900031F8BBE71048406820F003000E49486076
:100DA0000846406840F0020048604FF4001400BF5D
:100DB0000948406800F0080018B9201EA4F1010499
:100DC000F6D10548406800F0080010B900F012F8AC
:100DD0009CE700BF9AE7000000100240002002409C
:100DE000FFFFC0F7F0FFFF3F0000040810B5FFF75A
:100DF00073FF10BD0E4840680D49486008464068C2
:100E000048600846406848600846406820F0030093
:100E100048600846406848604FF4001000BF04492D
:100E20004968002119B9011EA0F10100F7D17047EE
:100E30000010024010B504462D49601A8C4214D0AF
:100E400009DCB4F1804F19D02A482044F8B1B0F53C
:100E5000E05F49D124E0B0F5A05F2AD0B0F5C05FD3
:100E600030D0B0F5E05F3FD135E040F20B30FFF716
:100E700023FF40F20B30FFF70FFF36E04FF48060A6
:100E8000FFF71AFF4FF48060FFF706FF2DE040F2F6
:100E90000140FFF711FF40F20140FFF7FDFE24E0A3
:100EA0004FF48160FFF708FF4FF48160FFF7F4FE15
:100EB0001BE04FF44470FFF7FFFE4FF44470FFF760
:100EC000EBFE12E040F21130FFF7F6FE40F2113077
:100ED000FFF7E2FE09E040F21230FFF7EDFE40F2CC
:100EE0001230FFF7D9FE00E000BF00BF10BD0000C8
:100EF000002C014000FCFFBF016841F001010160CE
:100F0000704700000A888262234A904205D0B0F1FF
:100F1000804F02D0214A90420BD1026822F0700229
:100F2000026002684B881A43026002688B881A4389
:100F300002608A68C262184A904211D0B0F1804FB4
:100F40000ED0164A90420BD0154A904208D0154A4E
:100F5000904205D0144A904202D0144A904207D1E0
:100F6000026822F4407202600268CB881A43026071
:100F7000094A904208D00B4A904205D00A4A904252
:100F800002D00A4A904201D10A7B0263426942F0D0
:100F90000102426170470000002C01400004004043
:100FA0000020004000400140004401400048014052
:100FB000C2680A43C2607047CA4302617047024672
:100FC000D06800EA01031069084010B10BB101209C
:100FD00070470020FCE700210180418081804FF6AE
:100FE000FF7181600021C180017370472DE9F047D6
:100FF00004460D460027B846B94600261948204445
:1010000038B1B0F5744F09D10620FFF779FC0746D7
:1010100005E00220FFF774FC074600E000BF00BFB8
:10102000206800F4004070B1780000EB5500B0FB80
:10103000F5F64FF6F07006EA0008C6F3420948EAF2
:101040000900E0600CE007EB5500B0FBF5F64FF649
:10105000F07006EA000806F00F0948EA0900E060AF
:10106000BDE8F08700BCFFBFC1F308028262704791
:1010700010B504460D48204458B1B0F5744F11D155
:1010800040F20E30FFF718FE40F20E30FFF704FE7C
:1010900009E040F21140FFF70FFE40F21140FFF768
:1010A000FBFD00E000BF00BF10BD000000BCFFBFA3
:1010B000016841F001010160704710B5024602EB82
:1010C0009110006801F01F040123A340184008B1EB
:1010D000012010BD0020FCE7026822F0010202603E
:1010E000826822F40072826082680A4382607047DC
:1010F000026822F001020260826822F4807282603B
:1011000082680A4382607047026822F0010202602E
:10111000026822F4C062026002680A4302607047FB
:10112000026822F00402026002680A43026070470B
:10113000026822F001020260426822F440524260DA
:1011400042680A4342607047026822F00802026067
:1011500002680A4302607047026822F001020260DE
:10116000026822F48052026002680A4302607047FB
:1011700090110008000000200C0000007C06000810
:101180009C1100080C000020040400008C060008DC
:0C11900000000000000000000000000053
:04000005080001519D
:00000001FF
